{
  "_format": "hh-sol-artifact-1",
  "contractName": "RewardPool",
  "sourceName": "contracts/reward/RewardPool.sol",
  "abi": [
    {
      "inputs": [
        {
          "internalType": "address",
          "name": "_mainToken",
          "type": "address"
        }
      ],
      "stateMutability": "nonpayable",
      "type": "constructor"
    },
    {
      "anonymous": false,
      "inputs": [
        {
          "indexed": false,
          "internalType": "address",
          "name": "account",
          "type": "address"
        }
      ],
      "name": "Paused",
      "type": "event"
    },
    {
      "anonymous": false,
      "inputs": [
        {
          "indexed": false,
          "internalType": "uint256",
          "name": "id",
          "type": "uint256"
        },
        {
          "indexed": false,
          "internalType": "address",
          "name": "user",
          "type": "address"
        },
        {
          "indexed": false,
          "internalType": "uint256",
          "name": "amount",
          "type": "uint256"
        },
        {
          "indexed": false,
          "internalType": "uint256",
          "name": "timestamp",
          "type": "uint256"
        }
      ],
      "name": "RewardDistributed",
      "type": "event"
    },
    {
      "anonymous": false,
      "inputs": [
        {
          "indexed": true,
          "internalType": "bytes32",
          "name": "role",
          "type": "bytes32"
        },
        {
          "indexed": true,
          "internalType": "bytes32",
          "name": "previousAdminRole",
          "type": "bytes32"
        },
        {
          "indexed": true,
          "internalType": "bytes32",
          "name": "newAdminRole",
          "type": "bytes32"
        }
      ],
      "name": "RoleAdminChanged",
      "type": "event"
    },
    {
      "anonymous": false,
      "inputs": [
        {
          "indexed": true,
          "internalType": "bytes32",
          "name": "role",
          "type": "bytes32"
        },
        {
          "indexed": true,
          "internalType": "address",
          "name": "account",
          "type": "address"
        },
        {
          "indexed": true,
          "internalType": "address",
          "name": "sender",
          "type": "address"
        }
      ],
      "name": "RoleGranted",
      "type": "event"
    },
    {
      "anonymous": false,
      "inputs": [
        {
          "indexed": true,
          "internalType": "bytes32",
          "name": "role",
          "type": "bytes32"
        },
        {
          "indexed": true,
          "internalType": "address",
          "name": "account",
          "type": "address"
        },
        {
          "indexed": true,
          "internalType": "address",
          "name": "sender",
          "type": "address"
        }
      ],
      "name": "RoleRevoked",
      "type": "event"
    },
    {
      "anonymous": false,
      "inputs": [
        {
          "indexed": false,
          "internalType": "address",
          "name": "account",
          "type": "address"
        }
      ],
      "name": "Unpaused",
      "type": "event"
    },
    {
      "anonymous": false,
      "inputs": [
        {
          "indexed": false,
          "internalType": "uint256",
          "name": "id",
          "type": "uint256"
        },
        {
          "indexed": false,
          "internalType": "address",
          "name": "user",
          "type": "address"
        },
        {
          "indexed": false,
          "internalType": "uint256",
          "name": "amount",
          "type": "uint256"
        },
        {
          "indexed": false,
          "internalType": "uint256",
          "name": "timestamp",
          "type": "uint256"
        }
      ],
      "name": "WithdrawRequested",
      "type": "event"
    },
    {
      "inputs": [],
      "name": "DEFAULT_ADMIN_ROLE",
      "outputs": [
        {
          "internalType": "bytes32",
          "name": "",
          "type": "bytes32"
        }
      ],
      "stateMutability": "view",
      "type": "function"
    },
    {
      "inputs": [],
      "name": "PAUSER_ROLE",
      "outputs": [
        {
          "internalType": "bytes32",
          "name": "",
          "type": "bytes32"
        }
      ],
      "stateMutability": "view",
      "type": "function"
    },
    {
      "inputs": [
        {
          "internalType": "uint256",
          "name": "_id",
          "type": "uint256"
        }
      ],
      "name": "distributeReward",
      "outputs": [],
      "stateMutability": "nonpayable",
      "type": "function"
    },
    {
      "inputs": [],
      "name": "getBalanceOfRewardPool",
      "outputs": [
        {
          "internalType": "uint256",
          "name": "",
          "type": "uint256"
        }
      ],
      "stateMutability": "view",
      "type": "function"
    },
    {
      "inputs": [
        {
          "internalType": "bytes32",
          "name": "role",
          "type": "bytes32"
        }
      ],
      "name": "getRoleAdmin",
      "outputs": [
        {
          "internalType": "bytes32",
          "name": "",
          "type": "bytes32"
        }
      ],
      "stateMutability": "view",
      "type": "function"
    },
    {
      "inputs": [
        {
          "internalType": "bytes32",
          "name": "role",
          "type": "bytes32"
        },
        {
          "internalType": "address",
          "name": "account",
          "type": "address"
        }
      ],
      "name": "grantRole",
      "outputs": [],
      "stateMutability": "nonpayable",
      "type": "function"
    },
    {
      "inputs": [
        {
          "internalType": "bytes32",
          "name": "role",
          "type": "bytes32"
        },
        {
          "internalType": "address",
          "name": "account",
          "type": "address"
        }
      ],
      "name": "hasRole",
      "outputs": [
        {
          "internalType": "bool",
          "name": "",
          "type": "bool"
        }
      ],
      "stateMutability": "view",
      "type": "function"
    },
    {
      "inputs": [
        {
          "internalType": "address",
          "name": "",
          "type": "address"
        }
      ],
      "name": "lastWithdraw",
      "outputs": [
        {
          "internalType": "uint256",
          "name": "",
          "type": "uint256"
        }
      ],
      "stateMutability": "view",
      "type": "function"
    },
    {
      "inputs": [],
      "name": "mainToken",
      "outputs": [
        {
          "internalType": "contract IERC20",
          "name": "",
          "type": "address"
        }
      ],
      "stateMutability": "view",
      "type": "function"
    },
    {
      "inputs": [],
      "name": "pause",
      "outputs": [],
      "stateMutability": "nonpayable",
      "type": "function"
    },
    {
      "inputs": [],
      "name": "paused",
      "outputs": [
        {
          "internalType": "bool",
          "name": "",
          "type": "bool"
        }
      ],
      "stateMutability": "view",
      "type": "function"
    },
    {
      "inputs": [
        {
          "internalType": "bytes32",
          "name": "role",
          "type": "bytes32"
        },
        {
          "internalType": "address",
          "name": "account",
          "type": "address"
        }
      ],
      "name": "renounceRole",
      "outputs": [],
      "stateMutability": "nonpayable",
      "type": "function"
    },
    {
      "inputs": [
        {
          "internalType": "uint256",
          "name": "_amount",
          "type": "uint256"
        }
      ],
      "name": "requestWithdraw",
      "outputs": [],
      "stateMutability": "nonpayable",
      "type": "function"
    },
    {
      "inputs": [
        {
          "internalType": "bytes32",
          "name": "role",
          "type": "bytes32"
        },
        {
          "internalType": "address",
          "name": "account",
          "type": "address"
        }
      ],
      "name": "revokeRole",
      "outputs": [],
      "stateMutability": "nonpayable",
      "type": "function"
    },
    {
      "inputs": [],
      "name": "stakeAddress",
      "outputs": [
        {
          "internalType": "address",
          "name": "",
          "type": "address"
        }
      ],
      "stateMutability": "view",
      "type": "function"
    },
    {
      "inputs": [
        {
          "internalType": "bytes4",
          "name": "interfaceId",
          "type": "bytes4"
        }
      ],
      "name": "supportsInterface",
      "outputs": [
        {
          "internalType": "bool",
          "name": "",
          "type": "bool"
        }
      ],
      "stateMutability": "view",
      "type": "function"
    },
    {
      "inputs": [],
      "name": "unpause",
      "outputs": [],
      "stateMutability": "nonpayable",
      "type": "function"
    },
    {
      "inputs": [
        {
          "internalType": "uint256",
          "name": "",
          "type": "uint256"
        }
      ],
      "name": "withdraws",
      "outputs": [
        {
          "internalType": "uint256",
          "name": "id",
          "type": "uint256"
        },
        {
          "internalType": "address",
          "name": "user",
          "type": "address"
        },
        {
          "internalType": "uint256",
          "name": "amount",
          "type": "uint256"
        },
        {
          "internalType": "uint256",
          "name": "timestamp",
          "type": "uint256"
        },
        {
          "internalType": "bool",
          "name": "isWithdrawn",
          "type": "bool"
        }
      ],
      "stateMutability": "view",
      "type": "function"
    }
  ],
  "bytecode": "0x6080604052682086ac35105260000060045534801561001d57600080fd5b50604051620012943803806200129483398101604081905261003e9161014d565b6001805460ff19168155600255600580546001600160a01b0319166001600160a01b0383161790556100716000336100a1565b61009b7f65d7a28e3265b37a6474929f336521b332c1681b933f6cb9f3376673440d862a336100a1565b5061017b565b6100ab82826100af565b5050565b6000828152602081815260408083206001600160a01b038516845290915290205460ff166100ab576000828152602081815260408083206001600160a01b03851684529091529020805460ff191660011790556101093390565b6001600160a01b0316816001600160a01b0316837f2f8788117e7eff1d82e926ec794901d17c78024a50270940304540a733656f0d60405160405180910390a45050565b60006020828403121561015e578081fd5b81516001600160a01b0381168114610174578182fd5b9392505050565b611109806200018b6000396000f3fe608060405234801561001057600080fd5b50600436106101165760003560e01c8063745400c9116100a2578063940a4e4511610071578063940a4e45146102b7578063a217fddf146102ca578063d547741f146102d2578063e63ab1e9146102e5578063f0e258361461030c57600080fd5b8063745400c9146102765780638456cb5914610289578063851073671461029157806391d14854146102a457600080fd5b80633f4ba83a116100e95780633f4ba83a1461019c5780633fc15f15146101a457806355466c37146101cf5780635c975abb1461024b578063624d7b721461025657600080fd5b806301ffc9a71461011b578063248a9ca3146101435780632f2ff15d1461017457806336568abe14610189575b600080fd5b61012e610129366004610ef6565b610314565b60405190151581526020015b60405180910390f35b610166610151366004610eb3565b60009081526020819052604090206001015490565b60405190815260200161013a565b610187610182366004610ecb565b61034b565b005b610187610197366004610ecb565b610376565b6101876103f9565b6005546101b7906001600160a01b031681565b6040516001600160a01b03909116815260200161013a565b6102196101dd366004610eb3565b6007602052600090815260409020805460018201546002830154600384015460049094015492936001600160a01b039092169290919060ff1685565b604080519586526001600160a01b0390941660208601529284019190915260608301521515608082015260a00161013a565b60015460ff1661012e565b610166610264366004610e79565b60086020526000908152604090205481565b610187610284366004610eb3565b61042f565b6101876105ce565b6006546101b7906001600160a01b031681565b61012e6102b2366004610ecb565b610601565b6101876102c5366004610eb3565b61062a565b610166600081565b6101876102e0366004610ecb565b610966565b6101667f65d7a28e3265b37a6474929f336521b332c1681b933f6cb9f3376673440d862a81565b61016661098c565b60006001600160e01b03198216637965db0b60e01b148061034557506301ffc9a760e01b6001600160e01b03198316145b92915050565b6000828152602081905260409020600101546103678133610a1a565b6103718383610a7e565b505050565b6001600160a01b03811633146103eb5760405162461bcd60e51b815260206004820152602f60248201527f416363657373436f6e74726f6c3a2063616e206f6e6c792072656e6f756e636560448201526e103937b632b9903337b91039b2b63360891b60648201526084015b60405180910390fd5b6103f58282610b02565b5050565b7f65d7a28e3265b37a6474929f336521b332c1681b933f6cb9f3376673440d862a6104248133610a1a565b61042c610b67565b50565b60015460ff16156104525760405162461bcd60e51b81526004016103e290610fde565b6002805414156104a45760405162461bcd60e51b815260206004820152601f60248201527f5265656e7472616e637947756172643a207265656e7472616e742063616c6c0060448201526064016103e2565b600280553360009081526008602052604090205462015180906104c7904261105f565b116104d157600080fd5b6004548110156104e057600080fd5b60006104eb60035490565b6040805160a08101825282815233602080830182815283850188815242606080870182815260006080808a018281528c835260078952918b902099518a55955160018a0180546001600160a01b0319166001600160a01b039092169190911790559351600289015551600388015591516004909601805460ff191696151596909617909555855187815292830193909352938101879052908101919091529192507fdb2996feda86e47ca5f67853152092a6550eed65751f9e2d37b2b8daa4258e65910160405180910390a16105c5600380546001019055565b50506001600255565b7f65d7a28e3265b37a6474929f336521b332c1681b933f6cb9f3376673440d862a6105f98133610a1a565b61042c610bfa565b6000918252602082815260408084206001600160a01b0393909316845291905290205460ff1690565b60015460ff161561064d5760405162461bcd60e51b81526004016103e290610fde565b60006106598133610a1a565b6002805414156106ab5760405162461bcd60e51b815260206004820152601f60248201527f5265656e7472616e637947756172643a207265656e7472616e742063616c6c0060448201526064016103e2565b60028055600082815260076020818152604080842060018101546001600160a01b03168086526008845291852054878652939092526003909101549092916106f29161105f565b6000858152600760205260409020600201549091506201518082118061072e57506001600160a01b038316600090815260086020526040902054155b61073757600080fd5b60045481101561074657600080fd5b60006206978083111561075b575060026107df565b62054600831180156107705750620697808311155b1561077d5750600c6107df565b6203f480831180156107925750620546008311155b1561079f575060166107df565b6202a300831180156107b457506203f4808311155b156107c1575060206107df565b62015180831180156107d657506202a3008311155b156107df5750602a5b60006107f660646107f08585610c50565b90610c63565b905060006108048483610c6f565b905061080e61098c565b81106108515760405162461bcd60e51b81526020600482015260126024820152716e6f7420656e6f7567682062616c616e636560701b60448201526064016103e2565b60055460405163a9059cbb60e01b81526001600160a01b038881166004830152602482018490529091169063a9059cbb90604401602060405180830381600087803b15801561089f57600080fd5b505af11580156108b3573d6000803e3d6000fd5b505050506040513d601f19601f820116820180604052508101906108d79190610e93565b506000888152600760209081526040808320600401805460ff191660011790556001600160a01b0389168084526008835292819020429081905581518c815292830193909352810183905260608101919091527f602ab809fa82d3a742a4f9a33cdd154988d8b0f578ee4dc91de3dc412bf026b99060800160405180910390a150506001600255505050505050565b6000828152602081905260409020600101546109828133610a1a565b6103718383610b02565b6000806109998133610a1a565b6005546040516370a0823160e01b81523060048201526001600160a01b03909116906370a082319060240160206040518083038186803b1580156109dc57600080fd5b505afa1580156109f0573d6000803e3d6000fd5b505050506040513d601f19601f82011682018060405250810190610a149190610f1e565b91505090565b610a248282610601565b6103f557610a3c816001600160a01b03166014610c7b565b610a47836020610c7b565b604051602001610a58929190610f36565b60408051601f198184030181529082905262461bcd60e51b82526103e291600401610fab565b610a888282610601565b6103f5576000828152602081815260408083206001600160a01b03851684529091529020805460ff19166001179055610abe3390565b6001600160a01b0316816001600160a01b0316837f2f8788117e7eff1d82e926ec794901d17c78024a50270940304540a733656f0d60405160405180910390a45050565b610b0c8282610601565b156103f5576000828152602081815260408083206001600160a01b0385168085529252808320805460ff1916905551339285917ff6391f5c32d9c69d2a47ea670b442974b53935d1edc7fd64eb21e047a839171b9190a45050565b60015460ff16610bb05760405162461bcd60e51b815260206004820152601460248201527314185d5cd8589b194e881b9bdd081c185d5cd95960621b60448201526064016103e2565b6001805460ff191690557f5db9ee0a495bf2e6ff9c91a7834c1ba4fdd244a5e8aa4e537bd38aeae4b073aa335b6040516001600160a01b03909116815260200160405180910390a1565b60015460ff1615610c1d5760405162461bcd60e51b81526004016103e290610fde565b6001805460ff1916811790557f62e78cea01bee320cd4e420270b5ea74000d11b0c9f74754ebdbfc544b05a25833610bdd565b6000610c5c8284611040565b9392505050565b6000610c5c8284611020565b6000610c5c828461105f565b60606000610c8a836002611040565b610c95906002611008565b67ffffffffffffffff811115610cbb57634e487b7160e01b600052604160045260246000fd5b6040519080825280601f01601f191660200182016040528015610ce5576020820181803683370190505b509050600360fc1b81600081518110610d0e57634e487b7160e01b600052603260045260246000fd5b60200101906001600160f81b031916908160001a905350600f60fb1b81600181518110610d4b57634e487b7160e01b600052603260045260246000fd5b60200101906001600160f81b031916908160001a9053506000610d6f846002611040565b610d7a906001611008565b90505b6001811115610e0e576f181899199a1a9b1b9c1cb0b131b232b360811b85600f1660108110610dbc57634e487b7160e01b600052603260045260246000fd5b1a60f81b828281518110610de057634e487b7160e01b600052603260045260246000fd5b60200101906001600160f81b031916908160001a90535060049490941c93610e07816110a6565b9050610d7d565b508315610c5c5760405162461bcd60e51b815260206004820181905260248201527f537472696e67733a20686578206c656e67746820696e73756666696369656e7460448201526064016103e2565b80356001600160a01b0381168114610e7457600080fd5b919050565b600060208284031215610e8a578081fd5b610c5c82610e5d565b600060208284031215610ea4578081fd5b81518015158114610c5c578182fd5b600060208284031215610ec4578081fd5b5035919050565b60008060408385031215610edd578081fd5b82359150610eed60208401610e5d565b90509250929050565b600060208284031215610f07578081fd5b81356001600160e01b031981168114610c5c578182fd5b600060208284031215610f2f578081fd5b5051919050565b7f416363657373436f6e74726f6c3a206163636f756e7420000000000000000000815260008351610f6e816017850160208801611076565b7001034b99036b4b9b9b4b733903937b6329607d1b6017918401918201528351610f9f816028840160208801611076565b01602801949350505050565b6020815260008251806020840152610fca816040850160208701611076565b601f01601f19169190910160400192915050565b60208082526010908201526f14185d5cd8589b194e881c185d5cd95960821b604082015260600190565b6000821982111561101b5761101b6110bd565b500190565b60008261103b57634e487b7160e01b81526012600452602481fd5b500490565b600081600019048311821515161561105a5761105a6110bd565b500290565b600082821015611071576110716110bd565b500390565b60005b83811015611091578181015183820152602001611079565b838111156110a0576000848401525b50505050565b6000816110b5576110b56110bd565b506000190190565b634e487b7160e01b600052601160045260246000fdfea2646970667358221220e1626ef2aab60b14cf4265a0dba2dd3353aa6e3609bc663a7d652aac6496741d64736f6c63430008040033",
  "linkReferences": {},
  "deployedLinkReferences": {}
}