{
  "_format": "hh-sol-artifact-1",
  "contractName": "RewardPool",
  "sourceName": "contracts/reward/RewardPool.sol",
  "abi": [
    {
      "inputs": [
        {
          "internalType": "address",
          "name": "_mainToken",
          "type": "address"
        }
      ],
      "stateMutability": "nonpayable",
      "type": "constructor"
    },
    {
      "anonymous": false,
      "inputs": [
        {
          "indexed": false,
          "internalType": "address",
          "name": "account",
          "type": "address"
        }
      ],
      "name": "Paused",
      "type": "event"
    },
    {
      "anonymous": false,
      "inputs": [
        {
          "indexed": false,
          "internalType": "uint256",
          "name": "id",
          "type": "uint256"
        },
        {
          "indexed": false,
          "internalType": "address",
          "name": "user",
          "type": "address"
        },
        {
          "indexed": false,
          "internalType": "uint256",
          "name": "amount",
          "type": "uint256"
        },
        {
          "indexed": false,
          "internalType": "uint256",
          "name": "timestamp",
          "type": "uint256"
        }
      ],
      "name": "RewardDistributed",
      "type": "event"
    },
    {
      "anonymous": false,
      "inputs": [
        {
          "indexed": true,
          "internalType": "bytes32",
          "name": "role",
          "type": "bytes32"
        },
        {
          "indexed": true,
          "internalType": "bytes32",
          "name": "previousAdminRole",
          "type": "bytes32"
        },
        {
          "indexed": true,
          "internalType": "bytes32",
          "name": "newAdminRole",
          "type": "bytes32"
        }
      ],
      "name": "RoleAdminChanged",
      "type": "event"
    },
    {
      "anonymous": false,
      "inputs": [
        {
          "indexed": true,
          "internalType": "bytes32",
          "name": "role",
          "type": "bytes32"
        },
        {
          "indexed": true,
          "internalType": "address",
          "name": "account",
          "type": "address"
        },
        {
          "indexed": true,
          "internalType": "address",
          "name": "sender",
          "type": "address"
        }
      ],
      "name": "RoleGranted",
      "type": "event"
    },
    {
      "anonymous": false,
      "inputs": [
        {
          "indexed": true,
          "internalType": "bytes32",
          "name": "role",
          "type": "bytes32"
        },
        {
          "indexed": true,
          "internalType": "address",
          "name": "account",
          "type": "address"
        },
        {
          "indexed": true,
          "internalType": "address",
          "name": "sender",
          "type": "address"
        }
      ],
      "name": "RoleRevoked",
      "type": "event"
    },
    {
      "anonymous": false,
      "inputs": [
        {
          "indexed": false,
          "internalType": "address",
          "name": "account",
          "type": "address"
        }
      ],
      "name": "Unpaused",
      "type": "event"
    },
    {
      "anonymous": false,
      "inputs": [
        {
          "indexed": false,
          "internalType": "uint256",
          "name": "id",
          "type": "uint256"
        },
        {
          "indexed": false,
          "internalType": "address",
          "name": "user",
          "type": "address"
        },
        {
          "indexed": false,
          "internalType": "uint256",
          "name": "amount",
          "type": "uint256"
        },
        {
          "indexed": false,
          "internalType": "uint256",
          "name": "timestamp",
          "type": "uint256"
        }
      ],
      "name": "WithdrawRequested",
      "type": "event"
    },
    {
      "inputs": [],
      "name": "DEFAULT_ADMIN_ROLE",
      "outputs": [
        {
          "internalType": "bytes32",
          "name": "",
          "type": "bytes32"
        }
      ],
      "stateMutability": "view",
      "type": "function"
    },
    {
      "inputs": [],
      "name": "PAUSER_ROLE",
      "outputs": [
        {
          "internalType": "bytes32",
          "name": "",
          "type": "bytes32"
        }
      ],
      "stateMutability": "view",
      "type": "function"
    },
    {
      "inputs": [
        {
          "internalType": "uint256",
          "name": "_id",
          "type": "uint256"
        }
      ],
      "name": "distributeReward",
      "outputs": [],
      "stateMutability": "nonpayable",
      "type": "function"
    },
    {
      "inputs": [],
      "name": "getBalanceOfRewardPool",
      "outputs": [
        {
          "internalType": "uint256",
          "name": "",
          "type": "uint256"
        }
      ],
      "stateMutability": "view",
      "type": "function"
    },
    {
      "inputs": [
        {
          "internalType": "bytes32",
          "name": "role",
          "type": "bytes32"
        }
      ],
      "name": "getRoleAdmin",
      "outputs": [
        {
          "internalType": "bytes32",
          "name": "",
          "type": "bytes32"
        }
      ],
      "stateMutability": "view",
      "type": "function"
    },
    {
      "inputs": [
        {
          "internalType": "bytes32",
          "name": "role",
          "type": "bytes32"
        },
        {
          "internalType": "address",
          "name": "account",
          "type": "address"
        }
      ],
      "name": "grantRole",
      "outputs": [],
      "stateMutability": "nonpayable",
      "type": "function"
    },
    {
      "inputs": [
        {
          "internalType": "bytes32",
          "name": "role",
          "type": "bytes32"
        },
        {
          "internalType": "address",
          "name": "account",
          "type": "address"
        }
      ],
      "name": "hasRole",
      "outputs": [
        {
          "internalType": "bool",
          "name": "",
          "type": "bool"
        }
      ],
      "stateMutability": "view",
      "type": "function"
    },
    {
      "inputs": [
        {
          "internalType": "address",
          "name": "",
          "type": "address"
        }
      ],
      "name": "lastWithdraw",
      "outputs": [
        {
          "internalType": "uint256",
          "name": "",
          "type": "uint256"
        }
      ],
      "stateMutability": "view",
      "type": "function"
    },
    {
      "inputs": [],
      "name": "mainToken",
      "outputs": [
        {
          "internalType": "contract IERC20",
          "name": "",
          "type": "address"
        }
      ],
      "stateMutability": "view",
      "type": "function"
    },
    {
      "inputs": [],
      "name": "pause",
      "outputs": [],
      "stateMutability": "nonpayable",
      "type": "function"
    },
    {
      "inputs": [],
      "name": "paused",
      "outputs": [
        {
          "internalType": "bool",
          "name": "",
          "type": "bool"
        }
      ],
      "stateMutability": "view",
      "type": "function"
    },
    {
      "inputs": [
        {
          "internalType": "bytes32",
          "name": "role",
          "type": "bytes32"
        },
        {
          "internalType": "address",
          "name": "account",
          "type": "address"
        }
      ],
      "name": "renounceRole",
      "outputs": [],
      "stateMutability": "nonpayable",
      "type": "function"
    },
    {
      "inputs": [
        {
          "internalType": "uint256",
          "name": "_amount",
          "type": "uint256"
        }
      ],
      "name": "requestWithdraw",
      "outputs": [],
      "stateMutability": "nonpayable",
      "type": "function"
    },
    {
      "inputs": [
        {
          "internalType": "bytes32",
          "name": "role",
          "type": "bytes32"
        },
        {
          "internalType": "address",
          "name": "account",
          "type": "address"
        }
      ],
      "name": "revokeRole",
      "outputs": [],
      "stateMutability": "nonpayable",
      "type": "function"
    },
    {
      "inputs": [
        {
          "internalType": "bytes4",
          "name": "interfaceId",
          "type": "bytes4"
        }
      ],
      "name": "supportsInterface",
      "outputs": [
        {
          "internalType": "bool",
          "name": "",
          "type": "bool"
        }
      ],
      "stateMutability": "view",
      "type": "function"
    },
    {
      "inputs": [],
      "name": "unpause",
      "outputs": [],
      "stateMutability": "nonpayable",
      "type": "function"
    },
    {
      "inputs": [
        {
          "internalType": "uint256",
          "name": "",
          "type": "uint256"
        }
      ],
      "name": "withdraws",
      "outputs": [
        {
          "internalType": "uint256",
          "name": "id",
          "type": "uint256"
        },
        {
          "internalType": "address",
          "name": "user",
          "type": "address"
        },
        {
          "internalType": "uint256",
          "name": "amount",
          "type": "uint256"
        },
        {
          "internalType": "uint256",
          "name": "timestamp",
          "type": "uint256"
        },
        {
          "internalType": "bool",
          "name": "isWithdrawn",
          "type": "bool"
        }
      ],
      "stateMutability": "view",
      "type": "function"
    }
  ],
  "bytecode": "0x6080604052682086ac35105260000060045534801561001d57600080fd5b50604051620012763803806200127683398101604081905261003e9161014d565b6001805460ff19168155600255600580546001600160a01b0319166001600160a01b0383161790556100716000336100a1565b61009b7f65d7a28e3265b37a6474929f336521b332c1681b933f6cb9f3376673440d862a336100a1565b5061017b565b6100ab82826100af565b5050565b6000828152602081815260408083206001600160a01b038516845290915290205460ff166100ab576000828152602081815260408083206001600160a01b03851684529091529020805460ff191660011790556101093390565b6001600160a01b0316816001600160a01b0316837f2f8788117e7eff1d82e926ec794901d17c78024a50270940304540a733656f0d60405160405180910390a45050565b60006020828403121561015e578081fd5b81516001600160a01b0381168114610174578182fd5b9392505050565b6110eb806200018b6000396000f3fe608060405234801561001057600080fd5b506004361061010b5760003560e01c8063624d7b72116100a2578063940a4e4511610071578063940a4e4514610299578063a217fddf146102ac578063d547741f146102b4578063e63ab1e9146102c7578063f0e25836146102ee57600080fd5b8063624d7b721461024b578063745400c91461026b5780638456cb591461027e57806391d148541461028657600080fd5b80633f4ba83a116100de5780633f4ba83a146101915780633fc15f151461019957806355466c37146101c45780635c975abb1461024057600080fd5b806301ffc9a714610110578063248a9ca3146101385780632f2ff15d1461016957806336568abe1461017e575b600080fd5b61012361011e366004610ed8565b6102f6565b60405190151581526020015b60405180910390f35b61015b610146366004610e95565b60009081526020819052604090206001015490565b60405190815260200161012f565b61017c610177366004610ead565b61032d565b005b61017c61018c366004610ead565b610358565b61017c6103db565b6005546101ac906001600160a01b031681565b6040516001600160a01b03909116815260200161012f565b61020e6101d2366004610e95565b6006602052600090815260409020805460018201546002830154600384015460049094015492936001600160a01b039092169290919060ff1685565b604080519586526001600160a01b0390941660208601529284019190915260608301521515608082015260a00161012f565b60015460ff16610123565b61015b610259366004610e5b565b60076020526000908152604090205481565b61017c610279366004610e95565b610411565b61017c6105b0565b610123610294366004610ead565b6105e3565b61017c6102a7366004610e95565b61060c565b61015b600081565b61017c6102c2366004610ead565b610948565b61015b7f65d7a28e3265b37a6474929f336521b332c1681b933f6cb9f3376673440d862a81565b61015b61096e565b60006001600160e01b03198216637965db0b60e01b148061032757506301ffc9a760e01b6001600160e01b03198316145b92915050565b60008281526020819052604090206001015461034981336109fc565b6103538383610a60565b505050565b6001600160a01b03811633146103cd5760405162461bcd60e51b815260206004820152602f60248201527f416363657373436f6e74726f6c3a2063616e206f6e6c792072656e6f756e636560448201526e103937b632b9903337b91039b2b63360891b60648201526084015b60405180910390fd5b6103d78282610ae4565b5050565b7f65d7a28e3265b37a6474929f336521b332c1681b933f6cb9f3376673440d862a61040681336109fc565b61040e610b49565b50565b60015460ff16156104345760405162461bcd60e51b81526004016103c490610fc0565b6002805414156104865760405162461bcd60e51b815260206004820152601f60248201527f5265656e7472616e637947756172643a207265656e7472616e742063616c6c0060448201526064016103c4565b600280553360009081526007602052604090205462015180906104a99042611041565b116104b357600080fd5b6004548110156104c257600080fd5b60006104cd60035490565b6040805160a08101825282815233602080830182815283850188815242606080870182815260006080808a018281528c835260068952918b902099518a55955160018a0180546001600160a01b0319166001600160a01b039092169190911790559351600289015551600388015591516004909601805460ff191696151596909617909555855187815292830193909352938101879052908101919091529192507fdb2996feda86e47ca5f67853152092a6550eed65751f9e2d37b2b8daa4258e65910160405180910390a16105a7600380546001019055565b50506001600255565b7f65d7a28e3265b37a6474929f336521b332c1681b933f6cb9f3376673440d862a6105db81336109fc565b61040e610bdc565b6000918252602082815260408084206001600160a01b0393909316845291905290205460ff1690565b60015460ff161561062f5760405162461bcd60e51b81526004016103c490610fc0565b600061063b81336109fc565b60028054141561068d5760405162461bcd60e51b815260206004820152601f60248201527f5265656e7472616e637947756172643a207265656e7472616e742063616c6c0060448201526064016103c4565b60028055600082815260066020818152604080842060018101546001600160a01b03168086526007845291852054878652939092526003909101549092916106d491611041565b6000858152600660205260409020600201549091506201518082118061071057506001600160a01b038316600090815260076020526040902054155b61071957600080fd5b60045481101561072857600080fd5b60006206978083111561073d575060026107c1565b62054600831180156107525750620697808311155b1561075f5750600c6107c1565b6203f480831180156107745750620546008311155b15610781575060166107c1565b6202a3008311801561079657506203f4808311155b156107a3575060206107c1565b62015180831180156107b857506202a3008311155b156107c15750602a5b60006107d860646107d28585610c32565b90610c45565b905060006107e68483610c51565b90506107f061096e565b81106108335760405162461bcd60e51b81526020600482015260126024820152716e6f7420656e6f7567682062616c616e636560701b60448201526064016103c4565b60055460405163a9059cbb60e01b81526001600160a01b038881166004830152602482018490529091169063a9059cbb90604401602060405180830381600087803b15801561088157600080fd5b505af1158015610895573d6000803e3d6000fd5b505050506040513d601f19601f820116820180604052508101906108b99190610e75565b506000888152600660209081526040808320600401805460ff191660011790556001600160a01b0389168084526007835292819020429081905581518c815292830193909352810183905260608101919091527f602ab809fa82d3a742a4f9a33cdd154988d8b0f578ee4dc91de3dc412bf026b99060800160405180910390a150506001600255505050505050565b60008281526020819052604090206001015461096481336109fc565b6103538383610ae4565b60008061097b81336109fc565b6005546040516370a0823160e01b81523060048201526001600160a01b03909116906370a082319060240160206040518083038186803b1580156109be57600080fd5b505afa1580156109d2573d6000803e3d6000fd5b505050506040513d601f19601f820116820180604052508101906109f69190610f00565b91505090565b610a0682826105e3565b6103d757610a1e816001600160a01b03166014610c5d565b610a29836020610c5d565b604051602001610a3a929190610f18565b60408051601f198184030181529082905262461bcd60e51b82526103c491600401610f8d565b610a6a82826105e3565b6103d7576000828152602081815260408083206001600160a01b03851684529091529020805460ff19166001179055610aa03390565b6001600160a01b0316816001600160a01b0316837f2f8788117e7eff1d82e926ec794901d17c78024a50270940304540a733656f0d60405160405180910390a45050565b610aee82826105e3565b156103d7576000828152602081815260408083206001600160a01b0385168085529252808320805460ff1916905551339285917ff6391f5c32d9c69d2a47ea670b442974b53935d1edc7fd64eb21e047a839171b9190a45050565b60015460ff16610b925760405162461bcd60e51b815260206004820152601460248201527314185d5cd8589b194e881b9bdd081c185d5cd95960621b60448201526064016103c4565b6001805460ff191690557f5db9ee0a495bf2e6ff9c91a7834c1ba4fdd244a5e8aa4e537bd38aeae4b073aa335b6040516001600160a01b03909116815260200160405180910390a1565b60015460ff1615610bff5760405162461bcd60e51b81526004016103c490610fc0565b6001805460ff1916811790557f62e78cea01bee320cd4e420270b5ea74000d11b0c9f74754ebdbfc544b05a25833610bbf565b6000610c3e8284611022565b9392505050565b6000610c3e8284611002565b6000610c3e8284611041565b60606000610c6c836002611022565b610c77906002610fea565b67ffffffffffffffff811115610c9d57634e487b7160e01b600052604160045260246000fd5b6040519080825280601f01601f191660200182016040528015610cc7576020820181803683370190505b509050600360fc1b81600081518110610cf057634e487b7160e01b600052603260045260246000fd5b60200101906001600160f81b031916908160001a905350600f60fb1b81600181518110610d2d57634e487b7160e01b600052603260045260246000fd5b60200101906001600160f81b031916908160001a9053506000610d51846002611022565b610d5c906001610fea565b90505b6001811115610df0576f181899199a1a9b1b9c1cb0b131b232b360811b85600f1660108110610d9e57634e487b7160e01b600052603260045260246000fd5b1a60f81b828281518110610dc257634e487b7160e01b600052603260045260246000fd5b60200101906001600160f81b031916908160001a90535060049490941c93610de981611088565b9050610d5f565b508315610c3e5760405162461bcd60e51b815260206004820181905260248201527f537472696e67733a20686578206c656e67746820696e73756666696369656e7460448201526064016103c4565b80356001600160a01b0381168114610e5657600080fd5b919050565b600060208284031215610e6c578081fd5b610c3e82610e3f565b600060208284031215610e86578081fd5b81518015158114610c3e578182fd5b600060208284031215610ea6578081fd5b5035919050565b60008060408385031215610ebf578081fd5b82359150610ecf60208401610e3f565b90509250929050565b600060208284031215610ee9578081fd5b81356001600160e01b031981168114610c3e578182fd5b600060208284031215610f11578081fd5b5051919050565b7f416363657373436f6e74726f6c3a206163636f756e7420000000000000000000815260008351610f50816017850160208801611058565b7001034b99036b4b9b9b4b733903937b6329607d1b6017918401918201528351610f81816028840160208801611058565b01602801949350505050565b6020815260008251806020840152610fac816040850160208701611058565b601f01601f19169190910160400192915050565b60208082526010908201526f14185d5cd8589b194e881c185d5cd95960821b604082015260600190565b60008219821115610ffd57610ffd61109f565b500190565b60008261101d57634e487b7160e01b81526012600452602481fd5b500490565b600081600019048311821515161561103c5761103c61109f565b500290565b6000828210156110535761105361109f565b500390565b60005b8381101561107357818101518382015260200161105b565b83811115611082576000848401525b50505050565b6000816110975761109761109f565b506000190190565b634e487b7160e01b600052601160045260246000fdfea2646970667358221220bdf6033d3e9f815fd20da7d926632e1271775d26973c2a17b62171e25c999e4264736f6c63430008040033",
  "linkReferences": {},
  "deployedLinkReferences": {}
}