{
  "_format": "hh-sol-artifact-1",
  "contractName": "NFTMarket",
  "sourceName": "contracts/NFTMarket.sol",
  "abi": [
    {
      "inputs": [],
      "stateMutability": "nonpayable",
      "type": "constructor"
    },
    {
      "anonymous": false,
      "inputs": [
        {
          "indexed": false,
          "internalType": "address",
          "name": "nftContract",
          "type": "address"
        },
        {
          "indexed": false,
          "internalType": "uint256",
          "name": "itemId",
          "type": "uint256"
        },
        {
          "indexed": false,
          "internalType": "uint256",
          "name": "tokenId",
          "type": "uint256"
        },
        {
          "indexed": false,
          "internalType": "address",
          "name": "sender",
          "type": "address"
        }
      ],
      "name": "ItemBorrow",
      "type": "event"
    },
    {
      "anonymous": false,
      "inputs": [
        {
          "indexed": false,
          "internalType": "address",
          "name": "nftContract",
          "type": "address"
        },
        {
          "indexed": false,
          "internalType": "uint256",
          "name": "itemId",
          "type": "uint256"
        },
        {
          "indexed": false,
          "internalType": "uint256",
          "name": "tokenId",
          "type": "uint256"
        },
        {
          "indexed": false,
          "internalType": "address",
          "name": "sender",
          "type": "address"
        },
        {
          "indexed": false,
          "internalType": "uint256",
          "name": "currentPrice",
          "type": "uint256"
        }
      ],
      "name": "ItemBuyDirectly",
      "type": "event"
    },
    {
      "anonymous": false,
      "inputs": [
        {
          "indexed": false,
          "internalType": "address",
          "name": "nftContract",
          "type": "address"
        },
        {
          "indexed": false,
          "internalType": "uint256",
          "name": "itemId",
          "type": "uint256"
        },
        {
          "indexed": false,
          "internalType": "uint256",
          "name": "tokenId",
          "type": "uint256"
        },
        {
          "indexed": false,
          "internalType": "address",
          "name": "sender",
          "type": "address"
        }
      ],
      "name": "ItemCanceled",
      "type": "event"
    },
    {
      "anonymous": false,
      "inputs": [
        {
          "indexed": false,
          "internalType": "address",
          "name": "nftContract",
          "type": "address"
        },
        {
          "indexed": false,
          "internalType": "uint256",
          "name": "itemId",
          "type": "uint256"
        },
        {
          "indexed": false,
          "internalType": "uint256",
          "name": "tokenId",
          "type": "uint256"
        },
        {
          "indexed": false,
          "internalType": "address",
          "name": "lender",
          "type": "address"
        }
      ],
      "name": "LendCanceled",
      "type": "event"
    },
    {
      "anonymous": false,
      "inputs": [
        {
          "indexed": false,
          "internalType": "address",
          "name": "nftContract",
          "type": "address"
        },
        {
          "indexed": false,
          "internalType": "uint256",
          "name": "itemId",
          "type": "uint256"
        },
        {
          "indexed": false,
          "internalType": "uint256",
          "name": "tokenId",
          "type": "uint256"
        },
        {
          "indexed": false,
          "internalType": "address",
          "name": "lender",
          "type": "address"
        },
        {
          "indexed": false,
          "internalType": "uint256",
          "name": "priceLend",
          "type": "uint256"
        },
        {
          "indexed": false,
          "internalType": "uint256",
          "name": "lendBlockDuration",
          "type": "uint256"
        }
      ],
      "name": "LendItemCreated",
      "type": "event"
    },
    {
      "anonymous": false,
      "inputs": [
        {
          "indexed": false,
          "internalType": "address",
          "name": "nftContract",
          "type": "address"
        },
        {
          "indexed": false,
          "internalType": "uint256",
          "name": "itemId",
          "type": "uint256"
        },
        {
          "indexed": false,
          "internalType": "uint256",
          "name": "tokenId",
          "type": "uint256"
        },
        {
          "indexed": false,
          "internalType": "address",
          "name": "seller",
          "type": "address"
        },
        {
          "indexed": false,
          "internalType": "uint256",
          "name": "minPrice",
          "type": "uint256"
        },
        {
          "indexed": false,
          "internalType": "uint256",
          "name": "maxPrice",
          "type": "uint256"
        },
        {
          "indexed": false,
          "internalType": "uint256",
          "name": "endBlock",
          "type": "uint256"
        }
      ],
      "name": "MarketItemCreated",
      "type": "event"
    },
    {
      "anonymous": false,
      "inputs": [
        {
          "indexed": false,
          "internalType": "address",
          "name": "nftContract",
          "type": "address"
        },
        {
          "indexed": false,
          "internalType": "uint256",
          "name": "itemId",
          "type": "uint256"
        },
        {
          "indexed": false,
          "internalType": "uint256",
          "name": "tokenId",
          "type": "uint256"
        },
        {
          "indexed": false,
          "internalType": "uint256",
          "name": "offerId",
          "type": "uint256"
        },
        {
          "indexed": false,
          "internalType": "address",
          "name": "asker",
          "type": "address"
        },
        {
          "indexed": false,
          "internalType": "uint256",
          "name": "amount",
          "type": "uint256"
        },
        {
          "indexed": false,
          "internalType": "uint256",
          "name": "blockTime",
          "type": "uint256"
        }
      ],
      "name": "OfferPlaced",
      "type": "event"
    },
    {
      "anonymous": false,
      "inputs": [
        {
          "indexed": false,
          "internalType": "address",
          "name": "nftContract",
          "type": "address"
        },
        {
          "indexed": false,
          "internalType": "uint256",
          "name": "itemId",
          "type": "uint256"
        },
        {
          "indexed": false,
          "internalType": "uint256",
          "name": "tokenId",
          "type": "uint256"
        },
        {
          "indexed": false,
          "internalType": "uint256",
          "name": "blockTime",
          "type": "uint256"
        },
        {
          "indexed": false,
          "internalType": "uint256",
          "name": "timestamp",
          "type": "uint256"
        },
        {
          "indexed": false,
          "internalType": "address",
          "name": "sender",
          "type": "address"
        }
      ],
      "name": "RetrieveItem",
      "type": "event"
    },
    {
      "anonymous": false,
      "inputs": [
        {
          "indexed": false,
          "internalType": "address",
          "name": "nftContract",
          "type": "address"
        },
        {
          "indexed": false,
          "internalType": "uint256",
          "name": "itemId",
          "type": "uint256"
        },
        {
          "indexed": false,
          "internalType": "uint256",
          "name": "tokenId",
          "type": "uint256"
        },
        {
          "indexed": false,
          "internalType": "uint256",
          "name": "offerId",
          "type": "uint256"
        },
        {
          "indexed": false,
          "internalType": "address",
          "name": "sender",
          "type": "address"
        },
        {
          "indexed": false,
          "internalType": "uint256",
          "name": "blockTime",
          "type": "uint256"
        },
        {
          "indexed": false,
          "internalType": "uint256",
          "name": "currentPrice",
          "type": "uint256"
        }
      ],
      "name": "RewardClaimed",
      "type": "event"
    },
    {
      "inputs": [
        {
          "internalType": "uint256",
          "name": "itemId",
          "type": "uint256"
        }
      ],
      "name": "borrow",
      "outputs": [],
      "stateMutability": "payable",
      "type": "function"
    },
    {
      "inputs": [
        {
          "internalType": "uint256",
          "name": "itemId",
          "type": "uint256"
        }
      ],
      "name": "buyDirectly",
      "outputs": [],
      "stateMutability": "payable",
      "type": "function"
    },
    {
      "inputs": [
        {
          "internalType": "uint256",
          "name": "_itemId",
          "type": "uint256"
        }
      ],
      "name": "cancelLend",
      "outputs": [],
      "stateMutability": "nonpayable",
      "type": "function"
    },
    {
      "inputs": [
        {
          "internalType": "uint256",
          "name": "_itemId",
          "type": "uint256"
        }
      ],
      "name": "cancelMarketItem",
      "outputs": [],
      "stateMutability": "nonpayable",
      "type": "function"
    },
    {
      "inputs": [
        {
          "internalType": "uint256",
          "name": "itemId",
          "type": "uint256"
        }
      ],
      "name": "cancelMarketItemAuction",
      "outputs": [],
      "stateMutability": "nonpayable",
      "type": "function"
    },
    {
      "inputs": [
        {
          "internalType": "uint256",
          "name": "itemId",
          "type": "uint256"
        },
        {
          "internalType": "uint256",
          "name": "offerId",
          "type": "uint256"
        }
      ],
      "name": "claimReward",
      "outputs": [],
      "stateMutability": "payable",
      "type": "function"
    },
    {
      "inputs": [
        {
          "internalType": "address",
          "name": "nftContract",
          "type": "address"
        },
        {
          "internalType": "uint256",
          "name": "tokenId",
          "type": "uint256"
        },
        {
          "internalType": "uint256",
          "name": "minPrice",
          "type": "uint256"
        },
        {
          "internalType": "uint256",
          "name": "maxPrice",
          "type": "uint256"
        },
        {
          "internalType": "uint256",
          "name": "endBlock",
          "type": "uint256"
        }
      ],
      "name": "createMarketItem",
      "outputs": [],
      "stateMutability": "payable",
      "type": "function"
    },
    {
      "inputs": [],
      "name": "fetchAllLendItem",
      "outputs": [
        {
          "components": [
            {
              "internalType": "address",
              "name": "nftContract",
              "type": "address"
            },
            {
              "internalType": "uint256",
              "name": "itemId",
              "type": "uint256"
            },
            {
              "internalType": "uint256",
              "name": "tokenId",
              "type": "uint256"
            },
            {
              "internalType": "address payable",
              "name": "lender",
              "type": "address"
            },
            {
              "internalType": "address payable",
              "name": "borrower",
              "type": "address"
            },
            {
              "internalType": "uint256",
              "name": "priceLend",
              "type": "uint256"
            },
            {
              "internalType": "bool",
              "name": "lent",
              "type": "bool"
            },
            {
              "internalType": "bool",
              "name": "paid",
              "type": "bool"
            },
            {
              "internalType": "bool",
              "name": "isCanceled",
              "type": "bool"
            },
            {
              "internalType": "uint256",
              "name": "lendBlockDuration",
              "type": "uint256"
            }
          ],
          "internalType": "struct NFTMarket.LendItem[]",
          "name": "",
          "type": "tuple[]"
        }
      ],
      "stateMutability": "view",
      "type": "function"
    },
    {
      "inputs": [
        {
          "internalType": "address",
          "name": "_user",
          "type": "address"
        }
      ],
      "name": "fetchItemsCreated",
      "outputs": [
        {
          "components": [
            {
              "internalType": "address",
              "name": "nftContract",
              "type": "address"
            },
            {
              "internalType": "uint256",
              "name": "itemId",
              "type": "uint256"
            },
            {
              "internalType": "uint256",
              "name": "tokenId",
              "type": "uint256"
            },
            {
              "internalType": "address payable",
              "name": "seller",
              "type": "address"
            },
            {
              "internalType": "address payable",
              "name": "buyer",
              "type": "address"
            },
            {
              "internalType": "uint256",
              "name": "minPrice",
              "type": "uint256"
            },
            {
              "internalType": "uint256",
              "name": "maxPrice",
              "type": "uint256"
            },
            {
              "internalType": "uint256",
              "name": "currentPrice",
              "type": "uint256"
            },
            {
              "internalType": "uint256",
              "name": "endBlock",
              "type": "uint256"
            },
            {
              "internalType": "bool",
              "name": "sold",
              "type": "bool"
            },
            {
              "internalType": "bool",
              "name": "isCanceled",
              "type": "bool"
            },
            {
              "components": [
                {
                  "internalType": "uint256",
                  "name": "_value",
                  "type": "uint256"
                }
              ],
              "internalType": "struct Counters.Counter",
              "name": "offerCount",
              "type": "tuple"
            }
          ],
          "internalType": "struct NFTMarket.MarketItem[]",
          "name": "",
          "type": "tuple[]"
        }
      ],
      "stateMutability": "view",
      "type": "function"
    },
    {
      "inputs": [
        {
          "internalType": "uint256",
          "name": "tokenId",
          "type": "uint256"
        }
      ],
      "name": "fetchLendHistory",
      "outputs": [
        {
          "components": [
            {
              "internalType": "uint256",
              "name": "id",
              "type": "uint256"
            },
            {
              "internalType": "uint256",
              "name": "itemMarketId",
              "type": "uint256"
            },
            {
              "internalType": "uint256",
              "name": "tokenId",
              "type": "uint256"
            },
            {
              "internalType": "address payable",
              "name": "lender",
              "type": "address"
            },
            {
              "internalType": "address payable",
              "name": "borrower",
              "type": "address"
            },
            {
              "internalType": "uint256",
              "name": "priceLend",
              "type": "uint256"
            },
            {
              "internalType": "uint256",
              "name": "blockNumber",
              "type": "uint256"
            }
          ],
          "internalType": "struct NFTMarket.LendHistory[]",
          "name": "",
          "type": "tuple[]"
        }
      ],
      "stateMutability": "view",
      "type": "function"
    },
    {
      "inputs": [],
      "name": "fetchMarketItems",
      "outputs": [
        {
          "components": [
            {
              "internalType": "address",
              "name": "nftContract",
              "type": "address"
            },
            {
              "internalType": "uint256",
              "name": "itemId",
              "type": "uint256"
            },
            {
              "internalType": "uint256",
              "name": "tokenId",
              "type": "uint256"
            },
            {
              "internalType": "address payable",
              "name": "seller",
              "type": "address"
            },
            {
              "internalType": "address payable",
              "name": "buyer",
              "type": "address"
            },
            {
              "internalType": "uint256",
              "name": "minPrice",
              "type": "uint256"
            },
            {
              "internalType": "uint256",
              "name": "maxPrice",
              "type": "uint256"
            },
            {
              "internalType": "uint256",
              "name": "currentPrice",
              "type": "uint256"
            },
            {
              "internalType": "uint256",
              "name": "endBlock",
              "type": "uint256"
            },
            {
              "internalType": "bool",
              "name": "sold",
              "type": "bool"
            },
            {
              "internalType": "bool",
              "name": "isCanceled",
              "type": "bool"
            },
            {
              "components": [
                {
                  "internalType": "uint256",
                  "name": "_value",
                  "type": "uint256"
                }
              ],
              "internalType": "struct Counters.Counter",
              "name": "offerCount",
              "type": "tuple"
            }
          ],
          "internalType": "struct NFTMarket.MarketItem[]",
          "name": "",
          "type": "tuple[]"
        }
      ],
      "stateMutability": "view",
      "type": "function"
    },
    {
      "inputs": [
        {
          "internalType": "address",
          "name": "_user",
          "type": "address"
        }
      ],
      "name": "fetchMyBorrow",
      "outputs": [
        {
          "components": [
            {
              "internalType": "address",
              "name": "nftContract",
              "type": "address"
            },
            {
              "internalType": "uint256",
              "name": "itemId",
              "type": "uint256"
            },
            {
              "internalType": "uint256",
              "name": "tokenId",
              "type": "uint256"
            },
            {
              "internalType": "address payable",
              "name": "lender",
              "type": "address"
            },
            {
              "internalType": "address payable",
              "name": "borrower",
              "type": "address"
            },
            {
              "internalType": "uint256",
              "name": "priceLend",
              "type": "uint256"
            },
            {
              "internalType": "bool",
              "name": "lent",
              "type": "bool"
            },
            {
              "internalType": "bool",
              "name": "paid",
              "type": "bool"
            },
            {
              "internalType": "bool",
              "name": "isCanceled",
              "type": "bool"
            },
            {
              "internalType": "uint256",
              "name": "lendBlockDuration",
              "type": "uint256"
            }
          ],
          "internalType": "struct NFTMarket.LendItem[]",
          "name": "",
          "type": "tuple[]"
        }
      ],
      "stateMutability": "view",
      "type": "function"
    },
    {
      "inputs": [
        {
          "internalType": "address",
          "name": "_user",
          "type": "address"
        }
      ],
      "name": "fetchMyLend",
      "outputs": [
        {
          "components": [
            {
              "internalType": "address",
              "name": "nftContract",
              "type": "address"
            },
            {
              "internalType": "uint256",
              "name": "itemId",
              "type": "uint256"
            },
            {
              "internalType": "uint256",
              "name": "tokenId",
              "type": "uint256"
            },
            {
              "internalType": "address payable",
              "name": "lender",
              "type": "address"
            },
            {
              "internalType": "address payable",
              "name": "borrower",
              "type": "address"
            },
            {
              "internalType": "uint256",
              "name": "priceLend",
              "type": "uint256"
            },
            {
              "internalType": "bool",
              "name": "lent",
              "type": "bool"
            },
            {
              "internalType": "bool",
              "name": "paid",
              "type": "bool"
            },
            {
              "internalType": "bool",
              "name": "isCanceled",
              "type": "bool"
            },
            {
              "internalType": "uint256",
              "name": "lendBlockDuration",
              "type": "uint256"
            }
          ],
          "internalType": "struct NFTMarket.LendItem[]",
          "name": "",
          "type": "tuple[]"
        }
      ],
      "stateMutability": "view",
      "type": "function"
    },
    {
      "inputs": [
        {
          "internalType": "address",
          "name": "_user",
          "type": "address"
        }
      ],
      "name": "fetchMyNFTs",
      "outputs": [
        {
          "components": [
            {
              "internalType": "address",
              "name": "nftContract",
              "type": "address"
            },
            {
              "internalType": "uint256",
              "name": "itemId",
              "type": "uint256"
            },
            {
              "internalType": "uint256",
              "name": "tokenId",
              "type": "uint256"
            },
            {
              "internalType": "address payable",
              "name": "seller",
              "type": "address"
            },
            {
              "internalType": "address payable",
              "name": "buyer",
              "type": "address"
            },
            {
              "internalType": "uint256",
              "name": "minPrice",
              "type": "uint256"
            },
            {
              "internalType": "uint256",
              "name": "maxPrice",
              "type": "uint256"
            },
            {
              "internalType": "uint256",
              "name": "currentPrice",
              "type": "uint256"
            },
            {
              "internalType": "uint256",
              "name": "endBlock",
              "type": "uint256"
            },
            {
              "internalType": "bool",
              "name": "sold",
              "type": "bool"
            },
            {
              "internalType": "bool",
              "name": "isCanceled",
              "type": "bool"
            },
            {
              "components": [
                {
                  "internalType": "uint256",
                  "name": "_value",
                  "type": "uint256"
                }
              ],
              "internalType": "struct Counters.Counter",
              "name": "offerCount",
              "type": "tuple"
            }
          ],
          "internalType": "struct NFTMarket.MarketItem[]",
          "name": "",
          "type": "tuple[]"
        }
      ],
      "stateMutability": "view",
      "type": "function"
    },
    {
      "inputs": [
        {
          "internalType": "uint256",
          "name": "itemId",
          "type": "uint256"
        }
      ],
      "name": "fetchOffersOfItem",
      "outputs": [
        {
          "components": [
            {
              "internalType": "uint256",
              "name": "offerId",
              "type": "uint256"
            },
            {
              "internalType": "address",
              "name": "asker",
              "type": "address"
            },
            {
              "internalType": "uint256",
              "name": "amount",
              "type": "uint256"
            },
            {
              "internalType": "bool",
              "name": "refundable",
              "type": "bool"
            },
            {
              "internalType": "uint256",
              "name": "blockTime",
              "type": "uint256"
            }
          ],
          "internalType": "struct NFTMarket.Offer[]",
          "name": "",
          "type": "tuple[]"
        }
      ],
      "stateMutability": "view",
      "type": "function"
    },
    {
      "inputs": [
        {
          "internalType": "uint256",
          "name": "tokenId",
          "type": "uint256"
        }
      ],
      "name": "fetchSellHistoryOfToken",
      "outputs": [
        {
          "components": [
            {
              "internalType": "uint256",
              "name": "id",
              "type": "uint256"
            },
            {
              "internalType": "uint256",
              "name": "itemMarketId",
              "type": "uint256"
            },
            {
              "internalType": "uint256",
              "name": "tokenId",
              "type": "uint256"
            },
            {
              "internalType": "address payable",
              "name": "seller",
              "type": "address"
            },
            {
              "internalType": "address payable",
              "name": "buyer",
              "type": "address"
            },
            {
              "internalType": "uint256",
              "name": "price",
              "type": "uint256"
            },
            {
              "internalType": "uint256",
              "name": "blockNumber",
              "type": "uint256"
            }
          ],
          "internalType": "struct NFTMarket.SellHistory[]",
          "name": "",
          "type": "tuple[]"
        }
      ],
      "stateMutability": "view",
      "type": "function"
    },
    {
      "inputs": [
        {
          "internalType": "uint256",
          "name": "_itemId",
          "type": "uint256"
        }
      ],
      "name": "getLend",
      "outputs": [
        {
          "components": [
            {
              "internalType": "address",
              "name": "nftContract",
              "type": "address"
            },
            {
              "internalType": "uint256",
              "name": "itemId",
              "type": "uint256"
            },
            {
              "internalType": "uint256",
              "name": "tokenId",
              "type": "uint256"
            },
            {
              "internalType": "address payable",
              "name": "lender",
              "type": "address"
            },
            {
              "internalType": "address payable",
              "name": "borrower",
              "type": "address"
            },
            {
              "internalType": "uint256",
              "name": "priceLend",
              "type": "uint256"
            },
            {
              "internalType": "bool",
              "name": "lent",
              "type": "bool"
            },
            {
              "internalType": "bool",
              "name": "paid",
              "type": "bool"
            },
            {
              "internalType": "bool",
              "name": "isCanceled",
              "type": "bool"
            },
            {
              "internalType": "uint256",
              "name": "lendBlockDuration",
              "type": "uint256"
            }
          ],
          "internalType": "struct NFTMarket.LendItem",
          "name": "",
          "type": "tuple"
        }
      ],
      "stateMutability": "view",
      "type": "function"
    },
    {
      "inputs": [],
      "name": "getListingPrice",
      "outputs": [
        {
          "internalType": "uint256",
          "name": "",
          "type": "uint256"
        }
      ],
      "stateMutability": "view",
      "type": "function"
    },
    {
      "inputs": [
        {
          "internalType": "uint256",
          "name": "itemId",
          "type": "uint256"
        }
      ],
      "name": "getMarketItem",
      "outputs": [
        {
          "components": [
            {
              "internalType": "address",
              "name": "nftContract",
              "type": "address"
            },
            {
              "internalType": "uint256",
              "name": "itemId",
              "type": "uint256"
            },
            {
              "internalType": "uint256",
              "name": "tokenId",
              "type": "uint256"
            },
            {
              "internalType": "address payable",
              "name": "seller",
              "type": "address"
            },
            {
              "internalType": "address payable",
              "name": "buyer",
              "type": "address"
            },
            {
              "internalType": "uint256",
              "name": "minPrice",
              "type": "uint256"
            },
            {
              "internalType": "uint256",
              "name": "maxPrice",
              "type": "uint256"
            },
            {
              "internalType": "uint256",
              "name": "currentPrice",
              "type": "uint256"
            },
            {
              "internalType": "uint256",
              "name": "endBlock",
              "type": "uint256"
            },
            {
              "internalType": "bool",
              "name": "sold",
              "type": "bool"
            },
            {
              "internalType": "bool",
              "name": "isCanceled",
              "type": "bool"
            },
            {
              "components": [
                {
                  "internalType": "uint256",
                  "name": "_value",
                  "type": "uint256"
                }
              ],
              "internalType": "struct Counters.Counter",
              "name": "offerCount",
              "type": "tuple"
            }
          ],
          "internalType": "struct NFTMarket.MarketItem",
          "name": "",
          "type": "tuple"
        }
      ],
      "stateMutability": "view",
      "type": "function"
    },
    {
      "inputs": [
        {
          "internalType": "address",
          "name": "nftContract",
          "type": "address"
        },
        {
          "internalType": "uint256",
          "name": "tokenId",
          "type": "uint256"
        },
        {
          "internalType": "uint256",
          "name": "priceLend",
          "type": "uint256"
        },
        {
          "internalType": "uint256",
          "name": "lendBlockDuration",
          "type": "uint256"
        }
      ],
      "name": "lend",
      "outputs": [],
      "stateMutability": "payable",
      "type": "function"
    },
    {
      "inputs": [
        {
          "internalType": "uint256",
          "name": "itemId",
          "type": "uint256"
        }
      ],
      "name": "makeOffer",
      "outputs": [],
      "stateMutability": "payable",
      "type": "function"
    },
    {
      "inputs": [
        {
          "internalType": "uint256",
          "name": "itemId",
          "type": "uint256"
        }
      ],
      "name": "retrieve",
      "outputs": [],
      "stateMutability": "nonpayable",
      "type": "function"
    }
  ],
  "bytecode": "0x60806040526608e1bc9bf0400060085534801561001b57600080fd5b506001600055600780546001600160a01b03191633179055613d2a806100426000396000f3fe6080604052600436106101355760003560e01c80638f88708b116100ab578063b4495d021161006f578063b4495d0214610338578063b85dab8a1461034d578063bf4d712d1461037a578063c5ebeaec1461039a578063c7be7a49146103ad578063c8338456146103da57600080fd5b80638f88708b146102b257806392083b91146102d25780639a2f6474146102e55780639f4c836f146102f8578063a6e22b021461031857600080fd5b806340ca82e1116100fd57806340ca82e1146101f2578063516cbbdb1461021f57806356e45edd146102325780635d7538b31461025f57806364a99a121461028c57806386bb8f371461029f57600080fd5b806305c87c931461013a57806307236236146101705780630f08efe01461019257806310afee1e146101b457806312e85585146101d4575b600080fd5b34801561014657600080fd5b5061015a610155366004613758565b6103fa565b6040516101679190613c70565b60405180910390f35b34801561017c57600080fd5b5061019061018b366004613758565b6104a3565b005b34801561019e57600080fd5b506101a7610766565b6040516101679190613a59565b3480156101c057600080fd5b506101a76101cf3660046136be565b610962565b3480156101e057600080fd5b50600854604051908152602001610167565b3480156101fe57600080fd5b5061021261020d366004613758565b610b6b565b6040516101679190613b15565b61019061022d366004613758565b610cf0565b34801561023e57600080fd5b5061025261024d3660046136be565b61110f565b6040516101679190613a16565b34801561026b57600080fd5b5061027f61027a366004613758565b6112f7565b6040516101679190613a9c565b61019061029a3660046136df565b611429565b6101906102ad366004613770565b61171b565b3480156102be57600080fd5b506101906102cd366004613758565b611c35565b6101906102e0366004613717565b611e0a565b6101906102f3366004613758565b61215d565b34801561030457600080fd5b50610190610313366004613758565b61260f565b34801561032457600080fd5b50610190610333366004613758565b612822565b34801561034457600080fd5b506102526128eb565b34801561035957600080fd5b5061036d610368366004613758565b612ac7565b60405161016791906139c8565b34801561038657600080fd5b506102526103953660046136be565b612c44565b6101906103a8366004613758565b612e2c565b3480156103b957600080fd5b506103cd6103c8366004613758565b613287565b6040516101679190613c85565b3480156103e657600080fd5b506101a76103f53660046136be565b61334b565b610402613581565b506000908152600f602090815260409182902082516101408101845281546001600160a01b03908116825260018301549382019390935260028201549381019390935260038101548216606084015260048101549091166080830152600581015460a0830152600681015460ff808216151560c08501526101008083048216151560e086015262010000909204161515908301526007015461012082015290565b600260005414156104cf5760405162461bcd60e51b81526004016104c690613c39565b60405180910390fd5b60026000908155818152600960205260409020600301546001600160a01b031633146105355760405162461bcd60e51b815260206004820152601560248201527439b2b73232b91036bab9ba1031329039b2b63632b960591b60448201526064016104c6565b60008181526009602081905260409091200154610100900460ff161561056d5760405162461bcd60e51b81526004016104c690613c02565b6000818152600960205260409020600a0154156105e05760405162461bcd60e51b815260206004820152602b60248201527f746865726520617265206f666665727320706c61636564206f6e20746869732060448201526a6d61726b6574206974656d60a81b60648201526084016104c6565b6000818152600960205260409020600401546001600160a01b0316156106185760405162461bcd60e51b81526004016104c690613b8e565b600081815260096020526040908190208054600382015460029092015492516323b872dd60e01b81526001600160a01b03918216936323b872dd9361066593309391169190600401613936565b600060405180830381600087803b15801561067f57600080fd5b505af1158015610693573d6000803e3d6000fd5b5050506000828152600960208190526040808320918201805461ff00191661010017905560039091015460085491516001600160a01b03909116935081156108fc0292818181858888f193505050501580156106f3573d6000803e3d6000fd5b50610702600680546001019055565b60008181526009602052604090819020805460029091015491517f16aa9568f3ba58dd9e567a58fcd919828b97c7f75bbc753bbcba3cf4279dbb4c92610756926001600160a01b031691859190339061395a565b60405180910390a1506001600055565b6060600061077360015490565b9050600061078060065490565b6002546001546107909190613cac565b61079a9190613cac565b90506000808267ffffffffffffffff8111156107c657634e487b7160e01b600052604160045260246000fd5b6040519080825280602002602001820160405280156107ff57816020015b6107ec6135d5565b8152602001906001900390816107e45790505b50905060005b84811015610959576000818152600960205260409020600401546001600160a01b031615801561084d575060008181526009602081905260409091200154610100900460ff16155b156109475760008181526009602081815260409283902083516101808101855281546001600160a01b0390811682526001830154828501526002830154828701526003830154811660608301526004830154166080820152600582015460a0820152600682015460c0820152600782015460e08201526008820154610100808301919091529382015460ff808216151561012084015294900490931615156101408401528351918201909352600a830154815261016082015283518392919085908790811061092c57634e487b7160e01b600052603260045260246000fd5b6020908102919091010152610942600186613c94565b945050505b8061095181613cc3565b915050610805565b50949350505050565b6060600061096f60015490565b905060008060005b838110156109c4576000818152600960205260409020600401546001600160a01b03878116911614156109b2576109af600184613c94565b92505b806109bc81613cc3565b915050610977565b5060008267ffffffffffffffff8111156109ee57634e487b7160e01b600052604160045260246000fd5b604051908082528060200260200182016040528015610a2757816020015b610a146135d5565b815260200190600190039081610a0c5790505b50905060005b84811015610b61576000818152600960205260409020600401546001600160a01b0388811691161415610b4f5760008181526009602081815260409283902083516101808101855281546001600160a01b0390811682526001830154828501526002830154828701526003830154811660608301526004830154166080820152600582015460a0820152600682015460c0820152600782015460e08201526008820154610100808301919091529382015460ff808216151561012084015294900490931615156101408401528351918201909352600a8301548152610160820152835183929190859087908110610b3457634e487b7160e01b600052603260045260246000fd5b6020908102919091010152610b4a600186613c94565b945050505b80610b5981613cc3565b915050610a2d565b5095945050505050565b6000818152600b60205260408120546060918167ffffffffffffffff811115610ba457634e487b7160e01b600052604160045260246000fd5b604051908082528060200260200182016040528015610c2757816020015b610c146040518060e0016040528060008152602001600081526020016000815260200160006001600160a01b0316815260200160006001600160a01b0316815260200160008152602001600081525090565b815260200190600190039081610bc25790505b50905060005b82811015610ce8576000858152600c60209081526040808320848452825291829020825160e0810184528154815260018201549281019290925260028101549282019290925260038201546001600160a01b0390811660608301526004830154166080820152600582015460a082015260069091015460c08201528251839083908110610cca57634e487b7160e01b600052603260045260246000fd5b60200260200101819052508080610ce090613cc3565b915050610c2d565b509392505050565b60026000541415610d135760405162461bcd60e51b81526004016104c690613c39565b60026000818155828152600960205260409020908101546003909101544391906001600160a01b0316331415610d5b5760405162461bcd60e51b81526004016104c690613b57565b6000838152600960208190526040909120015460ff1615610d8e5760405162461bcd60e51b81526004016104c690613b8e565b60008381526009602081905260409091200154610100900460ff1615610df05760405162461bcd60e51b8152602060048201526017602482015276125d195b481a185cc81899595b8818d85b98d95b1b1959604a1b60448201526064016104c6565b6000838152600960205260409020600601543414610e665760405162461bcd60e51b815260206004820152602d60248201527f5072696365206d75737420657175616c20746f206d617820707269636520746f60448201526c20627579206469726563746c7960981b60648201526084016104c6565b60008381526009602081815260408084206004810180546001600160a01b03191633179055928301805460ff1916600117905534600790930192909255838352600b90528120610eb4905490565b9050610ec4600280546001019055565b6040805160e08101825282815260208082018781528284018681526000898152600984528581206003808201546001600160a01b0390811660608901908152600493840154821660808a019081523460a08b0190815260c08b018f81528e8852600c8b528c88208e89528b528c88208c518155995160018b0155975160028a0155915193880180549484166001600160a01b03199586161790555193870180549490921693909216929092179091555160058401559051600690920191909155858152600b90915291909120610f9d9080546001019055565b6000858152600960205260408082206003015490516001600160a01b03909116913480156108fc02929091818181858888f19350505050158015610fe5573d6000803e3d6000fd5b50600085815260096020526040908190205490516323b872dd60e01b81526001600160a01b03909116906323b872dd9061102790309033908890600401613936565b600060405180830381600087803b15801561104157600080fd5b505af1158015611055573d6000803e3d6000fd5b50506007546008546040516001600160a01b03909216935080156108fc029250906000818181858888f19350505050158015611095573d6000803e3d6000fd5b50600085815260096020908152604091829020805460079091015483516001600160a01b03909216825291810188905291820185905233606083015260808201527f9fd747eae49768336e70fb667b35a4aa0c971ee4481a13f429bf528a98d4e5839060a00160405180910390a150506001600055505050565b6060600061111c60055490565b905060008060005b83811015611171576000818152600f60205260409020600301546001600160a01b038781169116141561115f5761115c600184613c94565b92505b8061116981613cc3565b915050611124565b5060008267ffffffffffffffff81111561119b57634e487b7160e01b600052604160045260246000fd5b6040519080825280602002602001820160405280156111d457816020015b6111c1613581565b8152602001906001900390816111b95790505b50905060005b84811015610b61576000818152600f60205260409020600301546001600160a01b03888116911614156112e5576000818152600f602090815260409182902082516101408101845281546001600160a01b03908116825260018301549382019390935260028201549381019390935260038101548216606084015260048101549091166080830152600581015460a0830152600681015460ff808216151560c08501526101008083048216151560e08601526201000090920416151590830152600781015461012083015283518392908590879081106112ca57634e487b7160e01b600052603260045260246000fd5b60209081029190910101526112e0600186613c94565b945050505b806112ef81613cc3565b9150506111da565b6000818152600960205260408120600a0154606091808267ffffffffffffffff81111561133457634e487b7160e01b600052604160045260246000fd5b60405190808252806020026020018201604052801561136d57816020015b61135a613668565b8152602001906001900390816113525790505b50905060005b83811015610959576000868152600a60209081526040808320848452825291829020825160a0810184528154815260018201546001600160a01b031692810192909252600281015492820192909252600382015460ff16151560608201526004820154608082015283518490869081106113fd57634e487b7160e01b600052603260045260246000fd5b6020908102919091010152611413600185613c94565b935050808061142190613cc3565b915050611373565b600854341461144a5760405162461bcd60e51b81526004016104c690613bba565b6000821161149a5760405162461bcd60e51b815260206004820181905260248201527f54686520707269636520796f7520736574206973206c657373207468616e203060448201526064016104c6565b4381116114a657600080fd5b60006114b160055490565b9050604051806101400160405280866001600160a01b03168152602001828152602001858152602001336001600160a01b0316815260200160006001600160a01b0316815260200184815260200160001515815260200160001515815260200160001515815260200183815250600f600083815260200190815260200160002060008201518160000160006101000a8154816001600160a01b0302191690836001600160a01b03160217905550602082015181600101556040820151816002015560608201518160030160006101000a8154816001600160a01b0302191690836001600160a01b0316021790555060808201518160040160006101000a8154816001600160a01b0302191690836001600160a01b0316021790555060a0820151816005015560c08201518160060160006101000a81548160ff02191690831515021790555060e08201518160060160016101000a81548160ff0219169083151502179055506101008201518160060160026101000a81548160ff0219169083151502179055506101208201518160070155905050846001600160a01b03166323b872dd3330876040518463ffffffff1660e01b815260040161167593929190613936565b600060405180830381600087803b15801561168f57600080fd5b505af11580156116a3573d6000803e3d6000fd5b505050506116b5600580546001019055565b604080516001600160a01b0387168152602081018390529081018590523360608201526080810184905260a081018390527f2a08876443939cc27f59a1050eca358cfddb7c2f09444312cd86a97d4e38c89d9060c0015b60405180910390a15050505050565b6002600054141561173e5760405162461bcd60e51b81526004016104c690613c39565b6002600081815583815260096020818152604080842080860154600a845282862088875284529185209095015493879052919052600390920154439291906001600160a01b03163314156117a45760405162461bcd60e51b81526004016104c690613b57565b6000858152600960208190526040909120015460ff16156117d75760405162461bcd60e51b81526004016104c690613b8e565b60008581526009602052604090206008015483116118375760405162461bcd60e51b815260206004820181905260248201527f6974656d206861736e277420657863656564656420636c61696d20737461676560448201526064016104c6565b60008581526009602081905260409091200154610100900460ff161561186f5760405162461bcd60e51b81526004016104c690613c02565b6000858152600a602090815260408083208784529091529020600101546001600160a01b031633146118e35760405162461bcd60e51b815260206004820152601960248201527f73656e646572206973206e6f74206f66666572206f776e65720000000000000060448201526064016104c6565b6000858152600a6020908152604080832087845290915290206003015460ff1661194f5760405162461bcd60e51b815260206004820152601760248201527f6f6666657220686173206265656e20726566756e64656400000000000000000060448201526064016104c6565b60008581526009602052604090206007015481146119af5760405162461bcd60e51b815260206004820152601960248201527f73656e646572206973206e6f74206974656d2077696e6e65720000000000000060448201526064016104c6565b60008581526009602081815260408084206004810180546001600160a01b03191633179055909201805460ff19166001179055848352600b905281206119f3905490565b6040805160e08101825282815260208082018a815282840188815260008c8152600984528581206003908101546001600160a01b0390811660608801908152336080890190815260a089018d81524360c08b019081528f8752600c8a528b87208d88529099529990942088518155955160018701559351600280870191909155935191850180549282166001600160a01b03199384161790559151600485018054919093169116179055935160058201559051600690910155919250611abc9080546001019055565b6000848152600b60205260409020805460010190556000878152600960205260408082206003015490516001600160a01b039091169185156108fc02918691818181858888f19350505050158015611b18573d6000803e3d6000fd5b50600087815260096020526040908190205490516323b872dd60e01b81526001600160a01b03909116906323b872dd90611b5a90309033908990600401613936565b600060405180830381600087803b158015611b7457600080fd5b505af1158015611b88573d6000803e3d6000fd5b50506007546008546040516001600160a01b03909216935080156108fc029250906000818181858888f19350505050158015611bc8573d6000803e3d6000fd5b50600087815260096020526040908190205490517f2c51ac367fe22d19911ac2c4935afc5874bc729eec0816e99e5d499389eadde191611c1f916001600160a01b03909116908a9088908b90339043908b90613985565b60405180910390a1505060016000555050505050565b6000818152600f602052604090206002810154600690910154610100900460ff1615611c6057600080fd5b6000828152600f6020526040902060070154431015611c7e57600080fd5b6000828152600f60205260409020600301546001600160a01b03163314611ca457600080fd5b6000828152600f602052604090819020549051636198e33960e01b8152600481018390526001600160a01b0390911690636198e33990602401600060405180830381600087803b158015611cf757600080fd5b505af1158015611d0b573d6000803e3d6000fd5b5050506000838152600f602052604090819020805460049182015492516323b872dd60e01b81526001600160a01b0391821694506323b872dd93611d56939216913391879101613936565b600060405180830381600087803b158015611d7057600080fd5b505af1158015611d84573d6000803e3d6000fd5b5050506000838152600f602090815260409182902060068101805461ff0019166101001790555482516001600160a01b0390911681529081018590529081018390524360608201524260808201523360a08201527f8b00c42754395a02a138a6922756a5869fe64fc236a9473ad968fa7995a4b470915060c00160405180910390a15050565b60026000541415611e2d5760405162461bcd60e51b81526004016104c690613c39565b60026000556008543414611e535760405162461bcd60e51b81526004016104c690613bba565b81831115611eb45760405162461bcd60e51b815260206004820152602860248201527f6d6178207072696365206d7573742062652067726561746572207468616e206d604482015267696e20707269636560c01b60648201526084016104c6565b60008311611ec157600080fd5b6000611ecc60015490565b9050611ee46040518060200160405280600081525090565b604051806101800160405280886001600160a01b03168152602001838152602001878152602001336001600160a01b0316815260200160006001600160a01b0316815260200186815260200185815260200160008152602001848152602001600015158152602001600015158152602001828152506009600084815260200190815260200160002060008201518160000160006101000a8154816001600160a01b0302191690836001600160a01b03160217905550602082015181600101556040820151816002015560608201518160030160006101000a8154816001600160a01b0302191690836001600160a01b0316021790555060808201518160040160006101000a8154816001600160a01b0302191690836001600160a01b0316021790555060a0820151816005015560c0820151816006015560e0820151816007015561010082015181600801556101208201518160090160006101000a81548160ff0219169083151502179055506101408201518160090160016101000a81548160ff02191690831515021790555061016082015181600a01600082015181600001555050905050866001600160a01b03166323b872dd3330896040518463ffffffff1660e01b81526004016120bb93929190613936565b600060405180830381600087803b1580156120d557600080fd5b505af11580156120e9573d6000803e3d6000fd5b505050506120fb600180546001019055565b604080516001600160a01b0389168152602081018490529081018790523360608201526080810186905260a0810185905260c081018490527f2c3505b87c3699f42eae59ad88627b472aece8888430e8a297095abcb49b57ec9060e001611c1f565b600260005414156121805760405162461bcd60e51b81526004016104c690613c39565b60026000908155818152600960205260409020600301546001600160a01b03163314156121bf5760405162461bcd60e51b81526004016104c690613b57565b6000818152600960208190526040909120015460ff16156121f25760405162461bcd60e51b81526004016104c690613b8e565b60008181526009602052604090206008015443111561224b5760405162461bcd60e51b8152602060048201526015602482015274125d195b481a185cc81899595b88195e1c1a5c9959605a1b60448201526064016104c6565b60008181526009602081905260409091200154610100900460ff16156122ad5760405162461bcd60e51b8152602060048201526017602482015276125d195b481a185cc81899595b8818d85b98d95b1b1959604a1b60448201526064016104c6565b6000818152600960205260409020600501543410156123185760405162461bcd60e51b815260206004820152602160248201527f4f66666572206d7573742067726561746572207468616e206d696e20707269636044820152606560f81b60648201526084016104c6565b60008181526009602052604090206007015434116123865760405162461bcd60e51b815260206004820152602560248201527f4f66666572206d7573742067726561746572207468616e2063757272656e7420604482015264707269636560d81b60648201526084016104c6565b60008181526009602052604090206006015434106123e65760405162461bcd60e51b815260206004820152601e60248201527f4f66666572206d757374206c657373207468616e206d6178207072696365000060448201526064016104c6565b6000818152600960205260409020600a0154612400613668565b818152336020808301918252346040808501828152600160608701818152436080890190815260008b8152600a88528581208b825288528581208a518155985193890180546001600160a01b0319166001600160a01b0390951694909417909355925160028801555160038701805460ff19169115159190911790559051600490950194909455868452600990925291206007015581158015906124d157506000838152600a60205260408120906124b9600185613cac565b815260208101919091526040016000206003015460ff165b15612598576000838152600a6020818152604080842086855280835290842060020154878552929091529091908161250a600187613cac565b815260208082019290925260409081016000908120600301805460ff191694151594909417909355868352600a909152812090612548600186613cac565b81526020810191909152604090810160009081206001015491516001600160a01b039092169183156108fc0291849190818181858888f19350505050158015612595573d6000803e3d6000fd5b50505b60008381526009602052604090819020600a810180546001019055805460029091015491517f90055c1bf1eb4c089384afda36d6aba8522e75c5f77d8e5897dcb2c3f490e7aa926125fd926001600160a01b0316918791908790339034904390613985565b60405180910390a15050600160005550565b6000818152600f60205260409020600301546001600160a01b031633146126785760405162461bcd60e51b815260206004820152601960248201527f63616c6c6572206d75737420626520746865206c656e6465720000000000000060448201526064016104c6565b6000818152600f602052604090206006015462010000900460ff16156126b05760405162461bcd60e51b81526004016104c690613c02565b6000818152600f60205260409020600401546001600160a01b0316156126e85760405162461bcd60e51b81526004016104c690613b8e565b6000818152600f6020526040908190208054600382015460029092015492516323b872dd60e01b81526001600160a01b03918216936323b872dd9361273593309391169190600401613936565b600060405180830381600087803b15801561274f57600080fd5b505af1158015612763573d6000803e3d6000fd5b5050506000828152600f602052604080822060068101805462ff00001916620100001790556003015460085491516001600160a01b03909116935081156108fc0292818181858888f193505050501580156127c2573d6000803e3d6000fd5b506000818152600f602052604090819020805460029091015491517fc7b73e26e3daf1aa852d5d1e8004d4977fb847612f88f80e5461ca2cf1ad610b92612817926001600160a01b031691859190339061395a565b60405180910390a150565b600260005414156128455760405162461bcd60e51b81526004016104c690613c39565b60026000908155818152600960205260409020600301546001600160a01b031633146128b35760405162461bcd60e51b815260206004820152601960248201527f73656e646572206d757374206265207468652073656c6c65720000000000000060448201526064016104c6565b60008181526009602081905260409091200154610100900460ff16156105e05760405162461bcd60e51b81526004016104c690613c02565b606060006128f860055490565b9050600061290560045490565b6003546005546129159190613cac565b61291f9190613cac565b90506000808267ffffffffffffffff81111561294b57634e487b7160e01b600052604160045260246000fd5b60405190808252806020026020018201604052801561298457816020015b612971613581565b8152602001906001900390816129695790505b50905060005b84811015610959576000818152600f60205260409020600401546001600160a01b03161580156129d257506000818152600f602052604090206006015462010000900460ff16155b15612ab5576000818152600f602090815260409182902082516101408101845281546001600160a01b03908116825260018301549382019390935260028201549381019390935260038101548216606084015260048101549091166080830152600581015460a0830152600681015460ff808216151560c08501526101008083048216151560e0860152620100009092041615159083015260078101546101208301528351839290859087908110612a9a57634e487b7160e01b600052603260045260246000fd5b6020908102919091010152612ab0600186613c94565b945050505b80612abf81613cc3565b91505061298a565b6000818152600e60205260408120546060918167ffffffffffffffff811115612b0057634e487b7160e01b600052604160045260246000fd5b604051908082528060200260200182016040528015612b8357816020015b612b706040518060e0016040528060008152602001600081526020016000815260200160006001600160a01b0316815260200160006001600160a01b0316815260200160008152602001600081525090565b815260200190600190039081612b1e5790505b50905060005b82811015610ce8576000858152600d60209081526040808320848452825291829020825160e0810184528154815260018201549281019290925260028101549282019290925260038201546001600160a01b0390811660608301526004830154166080820152600582015460a082015260069091015460c08201528251839083908110612c2657634e487b7160e01b600052603260045260246000fd5b60200260200101819052508080612c3c90613cc3565b915050612b89565b60606000612c5160055490565b905060008060005b83811015612ca6576000818152600f60205260409020600401546001600160a01b0387811691161415612c9457612c91600184613c94565b92505b80612c9e81613cc3565b915050612c59565b5060008267ffffffffffffffff811115612cd057634e487b7160e01b600052604160045260246000fd5b604051908082528060200260200182016040528015612d0957816020015b612cf6613581565b815260200190600190039081612cee5790505b50905060005b84811015610b61576000818152600f60205260409020600401546001600160a01b0388811691161415612e1a576000818152600f602090815260409182902082516101408101845281546001600160a01b03908116825260018301549382019390935260028201549381019390935260038101548216606084015260048101549091166080830152600581015460a0830152600681015460ff808216151560c08501526101008083048216151560e0860152620100009092041615159083015260078101546101208301528351839290859087908110612dff57634e487b7160e01b600052603260045260246000fd5b6020908102919091010152612e15600186613c94565b945050505b80612e2481613cc3565b915050612d0f565b6000818152600f6020526040902060028101546005909101544391903414612e965760405162461bcd60e51b815260206004820152601d60248201527f5072696365206d75737420657175616c20746f2070726963654c656e6400000060448201526064016104c6565b6000838152600f60205260409020600301546001600160a01b0316331415612ed05760405162461bcd60e51b81526004016104c690613b57565b6000838152600f602052604090206006015460ff1615612f275760405162461bcd60e51b81526020600482015260126024820152711a5d195b481a185cc81899595b881b195b9d60721b60448201526064016104c6565b6000838152600f6020526040902060070154821115612f805760405162461bcd60e51b8152602060048201526015602482015274125d195b481a185cc81899595b88195e1c1a5c9959605a1b60448201526064016104c6565b6000838152600f602052604090206006015462010000900460ff1615612fa557600080fd5b6000838152600f602090815260408083206004810180546001600160a01b03191633179055600601805460ff19166001179055838352600e9091528120612fea905490565b9050612ffa600380546001019055565b6040805160e08101825282815260208082018781528284018681526000898152600f84528581206003808201546001600160a01b0390811660608901908152600493840154821660808a019081523460a08b0190815260c08b018f81528e8852600d8b528c88208e89528b528c88208c518155995160018b0155975160028a0155915193880180549484166001600160a01b03199586161790555193870180549490921693909216929092179091555160058401559051600690920191909155858152600e909152919091206130d39080546001019055565b6000858152600f60205260408082206003015490516001600160a01b03909116913480156108fc02929091818181858888f1935050505015801561311b573d6000803e3d6000fd5b506000858152600f6020526040908190205490516323b872dd60e01b81526001600160a01b03909116906323b872dd9061315d90309033908890600401613936565b600060405180830381600087803b15801561317757600080fd5b505af115801561318b573d6000803e3d6000fd5b5050506000868152600f6020526040908190205490516337519c1960e21b8152600481018690526001600160a01b03909116915063dd46706490602401600060405180830381600087803b1580156131e257600080fd5b505af11580156131f6573d6000803e3d6000fd5b50506007546008546040516001600160a01b03909216935080156108fc029250906000818181858888f19350505050158015613236573d6000803e3d6000fd5b506000858152600f6020526040908190205490517f8b8d4933b892786c199cf0e4e5bb5d3839eaa89fe8f88cdce8c9546309fc28789161170c916001600160a01b039091169088908790339061395a565b61328f6135d5565b5060009081526009602081815260409283902083516101808101855281546001600160a01b0390811682526001830154828501526002830154828701526003830154811660608301526004830154166080820152600582015460a0820152600682015460c0820152600782015460e08201526008820154610100808301919091529382015460ff808216151561012084015294900490931615156101408401528351918201909352600a90920154825261016081019190915290565b6060600061335860015490565b905060008060005b838110156133cb576000818152600960205260409020600301546001600160a01b0387811691161480156133a657506000818152600960208190526040909120015460ff165b156133b9576133b6600184613c94565b92505b806133c381613cc3565b915050613360565b5060008267ffffffffffffffff8111156133f557634e487b7160e01b600052604160045260246000fd5b60405190808252806020026020018201604052801561342e57816020015b61341b6135d5565b8152602001906001900390816134135790505b50905060005b84811015610b61576000818152600960205260409020600301546001600160a01b03888116911614801561347a57506000818152600960208190526040909120015460ff165b1561356f5760008181526009602081815260409283902083516101808101855281546001600160a01b0390811682526001830154828501526002830154828701526003830154811660608301526004830154166080820152600582015460a0820152600682015460c0820152600782015460e08201526008820154610100808301919091529382015460ff808216151561012084015294900490931615156101408401528351918201909352600a8301548152610160820152835184908690811061355557634e487b7160e01b600052603260045260246000fd5b602090810291909101015261356b600185613c94565b9350505b8061357981613cc3565b915050613434565b6040805161014081018252600080825260208201819052918101829052606081018290526080810182905260a0810182905260c0810182905260e08101829052610100810182905261012081019190915290565b60405180610180016040528060006001600160a01b03168152602001600081526020016000815260200160006001600160a01b0316815260200160006001600160a01b03168152602001600081526020016000815260200160008152602001600081526020016000151581526020016000151581526020016136636040518060200160405280600081525090565b905290565b6040518060a001604052806000815260200160006001600160a01b0316815260200160008152602001600015158152602001600081525090565b80356001600160a01b03811681146136b957600080fd5b919050565b6000602082840312156136cf578081fd5b6136d8826136a2565b9392505050565b600080600080608085870312156136f4578283fd5b6136fd856136a2565b966020860135965060408601359560600135945092505050565b600080600080600060a0868803121561372e578081fd5b613737866136a2565b97602087013597506040870135966060810135965060800135945092505050565b600060208284031215613769578081fd5b5035919050565b60008060408385031215613782578182fd5b50508035926020909101359150565b805182526020810151602083015260408101516040830152606081015160018060a01b038082166060850152806080840151166080850152505060a081015160a083015260c081015160c08301525050565b80516001600160a01b031682526020810151602083015260408101516040830152606081015161381e60608401826001600160a01b03169052565b50608081015161383960808401826001600160a01b03169052565b5060a081015160a083015260c081015161385760c084018215159052565b5060e081015161386b60e084018215159052565b506101008181015115159083015261012090810151910152565b80516001600160a01b03168252602081015160208301526040810151604083015260608101516138c060608401826001600160a01b03169052565b5060808101516138db60808401826001600160a01b03169052565b5060a081015160a083015260c081015160c083015260e081015160e08301526101008082015181840152506101208082015161391a8285018215159052565b5050610140818101511515908301526101609081015151910152565b6001600160a01b039384168152919092166020820152604081019190915260600190565b6001600160a01b03948516815260208101939093526040830191909152909116606082015260800190565b6001600160a01b039788168152602081019690965260408601949094526060850192909252909316608083015260a082019290925260c081019190915260e00190565b6020808252825182820181905260009190848201906040850190845b81811015613a0a576139f7838551613791565b9284019260e092909201916001016139e4565b50909695505050505050565b6020808252825182820181905260009190848201906040850190845b81811015613a0a57613a458385516137e3565b928401926101409290920191600101613a32565b6020808252825182820181905260009190848201906040850190845b81811015613a0a57613a88838551613885565b928401926101809290920191600101613a75565b602080825282518282018190526000919060409081850190868401855b82811015613b0857815180518552868101516001600160a01b03168786015285810151868601526060808201511515908601526080908101519085015260a09093019290850190600101613ab9565b5091979650505050505050565b6020808252825182820181905260009190848201906040850190845b81811015613a0a57613b44838551613791565b9284019260e09290920191600101613b31565b60208082526017908201527f61736b6572206d757374206e6f74206265206f776e6572000000000000000000604082015260600190565b6020808252601290820152711a5d195b481a185cc81899595b881cdbdb1960721b604082015260600190565b60208082526028908201527f4f7264657220666565206d75737420626520657175616c20746f206c697374696040820152676e6720707269636560c01b606082015260800190565b60208082526017908201527f6974656d20686173206265656e2063616e63656c6c6564000000000000000000604082015260600190565b6020808252601f908201527f5265656e7472616e637947756172643a207265656e7472616e742063616c6c00604082015260600190565b6101408101613c7f82846137e3565b92915050565b6101808101613c7f8284613885565b60008219821115613ca757613ca7613cde565b500190565b600082821015613cbe57613cbe613cde565b500390565b6000600019821415613cd757613cd7613cde565b5060010190565b634e487b7160e01b600052601160045260246000fdfea26469706673582212208e82c03fbba31b434b1f969f013f8b0c235afefe033e271277b01f5f65438e4d64736f6c63430008040033",
  "linkReferences": {},
  "deployedLinkReferences": {}
}