{
  "_format": "hh-sol-artifact-1",
  "contractName": "TimeLockMultiSigWallet",
  "sourceName": "contracts/Double/TimeLockMultiSigWallet.sol",
  "abi": [
    {
      "inputs": [
        {
          "internalType": "address[]",
          "name": "_owners",
          "type": "address[]"
        },
        {
          "internalType": "uint256",
          "name": "_required",
          "type": "uint256"
        },
        {
          "internalType": "uint256",
          "name": "_delay",
          "type": "uint256"
        }
      ],
      "stateMutability": "nonpayable",
      "type": "constructor"
    },
    {
      "anonymous": false,
      "inputs": [
        {
          "indexed": true,
          "internalType": "address",
          "name": "sender",
          "type": "address"
        },
        {
          "indexed": true,
          "internalType": "uint256",
          "name": "transactionId",
          "type": "uint256"
        }
      ],
      "name": "Confirmation",
      "type": "event"
    },
    {
      "anonymous": false,
      "inputs": [
        {
          "indexed": true,
          "internalType": "address",
          "name": "sender",
          "type": "address"
        },
        {
          "indexed": false,
          "internalType": "uint256",
          "name": "value",
          "type": "uint256"
        }
      ],
      "name": "Deposit",
      "type": "event"
    },
    {
      "anonymous": false,
      "inputs": [
        {
          "indexed": true,
          "internalType": "uint256",
          "name": "transactionId",
          "type": "uint256"
        }
      ],
      "name": "Execution",
      "type": "event"
    },
    {
      "anonymous": false,
      "inputs": [
        {
          "indexed": true,
          "internalType": "uint256",
          "name": "transactionId",
          "type": "uint256"
        }
      ],
      "name": "ExecutionFailure",
      "type": "event"
    },
    {
      "anonymous": false,
      "inputs": [
        {
          "indexed": false,
          "internalType": "uint256",
          "name": "delay",
          "type": "uint256"
        }
      ],
      "name": "NewDelay",
      "type": "event"
    },
    {
      "anonymous": false,
      "inputs": [
        {
          "indexed": true,
          "internalType": "address",
          "name": "owner",
          "type": "address"
        }
      ],
      "name": "OwnerAddition",
      "type": "event"
    },
    {
      "anonymous": false,
      "inputs": [
        {
          "indexed": true,
          "internalType": "address",
          "name": "owner",
          "type": "address"
        }
      ],
      "name": "OwnerRemoval",
      "type": "event"
    },
    {
      "anonymous": false,
      "inputs": [
        {
          "indexed": false,
          "internalType": "uint256",
          "name": "required",
          "type": "uint256"
        }
      ],
      "name": "RequirementChange",
      "type": "event"
    },
    {
      "anonymous": false,
      "inputs": [
        {
          "indexed": true,
          "internalType": "address",
          "name": "sender",
          "type": "address"
        },
        {
          "indexed": true,
          "internalType": "uint256",
          "name": "transactionId",
          "type": "uint256"
        }
      ],
      "name": "Revocation",
      "type": "event"
    },
    {
      "anonymous": false,
      "inputs": [
        {
          "indexed": true,
          "internalType": "uint256",
          "name": "transactionId",
          "type": "uint256"
        }
      ],
      "name": "Submission",
      "type": "event"
    },
    {
      "stateMutability": "nonpayable",
      "type": "fallback"
    },
    {
      "inputs": [],
      "name": "MAXIMUM_DELAY",
      "outputs": [
        {
          "internalType": "uint256",
          "name": "",
          "type": "uint256"
        }
      ],
      "stateMutability": "view",
      "type": "function"
    },
    {
      "inputs": [],
      "name": "MAX_OWNER_COUNT",
      "outputs": [
        {
          "internalType": "uint256",
          "name": "",
          "type": "uint256"
        }
      ],
      "stateMutability": "view",
      "type": "function"
    },
    {
      "inputs": [],
      "name": "MINIMUM_DELAY",
      "outputs": [
        {
          "internalType": "uint256",
          "name": "",
          "type": "uint256"
        }
      ],
      "stateMutability": "view",
      "type": "function"
    },
    {
      "inputs": [],
      "name": "VERSION",
      "outputs": [
        {
          "internalType": "uint256",
          "name": "",
          "type": "uint256"
        }
      ],
      "stateMutability": "view",
      "type": "function"
    },
    {
      "inputs": [
        {
          "internalType": "address",
          "name": "owner",
          "type": "address"
        }
      ],
      "name": "addOwner",
      "outputs": [],
      "stateMutability": "nonpayable",
      "type": "function"
    },
    {
      "inputs": [
        {
          "internalType": "uint256[]",
          "name": "transactionIdArray",
          "type": "uint256[]"
        }
      ],
      "name": "batchConfirmTransaction",
      "outputs": [],
      "stateMutability": "nonpayable",
      "type": "function"
    },
    {
      "inputs": [
        {
          "internalType": "uint256[]",
          "name": "transactionIdArray",
          "type": "uint256[]"
        }
      ],
      "name": "batchExecuteTransaction",
      "outputs": [],
      "stateMutability": "nonpayable",
      "type": "function"
    },
    {
      "inputs": [
        {
          "internalType": "uint256",
          "name": "_required",
          "type": "uint256"
        }
      ],
      "name": "changeRequirement",
      "outputs": [],
      "stateMutability": "nonpayable",
      "type": "function"
    },
    {
      "inputs": [
        {
          "internalType": "uint256",
          "name": "transactionId",
          "type": "uint256"
        }
      ],
      "name": "confirmTransaction",
      "outputs": [],
      "stateMutability": "nonpayable",
      "type": "function"
    },
    {
      "inputs": [
        {
          "internalType": "uint256",
          "name": "",
          "type": "uint256"
        },
        {
          "internalType": "address",
          "name": "",
          "type": "address"
        }
      ],
      "name": "confirmations",
      "outputs": [
        {
          "internalType": "bool",
          "name": "",
          "type": "bool"
        }
      ],
      "stateMutability": "view",
      "type": "function"
    },
    {
      "inputs": [],
      "name": "delay",
      "outputs": [
        {
          "internalType": "uint256",
          "name": "",
          "type": "uint256"
        }
      ],
      "stateMutability": "view",
      "type": "function"
    },
    {
      "inputs": [
        {
          "internalType": "uint256",
          "name": "transactionId",
          "type": "uint256"
        }
      ],
      "name": "executeTransaction",
      "outputs": [],
      "stateMutability": "nonpayable",
      "type": "function"
    },
    {
      "inputs": [
        {
          "internalType": "uint256",
          "name": "transactionId",
          "type": "uint256"
        }
      ],
      "name": "getConfirmationCount",
      "outputs": [
        {
          "internalType": "uint256",
          "name": "count",
          "type": "uint256"
        }
      ],
      "stateMutability": "view",
      "type": "function"
    },
    {
      "inputs": [
        {
          "internalType": "uint256",
          "name": "transactionId",
          "type": "uint256"
        }
      ],
      "name": "getConfirmations",
      "outputs": [
        {
          "internalType": "address[]",
          "name": "_confirmations",
          "type": "address[]"
        }
      ],
      "stateMutability": "view",
      "type": "function"
    },
    {
      "inputs": [],
      "name": "getOwners",
      "outputs": [
        {
          "internalType": "address[]",
          "name": "",
          "type": "address[]"
        }
      ],
      "stateMutability": "view",
      "type": "function"
    },
    {
      "inputs": [
        {
          "internalType": "bool",
          "name": "pending",
          "type": "bool"
        },
        {
          "internalType": "bool",
          "name": "executed",
          "type": "bool"
        }
      ],
      "name": "getTransactionCount",
      "outputs": [
        {
          "internalType": "uint256",
          "name": "count",
          "type": "uint256"
        }
      ],
      "stateMutability": "view",
      "type": "function"
    },
    {
      "inputs": [
        {
          "internalType": "uint256",
          "name": "from",
          "type": "uint256"
        },
        {
          "internalType": "uint256",
          "name": "to",
          "type": "uint256"
        },
        {
          "internalType": "bool",
          "name": "pending",
          "type": "bool"
        },
        {
          "internalType": "bool",
          "name": "executed",
          "type": "bool"
        }
      ],
      "name": "getTransactionIds",
      "outputs": [
        {
          "internalType": "uint256[]",
          "name": "_transactionIds",
          "type": "uint256[]"
        }
      ],
      "stateMutability": "view",
      "type": "function"
    },
    {
      "inputs": [
        {
          "internalType": "uint256",
          "name": "transactionId",
          "type": "uint256"
        }
      ],
      "name": "isConfirmed",
      "outputs": [
        {
          "internalType": "bool",
          "name": "",
          "type": "bool"
        }
      ],
      "stateMutability": "view",
      "type": "function"
    },
    {
      "inputs": [
        {
          "internalType": "address",
          "name": "",
          "type": "address"
        }
      ],
      "name": "isOwner",
      "outputs": [
        {
          "internalType": "bool",
          "name": "",
          "type": "bool"
        }
      ],
      "stateMutability": "view",
      "type": "function"
    },
    {
      "inputs": [
        {
          "internalType": "address",
          "name": "operator",
          "type": "address"
        },
        {
          "internalType": "address",
          "name": "from",
          "type": "address"
        },
        {
          "internalType": "uint256",
          "name": "tokenId",
          "type": "uint256"
        },
        {
          "internalType": "bytes",
          "name": "data",
          "type": "bytes"
        }
      ],
      "name": "onERC721Received",
      "outputs": [
        {
          "internalType": "bytes4",
          "name": "",
          "type": "bytes4"
        }
      ],
      "stateMutability": "nonpayable",
      "type": "function"
    },
    {
      "inputs": [
        {
          "internalType": "uint256",
          "name": "",
          "type": "uint256"
        }
      ],
      "name": "owners",
      "outputs": [
        {
          "internalType": "address",
          "name": "",
          "type": "address"
        }
      ],
      "stateMutability": "view",
      "type": "function"
    },
    {
      "inputs": [
        {
          "internalType": "address",
          "name": "owner",
          "type": "address"
        }
      ],
      "name": "removeOwner",
      "outputs": [],
      "stateMutability": "nonpayable",
      "type": "function"
    },
    {
      "inputs": [
        {
          "internalType": "address",
          "name": "owner",
          "type": "address"
        },
        {
          "internalType": "address",
          "name": "newOwner",
          "type": "address"
        }
      ],
      "name": "replaceOwner",
      "outputs": [],
      "stateMutability": "nonpayable",
      "type": "function"
    },
    {
      "inputs": [],
      "name": "required",
      "outputs": [
        {
          "internalType": "uint256",
          "name": "",
          "type": "uint256"
        }
      ],
      "stateMutability": "view",
      "type": "function"
    },
    {
      "inputs": [
        {
          "internalType": "uint256",
          "name": "transactionId",
          "type": "uint256"
        }
      ],
      "name": "revokeConfirmation",
      "outputs": [],
      "stateMutability": "nonpayable",
      "type": "function"
    },
    {
      "inputs": [
        {
          "internalType": "uint256",
          "name": "_delay",
          "type": "uint256"
        }
      ],
      "name": "setDelay",
      "outputs": [],
      "stateMutability": "nonpayable",
      "type": "function"
    },
    {
      "inputs": [
        {
          "internalType": "address",
          "name": "destination",
          "type": "address"
        },
        {
          "internalType": "uint256",
          "name": "value",
          "type": "uint256"
        },
        {
          "internalType": "bytes",
          "name": "data",
          "type": "bytes"
        }
      ],
      "name": "submitTransaction",
      "outputs": [
        {
          "internalType": "uint256",
          "name": "transactionId",
          "type": "uint256"
        }
      ],
      "stateMutability": "nonpayable",
      "type": "function"
    },
    {
      "inputs": [],
      "name": "transactionCount",
      "outputs": [
        {
          "internalType": "uint256",
          "name": "",
          "type": "uint256"
        }
      ],
      "stateMutability": "view",
      "type": "function"
    },
    {
      "inputs": [
        {
          "internalType": "uint256",
          "name": "",
          "type": "uint256"
        }
      ],
      "name": "transactions",
      "outputs": [
        {
          "internalType": "address",
          "name": "destination",
          "type": "address"
        },
        {
          "internalType": "uint256",
          "name": "value",
          "type": "uint256"
        },
        {
          "internalType": "bytes",
          "name": "data",
          "type": "bytes"
        },
        {
          "internalType": "bool",
          "name": "executed",
          "type": "bool"
        },
        {
          "internalType": "uint256",
          "name": "submitTime",
          "type": "uint256"
        }
      ],
      "stateMutability": "view",
      "type": "function"
    },
    {
      "stateMutability": "payable",
      "type": "receive"
    }
  ],
  "bytecode": "0x60806040523480156200001157600080fd5b50604051620049ca380380620049ca8339818101604052810190620000379190620004bb565b825182603282111580156200004c5750818111155b80156200005a575060008114155b801562000068575060008214155b620000aa576040517f08c379a0000000000000000000000000000000000000000000000000000000008152600401620000a190620005e3565b60405180910390fd5b6001831015620000f1576040517f08c379a0000000000000000000000000000000000000000000000000000000008152600401620000e8906200059f565b60405180910390fd5b6213c6808311156200013a576040517f08c379a00000000000000000000000000000000000000000000000000000000081526004016200013190620005c1565b60405180910390fd5b60005b85518110156200030a576003600087838151811062000185577f4e487b7100000000000000000000000000000000000000000000000000000000600052603260045260246000fd5b602002602001015173ffffffffffffffffffffffffffffffffffffffff1673ffffffffffffffffffffffffffffffffffffffff16815260200190815260200160002060009054906101000a900460ff16158015620002515750600073ffffffffffffffffffffffffffffffffffffffff1686828151811062000230577f4e487b7100000000000000000000000000000000000000000000000000000000600052603260045260246000fd5b602002602001015173ffffffffffffffffffffffffffffffffffffffff1614155b6200025b57600080fd5b6001600360008884815181106200029b577f4e487b7100000000000000000000000000000000000000000000000000000000600052603260045260246000fd5b602002602001015173ffffffffffffffffffffffffffffffffffffffff1673ffffffffffffffffffffffffffffffffffffffff16815260200190815260200160002060006101000a81548160ff02191690831515021790555080806200030190620006e2565b9150506200013d565b508460049080519060200190620003239291906200033d565b508360058190555082600081905550505050505062000874565b828054828255906000526020600020908101928215620003b9579160200282015b82811115620003b85782518260006101000a81548173ffffffffffffffffffffffffffffffffffffffff021916908373ffffffffffffffffffffffffffffffffffffffff160217905550916020019190600101906200035e565b5b509050620003c89190620003cc565b5090565b5b80821115620003e7576000816000905550600101620003cd565b5090565b600062000402620003fc846200062e565b62000605565b905080838252602082019050828560208602820111156200042257600080fd5b60005b858110156200045657816200043b888262000460565b84526020840193506020830192505060018101905062000425565b5050509392505050565b600081519050620004718162000840565b92915050565b600082601f8301126200048957600080fd5b81516200049b848260208601620003eb565b91505092915050565b600081519050620004b5816200085a565b92915050565b600080600060608486031215620004d157600080fd5b600084015167ffffffffffffffff811115620004ec57600080fd5b620004fa8682870162000477565b93505060206200050d86828701620004a4565b92505060406200052086828701620004a4565b9150509250925092565b6000620005396020836200065d565b915062000546826200079f565b602082019050919050565b6000620005606024836200065d565b91506200056d82620007c8565b604082019050919050565b6000620005876019836200065d565b9150620005948262000817565b602082019050919050565b60006020820190508181036000830152620005ba816200052a565b9050919050565b60006020820190508181036000830152620005dc8162000551565b9050919050565b60006020820190508181036000830152620005fe8162000578565b9050919050565b60006200061162000624565b90506200061f8282620006ac565b919050565b6000604051905090565b600067ffffffffffffffff8211156200064c576200064b6200075f565b5b602082029050602081019050919050565b600082825260208201905092915050565b60006200067b8262000682565b9050919050565b600073ffffffffffffffffffffffffffffffffffffffff82169050919050565b6000819050919050565b620006b7826200078e565b810181811067ffffffffffffffff82111715620006d957620006d86200075f565b5b80604052505050565b6000620006ef82620006a2565b91507fffffffffffffffffffffffffffffffffffffffffffffffffffffffffffffffff82141562000725576200072462000730565b5b600182019050919050565b7f4e487b7100000000000000000000000000000000000000000000000000000000600052601160045260246000fd5b7f4e487b7100000000000000000000000000000000000000000000000000000000600052604160045260246000fd5b6000601f19601f8301169050919050565b7f44656c6179206d75737420657863656564206d696e696d756d2064656c61792e600082015250565b7f44656c6179206d757374206e6f7420657863656564206d6178696d756d20646560008201527f6c61792e00000000000000000000000000000000000000000000000000000000602082015250565b7f6572726f723a2076616c6964526571756972656d656e74282900000000000000600082015250565b6200084b816200066e565b81146200085757600080fd5b50565b6200086581620006a2565b81146200087157600080fd5b50565b61414680620008846000396000f3fe6080604052600436106101c65760003560e01c8063a0e67e2b116100f7578063c642747411610095578063e177246e11610064578063e177246e14610723578063e20056e61461074c578063ee22610b14610775578063ffa1ad741461079e57610225565b8063c642747414610667578063d306b9da146106a4578063d74f8edd146106cd578063dc8452cd146106f857610225565b8063b5dc40c3116100d1578063b5dc40c3146105ad578063b77bf600146105ea578063ba51a6df14610615578063c01a8c841461063e57610225565b8063a0e67e2b1461051a578063a8abe69a14610545578063b1b43ae51461058257610225565b80635474152511610164578063784547a71161013e578063784547a7146104345780637d645fab146104715780638b51d13f1461049c5780639ace38c2146104d957610225565b806354741525146103a35780636a42b8f8146103e05780637065cb481461040b57610225565b806320ea8d86116101a057806320ea8d86146102d757806326f5e2b5146103005780632f54bf6e146103295780633411c81c1461036657610225565b8063025e7c2714610234578063150b7a0214610271578063173825d9146102ae57610225565b36610225576000341115610223573373ffffffffffffffffffffffffffffffffffffffff167fe1fffcc4923d04b559f4d29a8bfc6cda04eb5b0d3c460751c2402c5c5cc9109c3460405161021a919061393b565b60405180910390a25b005b34801561023157600080fd5b50005b34801561024057600080fd5b5061025b60048036038101906102569190613109565b6107c9565b604051610268919061368a565b60405180910390f35b34801561027d57600080fd5b5061029860048036038101906102939190612fa5565b610808565b6040516102a5919061375e565b60405180910390f35b3480156102ba57600080fd5b506102d560048036038101906102d09190612f40565b610822565b005b3480156102e357600080fd5b506102fe60048036038101906102f99190613109565b610bb7565b005b34801561030c57600080fd5b506103276004803603810190610322919061308c565b610dfc565b005b34801561033557600080fd5b50610350600480360381019061034b9190612f40565b610e68565b60405161035d9190613743565b60405180910390f35b34801561037257600080fd5b5061038d60048036038101906103889190613132565b610e88565b60405161039a9190613743565b60405180910390f35b3480156103af57600080fd5b506103ca60048036038101906103c591906130cd565b610eb7565b6040516103d7919061393b565b60405180910390f35b3480156103ec57600080fd5b506103f5610f56565b604051610402919061393b565b60405180910390f35b34801561041757600080fd5b50610432600480360381019061042d9190612f40565b610f5c565b005b34801561044057600080fd5b5061045b60048036038101906104569190613109565b61124d565b6040516104689190613743565b60405180910390f35b34801561047d57600080fd5b5061048661136f565b604051610493919061393b565b60405180910390f35b3480156104a857600080fd5b506104c360048036038101906104be9190613109565b611376565b6040516104d0919061393b565b60405180910390f35b3480156104e557600080fd5b5061050060048036038101906104fb9190613109565b611477565b6040516105119594939291906136a5565b60405180910390f35b34801561052657600080fd5b5061052f611562565b60405161053c91906136ff565b60405180910390f35b34801561055157600080fd5b5061056c6004803603810190610567919061316e565b6115f0565b6040516105799190613721565b60405180910390f35b34801561058e57600080fd5b5061059761187c565b6040516105a4919061393b565b60405180910390f35b3480156105b957600080fd5b506105d460048036038101906105cf9190613109565b611881565b6040516105e191906136ff565b60405180910390f35b3480156105f657600080fd5b506105ff611c1b565b60405161060c919061393b565b60405180910390f35b34801561062157600080fd5b5061063c60048036038101906106379190613109565b611c21565b005b34801561064a57600080fd5b5061066560048036038101906106609190613109565b611d43565b005b34801561067357600080fd5b5061068e60048036038101906106899190613025565b611fcb565b60405161069b919061393b565b60405180910390f35b3480156106b057600080fd5b506106cb60048036038101906106c6919061308c565b611fea565b005b3480156106d957600080fd5b506106e2612056565b6040516106ef919061393b565b60405180910390f35b34801561070457600080fd5b5061070d61205b565b60405161071a919061393b565b60405180910390f35b34801561072f57600080fd5b5061074a60048036038101906107459190613109565b612061565b005b34801561075857600080fd5b50610773600480360381019061076e9190612f69565b61219c565b005b34801561078157600080fd5b5061079c60048036038101906107979190613109565b6125a5565b005b3480156107aa57600080fd5b506107b3612992565b6040516107c0919061393b565b60405180910390f35b600481815481106107d957600080fd5b906000526020600020016000915054906101000a900473ffffffffffffffffffffffffffffffffffffffff1681565b60008063150b7a0260e01b90508091505095945050505050565b3073ffffffffffffffffffffffffffffffffffffffff163373ffffffffffffffffffffffffffffffffffffffff1614610890576040517f08c379a00000000000000000000000000000000000000000000000000000000081526004016108879061381b565b60405180910390fd5b80600360008273ffffffffffffffffffffffffffffffffffffffff1673ffffffffffffffffffffffffffffffffffffffff16815260200190815260200160002060009054906101000a900460ff1661091d576040517f08c379a0000000000000000000000000000000000000000000000000000000008152600401610914906138bb565b60405180910390fd5b6000600360008473ffffffffffffffffffffffffffffffffffffffff1673ffffffffffffffffffffffffffffffffffffffff16815260200190815260200160002060006101000a81548160ff02191690831515021790555060005b600160048054905061098a9190613b34565b811015610b39578273ffffffffffffffffffffffffffffffffffffffff16600482815481106109e2577f4e487b7100000000000000000000000000000000000000000000000000000000600052603260045260246000fd5b9060005260206000200160009054906101000a900473ffffffffffffffffffffffffffffffffffffffff1673ffffffffffffffffffffffffffffffffffffffff161415610b265760046001600480549050610a3d9190613b34565b81548110610a74577f4e487b7100000000000000000000000000000000000000000000000000000000600052603260045260246000fd5b9060005260206000200160009054906101000a900473ffffffffffffffffffffffffffffffffffffffff1660048281548110610ad9577f4e487b7100000000000000000000000000000000000000000000000000000000600052603260045260246000fd5b9060005260206000200160006101000a81548173ffffffffffffffffffffffffffffffffffffffff021916908373ffffffffffffffffffffffffffffffffffffffff160217905550610b39565b8080610b3190613cab565b915050610978565b506001600480549050610b4c9190613b34565b6005541115610b7057610b6f6001600480549050610b6a9190613b34565b611c21565b5b8173ffffffffffffffffffffffffffffffffffffffff167f8001553a916ef2f495d26a907cc54d96ed840d7bda71e73194bf5a9df7a76b9060405160405180910390a25050565b33600360008273ffffffffffffffffffffffffffffffffffffffff1673ffffffffffffffffffffffffffffffffffffffff16815260200190815260200160002060009054906101000a900460ff16610c44576040517f08c379a0000000000000000000000000000000000000000000000000000000008152600401610c3b906138bb565b60405180910390fd5b81336002600083815260200190815260200160002060008273ffffffffffffffffffffffffffffffffffffffff1673ffffffffffffffffffffffffffffffffffffffff16815260200190815260200160002060009054906101000a900460ff16610ce3576040517f08c379a0000000000000000000000000000000000000000000000000000000008152600401610cda9061385b565b60405180910390fd5b836001600082815260200190815260200160002060030160009054906101000a900460ff1615610d48576040517f08c379a0000000000000000000000000000000000000000000000000000000008152600401610d3f9061387b565b60405180910390fd5b60006002600087815260200190815260200160002060003373ffffffffffffffffffffffffffffffffffffffff1673ffffffffffffffffffffffffffffffffffffffff16815260200190815260200160002060006101000a81548160ff021916908315150217905550843373ffffffffffffffffffffffffffffffffffffffff167ff6a317157440607f36269043eb55f1287a5a19ba2216afeab88cd46cbcfb88e960405160405180910390a35050505050565b60005b8151811015610e6457610e51828281518110610e44577f4e487b7100000000000000000000000000000000000000000000000000000000600052603260045260246000fd5b60200260200101516125a5565b8080610e5c90613cab565b915050610dff565b5050565b60036020528060005260406000206000915054906101000a900460ff1681565b60026020528160005260406000206020528060005260406000206000915091509054906101000a900460ff1681565b6000805b600654811015610f4f57838015610ef357506001600082815260200190815260200160002060030160009054906101000a900460ff16155b80610f275750828015610f2657506001600082815260200190815260200160002060030160009054906101000a900460ff165b5b15610f3c57600182610f399190613aad565b91505b8080610f4790613cab565b915050610ebb565b5092915050565b60005481565b3073ffffffffffffffffffffffffffffffffffffffff163373ffffffffffffffffffffffffffffffffffffffff1614610fca576040517f08c379a0000000000000000000000000000000000000000000000000000000008152600401610fc19061381b565b60405180910390fd5b80600360008273ffffffffffffffffffffffffffffffffffffffff1673ffffffffffffffffffffffffffffffffffffffff16815260200190815260200160002060009054906101000a900460ff1615611058576040517f08c379a000000000000000000000000000000000000000000000000000000000815260040161104f906137fb565b60405180910390fd5b81600073ffffffffffffffffffffffffffffffffffffffff168173ffffffffffffffffffffffffffffffffffffffff1614156110c9576040517f08c379a00000000000000000000000000000000000000000000000000000000081526004016110c0906138db565b60405180910390fd5b60016004805490506110db9190613aad565b600554603282111580156110ef5750818111155b80156110fc575060008114155b8015611109575060008214155b611148576040517f08c379a000000000000000000000000000000000000000000000000000000000815260040161113f906138fb565b60405180910390fd5b6001600360008773ffffffffffffffffffffffffffffffffffffffff1673ffffffffffffffffffffffffffffffffffffffff16815260200190815260200160002060006101000a81548160ff0219169083151502179055506004859080600181540180825580915050600190039060005260206000200160009091909190916101000a81548173ffffffffffffffffffffffffffffffffffffffff021916908373ffffffffffffffffffffffffffffffffffffffff1602179055508473ffffffffffffffffffffffffffffffffffffffff167ff39e6e1eb0edcf53c221607b54b00cd28f3196fed0a24994dc308b8f611b682d60405160405180910390a25050505050565b6000806000905060005b60048054905081101561136357600260008581526020019081526020016000206000600483815481106112b3577f4e487b7100000000000000000000000000000000000000000000000000000000600052603260045260246000fd5b9060005260206000200160009054906101000a900473ffffffffffffffffffffffffffffffffffffffff1673ffffffffffffffffffffffffffffffffffffffff1673ffffffffffffffffffffffffffffffffffffffff16815260200190815260200160002060009054906101000a900460ff161561133b576001826113389190613aad565b91505b6005548214156113505760019250505061136a565b808061135b90613cab565b915050611257565b5060009150505b919050565b6213c68081565b6000805b60048054905081101561147157600260008481526020019081526020016000206000600483815481106113d6577f4e487b7100000000000000000000000000000000000000000000000000000000600052603260045260246000fd5b9060005260206000200160009054906101000a900473ffffffffffffffffffffffffffffffffffffffff1673ffffffffffffffffffffffffffffffffffffffff1673ffffffffffffffffffffffffffffffffffffffff16815260200190815260200160002060009054906101000a900460ff161561145e5760018261145b9190613aad565b91505b808061146990613cab565b91505061137a565b50919050565b60016020528060005260406000206000915090508060000160009054906101000a900473ffffffffffffffffffffffffffffffffffffffff16908060010154908060020180546114c690613c48565b80601f01602080910402602001604051908101604052809291908181526020018280546114f290613c48565b801561153f5780601f106115145761010080835404028352916020019161153f565b820191906000526020600020905b81548152906001019060200180831161152257829003601f168201915b5050505050908060030160009054906101000a900460ff16908060040154905085565b606060048054806020026020016040519081016040528092919081815260200182805480156115e657602002820191906000526020600020905b8160009054906101000a900473ffffffffffffffffffffffffffffffffffffffff1673ffffffffffffffffffffffffffffffffffffffff168152602001906001019080831161159c575b5050505050905090565b6060600060065467ffffffffffffffff811115611636577f4e487b7100000000000000000000000000000000000000000000000000000000600052604160045260246000fd5b6040519080825280602002602001820160405280156116645781602001602082028036833780820191505090505b5090506000805b600654811015611745578580156116a357506001600082815260200190815260200160002060030160009054906101000a900460ff16155b806116d757508480156116d657506001600082815260200190815260200160002060030160009054906101000a900460ff165b5b156117325780838381518110611716577f4e487b7100000000000000000000000000000000000000000000000000000000600052603260045260246000fd5b60200260200101818152505060018261172f9190613aad565b91505b808061173d90613cab565b91505061166b565b87876117519190613b34565b67ffffffffffffffff811115611790577f4e487b7100000000000000000000000000000000000000000000000000000000600052604160045260246000fd5b6040519080825280602002602001820160405280156117be5781602001602082028036833780820191505090505b5093508790505b8681101561187157828181518110611806577f4e487b7100000000000000000000000000000000000000000000000000000000600052603260045260246000fd5b602002602001015184898361181b9190613b34565b81518110611852577f4e487b7100000000000000000000000000000000000000000000000000000000600052603260045260246000fd5b602002602001018181525050808061186990613cab565b9150506117c5565b505050949350505050565b600181565b6060600060048054905067ffffffffffffffff8111156118ca577f4e487b7100000000000000000000000000000000000000000000000000000000600052604160045260246000fd5b6040519080825280602002602001820160405280156118f85781602001602082028036833780820191505090505b5090506000805b600480549050811015611ace576002600086815260200190815260200160002060006004838154811061195b577f4e487b7100000000000000000000000000000000000000000000000000000000600052603260045260246000fd5b9060005260206000200160009054906101000a900473ffffffffffffffffffffffffffffffffffffffff1673ffffffffffffffffffffffffffffffffffffffff1673ffffffffffffffffffffffffffffffffffffffff16815260200190815260200160002060009054906101000a900460ff1615611abb5760048181548110611a0d577f4e487b7100000000000000000000000000000000000000000000000000000000600052603260045260246000fd5b9060005260206000200160009054906101000a900473ffffffffffffffffffffffffffffffffffffffff16838381518110611a71577f4e487b7100000000000000000000000000000000000000000000000000000000600052603260045260246000fd5b602002602001019073ffffffffffffffffffffffffffffffffffffffff16908173ffffffffffffffffffffffffffffffffffffffff1681525050600182611ab89190613aad565b91505b8080611ac690613cab565b9150506118ff565b8167ffffffffffffffff811115611b0e577f4e487b7100000000000000000000000000000000000000000000000000000000600052604160045260246000fd5b604051908082528060200260200182016040528015611b3c5781602001602082028036833780820191505090505b509350600090505b81811015611c1357828181518110611b85577f4e487b7100000000000000000000000000000000000000000000000000000000600052603260045260246000fd5b6020026020010151848281518110611bc6577f4e487b7100000000000000000000000000000000000000000000000000000000600052603260045260246000fd5b602002602001019073ffffffffffffffffffffffffffffffffffffffff16908173ffffffffffffffffffffffffffffffffffffffff16815250508080611c0b90613cab565b915050611b44565b505050919050565b60065481565b3073ffffffffffffffffffffffffffffffffffffffff163373ffffffffffffffffffffffffffffffffffffffff1614611c8f576040517f08c379a0000000000000000000000000000000000000000000000000000000008152600401611c869061381b565b60405180910390fd5b6004805490508160328211158015611ca75750818111155b8015611cb4575060008114155b8015611cc1575060008214155b611d00576040517f08c379a0000000000000000000000000000000000000000000000000000000008152600401611cf7906138fb565b60405180910390fd5b826005819055507fa3f1ee9126a074d9326c682f561767f710e927faa811f7a99829d49dc421797a83604051611d36919061393b565b60405180910390a1505050565b33600360008273ffffffffffffffffffffffffffffffffffffffff1673ffffffffffffffffffffffffffffffffffffffff16815260200190815260200160002060009054906101000a900460ff16611dd0576040517f08c379a0000000000000000000000000000000000000000000000000000000008152600401611dc7906138bb565b60405180910390fd5b81600073ffffffffffffffffffffffffffffffffffffffff166001600083815260200190815260200160002060000160009054906101000a900473ffffffffffffffffffffffffffffffffffffffff1673ffffffffffffffffffffffffffffffffffffffff161415611e77576040517f08c379a0000000000000000000000000000000000000000000000000000000008152600401611e6e9061383b565b60405180910390fd5b82336002600083815260200190815260200160002060008273ffffffffffffffffffffffffffffffffffffffff1673ffffffffffffffffffffffffffffffffffffffff16815260200190815260200160002060009054906101000a900460ff1615611f17576040517f08c379a0000000000000000000000000000000000000000000000000000000008152600401611f0e906137bb565b60405180910390fd5b60016002600087815260200190815260200160002060003373ffffffffffffffffffffffffffffffffffffffff1673ffffffffffffffffffffffffffffffffffffffff16815260200190815260200160002060006101000a81548160ff021916908315150217905550843373ffffffffffffffffffffffffffffffffffffffff167f4a504a94899432a9846e1aa406dceb1bcfd538bb839071d49d1e5e23f5be30ef60405160405180910390a35050505050565b6000611fd884848461299a565b9050611fe381611d43565b9392505050565b60005b81518110156120525761203f828281518110612032577f4e487b7100000000000000000000000000000000000000000000000000000000600052603260045260246000fd5b6020026020010151611d43565b808061204a90613cab565b915050611fed565b5050565b603281565b60055481565b3073ffffffffffffffffffffffffffffffffffffffff163373ffffffffffffffffffffffffffffffffffffffff16146120cf576040517f08c379a00000000000000000000000000000000000000000000000000000000081526004016120c69061381b565b60405180910390fd5b6001811015612113576040517f08c379a000000000000000000000000000000000000000000000000000000000815260040161210a9061379b565b60405180910390fd5b6213c680811115612159576040517f08c379a00000000000000000000000000000000000000000000000000000000081526004016121509061389b565b60405180910390fd5b806000819055507f948b1f6a42ee138b7e34058ba85a37f716d55ff25ff05a763f15bed6a04c8d2c600054604051612191919061393b565b60405180910390a150565b3073ffffffffffffffffffffffffffffffffffffffff163373ffffffffffffffffffffffffffffffffffffffff161461220a576040517f08c379a00000000000000000000000000000000000000000000000000000000081526004016122019061381b565b60405180910390fd5b81600360008273ffffffffffffffffffffffffffffffffffffffff1673ffffffffffffffffffffffffffffffffffffffff16815260200190815260200160002060009054906101000a900460ff16612297576040517f08c379a000000000000000000000000000000000000000000000000000000000815260040161228e906138bb565b60405180910390fd5b81600360008273ffffffffffffffffffffffffffffffffffffffff1673ffffffffffffffffffffffffffffffffffffffff16815260200190815260200160002060009054906101000a900460ff1615612325576040517f08c379a000000000000000000000000000000000000000000000000000000000815260040161231c906137fb565b60405180910390fd5b60005b600480549050811015612468578473ffffffffffffffffffffffffffffffffffffffff1660048281548110612386577f4e487b7100000000000000000000000000000000000000000000000000000000600052603260045260246000fd5b9060005260206000200160009054906101000a900473ffffffffffffffffffffffffffffffffffffffff1673ffffffffffffffffffffffffffffffffffffffff161415612455578360048281548110612408577f4e487b7100000000000000000000000000000000000000000000000000000000600052603260045260246000fd5b9060005260206000200160006101000a81548173ffffffffffffffffffffffffffffffffffffffff021916908373ffffffffffffffffffffffffffffffffffffffff160217905550612468565b808061246090613cab565b915050612328565b506000600360008673ffffffffffffffffffffffffffffffffffffffff1673ffffffffffffffffffffffffffffffffffffffff16815260200190815260200160002060006101000a81548160ff0219169083151502179055506001600360008573ffffffffffffffffffffffffffffffffffffffff1673ffffffffffffffffffffffffffffffffffffffff16815260200190815260200160002060006101000a81548160ff0219169083151502179055508373ffffffffffffffffffffffffffffffffffffffff167f8001553a916ef2f495d26a907cc54d96ed840d7bda71e73194bf5a9df7a76b9060405160405180910390a28273ffffffffffffffffffffffffffffffffffffffff167ff39e6e1eb0edcf53c221607b54b00cd28f3196fed0a24994dc308b8f611b682d60405160405180910390a250505050565b33600360008273ffffffffffffffffffffffffffffffffffffffff1673ffffffffffffffffffffffffffffffffffffffff16815260200190815260200160002060009054906101000a900460ff16612632576040517f08c379a0000000000000000000000000000000000000000000000000000000008152600401612629906138bb565b60405180910390fd5b81336002600083815260200190815260200160002060008273ffffffffffffffffffffffffffffffffffffffff1673ffffffffffffffffffffffffffffffffffffffff16815260200190815260200160002060009054906101000a900460ff166126d1576040517f08c379a00000000000000000000000000000000000000000000000000000000081526004016126c89061385b565b60405180910390fd5b836001600082815260200190815260200160002060030160009054906101000a900460ff1615612736576040517f08c379a000000000000000000000000000000000000000000000000000000000815260040161272d9061387b565b60405180910390fd5b600054600160008781526020019081526020016000206004015461275a9190613aad565b612762612b4f565b10156127a3576040517f08c379a000000000000000000000000000000000000000000000000000000000815260040161279a9061391b565b60405180910390fd5b6213c68060016000878152602001908152602001600020600401546127c89190613aad565b6127d0612b4f565b1115612811576040517f08c379a0000000000000000000000000000000000000000000000000000000008152600401612808906137db565b60405180910390fd5b61281a8561124d565b1561298b57600060016000878152602001908152602001600020905060018160030160006101000a81548160ff02191690831515021790555060008160000160009054906101000a900473ffffffffffffffffffffffffffffffffffffffff1673ffffffffffffffffffffffffffffffffffffffff168260010154836002016040516128a69190613646565b60006040518083038185875af1925050503d80600081146128e3576040519150601f19603f3d011682016040523d82523d6000602084013e6128e8565b606091505b50509050801561292457867f33e13ecb54c3076d8e8bb8c2881800a4d972b792045ffae98fdf46df365fed7560405160405180910390a2612988565b61292d87612b57565b60405160200161293d919061365d565b6040516020818303038152906040526040517f08c379a000000000000000000000000000000000000000000000000000000000815260040161297f9190613779565b60405180910390fd5b50505b5050505050565b630134647c81565b600083600073ffffffffffffffffffffffffffffffffffffffff168173ffffffffffffffffffffffffffffffffffffffff161415612a0d576040517f08c379a0000000000000000000000000000000000000000000000000000000008152600401612a04906138db565b60405180910390fd5b60065491506040518060a001604052808673ffffffffffffffffffffffffffffffffffffffff168152602001858152602001848152602001600015158152602001428152506001600084815260200190815260200160002060008201518160000160006101000a81548173ffffffffffffffffffffffffffffffffffffffff021916908373ffffffffffffffffffffffffffffffffffffffff160217905550602082015181600101556040820151816002019080519060200190612ad2929190612d16565b5060608201518160030160006101000a81548160ff02191690831515021790555060808201518160040155905050600160066000828254612b139190613aad565b92505081905550817fc0ba8fe4b176c1714197d43b9cc6bcf797a4a7461c5fe8d0ef6e184ae7601e5160405160405180910390a2509392505050565b600042905090565b60606000821415612b9f576040518060400160405280600181526020017f30000000000000000000000000000000000000000000000000000000000000008152509050612d11565b600082905060005b60008214612bd1578080612bba90613cab565b915050600a82612bca9190613b03565b9150612ba7565b60008167ffffffffffffffff811115612c13577f4e487b7100000000000000000000000000000000000000000000000000000000600052604160045260246000fd5b6040519080825280601f01601f191660200182016040528015612c455781602001600182028036833780820191505090505b5090506000600183612c579190613b34565b90508593505b60008414612d0957600a84612c729190613cf4565b6030612c7e9190613aad565b60f81b828280612c8d90613c1e565b935081518110612cc6577f4e487b7100000000000000000000000000000000000000000000000000000000600052603260045260246000fd5b60200101907effffffffffffffffffffffffffffffffffffffffffffffffffffffffffffff1916908160001a905350600a84612d029190613b03565b9350612c5d565b819450505050505b919050565b828054612d2290613c48565b90600052602060002090601f016020900481019282612d445760008555612d8b565b82601f10612d5d57805160ff1916838001178555612d8b565b82800160010185558215612d8b579182015b82811115612d8a578251825591602001919060010190612d6f565b5b509050612d989190612d9c565b5090565b5b80821115612db5576000816000905550600101612d9d565b5090565b6000612dcc612dc78461397b565b613956565b90508083825260208201905082856020860282011115612deb57600080fd5b60005b85811015612e1b5781612e018882612f2b565b845260208401935060208301925050600181019050612dee565b5050509392505050565b6000612e38612e33846139a7565b613956565b905082815260208101848484011115612e5057600080fd5b612e5b848285613bdc565b509392505050565b600081359050612e72816140cb565b92915050565b600082601f830112612e8957600080fd5b8135612e99848260208601612db9565b91505092915050565b600081359050612eb1816140e2565b92915050565b60008083601f840112612ec957600080fd5b8235905067ffffffffffffffff811115612ee257600080fd5b602083019150836001820283011115612efa57600080fd5b9250929050565b600082601f830112612f1257600080fd5b8135612f22848260208601612e25565b91505092915050565b600081359050612f3a816140f9565b92915050565b600060208284031215612f5257600080fd5b6000612f6084828501612e63565b91505092915050565b60008060408385031215612f7c57600080fd5b6000612f8a85828601612e63565b9250506020612f9b85828601612e63565b9150509250929050565b600080600080600060808688031215612fbd57600080fd5b6000612fcb88828901612e63565b9550506020612fdc88828901612e63565b9450506040612fed88828901612f2b565b935050606086013567ffffffffffffffff81111561300a57600080fd5b61301688828901612eb7565b92509250509295509295909350565b60008060006060848603121561303a57600080fd5b600061304886828701612e63565b935050602061305986828701612f2b565b925050604084013567ffffffffffffffff81111561307657600080fd5b61308286828701612f01565b9150509250925092565b60006020828403121561309e57600080fd5b600082013567ffffffffffffffff8111156130b857600080fd5b6130c484828501612e78565b91505092915050565b600080604083850312156130e057600080fd5b60006130ee85828601612ea2565b92505060206130ff85828601612ea2565b9150509250929050565b60006020828403121561311b57600080fd5b600061312984828501612f2b565b91505092915050565b6000806040838503121561314557600080fd5b600061315385828601612f2b565b925050602061316485828601612e63565b9150509250929050565b6000806000806080858703121561318457600080fd5b600061319287828801612f2b565b94505060206131a387828801612f2b565b93505060406131b487828801612ea2565b92505060606131c587828801612ea2565b91505092959194509250565b60006131dd8383613201565b60208301905092915050565b60006131f58383613628565b60208301905092915050565b61320a81613b68565b82525050565b61321981613b68565b82525050565b600061322a82613a0d565b6132348185613a53565b935061323f836139d8565b8060005b8381101561327057815161325788826131d1565b975061326283613a39565b925050600181019050613243565b5085935050505092915050565b600061328882613a18565b6132928185613a64565b935061329d836139e8565b8060005b838110156132ce5781516132b588826131e9565b97506132c083613a46565b9250506001810190506132a1565b5085935050505092915050565b6132e481613b7a565b82525050565b6132f381613b86565b82525050565b600061330482613a23565b61330e8185613a75565b935061331e818560208601613beb565b61332781613de1565b840191505092915050565b6000815461333f81613c48565b6133498186613a86565b945060018216600081146133645760018114613375576133a8565b60ff198316865281860193506133a8565b61337e856139f8565b60005b838110156133a057815481890152600182019150602081019050613381565b838801955050505b50505092915050565b60006133bc82613a2e565b6133c68185613a91565b93506133d6818560208601613beb565b6133df81613de1565b840191505092915050565b60006133f582613a2e565b6133ff8185613aa2565b935061340f818560208601613beb565b80840191505092915050565b6000613428602083613a91565b915061343382613df2565b602082019050919050565b600061344b601183613a91565b915061345682613e1b565b602082019050919050565b600061346e604083613a91565b915061347982613e44565b604082019050919050565b6000613491601083613a91565b915061349c82613e93565b602082019050919050565b60006134b4601283613aa2565b91506134bf82613ebc565b601282019050919050565b60006134d7601b83613a91565b91506134e282613ee5565b602082019050919050565b60006134fa601b83613a91565b915061350582613f0e565b602082019050919050565b600061351d601083613a91565b915061352882613f37565b602082019050919050565b6000613540600883613aa2565b915061354b82613f60565b600882019050919050565b6000613563601083613a91565b915061356e82613f89565b602082019050919050565b6000613586602483613a91565b915061359182613fb2565b604082019050919050565b60006135a9600c83613a91565b91506135b482614001565b602082019050919050565b60006135cc601683613a91565b91506135d78261402a565b602082019050919050565b60006135ef601983613a91565b91506135fa82614053565b602082019050919050565b6000613612603f83613a91565b915061361d8261407c565b604082019050919050565b61363181613bd2565b82525050565b61364081613bd2565b82525050565b60006136528284613332565b915081905092915050565b6000613668826134a7565b915061367482846133ea565b915061367f82613533565b915081905092915050565b600060208201905061369f6000830184613210565b92915050565b600060a0820190506136ba6000830188613210565b6136c76020830187613637565b81810360408301526136d981866132f9565b90506136e860608301856132db565b6136f56080830184613637565b9695505050505050565b60006020820190508181036000830152613719818461321f565b905092915050565b6000602082019050818103600083015261373b818461327d565b905092915050565b600060208201905061375860008301846132db565b92915050565b600060208201905061377360008301846132ea565b92915050565b6000602082019050818103600083015261379381846133b1565b905092915050565b600060208201905081810360008301526137b48161341b565b9050919050565b600060208201905081810360008301526137d48161343e565b9050919050565b600060208201905081810360008301526137f481613461565b9050919050565b6000602082019050818103600083015261381481613484565b9050919050565b60006020820190508181036000830152613834816134ca565b9050919050565b60006020820190508181036000830152613854816134ed565b9050919050565b6000602082019050818103600083015261387481613510565b9050919050565b6000602082019050818103600083015261389481613556565b9050919050565b600060208201905081810360008301526138b481613579565b9050919050565b600060208201905081810360008301526138d48161359c565b9050919050565b600060208201905081810360008301526138f4816135bf565b9050919050565b60006020820190508181036000830152613914816135e2565b9050919050565b6000602082019050818103600083015261393481613605565b9050919050565b60006020820190506139506000830184613637565b92915050565b6000613960613971565b905061396c8282613c7a565b919050565b6000604051905090565b600067ffffffffffffffff82111561399657613995613db2565b5b602082029050602081019050919050565b600067ffffffffffffffff8211156139c2576139c1613db2565b5b6139cb82613de1565b9050602081019050919050565b6000819050602082019050919050565b6000819050602082019050919050565b60008190508160005260206000209050919050565b600081519050919050565b600081519050919050565b600081519050919050565b600081519050919050565b6000602082019050919050565b6000602082019050919050565b600082825260208201905092915050565b600082825260208201905092915050565b600082825260208201905092915050565b600081905092915050565b600082825260208201905092915050565b600081905092915050565b6000613ab882613bd2565b9150613ac383613bd2565b9250827fffffffffffffffffffffffffffffffffffffffffffffffffffffffffffffffff03821115613af857613af7613d25565b5b828201905092915050565b6000613b0e82613bd2565b9150613b1983613bd2565b925082613b2957613b28613d54565b5b828204905092915050565b6000613b3f82613bd2565b9150613b4a83613bd2565b925082821015613b5d57613b5c613d25565b5b828203905092915050565b6000613b7382613bb2565b9050919050565b60008115159050919050565b60007fffffffff0000000000000000000000000000000000000000000000000000000082169050919050565b600073ffffffffffffffffffffffffffffffffffffffff82169050919050565b6000819050919050565b82818337600083830152505050565b60005b83811015613c09578082015181840152602081019050613bee565b83811115613c18576000848401525b50505050565b6000613c2982613bd2565b91506000821415613c3d57613c3c613d25565b5b600182039050919050565b60006002820490506001821680613c6057607f821691505b60208210811415613c7457613c73613d83565b5b50919050565b613c8382613de1565b810181811067ffffffffffffffff82111715613ca257613ca1613db2565b5b80604052505050565b6000613cb682613bd2565b91507fffffffffffffffffffffffffffffffffffffffffffffffffffffffffffffffff821415613ce957613ce8613d25565b5b600182019050919050565b6000613cff82613bd2565b9150613d0a83613bd2565b925082613d1a57613d19613d54565b5b828206905092915050565b7f4e487b7100000000000000000000000000000000000000000000000000000000600052601160045260246000fd5b7f4e487b7100000000000000000000000000000000000000000000000000000000600052601260045260246000fd5b7f4e487b7100000000000000000000000000000000000000000000000000000000600052602260045260246000fd5b7f4e487b7100000000000000000000000000000000000000000000000000000000600052604160045260246000fd5b6000601f19601f8301169050919050565b7f44656c6179206d75737420657863656564206d696e696d756d2064656c61792e600082015250565b7f616c726561647920636f6e6669726d6564000000000000000000000000000000600082015250565b7f546865206d6178696d756d20657865637574696f6e2074696d6520686173206260008201527f65656e2065786365656465642c20756e61626c6520746f206578656375746521602082015250565b7f697320616c7265616479206f776e657200000000000000000000000000000000600082015250565b7f546865207472616e73616374696f6e4964200000000000000000000000000000600082015250565b7f6d73672e73656e64657220213d20616464726573732874686973290000000000600082015250565b7f7472616e73616374696f6e4964206973206e6f74206578697374730000000000600082015250565b7f6973206e6f7420636f6e6669726d656400000000000000000000000000000000600082015250565b7f206661696c65642e000000000000000000000000000000000000000000000000600082015250565b7f616c726561647920657865637574656400000000000000000000000000000000600082015250565b7f44656c6179206d757374206e6f7420657863656564206d6178696d756d20646560008201527f6c61792e00000000000000000000000000000000000000000000000000000000602082015250565b7f6973206e6f74206f776e65720000000000000000000000000000000000000000600082015250565b7f5f61646472657373203d3d206164647265737328302900000000000000000000600082015250565b7f6572726f723a2076616c6964526571756972656d656e74282900000000000000600082015250565b7f5468652074696d65206973206e6f742075702c2074686520636f6d6d616e642060008201527f63616e6e6f742062652065786563757465642074656d706f726172696c792100602082015250565b6140d481613b68565b81146140df57600080fd5b50565b6140eb81613b7a565b81146140f657600080fd5b50565b61410281613bd2565b811461410d57600080fd5b5056fea264697066735822122041b8929084848398ef24940e18f2ee5106f59e8d02ad4d18bbb16bd2660ad84064736f6c63430008040033",
  "linkReferences": {},
  "deployedLinkReferences": {}
}