{
  "_format": "hh-sol-artifact-1",
  "contractName": "MiddleWare",
  "sourceName": "contracts/Double/MiddleWare.sol",
  "abi": [
    {
      "inputs": [
        {
          "internalType": "address[]",
          "name": "doNftAddressArray",
          "type": "address[]"
        },
        {
          "internalType": "uint256[]",
          "name": "oNftIdArray",
          "type": "uint256[]"
        }
      ],
      "name": "batchGetDoNftIdByONftId",
      "outputs": [
        {
          "internalType": "uint256[]",
          "name": "doNftIdArray",
          "type": "uint256[]"
        }
      ],
      "stateMutability": "view",
      "type": "function"
    },
    {
      "inputs": [
        {
          "internalType": "address",
          "name": "owner",
          "type": "address"
        },
        {
          "internalType": "address",
          "name": "operator",
          "type": "address"
        },
        {
          "internalType": "address[]",
          "name": "erc721Array",
          "type": "address[]"
        }
      ],
      "name": "batchIsApprovedForAll",
      "outputs": [
        {
          "internalType": "bool[]",
          "name": "results",
          "type": "bool[]"
        }
      ],
      "stateMutability": "view",
      "type": "function"
    },
    {
      "inputs": [
        {
          "internalType": "address",
          "name": "nftAddr",
          "type": "address"
        },
        {
          "internalType": "uint256",
          "name": "nftId",
          "type": "uint256"
        },
        {
          "internalType": "address",
          "name": "marketAddr",
          "type": "address"
        }
      ],
      "name": "getDoNftMarketInfo",
      "outputs": [
        {
          "components": [
            {
              "internalType": "uint256",
              "name": "originalNftId",
              "type": "uint256"
            },
            {
              "internalType": "uint128",
              "name": "orderPricePerDay",
              "type": "uint128"
            },
            {
              "internalType": "uint64",
              "name": "startTime",
              "type": "uint64"
            },
            {
              "internalType": "uint64",
              "name": "endTime",
              "type": "uint64"
            },
            {
              "internalType": "uint32",
              "name": "orderCreateTime",
              "type": "uint32"
            },
            {
              "internalType": "uint32",
              "name": "orderMinDuration",
              "type": "uint32"
            },
            {
              "internalType": "uint32",
              "name": "orderMaxEndTime",
              "type": "uint32"
            },
            {
              "internalType": "uint32",
              "name": "orderFee",
              "type": "uint32"
            },
            {
              "internalType": "uint8",
              "name": "orderType",
              "type": "uint8"
            },
            {
              "internalType": "bool",
              "name": "orderIsValid",
              "type": "bool"
            },
            {
              "internalType": "address",
              "name": "originalNftAddress",
              "type": "address"
            },
            {
              "internalType": "address",
              "name": "owner",
              "type": "address"
            },
            {
              "internalType": "address",
              "name": "user",
              "type": "address"
            },
            {
              "internalType": "address",
              "name": "orderPrivateRenter",
              "type": "address"
            },
            {
              "internalType": "address",
              "name": "orderPaymentToken",
              "type": "address"
            }
          ],
          "internalType": "struct MiddleWare.DoNftMarketInfo",
          "name": "doNftInfo",
          "type": "tuple"
        }
      ],
      "stateMutability": "view",
      "type": "function"
    },
    {
      "inputs": [
        {
          "internalType": "address",
          "name": "nftAddr",
          "type": "address"
        },
        {
          "internalType": "uint256",
          "name": "nftId",
          "type": "uint256"
        }
      ],
      "name": "getNftOwner",
      "outputs": [
        {
          "internalType": "address",
          "name": "owner",
          "type": "address"
        }
      ],
      "stateMutability": "view",
      "type": "function"
    },
    {
      "inputs": [
        {
          "internalType": "address",
          "name": "nftAddr",
          "type": "address"
        },
        {
          "internalType": "uint256",
          "name": "nftId",
          "type": "uint256"
        }
      ],
      "name": "getNftOwnerAndTokenURI",
      "outputs": [
        {
          "internalType": "address",
          "name": "owner",
          "type": "address"
        },
        {
          "internalType": "string",
          "name": "uri",
          "type": "string"
        }
      ],
      "stateMutability": "view",
      "type": "function"
    },
    {
      "inputs": [
        {
          "internalType": "address",
          "name": "originalNftAddr",
          "type": "address"
        },
        {
          "internalType": "uint256",
          "name": "orginalNftId",
          "type": "uint256"
        },
        {
          "internalType": "address",
          "name": "doNftAddr",
          "type": "address"
        }
      ],
      "name": "getNftOwnerAndUser",
      "outputs": [
        {
          "internalType": "address",
          "name": "owner",
          "type": "address"
        },
        {
          "internalType": "address",
          "name": "user",
          "type": "address"
        }
      ],
      "stateMutability": "view",
      "type": "function"
    }
  ],
  "bytecode": "0x608060405234801561001057600080fd5b5061235b806100206000396000f3fe608060405234801561001057600080fd5b50600436106100625760003560e01c80634614d6af1461006757806350446136146100975780636a499bb4146100c7578063859c0e39146100f75780638709afd914610128578063c3f8794f14610158575b600080fd5b610081600480360381019061007c919061180c565b610189565b60405161008e9190611ebe565b60405180910390f35b6100b160048036038101906100ac9190611878565b61034c565b6040516100be9190611e21565b60405180910390f35b6100e160048036038101906100dc91906118b4565b6103e9565b6040516100ee9190611f22565b60405180910390f35b610111600480360381019061010c91906118b4565b610dec565b60405161011f929190611e3c565b60405180910390f35b610142600480360381019061013d9190611903565b610f23565b60405161014f9190611ee0565b60405180910390f35b610172600480360381019061016d9190611878565b611165565b604051610180929190611e65565b60405180910390f35b60608282905067ffffffffffffffff8111156101ce577f4e487b7100000000000000000000000000000000000000000000000000000000600052604160045260246000fd5b6040519080825280602002602001820160405280156101fc5781602001602082028036833780820191505090505b50905060005b8383905081101561034357838382818110610246577f4e487b7100000000000000000000000000000000000000000000000000000000600052603260045260246000fd5b905060200201602081019061025b91906117ba565b73ffffffffffffffffffffffffffffffffffffffff1663e985e9c587876040518363ffffffff1660e01b8152600401610295929190611e3c565b60206040518083038186803b1580156102ad57600080fd5b505afa1580156102c1573d6000803e3d6000fd5b505050506040513d601f19601f820116820180604052508101906102e59190611978565b82828151811061031e577f4e487b7100000000000000000000000000000000000000000000000000000000600052603260045260246000fd5b602002602001019015159081151581525050808061033b906121c8565b915050610202565b50949350505050565b6000808390508073ffffffffffffffffffffffffffffffffffffffff16636352211e846040518263ffffffff1660e01b815260040161038b9190611f3e565b60206040518083038186803b1580156103a357600080fd5b505afa9250505080156103d457506040513d601f19601f820116820180604052508101906103d191906117e3565b60015b6103dd576103e2565b809250505b5092915050565b6103f161129b565b600084905060008390508173ffffffffffffffffffffffffffffffffffffffff166325cb25b06040518163ffffffff1660e01b815260040160206040518083038186803b15801561044157600080fd5b505afa158015610455573d6000803e3d6000fd5b505050506040513d601f19601f8201168201806040525081019061047991906117e3565b83610140019073ffffffffffffffffffffffffffffffffffffffff16908173ffffffffffffffffffffffffffffffffffffffff16815250508173ffffffffffffffffffffffffffffffffffffffff1663820bdcdc6040518163ffffffff1660e01b815260040160206040518083038186803b1580156104f757600080fd5b505afa15801561050b573d6000803e3d6000fd5b505050506040513d601f19601f8201168201806040525081019061052f9190611a35565b8173ffffffffffffffffffffffffffffffffffffffff1663ced72f876040518163ffffffff1660e01b815260040160206040518083038186803b15801561057557600080fd5b505afa158015610589573d6000803e3d6000fd5b505050506040513d601f19601f820116820180604052508101906105ad9190611a35565b6105b79190612095565b8360e0019063ffffffff16908163ffffffff16815250508173ffffffffffffffffffffffffffffffffffffffff16634f558e79866040518263ffffffff1660e01b81526004016106079190611f3e565b60206040518083038186803b15801561061f57600080fd5b505afa158015610633573d6000803e3d6000fd5b505050506040513d601f19601f820116820180604052508101906106579190611978565b15610de35760008060008473ffffffffffffffffffffffffffffffffffffffff166352332ed8896040518263ffffffff1660e01b815260040161069a9190611f3e565b60006040518083038186803b1580156106b257600080fd5b505afa1580156106c6573d6000803e3d6000fd5b505050506040513d6000823e3d601f19601f820116820180604052508101906106ef9190611a5e565b50935093505092508473ffffffffffffffffffffffffffffffffffffffff16636352211e896040518263ffffffff1660e01b81526004016107309190611f3e565b60206040518083038186803b15801561074857600080fd5b505afa15801561075c573d6000803e3d6000fd5b505050506040513d601f19601f8201168201806040525081019061078091906117e3565b86610160019073ffffffffffffffffffffffffffffffffffffffff16908173ffffffffffffffffffffffffffffffffffffffff1681525050828660000181815250508473ffffffffffffffffffffffffffffffffffffffff1663b0467deb846040518263ffffffff1660e01b81526004016107fb9190611f3e565b60206040518083038186803b15801561081357600080fd5b505afa158015610827573d6000803e3d6000fd5b505050506040513d601f19601f8201168201806040525081019061084b91906117e3565b86610180019073ffffffffffffffffffffffffffffffffffffffff16908173ffffffffffffffffffffffffffffffffffffffff1681525050816000815181106108bd577f4e487b7100000000000000000000000000000000000000000000000000000000600052603260045260246000fd5b6020026020010151866040019067ffffffffffffffff16908167ffffffffffffffff16815250508060008151811061091e577f4e487b7100000000000000000000000000000000000000000000000000000000600052603260045260246000fd5b6020026020010151866060019067ffffffffffffffff16908167ffffffffffffffff16815250508373ffffffffffffffffffffffffffffffffffffffff1663a18087fd8a8a6040518363ffffffff1660e01b8152600401610980929190611e95565b60206040518083038186803b15801561099857600080fd5b505afa1580156109ac573d6000803e3d6000fd5b505050506040513d601f19601f820116820180604052508101906109d09190611978565b8661012001901515908115158152505085610120015115610ddf5760008473ffffffffffffffffffffffffffffffffffffffff1663430e70508b8b6040518363ffffffff1660e01b8152600401610a28929190611e95565b6101206040518083038186803b158015610a4157600080fd5b505afa158015610a55573d6000803e3d6000fd5b505050506040513d601f19601f82011682018060405250810190610a7991906119e2565b905060008573ffffffffffffffffffffffffffffffffffffffff1663257254758c8c6040518363ffffffff1660e01b8152600401610ab8929190611e95565b604080518083038186803b158015610acf57600080fd5b505afa158015610ae3573d6000803e3d6000fd5b505050506040513d601f19601f82011682018060405250810190610b079190611a0c565b905060016002811115610b43577f4e487b7100000000000000000000000000000000000000000000000000000000600052602160045260246000fd5b8260e001516002811115610b80577f4e487b7100000000000000000000000000000000000000000000000000000000600052602160045260246000fd5b1480610bff5750600280811115610bc0577f4e487b7100000000000000000000000000000000000000000000000000000000600052602160045260246000fd5b8260e001516002811115610bfd577f4e487b7100000000000000000000000000000000000000000000000000000000600052602160045260246000fd5b145b15610cc8578573ffffffffffffffffffffffffffffffffffffffff166394bdb4428c8c6040518363ffffffff1660e01b8152600401610c3f929190611e95565b60206040518083038186803b158015610c5757600080fd5b505afa158015610c6b573d6000803e3d6000fd5b505050506040513d601f19601f82011682018060405250810190610c8f91906117e3565b886101a0019073ffffffffffffffffffffffffffffffffffffffff16908173ffffffffffffffffffffffffffffffffffffffff16815250505b8160e001516002811115610d05577f4e487b7100000000000000000000000000000000000000000000000000000000600052602160045260246000fd5b88610100019060ff16908160ff168152505081608001518860a0019063ffffffff16908163ffffffff168152505081606001518860c0019063ffffffff16908163ffffffff16815250508160a00151886080019063ffffffff16908163ffffffff1681525050806020015188602001906fffffffffffffffffffffffffffffffff1690816fffffffffffffffffffffffffffffffff16815250508060000151886101c0019073ffffffffffffffffffffffffffffffffffffffff16908173ffffffffffffffffffffffffffffffffffffffff168152505050505b5050505b50509392505050565b600080600083905060008690508073ffffffffffffffffffffffffffffffffffffffff16636352211e876040518263ffffffff1660e01b8152600401610e329190611f3e565b60206040518083038186803b158015610e4a57600080fd5b505afa925050508015610e7b57506040513d601f19601f82011682018060405250810190610e7891906117e3565b60015b610e8457610e89565b809450505b8173ffffffffffffffffffffffffffffffffffffffff1663b0467deb876040518263ffffffff1660e01b8152600401610ec29190611f3e565b60206040518083038186803b158015610eda57600080fd5b505afa925050508015610f0b57506040513d601f19601f82011682018060405250810190610f0891906117e3565b60015b610f1457610f19565b809350505b5050935093915050565b6060828290508585905014610f6d576040517f08c379a0000000000000000000000000000000000000000000000000000000008152600401610f6490611f02565b60405180910390fd5b8484905067ffffffffffffffff811115610fb0577f4e487b7100000000000000000000000000000000000000000000000000000000600052604160045260246000fd5b604051908082528060200260200182016040528015610fde5781602001602082028036833780820191505090505b50905060005b8585905081101561115c57858582818110611028577f4e487b7100000000000000000000000000000000000000000000000000000000600052603260045260246000fd5b905060200201602081019061103d91906117ba565b73ffffffffffffffffffffffffffffffffffffffff16633ed189cf858584818110611091577f4e487b7100000000000000000000000000000000000000000000000000000000600052603260045260246000fd5b905060200201356040518263ffffffff1660e01b81526004016110b49190611f3e565b60206040518083038186803b1580156110cc57600080fd5b505afa1580156110e0573d6000803e3d6000fd5b505050506040513d601f19601f820116820180604052508101906111049190611a35565b82828151811061113d577f4e487b7100000000000000000000000000000000000000000000000000000000600052603260045260246000fd5b6020026020010181815250508080611154906121c8565b915050610fe4565b50949350505050565b6000606060008490508073ffffffffffffffffffffffffffffffffffffffff16636352211e856040518263ffffffff1660e01b81526004016111a79190611f3e565b60206040518083038186803b1580156111bf57600080fd5b505afa9250505080156111f057506040513d601f19601f820116820180604052508101906111ed91906117e3565b60015b6111f9576111fe565b809350505b8073ffffffffffffffffffffffffffffffffffffffff1663c87b56dd856040518263ffffffff1660e01b81526004016112379190611f3e565b60006040518083038186803b15801561124f57600080fd5b505afa92505050801561128557506040513d6000823e3d601f19601f8201168201806040525081019061128291906119a1565b60015b61128e57611293565b809250505b509250929050565b604051806101e001604052806000815260200160006fffffffffffffffffffffffffffffffff168152602001600067ffffffffffffffff168152602001600067ffffffffffffffff168152602001600063ffffffff168152602001600063ffffffff168152602001600063ffffffff168152602001600063ffffffff168152602001600060ff168152602001600015158152602001600073ffffffffffffffffffffffffffffffffffffffff168152602001600073ffffffffffffffffffffffffffffffffffffffff168152602001600073ffffffffffffffffffffffffffffffffffffffff168152602001600073ffffffffffffffffffffffffffffffffffffffff168152602001600073ffffffffffffffffffffffffffffffffffffffff1681525090565b60006113d56113d084611f7e565b611f59565b905080838252602082019050828560208602820111156113f457600080fd5b60005b85811015611424578161140a8882611790565b8452602084019350602083019250506001810190506113f7565b5050509392505050565b600061144161143c84611faa565b611f59565b9050808382526020820190508285602086028201111561146057600080fd5b60005b85811015611490578161147688826117a5565b845260208401935060208301925050600181019050611463565b5050509392505050565b60006114ad6114a884611fd6565b611f59565b9050828152602081018484840111156114c557600080fd5b6114d0848285612164565b509392505050565b6000813590506114e7816122a9565b92915050565b6000815190506114fc816122a9565b92915050565b60008083601f84011261151457600080fd5b8235905067ffffffffffffffff81111561152d57600080fd5b60208301915083602082028301111561154557600080fd5b9250929050565b60008083601f84011261155e57600080fd5b8235905067ffffffffffffffff81111561157757600080fd5b60208301915083602082028301111561158f57600080fd5b9250929050565b600082601f8301126115a757600080fd5b81516115b78482602086016113c2565b91505092915050565b600082601f8301126115d157600080fd5b81516115e184826020860161142e565b91505092915050565b6000815190506115f9816122c0565b92915050565b60008151905061160e816122d7565b92915050565b600081519050611623816122e7565b92915050565b600082601f83011261163a57600080fd5b815161164a84826020860161149a565b91505092915050565b6000610120828403121561166657600080fd5b611671610120611f59565b90506000611681848285016114ed565b6000830152506020611695848285016114ed565b60208301525060406116a984828501611790565b60408301525060606116bd848285016117a5565b60608301525060806116d1848285016117a5565b60808301525060a06116e5848285016117a5565b60a08301525060c06116f9848285016117a5565b60c08301525060e061170d848285016115ff565b60e08301525061010061172284828501611614565b6101008301525092915050565b60006040828403121561174157600080fd5b61174b6040611f59565b9050600061175b848285016114ed565b600083015250602061176f84828501611790565b60208301525092915050565b60008135905061178a816122f7565b92915050565b60008151905061179f816122f7565b92915050565b6000815190506117b48161230e565b92915050565b6000602082840312156117cc57600080fd5b60006117da848285016114d8565b91505092915050565b6000602082840312156117f557600080fd5b6000611803848285016114ed565b91505092915050565b6000806000806060858703121561182257600080fd5b6000611830878288016114d8565b9450506020611841878288016114d8565b935050604085013567ffffffffffffffff81111561185e57600080fd5b61186a87828801611502565b925092505092959194509250565b6000806040838503121561188b57600080fd5b6000611899858286016114d8565b92505060206118aa8582860161177b565b9150509250929050565b6000806000606084860312156118c957600080fd5b60006118d7868287016114d8565b93505060206118e88682870161177b565b92505060406118f9868287016114d8565b9150509250925092565b6000806000806040858703121561191957600080fd5b600085013567ffffffffffffffff81111561193357600080fd5b61193f87828801611502565b9450945050602085013567ffffffffffffffff81111561195e57600080fd5b61196a8782880161154c565b925092505092959194509250565b60006020828403121561198a57600080fd5b6000611998848285016115ea565b91505092915050565b6000602082840312156119b357600080fd5b600082015167ffffffffffffffff8111156119cd57600080fd5b6119d984828501611629565b91505092915050565b600061012082840312156119f557600080fd5b6000611a0384828501611653565b91505092915050565b600060408284031215611a1e57600080fd5b6000611a2c8482850161172f565b91505092915050565b600060208284031215611a4757600080fd5b6000611a5584828501611790565b91505092915050565b600080600080600060a08688031215611a7657600080fd5b6000611a8488828901611790565b955050602086015167ffffffffffffffff811115611aa157600080fd5b611aad88828901611596565b945050604086015167ffffffffffffffff811115611aca57600080fd5b611ad6888289016115c0565b935050606086015167ffffffffffffffff811115611af357600080fd5b611aff888289016115c0565b9250506080611b10888289016117a5565b9150509295509295909350565b6000611b298383611c27565b60208301905092915050565b6000611b418383611dd6565b60208301905092915050565b611b56816120cf565b82525050565b611b65816120cf565b82525050565b6000611b7682612027565b611b808185612062565b9350611b8b83612007565b8060005b83811015611bbc578151611ba38882611b1d565b9750611bae83612048565b925050600181019050611b8f565b5085935050505092915050565b6000611bd482612032565b611bde8185612073565b9350611be983612017565b8060005b83811015611c1a578151611c018882611b35565b9750611c0c83612055565b925050600181019050611bed565b5085935050505092915050565b611c30816120e1565b82525050565b6000611c418261203d565b611c4b8185612084565b9350611c5b818560208601612164565b611c648161226f565b840191505092915050565b6000611c7c601283612084565b9150611c8782612280565b602082019050919050565b6101e082016000820151611ca96000850182611dd6565b506020820151611cbc6020850182611dc7565b506040820151611ccf6040850182611e03565b506060820151611ce26060850182611e03565b506080820151611cf56080850182611df4565b5060a0820151611d0860a0850182611df4565b5060c0820151611d1b60c0850182611df4565b5060e0820151611d2e60e0850182611df4565b50610100820151611d43610100850182611e12565b50610120820151611d58610120850182611c27565b50610140820151611d6d610140850182611b4d565b50610160820151611d82610160850182611b4d565b50610180820151611d97610180850182611b4d565b506101a0820151611dac6101a0850182611b4d565b506101c0820151611dc16101c0850182611b4d565b50505050565b611dd0816120ed565b82525050565b611ddf81612129565b82525050565b611dee81612129565b82525050565b611dfd81612133565b82525050565b611e0c81612143565b82525050565b611e1b81612157565b82525050565b6000602082019050611e366000830184611b5c565b92915050565b6000604082019050611e516000830185611b5c565b611e5e6020830184611b5c565b9392505050565b6000604082019050611e7a6000830185611b5c565b8181036020830152611e8c8184611c36565b90509392505050565b6000604082019050611eaa6000830185611b5c565b611eb76020830184611de5565b9392505050565b60006020820190508181036000830152611ed88184611b6b565b905092915050565b60006020820190508181036000830152611efa8184611bc9565b905092915050565b60006020820190508181036000830152611f1b81611c6f565b9050919050565b60006101e082019050611f386000830184611c92565b92915050565b6000602082019050611f536000830184611de5565b92915050565b6000611f63611f74565b9050611f6f8282612197565b919050565b6000604051905090565b600067ffffffffffffffff821115611f9957611f98612240565b5b602082029050602081019050919050565b600067ffffffffffffffff821115611fc557611fc4612240565b5b602082029050602081019050919050565b600067ffffffffffffffff821115611ff157611ff0612240565b5b611ffa8261226f565b9050602081019050919050565b6000819050602082019050919050565b6000819050602082019050919050565b600081519050919050565b600081519050919050565b600081519050919050565b6000602082019050919050565b6000602082019050919050565b600082825260208201905092915050565b600082825260208201905092915050565b600082825260208201905092915050565b60006120a082612133565b91506120ab83612133565b92508263ffffffff038211156120c4576120c3612211565b5b828201905092915050565b60006120da82612109565b9050919050565b60008115159050919050565b60006fffffffffffffffffffffffffffffffff82169050919050565b600073ffffffffffffffffffffffffffffffffffffffff82169050919050565b6000819050919050565b600063ffffffff82169050919050565b600067ffffffffffffffff82169050919050565b600060ff82169050919050565b60005b83811015612182578082015181840152602081019050612167565b83811115612191576000848401525b50505050565b6121a08261226f565b810181811067ffffffffffffffff821117156121bf576121be612240565b5b80604052505050565b60006121d382612129565b91507fffffffffffffffffffffffffffffffffffffffffffffffffffffffffffffffff82141561220657612205612211565b5b600182019050919050565b7f4e487b7100000000000000000000000000000000000000000000000000000000600052601160045260246000fd5b7f4e487b7100000000000000000000000000000000000000000000000000000000600052604160045260246000fd5b6000601f19601f8301169050919050565b7f696e76616c696420696e70757420646174610000000000000000000000000000600082015250565b6122b2816120cf565b81146122bd57600080fd5b50565b6122c9816120e1565b81146122d457600080fd5b50565b600381106122e457600080fd5b50565b600181106122f457600080fd5b50565b61230081612129565b811461230b57600080fd5b50565b61231781612143565b811461232257600080fd5b5056fea264697066735822122083e5db6c5bba374d50a700e1ffe0cd27d5dc3a163a23f80613e56c72c211d19464736f6c63430008040033",
  "linkReferences": {},
  "deployedLinkReferences": {}
}