{
  "_format": "hh-sol-artifact-1",
  "contractName": "Royalty",
  "sourceName": "contracts/Double/royalty/Royalty.sol",
  "abi": [
    {
      "anonymous": false,
      "inputs": [
        {
          "indexed": false,
          "internalType": "address",
          "name": "operator",
          "type": "address"
        }
      ],
      "name": "ClaimRoyaltyAdmin",
      "type": "event"
    },
    {
      "anonymous": false,
      "inputs": [
        {
          "indexed": false,
          "internalType": "address",
          "name": "operator",
          "type": "address"
        },
        {
          "indexed": false,
          "internalType": "uint256",
          "name": "balance",
          "type": "uint256"
        }
      ],
      "name": "ClaimRoyaltyBalance",
      "type": "event"
    },
    {
      "anonymous": false,
      "inputs": [
        {
          "indexed": false,
          "internalType": "address",
          "name": "operator",
          "type": "address"
        },
        {
          "indexed": false,
          "internalType": "address",
          "name": "beneficiary",
          "type": "address"
        }
      ],
      "name": "SetBeneficiary",
      "type": "event"
    },
    {
      "anonymous": false,
      "inputs": [
        {
          "indexed": false,
          "internalType": "address",
          "name": "operator",
          "type": "address"
        },
        {
          "indexed": false,
          "internalType": "uint256",
          "name": "fee",
          "type": "uint256"
        }
      ],
      "name": "SetRoyaltyFee",
      "type": "event"
    },
    {
      "inputs": [],
      "name": "claimRoyaltyAdmin",
      "outputs": [],
      "stateMutability": "nonpayable",
      "type": "function"
    },
    {
      "inputs": [],
      "name": "getBeneficiary",
      "outputs": [
        {
          "internalType": "address payable",
          "name": "",
          "type": "address"
        }
      ],
      "stateMutability": "view",
      "type": "function"
    },
    {
      "inputs": [],
      "name": "getRoyaltyFee",
      "outputs": [
        {
          "internalType": "uint256",
          "name": "",
          "type": "uint256"
        }
      ],
      "stateMutability": "view",
      "type": "function"
    },
    {
      "inputs": [],
      "name": "royaltyAdmin",
      "outputs": [
        {
          "internalType": "address",
          "name": "",
          "type": "address"
        }
      ],
      "stateMutability": "view",
      "type": "function"
    },
    {
      "inputs": [
        {
          "internalType": "address payable",
          "name": "beneficiary_",
          "type": "address"
        }
      ],
      "name": "setBeneficiary",
      "outputs": [],
      "stateMutability": "nonpayable",
      "type": "function"
    },
    {
      "inputs": [
        {
          "internalType": "uint256",
          "name": "fee_",
          "type": "uint256"
        }
      ],
      "name": "setRoyaltyFee",
      "outputs": [],
      "stateMutability": "nonpayable",
      "type": "function"
    },
    {
      "inputs": [
        {
          "internalType": "address",
          "name": "tempAdmin_",
          "type": "address"
        }
      ],
      "name": "setTempRoyaltyAdmin",
      "outputs": [],
      "stateMutability": "nonpayable",
      "type": "function"
    },
    {
      "inputs": [],
      "name": "tempRoyaltyAdmin",
      "outputs": [
        {
          "internalType": "address",
          "name": "",
          "type": "address"
        }
      ],
      "stateMutability": "view",
      "type": "function"
    }
  ],
  "bytecode": "0x608060405234801561001057600080fd5b50610bee806100206000396000f3fe608060405234801561001057600080fd5b50600436106100885760003560e01c80636ece56b31161005b5780636ece56b3146100ed578063820bdcdc1461010b578063894e851f14610129578063c72437261461014757610088565b80631c31f7101461008d5780631f1aea3a146100a95780633e4086e5146100b3578063565a2e2c146100cf575b600080fd5b6100a760048036038101906100a291906107fd565b610163565b005b6100b1610326565b005b6100cd60048036038101906100c89190610826565b610494565b005b6100d76105ae565b6040516100e49190610932565b60405180910390f35b6100f56105d8565b6040516101029190610917565b60405180910390f35b6101136105fe565b6040516101209190610a1f565b60405180910390f35b610131610607565b60405161013e9190610917565b60405180910390f35b610161600480360381019061015c91906107d4565b61062d565b005b600260009054906101000a900473ffffffffffffffffffffffffffffffffffffffff1673ffffffffffffffffffffffffffffffffffffffff163373ffffffffffffffffffffffffffffffffffffffff16146101f3576040517f08c379a00000000000000000000000000000000000000000000000000000000081526004016101ea9061099f565b60405180910390fd5b600073ffffffffffffffffffffffffffffffffffffffff168173ffffffffffffffffffffffffffffffffffffffff161415801561027e5750600160009054906101000a900473ffffffffffffffffffffffffffffffffffffffff1673ffffffffffffffffffffffffffffffffffffffff168173ffffffffffffffffffffffffffffffffffffffff1614155b61028757600080fd5b80600160006101000a81548173ffffffffffffffffffffffffffffffffffffffff021916908373ffffffffffffffffffffffffffffffffffffffff1602179055507f8a0149b2f3ddf2c9ee85738165131d82babbb938f749321d59f75750afa7f4e633600160009054906101000a900473ffffffffffffffffffffffffffffffffffffffff1660405161031b92919061094d565b60405180910390a150565b600360009054906101000a900473ffffffffffffffffffffffffffffffffffffffff1673ffffffffffffffffffffffffffffffffffffffff163373ffffffffffffffffffffffffffffffffffffffff16146103b6576040517f08c379a00000000000000000000000000000000000000000000000000000000081526004016103ad906109bf565b60405180910390fd5b600360009054906101000a900473ffffffffffffffffffffffffffffffffffffffff16600260006101000a81548173ffffffffffffffffffffffffffffffffffffffff021916908373ffffffffffffffffffffffffffffffffffffffff1602179055506000600360006101000a81548173ffffffffffffffffffffffffffffffffffffffff021916908373ffffffffffffffffffffffffffffffffffffffff1602179055507f0314d3865404a6a594e66b7f1922326048dad3985f6fad5069fd4bc22e3fbdcd3360405161048a9190610917565b60405180910390a1565b600260009054906101000a900473ffffffffffffffffffffffffffffffffffffffff1673ffffffffffffffffffffffffffffffffffffffff163373ffffffffffffffffffffffffffffffffffffffff1614610524576040517f08c379a000000000000000000000000000000000000000000000000000000000815260040161051b9061099f565b60405180910390fd5b612710811115610569576040517f08c379a0000000000000000000000000000000000000000000000000000000008152600401610560906109ff565b60405180910390fd5b806000819055507f2c94a29baa8bee7919326700203e3124421ec6498cdc7be4868a1a76fb56b03e336000546040516105a3929190610976565b60405180910390a150565b6000600160009054906101000a900473ffffffffffffffffffffffffffffffffffffffff16905090565b600360009054906101000a900473ffffffffffffffffffffffffffffffffffffffff1681565b60008054905090565b600260009054906101000a900473ffffffffffffffffffffffffffffffffffffffff1681565b600260009054906101000a900473ffffffffffffffffffffffffffffffffffffffff1673ffffffffffffffffffffffffffffffffffffffff163373ffffffffffffffffffffffffffffffffffffffff16146106bd576040517f08c379a00000000000000000000000000000000000000000000000000000000081526004016106b4906109df565b60405180910390fd5b600073ffffffffffffffffffffffffffffffffffffffff168173ffffffffffffffffffffffffffffffffffffffff16141580156107485750600260009054906101000a900473ffffffffffffffffffffffffffffffffffffffff1673ffffffffffffffffffffffffffffffffffffffff168173ffffffffffffffffffffffffffffffffffffffff1614155b61075157600080fd5b80600360006101000a81548173ffffffffffffffffffffffffffffffffffffffff021916908373ffffffffffffffffffffffffffffffffffffffff16021790555050565b6000813590506107a481610b73565b92915050565b6000813590506107b981610b8a565b92915050565b6000813590506107ce81610ba1565b92915050565b6000602082840312156107e657600080fd5b60006107f484828501610795565b91505092915050565b60006020828403121561080f57600080fd5b600061081d848285016107aa565b91505092915050565b60006020828403121561083857600080fd5b6000610846848285016107bf565b91505092915050565b61085881610a99565b82525050565b61086781610a5d565b82525050565b61087681610a4b565b82525050565b6000610889600983610a3a565b915061089482610acf565b602082019050919050565b60006108ac601483610a3a565b91506108b782610af8565b602082019050919050565b60006108cf601083610a3a565b91506108da82610b21565b602082019050919050565b60006108f2601183610a3a565b91506108fd82610b4a565b602082019050919050565b61091181610a8f565b82525050565b600060208201905061092c600083018461086d565b92915050565b6000602082019050610947600083018461085e565b92915050565b6000604082019050610962600083018561086d565b61096f602083018461084f565b9392505050565b600060408201905061098b600083018561086d565b6109986020830184610908565b9392505050565b600060208201905081810360008301526109b88161087c565b9050919050565b600060208201905081810360008301526109d88161089f565b9050919050565b600060208201905081810360008301526109f8816108c2565b9050919050565b60006020820190508181036000830152610a18816108e5565b9050919050565b6000602082019050610a346000830184610908565b92915050565b600082825260208201905092915050565b6000610a5682610a6f565b9050919050565b6000610a6882610a6f565b9050919050565b600073ffffffffffffffffffffffffffffffffffffffff82169050919050565b6000819050919050565b6000610aa482610aab565b9050919050565b6000610ab682610abd565b9050919050565b6000610ac882610a6f565b9050919050565b7f6f6e6c7941646d696e0000000000000000000000000000000000000000000000600082015250565b7f6e6f742074656d70526f79616c747941646d696e000000000000000000000000600082015250565b7f6e6f7420726f79616c747941646d696e00000000000000000000000000000000600082015250565b7f6665652065786365656473203130706374000000000000000000000000000000600082015250565b610b7c81610a4b565b8114610b8757600080fd5b50565b610b9381610a5d565b8114610b9e57600080fd5b50565b610baa81610a8f565b8114610bb557600080fd5b5056fea2646970667358221220333a8efee5b8314b2a78c950620b705434cbc9c679665b152a9fd5d5723e4e7964736f6c63430008040033",
  "linkReferences": {},
  "deployedLinkReferences": {}
}