{
  "_format": "hh-sol-artifact-1",
  "contractName": "FarmFinanceNFT",
  "sourceName": "contracts/nft/FarmFinanceNFT.sol",
  "abi": [
    {
      "inputs": [
        {
          "internalType": "address",
          "name": "_tokenBaseAddress",
          "type": "address"
        }
      ],
      "stateMutability": "nonpayable",
      "type": "constructor"
    },
    {
      "anonymous": false,
      "inputs": [
        {
          "indexed": true,
          "internalType": "address",
          "name": "owner",
          "type": "address"
        },
        {
          "indexed": true,
          "internalType": "address",
          "name": "approved",
          "type": "address"
        },
        {
          "indexed": true,
          "internalType": "uint256",
          "name": "tokenId",
          "type": "uint256"
        }
      ],
      "name": "Approval",
      "type": "event"
    },
    {
      "anonymous": false,
      "inputs": [
        {
          "indexed": true,
          "internalType": "address",
          "name": "owner",
          "type": "address"
        },
        {
          "indexed": true,
          "internalType": "address",
          "name": "operator",
          "type": "address"
        },
        {
          "indexed": false,
          "internalType": "bool",
          "name": "approved",
          "type": "bool"
        }
      ],
      "name": "ApprovalForAll",
      "type": "event"
    },
    {
      "anonymous": false,
      "inputs": [
        {
          "indexed": false,
          "internalType": "uint256",
          "name": "itemId",
          "type": "uint256"
        },
        {
          "indexed": false,
          "internalType": "uint256",
          "name": "tokenId",
          "type": "uint256"
        },
        {
          "indexed": false,
          "internalType": "uint256",
          "name": "price",
          "type": "uint256"
        },
        {
          "indexed": false,
          "internalType": "address",
          "name": "seller",
          "type": "address"
        },
        {
          "indexed": false,
          "internalType": "address",
          "name": "buyer",
          "type": "address"
        },
        {
          "indexed": false,
          "internalType": "uint256",
          "name": "timestamp",
          "type": "uint256"
        }
      ],
      "name": "MarketItemBought",
      "type": "event"
    },
    {
      "anonymous": false,
      "inputs": [
        {
          "indexed": false,
          "internalType": "uint256",
          "name": "itemId",
          "type": "uint256"
        },
        {
          "indexed": false,
          "internalType": "uint256",
          "name": "tokenId",
          "type": "uint256"
        },
        {
          "indexed": false,
          "internalType": "uint256",
          "name": "price",
          "type": "uint256"
        },
        {
          "indexed": false,
          "internalType": "address",
          "name": "seller",
          "type": "address"
        },
        {
          "indexed": false,
          "internalType": "uint256",
          "name": "timestamp",
          "type": "uint256"
        }
      ],
      "name": "MarketItemCanceled",
      "type": "event"
    },
    {
      "anonymous": false,
      "inputs": [
        {
          "indexed": false,
          "internalType": "uint256",
          "name": "itemId",
          "type": "uint256"
        },
        {
          "indexed": false,
          "internalType": "uint256",
          "name": "tokenId",
          "type": "uint256"
        },
        {
          "indexed": false,
          "internalType": "uint256",
          "name": "price",
          "type": "uint256"
        },
        {
          "indexed": false,
          "internalType": "address",
          "name": "seller",
          "type": "address"
        },
        {
          "indexed": false,
          "internalType": "uint256",
          "name": "timestamp",
          "type": "uint256"
        }
      ],
      "name": "MarketItemCreated",
      "type": "event"
    },
    {
      "anonymous": false,
      "inputs": [
        {
          "indexed": true,
          "internalType": "bytes32",
          "name": "role",
          "type": "bytes32"
        },
        {
          "indexed": true,
          "internalType": "bytes32",
          "name": "previousAdminRole",
          "type": "bytes32"
        },
        {
          "indexed": true,
          "internalType": "bytes32",
          "name": "newAdminRole",
          "type": "bytes32"
        }
      ],
      "name": "RoleAdminChanged",
      "type": "event"
    },
    {
      "anonymous": false,
      "inputs": [
        {
          "indexed": true,
          "internalType": "bytes32",
          "name": "role",
          "type": "bytes32"
        },
        {
          "indexed": true,
          "internalType": "address",
          "name": "account",
          "type": "address"
        },
        {
          "indexed": true,
          "internalType": "address",
          "name": "sender",
          "type": "address"
        }
      ],
      "name": "RoleGranted",
      "type": "event"
    },
    {
      "anonymous": false,
      "inputs": [
        {
          "indexed": true,
          "internalType": "bytes32",
          "name": "role",
          "type": "bytes32"
        },
        {
          "indexed": true,
          "internalType": "address",
          "name": "account",
          "type": "address"
        },
        {
          "indexed": true,
          "internalType": "address",
          "name": "sender",
          "type": "address"
        }
      ],
      "name": "RoleRevoked",
      "type": "event"
    },
    {
      "anonymous": false,
      "inputs": [
        {
          "indexed": false,
          "internalType": "uint256",
          "name": "tokenId",
          "type": "uint256"
        },
        {
          "indexed": false,
          "internalType": "address",
          "name": "owner",
          "type": "address"
        },
        {
          "indexed": false,
          "internalType": "uint256",
          "name": "timestamp",
          "type": "uint256"
        },
        {
          "indexed": false,
          "internalType": "uint256",
          "name": "level",
          "type": "uint256"
        }
      ],
      "name": "SeedBoxOpened",
      "type": "event"
    },
    {
      "anonymous": false,
      "inputs": [
        {
          "indexed": false,
          "internalType": "uint256",
          "name": "tokenId",
          "type": "uint256"
        },
        {
          "indexed": false,
          "internalType": "address",
          "name": "owner",
          "type": "address"
        },
        {
          "indexed": false,
          "internalType": "uint256",
          "name": "timestamp",
          "type": "uint256"
        }
      ],
      "name": "SeedBoxOpenedWithSignature",
      "type": "event"
    },
    {
      "anonymous": false,
      "inputs": [
        {
          "indexed": true,
          "internalType": "address",
          "name": "from",
          "type": "address"
        },
        {
          "indexed": true,
          "internalType": "address",
          "name": "to",
          "type": "address"
        },
        {
          "indexed": true,
          "internalType": "uint256",
          "name": "tokenId",
          "type": "uint256"
        }
      ],
      "name": "Transfer",
      "type": "event"
    },
    {
      "inputs": [],
      "name": "DEFAULT_ADMIN_ROLE",
      "outputs": [
        {
          "internalType": "bytes32",
          "name": "",
          "type": "bytes32"
        }
      ],
      "stateMutability": "view",
      "type": "function"
    },
    {
      "inputs": [],
      "name": "MINTER_ROLE",
      "outputs": [
        {
          "internalType": "bytes32",
          "name": "",
          "type": "bytes32"
        }
      ],
      "stateMutability": "view",
      "type": "function"
    },
    {
      "inputs": [
        {
          "internalType": "address",
          "name": "proxy",
          "type": "address"
        }
      ],
      "name": "addApprovalWhitelist",
      "outputs": [],
      "stateMutability": "nonpayable",
      "type": "function"
    },
    {
      "inputs": [
        {
          "internalType": "address",
          "name": "",
          "type": "address"
        }
      ],
      "name": "approvalWhitelists",
      "outputs": [
        {
          "internalType": "bool",
          "name": "",
          "type": "bool"
        }
      ],
      "stateMutability": "view",
      "type": "function"
    },
    {
      "inputs": [
        {
          "internalType": "address",
          "name": "to",
          "type": "address"
        },
        {
          "internalType": "uint256",
          "name": "tokenId",
          "type": "uint256"
        }
      ],
      "name": "approve",
      "outputs": [],
      "stateMutability": "nonpayable",
      "type": "function"
    },
    {
      "inputs": [
        {
          "internalType": "address",
          "name": "owner",
          "type": "address"
        }
      ],
      "name": "balanceOf",
      "outputs": [
        {
          "internalType": "uint256",
          "name": "",
          "type": "uint256"
        }
      ],
      "stateMutability": "view",
      "type": "function"
    },
    {
      "inputs": [
        {
          "internalType": "uint256",
          "name": "_itemId",
          "type": "uint256"
        }
      ],
      "name": "buyMarketItem",
      "outputs": [],
      "stateMutability": "nonpayable",
      "type": "function"
    },
    {
      "inputs": [
        {
          "internalType": "uint256",
          "name": "_itemId",
          "type": "uint256"
        }
      ],
      "name": "cancelMarketItem",
      "outputs": [],
      "stateMutability": "nonpayable",
      "type": "function"
    },
    {
      "inputs": [
        {
          "internalType": "uint256",
          "name": "_tokenId",
          "type": "uint256"
        },
        {
          "internalType": "uint256",
          "name": "_price",
          "type": "uint256"
        }
      ],
      "name": "createMarketItem",
      "outputs": [],
      "stateMutability": "nonpayable",
      "type": "function"
    },
    {
      "inputs": [
        {
          "internalType": "uint256",
          "name": "tokenId",
          "type": "uint256"
        }
      ],
      "name": "getApproved",
      "outputs": [
        {
          "internalType": "address",
          "name": "",
          "type": "address"
        }
      ],
      "stateMutability": "view",
      "type": "function"
    },
    {
      "inputs": [],
      "name": "getGachaPrice",
      "outputs": [
        {
          "internalType": "uint256[]",
          "name": "",
          "type": "uint256[]"
        }
      ],
      "stateMutability": "view",
      "type": "function"
    },
    {
      "inputs": [
        {
          "internalType": "bytes32",
          "name": "role",
          "type": "bytes32"
        }
      ],
      "name": "getRoleAdmin",
      "outputs": [
        {
          "internalType": "bytes32",
          "name": "",
          "type": "bytes32"
        }
      ],
      "stateMutability": "view",
      "type": "function"
    },
    {
      "inputs": [
        {
          "internalType": "bytes32",
          "name": "role",
          "type": "bytes32"
        },
        {
          "internalType": "address",
          "name": "account",
          "type": "address"
        }
      ],
      "name": "grantRole",
      "outputs": [],
      "stateMutability": "nonpayable",
      "type": "function"
    },
    {
      "inputs": [
        {
          "internalType": "bytes32",
          "name": "role",
          "type": "bytes32"
        },
        {
          "internalType": "address",
          "name": "account",
          "type": "address"
        }
      ],
      "name": "hasRole",
      "outputs": [
        {
          "internalType": "bool",
          "name": "",
          "type": "bool"
        }
      ],
      "stateMutability": "view",
      "type": "function"
    },
    {
      "inputs": [
        {
          "internalType": "uint256",
          "name": "",
          "type": "uint256"
        }
      ],
      "name": "idToMarketItem",
      "outputs": [
        {
          "internalType": "uint256",
          "name": "itemId",
          "type": "uint256"
        },
        {
          "internalType": "uint256",
          "name": "tokenId",
          "type": "uint256"
        },
        {
          "internalType": "address",
          "name": "seller",
          "type": "address"
        },
        {
          "internalType": "address",
          "name": "buyer",
          "type": "address"
        },
        {
          "internalType": "uint256",
          "name": "price",
          "type": "uint256"
        },
        {
          "internalType": "bool",
          "name": "sold",
          "type": "bool"
        },
        {
          "internalType": "bool",
          "name": "isCanceled",
          "type": "bool"
        }
      ],
      "stateMutability": "view",
      "type": "function"
    },
    {
      "inputs": [
        {
          "internalType": "address",
          "name": "owner",
          "type": "address"
        },
        {
          "internalType": "address",
          "name": "operator",
          "type": "address"
        }
      ],
      "name": "isApprovedForAll",
      "outputs": [
        {
          "internalType": "bool",
          "name": "",
          "type": "bool"
        }
      ],
      "stateMutability": "view",
      "type": "function"
    },
    {
      "inputs": [],
      "name": "name",
      "outputs": [
        {
          "internalType": "string",
          "name": "",
          "type": "string"
        }
      ],
      "stateMutability": "view",
      "type": "function"
    },
    {
      "inputs": [
        {
          "internalType": "uint8",
          "name": "level",
          "type": "uint8"
        }
      ],
      "name": "openSeedBox",
      "outputs": [],
      "stateMutability": "nonpayable",
      "type": "function"
    },
    {
      "inputs": [
        {
          "internalType": "address",
          "name": "requestAccount",
          "type": "address"
        },
        {
          "internalType": "bytes",
          "name": "_hash",
          "type": "bytes"
        },
        {
          "internalType": "bytes",
          "name": "signature",
          "type": "bytes"
        }
      ],
      "name": "openSeedBoxWithSignature",
      "outputs": [],
      "stateMutability": "nonpayable",
      "type": "function"
    },
    {
      "inputs": [
        {
          "internalType": "uint256",
          "name": "tokenId",
          "type": "uint256"
        }
      ],
      "name": "ownerOf",
      "outputs": [
        {
          "internalType": "address",
          "name": "",
          "type": "address"
        }
      ],
      "stateMutability": "view",
      "type": "function"
    },
    {
      "inputs": [
        {
          "internalType": "address",
          "name": "proxy",
          "type": "address"
        }
      ],
      "name": "removeApprovalWhitelist",
      "outputs": [],
      "stateMutability": "nonpayable",
      "type": "function"
    },
    {
      "inputs": [
        {
          "internalType": "bytes32",
          "name": "role",
          "type": "bytes32"
        },
        {
          "internalType": "address",
          "name": "account",
          "type": "address"
        }
      ],
      "name": "renounceRole",
      "outputs": [],
      "stateMutability": "nonpayable",
      "type": "function"
    },
    {
      "inputs": [
        {
          "internalType": "bytes32",
          "name": "role",
          "type": "bytes32"
        },
        {
          "internalType": "address",
          "name": "account",
          "type": "address"
        }
      ],
      "name": "revokeRole",
      "outputs": [],
      "stateMutability": "nonpayable",
      "type": "function"
    },
    {
      "inputs": [
        {
          "internalType": "address",
          "name": "from",
          "type": "address"
        },
        {
          "internalType": "address",
          "name": "to",
          "type": "address"
        },
        {
          "internalType": "uint256",
          "name": "tokenId",
          "type": "uint256"
        }
      ],
      "name": "safeTransferFrom",
      "outputs": [],
      "stateMutability": "nonpayable",
      "type": "function"
    },
    {
      "inputs": [
        {
          "internalType": "address",
          "name": "from",
          "type": "address"
        },
        {
          "internalType": "address",
          "name": "to",
          "type": "address"
        },
        {
          "internalType": "uint256",
          "name": "tokenId",
          "type": "uint256"
        },
        {
          "internalType": "bytes",
          "name": "_data",
          "type": "bytes"
        }
      ],
      "name": "safeTransferFrom",
      "outputs": [],
      "stateMutability": "nonpayable",
      "type": "function"
    },
    {
      "inputs": [
        {
          "internalType": "address",
          "name": "operator",
          "type": "address"
        },
        {
          "internalType": "bool",
          "name": "approved",
          "type": "bool"
        }
      ],
      "name": "setApprovalForAll",
      "outputs": [],
      "stateMutability": "nonpayable",
      "type": "function"
    },
    {
      "inputs": [
        {
          "internalType": "uint8",
          "name": "level",
          "type": "uint8"
        },
        {
          "internalType": "uint256",
          "name": "price",
          "type": "uint256"
        }
      ],
      "name": "setGachaPrice",
      "outputs": [],
      "stateMutability": "nonpayable",
      "type": "function"
    },
    {
      "inputs": [
        {
          "internalType": "bytes4",
          "name": "interfaceId",
          "type": "bytes4"
        }
      ],
      "name": "supportsInterface",
      "outputs": [
        {
          "internalType": "bool",
          "name": "",
          "type": "bool"
        }
      ],
      "stateMutability": "view",
      "type": "function"
    },
    {
      "inputs": [],
      "name": "symbol",
      "outputs": [
        {
          "internalType": "string",
          "name": "",
          "type": "string"
        }
      ],
      "stateMutability": "view",
      "type": "function"
    },
    {
      "inputs": [
        {
          "internalType": "uint256",
          "name": "tokenId",
          "type": "uint256"
        }
      ],
      "name": "tokenURI",
      "outputs": [
        {
          "internalType": "string",
          "name": "",
          "type": "string"
        }
      ],
      "stateMutability": "view",
      "type": "function"
    },
    {
      "inputs": [
        {
          "internalType": "address",
          "name": "from",
          "type": "address"
        },
        {
          "internalType": "address",
          "name": "to",
          "type": "address"
        },
        {
          "internalType": "uint256",
          "name": "tokenId",
          "type": "uint256"
        }
      ],
      "name": "transferFrom",
      "outputs": [],
      "stateMutability": "nonpayable",
      "type": "function"
    },
    {
      "inputs": [],
      "name": "withdrawToken",
      "outputs": [],
      "stateMutability": "nonpayable",
      "type": "function"
    }
  ],
  "bytecode": "0x60c0604052683635c9adc5dea00000608090815268a2a15d09519be0000060a0526200003090600b906002620001dd565b503480156200003e57600080fd5b506040516200318c3803806200318c8339810160408190526200006191620002cc565b604080518082018252601081526f11985c9b48119a5b985b98d94813919560821b60208083019182528351808501909452600384526223232760e91b908401528151919291620000b49160019162000238565b508051620000ca90600290602084019062000238565b5050600160075550600a80546001600160a01b0319166001600160a01b038316179055620000fa6000336200012d565b620001267f9f2df0fed2c77648de5860a4cc508cd0818c85b8b8a1ab4ceeef8d981c8956a6336200012d565b5062000339565b6200013982826200013d565b5050565b6000828152602081815260408083206001600160a01b038516845290915290205460ff1662000139576000828152602081815260408083206001600160a01b03851684529091529020805460ff19166001179055620001993390565b6001600160a01b0316816001600160a01b0316837f2f8788117e7eff1d82e926ec794901d17c78024a50270940304540a733656f0d60405160405180910390a45050565b82805482825590600052602060002090810192821562000226579160200282015b828111156200022657825182906001600160481b0316905591602001919060010190620001fe565b5062000234929150620002b5565b5090565b8280546200024690620002fc565b90600052602060002090601f0160209004810192826200026a576000855562000226565b82601f106200028557805160ff191683800117855562000226565b8280016001018555821562000226579182015b828111156200022657825182559160200191906001019062000298565b5b80821115620002345760008155600101620002b6565b600060208284031215620002de578081fd5b81516001600160a01b0381168114620002f5578182fd5b9392505050565b600181811c908216806200031157607f821691505b602082108114156200033357634e487b7160e01b600052602260045260246000fd5b50919050565b612e4380620003496000396000f3fe608060405234801561001057600080fd5b50600436106101f05760003560e01c80636352211e1161010f578063b78437ea116100a2578063d539139311610071578063d539139314610449578063d547741f14610470578063e61a70c014610483578063e985e9c51461052457600080fd5b8063b78437ea14610408578063b88d4fde1461041b578063c87b56dd1461042e578063ca628c781461044157600080fd5b806395d89b41116100de57806395d89b41146103d2578063a217fddf146103da578063a22cb465146103e2578063a6e22b02146103f557600080fd5b80636352211e1461038657806370a082311461039957806391d14854146103ac57806392fa2445146103bf57600080fd5b80632f2ff15d11610187578063419e583d11610156578063419e583d1461032857806342842e0e1461034b5780634deb8b181461035e5780634ec3604e1461037357600080fd5b80632f2ff15d146102dc578063351901c3146102ef578063361c19951461030257806336568abe1461031557600080fd5b80630a75eea2116101c35780630a75eea2146102725780630b4edc3e1461028557806323b872dd14610298578063248a9ca3146102ab57600080fd5b806301ffc9a7146101f557806306fdde031461021d578063081812fc14610232578063095ea7b31461025d575b600080fd5b610208610203366004612959565b610537565b60405190151581526020015b60405180910390f35b610225610548565b6040516102149190612bab565b61024561024036600461291f565b6105da565b6040516001600160a01b039091168152602001610214565b61027061026b3660046128da565b610674565b005b610270610280366004612746565b61078a565b6102706102933660046129e4565b6107b8565b6102706102a6366004612792565b61083e565b6102ce6102b936600461291f565b60009081526020819052604090206001015490565b604051908152602001610214565b6102706102ea366004612937565b61086f565b6102706102fd36600461291f565b610895565b6102706103103660046129a9565b610b57565b610270610323366004612937565b610cbf565b610208610336366004612746565b600d6020526000908152604090205460ff1681565b610270610359366004612792565b610d3d565b610366610d58565b6040516102149190612b67565b610270610381366004612869565b610daf565b61024561039436600461291f565b610ee8565b6102ce6103a7366004612746565b610f5f565b6102086103ba366004612937565b610fe6565b6102706103cd3660046129ca565b61100f565b610225611190565b6102ce600081565b6102706103f0366004612833565b61119f565b61027061040336600461291f565b6111aa565b610270610416366004612746565b6113a1565b6102706104293660046127cd565b61143b565b61022561043c36600461291f565b611473565b61027061155b565b6102ce7f9f2df0fed2c77648de5860a4cc508cd0818c85b8b8a1ab4ceeef8d981c8956a681565b61027061047e366004612937565b61172d565b6104df61049136600461291f565b600c60205260009081526040902080546001820154600283015460038401546004850154600590950154939492936001600160a01b0392831693919092169160ff8082169161010090041687565b6040805197885260208801969096526001600160a01b03948516958701959095529290911660608501526080840152151560a0830152151560c082015260e001610214565b610208610532366004612760565b611753565b6000610542826117af565b92915050565b60606001805461055790612d3d565b80601f016020809104026020016040519081016040528092919081815260200182805461058390612d3d565b80156105d05780601f106105a5576101008083540402835291602001916105d0565b820191906000526020600020905b8154815290600101906020018083116105b357829003601f168201915b5050505050905090565b6000818152600360205260408120546001600160a01b03166106585760405162461bcd60e51b815260206004820152602c60248201527f4552433732313a20617070726f76656420717565727920666f72206e6f6e657860448201526b34b9ba32b73a103a37b5b2b760a11b60648201526084015b60405180910390fd5b506000908152600560205260409020546001600160a01b031690565b600061067f82610ee8565b9050806001600160a01b0316836001600160a01b031614156106ed5760405162461bcd60e51b815260206004820152602160248201527f4552433732313a20617070726f76616c20746f2063757272656e74206f776e656044820152603960f91b606482015260840161064f565b336001600160a01b038216148061070957506107098133611753565b61077b5760405162461bcd60e51b815260206004820152603860248201527f4552433732313a20617070726f76652063616c6c6572206973206e6f74206f7760448201527f6e6572206e6f7220617070726f76656420666f7220616c6c0000000000000000606482015260840161064f565b61078583836117ef565b505050565b6000610796813361185d565b506001600160a01b03166000908152600d60205260409020805460ff19169055565b60006107c4813361185d565b600b5460ff8416106108085760405162461bcd60e51b815260206004820152600d60248201526c1b195d995b081a5b9d985b1a59609a1b604482015260640161064f565b81600b8460ff168154811061082d57634e487b7160e01b600052603260045260246000fd5b600091825260209091200155505050565b61084833826118c1565b6108645760405162461bcd60e51b815260040161064f90612c10565b610785838383611998565b60008281526020819052604090206001015461088b813361185d565b6107858383611b38565b600260075414156108b85760405162461bcd60e51b815260040161064f90612c61565b600260078190556000828152600c6020526040902001546001600160a01b03163314156109275760405162461bcd60e51b815260206004820152601760248201527f61736b6572206d757374206e6f74206265206f776e6572000000000000000000604482015260640161064f565b6000818152600c602052604090206005015460ff161561097e5760405162461bcd60e51b81526020600482015260126024820152711a5d195b481a185cc81899595b881cdbdb1960721b604482015260640161064f565b6000818152600c6020526040902060050154610100900460ff16156109e55760405162461bcd60e51b815260206004820152601760248201527f4974656d20686173206265656e2063616e63656c6c6564000000000000000000604482015260640161064f565b6000818152600c6020526040908190206003810180546001600160a01b0319163390811790915560058201805460ff19166001179055600a54600283015460049384015494516323b872dd60e01b8152938401929092526001600160a01b0391821660248401526044830193909352909116906323b872dd90606401602060405180830381600087803b158015610a7b57600080fd5b505af1158015610a8f573d6000803e3d6000fd5b505050506040513d601f19601f82011682018060405250810190610ab39190612903565b506000818152600c6020526040902060010154610ad39030903390611998565b6000818152600c602090815260409182902060018101546004820154600290920154845186815293840191909152928201526001600160a01b0390911660608201523360808201524260a08201527f64188bfb5c4e77a0111b4f1ab4287299eb798cdc31c159bb4bd79c0532cedbd19060c0015b60405180910390a1506001600755565b60026007541415610b7a5760405162461bcd60e51b815260040161064f90612c61565b600260075580610b8957600080fd5b610b94333084611998565b6000610b9f60095490565b6040805160e081018252828152602080820187815233838501908152600060608501818152608086018a815260a0870183815260c088018481528a8552600c90975297909220955186559251600186015590516002850180546001600160a01b039283166001600160a01b031991821617909155925160038601805491909216931692909217909155516004830155915160059091018054925115156101000261ff00199215159290921661ffff19909316929092171790559050610c68600980546001019055565b60408051828152602081018590529081018390523360608201524260808201527fcf4559047fb7808502f7421361bc6345be30e4318a584c6cd92c77a8a47b4ae39060a00160405180910390a15050600160075550565b6001600160a01b0381163314610d2f5760405162461bcd60e51b815260206004820152602f60248201527f416363657373436f6e74726f6c3a2063616e206f6e6c792072656e6f756e636560448201526e103937b632b9903337b91039b2b63360891b606482015260840161064f565b610d398282611bbc565b5050565b6107858383836040518060200160405280600081525061143b565b6060600b8054806020026020016040519081016040528092919081815260200182805480156105d057602002820191906000526020600020905b815481526020019060010190808311610d92575050505050905090565b7f9f2df0fed2c77648de5860a4cc508cd0818c85b8b8a1ab4ceeef8d981c8956a6610dda813361185d565b6001600160a01b038416610ded57600080fd5b6000610df884611c21565b9050846001600160a01b0316610e0e8285611c5c565b6001600160a01b031614610e745760405162461bcd60e51b815260206004820152602760248201527f5369676e617475726520646f6573206e6f74206d61746368206d6573736167656044820152661039b2b73232b960c91b606482015260840161064f565b6000610e7f60085490565b9050610e8b8682611c80565b610e99600880546001019055565b604080518281526001600160a01b0388166020820152428183015290517f52db93bda7723061e56dca9cdbe797432a9efedbaa99f60f42d4c2cba4c8b4a09181900360600190a1505050505050565b6000818152600360205260408120546001600160a01b0316806105425760405162461bcd60e51b815260206004820152602960248201527f4552433732313a206f776e657220717565727920666f72206e6f6e657869737460448201526832b73a103a37b5b2b760b91b606482015260840161064f565b60006001600160a01b038216610fca5760405162461bcd60e51b815260206004820152602a60248201527f4552433732313a2062616c616e636520717565727920666f7220746865207a65604482015269726f206164647265737360b01b606482015260840161064f565b506001600160a01b031660009081526004602052604090205490565b6000918252602082815260408084206001600160a01b0393909316845291905290205460ff1690565b600260075414156110325760405162461bcd60e51b815260040161064f90612c61565b6002600755600b5460ff82161061104857600080fd5b600a54600b80546001600160a01b03909216916323b872dd91339130919060ff871690811061108757634e487b7160e01b600052603260045260246000fd5b6000918252602090912001546040516001600160e01b031960e086901b1681526001600160a01b0393841660048201529290911660248301526044820152606401602060405180830381600087803b1580156110e257600080fd5b505af11580156110f6573d6000803e3d6000fd5b505050506040513d601f19601f8201168201806040525081019061111a9190612903565b50600061112660085490565b90506111323382611c80565b611140600880546001019055565b60408051828152336020820152428183015260ff8416606082015290517f0f11d15eb627b9269d64b4daa9102bc5b45c6f431e92ff8c07cb6afcdeeccd779181900360800190a150506001600755565b60606002805461055790612d3d565b610d39338383611dc2565b600260075414156111cd5760405162461bcd60e51b815260040161064f90612c61565b600260078190556000828152600c6020526040902001546001600160a01b0316331461123b5760405162461bcd60e51b815260206004820152601960248201527f73656e646572206d757374206265207468652073656c6c657200000000000000604482015260640161064f565b6000818152600c6020526040902060050154610100900460ff16156112a25760405162461bcd60e51b815260206004820152601760248201527f6974656d20686173206265656e2063616e63656c6c6564000000000000000000604482015260640161064f565b6000818152600c60205260409020600301546001600160a01b0316156112ff5760405162461bcd60e51b81526020600482015260126024820152711a5d195b481a185cc81899595b881cdbdb1960721b604482015260640161064f565b6000818152600c602052604090206001015461131e9030903390611998565b6000818152600c602090815260409182902060058101805461ff00191661010017905560018101546004820154600290920154845186815293840191909152928201526001600160a01b0390911660608201524260808201527f0e27ad6192d10572609730bfb36d76e614ffbf9e5ea56fcb343916bd9c9f14759060a001610b47565b60006113ad813361185d565b6001600160a01b0382166000908152600d602052604090205460ff16156114165760405162461bcd60e51b815260206004820152601e60248201527f47616d654e46543a20696e76616c69642070726f787920616464726573730000604482015260640161064f565b506001600160a01b03166000908152600d60205260409020805460ff19166001179055565b61144533836118c1565b6114615760405162461bcd60e51b815260040161064f90612c10565b61146d84848484611e91565b50505050565b6000818152600360205260409020546060906001600160a01b03166114f25760405162461bcd60e51b815260206004820152602f60248201527f4552433732314d657461646174613a2055524920717565727920666f72206e6f60448201526e3732bc34b9ba32b73a103a37b5b2b760891b606482015260840161064f565b600061150960408051602081019091526000815290565b905060008151116115295760405180602001604052806000815250611554565b8061153384611ec4565b604051602001611544929190612a2b565b6040516020818303038152906040525b9392505050565b6000611567813361185d565b600a546040516370a0823160e01b81523060048201526000916001600160a01b0316906370a082319060240160206040518083038186803b1580156115ab57600080fd5b505afa1580156115bf573d6000803e3d6000fd5b505050506040513d601f19601f820116820180604052508101906115e39190612991565b600a546040516370a0823160e01b81523060048201529192506000916001600160a01b03909116906370a082319060240160206040518083038186803b15801561162c57600080fd5b505afa158015611640573d6000803e3d6000fd5b505050506040513d601f19601f820116820180604052508101906116649190612991565b116116a95760405162461bcd60e51b815260206004820152601560248201527431b7b73a3930b1ba1037baba1037b3103a37b5b2b760591b604482015260640161064f565b600a5460405163a9059cbb60e01b8152336004820152602481018390526001600160a01b039091169063a9059cbb90604401602060405180830381600087803b1580156116f557600080fd5b505af1158015611709573d6000803e3d6000fd5b505050506040513d601f19601f820116820180604052508101906107859190612903565b600082815260208190526040902060010154611749813361185d565b6107858383611bbc565b6001600160a01b0381166000908152600d602052604081205460ff1615156001141561178157506001610542565b6001600160a01b0380841660009081526006602090815260408083209386168352929052205460ff16611554565b60006001600160e01b031982166380ac58cd60e01b14806117e057506001600160e01b03198216635b5e139f60e01b145b80610542575061054282611fde565b600081815260056020526040902080546001600160a01b0319166001600160a01b038416908117909155819061182482610ee8565b6001600160a01b03167f8c5be1e5ebec7d5bd14f71427d1e84f3dd0314c0f7b2291e5b200ac8c7c3b92560405160405180910390a45050565b6118678282610fe6565b610d395761187f816001600160a01b03166014612013565b61188a836020612013565b60405160200161189b929190612ab5565b60408051601f198184030181529082905262461bcd60e51b825261064f91600401612bab565b6000818152600360205260408120546001600160a01b031661193a5760405162461bcd60e51b815260206004820152602c60248201527f4552433732313a206f70657261746f7220717565727920666f72206e6f6e657860448201526b34b9ba32b73a103a37b5b2b760a11b606482015260840161064f565b600061194583610ee8565b9050806001600160a01b0316846001600160a01b031614806119805750836001600160a01b0316611975846105da565b6001600160a01b0316145b8061199057506119908185611753565b949350505050565b826001600160a01b03166119ab82610ee8565b6001600160a01b031614611a135760405162461bcd60e51b815260206004820152602960248201527f4552433732313a207472616e73666572206f6620746f6b656e2074686174206960448201526839903737ba1037bbb760b91b606482015260840161064f565b6001600160a01b038216611a755760405162461bcd60e51b8152602060048201526024808201527f4552433732313a207472616e7366657220746f20746865207a65726f206164646044820152637265737360e01b606482015260840161064f565b611a806000826117ef565b6001600160a01b0383166000908152600460205260408120805460019290611aa9908490612ce3565b90915550506001600160a01b0382166000908152600460205260408120805460019290611ad7908490612c98565b909155505060008181526003602052604080822080546001600160a01b0319166001600160a01b0386811691821790925591518493918716917fddf252ad1be2c89b69c2b068fc378daa952ba7f163c4a11628f55a4df523b3ef91a4505050565b611b428282610fe6565b610d39576000828152602081815260408083206001600160a01b03851684529091529020805460ff19166001179055611b783390565b6001600160a01b0316816001600160a01b0316837f2f8788117e7eff1d82e926ec794901d17c78024a50270940304540a733656f0d60405160405180910390a45050565b611bc68282610fe6565b15610d39576000828152602081815260408083206001600160a01b0385168085529252808320805460ff1916905551339285917ff6391f5c32d9c69d2a47ea670b442974b53935d1edc7fd64eb21e047a839171b9190a45050565b6000611c2d8251611ec4565b82604051602001611c3f929190612a5a565b604051602081830303815290604052805190602001209050919050565b6000806000611c6b85856121f5565b91509150611c7881612265565b509392505050565b6001600160a01b038216611cd65760405162461bcd60e51b815260206004820181905260248201527f4552433732313a206d696e7420746f20746865207a65726f2061646472657373604482015260640161064f565b6000818152600360205260409020546001600160a01b031615611d3b5760405162461bcd60e51b815260206004820152601c60248201527f4552433732313a20746f6b656e20616c7265616479206d696e74656400000000604482015260640161064f565b6001600160a01b0382166000908152600460205260408120805460019290611d64908490612c98565b909155505060008181526003602052604080822080546001600160a01b0319166001600160a01b03861690811790915590518392907fddf252ad1be2c89b69c2b068fc378daa952ba7f163c4a11628f55a4df523b3ef908290a45050565b816001600160a01b0316836001600160a01b03161415611e245760405162461bcd60e51b815260206004820152601960248201527f4552433732313a20617070726f766520746f2063616c6c657200000000000000604482015260640161064f565b6001600160a01b03838116600081815260066020908152604080832094871680845294825291829020805460ff191686151590811790915591519182527f17307eab39ab6107e8899845ad3d59bd9653f200f220920489ca2b5937696c31910160405180910390a3505050565b611e9c848484611998565b611ea884848484612469565b61146d5760405162461bcd60e51b815260040161064f90612bbe565b606081611ee85750506040805180820190915260018152600360fc1b602082015290565b8160005b8115611f125780611efc81612d78565b9150611f0b9050600a83612cb0565b9150611eec565b60008167ffffffffffffffff811115611f3b57634e487b7160e01b600052604160045260246000fd5b6040519080825280601f01601f191660200182016040528015611f65576020820181803683370190505b5090505b841561199057611f7a600183612ce3565b9150611f87600a86612d93565b611f92906030612c98565b60f81b818381518110611fb557634e487b7160e01b600052603260045260246000fd5b60200101906001600160f81b031916908160001a905350611fd7600a86612cb0565b9450611f69565b60006001600160e01b03198216637965db0b60e01b148061054257506301ffc9a760e01b6001600160e01b0319831614610542565b60606000612022836002612cc4565b61202d906002612c98565b67ffffffffffffffff81111561205357634e487b7160e01b600052604160045260246000fd5b6040519080825280601f01601f19166020018201604052801561207d576020820181803683370190505b509050600360fc1b816000815181106120a657634e487b7160e01b600052603260045260246000fd5b60200101906001600160f81b031916908160001a905350600f60fb1b816001815181106120e357634e487b7160e01b600052603260045260246000fd5b60200101906001600160f81b031916908160001a9053506000612107846002612cc4565b612112906001612c98565b90505b60018111156121a6576f181899199a1a9b1b9c1cb0b131b232b360811b85600f166010811061215457634e487b7160e01b600052603260045260246000fd5b1a60f81b82828151811061217857634e487b7160e01b600052603260045260246000fd5b60200101906001600160f81b031916908160001a90535060049490941c9361219f81612d26565b9050612115565b5083156115545760405162461bcd60e51b815260206004820181905260248201527f537472696e67733a20686578206c656e67746820696e73756666696369656e74604482015260640161064f565b60008082516041141561222c5760208301516040840151606085015160001a61222087828585612576565b9450945050505061225e565b825160401415612256576020830151604084015161224b868383612663565b93509350505061225e565b506000905060025b9250929050565b600081600481111561228757634e487b7160e01b600052602160045260246000fd5b14156122905750565b60018160048111156122b257634e487b7160e01b600052602160045260246000fd5b14156123005760405162461bcd60e51b815260206004820152601860248201527f45434453413a20696e76616c6964207369676e61747572650000000000000000604482015260640161064f565b600281600481111561232257634e487b7160e01b600052602160045260246000fd5b14156123705760405162461bcd60e51b815260206004820152601f60248201527f45434453413a20696e76616c6964207369676e6174757265206c656e67746800604482015260640161064f565b600381600481111561239257634e487b7160e01b600052602160045260246000fd5b14156123eb5760405162461bcd60e51b815260206004820152602260248201527f45434453413a20696e76616c6964207369676e6174757265202773272076616c604482015261756560f01b606482015260840161064f565b600481600481111561240d57634e487b7160e01b600052602160045260246000fd5b14156124665760405162461bcd60e51b815260206004820152602260248201527f45434453413a20696e76616c6964207369676e6174757265202776272076616c604482015261756560f01b606482015260840161064f565b50565b60006001600160a01b0384163b1561256b57604051630a85bd0160e11b81526001600160a01b0385169063150b7a02906124ad903390899088908890600401612b2a565b602060405180830381600087803b1580156124c757600080fd5b505af19250505080156124f7575060408051601f3d908101601f191682019092526124f491810190612975565b60015b612551573d808015612525576040519150601f19603f3d011682016040523d82523d6000602084013e61252a565b606091505b5080516125495760405162461bcd60e51b815260040161064f90612bbe565b805181602001fd5b6001600160e01b031916630a85bd0160e11b149050611990565b506001949350505050565b6000807f7fffffffffffffffffffffffffffffff5d576e7357a4501ddfe92f46681b20a08311156125ad575060009050600361265a565b8460ff16601b141580156125c557508460ff16601c14155b156125d6575060009050600461265a565b6040805160008082526020820180845289905260ff881692820192909252606081018690526080810185905260019060a0016020604051602081039080840390855afa15801561262a573d6000803e3d6000fd5b5050604051601f1901519150506001600160a01b0381166126535760006001925092505061265a565b9150600090505b94509492505050565b6000806001600160ff1b03831660ff84901c601b0161268487828885612576565b935093505050935093915050565b80356001600160a01b03811681146126a957600080fd5b919050565b600082601f8301126126be578081fd5b813567ffffffffffffffff808211156126d9576126d9612dd3565b604051601f8301601f19908116603f0116810190828211818310171561270157612701612dd3565b81604052838152866020858801011115612719578485fd5b8360208701602083013792830160200193909352509392505050565b803560ff811681146126a957600080fd5b600060208284031215612757578081fd5b61155482612692565b60008060408385031215612772578081fd5b61277b83612692565b915061278960208401612692565b90509250929050565b6000806000606084860312156127a6578081fd5b6127af84612692565b92506127bd60208501612692565b9150604084013590509250925092565b600080600080608085870312156127e2578081fd5b6127eb85612692565b93506127f960208601612692565b925060408501359150606085013567ffffffffffffffff81111561281b578182fd5b612827878288016126ae565b91505092959194509250565b60008060408385031215612845578182fd5b61284e83612692565b9150602083013561285e81612de9565b809150509250929050565b60008060006060848603121561287d578283fd5b61288684612692565b9250602084013567ffffffffffffffff808211156128a2578384fd5b6128ae878388016126ae565b935060408601359150808211156128c3578283fd5b506128d0868287016126ae565b9150509250925092565b600080604083850312156128ec578182fd5b6128f583612692565b946020939093013593505050565b600060208284031215612914578081fd5b815161155481612de9565b600060208284031215612930578081fd5b5035919050565b60008060408385031215612949578182fd5b8235915061278960208401612692565b60006020828403121561296a578081fd5b813561155481612df7565b600060208284031215612986578081fd5b815161155481612df7565b6000602082840312156129a2578081fd5b5051919050565b600080604083850312156129bb578182fd5b50508035926020909101359150565b6000602082840312156129db578081fd5b61155482612735565b600080604083850312156129f6578182fd5b6128f583612735565b60008151808452612a17816020860160208601612cfa565b601f01601f19169290920160200192915050565b60008351612a3d818460208801612cfa565b835190830190612a51818360208801612cfa565b01949350505050565b7f19457468657265756d205369676e6564204d6573736167653a0a000000000000815260008351612a9281601a850160208801612cfa565b835190830190612aa981601a840160208801612cfa565b01601a01949350505050565b7f416363657373436f6e74726f6c3a206163636f756e7420000000000000000000815260008351612aed816017850160208801612cfa565b7001034b99036b4b9b9b4b733903937b6329607d1b6017918401918201528351612b1e816028840160208801612cfa565b01602801949350505050565b6001600160a01b0385811682528416602082015260408101839052608060608201819052600090612b5d908301846129ff565b9695505050505050565b6020808252825182820181905260009190848201906040850190845b81811015612b9f57835183529284019291840191600101612b83565b50909695505050505050565b60208152600061155460208301846129ff565b60208082526032908201527f4552433732313a207472616e7366657220746f206e6f6e20455243373231526560408201527131b2b4bb32b91034b6b83632b6b2b73a32b960711b606082015260800190565b60208082526031908201527f4552433732313a207472616e736665722063616c6c6572206973206e6f74206f6040820152701ddb995c881b9bdc88185c1c1c9bdd9959607a1b606082015260800190565b6020808252601f908201527f5265656e7472616e637947756172643a207265656e7472616e742063616c6c00604082015260600190565b60008219821115612cab57612cab612da7565b500190565b600082612cbf57612cbf612dbd565b500490565b6000816000190483118215151615612cde57612cde612da7565b500290565b600082821015612cf557612cf5612da7565b500390565b60005b83811015612d15578181015183820152602001612cfd565b8381111561146d5750506000910152565b600081612d3557612d35612da7565b506000190190565b600181811c90821680612d5157607f821691505b60208210811415612d7257634e487b7160e01b600052602260045260246000fd5b50919050565b6000600019821415612d8c57612d8c612da7565b5060010190565b600082612da257612da2612dbd565b500690565b634e487b7160e01b600052601160045260246000fd5b634e487b7160e01b600052601260045260246000fd5b634e487b7160e01b600052604160045260246000fd5b801515811461246657600080fd5b6001600160e01b03198116811461246657600080fdfea264697066735822122040f4619ab6053fd5cd5591ae4d1fc6584a9c8f34818541378bc83c494d6c682f64736f6c63430008040033",
  "linkReferences": {},
  "deployedLinkReferences": {}
}