{
  "_format": "hh-sol-artifact-1",
  "contractName": "OwnableContract",
  "sourceName": "contracts/OwnableContract.sol",
  "abi": [
    {
      "anonymous": false,
      "inputs": [
        {
          "indexed": false,
          "internalType": "address",
          "name": "oldAdmin",
          "type": "address"
        },
        {
          "indexed": false,
          "internalType": "address",
          "name": "newAdmin",
          "type": "address"
        }
      ],
      "name": "NewAdmin",
      "type": "event"
    },
    {
      "anonymous": false,
      "inputs": [
        {
          "indexed": false,
          "internalType": "address",
          "name": "oldOwner",
          "type": "address"
        },
        {
          "indexed": false,
          "internalType": "address",
          "name": "newOwner",
          "type": "address"
        }
      ],
      "name": "NewOwner",
      "type": "event"
    },
    {
      "anonymous": false,
      "inputs": [
        {
          "indexed": false,
          "internalType": "address",
          "name": "oldPendingOwner",
          "type": "address"
        },
        {
          "indexed": false,
          "internalType": "address",
          "name": "newPendingOwner",
          "type": "address"
        }
      ],
      "name": "NewPendingOwner",
      "type": "event"
    },
    {
      "inputs": [],
      "name": "acceptOwner",
      "outputs": [],
      "stateMutability": "nonpayable",
      "type": "function"
    },
    {
      "inputs": [],
      "name": "admin",
      "outputs": [
        {
          "internalType": "address",
          "name": "",
          "type": "address"
        }
      ],
      "stateMutability": "view",
      "type": "function"
    },
    {
      "inputs": [],
      "name": "owner",
      "outputs": [
        {
          "internalType": "address",
          "name": "",
          "type": "address"
        }
      ],
      "stateMutability": "view",
      "type": "function"
    },
    {
      "inputs": [],
      "name": "pendingOwner",
      "outputs": [
        {
          "internalType": "address",
          "name": "",
          "type": "address"
        }
      ],
      "stateMutability": "view",
      "type": "function"
    },
    {
      "inputs": [],
      "name": "renounceOwnership",
      "outputs": [],
      "stateMutability": "nonpayable",
      "type": "function"
    },
    {
      "inputs": [
        {
          "internalType": "address",
          "name": "newAdmin",
          "type": "address"
        }
      ],
      "name": "setAdmin",
      "outputs": [],
      "stateMutability": "nonpayable",
      "type": "function"
    },
    {
      "inputs": [
        {
          "internalType": "address",
          "name": "_pendingOwner",
          "type": "address"
        }
      ],
      "name": "transferOwnership",
      "outputs": [],
      "stateMutability": "nonpayable",
      "type": "function"
    }
  ],
  "bytecode": "0x608060405234801561001057600080fd5b50610a60806100206000396000f3fe608060405234801561001057600080fd5b506004361061007d5760003560e01c8063e30c39781161005b578063e30c3978146100c6578063ebbc4965146100e4578063f2fde38b146100ee578063f851a4401461010a5761007d565b8063704b6c0214610082578063715018a61461009e5780638da5cb5b146100a8575b600080fd5b61009c6004803603810190610097919061087c565b610128565b005b6100a6610255565b005b6100b06104bc565b6040516100bd91906108fa565b60405180910390f35b6100ce6104e0565b6040516100db91906108fa565b60405180910390f35b6100ec610506565b005b6101086004803603810190610103919061087c565b610714565b005b610112610841565b60405161011f91906108fa565b60405180910390f35b60008054906101000a900473ffffffffffffffffffffffffffffffffffffffff1673ffffffffffffffffffffffffffffffffffffffff163373ffffffffffffffffffffffffffffffffffffffff16146101b6576040517f08c379a00000000000000000000000000000000000000000000000000000000081526004016101ad9061095e565b60405180910390fd5b7ff9ffabca9c8276e99321725bcb43fb076a6c66a54b7f21c4e8146d8519b417dc600260009054906101000a900473ffffffffffffffffffffffffffffffffffffffff1682604051610209929190610915565b60405180910390a180600260006101000a81548173ffffffffffffffffffffffffffffffffffffffff021916908373ffffffffffffffffffffffffffffffffffffffff16021790555050565b60008054906101000a900473ffffffffffffffffffffffffffffffffffffffff1673ffffffffffffffffffffffffffffffffffffffff163373ffffffffffffffffffffffffffffffffffffffff16146102e3576040517f08c379a00000000000000000000000000000000000000000000000000000000081526004016102da9061095e565b60405180910390fd5b7f70aea8d848e8a90fb7661b227dc522eb6395c3dac71b63cb59edd5c9899b236460008054906101000a900473ffffffffffffffffffffffffffffffffffffffff166000604051610335929190610915565b60405180910390a17ff9ffabca9c8276e99321725bcb43fb076a6c66a54b7f21c4e8146d8519b417dc600260009054906101000a900473ffffffffffffffffffffffffffffffffffffffff166000604051610391929190610915565b60405180910390a17fb3d55174552271a4f1aaf36b72f50381e892171636b3fb5447fe00e995e7a37b600160009054906101000a900473ffffffffffffffffffffffffffffffffffffffff1660006040516103ed929190610915565b60405180910390a160008060006101000a81548173ffffffffffffffffffffffffffffffffffffffff021916908373ffffffffffffffffffffffffffffffffffffffff1602179055506000600160006101000a81548173ffffffffffffffffffffffffffffffffffffffff021916908373ffffffffffffffffffffffffffffffffffffffff1602179055506000600260006101000a81548173ffffffffffffffffffffffffffffffffffffffff021916908373ffffffffffffffffffffffffffffffffffffffff160217905550565b60008054906101000a900473ffffffffffffffffffffffffffffffffffffffff1681565b600160009054906101000a900473ffffffffffffffffffffffffffffffffffffffff1681565b600160009054906101000a900473ffffffffffffffffffffffffffffffffffffffff1673ffffffffffffffffffffffffffffffffffffffff163373ffffffffffffffffffffffffffffffffffffffff1614610596576040517f08c379a000000000000000000000000000000000000000000000000000000000815260040161058d9061093e565b60405180910390fd5b7f70aea8d848e8a90fb7661b227dc522eb6395c3dac71b63cb59edd5c9899b236460008054906101000a900473ffffffffffffffffffffffffffffffffffffffff16600160009054906101000a900473ffffffffffffffffffffffffffffffffffffffff16604051610609929190610915565b60405180910390a1600160009054906101000a900473ffffffffffffffffffffffffffffffffffffffff166000806101000a81548173ffffffffffffffffffffffffffffffffffffffff021916908373ffffffffffffffffffffffffffffffffffffffff16021790555060007fb3d55174552271a4f1aaf36b72f50381e892171636b3fb5447fe00e995e7a37b600160009054906101000a900473ffffffffffffffffffffffffffffffffffffffff16826040516106c8929190610915565b60405180910390a180600160006101000a81548173ffffffffffffffffffffffffffffffffffffffff021916908373ffffffffffffffffffffffffffffffffffffffff16021790555050565b60008054906101000a900473ffffffffffffffffffffffffffffffffffffffff1673ffffffffffffffffffffffffffffffffffffffff163373ffffffffffffffffffffffffffffffffffffffff16146107a2576040517f08c379a00000000000000000000000000000000000000000000000000000000081526004016107999061095e565b60405180910390fd5b7fb3d55174552271a4f1aaf36b72f50381e892171636b3fb5447fe00e995e7a37b600160009054906101000a900473ffffffffffffffffffffffffffffffffffffffff16826040516107f5929190610915565b60405180910390a180600160006101000a81548173ffffffffffffffffffffffffffffffffffffffff021916908373ffffffffffffffffffffffffffffffffffffffff16021790555050565b600260009054906101000a900473ffffffffffffffffffffffffffffffffffffffff1681565b60008135905061087681610a13565b92915050565b60006020828403121561088e57600080fd5b600061089c84828501610867565b91505092915050565b6108ae8161098f565b82525050565b60006108c160108361097e565b91506108cc826109c1565b602082019050919050565b60006108e460098361097e565b91506108ef826109ea565b602082019050919050565b600060208201905061090f60008301846108a5565b92915050565b600060408201905061092a60008301856108a5565b61093760208301846108a5565b9392505050565b60006020820190508181036000830152610957816108b4565b9050919050565b60006020820190508181036000830152610977816108d7565b9050919050565b600082825260208201905092915050565b600061099a826109a1565b9050919050565b600073ffffffffffffffffffffffffffffffffffffffff82169050919050565b7f6f6e6c7950656e64696e674f776e657200000000000000000000000000000000600082015250565b7f6f6e6c794f776e65720000000000000000000000000000000000000000000000600082015250565b610a1c8161098f565b8114610a2757600080fd5b5056fea26469706673582212208169b35f18f38f946579f823225c0d68e1ca99d48cb6f5eb4ba798e0fc754e9764736f6c63430008040033",
  "linkReferences": {},
  "deployedLinkReferences": {}
}