{
  "_format": "hh-sol-artifact-1",
  "contractName": "Item721",
  "sourceName": "contracts/ERC/721/Item721.sol",
  "abi": [
    {
      "inputs": [
        {
          "internalType": "address",
          "name": "_tokenBaseAddress",
          "type": "address"
        }
      ],
      "stateMutability": "nonpayable",
      "type": "constructor"
    },
    {
      "anonymous": false,
      "inputs": [
        {
          "indexed": true,
          "internalType": "address",
          "name": "owner",
          "type": "address"
        },
        {
          "indexed": true,
          "internalType": "address",
          "name": "approved",
          "type": "address"
        },
        {
          "indexed": true,
          "internalType": "uint256",
          "name": "tokenId",
          "type": "uint256"
        }
      ],
      "name": "Approval",
      "type": "event"
    },
    {
      "anonymous": false,
      "inputs": [
        {
          "indexed": true,
          "internalType": "address",
          "name": "owner",
          "type": "address"
        },
        {
          "indexed": true,
          "internalType": "address",
          "name": "operator",
          "type": "address"
        },
        {
          "indexed": false,
          "internalType": "bool",
          "name": "approved",
          "type": "bool"
        }
      ],
      "name": "ApprovalForAll",
      "type": "event"
    },
    {
      "anonymous": false,
      "inputs": [
        {
          "indexed": false,
          "internalType": "uint256",
          "name": "_gachaId",
          "type": "uint256"
        },
        {
          "indexed": false,
          "internalType": "uint256",
          "name": "_price",
          "type": "uint256"
        }
      ],
      "name": "BoxAdded",
      "type": "event"
    },
    {
      "anonymous": false,
      "inputs": [
        {
          "indexed": false,
          "internalType": "uint256",
          "name": "_tokenId",
          "type": "uint256"
        },
        {
          "indexed": false,
          "internalType": "address",
          "name": "_owner",
          "type": "address"
        }
      ],
      "name": "BoxOpened",
      "type": "event"
    },
    {
      "anonymous": false,
      "inputs": [
        {
          "indexed": false,
          "internalType": "uint256",
          "name": "_price",
          "type": "uint256"
        }
      ],
      "name": "BoxUpdated",
      "type": "event"
    },
    {
      "anonymous": false,
      "inputs": [
        {
          "indexed": true,
          "internalType": "address",
          "name": "previousOwner",
          "type": "address"
        },
        {
          "indexed": true,
          "internalType": "address",
          "name": "newOwner",
          "type": "address"
        }
      ],
      "name": "OwnershipTransferred",
      "type": "event"
    },
    {
      "anonymous": false,
      "inputs": [
        {
          "indexed": false,
          "internalType": "address",
          "name": "account",
          "type": "address"
        }
      ],
      "name": "Paused",
      "type": "event"
    },
    {
      "anonymous": false,
      "inputs": [
        {
          "indexed": true,
          "internalType": "bytes32",
          "name": "role",
          "type": "bytes32"
        },
        {
          "indexed": true,
          "internalType": "bytes32",
          "name": "previousAdminRole",
          "type": "bytes32"
        },
        {
          "indexed": true,
          "internalType": "bytes32",
          "name": "newAdminRole",
          "type": "bytes32"
        }
      ],
      "name": "RoleAdminChanged",
      "type": "event"
    },
    {
      "anonymous": false,
      "inputs": [
        {
          "indexed": true,
          "internalType": "bytes32",
          "name": "role",
          "type": "bytes32"
        },
        {
          "indexed": true,
          "internalType": "address",
          "name": "account",
          "type": "address"
        },
        {
          "indexed": true,
          "internalType": "address",
          "name": "sender",
          "type": "address"
        }
      ],
      "name": "RoleGranted",
      "type": "event"
    },
    {
      "anonymous": false,
      "inputs": [
        {
          "indexed": true,
          "internalType": "bytes32",
          "name": "role",
          "type": "bytes32"
        },
        {
          "indexed": true,
          "internalType": "address",
          "name": "account",
          "type": "address"
        },
        {
          "indexed": true,
          "internalType": "address",
          "name": "sender",
          "type": "address"
        }
      ],
      "name": "RoleRevoked",
      "type": "event"
    },
    {
      "anonymous": false,
      "inputs": [
        {
          "indexed": true,
          "internalType": "address",
          "name": "from",
          "type": "address"
        },
        {
          "indexed": true,
          "internalType": "address",
          "name": "to",
          "type": "address"
        },
        {
          "indexed": true,
          "internalType": "uint256",
          "name": "tokenId",
          "type": "uint256"
        }
      ],
      "name": "Transfer",
      "type": "event"
    },
    {
      "anonymous": false,
      "inputs": [
        {
          "indexed": false,
          "internalType": "address",
          "name": "account",
          "type": "address"
        }
      ],
      "name": "Unpaused",
      "type": "event"
    },
    {
      "inputs": [],
      "name": "DEFAULT_ADMIN_ROLE",
      "outputs": [
        {
          "internalType": "bytes32",
          "name": "",
          "type": "bytes32"
        }
      ],
      "stateMutability": "view",
      "type": "function"
    },
    {
      "inputs": [
        {
          "internalType": "uint256",
          "name": "_price",
          "type": "uint256"
        }
      ],
      "name": "addBox",
      "outputs": [],
      "stateMutability": "nonpayable",
      "type": "function"
    },
    {
      "inputs": [
        {
          "internalType": "address",
          "name": "to",
          "type": "address"
        },
        {
          "internalType": "uint256",
          "name": "tokenId",
          "type": "uint256"
        }
      ],
      "name": "approve",
      "outputs": [],
      "stateMutability": "nonpayable",
      "type": "function"
    },
    {
      "inputs": [
        {
          "internalType": "address",
          "name": "owner",
          "type": "address"
        }
      ],
      "name": "balanceOf",
      "outputs": [
        {
          "internalType": "uint256",
          "name": "",
          "type": "uint256"
        }
      ],
      "stateMutability": "view",
      "type": "function"
    },
    {
      "inputs": [],
      "name": "baseTokenURI",
      "outputs": [
        {
          "internalType": "string",
          "name": "",
          "type": "string"
        }
      ],
      "stateMutability": "view",
      "type": "function"
    },
    {
      "inputs": [
        {
          "internalType": "uint256",
          "name": "_tokenId",
          "type": "uint256"
        }
      ],
      "name": "burn",
      "outputs": [],
      "stateMutability": "nonpayable",
      "type": "function"
    },
    {
      "inputs": [
        {
          "internalType": "uint8",
          "name": "_boxId",
          "type": "uint8"
        }
      ],
      "name": "buyBox",
      "outputs": [],
      "stateMutability": "nonpayable",
      "type": "function"
    },
    {
      "inputs": [
        {
          "internalType": "uint8",
          "name": "_quantity",
          "type": "uint8"
        },
        {
          "internalType": "uint8",
          "name": "_boxId",
          "type": "uint8"
        }
      ],
      "name": "buyMultiGachaBox",
      "outputs": [],
      "stateMutability": "nonpayable",
      "type": "function"
    },
    {
      "inputs": [
        {
          "internalType": "uint256",
          "name": "tokenId",
          "type": "uint256"
        }
      ],
      "name": "getApproved",
      "outputs": [
        {
          "internalType": "address",
          "name": "",
          "type": "address"
        }
      ],
      "stateMutability": "view",
      "type": "function"
    },
    {
      "inputs": [
        {
          "internalType": "bytes32",
          "name": "role",
          "type": "bytes32"
        }
      ],
      "name": "getRoleAdmin",
      "outputs": [
        {
          "internalType": "bytes32",
          "name": "",
          "type": "bytes32"
        }
      ],
      "stateMutability": "view",
      "type": "function"
    },
    {
      "inputs": [
        {
          "internalType": "bytes32",
          "name": "role",
          "type": "bytes32"
        },
        {
          "internalType": "address",
          "name": "account",
          "type": "address"
        }
      ],
      "name": "grantRole",
      "outputs": [],
      "stateMutability": "nonpayable",
      "type": "function"
    },
    {
      "inputs": [
        {
          "internalType": "bytes32",
          "name": "role",
          "type": "bytes32"
        },
        {
          "internalType": "address",
          "name": "account",
          "type": "address"
        }
      ],
      "name": "hasRole",
      "outputs": [
        {
          "internalType": "bool",
          "name": "",
          "type": "bool"
        }
      ],
      "stateMutability": "view",
      "type": "function"
    },
    {
      "inputs": [
        {
          "internalType": "address",
          "name": "owner",
          "type": "address"
        },
        {
          "internalType": "address",
          "name": "operator",
          "type": "address"
        }
      ],
      "name": "isApprovedForAll",
      "outputs": [
        {
          "internalType": "bool",
          "name": "",
          "type": "bool"
        }
      ],
      "stateMutability": "view",
      "type": "function"
    },
    {
      "inputs": [],
      "name": "name",
      "outputs": [
        {
          "internalType": "string",
          "name": "",
          "type": "string"
        }
      ],
      "stateMutability": "view",
      "type": "function"
    },
    {
      "inputs": [],
      "name": "owner",
      "outputs": [
        {
          "internalType": "address",
          "name": "",
          "type": "address"
        }
      ],
      "stateMutability": "view",
      "type": "function"
    },
    {
      "inputs": [
        {
          "internalType": "uint256",
          "name": "tokenId",
          "type": "uint256"
        }
      ],
      "name": "ownerOf",
      "outputs": [
        {
          "internalType": "address",
          "name": "",
          "type": "address"
        }
      ],
      "stateMutability": "view",
      "type": "function"
    },
    {
      "inputs": [],
      "name": "pause",
      "outputs": [],
      "stateMutability": "nonpayable",
      "type": "function"
    },
    {
      "inputs": [],
      "name": "paused",
      "outputs": [
        {
          "internalType": "bool",
          "name": "",
          "type": "bool"
        }
      ],
      "stateMutability": "view",
      "type": "function"
    },
    {
      "inputs": [],
      "name": "renounceOwnership",
      "outputs": [],
      "stateMutability": "nonpayable",
      "type": "function"
    },
    {
      "inputs": [
        {
          "internalType": "bytes32",
          "name": "role",
          "type": "bytes32"
        },
        {
          "internalType": "address",
          "name": "account",
          "type": "address"
        }
      ],
      "name": "renounceRole",
      "outputs": [],
      "stateMutability": "nonpayable",
      "type": "function"
    },
    {
      "inputs": [
        {
          "internalType": "bytes32",
          "name": "role",
          "type": "bytes32"
        },
        {
          "internalType": "address",
          "name": "account",
          "type": "address"
        }
      ],
      "name": "revokeRole",
      "outputs": [],
      "stateMutability": "nonpayable",
      "type": "function"
    },
    {
      "inputs": [
        {
          "internalType": "address",
          "name": "from",
          "type": "address"
        },
        {
          "internalType": "address",
          "name": "to",
          "type": "address"
        },
        {
          "internalType": "uint256",
          "name": "tokenId",
          "type": "uint256"
        }
      ],
      "name": "safeTransferFrom",
      "outputs": [],
      "stateMutability": "nonpayable",
      "type": "function"
    },
    {
      "inputs": [
        {
          "internalType": "address",
          "name": "from",
          "type": "address"
        },
        {
          "internalType": "address",
          "name": "to",
          "type": "address"
        },
        {
          "internalType": "uint256",
          "name": "tokenId",
          "type": "uint256"
        },
        {
          "internalType": "bytes",
          "name": "_data",
          "type": "bytes"
        }
      ],
      "name": "safeTransferFrom",
      "outputs": [],
      "stateMutability": "nonpayable",
      "type": "function"
    },
    {
      "inputs": [
        {
          "internalType": "address",
          "name": "operator",
          "type": "address"
        },
        {
          "internalType": "bool",
          "name": "approved",
          "type": "bool"
        }
      ],
      "name": "setApprovalForAll",
      "outputs": [],
      "stateMutability": "nonpayable",
      "type": "function"
    },
    {
      "inputs": [
        {
          "internalType": "string",
          "name": "baseURI",
          "type": "string"
        }
      ],
      "name": "setBaseURI",
      "outputs": [],
      "stateMutability": "nonpayable",
      "type": "function"
    },
    {
      "inputs": [
        {
          "internalType": "bytes4",
          "name": "interfaceId",
          "type": "bytes4"
        }
      ],
      "name": "supportsInterface",
      "outputs": [
        {
          "internalType": "bool",
          "name": "",
          "type": "bool"
        }
      ],
      "stateMutability": "view",
      "type": "function"
    },
    {
      "inputs": [],
      "name": "symbol",
      "outputs": [
        {
          "internalType": "string",
          "name": "",
          "type": "string"
        }
      ],
      "stateMutability": "view",
      "type": "function"
    },
    {
      "inputs": [],
      "name": "tokenBaseAddress",
      "outputs": [
        {
          "internalType": "address",
          "name": "",
          "type": "address"
        }
      ],
      "stateMutability": "view",
      "type": "function"
    },
    {
      "inputs": [
        {
          "internalType": "uint256",
          "name": "tokenId",
          "type": "uint256"
        }
      ],
      "name": "tokenURI",
      "outputs": [
        {
          "internalType": "string",
          "name": "",
          "type": "string"
        }
      ],
      "stateMutability": "view",
      "type": "function"
    },
    {
      "inputs": [
        {
          "internalType": "address",
          "name": "from",
          "type": "address"
        },
        {
          "internalType": "address",
          "name": "to",
          "type": "address"
        },
        {
          "internalType": "uint256",
          "name": "tokenId",
          "type": "uint256"
        }
      ],
      "name": "transferFrom",
      "outputs": [],
      "stateMutability": "nonpayable",
      "type": "function"
    },
    {
      "inputs": [
        {
          "internalType": "address",
          "name": "newOwner",
          "type": "address"
        }
      ],
      "name": "transferOwnership",
      "outputs": [],
      "stateMutability": "nonpayable",
      "type": "function"
    },
    {
      "inputs": [],
      "name": "unpause",
      "outputs": [],
      "stateMutability": "nonpayable",
      "type": "function"
    },
    {
      "inputs": [
        {
          "internalType": "uint256",
          "name": "_boxId",
          "type": "uint256"
        },
        {
          "internalType": "uint256",
          "name": "_price",
          "type": "uint256"
        }
      ],
      "name": "updateBox",
      "outputs": [],
      "stateMutability": "nonpayable",
      "type": "function"
    },
    {
      "inputs": [
        {
          "internalType": "address",
          "name": "_tokenAddress",
          "type": "address"
        },
        {
          "internalType": "address",
          "name": "_receiver",
          "type": "address"
        },
        {
          "internalType": "uint256",
          "name": "_amount",
          "type": "uint256"
        }
      ],
      "name": "withdrawToken",
      "outputs": [],
      "stateMutability": "nonpayable",
      "type": "function"
    }
  ],
  "bytecode": "0x60806040523480156200001157600080fd5b506040516200567e3803806200567e833981810160405281019062000037919062000961565b6040518060400160405280600b81526020017f4974656d373231204e46540000000000000000000000000000000000000000008152506040518060400160405280600481526020017f434e465400000000000000000000000000000000000000000000000000000000815250620000c3620000b76200019860201b60201c565b620001a060201b60201c565b8160019080519060200190620000db9291906200089a565b508060029080519060200190620000f49291906200089a565b5050506000600760006101000a81548160ff021916908315150217905550620001366000801b6200012a6200019860201b60201c565b6200026460201b60201c565b80600c60006101000a81548173ffffffffffffffffffffffffffffffffffffffff021916908373ffffffffffffffffffffffffffffffffffffffff1602179055506200019168056bc75e2d631000006200027a60201b60201c565b5062000e02565b600033905090565b60008060009054906101000a900473ffffffffffffffffffffffffffffffffffffffff169050816000806101000a81548173ffffffffffffffffffffffffffffffffffffffff021916908373ffffffffffffffffffffffffffffffffffffffff1602179055508173ffffffffffffffffffffffffffffffffffffffff168173ffffffffffffffffffffffffffffffffffffffff167f8be0079c531659141344cd1fd0a4f28419497f9722a3daafe3b4186f6b6457e060405160405180910390a35050565b6200027682826200032260201b60201c565b5050565b6000801b6200028f816200041460201b60201c565b620002a6600a6200043860201b620016111760201c565b6000620002bf600a6200044e60201b620016271760201c565b90506000600e600083815260200190815260200160002090508381600001819055507f8d63b95c820fada2108f3658332e6ec32cc66ad8b7f6ad8c2f04fa4e8125f94e82856040516200031492919062000b13565b60405180910390a150505050565b6200033482826200045c60201b60201c565b620004105760016008600084815260200190815260200160002060000160008373ffffffffffffffffffffffffffffffffffffffff1673ffffffffffffffffffffffffffffffffffffffff16815260200190815260200160002060006101000a81548160ff021916908315150217905550620003b56200019860201b60201c565b73ffffffffffffffffffffffffffffffffffffffff168173ffffffffffffffffffffffffffffffffffffffff16837f2f8788117e7eff1d82e926ec794901d17c78024a50270940304540a733656f0d60405160405180910390a45b5050565b6200043581620004296200019860201b60201c565b620004c760201b60201c565b50565b6001816000016000828254019250508190555050565b600081600001549050919050565b60006008600084815260200190815260200160002060000160008373ffffffffffffffffffffffffffffffffffffffff1673ffffffffffffffffffffffffffffffffffffffff16815260200190815260200160002060009054906101000a900460ff16905092915050565b620004d982826200045c60201b60201c565b62000587576200050c8173ffffffffffffffffffffffffffffffffffffffff1660146200058b60201b620016351760201c565b620005278360001c60206200058b60201b620016351760201c565b6040516020016200053a92919062000a8b565b6040516020818303038152906040526040517f08c379a00000000000000000000000000000000000000000000000000000000081526004016200057e919062000acd565b60405180910390fd5b5050565b606060006002836002620005a0919062000bc4565b620005ac919062000b67565b67ffffffffffffffff811115620005ec577f4e487b7100000000000000000000000000000000000000000000000000000000600052604160045260246000fd5b6040519080825280601f01601f1916602001820160405280156200061f5781602001600182028036833780820191505090505b5090507f3000000000000000000000000000000000000000000000000000000000000000816000815181106200067e577f4e487b7100000000000000000000000000000000000000000000000000000000600052603260045260246000fd5b60200101907effffffffffffffffffffffffffffffffffffffffffffffffffffffffffffff1916908160001a9053507f78000000000000000000000000000000000000000000000000000000000000008160018151811062000709577f4e487b7100000000000000000000000000000000000000000000000000000000600052603260045260246000fd5b60200101907effffffffffffffffffffffffffffffffffffffffffffffffffffffffffffff1916908160001a905350600060018460026200074b919062000bc4565b62000757919062000b67565b90505b600181111562000849577f3031323334353637383961626364656600000000000000000000000000000000600f861660108110620007c1577f4e487b7100000000000000000000000000000000000000000000000000000000600052603260045260246000fd5b1a60f81b828281518110620007ff577f4e487b7100000000000000000000000000000000000000000000000000000000600052603260045260246000fd5b60200101907effffffffffffffffffffffffffffffffffffffffffffffffffffffffffffff1916908160001a905350600485901c945080620008419062000c99565b90506200075a565b506000841462000890576040517f08c379a0000000000000000000000000000000000000000000000000000000008152600401620008879062000af1565b60405180910390fd5b8091505092915050565b828054620008a89062000cc8565b90600052602060002090601f016020900481019282620008cc576000855562000918565b82601f10620008e757805160ff191683800117855562000918565b8280016001018555821562000918579182015b8281111562000917578251825591602001919060010190620008fa565b5b5090506200092791906200092b565b5090565b5b80821115620009465760008160009055506001016200092c565b5090565b6000815190506200095b8162000de8565b92915050565b6000602082840312156200097457600080fd5b600062000984848285016200094a565b91505092915050565b60006200099a8262000b40565b620009a6818562000b4b565b9350620009b881856020860162000c63565b620009c38162000d5c565b840191505092915050565b6000620009db8262000b40565b620009e7818562000b5c565b9350620009f981856020860162000c63565b80840191505092915050565b600062000a1460208362000b4b565b915062000a218262000d6d565b602082019050919050565b600062000a3b60178362000b5c565b915062000a488262000d96565b601782019050919050565b600062000a6260118362000b5c565b915062000a6f8262000dbf565b601182019050919050565b62000a858162000c59565b82525050565b600062000a988262000a2c565b915062000aa68285620009ce565b915062000ab38262000a53565b915062000ac18284620009ce565b91508190509392505050565b6000602082019050818103600083015262000ae981846200098d565b905092915050565b6000602082019050818103600083015262000b0c8162000a05565b9050919050565b600060408201905062000b2a600083018562000a7a565b62000b39602083018462000a7a565b9392505050565b600081519050919050565b600082825260208201905092915050565b600081905092915050565b600062000b748262000c59565b915062000b818362000c59565b9250827fffffffffffffffffffffffffffffffffffffffffffffffffffffffffffffffff0382111562000bb95762000bb862000cfe565b5b828201905092915050565b600062000bd18262000c59565b915062000bde8362000c59565b9250817fffffffffffffffffffffffffffffffffffffffffffffffffffffffffffffffff048311821515161562000c1a5762000c1962000cfe565b5b828202905092915050565b600062000c328262000c39565b9050919050565b600073ffffffffffffffffffffffffffffffffffffffff82169050919050565b6000819050919050565b60005b8381101562000c8357808201518184015260208101905062000c66565b8381111562000c93576000848401525b50505050565b600062000ca68262000c59565b9150600082141562000cbd5762000cbc62000cfe565b5b600182039050919050565b6000600282049050600182168062000ce157607f821691505b6020821081141562000cf85762000cf762000d2d565b5b50919050565b7f4e487b7100000000000000000000000000000000000000000000000000000000600052601160045260246000fd5b7f4e487b7100000000000000000000000000000000000000000000000000000000600052602260045260246000fd5b6000601f19601f8301169050919050565b7f537472696e67733a20686578206c656e67746820696e73756666696369656e74600082015250565b7f416363657373436f6e74726f6c3a206163636f756e7420000000000000000000600082015250565b7f206973206d697373696e6720726f6c6520000000000000000000000000000000600082015250565b62000df38162000c25565b811462000dff57600080fd5b50565b61486c8062000e126000396000f3fe608060405234801561001057600080fd5b50600436106102065760003560e01c806370a082311161011a578063b88d4fde116100ad578063d547741f1161007c578063d547741f14610597578063d547cfb7146105b3578063e985e9c5146105d1578063f2fde38b14610601578063f8bd9cc41461061d57610206565b8063b88d4fde14610513578063c261a2681461052f578063c4d5e23a1461054b578063c87b56dd1461056757610206565b806391d14854116100e957806391d148541461048b57806395d89b41146104bb578063a217fddf146104d9578063a22cb465146104f757610206565b806370a0823114610429578063715018a6146104595780638456cb59146104635780638da5cb5b1461046d57610206565b8063248a9ca31161019d57806342842e0e1161016c57806342842e0e1461038757806342966c68146103a357806355f804b3146103bf5780635c975abb146103db5780636352211e146103f957610206565b8063248a9ca3146103155780632f2ff15d1461034557806336568abe146103615780633f4ba83a1461037d57610206565b8063095ea7b3116101d9578063095ea7b3146102a557806310ecd803146102c157806319494264146102dd57806323b872dd146102f957610206565b806301e336671461020b57806301ffc9a71461022757806306fdde0314610257578063081812fc14610275575b600080fd5b61022560048036038101906102209190613041565b61063b565b005b610241600480360381019061023c9190613211565b6107c9565b60405161024e9190613929565b60405180910390f35b61025f6107db565b60405161026c919061395f565b60405180910390f35b61028f600480360381019061028a91906132a4565b61086d565b60405161029c9190613862565b60405180910390f35b6102bf60048036038101906102ba9190613147565b6108f2565b005b6102db60048036038101906102d691906132a4565b610a0a565b005b6102f760048036038101906102f2919061335b565b610a8e565b005b610313600480360381019061030e9190613041565b610b96565b005b61032f600480360381019061032a91906131ac565b610bf6565b60405161033c9190613944565b60405180910390f35b61035f600480360381019061035a91906131d5565b610c16565b005b61037b600480360381019061037691906131d5565b610c37565b005b610385610cba565b005b6103a1600480360381019061039c9190613041565b610cd2565b005b6103bd60048036038101906103b891906132a4565b610cf2565b005b6103d960048036038101906103d49190613263565b610dda565b005b6103e3610e02565b6040516103f09190613929565b60405180910390f35b610413600480360381019061040e91906132a4565b610e19565b6040516104209190613862565b60405180910390f35b610443600480360381019061043e9190612fdc565b610ecb565b6040516104509190613c81565b60405180910390f35b610461610f83565b005b61046b61100b565b005b610475611023565b6040516104829190613862565b60405180910390f35b6104a560048036038101906104a091906131d5565b61104c565b6040516104b29190613929565b60405180910390f35b6104c36110b7565b6040516104d0919061395f565b60405180910390f35b6104e1611149565b6040516104ee9190613944565b60405180910390f35b610511600480360381019061050c919061310b565b611150565b005b61052d60048036038101906105289190613090565b611166565b005b61054960048036038101906105449190613332565b6111c8565b005b610565600480360381019061056091906132f6565b61129f565b005b610581600480360381019061057c91906132a4565b611309565b60405161058e919061395f565b60405180910390f35b6105b160048036038101906105ac91906131d5565b6113b0565b005b6105bb6113d1565b6040516105c8919061395f565b60405180910390f35b6105eb60048036038101906105e69190613005565b61145f565b6040516105f89190613929565b60405180910390f35b61061b60048036038101906106169190612fdc565b6114f3565b005b6106256115eb565b6040516106329190613862565b60405180910390f35b6000801b6106488161192f565b600c60009054906101000a900473ffffffffffffffffffffffffffffffffffffffff1673ffffffffffffffffffffffffffffffffffffffff166370a08231306040518263ffffffff1660e01b81526004016106a39190613862565b60206040518083038186803b1580156106bb57600080fd5b505afa1580156106cf573d6000803e3d6000fd5b505050506040513d601f19601f820116820180604052508101906106f391906132cd565b821115610735576040517f08c379a000000000000000000000000000000000000000000000000000000000815260040161072c90613c21565b60405180910390fd5b8373ffffffffffffffffffffffffffffffffffffffff1663a9059cbb84846040518363ffffffff1660e01b8152600401610770929190613900565b602060405180830381600087803b15801561078a57600080fd5b505af115801561079e573d6000803e3d6000fd5b505050506040513d601f19601f820116820180604052508101906107c29190613183565b5050505050565b60006107d482611943565b9050919050565b6060600180546107ea90613fc4565b80601f016020809104026020016040519081016040528092919081815260200182805461081690613fc4565b80156108635780601f1061083857610100808354040283529160200191610863565b820191906000526020600020905b81548152906001019060200180831161084657829003601f168201915b5050505050905090565b6000610878826119bd565b6108b7576040517f08c379a00000000000000000000000000000000000000000000000000000000081526004016108ae90613b81565b60405180910390fd5b6005600083815260200190815260200160002060009054906101000a900473ffffffffffffffffffffffffffffffffffffffff169050919050565b60006108fd82610e19565b90508073ffffffffffffffffffffffffffffffffffffffff168373ffffffffffffffffffffffffffffffffffffffff16141561096e576040517f08c379a000000000000000000000000000000000000000000000000000000000815260040161096590613be1565b60405180910390fd5b8073ffffffffffffffffffffffffffffffffffffffff1661098d611a29565b73ffffffffffffffffffffffffffffffffffffffff1614806109bc57506109bb816109b6611a29565b61145f565b5b6109fb576040517f08c379a00000000000000000000000000000000000000000000000000000000081526004016109f290613b01565b60405180910390fd5b610a058383611a31565b505050565b6000801b610a178161192f565b610a21600a611611565b6000610a2d600a611627565b90506000600e600083815260200190815260200160002090508381600001819055507f8d63b95c820fada2108f3658332e6ec32cc66ad8b7f6ad8c2f04fa4e8125f94e8285604051610a80929190613cc5565b60405180910390a150505050565b600c60009054906101000a900473ffffffffffffffffffffffffffffffffffffffff1673ffffffffffffffffffffffffffffffffffffffff166323b872dd33308560ff16600e60008760ff16815260200190815260200160002060000154610af69190613e3f565b6040518463ffffffff1660e01b8152600401610b149392919061387d565b602060405180830381600087803b158015610b2e57600080fd5b505af1158015610b42573d6000803e3d6000fd5b505050506040513d601f19601f82011682018060405250810190610b669190613183565b5060005b8260ff16811015610b9157610b7e33611aea565b8080610b8990614027565b915050610b6a565b505050565b610ba7610ba1611a29565b82611b97565b610be6576040517f08c379a0000000000000000000000000000000000000000000000000000000008152600401610bdd90613c01565b60405180910390fd5b610bf1838383611c75565b505050565b600060086000838152602001908152602001600020600101549050919050565b610c1f82610bf6565b610c288161192f565b610c328383611edc565b505050565b610c3f611a29565b73ffffffffffffffffffffffffffffffffffffffff168173ffffffffffffffffffffffffffffffffffffffff1614610cac576040517f08c379a0000000000000000000000000000000000000000000000000000000008152600401610ca390613c61565b60405180910390fd5b610cb68282611fbd565b5050565b6000801b610cc78161192f565b610ccf61209f565b50565b610ced83838360405180602001604052806000815250611166565b505050565b610cfb816119bd565b610d3a576040517f08c379a0000000000000000000000000000000000000000000000000000000008152600401610d3190613a61565b60405180910390fd5b3373ffffffffffffffffffffffffffffffffffffffff16610d5a82610e19565b73ffffffffffffffffffffffffffffffffffffffff1614610db0576040517f08c379a0000000000000000000000000000000000000000000000000000000008152600401610da790613c41565b60405180910390fd5b610db981612141565b600e6000828152602001908152602001600020600080820160009055505050565b6000801b610de78161192f565b81600d9080519060200190610dfd929190612dac565b505050565b6000600760009054906101000a900460ff16905090565b6000806003600084815260200190815260200160002060009054906101000a900473ffffffffffffffffffffffffffffffffffffffff169050600073ffffffffffffffffffffffffffffffffffffffff168173ffffffffffffffffffffffffffffffffffffffff161415610ec2576040517f08c379a0000000000000000000000000000000000000000000000000000000008152600401610eb990613b41565b60405180910390fd5b80915050919050565b60008073ffffffffffffffffffffffffffffffffffffffff168273ffffffffffffffffffffffffffffffffffffffff161415610f3c576040517f08c379a0000000000000000000000000000000000000000000000000000000008152600401610f3390613b21565b60405180910390fd5b600460008373ffffffffffffffffffffffffffffffffffffffff1673ffffffffffffffffffffffffffffffffffffffff168152602001908152602001600020549050919050565b610f8b611a29565b73ffffffffffffffffffffffffffffffffffffffff16610fa9611023565b73ffffffffffffffffffffffffffffffffffffffff1614610fff576040517f08c379a0000000000000000000000000000000000000000000000000000000008152600401610ff690613ba1565b60405180910390fd5b611009600061225e565b565b6000801b6110188161192f565b611020612322565b50565b60008060009054906101000a900473ffffffffffffffffffffffffffffffffffffffff16905090565b60006008600084815260200190815260200160002060000160008373ffffffffffffffffffffffffffffffffffffffff1673ffffffffffffffffffffffffffffffffffffffff16815260200190815260200160002060009054906101000a900460ff16905092915050565b6060600280546110c690613fc4565b80601f01602080910402602001604051908101604052809291908181526020018280546110f290613fc4565b801561113f5780601f106111145761010080835404028352916020019161113f565b820191906000526020600020905b81548152906001019060200180831161112257829003601f168201915b5050505050905090565b6000801b81565b61116261115b611a29565b83836123c5565b5050565b611177611171611a29565b83611b97565b6111b6576040517f08c379a00000000000000000000000000000000000000000000000000000000081526004016111ad90613c01565b60405180910390fd5b6111c284848484612532565b50505050565b600c60009054906101000a900473ffffffffffffffffffffffffffffffffffffffff1673ffffffffffffffffffffffffffffffffffffffff166323b872dd3330600e60008660ff168152602001908152602001600020600001546040518463ffffffff1660e01b81526004016112409392919061387d565b602060405180830381600087803b15801561125a57600080fd5b505af115801561126e573d6000803e3d6000fd5b505050506040513d601f19601f820116820180604052508101906112929190613183565b5061129c33611aea565b50565b6000801b6112ac8161192f565b6000600e600085815260200190815260200160002090508281600001819055507fff9259e8a88548ab8607ac978477a2fbb4eca53164e3ee15813bb9af999675b5836040516112fb9190613c81565b60405180910390a150505050565b6060611314826119bd565b611353576040517f08c379a000000000000000000000000000000000000000000000000000000000815260040161134a90613bc1565b60405180910390fd5b600061135d61258e565b9050600081511161137d57604051806020016040528060008152506113a8565b8061138784612620565b604051602001611398929190613804565b6040516020818303038152906040525b915050919050565b6113b982610bf6565b6113c28161192f565b6113cc8383611fbd565b505050565b600d80546113de90613fc4565b80601f016020809104026020016040519081016040528092919081815260200182805461140a90613fc4565b80156114575780601f1061142c57610100808354040283529160200191611457565b820191906000526020600020905b81548152906001019060200180831161143a57829003601f168201915b505050505081565b6000600660008473ffffffffffffffffffffffffffffffffffffffff1673ffffffffffffffffffffffffffffffffffffffff16815260200190815260200160002060008373ffffffffffffffffffffffffffffffffffffffff1673ffffffffffffffffffffffffffffffffffffffff16815260200190815260200160002060009054906101000a900460ff16905092915050565b6114fb611a29565b73ffffffffffffffffffffffffffffffffffffffff16611519611023565b73ffffffffffffffffffffffffffffffffffffffff161461156f576040517f08c379a000000000000000000000000000000000000000000000000000000000815260040161156690613ba1565b60405180910390fd5b600073ffffffffffffffffffffffffffffffffffffffff168173ffffffffffffffffffffffffffffffffffffffff1614156115df576040517f08c379a00000000000000000000000000000000000000000000000000000000081526004016115d690613a01565b60405180910390fd5b6115e88161225e565b50565b600c60009054906101000a900473ffffffffffffffffffffffffffffffffffffffff1681565b6001816000016000828254019250508190555050565b600081600001549050919050565b6060600060028360026116489190613e3f565b6116529190613db8565b67ffffffffffffffff811115611691577f4e487b7100000000000000000000000000000000000000000000000000000000600052604160045260246000fd5b6040519080825280601f01601f1916602001820160405280156116c35781602001600182028036833780820191505090505b5090507f300000000000000000000000000000000000000000000000000000000000000081600081518110611721577f4e487b7100000000000000000000000000000000000000000000000000000000600052603260045260246000fd5b60200101907effffffffffffffffffffffffffffffffffffffffffffffffffffffffffffff1916908160001a9053507f7800000000000000000000000000000000000000000000000000000000000000816001815181106117ab577f4e487b7100000000000000000000000000000000000000000000000000000000600052603260045260246000fd5b60200101907effffffffffffffffffffffffffffffffffffffffffffffffffffffffffffff1916908160001a905350600060018460026117eb9190613e3f565b6117f59190613db8565b90505b60018111156118e1577f3031323334353637383961626364656600000000000000000000000000000000600f86166010811061185d577f4e487b7100000000000000000000000000000000000000000000000000000000600052603260045260246000fd5b1a60f81b82828151811061189a577f4e487b7100000000000000000000000000000000000000000000000000000000600052603260045260246000fd5b60200101907effffffffffffffffffffffffffffffffffffffffffffffffffffffffffffff1916908160001a905350600485901c9450806118da90613f9a565b90506117f8565b5060008414611925576040517f08c379a000000000000000000000000000000000000000000000000000000000815260040161191c90613981565b60405180910390fd5b8091505092915050565b6119408161193b611a29565b6127cd565b50565b60007f7965db0b000000000000000000000000000000000000000000000000000000007bffffffffffffffffffffffffffffffffffffffffffffffffffffffff1916827bffffffffffffffffffffffffffffffffffffffffffffffffffffffff191614806119b657506119b58261286a565b5b9050919050565b60008073ffffffffffffffffffffffffffffffffffffffff166003600084815260200190815260200160002060009054906101000a900473ffffffffffffffffffffffffffffffffffffffff1673ffffffffffffffffffffffffffffffffffffffff1614159050919050565b600033905090565b816005600083815260200190815260200160002060006101000a81548173ffffffffffffffffffffffffffffffffffffffff021916908373ffffffffffffffffffffffffffffffffffffffff160217905550808273ffffffffffffffffffffffffffffffffffffffff16611aa483610e19565b73ffffffffffffffffffffffffffffffffffffffff167f8c5be1e5ebec7d5bd14f71427d1e84f3dd0314c0f7b2291e5b200ac8c7c3b92560405160405180910390a45050565b611af46009611611565b611afe600b611611565b6000611b0a6009611627565b90506000611b18600b611627565b9050611b24838361294c565b6000604051806020016040528083815250905080600f6000858152602001908152602001600020600082015181600001559050507fa43e60ac77e2380a0b75426e635a47f5d59fe2e9b43b1c703fa787d20d2719498385604051611b89929190613c9c565b60405180910390a150505050565b6000611ba2826119bd565b611be1576040517f08c379a0000000000000000000000000000000000000000000000000000000008152600401611bd890613ac1565b60405180910390fd5b6000611bec83610e19565b90508073ffffffffffffffffffffffffffffffffffffffff168473ffffffffffffffffffffffffffffffffffffffff161480611c2e5750611c2d818561145f565b5b80611c6c57508373ffffffffffffffffffffffffffffffffffffffff16611c548461086d565b73ffffffffffffffffffffffffffffffffffffffff16145b91505092915050565b8273ffffffffffffffffffffffffffffffffffffffff16611c9582610e19565b73ffffffffffffffffffffffffffffffffffffffff1614611ceb576040517f08c379a0000000000000000000000000000000000000000000000000000000008152600401611ce290613a21565b60405180910390fd5b600073ffffffffffffffffffffffffffffffffffffffff168273ffffffffffffffffffffffffffffffffffffffff161415611d5b576040517f08c379a0000000000000000000000000000000000000000000000000000000008152600401611d5290613a81565b60405180910390fd5b611d66838383612b26565b611d71600082611a31565b6001600460008573ffffffffffffffffffffffffffffffffffffffff1673ffffffffffffffffffffffffffffffffffffffff1681526020019081526020016000206000828254611dc19190613e99565b925050819055506001600460008473ffffffffffffffffffffffffffffffffffffffff1673ffffffffffffffffffffffffffffffffffffffff1681526020019081526020016000206000828254611e189190613db8565b92505081905550816003600083815260200190815260200160002060006101000a81548173ffffffffffffffffffffffffffffffffffffffff021916908373ffffffffffffffffffffffffffffffffffffffff160217905550808273ffffffffffffffffffffffffffffffffffffffff168473ffffffffffffffffffffffffffffffffffffffff167fddf252ad1be2c89b69c2b068fc378daa952ba7f163c4a11628f55a4df523b3ef60405160405180910390a4611ed7838383612b7e565b505050565b611ee6828261104c565b611fb95760016008600084815260200190815260200160002060000160008373ffffffffffffffffffffffffffffffffffffffff1673ffffffffffffffffffffffffffffffffffffffff16815260200190815260200160002060006101000a81548160ff021916908315150217905550611f5e611a29565b73ffffffffffffffffffffffffffffffffffffffff168173ffffffffffffffffffffffffffffffffffffffff16837f2f8788117e7eff1d82e926ec794901d17c78024a50270940304540a733656f0d60405160405180910390a45b5050565b611fc7828261104c565b1561209b5760006008600084815260200190815260200160002060000160008373ffffffffffffffffffffffffffffffffffffffff1673ffffffffffffffffffffffffffffffffffffffff16815260200190815260200160002060006101000a81548160ff021916908315150217905550612040611a29565b73ffffffffffffffffffffffffffffffffffffffff168173ffffffffffffffffffffffffffffffffffffffff16837ff6391f5c32d9c69d2a47ea670b442974b53935d1edc7fd64eb21e047a839171b60405160405180910390a45b5050565b6120a7610e02565b6120e6576040517f08c379a00000000000000000000000000000000000000000000000000000000081526004016120dd906139c1565b60405180910390fd5b6000600760006101000a81548160ff0219169083151502179055507f5db9ee0a495bf2e6ff9c91a7834c1ba4fdd244a5e8aa4e537bd38aeae4b073aa61212a611a29565b6040516121379190613862565b60405180910390a1565b600061214c82610e19565b905061215a81600084612b26565b612165600083611a31565b6001600460008373ffffffffffffffffffffffffffffffffffffffff1673ffffffffffffffffffffffffffffffffffffffff16815260200190815260200160002060008282546121b59190613e99565b925050819055506003600083815260200190815260200160002060006101000a81549073ffffffffffffffffffffffffffffffffffffffff021916905581600073ffffffffffffffffffffffffffffffffffffffff168273ffffffffffffffffffffffffffffffffffffffff167fddf252ad1be2c89b69c2b068fc378daa952ba7f163c4a11628f55a4df523b3ef60405160405180910390a461225a81600084612b7e565b5050565b60008060009054906101000a900473ffffffffffffffffffffffffffffffffffffffff169050816000806101000a81548173ffffffffffffffffffffffffffffffffffffffff021916908373ffffffffffffffffffffffffffffffffffffffff1602179055508173ffffffffffffffffffffffffffffffffffffffff168173ffffffffffffffffffffffffffffffffffffffff167f8be0079c531659141344cd1fd0a4f28419497f9722a3daafe3b4186f6b6457e060405160405180910390a35050565b61232a610e02565b1561236a576040517f08c379a000000000000000000000000000000000000000000000000000000000815260040161236190613ae1565b60405180910390fd5b6001600760006101000a81548160ff0219169083151502179055507f62e78cea01bee320cd4e420270b5ea74000d11b0c9f74754ebdbfc544b05a2586123ae611a29565b6040516123bb9190613862565b60405180910390a1565b8173ffffffffffffffffffffffffffffffffffffffff168373ffffffffffffffffffffffffffffffffffffffff161415612434576040517f08c379a000000000000000000000000000000000000000000000000000000000815260040161242b90613aa1565b60405180910390fd5b80600660008573ffffffffffffffffffffffffffffffffffffffff1673ffffffffffffffffffffffffffffffffffffffff16815260200190815260200160002060008473ffffffffffffffffffffffffffffffffffffffff1673ffffffffffffffffffffffffffffffffffffffff16815260200190815260200160002060006101000a81548160ff0219169083151502179055508173ffffffffffffffffffffffffffffffffffffffff168373ffffffffffffffffffffffffffffffffffffffff167f17307eab39ab6107e8899845ad3d59bd9653f200f220920489ca2b5937696c31836040516125259190613929565b60405180910390a3505050565b61253d848484611c75565b61254984848484612b83565b612588576040517f08c379a000000000000000000000000000000000000000000000000000000000815260040161257f906139e1565b60405180910390fd5b50505050565b6060600d805461259d90613fc4565b80601f01602080910402602001604051908101604052809291908181526020018280546125c990613fc4565b80156126165780601f106125eb57610100808354040283529160200191612616565b820191906000526020600020905b8154815290600101906020018083116125f957829003601f168201915b5050505050905090565b60606000821415612668576040518060400160405280600181526020017f300000000000000000000000000000000000000000000000000000000000000081525090506127c8565b600082905060005b6000821461269a57808061268390614027565b915050600a826126939190613e0e565b9150612670565b60008167ffffffffffffffff8111156126dc577f4e487b7100000000000000000000000000000000000000000000000000000000600052604160045260246000fd5b6040519080825280601f01601f19166020018201604052801561270e5781602001600182028036833780820191505090505b5090505b600085146127c1576001826127279190613e99565b9150600a856127369190614070565b60306127429190613db8565b60f81b81838151811061277e577f4e487b7100000000000000000000000000000000000000000000000000000000600052603260045260246000fd5b60200101907effffffffffffffffffffffffffffffffffffffffffffffffffffffffffffff1916908160001a905350600a856127ba9190613e0e565b9450612712565b8093505050505b919050565b6127d7828261104c565b612866576127fc8173ffffffffffffffffffffffffffffffffffffffff166014611635565b61280a8360001c6020611635565b60405160200161281b929190613828565b6040516020818303038152906040526040517f08c379a000000000000000000000000000000000000000000000000000000000815260040161285d919061395f565b60405180910390fd5b5050565b60007f80ac58cd000000000000000000000000000000000000000000000000000000007bffffffffffffffffffffffffffffffffffffffffffffffffffffffff1916827bffffffffffffffffffffffffffffffffffffffffffffffffffffffff1916148061293557507f5b5e139f000000000000000000000000000000000000000000000000000000007bffffffffffffffffffffffffffffffffffffffffffffffffffffffff1916827bffffffffffffffffffffffffffffffffffffffffffffffffffffffff1916145b80612945575061294482612d1a565b5b9050919050565b600073ffffffffffffffffffffffffffffffffffffffff168273ffffffffffffffffffffffffffffffffffffffff1614156129bc576040517f08c379a00000000000000000000000000000000000000000000000000000000081526004016129b390613b61565b60405180910390fd5b6129c5816119bd565b15612a05576040517f08c379a00000000000000000000000000000000000000000000000000000000081526004016129fc90613a41565b60405180910390fd5b612a1160008383612b26565b6001600460008473ffffffffffffffffffffffffffffffffffffffff1673ffffffffffffffffffffffffffffffffffffffff1681526020019081526020016000206000828254612a619190613db8565b92505081905550816003600083815260200190815260200160002060006101000a81548173ffffffffffffffffffffffffffffffffffffffff021916908373ffffffffffffffffffffffffffffffffffffffff160217905550808273ffffffffffffffffffffffffffffffffffffffff16600073ffffffffffffffffffffffffffffffffffffffff167fddf252ad1be2c89b69c2b068fc378daa952ba7f163c4a11628f55a4df523b3ef60405160405180910390a4612b2260008383612b7e565b5050565b612b31838383612d84565b612b39610e02565b15612b79576040517f08c379a0000000000000000000000000000000000000000000000000000000008152600401612b70906139a1565b60405180910390fd5b505050565b505050565b6000612ba48473ffffffffffffffffffffffffffffffffffffffff16612d89565b15612d0d578373ffffffffffffffffffffffffffffffffffffffff1663150b7a02612bcd611a29565b8786866040518563ffffffff1660e01b8152600401612bef94939291906138b4565b602060405180830381600087803b158015612c0957600080fd5b505af1925050508015612c3a57506040513d601f19601f82011682018060405250810190612c37919061323a565b60015b612cbd573d8060008114612c6a576040519150601f19603f3d011682016040523d82523d6000602084013e612c6f565b606091505b50600081511415612cb5576040517f08c379a0000000000000000000000000000000000000000000000000000000008152600401612cac906139e1565b60405180910390fd5b805181602001fd5b63150b7a0260e01b7bffffffffffffffffffffffffffffffffffffffffffffffffffffffff1916817bffffffffffffffffffffffffffffffffffffffffffffffffffffffff191614915050612d12565b600190505b949350505050565b60007f01ffc9a7000000000000000000000000000000000000000000000000000000007bffffffffffffffffffffffffffffffffffffffffffffffffffffffff1916827bffffffffffffffffffffffffffffffffffffffffffffffffffffffff1916149050919050565b505050565b6000808273ffffffffffffffffffffffffffffffffffffffff163b119050919050565b828054612db890613fc4565b90600052602060002090601f016020900481019282612dda5760008555612e21565b82601f10612df357805160ff1916838001178555612e21565b82800160010185558215612e21579182015b82811115612e20578251825591602001919060010190612e05565b5b509050612e2e9190612e32565b5090565b5b80821115612e4b576000816000905550600101612e33565b5090565b6000612e62612e5d84613d13565b613cee565b905082815260208101848484011115612e7a57600080fd5b612e85848285613f58565b509392505050565b6000612ea0612e9b84613d44565b613cee565b905082815260208101848484011115612eb857600080fd5b612ec3848285613f58565b509392505050565b600081359050612eda816147ac565b92915050565b600081359050612eef816147c3565b92915050565b600081519050612f04816147c3565b92915050565b600081359050612f19816147da565b92915050565b600081359050612f2e816147f1565b92915050565b600081519050612f43816147f1565b92915050565b600082601f830112612f5a57600080fd5b8135612f6a848260208601612e4f565b91505092915050565b600082601f830112612f8457600080fd5b8135612f94848260208601612e8d565b91505092915050565b600081359050612fac81614808565b92915050565b600081519050612fc181614808565b92915050565b600081359050612fd68161481f565b92915050565b600060208284031215612fee57600080fd5b6000612ffc84828501612ecb565b91505092915050565b6000806040838503121561301857600080fd5b600061302685828601612ecb565b925050602061303785828601612ecb565b9150509250929050565b60008060006060848603121561305657600080fd5b600061306486828701612ecb565b935050602061307586828701612ecb565b925050604061308686828701612f9d565b9150509250925092565b600080600080608085870312156130a657600080fd5b60006130b487828801612ecb565b94505060206130c587828801612ecb565b93505060406130d687828801612f9d565b925050606085013567ffffffffffffffff8111156130f357600080fd5b6130ff87828801612f49565b91505092959194509250565b6000806040838503121561311e57600080fd5b600061312c85828601612ecb565b925050602061313d85828601612ee0565b9150509250929050565b6000806040838503121561315a57600080fd5b600061316885828601612ecb565b925050602061317985828601612f9d565b9150509250929050565b60006020828403121561319557600080fd5b60006131a384828501612ef5565b91505092915050565b6000602082840312156131be57600080fd5b60006131cc84828501612f0a565b91505092915050565b600080604083850312156131e857600080fd5b60006131f685828601612f0a565b925050602061320785828601612ecb565b9150509250929050565b60006020828403121561322357600080fd5b600061323184828501612f1f565b91505092915050565b60006020828403121561324c57600080fd5b600061325a84828501612f34565b91505092915050565b60006020828403121561327557600080fd5b600082013567ffffffffffffffff81111561328f57600080fd5b61329b84828501612f73565b91505092915050565b6000602082840312156132b657600080fd5b60006132c484828501612f9d565b91505092915050565b6000602082840312156132df57600080fd5b60006132ed84828501612fb2565b91505092915050565b6000806040838503121561330957600080fd5b600061331785828601612f9d565b925050602061332885828601612f9d565b9150509250929050565b60006020828403121561334457600080fd5b600061335284828501612fc7565b91505092915050565b6000806040838503121561336e57600080fd5b600061337c85828601612fc7565b925050602061338d85828601612fc7565b9150509250929050565b6133a081613ecd565b82525050565b6133af81613edf565b82525050565b6133be81613eeb565b82525050565b60006133cf82613d75565b6133d98185613d8b565b93506133e9818560208601613f67565b6133f28161415d565b840191505092915050565b600061340882613d80565b6134128185613d9c565b9350613422818560208601613f67565b61342b8161415d565b840191505092915050565b600061344182613d80565b61344b8185613dad565b935061345b818560208601613f67565b80840191505092915050565b6000613474602083613d9c565b915061347f8261416e565b602082019050919050565b6000613497602b83613d9c565b91506134a282614197565b604082019050919050565b60006134ba601483613d9c565b91506134c5826141e6565b602082019050919050565b60006134dd603283613d9c565b91506134e88261420f565b604082019050919050565b6000613500602683613d9c565b915061350b8261425e565b604082019050919050565b6000613523602583613d9c565b915061352e826142ad565b604082019050919050565b6000613546601c83613d9c565b9150613551826142fc565b602082019050919050565b6000613569601983613d9c565b915061357482614325565b602082019050919050565b600061358c602483613d9c565b91506135978261434e565b604082019050919050565b60006135af601983613d9c565b91506135ba8261439d565b602082019050919050565b60006135d2602c83613d9c565b91506135dd826143c6565b604082019050919050565b60006135f5601083613d9c565b915061360082614415565b602082019050919050565b6000613618603883613d9c565b91506136238261443e565b604082019050919050565b600061363b602a83613d9c565b91506136468261448d565b604082019050919050565b600061365e602983613d9c565b9150613669826144dc565b604082019050919050565b6000613681602083613d9c565b915061368c8261452b565b602082019050919050565b60006136a4602c83613d9c565b91506136af82614554565b604082019050919050565b60006136c7602083613d9c565b91506136d2826145a3565b602082019050919050565b60006136ea602f83613d9c565b91506136f5826145cc565b604082019050919050565b600061370d602183613d9c565b91506137188261461b565b604082019050919050565b6000613730603183613d9c565b915061373b8261466a565b604082019050919050565b6000613753601883613d9c565b915061375e826146b9565b602082019050919050565b6000613776601b83613d9c565b9150613781826146e2565b602082019050919050565b6000613799601783613dad565b91506137a48261470b565b601782019050919050565b60006137bc601183613dad565b91506137c782614734565b601182019050919050565b60006137df602f83613d9c565b91506137ea8261475d565b604082019050919050565b6137fe81613f41565b82525050565b60006138108285613436565b915061381c8284613436565b91508190509392505050565b60006138338261378c565b915061383f8285613436565b915061384a826137af565b91506138568284613436565b91508190509392505050565b60006020820190506138776000830184613397565b92915050565b60006060820190506138926000830186613397565b61389f6020830185613397565b6138ac60408301846137f5565b949350505050565b60006080820190506138c96000830187613397565b6138d66020830186613397565b6138e360408301856137f5565b81810360608301526138f581846133c4565b905095945050505050565b60006040820190506139156000830185613397565b61392260208301846137f5565b9392505050565b600060208201905061393e60008301846133a6565b92915050565b600060208201905061395960008301846133b5565b92915050565b6000602082019050818103600083015261397981846133fd565b905092915050565b6000602082019050818103600083015261399a81613467565b9050919050565b600060208201905081810360008301526139ba8161348a565b9050919050565b600060208201905081810360008301526139da816134ad565b9050919050565b600060208201905081810360008301526139fa816134d0565b9050919050565b60006020820190508181036000830152613a1a816134f3565b9050919050565b60006020820190508181036000830152613a3a81613516565b9050919050565b60006020820190508181036000830152613a5a81613539565b9050919050565b60006020820190508181036000830152613a7a8161355c565b9050919050565b60006020820190508181036000830152613a9a8161357f565b9050919050565b60006020820190508181036000830152613aba816135a2565b9050919050565b60006020820190508181036000830152613ada816135c5565b9050919050565b60006020820190508181036000830152613afa816135e8565b9050919050565b60006020820190508181036000830152613b1a8161360b565b9050919050565b60006020820190508181036000830152613b3a8161362e565b9050919050565b60006020820190508181036000830152613b5a81613651565b9050919050565b60006020820190508181036000830152613b7a81613674565b9050919050565b60006020820190508181036000830152613b9a81613697565b9050919050565b60006020820190508181036000830152613bba816136ba565b9050919050565b60006020820190508181036000830152613bda816136dd565b9050919050565b60006020820190508181036000830152613bfa81613700565b9050919050565b60006020820190508181036000830152613c1a81613723565b9050919050565b60006020820190508181036000830152613c3a81613746565b9050919050565b60006020820190508181036000830152613c5a81613769565b9050919050565b60006020820190508181036000830152613c7a816137d2565b9050919050565b6000602082019050613c9660008301846137f5565b92915050565b6000604082019050613cb160008301856137f5565b613cbe6020830184613397565b9392505050565b6000604082019050613cda60008301856137f5565b613ce760208301846137f5565b9392505050565b6000613cf8613d09565b9050613d048282613ff6565b919050565b6000604051905090565b600067ffffffffffffffff821115613d2e57613d2d61412e565b5b613d378261415d565b9050602081019050919050565b600067ffffffffffffffff821115613d5f57613d5e61412e565b5b613d688261415d565b9050602081019050919050565b600081519050919050565b600081519050919050565b600082825260208201905092915050565b600082825260208201905092915050565b600081905092915050565b6000613dc382613f41565b9150613dce83613f41565b9250827fffffffffffffffffffffffffffffffffffffffffffffffffffffffffffffffff03821115613e0357613e026140a1565b5b828201905092915050565b6000613e1982613f41565b9150613e2483613f41565b925082613e3457613e336140d0565b5b828204905092915050565b6000613e4a82613f41565b9150613e5583613f41565b9250817fffffffffffffffffffffffffffffffffffffffffffffffffffffffffffffffff0483118215151615613e8e57613e8d6140a1565b5b828202905092915050565b6000613ea482613f41565b9150613eaf83613f41565b925082821015613ec257613ec16140a1565b5b828203905092915050565b6000613ed882613f21565b9050919050565b60008115159050919050565b6000819050919050565b60007fffffffff0000000000000000000000000000000000000000000000000000000082169050919050565b600073ffffffffffffffffffffffffffffffffffffffff82169050919050565b6000819050919050565b600060ff82169050919050565b82818337600083830152505050565b60005b83811015613f85578082015181840152602081019050613f6a565b83811115613f94576000848401525b50505050565b6000613fa582613f41565b91506000821415613fb957613fb86140a1565b5b600182039050919050565b60006002820490506001821680613fdc57607f821691505b60208210811415613ff057613fef6140ff565b5b50919050565b613fff8261415d565b810181811067ffffffffffffffff8211171561401e5761401d61412e565b5b80604052505050565b600061403282613f41565b91507fffffffffffffffffffffffffffffffffffffffffffffffffffffffffffffffff821415614065576140646140a1565b5b600182019050919050565b600061407b82613f41565b915061408683613f41565b925082614096576140956140d0565b5b828206905092915050565b7f4e487b7100000000000000000000000000000000000000000000000000000000600052601160045260246000fd5b7f4e487b7100000000000000000000000000000000000000000000000000000000600052601260045260246000fd5b7f4e487b7100000000000000000000000000000000000000000000000000000000600052602260045260246000fd5b7f4e487b7100000000000000000000000000000000000000000000000000000000600052604160045260246000fd5b6000601f19601f8301169050919050565b7f537472696e67733a20686578206c656e67746820696e73756666696369656e74600082015250565b7f4552433732315061757361626c653a20746f6b656e207472616e73666572207760008201527f68696c6520706175736564000000000000000000000000000000000000000000602082015250565b7f5061757361626c653a206e6f7420706175736564000000000000000000000000600082015250565b7f4552433732313a207472616e7366657220746f206e6f6e20455243373231526560008201527f63656976657220696d706c656d656e7465720000000000000000000000000000602082015250565b7f4f776e61626c653a206e6577206f776e657220697320746865207a65726f206160008201527f6464726573730000000000000000000000000000000000000000000000000000602082015250565b7f4552433732313a207472616e736665722066726f6d20696e636f72726563742060008201527f6f776e6572000000000000000000000000000000000000000000000000000000602082015250565b7f4552433732313a20746f6b656e20616c7265616479206d696e74656400000000600082015250565b7f4974656d3a20746f6b656e496420646f6e277420657869737400000000000000600082015250565b7f4552433732313a207472616e7366657220746f20746865207a65726f2061646460008201527f7265737300000000000000000000000000000000000000000000000000000000602082015250565b7f4552433732313a20617070726f766520746f2063616c6c657200000000000000600082015250565b7f4552433732313a206f70657261746f7220717565727920666f72206e6f6e657860008201527f697374656e7420746f6b656e0000000000000000000000000000000000000000602082015250565b7f5061757361626c653a2070617573656400000000000000000000000000000000600082015250565b7f4552433732313a20617070726f76652063616c6c6572206973206e6f74206f7760008201527f6e6572206e6f7220617070726f76656420666f7220616c6c0000000000000000602082015250565b7f4552433732313a2062616c616e636520717565727920666f7220746865207a6560008201527f726f206164647265737300000000000000000000000000000000000000000000602082015250565b7f4552433732313a206f776e657220717565727920666f72206e6f6e657869737460008201527f656e7420746f6b656e0000000000000000000000000000000000000000000000602082015250565b7f4552433732313a206d696e7420746f20746865207a65726f2061646472657373600082015250565b7f4552433732313a20617070726f76656420717565727920666f72206e6f6e657860008201527f697374656e7420746f6b656e0000000000000000000000000000000000000000602082015250565b7f4f776e61626c653a2063616c6c6572206973206e6f7420746865206f776e6572600082015250565b7f4552433732314d657461646174613a2055524920717565727920666f72206e6f60008201527f6e6578697374656e7420746f6b656e0000000000000000000000000000000000602082015250565b7f4552433732313a20617070726f76616c20746f2063757272656e74206f776e6560008201527f7200000000000000000000000000000000000000000000000000000000000000602082015250565b7f4552433732313a207472616e736665722063616c6c6572206973206e6f74206f60008201527f776e6572206e6f7220617070726f766564000000000000000000000000000000602082015250565b7f4974656d3a206e6f7420656e6f7567682062616c616e63650000000000000000600082015250565b7f4974656d3a20596f7520617265206e6f7420746865206f776e65720000000000600082015250565b7f416363657373436f6e74726f6c3a206163636f756e7420000000000000000000600082015250565b7f206973206d697373696e6720726f6c6520000000000000000000000000000000600082015250565b7f416363657373436f6e74726f6c3a2063616e206f6e6c792072656e6f756e636560008201527f20726f6c657320666f722073656c660000000000000000000000000000000000602082015250565b6147b581613ecd565b81146147c057600080fd5b50565b6147cc81613edf565b81146147d757600080fd5b50565b6147e381613eeb565b81146147ee57600080fd5b50565b6147fa81613ef5565b811461480557600080fd5b50565b61481181613f41565b811461481c57600080fd5b50565b61482881613f4b565b811461483357600080fd5b5056fea2646970667358221220b7c8795e517bde33d2a7c896614d126e9f062612f6dbbca7b22487049e821cd264736f6c63430008040033",
  "linkReferences": {},
  "deployedLinkReferences": {}
}