{
  "_format": "hh-sol-artifact-1",
  "contractName": "VipDoNFT",
  "sourceName": "contracts/vNFT/vipNft.sol",
  "abi": [
    {
      "anonymous": false,
      "inputs": [
        {
          "indexed": true,
          "internalType": "address",
          "name": "owner",
          "type": "address"
        },
        {
          "indexed": true,
          "internalType": "address",
          "name": "approved",
          "type": "address"
        },
        {
          "indexed": true,
          "internalType": "uint256",
          "name": "tokenId",
          "type": "uint256"
        }
      ],
      "name": "Approval",
      "type": "event"
    },
    {
      "anonymous": false,
      "inputs": [
        {
          "indexed": true,
          "internalType": "address",
          "name": "owner",
          "type": "address"
        },
        {
          "indexed": true,
          "internalType": "address",
          "name": "operator",
          "type": "address"
        },
        {
          "indexed": false,
          "internalType": "bool",
          "name": "approved",
          "type": "bool"
        }
      ],
      "name": "ApprovalForAll",
      "type": "event"
    },
    {
      "anonymous": false,
      "inputs": [
        {
          "indexed": false,
          "internalType": "address",
          "name": "opreator",
          "type": "address"
        },
        {
          "indexed": false,
          "internalType": "address",
          "name": "to",
          "type": "address"
        },
        {
          "indexed": false,
          "internalType": "uint256",
          "name": "tokenId",
          "type": "uint256"
        },
        {
          "indexed": false,
          "internalType": "uint256",
          "name": "durationId",
          "type": "uint256"
        },
        {
          "indexed": false,
          "internalType": "uint256",
          "name": "oid",
          "type": "uint256"
        },
        {
          "indexed": false,
          "internalType": "uint64",
          "name": "expires",
          "type": "uint64"
        }
      ],
      "name": "CheckIn",
      "type": "event"
    },
    {
      "anonymous": false,
      "inputs": [
        {
          "indexed": false,
          "internalType": "uint256[]",
          "name": "durationIdList",
          "type": "uint256[]"
        }
      ],
      "name": "DurationBurn",
      "type": "event"
    },
    {
      "anonymous": false,
      "inputs": [
        {
          "indexed": false,
          "internalType": "uint256",
          "name": "durationId",
          "type": "uint256"
        },
        {
          "indexed": false,
          "internalType": "uint256",
          "name": "tokenId",
          "type": "uint256"
        },
        {
          "indexed": false,
          "internalType": "uint64",
          "name": "start",
          "type": "uint64"
        },
        {
          "indexed": false,
          "internalType": "uint64",
          "name": "end",
          "type": "uint64"
        }
      ],
      "name": "DurationUpdate",
      "type": "event"
    },
    {
      "anonymous": false,
      "inputs": [
        {
          "indexed": false,
          "internalType": "uint8",
          "name": "version",
          "type": "uint8"
        }
      ],
      "name": "Initialized",
      "type": "event"
    },
    {
      "anonymous": false,
      "inputs": [
        {
          "indexed": false,
          "internalType": "uint256",
          "name": "tokenId",
          "type": "uint256"
        }
      ],
      "name": "MetadataUpdate",
      "type": "event"
    },
    {
      "anonymous": false,
      "inputs": [
        {
          "indexed": false,
          "internalType": "address",
          "name": "oldAdmin",
          "type": "address"
        },
        {
          "indexed": false,
          "internalType": "address",
          "name": "newAdmin",
          "type": "address"
        }
      ],
      "name": "NewAdmin",
      "type": "event"
    },
    {
      "anonymous": false,
      "inputs": [
        {
          "indexed": false,
          "internalType": "address",
          "name": "oldOwner",
          "type": "address"
        },
        {
          "indexed": false,
          "internalType": "address",
          "name": "newOwner",
          "type": "address"
        }
      ],
      "name": "NewOwner",
      "type": "event"
    },
    {
      "anonymous": false,
      "inputs": [
        {
          "indexed": false,
          "internalType": "address",
          "name": "oldPendingOwner",
          "type": "address"
        },
        {
          "indexed": false,
          "internalType": "address",
          "name": "newPendingOwner",
          "type": "address"
        }
      ],
      "name": "NewPendingOwner",
      "type": "event"
    },
    {
      "anonymous": false,
      "inputs": [
        {
          "indexed": true,
          "internalType": "address",
          "name": "from",
          "type": "address"
        },
        {
          "indexed": true,
          "internalType": "address",
          "name": "to",
          "type": "address"
        },
        {
          "indexed": true,
          "internalType": "uint256",
          "name": "tokenId",
          "type": "uint256"
        }
      ],
      "name": "Transfer",
      "type": "event"
    },
    {
      "inputs": [],
      "name": "acceptOwner",
      "outputs": [],
      "stateMutability": "nonpayable",
      "type": "function"
    },
    {
      "inputs": [],
      "name": "admin",
      "outputs": [
        {
          "internalType": "address",
          "name": "",
          "type": "address"
        }
      ],
      "stateMutability": "view",
      "type": "function"
    },
    {
      "inputs": [
        {
          "internalType": "address",
          "name": "to",
          "type": "address"
        },
        {
          "internalType": "uint256",
          "name": "tokenId",
          "type": "uint256"
        }
      ],
      "name": "approve",
      "outputs": [],
      "stateMutability": "nonpayable",
      "type": "function"
    },
    {
      "inputs": [
        {
          "internalType": "address",
          "name": "owner",
          "type": "address"
        }
      ],
      "name": "balanceOf",
      "outputs": [
        {
          "internalType": "uint256",
          "name": "",
          "type": "uint256"
        }
      ],
      "stateMutability": "view",
      "type": "function"
    },
    {
      "inputs": [
        {
          "internalType": "address",
          "name": "to",
          "type": "address"
        },
        {
          "internalType": "uint256",
          "name": "tokenId",
          "type": "uint256"
        },
        {
          "internalType": "uint256",
          "name": "durationId",
          "type": "uint256"
        }
      ],
      "name": "checkIn",
      "outputs": [],
      "stateMutability": "nonpayable",
      "type": "function"
    },
    {
      "inputs": [
        {
          "internalType": "uint256",
          "name": "tokenId",
          "type": "uint256"
        },
        {
          "internalType": "uint256",
          "name": "durationId",
          "type": "uint256"
        },
        {
          "internalType": "uint256",
          "name": "targetTokenId",
          "type": "uint256"
        },
        {
          "internalType": "uint256",
          "name": "targetDurationId",
          "type": "uint256"
        }
      ],
      "name": "concat",
      "outputs": [],
      "stateMutability": "nonpayable",
      "type": "function"
    },
    {
      "inputs": [
        {
          "internalType": "uint256",
          "name": "tokenId",
          "type": "uint256"
        },
        {
          "internalType": "uint256",
          "name": "durationId",
          "type": "uint256"
        }
      ],
      "name": "contains",
      "outputs": [
        {
          "internalType": "bool",
          "name": "",
          "type": "bool"
        }
      ],
      "stateMutability": "view",
      "type": "function"
    },
    {
      "inputs": [],
      "name": "curDoid",
      "outputs": [
        {
          "internalType": "uint256",
          "name": "",
          "type": "uint256"
        }
      ],
      "stateMutability": "view",
      "type": "function"
    },
    {
      "inputs": [],
      "name": "curDurationId",
      "outputs": [
        {
          "internalType": "uint256",
          "name": "",
          "type": "uint256"
        }
      ],
      "stateMutability": "view",
      "type": "function"
    },
    {
      "inputs": [
        {
          "internalType": "uint256",
          "name": "tokenId",
          "type": "uint256"
        }
      ],
      "name": "exists",
      "outputs": [
        {
          "internalType": "bool",
          "name": "",
          "type": "bool"
        }
      ],
      "stateMutability": "view",
      "type": "function"
    },
    {
      "inputs": [
        {
          "internalType": "uint256",
          "name": "tokenId",
          "type": "uint256"
        }
      ],
      "name": "getApproved",
      "outputs": [
        {
          "internalType": "address",
          "name": "",
          "type": "address"
        }
      ],
      "stateMutability": "view",
      "type": "function"
    },
    {
      "inputs": [
        {
          "internalType": "uint256",
          "name": "tokenId",
          "type": "uint256"
        }
      ],
      "name": "getDoNftInfo",
      "outputs": [
        {
          "internalType": "uint256",
          "name": "oid",
          "type": "uint256"
        },
        {
          "internalType": "uint256[]",
          "name": "durationIds",
          "type": "uint256[]"
        },
        {
          "internalType": "uint64[]",
          "name": "starts",
          "type": "uint64[]"
        },
        {
          "internalType": "uint64[]",
          "name": "ends",
          "type": "uint64[]"
        },
        {
          "internalType": "uint64",
          "name": "nonce",
          "type": "uint64"
        }
      ],
      "stateMutability": "view",
      "type": "function"
    },
    {
      "inputs": [
        {
          "internalType": "uint256",
          "name": "durationId",
          "type": "uint256"
        }
      ],
      "name": "getDuration",
      "outputs": [
        {
          "internalType": "uint64",
          "name": "",
          "type": "uint64"
        },
        {
          "internalType": "uint64",
          "name": "",
          "type": "uint64"
        }
      ],
      "stateMutability": "view",
      "type": "function"
    },
    {
      "inputs": [
        {
          "internalType": "uint256",
          "name": "tokenId",
          "type": "uint256"
        },
        {
          "internalType": "uint256",
          "name": "index",
          "type": "uint256"
        }
      ],
      "name": "getDurationByIndex",
      "outputs": [
        {
          "internalType": "uint256",
          "name": "durationId",
          "type": "uint256"
        },
        {
          "internalType": "uint64",
          "name": "start",
          "type": "uint64"
        },
        {
          "internalType": "uint64",
          "name": "end",
          "type": "uint64"
        }
      ],
      "stateMutability": "view",
      "type": "function"
    },
    {
      "inputs": [
        {
          "internalType": "uint256",
          "name": "tokenId",
          "type": "uint256"
        }
      ],
      "name": "getDurationIdList",
      "outputs": [
        {
          "internalType": "uint256[]",
          "name": "",
          "type": "uint256[]"
        }
      ],
      "stateMutability": "view",
      "type": "function"
    },
    {
      "inputs": [
        {
          "internalType": "uint256",
          "name": "tokenId",
          "type": "uint256"
        }
      ],
      "name": "getDurationListLength",
      "outputs": [
        {
          "internalType": "uint256",
          "name": "",
          "type": "uint256"
        }
      ],
      "stateMutability": "view",
      "type": "function"
    },
    {
      "inputs": [],
      "name": "getMaxDuration",
      "outputs": [
        {
          "internalType": "uint64",
          "name": "",
          "type": "uint64"
        }
      ],
      "stateMutability": "view",
      "type": "function"
    },
    {
      "inputs": [
        {
          "internalType": "uint256",
          "name": "tokenId",
          "type": "uint256"
        }
      ],
      "name": "getNonce",
      "outputs": [
        {
          "internalType": "uint64",
          "name": "",
          "type": "uint64"
        }
      ],
      "stateMutability": "view",
      "type": "function"
    },
    {
      "inputs": [],
      "name": "getOriginalNftAddress",
      "outputs": [
        {
          "internalType": "address",
          "name": "",
          "type": "address"
        }
      ],
      "stateMutability": "view",
      "type": "function"
    },
    {
      "inputs": [
        {
          "internalType": "uint256",
          "name": "tokenId",
          "type": "uint256"
        }
      ],
      "name": "getOriginalNftId",
      "outputs": [
        {
          "internalType": "uint256",
          "name": "",
          "type": "uint256"
        }
      ],
      "stateMutability": "view",
      "type": "function"
    },
    {
      "inputs": [
        {
          "internalType": "uint256",
          "name": "originalNftId",
          "type": "uint256"
        }
      ],
      "name": "getUser",
      "outputs": [
        {
          "internalType": "address",
          "name": "",
          "type": "address"
        }
      ],
      "stateMutability": "view",
      "type": "function"
    },
    {
      "inputs": [
        {
          "internalType": "uint256",
          "name": "originalNftId",
          "type": "uint256"
        }
      ],
      "name": "getVNftId",
      "outputs": [
        {
          "internalType": "uint256",
          "name": "",
          "type": "uint256"
        }
      ],
      "stateMutability": "view",
      "type": "function"
    },
    {
      "inputs": [
        {
          "internalType": "address",
          "name": "owner",
          "type": "address"
        },
        {
          "internalType": "address",
          "name": "operator",
          "type": "address"
        }
      ],
      "name": "isApprovedForAll",
      "outputs": [
        {
          "internalType": "bool",
          "name": "",
          "type": "bool"
        }
      ],
      "stateMutability": "view",
      "type": "function"
    },
    {
      "inputs": [
        {
          "internalType": "uint256",
          "name": "oid",
          "type": "uint256"
        }
      ],
      "name": "isCheckInDataExpired",
      "outputs": [
        {
          "internalType": "bool",
          "name": "",
          "type": "bool"
        }
      ],
      "stateMutability": "view",
      "type": "function"
    },
    {
      "inputs": [
        {
          "internalType": "uint256",
          "name": "tokenId",
          "type": "uint256"
        }
      ],
      "name": "isVNft",
      "outputs": [
        {
          "internalType": "bool",
          "name": "",
          "type": "bool"
        }
      ],
      "stateMutability": "view",
      "type": "function"
    },
    {
      "inputs": [
        {
          "internalType": "uint256",
          "name": "tokenId",
          "type": "uint256"
        }
      ],
      "name": "isValidNow",
      "outputs": [
        {
          "internalType": "bool",
          "name": "isValid",
          "type": "bool"
        }
      ],
      "stateMutability": "view",
      "type": "function"
    },
    {
      "inputs": [],
      "name": "market",
      "outputs": [
        {
          "internalType": "address",
          "name": "",
          "type": "address"
        }
      ],
      "stateMutability": "view",
      "type": "function"
    },
    {
      "inputs": [],
      "name": "maxDuration",
      "outputs": [
        {
          "internalType": "uint64",
          "name": "",
          "type": "uint64"
        }
      ],
      "stateMutability": "view",
      "type": "function"
    },
    {
      "inputs": [
        {
          "internalType": "uint256",
          "name": "tokenId",
          "type": "uint256"
        },
        {
          "internalType": "uint256",
          "name": "durationId",
          "type": "uint256"
        },
        {
          "internalType": "uint64",
          "name": "start",
          "type": "uint64"
        },
        {
          "internalType": "uint64",
          "name": "end",
          "type": "uint64"
        },
        {
          "internalType": "address",
          "name": "to",
          "type": "address"
        },
        {
          "internalType": "address",
          "name": "user",
          "type": "address"
        }
      ],
      "name": "mint",
      "outputs": [
        {
          "internalType": "uint256",
          "name": "tid",
          "type": "uint256"
        }
      ],
      "stateMutability": "nonpayable",
      "type": "function"
    },
    {
      "inputs": [
        {
          "internalType": "uint256",
          "name": "oid",
          "type": "uint256"
        }
      ],
      "name": "mintVNft",
      "outputs": [
        {
          "internalType": "uint256",
          "name": "tid",
          "type": "uint256"
        }
      ],
      "stateMutability": "nonpayable",
      "type": "function"
    },
    {
      "inputs": [],
      "name": "name",
      "outputs": [
        {
          "internalType": "string",
          "name": "",
          "type": "string"
        }
      ],
      "stateMutability": "view",
      "type": "function"
    },
    {
      "inputs": [
        {
          "internalType": "address",
          "name": "operator",
          "type": "address"
        },
        {
          "internalType": "address",
          "name": "from",
          "type": "address"
        },
        {
          "internalType": "uint256",
          "name": "tokenId",
          "type": "uint256"
        },
        {
          "internalType": "bytes",
          "name": "data",
          "type": "bytes"
        }
      ],
      "name": "onERC721Received",
      "outputs": [
        {
          "internalType": "bytes4",
          "name": "",
          "type": "bytes4"
        }
      ],
      "stateMutability": "pure",
      "type": "function"
    },
    {
      "inputs": [],
      "name": "owner",
      "outputs": [
        {
          "internalType": "address",
          "name": "",
          "type": "address"
        }
      ],
      "stateMutability": "view",
      "type": "function"
    },
    {
      "inputs": [
        {
          "internalType": "uint256",
          "name": "tokenId",
          "type": "uint256"
        }
      ],
      "name": "ownerOf",
      "outputs": [
        {
          "internalType": "address",
          "name": "",
          "type": "address"
        }
      ],
      "stateMutability": "view",
      "type": "function"
    },
    {
      "inputs": [],
      "name": "pendingOwner",
      "outputs": [
        {
          "internalType": "address",
          "name": "",
          "type": "address"
        }
      ],
      "stateMutability": "view",
      "type": "function"
    },
    {
      "inputs": [],
      "name": "renounceOwnership",
      "outputs": [],
      "stateMutability": "nonpayable",
      "type": "function"
    },
    {
      "inputs": [
        {
          "internalType": "uint256[]",
          "name": "ids",
          "type": "uint256[]"
        },
        {
          "internalType": "address",
          "name": "to",
          "type": "address"
        }
      ],
      "name": "resetExpiredTo",
      "outputs": [],
      "stateMutability": "nonpayable",
      "type": "function"
    },
    {
      "inputs": [
        {
          "internalType": "address",
          "name": "from",
          "type": "address"
        },
        {
          "internalType": "address",
          "name": "to",
          "type": "address"
        },
        {
          "internalType": "uint256",
          "name": "tokenId",
          "type": "uint256"
        }
      ],
      "name": "safeTransferFrom",
      "outputs": [],
      "stateMutability": "nonpayable",
      "type": "function"
    },
    {
      "inputs": [
        {
          "internalType": "address",
          "name": "from",
          "type": "address"
        },
        {
          "internalType": "address",
          "name": "to",
          "type": "address"
        },
        {
          "internalType": "uint256",
          "name": "tokenId",
          "type": "uint256"
        },
        {
          "internalType": "bytes",
          "name": "_data",
          "type": "bytes"
        }
      ],
      "name": "safeTransferFrom",
      "outputs": [],
      "stateMutability": "nonpayable",
      "type": "function"
    },
    {
      "inputs": [
        {
          "internalType": "address",
          "name": "newAdmin",
          "type": "address"
        }
      ],
      "name": "setAdmin",
      "outputs": [],
      "stateMutability": "nonpayable",
      "type": "function"
    },
    {
      "inputs": [
        {
          "internalType": "address",
          "name": "operator",
          "type": "address"
        },
        {
          "internalType": "bool",
          "name": "approved",
          "type": "bool"
        }
      ],
      "name": "setApprovalForAll",
      "outputs": [],
      "stateMutability": "nonpayable",
      "type": "function"
    },
    {
      "inputs": [
        {
          "internalType": "bool",
          "name": "v",
          "type": "bool"
        }
      ],
      "name": "setIsOnlyNow",
      "outputs": [],
      "stateMutability": "nonpayable",
      "type": "function"
    },
    {
      "inputs": [
        {
          "internalType": "address",
          "name": "_market",
          "type": "address"
        }
      ],
      "name": "setMarket",
      "outputs": [],
      "stateMutability": "nonpayable",
      "type": "function"
    },
    {
      "inputs": [
        {
          "internalType": "uint64",
          "name": "v",
          "type": "uint64"
        }
      ],
      "name": "setMaxDuration",
      "outputs": [],
      "stateMutability": "nonpayable",
      "type": "function"
    },
    {
      "inputs": [
        {
          "internalType": "bytes4",
          "name": "interfaceId",
          "type": "bytes4"
        }
      ],
      "name": "supportsInterface",
      "outputs": [
        {
          "internalType": "bool",
          "name": "",
          "type": "bool"
        }
      ],
      "stateMutability": "view",
      "type": "function"
    },
    {
      "inputs": [],
      "name": "symbol",
      "outputs": [
        {
          "internalType": "string",
          "name": "",
          "type": "string"
        }
      ],
      "stateMutability": "view",
      "type": "function"
    },
    {
      "inputs": [
        {
          "internalType": "uint256",
          "name": "tokenId",
          "type": "uint256"
        }
      ],
      "name": "tokenURI",
      "outputs": [
        {
          "internalType": "string",
          "name": "",
          "type": "string"
        }
      ],
      "stateMutability": "view",
      "type": "function"
    },
    {
      "inputs": [
        {
          "internalType": "address",
          "name": "from",
          "type": "address"
        },
        {
          "internalType": "address",
          "name": "to",
          "type": "address"
        },
        {
          "internalType": "uint256",
          "name": "tokenId",
          "type": "uint256"
        }
      ],
      "name": "transferFrom",
      "outputs": [],
      "stateMutability": "nonpayable",
      "type": "function"
    },
    {
      "inputs": [
        {
          "internalType": "address",
          "name": "_pendingOwner",
          "type": "address"
        }
      ],
      "name": "transferOwnership",
      "outputs": [],
      "stateMutability": "nonpayable",
      "type": "function"
    }
  ],
  "bytecode": "0x608060405234801561001057600080fd5b50616ddf80620000216000396000f3fe608060405234801561001057600080fd5b50600436106102ba5760003560e01c806380f5560511610182578063b88d4fde116100e9578063e42e66a9116100a2578063f01478321161007c578063f01478321461095a578063f2fde38b14610976578063f851a44014610992578063fd83de62146109b0576102ba565b8063e42e66a9146108ee578063e985e9c514610920578063ebbc496514610950576102ba565b8063b88d4fde1461081c578063c793c12514610838578063c87b56dd14610854578063d816f09114610884578063dbe102c0146108a0578063e30c3978146108d0576102ba565b8063a22cb4651161013b578063a22cb46514610734578063a6cc265014610750578063a832841214610780578063abb2176a146107b0578063b0467deb146107ce578063b49a2db9146107fe576102ba565b806380f556051461066f5780638bb126a71461068d5780638da5cb5b146106be57806395d89b41146106dc57806398e5d38f146106fa578063a050ac8f14610716576102ba565b80633ed189cf116102265780636352211e116101df5780636352211e146105af5780636db5c8fd146105df5780636dcea85f146105fd578063704b6c021461061957806370a0823114610635578063715018a614610665576102ba565b80633ed189cf1461049f57806342842e0e146104cf578063438e15fc146104eb5780634f558e791461051b57806352332ed81461054b57806358174e061461057f576102ba565b8063150b7a0211610278578063150b7a02146103a55780631aa14498146103d557806323b872dd1461040557806325cb25b014610421578063393b17a41461043f5780633d46b8191461046f576102ba565b806295d645146102bf57806301ffc9a7146102db57806306fdde031461030b578063081812fc14610329578063095ea7b31461035957806310c1185414610375575b600080fd5b6102d960048036038101906102d491906151ec565b6109e0565b005b6102f560048036038101906102f0919061523e565b610ae3565b6040516103029190615bd0565b60405180910390f35b610313610b5d565b6040516103209190615c06565b60405180910390f35b610343600480360381019061033e9190615290565b610bef565b6040516103509190615a86565b60405180910390f35b610373600480360381019061036e919061510d565b610c74565b005b61038f600480360381019061038a9190615358565b610d8c565b60405161039c9190616028565b60405180910390f35b6103bf60048036038101906103ba9190614fd6565b61135a565b6040516103cc9190615beb565b60405180910390f35b6103ef60048036038101906103ea9190615290565b611374565b6040516103fc9190616028565b60405180910390f35b61041f600480360381019061041a9190614f87565b611399565b005b6104296113f9565b6040516104369190615a86565b60405180910390f35b61045960048036038101906104549190615290565b611423565b6040516104669190615bd0565b60405180910390f35b61048960048036038101906104849190615290565b61151e565b6040516104969190616127565b60405180910390f35b6104b960048036038101906104b49190615290565b611552565b6040516104c69190616028565b60405180910390f35b6104e960048036038101906104e49190614f87565b61156f565b005b610505600480360381019061050091906152b9565b61158f565b6040516105129190615bd0565b60405180910390f35b61053560048036038101906105309190615290565b6115c1565b6040516105429190615bd0565b60405180910390f35b61056560048036038101906105609190615290565b6115d3565b604051610576959493929190616043565b60405180910390f35b61059960048036038101906105949190615290565b611865565b6040516105a69190615bd0565b60405180910390f35b6105c960048036038101906105c49190615290565b6118a5565b6040516105d69190615a86565b60405180910390f35b6105e7611957565b6040516105f49190616127565b60405180910390f35b61061760048036038101906106129190614ef9565b611971565b005b610633600480360381019061062e9190614ef9565b611a97565b005b61064f600480360381019061064a9190614ef9565b611bc4565b60405161065c9190616028565b60405180910390f35b61066d611c7c565b005b610677611ee3565b6040516106849190615a86565b60405180910390f35b6106a760048036038101906106a29190615290565b611f09565b6040516106b5929190616142565b60405180910390f35b6106c6611f5f565b6040516106d39190615a86565b60405180910390f35b6106e4611f83565b6040516106f19190615c06565b60405180910390f35b610714600480360381019061070f9190615149565b612015565b005b61071e612076565b60405161072b9190616028565b60405180910390f35b61074e600480360381019061074991906150d1565b61207c565b005b61076a60048036038101906107659190615290565b612092565b6040516107779190616028565b60405180910390f35b61079a60048036038101906107959190615290565b612333565b6040516107a79190615bd0565b60405180910390f35b6107b861237a565b6040516107c59190616028565b60405180910390f35b6107e860048036038101906107e39190615290565b612380565b6040516107f59190615a86565b60405180910390f35b610806612434565b6040516108139190616127565b60405180910390f35b61083660048036038101906108319190615056565b612452565b005b610852600480360381019061084d9190615198565b6124b4565b005b61086e60048036038101906108699190615290565b61261f565b60405161087b9190615c06565b60405180910390f35b61089e600480360381019061089991906152f5565b6126c6565b005b6108ba60048036038101906108b59190615290565b612aeb565b6040516108c79190615bae565b60405180910390f35b6108d8612b18565b6040516108e59190615a86565b60405180910390f35b610908600480360381019061090391906152b9565b612b3e565b604051610917939291906160f0565b60405180910390f35b61093a60048036038101906109359190614f4b565b612bd7565b6040516109479190615bd0565b60405180910390f35b610958612c6b565b005b610974600480360381019061096f91906153e1565b612e79565b005b610990600480360381019061098b9190614ef9565b612f8b565b005b61099a6130b8565b6040516109a79190615a86565b60405180910390f35b6109ca60048036038101906109c59190615290565b6130de565b6040516109d79190616028565b60405180910390f35b600260009054906101000a900473ffffffffffffffffffffffffffffffffffffffff1673ffffffffffffffffffffffffffffffffffffffff163373ffffffffffffffffffffffffffffffffffffffff161480610a87575060008054906101000a900473ffffffffffffffffffffffffffffffffffffffff1673ffffffffffffffffffffffffffffffffffffffff163373ffffffffffffffffffffffffffffffffffffffff16145b610ac6576040517f08c379a0000000000000000000000000000000000000000000000000000000008152600401610abd90615c28565b60405180910390fd5b8060d560006101000a81548160ff02191690831515021790555050565b60007f234f3aae000000000000000000000000000000000000000000000000000000007bffffffffffffffffffffffffffffffffffffffffffffffffffffffff1916827bffffffffffffffffffffffffffffffffffffffffffffffffffffffff19161480610b565750610b5582613105565b5b9050919050565b606060698054610b6c90616499565b80601f0160208091040260200160405190810160405280929190818152602001828054610b9890616499565b8015610be55780601f10610bba57610100808354040283529160200191610be5565b820191906000526020600020905b815481529060010190602001808311610bc857829003601f168201915b5050505050905090565b6000610bfa826131e7565b610c39576040517f08c379a0000000000000000000000000000000000000000000000000000000008152600401610c3090615ea8565b60405180910390fd5b606d600083815260200190815260200160002060009054906101000a900473ffffffffffffffffffffffffffffffffffffffff169050919050565b6000610c7f826118a5565b90508073ffffffffffffffffffffffffffffffffffffffff168373ffffffffffffffffffffffffffffffffffffffff161415610cf0576040517f08c379a0000000000000000000000000000000000000000000000000000000008152600401610ce790615f48565b60405180910390fd5b8073ffffffffffffffffffffffffffffffffffffffff16610d0f613253565b73ffffffffffffffffffffffffffffffffffffffff161480610d3e5750610d3d81610d38613253565b612bd7565b5b610d7d576040517f08c379a0000000000000000000000000000000000000000000000000000000008152600401610d7490615e28565b60405180910390fd5b610d87838361325b565b505050565b60008460d560009054906101000a900460ff1615610df257428167ffffffffffffffff161115610df1576040517f08c379a0000000000000000000000000000000000000000000000000000000008152600401610de890615f88565b60405180910390fd5b5b6002609b541415610e38576040517f08c379a0000000000000000000000000000000000000000000000000000000008152600401610e2f90615fa8565b60405180910390fd5b6002609b81905550428667ffffffffffffffff161015610e56574295505b610e67610e61613253565b89613314565b610ea6576040517f08c379a0000000000000000000000000000000000000000000000000000000008152600401610e9d90615c68565b60405180910390fd5b8567ffffffffffffffff168567ffffffffffffffff16118015610efe575060d160009054906101000a900467ffffffffffffffff1667ffffffffffffffff1642610ef091906162a2565b8567ffffffffffffffff1611155b610f3d576040517f08c379a0000000000000000000000000000000000000000000000000000000008152600401610f3490615dc8565b60405180910390fd5b600060d260008a81526020019081526020016000209050610f5e898961158f565b610f9d576040517f08c379a0000000000000000000000000000000000000000000000000000000008152600401610f9490615d28565b60405180910390fd5b600060d360008a815260200190815260200160002090508060000160009054906101000a900467ffffffffffffffff1667ffffffffffffffff168867ffffffffffffffff161015801561101c57508060000160089054906101000a900467ffffffffffffffff1667ffffffffffffffff168767ffffffffffffffff1611155b61105b576040517f08c379a000000000000000000000000000000000000000000000000000000000815260040161105290615ee8565b60405180910390fd5b60008160000160009054906101000a900467ffffffffffffffff1667ffffffffffffffff168967ffffffffffffffff161480156110c357508160000160089054906101000a900467ffffffffffffffff1667ffffffffffffffff168867ffffffffffffffff16145b1561110c576110d88784600001548b8b613388565b945060d05490506110e98b8b6133af565b60006110f78460020161351b565b1415611107576111068b613530565b5b6112ef565b8160000160009054906101000a900467ffffffffffffffff1667ffffffffffffffff168967ffffffffffffffff1614801561117357508160000160089054906101000a900467ffffffffffffffff1667ffffffffffffffff168867ffffffffffffffff1614155b156111b45760018861118591906162f8565b8260000160006101000a81548167ffffffffffffffff021916908367ffffffffffffffff1602179055506112d7565b8160000160009054906101000a900467ffffffffffffffff1667ffffffffffffffff168967ffffffffffffffff161415801561121b57508160000160089054906101000a900467ffffffffffffffff1667ffffffffffffffff168867ffffffffffffffff16145b1561125c5760018961122d919061639b565b8260000160086101000a81548167ffffffffffffffff021916908367ffffffffffffffff1602179055506112d6565b428967ffffffffffffffff16111561129e5761129d8b8360000160009054906101000a900467ffffffffffffffff1660018c611298919061639b565b613593565b5b6001886112ab91906162f8565b8260000160006101000a81548167ffffffffffffffff021916908367ffffffffffffffff1602179055505b5b6112e78784600001548b8b613388565b945060d05490505b428967ffffffffffffffff16141561130d5761130c868683612015565b5b7ff8e1a15aba9398e019f0b49df1a4fde98ee17ae345cb5f6b5e2c27f5033e8ce78b60405161133c9190616028565b60405180910390a15050506001609b81905550509695505050505050565b60008063150b7a0260e01b90508091505095945050505050565b60008060d2600084815260200190815260200160002090508060000154915050919050565b6113aa6113a4613253565b82613314565b6113e9576040517f08c379a00000000000000000000000000000000000000000000000000000000081526004016113e090615f68565b60405180910390fd5b6113f48383836136b9565b505050565b600060cd60009054906101000a900473ffffffffffffffffffffffffffffffffffffffff16905090565b60008060d26000848152602001908152602001600020905060006114498260020161351b565b9050600080600090505b8281101561151057611471818560020161392090919063ffffffff16565b91504260d3600084815260200190815260200160002060000160009054906101000a900467ffffffffffffffff1667ffffffffffffffff16111580156114eb575060d3600083815260200190815260200160002060000160089054906101000a900467ffffffffffffffff1667ffffffffffffffff164211155b156114fd576001945050505050611519565b8080611508906164fc565b915050611453565b50600093505050505b919050565b600060d2600083815260200190815260200160002060010160009054906101000a900467ffffffffffffffff169050919050565b600060d46000838152602001908152602001600020549050919050565b61158a83838360405180602001604052806000815250612452565b505050565b60006115b98260d2600086815260200190815260200160002060020161393a90919063ffffffff16565b905092915050565b60006115cc826131e7565b9050919050565b6000606080606060008060d260008881526020019081526020016000209050806000015495508060010160009054906101000a900467ffffffffffffffff16915060006116228260020161351b565b905060008167ffffffffffffffff811115611666577f4e487b7100000000000000000000000000000000000000000000000000000000600052604160045260246000fd5b6040519080825280602002602001820160405280156116945781602001602082028036833780820191505090505b5095508167ffffffffffffffff8111156116d7577f4e487b7100000000000000000000000000000000000000000000000000000000600052604160045260246000fd5b6040519080825280602002602001820160405280156117055781602001602082028036833780820191505090505b50945061171483600201613954565b965060005b8281101561185857611737818560020161392090919063ffffffff16565b915060d3600083815260200190815260200160002060000160009054906101000a900467ffffffffffffffff1687828151811061179d577f4e487b7100000000000000000000000000000000000000000000000000000000600052603260045260246000fd5b602002602001019067ffffffffffffffff16908167ffffffffffffffff168152505060d3600083815260200190815260200160002060000160089054906101000a900467ffffffffffffffff16868281518110611823577f4e487b7100000000000000000000000000000000000000000000000000000000600052603260045260246000fd5b602002602001019067ffffffffffffffff16908167ffffffffffffffff16815250508080611850906164fc565b915050611719565b5050505091939590929450565b6000426003600084815260200190815260200160002060010160149054906101000a900467ffffffffffffffff1667ffffffffffffffff16109050919050565b600080606b600084815260200190815260200160002060009054906101000a900473ffffffffffffffffffffffffffffffffffffffff169050600073ffffffffffffffffffffffffffffffffffffffff168173ffffffffffffffffffffffffffffffffffffffff16141561194e576040517f08c379a000000000000000000000000000000000000000000000000000000000815260040161194590615e68565b60405180910390fd5b80915050919050565b60d160009054906101000a900467ffffffffffffffff1681565b60008054906101000a900473ffffffffffffffffffffffffffffffffffffffff1673ffffffffffffffffffffffffffffffffffffffff163373ffffffffffffffffffffffffffffffffffffffff16146119ff576040517f08c379a00000000000000000000000000000000000000000000000000000000081526004016119f690615fe8565b60405180910390fd5b60004690506004811480611a135750606181145b611a52576040517f08c379a0000000000000000000000000000000000000000000000000000000008152600401611a4990615e08565b60405180910390fd5b8160ce60006101000a81548173ffffffffffffffffffffffffffffffffffffffff021916908373ffffffffffffffffffffffffffffffffffffffff1602179055505050565b60008054906101000a900473ffffffffffffffffffffffffffffffffffffffff1673ffffffffffffffffffffffffffffffffffffffff163373ffffffffffffffffffffffffffffffffffffffff1614611b25576040517f08c379a0000000000000000000000000000000000000000000000000000000008152600401611b1c90615fe8565b60405180910390fd5b7ff9ffabca9c8276e99321725bcb43fb076a6c66a54b7f21c4e8146d8519b417dc600260009054906101000a900473ffffffffffffffffffffffffffffffffffffffff1682604051611b78929190615aa1565b60405180910390a180600260006101000a81548173ffffffffffffffffffffffffffffffffffffffff021916908373ffffffffffffffffffffffffffffffffffffffff16021790555050565b60008073ffffffffffffffffffffffffffffffffffffffff168273ffffffffffffffffffffffffffffffffffffffff161415611c35576040517f08c379a0000000000000000000000000000000000000000000000000000000008152600401611c2c90615e48565b60405180910390fd5b606c60008373ffffffffffffffffffffffffffffffffffffffff1673ffffffffffffffffffffffffffffffffffffffff168152602001908152602001600020549050919050565b60008054906101000a900473ffffffffffffffffffffffffffffffffffffffff1673ffffffffffffffffffffffffffffffffffffffff163373ffffffffffffffffffffffffffffffffffffffff1614611d0a576040517f08c379a0000000000000000000000000000000000000000000000000000000008152600401611d0190615fe8565b60405180910390fd5b7f70aea8d848e8a90fb7661b227dc522eb6395c3dac71b63cb59edd5c9899b236460008054906101000a900473ffffffffffffffffffffffffffffffffffffffff166000604051611d5c929190615aa1565b60405180910390a17ff9ffabca9c8276e99321725bcb43fb076a6c66a54b7f21c4e8146d8519b417dc600260009054906101000a900473ffffffffffffffffffffffffffffffffffffffff166000604051611db8929190615aa1565b60405180910390a17fb3d55174552271a4f1aaf36b72f50381e892171636b3fb5447fe00e995e7a37b600160009054906101000a900473ffffffffffffffffffffffffffffffffffffffff166000604051611e14929190615aa1565b60405180910390a160008060006101000a81548173ffffffffffffffffffffffffffffffffffffffff021916908373ffffffffffffffffffffffffffffffffffffffff1602179055506000600160006101000a81548173ffffffffffffffffffffffffffffffffffffffff021916908373ffffffffffffffffffffffffffffffffffffffff1602179055506000600260006101000a81548173ffffffffffffffffffffffffffffffffffffffff021916908373ffffffffffffffffffffffffffffffffffffffff160217905550565b60ce60009054906101000a900473ffffffffffffffffffffffffffffffffffffffff1681565b600080600060d3600085815260200190815260200160002090508060000160009054906101000a900467ffffffffffffffff168160000160089054906101000a900467ffffffffffffffff169250925050915091565b60008054906101000a900473ffffffffffffffffffffffffffffffffffffffff1681565b6060606a8054611f9290616499565b80601f0160208091040260200160405190810160405280929190818152602001828054611fbe90616499565b801561200b5780601f10611fe05761010080835404028352916020019161200b565b820191906000526020600020905b815481529060010190602001808311611fee57829003601f168201915b5050505050905090565b612020838383613975565b600060d36000838152602001908152602001600020905061207060d2600085815260200190815260200160002060000154858360000160089054906101000a900467ffffffffffffffff16613b76565b50505050565b60d05481565b61208e612087613253565b8383613c4c565b5050565b60006002609b5414156120da576040517f08c379a00000000000000000000000000000000000000000000000000000000081526004016120d190615fa8565b60405180910390fd5b6002609b81905550600060d460008481526020019081526020016000205414612138576040517f08c379a000000000000000000000000000000000000000000000000000000000815260040161212f90615ce8565b60405180910390fd5b6121653360cd60009054906101000a900473ffffffffffffffffffffffffffffffffffffffff1684613db9565b6121a4576040517f08c379a000000000000000000000000000000000000000000000000000000000815260040161219b90615ec8565b60405180910390fd5b600060cd60009054906101000a900473ffffffffffffffffffffffffffffffffffffffff1673ffffffffffffffffffffffffffffffffffffffff16636352211e846040518263ffffffff1660e01b81526004016122019190616028565b60206040518083038186803b15801561221957600080fd5b505afa15801561222d573d6000803e3d6000fd5b505050506040513d601f19601f820116820180604052508101906122519190614f22565b905060cd60009054906101000a900473ffffffffffffffffffffffffffffffffffffffff1673ffffffffffffffffffffffffffffffffffffffff166342842e0e8230866040518463ffffffff1660e01b81526004016122b293929190615aca565b600060405180830381600087803b1580156122cc57600080fd5b505af11580156122e0573d6000803e3d6000fd5b505050506122f881844267ffffffffffffffff613388565b91508160d4600085815260200190815260200160002081905550612325838267ffffffffffffffff613b76565b506001609b81905550919050565b6000808214156123465760009050612375565b8160d4600060d26000868152602001908152602001600020600001548152602001908152602001600020541490505b919050565b60cf5481565b600060cd60009054906101000a900473ffffffffffffffffffffffffffffffffffffffff1673ffffffffffffffffffffffffffffffffffffffff1663c2f1f14a836040518263ffffffff1660e01b81526004016123dd9190616028565b60206040518083038186803b1580156123f557600080fd5b505afa158015612409573d6000803e3d6000fd5b505050506040513d601f19601f8201168201806040525081019061242d9190614f22565b9050919050565b600060d160009054906101000a900467ffffffffffffffff16905090565b61246361245d613253565b83613314565b6124a2576040517f08c379a000000000000000000000000000000000000000000000000000000000815260040161249990615f68565b60405180910390fd5b6124ae84848484614031565b50505050565b600260009054906101000a900473ffffffffffffffffffffffffffffffffffffffff1673ffffffffffffffffffffffffffffffffffffffff163373ffffffffffffffffffffffffffffffffffffffff16148061255b575060008054906101000a900473ffffffffffffffffffffffffffffffffffffffff1673ffffffffffffffffffffffffffffffffffffffff163373ffffffffffffffffffffffffffffffffffffffff16145b61259a576040517f08c379a000000000000000000000000000000000000000000000000000000000815260040161259190615c28565b60405180910390fd5b60005b825181101561261a5760008382815181106125e1577f4e487b7100000000000000000000000000000000000000000000000000000000600052603260045260246000fd5b602002602001015190506125f481611865565b156126065761260581846000613b76565b5b508080612612906164fc565b91505061259d565b505050565b606061262a826131e7565b612669576040517f08c379a000000000000000000000000000000000000000000000000000000000815260040161266090615f08565b60405180910390fd5b600061267361408d565b9050600081511161269357604051806020016040528060008152506126be565b8061269d846140a4565b6040516020016126ae929190615a62565b6040516020818303038152906040525b915050919050565b6126d76126d1613253565b85613314565b612716576040517f08c379a000000000000000000000000000000000000000000000000000000000815260040161270d90615f68565b60405180910390fd5b612720848461158f565b61275f576040517f08c379a000000000000000000000000000000000000000000000000000000000815260040161275690615de8565b60405180910390fd5b612768826118a5565b73ffffffffffffffffffffffffffffffffffffffff16612787856118a5565b73ffffffffffffffffffffffffffffffffffffffff16146127dd576040517f08c379a00000000000000000000000000000000000000000000000000000000081526004016127d490615c48565b60405180910390fd5b60d260008381526020019081526020016000206000015460d26000868152602001908152602001600020600001541461284b576040517f08c379a000000000000000000000000000000000000000000000000000000000815260040161284290615d08565b60405180910390fd5b612855828261158f565b612894576040517f08c379a000000000000000000000000000000000000000000000000000000000815260040161288b90615de8565b60405180910390fd5b600060d360008581526020019081526020016000209050600060d3600084815260200190815260200160002090508060000160009054906101000a900467ffffffffffffffff1667ffffffffffffffff168260000160089054906101000a900467ffffffffffffffff1667ffffffffffffffff1610156129bc578060000160009054906101000a900467ffffffffffffffff1667ffffffffffffffff1660018360000160089054906101000a900467ffffffffffffffff1661295691906162f8565b67ffffffffffffffff161461296a57600080fd5b8160000160009054906101000a900467ffffffffffffffff168160000160006101000a81548167ffffffffffffffff021916908367ffffffffffffffff1602179055506129b786866133af565b612ab3565b8160000160009054906101000a900467ffffffffffffffff1667ffffffffffffffff168160000160089054906101000a900467ffffffffffffffff1667ffffffffffffffff161015612ab2578160000160009054906101000a900467ffffffffffffffff1667ffffffffffffffff1660018260000160089054906101000a900467ffffffffffffffff16612a5091906162f8565b67ffffffffffffffff1614612a6457600080fd5b8160000160089054906101000a900467ffffffffffffffff168160000160086101000a81548167ffffffffffffffff021916908367ffffffffffffffff160217905550612ab186866133af565b5b5b6000612ad360d2600089815260200190815260200160002060020161351b565b1415612ae357612ae286613530565b5b505050505050565b6060600060d260008481526020019081526020016000209050612b1081600201613954565b915050919050565b600160009054906101000a900473ffffffffffffffffffffffffffffffffffffffff1681565b60008060008060d260008781526020019081526020016000209050612b658160020161351b565b8510612ba6576040517f08c379a0000000000000000000000000000000000000000000000000000000008152600401612b9d90615d88565b60405180910390fd5b612bbc858260020161392090919063ffffffff16565b9350612bc784611f09565b8093508194505050509250925092565b6000606e60008473ffffffffffffffffffffffffffffffffffffffff1673ffffffffffffffffffffffffffffffffffffffff16815260200190815260200160002060008373ffffffffffffffffffffffffffffffffffffffff1673ffffffffffffffffffffffffffffffffffffffff16815260200190815260200160002060009054906101000a900460ff16905092915050565b600160009054906101000a900473ffffffffffffffffffffffffffffffffffffffff1673ffffffffffffffffffffffffffffffffffffffff163373ffffffffffffffffffffffffffffffffffffffff1614612cfb576040517f08c379a0000000000000000000000000000000000000000000000000000000008152600401612cf290615f28565b60405180910390fd5b7f70aea8d848e8a90fb7661b227dc522eb6395c3dac71b63cb59edd5c9899b236460008054906101000a900473ffffffffffffffffffffffffffffffffffffffff16600160009054906101000a900473ffffffffffffffffffffffffffffffffffffffff16604051612d6e929190615aa1565b60405180910390a1600160009054906101000a900473ffffffffffffffffffffffffffffffffffffffff166000806101000a81548173ffffffffffffffffffffffffffffffffffffffff021916908373ffffffffffffffffffffffffffffffffffffffff16021790555060007fb3d55174552271a4f1aaf36b72f50381e892171636b3fb5447fe00e995e7a37b600160009054906101000a900473ffffffffffffffffffffffffffffffffffffffff1682604051612e2d929190615aa1565b60405180910390a180600160006101000a81548173ffffffffffffffffffffffffffffffffffffffff021916908373ffffffffffffffffffffffffffffffffffffffff16021790555050565b600260009054906101000a900473ffffffffffffffffffffffffffffffffffffffff1673ffffffffffffffffffffffffffffffffffffffff163373ffffffffffffffffffffffffffffffffffffffff161480612f20575060008054906101000a900473ffffffffffffffffffffffffffffffffffffffff1673ffffffffffffffffffffffffffffffffffffffff163373ffffffffffffffffffffffffffffffffffffffff16145b612f5f576040517f08c379a0000000000000000000000000000000000000000000000000000000008152600401612f5690615c28565b60405180910390fd5b8060d160006101000a81548167ffffffffffffffff021916908367ffffffffffffffff16021790555050565b60008054906101000a900473ffffffffffffffffffffffffffffffffffffffff1673ffffffffffffffffffffffffffffffffffffffff163373ffffffffffffffffffffffffffffffffffffffff1614613019576040517f08c379a000000000000000000000000000000000000000000000000000000000815260040161301090615fe8565b60405180910390fd5b7fb3d55174552271a4f1aaf36b72f50381e892171636b3fb5447fe00e995e7a37b600160009054906101000a900473ffffffffffffffffffffffffffffffffffffffff168260405161306c929190615aa1565b60405180910390a180600160006101000a81548173ffffffffffffffffffffffffffffffffffffffff021916908373ffffffffffffffffffffffffffffffffffffffff16021790555050565b600260009054906101000a900473ffffffffffffffffffffffffffffffffffffffff1681565b60006130fe60d2600084815260200190815260200160002060020161351b565b9050919050565b60007f80ac58cd000000000000000000000000000000000000000000000000000000007bffffffffffffffffffffffffffffffffffffffffffffffffffffffff1916827bffffffffffffffffffffffffffffffffffffffffffffffffffffffff191614806131d057507f5b5e139f000000000000000000000000000000000000000000000000000000007bffffffffffffffffffffffffffffffffffffffffffffffffffffffff1916827bffffffffffffffffffffffffffffffffffffffffffffffffffffffff1916145b806131e057506131df82614251565b5b9050919050565b60008073ffffffffffffffffffffffffffffffffffffffff16606b600084815260200190815260200160002060009054906101000a900473ffffffffffffffffffffffffffffffffffffffff1673ffffffffffffffffffffffffffffffffffffffff1614159050919050565b600033905090565b81606d600083815260200190815260200160002060006101000a81548173ffffffffffffffffffffffffffffffffffffffff021916908373ffffffffffffffffffffffffffffffffffffffff160217905550808273ffffffffffffffffffffffffffffffffffffffff166132ce836118a5565b73ffffffffffffffffffffffffffffffffffffffff167f8c5be1e5ebec7d5bd14f71427d1e84f3dd0314c0f7b2291e5b200ac8c7c3b92560405160405180910390a45050565b600060ce60009054906101000a900473ffffffffffffffffffffffffffffffffffffffff1673ffffffffffffffffffffffffffffffffffffffff168373ffffffffffffffffffffffffffffffffffffffff1614156133755760019050613382565b61337f83836142bb565b90505b92915050565b6000613395848484614399565b506133a28560cf5461441b565b60cf549050949350505050565b60d36000828152602001908152602001600020600080820160006101000a81549067ffffffffffffffff02191690556000820160086101000a81549067ffffffffffffffff021916905550506134238160d2600085815260200190815260200160002060020161443990919063ffffffff16565b506000600167ffffffffffffffff811115613467577f4e487b7100000000000000000000000000000000000000000000000000000000600052604160045260246000fd5b6040519080825280602002602001820160405280156134955781602001602082028036833780820191505090505b50905081816000815181106134d3577f4e487b7100000000000000000000000000000000000000000000000000000000600052603260045260246000fd5b6020026020010181815250507fdaf2d83211561a92f21e9184ba96aac6a054d6e4132aa90592fd88eeff75879c8160405161350e9190615bae565b60405180910390a1505050565b600061352982600001614453565b9050919050565b61353981614464565b60d260008281526020019081526020016000206000808201600090556001820160006101000a81549067ffffffffffffffff02191690556002820160008082016000808201600061358a9190614ccb565b50505050505050565b60d060008154809291906135a6906164fc565b919050555060405180604001604052808367ffffffffffffffff1681526020018267ffffffffffffffff1681525060d3600060d054815260200190815260200160002060008201518160000160006101000a81548167ffffffffffffffff021916908367ffffffffffffffff16021790555060208201518160000160086101000a81548167ffffffffffffffff021916908367ffffffffffffffff16021790555090505061367460d05460d2600086815260200190815260200160002060020161458190919063ffffffff16565b507fd89b3a389fda649f6511ea8da7b3cda710b4478a1a29d5e7a92c89b0b669aa1260d0548484846040516136ac94939291906160ab565b60405180910390a1505050565b8273ffffffffffffffffffffffffffffffffffffffff166136d9826118a5565b73ffffffffffffffffffffffffffffffffffffffff161461372f576040517f08c379a000000000000000000000000000000000000000000000000000000000815260040161372690615ca8565b60405180910390fd5b600073ffffffffffffffffffffffffffffffffffffffff168273ffffffffffffffffffffffffffffffffffffffff16141561379f576040517f08c379a000000000000000000000000000000000000000000000000000000000815260040161379690615d48565b60405180910390fd5b6137aa83838361459b565b6137b560008261325b565b6001606c60008573ffffffffffffffffffffffffffffffffffffffff1673ffffffffffffffffffffffffffffffffffffffff16815260200190815260200160002060008282546138059190616367565b925050819055506001606c60008473ffffffffffffffffffffffffffffffffffffffff1673ffffffffffffffffffffffffffffffffffffffff168152602001908152602001600020600082825461385c91906162a2565b9250508190555081606b600083815260200190815260200160002060006101000a81548173ffffffffffffffffffffffffffffffffffffffff021916908373ffffffffffffffffffffffffffffffffffffffff160217905550808273ffffffffffffffffffffffffffffffffffffffff168473ffffffffffffffffffffffffffffffffffffffff167fddf252ad1be2c89b69c2b068fc378daa952ba7f163c4a11628f55a4df523b3ef60405160405180910390a461391b83838361460c565b505050565b600061392f8360000183614611565b60001c905092915050565b600061394c836000018360001b614662565b905092915050565b6060600061396483600001614685565b905060608190508092505050919050565b613986613980613253565b83613314565b6139c5576040517f08c379a00000000000000000000000000000000000000000000000000000000081526004016139bc90615c68565b60405180910390fd5b600060d260008481526020019081526020016000209050600060d360008481526020019081526020016000209050428160000160089054906101000a900467ffffffffffffffff1667ffffffffffffffff161015613a58576040517f08c379a0000000000000000000000000000000000000000000000000000000008152600401613a4f90615fc8565b60405180910390fd5b428160000160009054906101000a900467ffffffffffffffff1667ffffffffffffffff161115613abd576040517f08c379a0000000000000000000000000000000000000000000000000000000008152600401613ab490616008565b60405180910390fd5b613ad3838360020161393a90919063ffffffff16565b613b12576040517f08c379a0000000000000000000000000000000000000000000000000000000008152600401613b0990615de8565b60405180910390fd5b7f241f46f4ab26147c933bd52501926d0ff84727224002739590fdfcf7a6559f123386868686600001548660000160089054906101000a900467ffffffffffffffff16604051613b6796959493929190615b4d565b60405180910390a15050505050565b60405180606001604052808481526020018373ffffffffffffffffffffffffffffffffffffffff1681526020018267ffffffffffffffff16815250600360008581526020019081526020016000206000820151816000015560208201518160010160006101000a81548173ffffffffffffffffffffffffffffffffffffffff021916908373ffffffffffffffffffffffffffffffffffffffff16021790555060408201518160010160146101000a81548167ffffffffffffffff021916908367ffffffffffffffff160217905550905050505050565b8173ffffffffffffffffffffffffffffffffffffffff168373ffffffffffffffffffffffffffffffffffffffff161415613cbb576040517f08c379a0000000000000000000000000000000000000000000000000000000008152600401613cb290615d68565b60405180910390fd5b80606e60008573ffffffffffffffffffffffffffffffffffffffff1673ffffffffffffffffffffffffffffffffffffffff16815260200190815260200160002060008473ffffffffffffffffffffffffffffffffffffffff1673ffffffffffffffffffffffffffffffffffffffff16815260200190815260200160002060006101000a81548160ff0219169083151502179055508173ffffffffffffffffffffffffffffffffffffffff168373ffffffffffffffffffffffffffffffffffffffff167f17307eab39ab6107e8899845ad3d59bd9653f200f220920489ca2b5937696c3183604051613dac9190615bd0565b60405180910390a3505050565b600060ce60009054906101000a900473ffffffffffffffffffffffffffffffffffffffff1673ffffffffffffffffffffffffffffffffffffffff163373ffffffffffffffffffffffffffffffffffffffff161415613e1a576001905061402a565b60008373ffffffffffffffffffffffffffffffffffffffff16636352211e846040518263ffffffff1660e01b8152600401613e559190616028565b60206040518083038186803b158015613e6d57600080fd5b505afa158015613e81573d6000803e3d6000fd5b505050506040513d601f19601f82011682018060405250810190613ea59190614f22565b90508073ffffffffffffffffffffffffffffffffffffffff168573ffffffffffffffffffffffffffffffffffffffff161480613f9457508473ffffffffffffffffffffffffffffffffffffffff168473ffffffffffffffffffffffffffffffffffffffff1663081812fc856040518263ffffffff1660e01b8152600401613f2c9190616028565b60206040518083038186803b158015613f4457600080fd5b505afa158015613f58573d6000803e3d6000fd5b505050506040513d601f19601f82011682018060405250810190613f7c9190614f22565b73ffffffffffffffffffffffffffffffffffffffff16145b8061402657508373ffffffffffffffffffffffffffffffffffffffff1663e985e9c582876040518363ffffffff1660e01b8152600401613fd5929190615aa1565b60206040518083038186803b158015613fed57600080fd5b505afa158015614001573d6000803e3d6000fd5b505050506040513d601f19601f820116820180604052508101906140259190615215565b5b9150505b9392505050565b61403c8484846136b9565b614048848484846146e1565b614087576040517f08c379a000000000000000000000000000000000000000000000000000000000815260040161407e90615c88565b60405180910390fd5b50505050565b606060405180602001604052806000815250905090565b606060008214156140ec576040518060400160405280600181526020017f3000000000000000000000000000000000000000000000000000000000000000815250905061424c565b600082905060005b6000821461411e578080614107906164fc565b915050600a826141179190616336565b91506140f4565b60008167ffffffffffffffff811115614160577f4e487b7100000000000000000000000000000000000000000000000000000000600052604160045260246000fd5b6040519080825280601f01601f1916602001820160405280156141925781602001600182028036833780820191505090505b5090505b60008514614245576001826141ab9190616367565b9150600a856141ba9190616576565b60306141c691906162a2565b60f81b818381518110614202577f4e487b7100000000000000000000000000000000000000000000000000000000600052603260045260246000fd5b60200101907effffffffffffffffffffffffffffffffffffffffffffffffffffffffffffff1916908160001a905350600a8561423e9190616336565b9450614196565b8093505050505b919050565b60007f01ffc9a7000000000000000000000000000000000000000000000000000000007bffffffffffffffffffffffffffffffffffffffffffffffffffffffff1916827bffffffffffffffffffffffffffffffffffffffffffffffffffffffff1916149050919050565b60006142c6826131e7565b614305576040517f08c379a00000000000000000000000000000000000000000000000000000000081526004016142fc90615da8565b60405180910390fd5b6000614310836118a5565b90508073ffffffffffffffffffffffffffffffffffffffff168473ffffffffffffffffffffffffffffffffffffffff16148061435257506143518185612bd7565b5b8061439057508373ffffffffffffffffffffffffffffffffffffffff1661437884610bef565b73ffffffffffffffffffffffffffffffffffffffff16145b91505092915050565b600060cf60008154809291906143ae906164fc565b9190505550600060d2600060cf548152602001908152602001600020905084816000018190555060008160010160006101000a81548167ffffffffffffffff021916908367ffffffffffffffff16021790555061440e60cf548585613593565b60cf549150509392505050565b614435828260405180602001604052806000815250614878565b5050565b600061444b836000018360001b6148d3565b905092915050565b600081600001805490509050919050565b600061446f826118a5565b905061447d8160008461459b565b61448860008361325b565b6001606c60008373ffffffffffffffffffffffffffffffffffffffff1673ffffffffffffffffffffffffffffffffffffffff16815260200190815260200160002060008282546144d89190616367565b92505081905550606b600083815260200190815260200160002060006101000a81549073ffffffffffffffffffffffffffffffffffffffff021916905581600073ffffffffffffffffffffffffffffffffffffffff168273ffffffffffffffffffffffffffffffffffffffff167fddf252ad1be2c89b69c2b068fc378daa952ba7f163c4a11628f55a4df523b3ef60405160405180910390a461457d8160008461460c565b5050565b6000614593836000018360001b614a59565b905092915050565b6145a6838383614ac9565b60d26000828152602001908152602001600020600101600081819054906101000a900467ffffffffffffffff16809291906145e090616545565b91906101000a81548167ffffffffffffffff021916908367ffffffffffffffff16021790555050505050565b505050565b600082600001828154811061464f577f4e487b7100000000000000000000000000000000000000000000000000000000600052603260045260246000fd5b9060005260206000200154905092915050565b600080836001016000848152602001908152602001600020541415905092915050565b6060816000018054806020026020016040519081016040528092919081815260200182805480156146d557602002820191906000526020600020905b8154815260200190600101908083116146c1575b50505050509050919050565b60006147028473ffffffffffffffffffffffffffffffffffffffff16614ace565b1561486b578373ffffffffffffffffffffffffffffffffffffffff1663150b7a0261472b613253565b8786866040518563ffffffff1660e01b815260040161474d9493929190615b01565b602060405180830381600087803b15801561476757600080fd5b505af192505050801561479857506040513d601f19601f820116820180604052508101906147959190615267565b60015b61481b573d80600081146147c8576040519150601f19603f3d011682016040523d82523d6000602084013e6147cd565b606091505b50600081511415614813576040517f08c379a000000000000000000000000000000000000000000000000000000000815260040161480a90615c88565b60405180910390fd5b805181602001fd5b63150b7a0260e01b7bffffffffffffffffffffffffffffffffffffffffffffffffffffffff1916817bffffffffffffffffffffffffffffffffffffffffffffffffffffffff191614915050614870565b600190505b949350505050565b6148828383614af1565b61488f60008484846146e1565b6148ce576040517f08c379a00000000000000000000000000000000000000000000000000000000081526004016148c590615c88565b60405180910390fd5b505050565b60008083600101600084815260200190815260200160002054905060008114614a4d5760006001826149059190616367565b905060006001866000018054905061491d9190616367565b90508181146149d8576000866000018281548110614964577f4e487b7100000000000000000000000000000000000000000000000000000000600052603260045260246000fd5b90600052602060002001549050808760000184815481106149ae577f4e487b7100000000000000000000000000000000000000000000000000000000600052603260045260246000fd5b90600052602060002001819055508387600101600083815260200190815260200160002081905550505b85600001805480614a12577f4e487b7100000000000000000000000000000000000000000000000000000000600052603160045260246000fd5b600190038181906000526020600020016000905590558560010160008681526020019081526020016000206000905560019350505050614a53565b60009150505b92915050565b6000614a658383614662565b614abe578260000182908060018154018082558091505060019003906000526020600020016000909190919091505582600001805490508360010160008481526020019081526020016000208190555060019050614ac3565b600090505b92915050565b505050565b6000808273ffffffffffffffffffffffffffffffffffffffff163b119050919050565b600073ffffffffffffffffffffffffffffffffffffffff168273ffffffffffffffffffffffffffffffffffffffff161415614b61576040517f08c379a0000000000000000000000000000000000000000000000000000000008152600401614b5890615e88565b60405180910390fd5b614b6a816131e7565b15614baa576040517f08c379a0000000000000000000000000000000000000000000000000000000008152600401614ba190615cc8565b60405180910390fd5b614bb66000838361459b565b6001606c60008473ffffffffffffffffffffffffffffffffffffffff1673ffffffffffffffffffffffffffffffffffffffff1681526020019081526020016000206000828254614c0691906162a2565b9250508190555081606b600083815260200190815260200160002060006101000a81548173ffffffffffffffffffffffffffffffffffffffff021916908373ffffffffffffffffffffffffffffffffffffffff160217905550808273ffffffffffffffffffffffffffffffffffffffff16600073ffffffffffffffffffffffffffffffffffffffff167fddf252ad1be2c89b69c2b068fc378daa952ba7f163c4a11628f55a4df523b3ef60405160405180910390a4614cc76000838361460c565b5050565b5080546000825590600052602060002090810190614ce99190614cec565b50565b5b80821115614d05576000816000905550600101614ced565b5090565b6000614d1c614d1784616190565b61616b565b90508083825260208201905082856020860282011115614d3b57600080fd5b60005b85811015614d6b5781614d518882614ecf565b845260208401935060208301925050600181019050614d3e565b5050509392505050565b6000614d88614d83846161bc565b61616b565b905082815260208101848484011115614da057600080fd5b614dab848285616457565b509392505050565b600081359050614dc281616d36565b92915050565b600081519050614dd781616d36565b92915050565b600082601f830112614dee57600080fd5b8135614dfe848260208601614d09565b91505092915050565b600081359050614e1681616d4d565b92915050565b600081519050614e2b81616d4d565b92915050565b600081359050614e4081616d64565b92915050565b600081519050614e5581616d64565b92915050565b60008083601f840112614e6d57600080fd5b8235905067ffffffffffffffff811115614e8657600080fd5b602083019150836001820283011115614e9e57600080fd5b9250929050565b600082601f830112614eb657600080fd5b8135614ec6848260208601614d75565b91505092915050565b600081359050614ede81616d7b565b92915050565b600081359050614ef381616d92565b92915050565b600060208284031215614f0b57600080fd5b6000614f1984828501614db3565b91505092915050565b600060208284031215614f3457600080fd5b6000614f4284828501614dc8565b91505092915050565b60008060408385031215614f5e57600080fd5b6000614f6c85828601614db3565b9250506020614f7d85828601614db3565b9150509250929050565b600080600060608486031215614f9c57600080fd5b6000614faa86828701614db3565b9350506020614fbb86828701614db3565b9250506040614fcc86828701614ecf565b9150509250925092565b600080600080600060808688031215614fee57600080fd5b6000614ffc88828901614db3565b955050602061500d88828901614db3565b945050604061501e88828901614ecf565b935050606086013567ffffffffffffffff81111561503b57600080fd5b61504788828901614e5b565b92509250509295509295909350565b6000806000806080858703121561506c57600080fd5b600061507a87828801614db3565b945050602061508b87828801614db3565b935050604061509c87828801614ecf565b925050606085013567ffffffffffffffff8111156150b957600080fd5b6150c587828801614ea5565b91505092959194509250565b600080604083850312156150e457600080fd5b60006150f285828601614db3565b925050602061510385828601614e07565b9150509250929050565b6000806040838503121561512057600080fd5b600061512e85828601614db3565b925050602061513f85828601614ecf565b9150509250929050565b60008060006060848603121561515e57600080fd5b600061516c86828701614db3565b935050602061517d86828701614ecf565b925050604061518e86828701614ecf565b9150509250925092565b600080604083850312156151ab57600080fd5b600083013567ffffffffffffffff8111156151c557600080fd5b6151d185828601614ddd565b92505060206151e285828601614db3565b9150509250929050565b6000602082840312156151fe57600080fd5b600061520c84828501614e07565b91505092915050565b60006020828403121561522757600080fd5b600061523584828501614e1c565b91505092915050565b60006020828403121561525057600080fd5b600061525e84828501614e31565b91505092915050565b60006020828403121561527957600080fd5b600061528784828501614e46565b91505092915050565b6000602082840312156152a257600080fd5b60006152b084828501614ecf565b91505092915050565b600080604083850312156152cc57600080fd5b60006152da85828601614ecf565b92505060206152eb85828601614ecf565b9150509250929050565b6000806000806080858703121561530b57600080fd5b600061531987828801614ecf565b945050602061532a87828801614ecf565b935050604061533b87828801614ecf565b925050606061534c87828801614ecf565b91505092959194509250565b60008060008060008060c0878903121561537157600080fd5b600061537f89828a01614ecf565b965050602061539089828a01614ecf565b95505060406153a189828a01614ee4565b94505060606153b289828a01614ee4565b93505060806153c389828a01614db3565b92505060a06153d489828a01614db3565b9150509295509295509295565b6000602082840312156153f357600080fd5b600061540184828501614ee4565b91505092915050565b60006154168383615a26565b60208301905092915050565b600061542e8383615a44565b60208301905092915050565b615443816163cf565b82525050565b60006154548261620d565b61545e8185616253565b9350615469836161ed565b8060005b8381101561549a578151615481888261540a565b975061548c83616239565b92505060018101905061546d565b5085935050505092915050565b60006154b282616218565b6154bc8185616264565b93506154c7836161fd565b8060005b838110156154f85781516154df8882615422565b97506154ea83616246565b9250506001810190506154cb565b5085935050505092915050565b61550e816163e1565b82525050565b61551d816163ed565b82525050565b600061552e82616223565b6155388185616275565b9350615548818560208601616466565b61555181616663565b840191505092915050565b60006155678261622e565b6155718185616286565b9350615581818560208601616466565b61558a81616663565b840191505092915050565b60006155a08261622e565b6155aa8185616297565b93506155ba818560208601616466565b80840191505092915050565b60006155d3600983616286565b91506155de82616674565b602082019050919050565b60006155f6600a83616286565b91506156018261669d565b602082019050919050565b6000615619601683616286565b9150615624826166c6565b602082019050919050565b600061563c603283616286565b9150615647826166ef565b604082019050919050565b600061565f602583616286565b915061566a8261673e565b604082019050919050565b6000615682601c83616286565b915061568d8261678d565b602082019050919050565b60006156a5600e83616286565b91506156b0826167b6565b602082019050919050565b60006156c8600883616286565b91506156d3826167df565b602082019050919050565b60006156eb601783616286565b91506156f682616808565b602082019050919050565b600061570e602483616286565b915061571982616831565b604082019050919050565b6000615731601983616286565b915061573c82616880565b602082019050919050565b6000615754600c83616286565b915061575f826168a9565b602082019050919050565b6000615777602c83616286565b9150615782826168d2565b604082019050919050565b600061579a601483616286565b91506157a582616921565b602082019050919050565b60006157bd600c83616286565b91506157c88261694a565b602082019050919050565b60006157e0601883616286565b91506157eb82616973565b602082019050919050565b6000615803603883616286565b915061580e8261699c565b604082019050919050565b6000615826602a83616286565b9150615831826169eb565b604082019050919050565b6000615849602983616286565b915061585482616a3a565b604082019050919050565b600061586c602083616286565b915061587782616a89565b602082019050919050565b600061588f602c83616286565b915061589a82616ab2565b604082019050919050565b60006158b2601683616286565b91506158bd82616b01565b602082019050919050565b60006158d5601083616286565b91506158e082616b2a565b602082019050919050565b60006158f8602f83616286565b915061590382616b53565b604082019050919050565b600061591b601083616286565b915061592682616ba2565b602082019050919050565b600061593e602183616286565b915061594982616bcb565b604082019050919050565b6000615961603183616286565b915061596c82616c1a565b604082019050919050565b6000615984600d83616286565b915061598f82616c69565b602082019050919050565b60006159a7601f83616286565b91506159b282616c92565b602082019050919050565b60006159ca600b83616286565b91506159d582616cbb565b602082019050919050565b60006159ed600983616286565b91506159f882616ce4565b602082019050919050565b6000615a10600d83616286565b9150615a1b82616d0d565b602082019050919050565b615a2f81616439565b82525050565b615a3e81616439565b82525050565b615a4d81616443565b82525050565b615a5c81616443565b82525050565b6000615a6e8285615595565b9150615a7a8284615595565b91508190509392505050565b6000602082019050615a9b600083018461543a565b92915050565b6000604082019050615ab6600083018561543a565b615ac3602083018461543a565b9392505050565b6000606082019050615adf600083018661543a565b615aec602083018561543a565b615af96040830184615a35565b949350505050565b6000608082019050615b16600083018761543a565b615b23602083018661543a565b615b306040830185615a35565b8181036060830152615b428184615523565b905095945050505050565b600060c082019050615b62600083018961543a565b615b6f602083018861543a565b615b7c6040830187615a35565b615b896060830186615a35565b615b966080830185615a35565b615ba360a0830184615a53565b979650505050505050565b60006020820190508181036000830152615bc88184615449565b905092915050565b6000602082019050615be56000830184615505565b92915050565b6000602082019050615c006000830184615514565b92915050565b60006020820190508181036000830152615c20818461555c565b905092915050565b60006020820190508181036000830152615c41816155c6565b9050919050565b60006020820190508181036000830152615c61816155e9565b9050919050565b60006020820190508181036000830152615c818161560c565b9050919050565b60006020820190508181036000830152615ca18161562f565b9050919050565b60006020820190508181036000830152615cc181615652565b9050919050565b60006020820190508181036000830152615ce181615675565b9050919050565b60006020820190508181036000830152615d0181615698565b9050919050565b60006020820190508181036000830152615d21816156bb565b9050919050565b60006020820190508181036000830152615d41816156de565b9050919050565b60006020820190508181036000830152615d6181615701565b9050919050565b60006020820190508181036000830152615d8181615724565b9050919050565b60006020820190508181036000830152615da181615747565b9050919050565b60006020820190508181036000830152615dc18161576a565b9050919050565b60006020820190508181036000830152615de18161578d565b9050919050565b60006020820190508181036000830152615e01816157b0565b9050919050565b60006020820190508181036000830152615e21816157d3565b9050919050565b60006020820190508181036000830152615e41816157f6565b9050919050565b60006020820190508181036000830152615e6181615819565b9050919050565b60006020820190508181036000830152615e818161583c565b9050919050565b60006020820190508181036000830152615ea18161585f565b9050919050565b60006020820190508181036000830152615ec181615882565b9050919050565b60006020820190508181036000830152615ee1816158a5565b9050919050565b60006020820190508181036000830152615f01816158c8565b9050919050565b60006020820190508181036000830152615f21816158eb565b9050919050565b60006020820190508181036000830152615f418161590e565b9050919050565b60006020820190508181036000830152615f6181615931565b9050919050565b60006020820190508181036000830152615f8181615954565b9050919050565b60006020820190508181036000830152615fa181615977565b9050919050565b60006020820190508181036000830152615fc18161599a565b9050919050565b60006020820190508181036000830152615fe1816159bd565b9050919050565b60006020820190508181036000830152616001816159e0565b9050919050565b6000602082019050818103600083015261602181615a03565b9050919050565b600060208201905061603d6000830184615a35565b92915050565b600060a0820190506160586000830188615a35565b818103602083015261606a8187615449565b9050818103604083015261607e81866154a7565b9050818103606083015261609281856154a7565b90506160a16080830184615a53565b9695505050505050565b60006080820190506160c06000830187615a35565b6160cd6020830186615a35565b6160da6040830185615a53565b6160e76060830184615a53565b95945050505050565b60006060820190506161056000830186615a35565b6161126020830185615a53565b61611f6040830184615a53565b949350505050565b600060208201905061613c6000830184615a53565b92915050565b60006040820190506161576000830185615a53565b6161646020830184615a53565b9392505050565b6000616175616186565b905061618182826164cb565b919050565b6000604051905090565b600067ffffffffffffffff8211156161ab576161aa616634565b5b602082029050602081019050919050565b600067ffffffffffffffff8211156161d7576161d6616634565b5b6161e082616663565b9050602081019050919050565b6000819050602082019050919050565b6000819050602082019050919050565b600081519050919050565b600081519050919050565b600081519050919050565b600081519050919050565b6000602082019050919050565b6000602082019050919050565b600082825260208201905092915050565b600082825260208201905092915050565b600082825260208201905092915050565b600082825260208201905092915050565b600081905092915050565b60006162ad82616439565b91506162b883616439565b9250827fffffffffffffffffffffffffffffffffffffffffffffffffffffffffffffffff038211156162ed576162ec6165a7565b5b828201905092915050565b600061630382616443565b915061630e83616443565b92508267ffffffffffffffff0382111561632b5761632a6165a7565b5b828201905092915050565b600061634182616439565b915061634c83616439565b92508261635c5761635b6165d6565b5b828204905092915050565b600061637282616439565b915061637d83616439565b9250828210156163905761638f6165a7565b5b828203905092915050565b60006163a682616443565b91506163b183616443565b9250828210156163c4576163c36165a7565b5b828203905092915050565b60006163da82616419565b9050919050565b60008115159050919050565b60007fffffffff0000000000000000000000000000000000000000000000000000000082169050919050565b600073ffffffffffffffffffffffffffffffffffffffff82169050919050565b6000819050919050565b600067ffffffffffffffff82169050919050565b82818337600083830152505050565b60005b83811015616484578082015181840152602081019050616469565b83811115616493576000848401525b50505050565b600060028204905060018216806164b157607f821691505b602082108114156164c5576164c4616605565b5b50919050565b6164d482616663565b810181811067ffffffffffffffff821117156164f3576164f2616634565b5b80604052505050565b600061650782616439565b91507fffffffffffffffffffffffffffffffffffffffffffffffffffffffffffffffff82141561653a576165396165a7565b5b600182019050919050565b600061655082616443565b915067ffffffffffffffff82141561656b5761656a6165a7565b5b600182019050919050565b600061658182616439565b915061658c83616439565b92508261659c5761659b6165d6565b5b828206905092915050565b7f4e487b7100000000000000000000000000000000000000000000000000000000600052601160045260246000fd5b7f4e487b7100000000000000000000000000000000000000000000000000000000600052601260045260246000fd5b7f4e487b7100000000000000000000000000000000000000000000000000000000600052602260045260246000fd5b7f4e487b7100000000000000000000000000000000000000000000000000000000600052604160045260246000fd5b6000601f19601f8301169050919050565b7f6f6e6c7941646d696e0000000000000000000000000000000000000000000000600082015250565b7f64696666206f776e657200000000000000000000000000000000000000000000600082015250565b7f6e6f74206f776e6572206e6f7220617070726f76656400000000000000000000600082015250565b7f4552433732313a207472616e7366657220746f206e6f6e20455243373231526560008201527f63656976657220696d706c656d656e7465720000000000000000000000000000602082015250565b7f4552433732313a207472616e736665722066726f6d20696e636f72726563742060008201527f6f776e6572000000000000000000000000000000000000000000000000000000602082015250565b7f4552433732313a20746f6b656e20616c7265616479206d696e74656400000000600082015250565b7f616c726561647920777261706564000000000000000000000000000000000000600082015250565b7f64696666206f6964000000000000000000000000000000000000000000000000600082015250565b7f6e6f7420636f6e7461696e73206475726174696f6e4964000000000000000000600082015250565b7f4552433732313a207472616e7366657220746f20746865207a65726f2061646460008201527f7265737300000000000000000000000000000000000000000000000000000000602082015250565b7f4552433732313a20617070726f766520746f2063616c6c657200000000000000600082015250565b7f6f7574206f662072616e67650000000000000000000000000000000000000000600082015250565b7f4552433732313a206f70657261746f7220717565727920666f72206e6f6e657860008201527f697374656e7420746f6b656e0000000000000000000000000000000000000000602082015250565b7f696e76616c6964207374617274206f7220656e64000000000000000000000000600082015250565b7f6e6f7420636f6e7461696e730000000000000000000000000000000000000000600082015250565b7f6f6e6c7920666f722072696e6b656279206f7220627363740000000000000000600082015250565b7f4552433732313a20617070726f76652063616c6c6572206973206e6f74206f7760008201527f6e6572206e6f7220617070726f76656420666f7220616c6c0000000000000000602082015250565b7f4552433732313a2062616c616e636520717565727920666f7220746865207a6560008201527f726f206164647265737300000000000000000000000000000000000000000000602082015250565b7f4552433732313a206f776e657220717565727920666f72206e6f6e657869737460008201527f656e7420746f6b656e0000000000000000000000000000000000000000000000602082015250565b7f4552433732313a206d696e7420746f20746865207a65726f2061646472657373600082015250565b7f4552433732313a20617070726f76656420717565727920666f72206e6f6e657860008201527f697374656e7420746f6b656e0000000000000000000000000000000000000000602082015250565b7f6f6e6c7920617070726f766564206f72206f776e657200000000000000000000600082015250565b7f696e76616c6964206475726174696f6e00000000000000000000000000000000600082015250565b7f4552433732314d657461646174613a2055524920717565727920666f72206e6f60008201527f6e6578697374656e7420746f6b656e0000000000000000000000000000000000602082015250565b7f6f6e6c7950656e64696e674f776e657200000000000000000000000000000000600082015250565b7f4552433732313a20617070726f76616c20746f2063757272656e74206f776e6560008201527f7200000000000000000000000000000000000000000000000000000000000000602082015250565b7f4552433732313a207472616e736665722063616c6c6572206973206e6f74206f60008201527f776e6572206e6f7220617070726f766564000000000000000000000000000000602082015250565b7f6d7573742066726f6d206e6f7700000000000000000000000000000000000000600082015250565b7f5265656e7472616e637947756172643a207265656e7472616e742063616c6c00600082015250565b7f696e76616c696420656e64000000000000000000000000000000000000000000600082015250565b7f6f6e6c794f776e65720000000000000000000000000000000000000000000000600082015250565b7f696e76616c696420737461727400000000000000000000000000000000000000600082015250565b616d3f816163cf565b8114616d4a57600080fd5b50565b616d56816163e1565b8114616d6157600080fd5b50565b616d6d816163ed565b8114616d7857600080fd5b50565b616d8481616439565b8114616d8f57600080fd5b50565b616d9b81616443565b8114616da657600080fd5b5056fea264697066735822122080f2d4817277aab676bb25c0efc9e268fe9b32ffa331add57ad84b7c17b7ec0864736f6c63430008040033",
  "linkReferences": {},
  "deployedLinkReferences": {}
}