{
  "_format": "hh-sol-artifact-1",
  "contractName": "VipDoNFT",
  "sourceName": "contracts/vNFT/vipNft.sol",
  "abi": [
    {
      "anonymous": false,
      "inputs": [
        {
          "indexed": true,
          "internalType": "address",
          "name": "owner",
          "type": "address"
        },
        {
          "indexed": true,
          "internalType": "address",
          "name": "approved",
          "type": "address"
        },
        {
          "indexed": true,
          "internalType": "uint256",
          "name": "tokenId",
          "type": "uint256"
        }
      ],
      "name": "Approval",
      "type": "event"
    },
    {
      "anonymous": false,
      "inputs": [
        {
          "indexed": true,
          "internalType": "address",
          "name": "owner",
          "type": "address"
        },
        {
          "indexed": true,
          "internalType": "address",
          "name": "operator",
          "type": "address"
        },
        {
          "indexed": false,
          "internalType": "bool",
          "name": "approved",
          "type": "bool"
        }
      ],
      "name": "ApprovalForAll",
      "type": "event"
    },
    {
      "anonymous": false,
      "inputs": [
        {
          "indexed": false,
          "internalType": "address",
          "name": "opreator",
          "type": "address"
        },
        {
          "indexed": false,
          "internalType": "address",
          "name": "to",
          "type": "address"
        },
        {
          "indexed": false,
          "internalType": "uint256",
          "name": "tokenId",
          "type": "uint256"
        },
        {
          "indexed": false,
          "internalType": "uint256",
          "name": "durationId",
          "type": "uint256"
        },
        {
          "indexed": false,
          "internalType": "uint256",
          "name": "oid",
          "type": "uint256"
        },
        {
          "indexed": false,
          "internalType": "uint64",
          "name": "expires",
          "type": "uint64"
        }
      ],
      "name": "CheckIn",
      "type": "event"
    },
    {
      "anonymous": false,
      "inputs": [
        {
          "indexed": false,
          "internalType": "uint256[]",
          "name": "durationIdList",
          "type": "uint256[]"
        }
      ],
      "name": "DurationBurn",
      "type": "event"
    },
    {
      "anonymous": false,
      "inputs": [
        {
          "indexed": false,
          "internalType": "uint256",
          "name": "durationId",
          "type": "uint256"
        },
        {
          "indexed": false,
          "internalType": "uint256",
          "name": "tokenId",
          "type": "uint256"
        },
        {
          "indexed": false,
          "internalType": "uint64",
          "name": "start",
          "type": "uint64"
        },
        {
          "indexed": false,
          "internalType": "uint64",
          "name": "end",
          "type": "uint64"
        }
      ],
      "name": "DurationUpdate",
      "type": "event"
    },
    {
      "anonymous": false,
      "inputs": [
        {
          "indexed": false,
          "internalType": "uint8",
          "name": "version",
          "type": "uint8"
        }
      ],
      "name": "Initialized",
      "type": "event"
    },
    {
      "anonymous": false,
      "inputs": [
        {
          "indexed": false,
          "internalType": "uint256",
          "name": "tokenId",
          "type": "uint256"
        }
      ],
      "name": "MetadataUpdate",
      "type": "event"
    },
    {
      "anonymous": false,
      "inputs": [
        {
          "indexed": false,
          "internalType": "address",
          "name": "oldAdmin",
          "type": "address"
        },
        {
          "indexed": false,
          "internalType": "address",
          "name": "newAdmin",
          "type": "address"
        }
      ],
      "name": "NewAdmin",
      "type": "event"
    },
    {
      "anonymous": false,
      "inputs": [
        {
          "indexed": false,
          "internalType": "address",
          "name": "oldOwner",
          "type": "address"
        },
        {
          "indexed": false,
          "internalType": "address",
          "name": "newOwner",
          "type": "address"
        }
      ],
      "name": "NewOwner",
      "type": "event"
    },
    {
      "anonymous": false,
      "inputs": [
        {
          "indexed": false,
          "internalType": "address",
          "name": "oldPendingOwner",
          "type": "address"
        },
        {
          "indexed": false,
          "internalType": "address",
          "name": "newPendingOwner",
          "type": "address"
        }
      ],
      "name": "NewPendingOwner",
      "type": "event"
    },
    {
      "anonymous": false,
      "inputs": [
        {
          "indexed": true,
          "internalType": "address",
          "name": "from",
          "type": "address"
        },
        {
          "indexed": true,
          "internalType": "address",
          "name": "to",
          "type": "address"
        },
        {
          "indexed": true,
          "internalType": "uint256",
          "name": "tokenId",
          "type": "uint256"
        }
      ],
      "name": "Transfer",
      "type": "event"
    },
    {
      "inputs": [],
      "name": "acceptOwner",
      "outputs": [],
      "stateMutability": "nonpayable",
      "type": "function"
    },
    {
      "inputs": [],
      "name": "admin",
      "outputs": [
        {
          "internalType": "address",
          "name": "",
          "type": "address"
        }
      ],
      "stateMutability": "view",
      "type": "function"
    },
    {
      "inputs": [
        {
          "internalType": "address",
          "name": "to",
          "type": "address"
        },
        {
          "internalType": "uint256",
          "name": "tokenId",
          "type": "uint256"
        }
      ],
      "name": "approve",
      "outputs": [],
      "stateMutability": "nonpayable",
      "type": "function"
    },
    {
      "inputs": [
        {
          "internalType": "address",
          "name": "owner",
          "type": "address"
        }
      ],
      "name": "balanceOf",
      "outputs": [
        {
          "internalType": "uint256",
          "name": "",
          "type": "uint256"
        }
      ],
      "stateMutability": "view",
      "type": "function"
    },
    {
      "inputs": [
        {
          "internalType": "address",
          "name": "to",
          "type": "address"
        },
        {
          "internalType": "uint256",
          "name": "tokenId",
          "type": "uint256"
        },
        {
          "internalType": "uint256",
          "name": "durationId",
          "type": "uint256"
        }
      ],
      "name": "checkIn",
      "outputs": [],
      "stateMutability": "nonpayable",
      "type": "function"
    },
    {
      "inputs": [],
      "name": "curDoid",
      "outputs": [
        {
          "internalType": "uint256",
          "name": "",
          "type": "uint256"
        }
      ],
      "stateMutability": "view",
      "type": "function"
    },
    {
      "inputs": [],
      "name": "curDurationId",
      "outputs": [
        {
          "internalType": "uint256",
          "name": "",
          "type": "uint256"
        }
      ],
      "stateMutability": "view",
      "type": "function"
    },
    {
      "inputs": [
        {
          "internalType": "uint256",
          "name": "tokenId",
          "type": "uint256"
        }
      ],
      "name": "exists",
      "outputs": [
        {
          "internalType": "bool",
          "name": "",
          "type": "bool"
        }
      ],
      "stateMutability": "view",
      "type": "function"
    },
    {
      "inputs": [
        {
          "internalType": "uint256",
          "name": "tokenId",
          "type": "uint256"
        }
      ],
      "name": "getApproved",
      "outputs": [
        {
          "internalType": "address",
          "name": "",
          "type": "address"
        }
      ],
      "stateMutability": "view",
      "type": "function"
    },
    {
      "inputs": [
        {
          "internalType": "uint256",
          "name": "tokenId",
          "type": "uint256"
        }
      ],
      "name": "getDoNftInfo",
      "outputs": [
        {
          "internalType": "uint256",
          "name": "oid",
          "type": "uint256"
        },
        {
          "internalType": "uint256[]",
          "name": "durationIds",
          "type": "uint256[]"
        },
        {
          "internalType": "uint64[]",
          "name": "starts",
          "type": "uint64[]"
        },
        {
          "internalType": "uint64[]",
          "name": "ends",
          "type": "uint64[]"
        },
        {
          "internalType": "uint64",
          "name": "nonce",
          "type": "uint64"
        }
      ],
      "stateMutability": "view",
      "type": "function"
    },
    {
      "inputs": [
        {
          "internalType": "uint256",
          "name": "durationId",
          "type": "uint256"
        }
      ],
      "name": "getDuration",
      "outputs": [
        {
          "internalType": "uint64",
          "name": "",
          "type": "uint64"
        },
        {
          "internalType": "uint64",
          "name": "",
          "type": "uint64"
        }
      ],
      "stateMutability": "view",
      "type": "function"
    },
    {
      "inputs": [
        {
          "internalType": "uint256",
          "name": "tokenId",
          "type": "uint256"
        },
        {
          "internalType": "uint256",
          "name": "index",
          "type": "uint256"
        }
      ],
      "name": "getDurationByIndex",
      "outputs": [
        {
          "internalType": "uint256",
          "name": "durationId",
          "type": "uint256"
        },
        {
          "internalType": "uint64",
          "name": "start",
          "type": "uint64"
        },
        {
          "internalType": "uint64",
          "name": "end",
          "type": "uint64"
        }
      ],
      "stateMutability": "view",
      "type": "function"
    },
    {
      "inputs": [
        {
          "internalType": "uint256",
          "name": "tokenId",
          "type": "uint256"
        }
      ],
      "name": "getDurationIdList",
      "outputs": [
        {
          "internalType": "uint256[]",
          "name": "",
          "type": "uint256[]"
        }
      ],
      "stateMutability": "view",
      "type": "function"
    },
    {
      "inputs": [
        {
          "internalType": "uint256",
          "name": "tokenId",
          "type": "uint256"
        }
      ],
      "name": "getDurationListLength",
      "outputs": [
        {
          "internalType": "uint256",
          "name": "",
          "type": "uint256"
        }
      ],
      "stateMutability": "view",
      "type": "function"
    },
    {
      "inputs": [],
      "name": "getMaxDuration",
      "outputs": [
        {
          "internalType": "uint64",
          "name": "",
          "type": "uint64"
        }
      ],
      "stateMutability": "view",
      "type": "function"
    },
    {
      "inputs": [
        {
          "internalType": "uint256",
          "name": "tokenId",
          "type": "uint256"
        }
      ],
      "name": "getNonce",
      "outputs": [
        {
          "internalType": "uint64",
          "name": "",
          "type": "uint64"
        }
      ],
      "stateMutability": "view",
      "type": "function"
    },
    {
      "inputs": [],
      "name": "getOriginalNftAddress",
      "outputs": [
        {
          "internalType": "address",
          "name": "",
          "type": "address"
        }
      ],
      "stateMutability": "view",
      "type": "function"
    },
    {
      "inputs": [
        {
          "internalType": "uint256",
          "name": "tokenId",
          "type": "uint256"
        }
      ],
      "name": "getOriginalNftId",
      "outputs": [
        {
          "internalType": "uint256",
          "name": "",
          "type": "uint256"
        }
      ],
      "stateMutability": "view",
      "type": "function"
    },
    {
      "inputs": [
        {
          "internalType": "uint256",
          "name": "originalNftId",
          "type": "uint256"
        }
      ],
      "name": "getUser",
      "outputs": [
        {
          "internalType": "address",
          "name": "",
          "type": "address"
        }
      ],
      "stateMutability": "view",
      "type": "function"
    },
    {
      "inputs": [
        {
          "internalType": "uint256",
          "name": "originalNftId",
          "type": "uint256"
        }
      ],
      "name": "getVNftId",
      "outputs": [
        {
          "internalType": "uint256",
          "name": "",
          "type": "uint256"
        }
      ],
      "stateMutability": "view",
      "type": "function"
    },
    {
      "inputs": [
        {
          "internalType": "address",
          "name": "owner",
          "type": "address"
        },
        {
          "internalType": "address",
          "name": "operator",
          "type": "address"
        }
      ],
      "name": "isApprovedForAll",
      "outputs": [
        {
          "internalType": "bool",
          "name": "",
          "type": "bool"
        }
      ],
      "stateMutability": "view",
      "type": "function"
    },
    {
      "inputs": [
        {
          "internalType": "uint256",
          "name": "oid",
          "type": "uint256"
        }
      ],
      "name": "isCheckInDataExpired",
      "outputs": [
        {
          "internalType": "bool",
          "name": "",
          "type": "bool"
        }
      ],
      "stateMutability": "view",
      "type": "function"
    },
    {
      "inputs": [
        {
          "internalType": "uint256",
          "name": "tokenId",
          "type": "uint256"
        }
      ],
      "name": "isVNft",
      "outputs": [
        {
          "internalType": "bool",
          "name": "",
          "type": "bool"
        }
      ],
      "stateMutability": "view",
      "type": "function"
    },
    {
      "inputs": [
        {
          "internalType": "uint256",
          "name": "tokenId",
          "type": "uint256"
        }
      ],
      "name": "isValidNow",
      "outputs": [
        {
          "internalType": "bool",
          "name": "isValid",
          "type": "bool"
        }
      ],
      "stateMutability": "view",
      "type": "function"
    },
    {
      "inputs": [],
      "name": "market",
      "outputs": [
        {
          "internalType": "address",
          "name": "",
          "type": "address"
        }
      ],
      "stateMutability": "view",
      "type": "function"
    },
    {
      "inputs": [],
      "name": "maxDuration",
      "outputs": [
        {
          "internalType": "uint64",
          "name": "",
          "type": "uint64"
        }
      ],
      "stateMutability": "view",
      "type": "function"
    },
    {
      "inputs": [
        {
          "internalType": "uint256",
          "name": "tokenId",
          "type": "uint256"
        },
        {
          "internalType": "uint256",
          "name": "durationId",
          "type": "uint256"
        },
        {
          "internalType": "uint64",
          "name": "start",
          "type": "uint64"
        },
        {
          "internalType": "uint64",
          "name": "end",
          "type": "uint64"
        },
        {
          "internalType": "address",
          "name": "to",
          "type": "address"
        },
        {
          "internalType": "address",
          "name": "user",
          "type": "address"
        }
      ],
      "name": "mint",
      "outputs": [
        {
          "internalType": "uint256",
          "name": "tid",
          "type": "uint256"
        }
      ],
      "stateMutability": "nonpayable",
      "type": "function"
    },
    {
      "inputs": [
        {
          "internalType": "uint256",
          "name": "oid",
          "type": "uint256"
        }
      ],
      "name": "mintVNft",
      "outputs": [
        {
          "internalType": "uint256",
          "name": "tid",
          "type": "uint256"
        }
      ],
      "stateMutability": "nonpayable",
      "type": "function"
    },
    {
      "inputs": [],
      "name": "name",
      "outputs": [
        {
          "internalType": "string",
          "name": "",
          "type": "string"
        }
      ],
      "stateMutability": "view",
      "type": "function"
    },
    {
      "inputs": [
        {
          "internalType": "address",
          "name": "operator",
          "type": "address"
        },
        {
          "internalType": "address",
          "name": "from",
          "type": "address"
        },
        {
          "internalType": "uint256",
          "name": "tokenId",
          "type": "uint256"
        },
        {
          "internalType": "bytes",
          "name": "data",
          "type": "bytes"
        }
      ],
      "name": "onERC721Received",
      "outputs": [
        {
          "internalType": "bytes4",
          "name": "",
          "type": "bytes4"
        }
      ],
      "stateMutability": "pure",
      "type": "function"
    },
    {
      "inputs": [],
      "name": "owner",
      "outputs": [
        {
          "internalType": "address",
          "name": "",
          "type": "address"
        }
      ],
      "stateMutability": "view",
      "type": "function"
    },
    {
      "inputs": [
        {
          "internalType": "uint256",
          "name": "tokenId",
          "type": "uint256"
        }
      ],
      "name": "ownerOf",
      "outputs": [
        {
          "internalType": "address",
          "name": "",
          "type": "address"
        }
      ],
      "stateMutability": "view",
      "type": "function"
    },
    {
      "inputs": [],
      "name": "pendingOwner",
      "outputs": [
        {
          "internalType": "address",
          "name": "",
          "type": "address"
        }
      ],
      "stateMutability": "view",
      "type": "function"
    },
    {
      "inputs": [],
      "name": "renounceOwnership",
      "outputs": [],
      "stateMutability": "nonpayable",
      "type": "function"
    },
    {
      "inputs": [
        {
          "internalType": "uint256[]",
          "name": "ids",
          "type": "uint256[]"
        },
        {
          "internalType": "address",
          "name": "to",
          "type": "address"
        }
      ],
      "name": "resetExpiredTo",
      "outputs": [],
      "stateMutability": "nonpayable",
      "type": "function"
    },
    {
      "inputs": [
        {
          "internalType": "address",
          "name": "from",
          "type": "address"
        },
        {
          "internalType": "address",
          "name": "to",
          "type": "address"
        },
        {
          "internalType": "uint256",
          "name": "tokenId",
          "type": "uint256"
        }
      ],
      "name": "safeTransferFrom",
      "outputs": [],
      "stateMutability": "nonpayable",
      "type": "function"
    },
    {
      "inputs": [
        {
          "internalType": "address",
          "name": "from",
          "type": "address"
        },
        {
          "internalType": "address",
          "name": "to",
          "type": "address"
        },
        {
          "internalType": "uint256",
          "name": "tokenId",
          "type": "uint256"
        },
        {
          "internalType": "bytes",
          "name": "_data",
          "type": "bytes"
        }
      ],
      "name": "safeTransferFrom",
      "outputs": [],
      "stateMutability": "nonpayable",
      "type": "function"
    },
    {
      "inputs": [
        {
          "internalType": "address",
          "name": "newAdmin",
          "type": "address"
        }
      ],
      "name": "setAdmin",
      "outputs": [],
      "stateMutability": "nonpayable",
      "type": "function"
    },
    {
      "inputs": [
        {
          "internalType": "address",
          "name": "operator",
          "type": "address"
        },
        {
          "internalType": "bool",
          "name": "approved",
          "type": "bool"
        }
      ],
      "name": "setApprovalForAll",
      "outputs": [],
      "stateMutability": "nonpayable",
      "type": "function"
    },
    {
      "inputs": [
        {
          "internalType": "uint64",
          "name": "v",
          "type": "uint64"
        }
      ],
      "name": "setMaxDuration",
      "outputs": [],
      "stateMutability": "nonpayable",
      "type": "function"
    },
    {
      "inputs": [
        {
          "internalType": "bytes4",
          "name": "interfaceId",
          "type": "bytes4"
        }
      ],
      "name": "supportsInterface",
      "outputs": [
        {
          "internalType": "bool",
          "name": "",
          "type": "bool"
        }
      ],
      "stateMutability": "view",
      "type": "function"
    },
    {
      "inputs": [],
      "name": "symbol",
      "outputs": [
        {
          "internalType": "string",
          "name": "",
          "type": "string"
        }
      ],
      "stateMutability": "view",
      "type": "function"
    },
    {
      "inputs": [
        {
          "internalType": "uint256",
          "name": "tokenId",
          "type": "uint256"
        }
      ],
      "name": "tokenURI",
      "outputs": [
        {
          "internalType": "string",
          "name": "",
          "type": "string"
        }
      ],
      "stateMutability": "view",
      "type": "function"
    },
    {
      "inputs": [
        {
          "internalType": "address",
          "name": "from",
          "type": "address"
        },
        {
          "internalType": "address",
          "name": "to",
          "type": "address"
        },
        {
          "internalType": "uint256",
          "name": "tokenId",
          "type": "uint256"
        }
      ],
      "name": "transferFrom",
      "outputs": [],
      "stateMutability": "nonpayable",
      "type": "function"
    },
    {
      "inputs": [
        {
          "internalType": "address",
          "name": "_pendingOwner",
          "type": "address"
        }
      ],
      "name": "transferOwnership",
      "outputs": [],
      "stateMutability": "nonpayable",
      "type": "function"
    }
  ],
  "bytecode": "0x608060405234801561001057600080fd5b5061622680620000216000396000f3fe608060405234801561001057600080fd5b506004361061027f5760003560e01c80638bb126a71161015c578063b88d4fde116100ce578063e985e9c511610087578063e985e9c514610861578063ebbc496514610891578063f01478321461089b578063f2fde38b146108b7578063f851a440146108d3578063fd83de62146108f15761027f565b8063b88d4fde14610779578063c793c12514610795578063c87b56dd146107b1578063dbe102c0146107e1578063e30c397814610811578063e42e66a91461082f5761027f565b8063a22cb46511610120578063a22cb46514610691578063a6cc2650146106ad578063a8328412146106dd578063abb2176a1461070d578063b0467deb1461072b578063b49a2db91461075b5761027f565b80638bb126a7146105ea5780638da5cb5b1461061b57806395d89b411461063957806398e5d38f14610657578063a050ac8f146106735761027f565b80633ed189cf116101f55780636352211e116101b95780636352211e146105285780636db5c8fd14610558578063704b6c021461057657806370a0823114610592578063715018a6146105c257806380f55605146105cc5761027f565b80633ed189cf1461044857806342842e0e146104785780634f558e791461049457806352332ed8146104c457806358174e06146104f85761027f565b8063150b7a0211610247578063150b7a021461034e5780631aa144981461037e57806323b872dd146103ae57806325cb25b0146103ca578063393b17a4146103e85780633d46b819146104185761027f565b806301ffc9a71461028457806306fdde03146102b4578063081812fc146102d2578063095ea7b31461030257806310c118541461031e575b600080fd5b61029e6004803603810190610299919061485d565b610921565b6040516102ab9190615123565b60405180910390f35b6102bc610a03565b6040516102c99190615159565b60405180910390f35b6102ec60048036038101906102e791906148af565b610a95565b6040516102f99190614fd9565b60405180910390f35b61031c60048036038101906103179190614755565b610b1a565b005b61033860048036038101906103339190614914565b610c32565b604051610345919061551b565b60405180910390f35b6103686004803603810190610363919061461e565b6111a6565b604051610375919061513e565b60405180910390f35b610398600480360381019061039391906148af565b6111c0565b6040516103a5919061551b565b60405180910390f35b6103c860048036038101906103c391906145cf565b6111e5565b005b6103d2611245565b6040516103df9190614fd9565b60405180910390f35b61040260048036038101906103fd91906148af565b61126f565b60405161040f9190615123565b60405180910390f35b610432600480360381019061042d91906148af565b61136a565b60405161043f919061561a565b60405180910390f35b610462600480360381019061045d91906148af565b61139e565b60405161046f919061551b565b60405180910390f35b610492600480360381019061048d91906145cf565b6113bb565b005b6104ae60048036038101906104a991906148af565b6113db565b6040516104bb9190615123565b60405180910390f35b6104de60048036038101906104d991906148af565b6113ed565b6040516104ef959493929190615536565b60405180910390f35b610512600480360381019061050d91906148af565b61167f565b60405161051f9190615123565b60405180910390f35b610542600480360381019061053d91906148af565b6116bf565b60405161054f9190614fd9565b60405180910390f35b610560611771565b60405161056d919061561a565b60405180910390f35b610590600480360381019061058b9190614541565b61178b565b005b6105ac60048036038101906105a79190614541565b611832565b6040516105b9919061551b565b60405180910390f35b6105ca6118ea565b005b6105d4611acb565b6040516105e19190614fd9565b60405180910390f35b61060460048036038101906105ff91906148af565b611af1565b604051610612929190615635565b60405180910390f35b610623611b47565b6040516106309190614fd9565b60405180910390f35b610641611b6b565b60405161064e9190615159565b60405180910390f35b610671600480360381019061066c9190614791565b611bfd565b005b61067b611c5e565b604051610688919061551b565b60405180910390f35b6106ab60048036038101906106a69190614719565b611c64565b005b6106c760048036038101906106c291906148af565b611c7a565b6040516106d4919061551b565b60405180910390f35b6106f760048036038101906106f291906148af565b611f1b565b6040516107049190615123565b60405180910390f35b610715611f62565b604051610722919061551b565b60405180910390f35b610745600480360381019061074091906148af565b611f68565b6040516107529190614fd9565b60405180910390f35b61076361201c565b604051610770919061561a565b60405180910390f35b610793600480360381019061078e919061469e565b61203a565b005b6107af60048036038101906107aa91906147e0565b61209c565b005b6107cb60048036038101906107c691906148af565b612129565b6040516107d89190615159565b60405180910390f35b6107fb60048036038101906107f691906148af565b6121d0565b6040516108089190615101565b60405180910390f35b6108196121fd565b6040516108269190614fd9565b60405180910390f35b610849600480360381019061084491906148d8565b612223565b604051610858939291906155e3565b60405180910390f35b61087b60048036038101906108769190614593565b6122bc565b6040516108889190615123565b60405180910390f35b610899612350565b005b6108b560048036038101906108b0919061499d565b6124d6565b005b6108d160048036038101906108cc9190614541565b61250a565b005b6108db6125b1565b6040516108e89190614fd9565b60405180910390f35b61090b600480360381019061090691906148af565b6125d7565b604051610918919061551b565b60405180910390f35b60007f80ac58cd000000000000000000000000000000000000000000000000000000007bffffffffffffffffffffffffffffffffffffffffffffffffffffffff1916827bffffffffffffffffffffffffffffffffffffffffffffffffffffffff191614806109ec57507f5b5e139f000000000000000000000000000000000000000000000000000000007bffffffffffffffffffffffffffffffffffffffffffffffffffffffff1916827bffffffffffffffffffffffffffffffffffffffffffffffffffffffff1916145b806109fc57506109fb826125fe565b5b9050919050565b606060698054610a129061598c565b80601f0160208091040260200160405190810160405280929190818152602001828054610a3e9061598c565b8015610a8b5780601f10610a6057610100808354040283529160200191610a8b565b820191906000526020600020905b815481529060010190602001808311610a6e57829003601f168201915b5050505050905090565b6000610aa082612668565b610adf576040517f08c379a0000000000000000000000000000000000000000000000000000000008152600401610ad69061539b565b60405180910390fd5b606d600083815260200190815260200160002060009054906101000a900473ffffffffffffffffffffffffffffffffffffffff169050919050565b6000610b25826116bf565b90508073ffffffffffffffffffffffffffffffffffffffff168373ffffffffffffffffffffffffffffffffffffffff161415610b96576040517f08c379a0000000000000000000000000000000000000000000000000000000008152600401610b8d9061543b565b60405180910390fd5b8073ffffffffffffffffffffffffffffffffffffffff16610bb56126d4565b73ffffffffffffffffffffffffffffffffffffffff161480610be45750610be381610bde6126d4565b6122bc565b5b610c23576040517f08c379a0000000000000000000000000000000000000000000000000000000008152600401610c1a9061531b565b60405180910390fd5b610c2d83836126dc565b505050565b600084610c3e81612795565b6002609b541415610c84576040517f08c379a0000000000000000000000000000000000000000000000000000000008152600401610c7b9061549b565b60405180910390fd5b6002609b81905550428667ffffffffffffffff161015610ca2574295505b610cb3610cad6126d4565b896127fb565b610cf2576040517f08c379a0000000000000000000000000000000000000000000000000000000008152600401610ce99061519b565b60405180910390fd5b8567ffffffffffffffff168567ffffffffffffffff16118015610d4a575060d160009054906101000a900467ffffffffffffffff1667ffffffffffffffff1642610d3c9190615795565b8567ffffffffffffffff1611155b610d89576040517f08c379a0000000000000000000000000000000000000000000000000000000008152600401610d80906152db565b60405180910390fd5b600060d260008a81526020019081526020016000209050610daa898961286f565b610de9576040517f08c379a0000000000000000000000000000000000000000000000000000000008152600401610de09061523b565b60405180910390fd5b600060d360008a815260200190815260200160002090508060000160009054906101000a900467ffffffffffffffff1667ffffffffffffffff168867ffffffffffffffff1610158015610e6857508060000160089054906101000a900467ffffffffffffffff1667ffffffffffffffff168767ffffffffffffffff1611155b610ea7576040517f08c379a0000000000000000000000000000000000000000000000000000000008152600401610e9e906153db565b60405180910390fd5b60008160000160009054906101000a900467ffffffffffffffff1667ffffffffffffffff168967ffffffffffffffff16148015610f0f57508160000160089054906101000a900467ffffffffffffffff1667ffffffffffffffff168867ffffffffffffffff16145b15610f5857610f248784600001548b8b6128a1565b945060d0549050610f358b8b6128c8565b6000610f4384600201612a34565b1415610f5357610f528b612a49565b5b61113b565b8160000160009054906101000a900467ffffffffffffffff1667ffffffffffffffff168967ffffffffffffffff16148015610fbf57508160000160089054906101000a900467ffffffffffffffff1667ffffffffffffffff168867ffffffffffffffff1614155b1561100057600188610fd191906157eb565b8260000160006101000a81548167ffffffffffffffff021916908367ffffffffffffffff160217905550611123565b8160000160009054906101000a900467ffffffffffffffff1667ffffffffffffffff168967ffffffffffffffff161415801561106757508160000160089054906101000a900467ffffffffffffffff1667ffffffffffffffff168867ffffffffffffffff16145b156110a857600189611079919061588e565b8260000160086101000a81548167ffffffffffffffff021916908367ffffffffffffffff160217905550611122565b428967ffffffffffffffff1611156110ea576110e98b8360000160009054906101000a900467ffffffffffffffff1660018c6110e4919061588e565b612aac565b5b6001886110f791906157eb565b8260000160006101000a81548167ffffffffffffffff021916908367ffffffffffffffff1602179055505b5b6111338784600001548b8b6128a1565b945060d05490505b428967ffffffffffffffff16141561115957611158868683611bfd565b5b7ff8e1a15aba9398e019f0b49df1a4fde98ee17ae345cb5f6b5e2c27f5033e8ce78b604051611188919061551b565b60405180910390a15050506001609b81905550509695505050505050565b60008063150b7a0260e01b90508091505095945050505050565b60008060d2600084815260200190815260200160002090508060000154915050919050565b6111f66111f06126d4565b826127fb565b611235576040517f08c379a000000000000000000000000000000000000000000000000000000000815260040161122c9061545b565b60405180910390fd5b611240838383612bd2565b505050565b600060cd60009054906101000a900473ffffffffffffffffffffffffffffffffffffffff16905090565b60008060d260008481526020019081526020016000209050600061129582600201612a34565b9050600080600090505b8281101561135c576112bd8185600201612e3990919063ffffffff16565b91504260d3600084815260200190815260200160002060000160009054906101000a900467ffffffffffffffff1667ffffffffffffffff1611158015611337575060d3600083815260200190815260200160002060000160089054906101000a900467ffffffffffffffff1667ffffffffffffffff164211155b15611349576001945050505050611365565b8080611354906159ef565b91505061129f565b50600093505050505b919050565b600060d2600083815260200190815260200160002060010160009054906101000a900467ffffffffffffffff169050919050565b600060d46000838152602001908152602001600020549050919050565b6113d68383836040518060200160405280600081525061203a565b505050565b60006113e682612668565b9050919050565b6000606080606060008060d260008881526020019081526020016000209050806000015495508060010160009054906101000a900467ffffffffffffffff169150600061143c82600201612a34565b905060008167ffffffffffffffff811115611480577f4e487b7100000000000000000000000000000000000000000000000000000000600052604160045260246000fd5b6040519080825280602002602001820160405280156114ae5781602001602082028036833780820191505090505b5095508167ffffffffffffffff8111156114f1577f4e487b7100000000000000000000000000000000000000000000000000000000600052604160045260246000fd5b60405190808252806020026020018201604052801561151f5781602001602082028036833780820191505090505b50945061152e83600201612e53565b965060005b82811015611672576115518185600201612e3990919063ffffffff16565b915060d3600083815260200190815260200160002060000160009054906101000a900467ffffffffffffffff168782815181106115b7577f4e487b7100000000000000000000000000000000000000000000000000000000600052603260045260246000fd5b602002602001019067ffffffffffffffff16908167ffffffffffffffff168152505060d3600083815260200190815260200160002060000160089054906101000a900467ffffffffffffffff1686828151811061163d577f4e487b7100000000000000000000000000000000000000000000000000000000600052603260045260246000fd5b602002602001019067ffffffffffffffff16908167ffffffffffffffff1681525050808061166a906159ef565b915050611533565b5050505091939590929450565b6000426003600084815260200190815260200160002060010160149054906101000a900467ffffffffffffffff1667ffffffffffffffff16109050919050565b600080606b600084815260200190815260200160002060009054906101000a900473ffffffffffffffffffffffffffffffffffffffff169050600073ffffffffffffffffffffffffffffffffffffffff168173ffffffffffffffffffffffffffffffffffffffff161415611768576040517f08c379a000000000000000000000000000000000000000000000000000000000815260040161175f9061535b565b60405180910390fd5b80915050919050565b60d160009054906101000a900467ffffffffffffffff1681565b611793612e74565b7ff9ffabca9c8276e99321725bcb43fb076a6c66a54b7f21c4e8146d8519b417dc600260009054906101000a900473ffffffffffffffffffffffffffffffffffffffff16826040516117e6929190614ff4565b60405180910390a180600260006101000a81548173ffffffffffffffffffffffffffffffffffffffff021916908373ffffffffffffffffffffffffffffffffffffffff16021790555050565b60008073ffffffffffffffffffffffffffffffffffffffff168273ffffffffffffffffffffffffffffffffffffffff1614156118a3576040517f08c379a000000000000000000000000000000000000000000000000000000000815260040161189a9061533b565b60405180910390fd5b606c60008373ffffffffffffffffffffffffffffffffffffffff1673ffffffffffffffffffffffffffffffffffffffff168152602001908152602001600020549050919050565b6118f2612e74565b7f70aea8d848e8a90fb7661b227dc522eb6395c3dac71b63cb59edd5c9899b236460008054906101000a900473ffffffffffffffffffffffffffffffffffffffff166000604051611944929190614ff4565b60405180910390a17ff9ffabca9c8276e99321725bcb43fb076a6c66a54b7f21c4e8146d8519b417dc600260009054906101000a900473ffffffffffffffffffffffffffffffffffffffff1660006040516119a0929190614ff4565b60405180910390a17fb3d55174552271a4f1aaf36b72f50381e892171636b3fb5447fe00e995e7a37b600160009054906101000a900473ffffffffffffffffffffffffffffffffffffffff1660006040516119fc929190614ff4565b60405180910390a160008060006101000a81548173ffffffffffffffffffffffffffffffffffffffff021916908373ffffffffffffffffffffffffffffffffffffffff1602179055506000600160006101000a81548173ffffffffffffffffffffffffffffffffffffffff021916908373ffffffffffffffffffffffffffffffffffffffff1602179055506000600260006101000a81548173ffffffffffffffffffffffffffffffffffffffff021916908373ffffffffffffffffffffffffffffffffffffffff160217905550565b60ce60009054906101000a900473ffffffffffffffffffffffffffffffffffffffff1681565b600080600060d3600085815260200190815260200160002090508060000160009054906101000a900467ffffffffffffffff168160000160089054906101000a900467ffffffffffffffff169250925050915091565b60008054906101000a900473ffffffffffffffffffffffffffffffffffffffff1681565b6060606a8054611b7a9061598c565b80601f0160208091040260200160405190810160405280929190818152602001828054611ba69061598c565b8015611bf35780601f10611bc857610100808354040283529160200191611bf3565b820191906000526020600020905b815481529060010190602001808311611bd657829003601f168201915b5050505050905090565b611c08838383612f04565b600060d360008381526020019081526020016000209050611c5860d2600085815260200190815260200160002060000154858360000160089054906101000a900467ffffffffffffffff16613105565b50505050565b60d05481565b611c76611c6f6126d4565b83836131db565b5050565b60006002609b541415611cc2576040517f08c379a0000000000000000000000000000000000000000000000000000000008152600401611cb99061549b565b60405180910390fd5b6002609b81905550600060d460008481526020019081526020016000205414611d20576040517f08c379a0000000000000000000000000000000000000000000000000000000008152600401611d179061521b565b60405180910390fd5b611d4d3360cd60009054906101000a900473ffffffffffffffffffffffffffffffffffffffff1684613348565b611d8c576040517f08c379a0000000000000000000000000000000000000000000000000000000008152600401611d83906153bb565b60405180910390fd5b600060cd60009054906101000a900473ffffffffffffffffffffffffffffffffffffffff1673ffffffffffffffffffffffffffffffffffffffff16636352211e846040518263ffffffff1660e01b8152600401611de9919061551b565b60206040518083038186803b158015611e0157600080fd5b505afa158015611e15573d6000803e3d6000fd5b505050506040513d601f19601f82011682018060405250810190611e39919061456a565b905060cd60009054906101000a900473ffffffffffffffffffffffffffffffffffffffff1673ffffffffffffffffffffffffffffffffffffffff166342842e0e8230866040518463ffffffff1660e01b8152600401611e9a9392919061501d565b600060405180830381600087803b158015611eb457600080fd5b505af1158015611ec8573d6000803e3d6000fd5b50505050611ee081844267ffffffffffffffff6128a1565b91508160d4600085815260200190815260200160002081905550611f0d838267ffffffffffffffff613105565b506001609b81905550919050565b600080821415611f2e5760009050611f5d565b8160d4600060d26000868152602001908152602001600020600001548152602001908152602001600020541490505b919050565b60cf5481565b600060cd60009054906101000a900473ffffffffffffffffffffffffffffffffffffffff1673ffffffffffffffffffffffffffffffffffffffff1663c2f1f14a836040518263ffffffff1660e01b8152600401611fc5919061551b565b60206040518083038186803b158015611fdd57600080fd5b505afa158015611ff1573d6000803e3d6000fd5b505050506040513d601f19601f82011682018060405250810190612015919061456a565b9050919050565b600060d160009054906101000a900467ffffffffffffffff16905090565b61204b6120456126d4565b836127fb565b61208a576040517f08c379a00000000000000000000000000000000000000000000000000000000081526004016120819061545b565b60405180910390fd5b612096848484846135c0565b50505050565b6120a461361c565b60005b82518110156121245760008382815181106120eb577f4e487b7100000000000000000000000000000000000000000000000000000000600052603260045260246000fd5b602002602001015190506120fe8161167f565b156121105761210f81846000613105565b5b50808061211c906159ef565b9150506120a7565b505050565b606061213482612668565b612173576040517f08c379a000000000000000000000000000000000000000000000000000000000815260040161216a906153fb565b60405180910390fd5b600061217d613704565b9050600081511161219d57604051806020016040528060008152506121c8565b806121a78461371b565b6040516020016121b8929190614fb5565b6040516020818303038152906040525b915050919050565b6060600060d2600084815260200190815260200160002090506121f581600201612e53565b915050919050565b600160009054906101000a900473ffffffffffffffffffffffffffffffffffffffff1681565b60008060008060d26000878152602001908152602001600020905061224a81600201612a34565b851061228b576040517f08c379a00000000000000000000000000000000000000000000000000000000081526004016122829061529b565b60405180910390fd5b6122a18582600201612e3990919063ffffffff16565b93506122ac84611af1565b8093508194505050509250925092565b6000606e60008473ffffffffffffffffffffffffffffffffffffffff1673ffffffffffffffffffffffffffffffffffffffff16815260200190815260200160002060008373ffffffffffffffffffffffffffffffffffffffff1673ffffffffffffffffffffffffffffffffffffffff16815260200190815260200160002060009054906101000a900460ff16905092915050565b6123586138c8565b7f70aea8d848e8a90fb7661b227dc522eb6395c3dac71b63cb59edd5c9899b236460008054906101000a900473ffffffffffffffffffffffffffffffffffffffff16600160009054906101000a900473ffffffffffffffffffffffffffffffffffffffff166040516123cb929190614ff4565b60405180910390a1600160009054906101000a900473ffffffffffffffffffffffffffffffffffffffff166000806101000a81548173ffffffffffffffffffffffffffffffffffffffff021916908373ffffffffffffffffffffffffffffffffffffffff16021790555060007fb3d55174552271a4f1aaf36b72f50381e892171636b3fb5447fe00e995e7a37b600160009054906101000a900473ffffffffffffffffffffffffffffffffffffffff168260405161248a929190614ff4565b60405180910390a180600160006101000a81548173ffffffffffffffffffffffffffffffffffffffff021916908373ffffffffffffffffffffffffffffffffffffffff16021790555050565b6124de61361c565b8060d160006101000a81548167ffffffffffffffff021916908367ffffffffffffffff16021790555050565b612512612e74565b7fb3d55174552271a4f1aaf36b72f50381e892171636b3fb5447fe00e995e7a37b600160009054906101000a900473ffffffffffffffffffffffffffffffffffffffff1682604051612565929190614ff4565b60405180910390a180600160006101000a81548173ffffffffffffffffffffffffffffffffffffffff021916908373ffffffffffffffffffffffffffffffffffffffff16021790555050565b600260009054906101000a900473ffffffffffffffffffffffffffffffffffffffff1681565b60006125f760d26000848152602001908152602001600020600201612a34565b9050919050565b60007f01ffc9a7000000000000000000000000000000000000000000000000000000007bffffffffffffffffffffffffffffffffffffffffffffffffffffffff1916827bffffffffffffffffffffffffffffffffffffffffffffffffffffffff1916149050919050565b60008073ffffffffffffffffffffffffffffffffffffffff16606b600084815260200190815260200160002060009054906101000a900473ffffffffffffffffffffffffffffffffffffffff1673ffffffffffffffffffffffffffffffffffffffff1614159050919050565b600033905090565b81606d600083815260200190815260200160002060006101000a81548173ffffffffffffffffffffffffffffffffffffffff021916908373ffffffffffffffffffffffffffffffffffffffff160217905550808273ffffffffffffffffffffffffffffffffffffffff1661274f836116bf565b73ffffffffffffffffffffffffffffffffffffffff167f8c5be1e5ebec7d5bd14f71427d1e84f3dd0314c0f7b2291e5b200ac8c7c3b92560405160405180910390a45050565b60d560009054906101000a900460ff16156127f857428167ffffffffffffffff1611156127f7576040517f08c379a00000000000000000000000000000000000000000000000000000000081526004016127ee9061547b565b60405180910390fd5b5b50565b600060ce60009054906101000a900473ffffffffffffffffffffffffffffffffffffffff1673ffffffffffffffffffffffffffffffffffffffff168373ffffffffffffffffffffffffffffffffffffffff16141561285c5760019050612869565b612866838361395a565b90505b92915050565b60006128998260d26000868152602001908152602001600020600201613a3890919063ffffffff16565b905092915050565b60006128ae848484613a52565b506128bb8560cf54613ad4565b60cf549050949350505050565b60d36000828152602001908152602001600020600080820160006101000a81549067ffffffffffffffff02191690556000820160086101000a81549067ffffffffffffffff0219169055505061293c8160d26000858152602001908152602001600020600201613af290919063ffffffff16565b506000600167ffffffffffffffff811115612980577f4e487b7100000000000000000000000000000000000000000000000000000000600052604160045260246000fd5b6040519080825280602002602001820160405280156129ae5781602001602082028036833780820191505090505b50905081816000815181106129ec577f4e487b7100000000000000000000000000000000000000000000000000000000600052603260045260246000fd5b6020026020010181815250507fdaf2d83211561a92f21e9184ba96aac6a054d6e4132aa90592fd88eeff75879c81604051612a279190615101565b60405180910390a1505050565b6000612a4282600001613b0c565b9050919050565b612a5281613b1d565b60d260008281526020019081526020016000206000808201600090556001820160006101000a81549067ffffffffffffffff021916905560028201600080820160008082016000612aa39190614313565b50505050505050565b60d06000815480929190612abf906159ef565b919050555060405180604001604052808367ffffffffffffffff1681526020018267ffffffffffffffff1681525060d3600060d054815260200190815260200160002060008201518160000160006101000a81548167ffffffffffffffff021916908367ffffffffffffffff16021790555060208201518160000160086101000a81548167ffffffffffffffff021916908367ffffffffffffffff160217905550905050612b8d60d05460d26000868152602001908152602001600020600201613c3a90919063ffffffff16565b507fd89b3a389fda649f6511ea8da7b3cda710b4478a1a29d5e7a92c89b0b669aa1260d054848484604051612bc5949392919061559e565b60405180910390a1505050565b8273ffffffffffffffffffffffffffffffffffffffff16612bf2826116bf565b73ffffffffffffffffffffffffffffffffffffffff1614612c48576040517f08c379a0000000000000000000000000000000000000000000000000000000008152600401612c3f906151db565b60405180910390fd5b600073ffffffffffffffffffffffffffffffffffffffff168273ffffffffffffffffffffffffffffffffffffffff161415612cb8576040517f08c379a0000000000000000000000000000000000000000000000000000000008152600401612caf9061525b565b60405180910390fd5b612cc3838383613c54565b612cce6000826126dc565b6001606c60008573ffffffffffffffffffffffffffffffffffffffff1673ffffffffffffffffffffffffffffffffffffffff1681526020019081526020016000206000828254612d1e919061585a565b925050819055506001606c60008473ffffffffffffffffffffffffffffffffffffffff1673ffffffffffffffffffffffffffffffffffffffff1681526020019081526020016000206000828254612d759190615795565b9250508190555081606b600083815260200190815260200160002060006101000a81548173ffffffffffffffffffffffffffffffffffffffff021916908373ffffffffffffffffffffffffffffffffffffffff160217905550808273ffffffffffffffffffffffffffffffffffffffff168473ffffffffffffffffffffffffffffffffffffffff167fddf252ad1be2c89b69c2b068fc378daa952ba7f163c4a11628f55a4df523b3ef60405160405180910390a4612e34838383613c59565b505050565b6000612e488360000183613c5e565b60001c905092915050565b60606000612e6383600001613caf565b905060608190508092505050919050565b60008054906101000a900473ffffffffffffffffffffffffffffffffffffffff1673ffffffffffffffffffffffffffffffffffffffff163373ffffffffffffffffffffffffffffffffffffffff1614612f02576040517f08c379a0000000000000000000000000000000000000000000000000000000008152600401612ef9906154db565b60405180910390fd5b565b612f15612f0f6126d4565b836127fb565b612f54576040517f08c379a0000000000000000000000000000000000000000000000000000000008152600401612f4b9061519b565b60405180910390fd5b600060d260008481526020019081526020016000209050600060d360008481526020019081526020016000209050428160000160089054906101000a900467ffffffffffffffff1667ffffffffffffffff161015612fe7576040517f08c379a0000000000000000000000000000000000000000000000000000000008152600401612fde906154bb565b60405180910390fd5b428160000160009054906101000a900467ffffffffffffffff1667ffffffffffffffff16111561304c576040517f08c379a0000000000000000000000000000000000000000000000000000000008152600401613043906154fb565b60405180910390fd5b6130628383600201613a3890919063ffffffff16565b6130a1576040517f08c379a0000000000000000000000000000000000000000000000000000000008152600401613098906152fb565b60405180910390fd5b7f241f46f4ab26147c933bd52501926d0ff84727224002739590fdfcf7a6559f123386868686600001548660000160089054906101000a900467ffffffffffffffff166040516130f6969594939291906150a0565b60405180910390a15050505050565b60405180606001604052808481526020018373ffffffffffffffffffffffffffffffffffffffff1681526020018267ffffffffffffffff16815250600360008581526020019081526020016000206000820151816000015560208201518160010160006101000a81548173ffffffffffffffffffffffffffffffffffffffff021916908373ffffffffffffffffffffffffffffffffffffffff16021790555060408201518160010160146101000a81548167ffffffffffffffff021916908367ffffffffffffffff160217905550905050505050565b8173ffffffffffffffffffffffffffffffffffffffff168373ffffffffffffffffffffffffffffffffffffffff16141561324a576040517f08c379a00000000000000000000000000000000000000000000000000000000081526004016132419061527b565b60405180910390fd5b80606e60008573ffffffffffffffffffffffffffffffffffffffff1673ffffffffffffffffffffffffffffffffffffffff16815260200190815260200160002060008473ffffffffffffffffffffffffffffffffffffffff1673ffffffffffffffffffffffffffffffffffffffff16815260200190815260200160002060006101000a81548160ff0219169083151502179055508173ffffffffffffffffffffffffffffffffffffffff168373ffffffffffffffffffffffffffffffffffffffff167f17307eab39ab6107e8899845ad3d59bd9653f200f220920489ca2b5937696c318360405161333b9190615123565b60405180910390a3505050565b600060ce60009054906101000a900473ffffffffffffffffffffffffffffffffffffffff1673ffffffffffffffffffffffffffffffffffffffff163373ffffffffffffffffffffffffffffffffffffffff1614156133a957600190506135b9565b60008373ffffffffffffffffffffffffffffffffffffffff16636352211e846040518263ffffffff1660e01b81526004016133e4919061551b565b60206040518083038186803b1580156133fc57600080fd5b505afa158015613410573d6000803e3d6000fd5b505050506040513d601f19601f82011682018060405250810190613434919061456a565b90508073ffffffffffffffffffffffffffffffffffffffff168573ffffffffffffffffffffffffffffffffffffffff16148061352357508473ffffffffffffffffffffffffffffffffffffffff168473ffffffffffffffffffffffffffffffffffffffff1663081812fc856040518263ffffffff1660e01b81526004016134bb919061551b565b60206040518083038186803b1580156134d357600080fd5b505afa1580156134e7573d6000803e3d6000fd5b505050506040513d601f19601f8201168201806040525081019061350b919061456a565b73ffffffffffffffffffffffffffffffffffffffff16145b806135b557508373ffffffffffffffffffffffffffffffffffffffff1663e985e9c582876040518363ffffffff1660e01b8152600401613564929190614ff4565b60206040518083038186803b15801561357c57600080fd5b505afa158015613590573d6000803e3d6000fd5b505050506040513d601f19601f820116820180604052508101906135b49190614834565b5b9150505b9392505050565b6135cb848484612bd2565b6135d784848484613d0b565b613616576040517f08c379a000000000000000000000000000000000000000000000000000000000815260040161360d906151bb565b60405180910390fd5b50505050565b600260009054906101000a900473ffffffffffffffffffffffffffffffffffffffff1673ffffffffffffffffffffffffffffffffffffffff163373ffffffffffffffffffffffffffffffffffffffff1614806136c3575060008054906101000a900473ffffffffffffffffffffffffffffffffffffffff1673ffffffffffffffffffffffffffffffffffffffff163373ffffffffffffffffffffffffffffffffffffffff16145b613702576040517f08c379a00000000000000000000000000000000000000000000000000000000081526004016136f99061517b565b60405180910390fd5b565b606060405180602001604052806000815250905090565b60606000821415613763576040518060400160405280600181526020017f300000000000000000000000000000000000000000000000000000000000000081525090506138c3565b600082905060005b6000821461379557808061377e906159ef565b915050600a8261378e9190615829565b915061376b565b60008167ffffffffffffffff8111156137d7577f4e487b7100000000000000000000000000000000000000000000000000000000600052604160045260246000fd5b6040519080825280601f01601f1916602001820160405280156138095781602001600182028036833780820191505090505b5090505b600085146138bc57600182613822919061585a565b9150600a856138319190615a38565b603061383d9190615795565b60f81b818381518110613879577f4e487b7100000000000000000000000000000000000000000000000000000000600052603260045260246000fd5b60200101907effffffffffffffffffffffffffffffffffffffffffffffffffffffffffffff1916908160001a905350600a856138b59190615829565b945061380d565b8093505050505b919050565b600160009054906101000a900473ffffffffffffffffffffffffffffffffffffffff1673ffffffffffffffffffffffffffffffffffffffff163373ffffffffffffffffffffffffffffffffffffffff1614613958576040517f08c379a000000000000000000000000000000000000000000000000000000000815260040161394f9061541b565b60405180910390fd5b565b600061396582612668565b6139a4576040517f08c379a000000000000000000000000000000000000000000000000000000000815260040161399b906152bb565b60405180910390fd5b60006139af836116bf565b90508073ffffffffffffffffffffffffffffffffffffffff168473ffffffffffffffffffffffffffffffffffffffff1614806139f157506139f081856122bc565b5b80613a2f57508373ffffffffffffffffffffffffffffffffffffffff16613a1784610a95565b73ffffffffffffffffffffffffffffffffffffffff16145b91505092915050565b6000613a4a836000018360001b613ea2565b905092915050565b600060cf6000815480929190613a67906159ef565b9190505550600060d2600060cf548152602001908152602001600020905084816000018190555060008160010160006101000a81548167ffffffffffffffff021916908367ffffffffffffffff160217905550613ac760cf548585612aac565b60cf549150509392505050565b613aee828260405180602001604052806000815250613ec5565b5050565b6000613b04836000018360001b613f20565b905092915050565b600081600001805490509050919050565b6000613b28826116bf565b9050613b3681600084613c54565b613b416000836126dc565b6001606c60008373ffffffffffffffffffffffffffffffffffffffff1673ffffffffffffffffffffffffffffffffffffffff1681526020019081526020016000206000828254613b91919061585a565b92505081905550606b600083815260200190815260200160002060006101000a81549073ffffffffffffffffffffffffffffffffffffffff021916905581600073ffffffffffffffffffffffffffffffffffffffff168273ffffffffffffffffffffffffffffffffffffffff167fddf252ad1be2c89b69c2b068fc378daa952ba7f163c4a11628f55a4df523b3ef60405160405180910390a4613c3681600084613c59565b5050565b6000613c4c836000018360001b6140a6565b905092915050565b505050565b505050565b6000826000018281548110613c9c577f4e487b7100000000000000000000000000000000000000000000000000000000600052603260045260246000fd5b9060005260206000200154905092915050565b606081600001805480602002602001604051908101604052809291908181526020018280548015613cff57602002820191906000526020600020905b815481526020019060010190808311613ceb575b50505050509050919050565b6000613d2c8473ffffffffffffffffffffffffffffffffffffffff16614116565b15613e95578373ffffffffffffffffffffffffffffffffffffffff1663150b7a02613d556126d4565b8786866040518563ffffffff1660e01b8152600401613d779493929190615054565b602060405180830381600087803b158015613d9157600080fd5b505af1925050508015613dc257506040513d601f19601f82011682018060405250810190613dbf9190614886565b60015b613e45573d8060008114613df2576040519150601f19603f3d011682016040523d82523d6000602084013e613df7565b606091505b50600081511415613e3d576040517f08c379a0000000000000000000000000000000000000000000000000000000008152600401613e34906151bb565b60405180910390fd5b805181602001fd5b63150b7a0260e01b7bffffffffffffffffffffffffffffffffffffffffffffffffffffffff1916817bffffffffffffffffffffffffffffffffffffffffffffffffffffffff191614915050613e9a565b600190505b949350505050565b600080836001016000848152602001908152602001600020541415905092915050565b613ecf8383614139565b613edc6000848484613d0b565b613f1b576040517f08c379a0000000000000000000000000000000000000000000000000000000008152600401613f12906151bb565b60405180910390fd5b505050565b6000808360010160008481526020019081526020016000205490506000811461409a576000600182613f52919061585a565b9050600060018660000180549050613f6a919061585a565b9050818114614025576000866000018281548110613fb1577f4e487b7100000000000000000000000000000000000000000000000000000000600052603260045260246000fd5b9060005260206000200154905080876000018481548110613ffb577f4e487b7100000000000000000000000000000000000000000000000000000000600052603260045260246000fd5b90600052602060002001819055508387600101600083815260200190815260200160002081905550505b8560000180548061405f577f4e487b7100000000000000000000000000000000000000000000000000000000600052603160045260246000fd5b6001900381819060005260206000200160009055905585600101600086815260200190815260200160002060009055600193505050506140a0565b60009150505b92915050565b60006140b28383613ea2565b61410b578260000182908060018154018082558091505060019003906000526020600020016000909190919091505582600001805490508360010160008481526020019081526020016000208190555060019050614110565b600090505b92915050565b6000808273ffffffffffffffffffffffffffffffffffffffff163b119050919050565b600073ffffffffffffffffffffffffffffffffffffffff168273ffffffffffffffffffffffffffffffffffffffff1614156141a9576040517f08c379a00000000000000000000000000000000000000000000000000000000081526004016141a09061537b565b60405180910390fd5b6141b281612668565b156141f2576040517f08c379a00000000000000000000000000000000000000000000000000000000081526004016141e9906151fb565b60405180910390fd5b6141fe60008383613c54565b6001606c60008473ffffffffffffffffffffffffffffffffffffffff1673ffffffffffffffffffffffffffffffffffffffff168152602001908152602001600020600082825461424e9190615795565b9250508190555081606b600083815260200190815260200160002060006101000a81548173ffffffffffffffffffffffffffffffffffffffff021916908373ffffffffffffffffffffffffffffffffffffffff160217905550808273ffffffffffffffffffffffffffffffffffffffff16600073ffffffffffffffffffffffffffffffffffffffff167fddf252ad1be2c89b69c2b068fc378daa952ba7f163c4a11628f55a4df523b3ef60405160405180910390a461430f60008383613c59565b5050565b50805460008255906000526020600020908101906143319190614334565b50565b5b8082111561434d576000816000905550600101614335565b5090565b600061436461435f84615683565b61565e565b9050808382526020820190508285602086028201111561438357600080fd5b60005b858110156143b357816143998882614517565b845260208401935060208301925050600181019050614386565b5050509392505050565b60006143d06143cb846156af565b61565e565b9050828152602081018484840111156143e857600080fd5b6143f384828561594a565b509392505050565b60008135905061440a8161617d565b92915050565b60008151905061441f8161617d565b92915050565b600082601f83011261443657600080fd5b8135614446848260208601614351565b91505092915050565b60008135905061445e81616194565b92915050565b60008151905061447381616194565b92915050565b600081359050614488816161ab565b92915050565b60008151905061449d816161ab565b92915050565b60008083601f8401126144b557600080fd5b8235905067ffffffffffffffff8111156144ce57600080fd5b6020830191508360018202830111156144e657600080fd5b9250929050565b600082601f8301126144fe57600080fd5b813561450e8482602086016143bd565b91505092915050565b600081359050614526816161c2565b92915050565b60008135905061453b816161d9565b92915050565b60006020828403121561455357600080fd5b6000614561848285016143fb565b91505092915050565b60006020828403121561457c57600080fd5b600061458a84828501614410565b91505092915050565b600080604083850312156145a657600080fd5b60006145b4858286016143fb565b92505060206145c5858286016143fb565b9150509250929050565b6000806000606084860312156145e457600080fd5b60006145f2868287016143fb565b9350506020614603868287016143fb565b925050604061461486828701614517565b9150509250925092565b60008060008060006080868803121561463657600080fd5b6000614644888289016143fb565b9550506020614655888289016143fb565b945050604061466688828901614517565b935050606086013567ffffffffffffffff81111561468357600080fd5b61468f888289016144a3565b92509250509295509295909350565b600080600080608085870312156146b457600080fd5b60006146c2878288016143fb565b94505060206146d3878288016143fb565b93505060406146e487828801614517565b925050606085013567ffffffffffffffff81111561470157600080fd5b61470d878288016144ed565b91505092959194509250565b6000806040838503121561472c57600080fd5b600061473a858286016143fb565b925050602061474b8582860161444f565b9150509250929050565b6000806040838503121561476857600080fd5b6000614776858286016143fb565b925050602061478785828601614517565b9150509250929050565b6000806000606084860312156147a657600080fd5b60006147b4868287016143fb565b93505060206147c586828701614517565b92505060406147d686828701614517565b9150509250925092565b600080604083850312156147f357600080fd5b600083013567ffffffffffffffff81111561480d57600080fd5b61481985828601614425565b925050602061482a858286016143fb565b9150509250929050565b60006020828403121561484657600080fd5b600061485484828501614464565b91505092915050565b60006020828403121561486f57600080fd5b600061487d84828501614479565b91505092915050565b60006020828403121561489857600080fd5b60006148a68482850161448e565b91505092915050565b6000602082840312156148c157600080fd5b60006148cf84828501614517565b91505092915050565b600080604083850312156148eb57600080fd5b60006148f985828601614517565b925050602061490a85828601614517565b9150509250929050565b60008060008060008060c0878903121561492d57600080fd5b600061493b89828a01614517565b965050602061494c89828a01614517565b955050604061495d89828a0161452c565b945050606061496e89828a0161452c565b935050608061497f89828a016143fb565b92505060a061499089828a016143fb565b9150509295509295509295565b6000602082840312156149af57600080fd5b60006149bd8482850161452c565b91505092915050565b60006149d28383614f79565b60208301905092915050565b60006149ea8383614f97565b60208301905092915050565b6149ff816158c2565b82525050565b6000614a1082615700565b614a1a8185615746565b9350614a25836156e0565b8060005b83811015614a56578151614a3d88826149c6565b9750614a488361572c565b925050600181019050614a29565b5085935050505092915050565b6000614a6e8261570b565b614a788185615757565b9350614a83836156f0565b8060005b83811015614ab4578151614a9b88826149de565b9750614aa683615739565b925050600181019050614a87565b5085935050505092915050565b614aca816158d4565b82525050565b614ad9816158e0565b82525050565b6000614aea82615716565b614af48185615768565b9350614b04818560208601615959565b614b0d81615b25565b840191505092915050565b6000614b2382615721565b614b2d8185615779565b9350614b3d818560208601615959565b614b4681615b25565b840191505092915050565b6000614b5c82615721565b614b66818561578a565b9350614b76818560208601615959565b80840191505092915050565b6000614b8f600983615779565b9150614b9a82615b36565b602082019050919050565b6000614bb2601683615779565b9150614bbd82615b5f565b602082019050919050565b6000614bd5603283615779565b9150614be082615b88565b604082019050919050565b6000614bf8602583615779565b9150614c0382615bd7565b604082019050919050565b6000614c1b601c83615779565b9150614c2682615c26565b602082019050919050565b6000614c3e600e83615779565b9150614c4982615c4f565b602082019050919050565b6000614c61601783615779565b9150614c6c82615c78565b602082019050919050565b6000614c84602483615779565b9150614c8f82615ca1565b604082019050919050565b6000614ca7601983615779565b9150614cb282615cf0565b602082019050919050565b6000614cca600c83615779565b9150614cd582615d19565b602082019050919050565b6000614ced602c83615779565b9150614cf882615d42565b604082019050919050565b6000614d10601483615779565b9150614d1b82615d91565b602082019050919050565b6000614d33600c83615779565b9150614d3e82615dba565b602082019050919050565b6000614d56603883615779565b9150614d6182615de3565b604082019050919050565b6000614d79602a83615779565b9150614d8482615e32565b604082019050919050565b6000614d9c602983615779565b9150614da782615e81565b604082019050919050565b6000614dbf602083615779565b9150614dca82615ed0565b602082019050919050565b6000614de2602c83615779565b9150614ded82615ef9565b604082019050919050565b6000614e05601683615779565b9150614e1082615f48565b602082019050919050565b6000614e28601083615779565b9150614e3382615f71565b602082019050919050565b6000614e4b602f83615779565b9150614e5682615f9a565b604082019050919050565b6000614e6e601083615779565b9150614e7982615fe9565b602082019050919050565b6000614e91602183615779565b9150614e9c82616012565b604082019050919050565b6000614eb4603183615779565b9150614ebf82616061565b604082019050919050565b6000614ed7600d83615779565b9150614ee2826160b0565b602082019050919050565b6000614efa601f83615779565b9150614f05826160d9565b602082019050919050565b6000614f1d600b83615779565b9150614f2882616102565b602082019050919050565b6000614f40600983615779565b9150614f4b8261612b565b602082019050919050565b6000614f63600d83615779565b9150614f6e82616154565b602082019050919050565b614f828161592c565b82525050565b614f918161592c565b82525050565b614fa081615936565b82525050565b614faf81615936565b82525050565b6000614fc18285614b51565b9150614fcd8284614b51565b91508190509392505050565b6000602082019050614fee60008301846149f6565b92915050565b600060408201905061500960008301856149f6565b61501660208301846149f6565b9392505050565b600060608201905061503260008301866149f6565b61503f60208301856149f6565b61504c6040830184614f88565b949350505050565b600060808201905061506960008301876149f6565b61507660208301866149f6565b6150836040830185614f88565b81810360608301526150958184614adf565b905095945050505050565b600060c0820190506150b560008301896149f6565b6150c260208301886149f6565b6150cf6040830187614f88565b6150dc6060830186614f88565b6150e96080830185614f88565b6150f660a0830184614fa6565b979650505050505050565b6000602082019050818103600083015261511b8184614a05565b905092915050565b60006020820190506151386000830184614ac1565b92915050565b60006020820190506151536000830184614ad0565b92915050565b600060208201905081810360008301526151738184614b18565b905092915050565b6000602082019050818103600083015261519481614b82565b9050919050565b600060208201905081810360008301526151b481614ba5565b9050919050565b600060208201905081810360008301526151d481614bc8565b9050919050565b600060208201905081810360008301526151f481614beb565b9050919050565b6000602082019050818103600083015261521481614c0e565b9050919050565b6000602082019050818103600083015261523481614c31565b9050919050565b6000602082019050818103600083015261525481614c54565b9050919050565b6000602082019050818103600083015261527481614c77565b9050919050565b6000602082019050818103600083015261529481614c9a565b9050919050565b600060208201905081810360008301526152b481614cbd565b9050919050565b600060208201905081810360008301526152d481614ce0565b9050919050565b600060208201905081810360008301526152f481614d03565b9050919050565b6000602082019050818103600083015261531481614d26565b9050919050565b6000602082019050818103600083015261533481614d49565b9050919050565b6000602082019050818103600083015261535481614d6c565b9050919050565b6000602082019050818103600083015261537481614d8f565b9050919050565b6000602082019050818103600083015261539481614db2565b9050919050565b600060208201905081810360008301526153b481614dd5565b9050919050565b600060208201905081810360008301526153d481614df8565b9050919050565b600060208201905081810360008301526153f481614e1b565b9050919050565b6000602082019050818103600083015261541481614e3e565b9050919050565b6000602082019050818103600083015261543481614e61565b9050919050565b6000602082019050818103600083015261545481614e84565b9050919050565b6000602082019050818103600083015261547481614ea7565b9050919050565b6000602082019050818103600083015261549481614eca565b9050919050565b600060208201905081810360008301526154b481614eed565b9050919050565b600060208201905081810360008301526154d481614f10565b9050919050565b600060208201905081810360008301526154f481614f33565b9050919050565b6000602082019050818103600083015261551481614f56565b9050919050565b60006020820190506155306000830184614f88565b92915050565b600060a08201905061554b6000830188614f88565b818103602083015261555d8187614a05565b905081810360408301526155718186614a63565b905081810360608301526155858185614a63565b90506155946080830184614fa6565b9695505050505050565b60006080820190506155b36000830187614f88565b6155c06020830186614f88565b6155cd6040830185614fa6565b6155da6060830184614fa6565b95945050505050565b60006060820190506155f86000830186614f88565b6156056020830185614fa6565b6156126040830184614fa6565b949350505050565b600060208201905061562f6000830184614fa6565b92915050565b600060408201905061564a6000830185614fa6565b6156576020830184614fa6565b9392505050565b6000615668615679565b905061567482826159be565b919050565b6000604051905090565b600067ffffffffffffffff82111561569e5761569d615af6565b5b602082029050602081019050919050565b600067ffffffffffffffff8211156156ca576156c9615af6565b5b6156d382615b25565b9050602081019050919050565b6000819050602082019050919050565b6000819050602082019050919050565b600081519050919050565b600081519050919050565b600081519050919050565b600081519050919050565b6000602082019050919050565b6000602082019050919050565b600082825260208201905092915050565b600082825260208201905092915050565b600082825260208201905092915050565b600082825260208201905092915050565b600081905092915050565b60006157a08261592c565b91506157ab8361592c565b9250827fffffffffffffffffffffffffffffffffffffffffffffffffffffffffffffffff038211156157e0576157df615a69565b5b828201905092915050565b60006157f682615936565b915061580183615936565b92508267ffffffffffffffff0382111561581e5761581d615a69565b5b828201905092915050565b60006158348261592c565b915061583f8361592c565b92508261584f5761584e615a98565b5b828204905092915050565b60006158658261592c565b91506158708361592c565b92508282101561588357615882615a69565b5b828203905092915050565b600061589982615936565b91506158a483615936565b9250828210156158b7576158b6615a69565b5b828203905092915050565b60006158cd8261590c565b9050919050565b60008115159050919050565b60007fffffffff0000000000000000000000000000000000000000000000000000000082169050919050565b600073ffffffffffffffffffffffffffffffffffffffff82169050919050565b6000819050919050565b600067ffffffffffffffff82169050919050565b82818337600083830152505050565b60005b8381101561597757808201518184015260208101905061595c565b83811115615986576000848401525b50505050565b600060028204905060018216806159a457607f821691505b602082108114156159b8576159b7615ac7565b5b50919050565b6159c782615b25565b810181811067ffffffffffffffff821117156159e6576159e5615af6565b5b80604052505050565b60006159fa8261592c565b91507fffffffffffffffffffffffffffffffffffffffffffffffffffffffffffffffff821415615a2d57615a2c615a69565b5b600182019050919050565b6000615a438261592c565b9150615a4e8361592c565b925082615a5e57615a5d615a98565b5b828206905092915050565b7f4e487b7100000000000000000000000000000000000000000000000000000000600052601160045260246000fd5b7f4e487b7100000000000000000000000000000000000000000000000000000000600052601260045260246000fd5b7f4e487b7100000000000000000000000000000000000000000000000000000000600052602260045260246000fd5b7f4e487b7100000000000000000000000000000000000000000000000000000000600052604160045260246000fd5b6000601f19601f8301169050919050565b7f6f6e6c7941646d696e0000000000000000000000000000000000000000000000600082015250565b7f6e6f74206f776e6572206e6f7220617070726f76656400000000000000000000600082015250565b7f4552433732313a207472616e7366657220746f206e6f6e20455243373231526560008201527f63656976657220696d706c656d656e7465720000000000000000000000000000602082015250565b7f4552433732313a207472616e736665722066726f6d20696e636f72726563742060008201527f6f776e6572000000000000000000000000000000000000000000000000000000602082015250565b7f4552433732313a20746f6b656e20616c7265616479206d696e74656400000000600082015250565b7f616c726561647920777261706564000000000000000000000000000000000000600082015250565b7f6e6f7420636f6e7461696e73206475726174696f6e4964000000000000000000600082015250565b7f4552433732313a207472616e7366657220746f20746865207a65726f2061646460008201527f7265737300000000000000000000000000000000000000000000000000000000602082015250565b7f4552433732313a20617070726f766520746f2063616c6c657200000000000000600082015250565b7f6f7574206f662072616e67650000000000000000000000000000000000000000600082015250565b7f4552433732313a206f70657261746f7220717565727920666f72206e6f6e657860008201527f697374656e7420746f6b656e0000000000000000000000000000000000000000602082015250565b7f696e76616c6964207374617274206f7220656e64000000000000000000000000600082015250565b7f6e6f7420636f6e7461696e730000000000000000000000000000000000000000600082015250565b7f4552433732313a20617070726f76652063616c6c6572206973206e6f74206f7760008201527f6e6572206e6f7220617070726f76656420666f7220616c6c0000000000000000602082015250565b7f4552433732313a2062616c616e636520717565727920666f7220746865207a6560008201527f726f206164647265737300000000000000000000000000000000000000000000602082015250565b7f4552433732313a206f776e657220717565727920666f72206e6f6e657869737460008201527f656e7420746f6b656e0000000000000000000000000000000000000000000000602082015250565b7f4552433732313a206d696e7420746f20746865207a65726f2061646472657373600082015250565b7f4552433732313a20617070726f76656420717565727920666f72206e6f6e657860008201527f697374656e7420746f6b656e0000000000000000000000000000000000000000602082015250565b7f6f6e6c7920617070726f766564206f72206f776e657200000000000000000000600082015250565b7f696e76616c6964206475726174696f6e00000000000000000000000000000000600082015250565b7f4552433732314d657461646174613a2055524920717565727920666f72206e6f60008201527f6e6578697374656e7420746f6b656e0000000000000000000000000000000000602082015250565b7f6f6e6c7950656e64696e674f776e657200000000000000000000000000000000600082015250565b7f4552433732313a20617070726f76616c20746f2063757272656e74206f776e6560008201527f7200000000000000000000000000000000000000000000000000000000000000602082015250565b7f4552433732313a207472616e736665722063616c6c6572206973206e6f74206f60008201527f776e6572206e6f7220617070726f766564000000000000000000000000000000602082015250565b7f6d7573742066726f6d206e6f7700000000000000000000000000000000000000600082015250565b7f5265656e7472616e637947756172643a207265656e7472616e742063616c6c00600082015250565b7f696e76616c696420656e64000000000000000000000000000000000000000000600082015250565b7f6f6e6c794f776e65720000000000000000000000000000000000000000000000600082015250565b7f696e76616c696420737461727400000000000000000000000000000000000000600082015250565b616186816158c2565b811461619157600080fd5b50565b61619d816158d4565b81146161a857600080fd5b50565b6161b4816158e0565b81146161bf57600080fd5b50565b6161cb8161592c565b81146161d657600080fd5b50565b6161e281615936565b81146161ed57600080fd5b5056fea2646970667358221220e47272a447aa2a1a9b86f083ae49cd08728d45fe60242740d28d162801790a5964736f6c63430008040033",
  "linkReferences": {},
  "deployedLinkReferences": {}
}