{
  "_format": "hh-sol-artifact-1",
  "contractName": "Warena721",
  "sourceName": "contracts/Double/warena/Warena721.sol",
  "abi": [
    {
      "inputs": [],
      "stateMutability": "nonpayable",
      "type": "constructor"
    },
    {
      "anonymous": false,
      "inputs": [
        {
          "indexed": true,
          "internalType": "address",
          "name": "owner",
          "type": "address"
        },
        {
          "indexed": true,
          "internalType": "address",
          "name": "approved",
          "type": "address"
        },
        {
          "indexed": true,
          "internalType": "uint256",
          "name": "tokenId",
          "type": "uint256"
        }
      ],
      "name": "Approval",
      "type": "event"
    },
    {
      "anonymous": false,
      "inputs": [
        {
          "indexed": true,
          "internalType": "address",
          "name": "owner",
          "type": "address"
        },
        {
          "indexed": true,
          "internalType": "address",
          "name": "operator",
          "type": "address"
        },
        {
          "indexed": false,
          "internalType": "bool",
          "name": "approved",
          "type": "bool"
        }
      ],
      "name": "ApprovalForAll",
      "type": "event"
    },
    {
      "anonymous": false,
      "inputs": [
        {
          "indexed": false,
          "internalType": "address",
          "name": "account",
          "type": "address"
        }
      ],
      "name": "Paused",
      "type": "event"
    },
    {
      "anonymous": false,
      "inputs": [
        {
          "indexed": true,
          "internalType": "bytes32",
          "name": "role",
          "type": "bytes32"
        },
        {
          "indexed": true,
          "internalType": "bytes32",
          "name": "previousAdminRole",
          "type": "bytes32"
        },
        {
          "indexed": true,
          "internalType": "bytes32",
          "name": "newAdminRole",
          "type": "bytes32"
        }
      ],
      "name": "RoleAdminChanged",
      "type": "event"
    },
    {
      "anonymous": false,
      "inputs": [
        {
          "indexed": true,
          "internalType": "bytes32",
          "name": "role",
          "type": "bytes32"
        },
        {
          "indexed": true,
          "internalType": "address",
          "name": "account",
          "type": "address"
        },
        {
          "indexed": true,
          "internalType": "address",
          "name": "sender",
          "type": "address"
        }
      ],
      "name": "RoleGranted",
      "type": "event"
    },
    {
      "anonymous": false,
      "inputs": [
        {
          "indexed": true,
          "internalType": "bytes32",
          "name": "role",
          "type": "bytes32"
        },
        {
          "indexed": true,
          "internalType": "address",
          "name": "account",
          "type": "address"
        },
        {
          "indexed": true,
          "internalType": "address",
          "name": "sender",
          "type": "address"
        }
      ],
      "name": "RoleRevoked",
      "type": "event"
    },
    {
      "anonymous": false,
      "inputs": [
        {
          "indexed": true,
          "internalType": "address",
          "name": "from",
          "type": "address"
        },
        {
          "indexed": true,
          "internalType": "address",
          "name": "to",
          "type": "address"
        },
        {
          "indexed": true,
          "internalType": "uint256",
          "name": "tokenId",
          "type": "uint256"
        }
      ],
      "name": "Transfer",
      "type": "event"
    },
    {
      "anonymous": false,
      "inputs": [
        {
          "indexed": false,
          "internalType": "address",
          "name": "account",
          "type": "address"
        }
      ],
      "name": "Unpaused",
      "type": "event"
    },
    {
      "inputs": [],
      "name": "DEFAULT_ADMIN_ROLE",
      "outputs": [
        {
          "internalType": "bytes32",
          "name": "",
          "type": "bytes32"
        }
      ],
      "stateMutability": "view",
      "type": "function"
    },
    {
      "inputs": [],
      "name": "MINTER_ROLE",
      "outputs": [
        {
          "internalType": "bytes32",
          "name": "",
          "type": "bytes32"
        }
      ],
      "stateMutability": "view",
      "type": "function"
    },
    {
      "inputs": [],
      "name": "PAUSER_ROLE",
      "outputs": [
        {
          "internalType": "bytes32",
          "name": "",
          "type": "bytes32"
        }
      ],
      "stateMutability": "view",
      "type": "function"
    },
    {
      "inputs": [],
      "name": "amountRequireMint",
      "outputs": [
        {
          "internalType": "uint256",
          "name": "",
          "type": "uint256"
        }
      ],
      "stateMutability": "view",
      "type": "function"
    },
    {
      "inputs": [
        {
          "internalType": "address",
          "name": "to",
          "type": "address"
        },
        {
          "internalType": "uint256",
          "name": "tokenId",
          "type": "uint256"
        }
      ],
      "name": "approve",
      "outputs": [],
      "stateMutability": "nonpayable",
      "type": "function"
    },
    {
      "inputs": [
        {
          "internalType": "address",
          "name": "owner",
          "type": "address"
        }
      ],
      "name": "balanceOf",
      "outputs": [
        {
          "internalType": "uint256",
          "name": "",
          "type": "uint256"
        }
      ],
      "stateMutability": "view",
      "type": "function"
    },
    {
      "inputs": [
        {
          "internalType": "uint256",
          "name": "tokenId",
          "type": "uint256"
        }
      ],
      "name": "burn",
      "outputs": [],
      "stateMutability": "nonpayable",
      "type": "function"
    },
    {
      "inputs": [],
      "name": "getAmountRequireMint",
      "outputs": [
        {
          "internalType": "uint256",
          "name": "",
          "type": "uint256"
        }
      ],
      "stateMutability": "view",
      "type": "function"
    },
    {
      "inputs": [
        {
          "internalType": "uint256",
          "name": "tokenId",
          "type": "uint256"
        }
      ],
      "name": "getApproved",
      "outputs": [
        {
          "internalType": "address",
          "name": "",
          "type": "address"
        }
      ],
      "stateMutability": "view",
      "type": "function"
    },
    {
      "inputs": [
        {
          "internalType": "bytes32",
          "name": "role",
          "type": "bytes32"
        }
      ],
      "name": "getRoleAdmin",
      "outputs": [
        {
          "internalType": "bytes32",
          "name": "",
          "type": "bytes32"
        }
      ],
      "stateMutability": "view",
      "type": "function"
    },
    {
      "inputs": [
        {
          "internalType": "bytes32",
          "name": "role",
          "type": "bytes32"
        },
        {
          "internalType": "address",
          "name": "account",
          "type": "address"
        }
      ],
      "name": "grantRole",
      "outputs": [],
      "stateMutability": "nonpayable",
      "type": "function"
    },
    {
      "inputs": [
        {
          "internalType": "bytes32",
          "name": "role",
          "type": "bytes32"
        },
        {
          "internalType": "address",
          "name": "account",
          "type": "address"
        }
      ],
      "name": "hasRole",
      "outputs": [
        {
          "internalType": "bool",
          "name": "",
          "type": "bool"
        }
      ],
      "stateMutability": "view",
      "type": "function"
    },
    {
      "inputs": [
        {
          "internalType": "address",
          "name": "owner",
          "type": "address"
        },
        {
          "internalType": "address",
          "name": "operator",
          "type": "address"
        }
      ],
      "name": "isApprovedForAll",
      "outputs": [
        {
          "internalType": "bool",
          "name": "",
          "type": "bool"
        }
      ],
      "stateMutability": "view",
      "type": "function"
    },
    {
      "inputs": [
        {
          "internalType": "bytes32",
          "name": "",
          "type": "bytes32"
        }
      ],
      "name": "messageHash",
      "outputs": [
        {
          "internalType": "bool",
          "name": "",
          "type": "bool"
        }
      ],
      "stateMutability": "view",
      "type": "function"
    },
    {
      "inputs": [
        {
          "internalType": "address",
          "name": "owner",
          "type": "address"
        },
        {
          "internalType": "string",
          "name": "metadataURI",
          "type": "string"
        }
      ],
      "name": "mintToken",
      "outputs": [
        {
          "internalType": "uint256",
          "name": "",
          "type": "uint256"
        }
      ],
      "stateMutability": "nonpayable",
      "type": "function"
    },
    {
      "inputs": [],
      "name": "name",
      "outputs": [
        {
          "internalType": "string",
          "name": "",
          "type": "string"
        }
      ],
      "stateMutability": "view",
      "type": "function"
    },
    {
      "inputs": [
        {
          "internalType": "uint256",
          "name": "tokenId",
          "type": "uint256"
        }
      ],
      "name": "ownerOf",
      "outputs": [
        {
          "internalType": "address",
          "name": "",
          "type": "address"
        }
      ],
      "stateMutability": "view",
      "type": "function"
    },
    {
      "inputs": [],
      "name": "pause",
      "outputs": [],
      "stateMutability": "nonpayable",
      "type": "function"
    },
    {
      "inputs": [],
      "name": "paused",
      "outputs": [
        {
          "internalType": "bool",
          "name": "",
          "type": "bool"
        }
      ],
      "stateMutability": "view",
      "type": "function"
    },
    {
      "inputs": [
        {
          "internalType": "address",
          "name": "to",
          "type": "address"
        },
        {
          "internalType": "uint256",
          "name": "id",
          "type": "uint256"
        },
        {
          "internalType": "uint256",
          "name": "blockExpiry",
          "type": "uint256"
        }
      ],
      "name": "prepareMintHash",
      "outputs": [
        {
          "internalType": "bytes32",
          "name": "",
          "type": "bytes32"
        }
      ],
      "stateMutability": "view",
      "type": "function"
    },
    {
      "inputs": [
        {
          "internalType": "bytes32",
          "name": "role",
          "type": "bytes32"
        },
        {
          "internalType": "address",
          "name": "account",
          "type": "address"
        }
      ],
      "name": "renounceRole",
      "outputs": [],
      "stateMutability": "nonpayable",
      "type": "function"
    },
    {
      "inputs": [
        {
          "internalType": "bytes32",
          "name": "role",
          "type": "bytes32"
        },
        {
          "internalType": "address",
          "name": "account",
          "type": "address"
        }
      ],
      "name": "revokeRole",
      "outputs": [],
      "stateMutability": "nonpayable",
      "type": "function"
    },
    {
      "inputs": [
        {
          "internalType": "address",
          "name": "to",
          "type": "address"
        },
        {
          "internalType": "uint256",
          "name": "tokenId",
          "type": "uint256"
        },
        {
          "internalType": "uint256",
          "name": "blockExpiry",
          "type": "uint256"
        },
        {
          "internalType": "uint8",
          "name": "v",
          "type": "uint8"
        },
        {
          "internalType": "bytes32",
          "name": "r",
          "type": "bytes32"
        },
        {
          "internalType": "bytes32",
          "name": "s",
          "type": "bytes32"
        },
        {
          "internalType": "string",
          "name": "metadataURI",
          "type": "string"
        }
      ],
      "name": "safeMint",
      "outputs": [],
      "stateMutability": "nonpayable",
      "type": "function"
    },
    {
      "inputs": [
        {
          "internalType": "address",
          "name": "to",
          "type": "address"
        },
        {
          "internalType": "uint256",
          "name": "tokenId",
          "type": "uint256"
        }
      ],
      "name": "safeMint",
      "outputs": [],
      "stateMutability": "nonpayable",
      "type": "function"
    },
    {
      "inputs": [
        {
          "internalType": "address",
          "name": "from",
          "type": "address"
        },
        {
          "internalType": "address",
          "name": "to",
          "type": "address"
        },
        {
          "internalType": "uint256",
          "name": "tokenId",
          "type": "uint256"
        }
      ],
      "name": "safeTransferFrom",
      "outputs": [],
      "stateMutability": "nonpayable",
      "type": "function"
    },
    {
      "inputs": [
        {
          "internalType": "address",
          "name": "from",
          "type": "address"
        },
        {
          "internalType": "address",
          "name": "to",
          "type": "address"
        },
        {
          "internalType": "uint256",
          "name": "tokenId",
          "type": "uint256"
        },
        {
          "internalType": "bytes",
          "name": "_data",
          "type": "bytes"
        }
      ],
      "name": "safeTransferFrom",
      "outputs": [],
      "stateMutability": "nonpayable",
      "type": "function"
    },
    {
      "inputs": [
        {
          "internalType": "address",
          "name": "addressReceiveTokenOpenBox",
          "type": "address"
        }
      ],
      "name": "setAddressReceiveTokenOpenBox",
      "outputs": [],
      "stateMutability": "nonpayable",
      "type": "function"
    },
    {
      "inputs": [
        {
          "internalType": "address",
          "name": "operator",
          "type": "address"
        },
        {
          "internalType": "bool",
          "name": "approved",
          "type": "bool"
        }
      ],
      "name": "setApprovalForAll",
      "outputs": [],
      "stateMutability": "nonpayable",
      "type": "function"
    },
    {
      "inputs": [
        {
          "internalType": "string",
          "name": "newBase721Url",
          "type": "string"
        }
      ],
      "name": "setBase721URI",
      "outputs": [],
      "stateMutability": "nonpayable",
      "type": "function"
    },
    {
      "inputs": [
        {
          "internalType": "address",
          "name": "newMinter",
          "type": "address"
        }
      ],
      "name": "setMinter",
      "outputs": [],
      "stateMutability": "nonpayable",
      "type": "function"
    },
    {
      "inputs": [
        {
          "internalType": "address",
          "name": "newAdmin",
          "type": "address"
        }
      ],
      "name": "setOwner",
      "outputs": [],
      "stateMutability": "nonpayable",
      "type": "function"
    },
    {
      "inputs": [
        {
          "internalType": "address",
          "name": "ierc20Address",
          "type": "address"
        }
      ],
      "name": "setTokenOpenBox",
      "outputs": [],
      "stateMutability": "nonpayable",
      "type": "function"
    },
    {
      "inputs": [
        {
          "internalType": "uint256",
          "name": "amount",
          "type": "uint256"
        }
      ],
      "name": "setTotalTokenOpenBox",
      "outputs": [],
      "stateMutability": "nonpayable",
      "type": "function"
    },
    {
      "inputs": [
        {
          "internalType": "bool",
          "name": "turnOnOpenBox",
          "type": "bool"
        }
      ],
      "name": "setTurnOnOpenBox",
      "outputs": [],
      "stateMutability": "nonpayable",
      "type": "function"
    },
    {
      "inputs": [
        {
          "internalType": "bytes4",
          "name": "interfaceId",
          "type": "bytes4"
        }
      ],
      "name": "supportsInterface",
      "outputs": [
        {
          "internalType": "bool",
          "name": "",
          "type": "bool"
        }
      ],
      "stateMutability": "view",
      "type": "function"
    },
    {
      "inputs": [],
      "name": "symbol",
      "outputs": [
        {
          "internalType": "string",
          "name": "",
          "type": "string"
        }
      ],
      "stateMutability": "view",
      "type": "function"
    },
    {
      "inputs": [
        {
          "internalType": "uint256",
          "name": "index",
          "type": "uint256"
        }
      ],
      "name": "tokenByIndex",
      "outputs": [
        {
          "internalType": "uint256",
          "name": "",
          "type": "uint256"
        }
      ],
      "stateMutability": "view",
      "type": "function"
    },
    {
      "inputs": [
        {
          "internalType": "address",
          "name": "owner",
          "type": "address"
        },
        {
          "internalType": "uint256",
          "name": "index",
          "type": "uint256"
        }
      ],
      "name": "tokenOfOwnerByIndex",
      "outputs": [
        {
          "internalType": "uint256",
          "name": "",
          "type": "uint256"
        }
      ],
      "stateMutability": "view",
      "type": "function"
    },
    {
      "inputs": [
        {
          "internalType": "uint256",
          "name": "tokenId",
          "type": "uint256"
        }
      ],
      "name": "tokenURI",
      "outputs": [
        {
          "internalType": "string",
          "name": "",
          "type": "string"
        }
      ],
      "stateMutability": "view",
      "type": "function"
    },
    {
      "inputs": [],
      "name": "totalSupply",
      "outputs": [
        {
          "internalType": "uint256",
          "name": "",
          "type": "uint256"
        }
      ],
      "stateMutability": "view",
      "type": "function"
    },
    {
      "inputs": [
        {
          "internalType": "address",
          "name": "from",
          "type": "address"
        },
        {
          "internalType": "address",
          "name": "to",
          "type": "address"
        },
        {
          "internalType": "uint256",
          "name": "tokenId",
          "type": "uint256"
        }
      ],
      "name": "transferFrom",
      "outputs": [],
      "stateMutability": "nonpayable",
      "type": "function"
    },
    {
      "inputs": [],
      "name": "unpause",
      "outputs": [],
      "stateMutability": "nonpayable",
      "type": "function"
    }
  ],
  "bytecode": "0x60806040526001600e60146101000a81548160ff0219169083151502179055506801a055690d9db80000600f553480156200003957600080fd5b50604051806020016040528060008152506040518060200160405280600081525081600090805190602001906200007292919062000339565b5080600190805190602001906200008b92919062000339565b5050506000600b60006101000a81548160ff021916908315150217905550620000be6000801b33620001be60201b60201c565b620000f07f65d7a28e3265b37a6474929f336521b332c1681b933f6cb9f3376673440d862a33620001be60201b60201c565b620001227f9f2df0fed2c77648de5860a4cc508cd0818c85b8b8a1ab4ceeef8d981c8956a633620001be60201b60201c565b73a9d75cc3405f0450955050c520843f99aff8749d600d60006101000a81548173ffffffffffffffffffffffffffffffffffffffff021916908373ffffffffffffffffffffffffffffffffffffffff16021790555033600e60006101000a81548173ffffffffffffffffffffffffffffffffffffffff021916908373ffffffffffffffffffffffffffffffffffffffff1602179055506200044e565b620001d08282620001d460201b60201c565b5050565b620001e68282620002c660201b60201c565b620002c2576001600c600084815260200190815260200160002060000160008373ffffffffffffffffffffffffffffffffffffffff1673ffffffffffffffffffffffffffffffffffffffff16815260200190815260200160002060006101000a81548160ff021916908315150217905550620002676200033160201b60201c565b73ffffffffffffffffffffffffffffffffffffffff168173ffffffffffffffffffffffffffffffffffffffff16837f2f8788117e7eff1d82e926ec794901d17c78024a50270940304540a733656f0d60405160405180910390a45b5050565b6000600c600084815260200190815260200160002060000160008373ffffffffffffffffffffffffffffffffffffffff1673ffffffffffffffffffffffffffffffffffffffff16815260200190815260200160002060009054906101000a900460ff16905092915050565b600033905090565b8280546200034790620003e9565b90600052602060002090601f0160209004810192826200036b5760008555620003b7565b82601f106200038657805160ff1916838001178555620003b7565b82800160010185558215620003b7579182015b82811115620003b657825182559160200191906001019062000399565b5b509050620003c69190620003ca565b5090565b5b80821115620003e5576000816000905550600101620003cb565b5090565b600060028204905060018216806200040257607f821691505b602082108114156200041957620004186200041f565b5b50919050565b7f4e487b7100000000000000000000000000000000000000000000000000000000600052602260045260246000fd5b61496e806200045e6000396000f3fe608060405234801561001057600080fd5b506004361061025e5760003560e01c8063621ba41311610146578063a217fddf116100c3578063d539139311610087578063d53913931461072d578063d547741f1461074b578063e46f149d14610767578063e63ab1e914610783578063e985e9c5146107a1578063fca3b5aa146107d15761025e565b8063a217fddf14610677578063a22cb46514610695578063b88d4fde146106b1578063bc9ffa17146106cd578063c87b56dd146106fd5761025e565b8063857f5f8e1161010a578063857f5f8e146105d557806391d14854146105f157806392849a871461062157806395d89b411461063d578063a14481941461065b5761025e565b8063621ba4131461052f5780636352211e1461054d57806363b736dc1461057d57806370a082311461059b5780638456cb59146105cb5761025e565b806332883f29116101df57806342842e0e116101a357806342842e0e1461047157806342966c681461048d57806342d15ef8146104a95780634d605e9a146104c55780634f6ccce7146104e15780635c975abb146105115761025e565b806332883f29146103cf57806336568abe146103eb57806336cedc7c146104075780633d02d0c9146104375780633f4ba83a146104675761025e565b806318160ddd1161022657806318160ddd1461031957806323b872dd14610337578063248a9ca3146103535780632f2ff15d146103835780632f745c591461039f5761025e565b806301ffc9a71461026357806306fdde0314610293578063081812fc146102b1578063095ea7b3146102e157806313af4035146102fd575b600080fd5b61027d60048036038101906102789190613465565b6107ed565b60405161028a9190613b18565b60405180910390f35b61029b6107ff565b6040516102a89190613b4e565b60405180910390f35b6102cb60048036038101906102c691906134f8565b610891565b6040516102d89190613ab1565b60405180910390f35b6102fb60048036038101906102f69190613296565b610916565b005b610317600480360381019061031291906130d7565b610a2e565b005b610321610a4c565b60405161032e9190613e10565b60405180910390f35b610351600480360381019061034c919061313c565b610a59565b005b61036d60048036038101906103689190613400565b610ab9565b60405161037a9190613b33565b60405180910390f35b61039d60048036038101906103989190613429565b610ad9565b005b6103b960048036038101906103b49190613296565b610afa565b6040516103c69190613e10565b60405180910390f35b6103e960048036038101906103e49190613321565b610b9f565b005b61040560048036038101906104009190613429565b610bbc565b005b610421600480360381019061041c91906132d2565b610c3f565b60405161042e9190613b33565b60405180910390f35b610451600480360381019061044c9190613242565b610cbc565b60405161045e9190613e10565b60405180910390f35b61046f610cf4565b005b61048b6004803603810190610486919061313c565b610d29565b005b6104a760048036038101906104a291906134f8565b610d49565b005b6104c360048036038101906104be91906130d7565b610da5565b005b6104df60048036038101906104da91906133d7565b610df7565b005b6104fb60048036038101906104f691906134f8565b610e22565b6040516105089190613e10565b60405180910390f35b610519610eb9565b6040516105269190613b18565b60405180910390f35b610537610ed0565b6040516105449190613e10565b60405180910390f35b610567600480360381019061056291906134f8565b610ed6565b6040516105749190613ab1565b60405180910390f35b610585610f88565b6040516105929190613e10565b60405180910390f35b6105b560048036038101906105b091906130d7565b610f92565b6040516105c29190613e10565b60405180910390f35b6105d361104a565b005b6105ef60048036038101906105ea91906130d7565b61107f565b005b61060b60048036038101906106069190613429565b6110d1565b6040516106189190613b18565b60405180910390f35b61063b600480360381019061063691906134f8565b61113c565b005b610645611154565b6040516106529190613b4e565b60405180910390f35b61067560048036038101906106709190613296565b6111e6565b005b61067f611202565b60405161068c9190613b33565b60405180910390f35b6106af60048036038101906106aa9190613206565b611209565b005b6106cb60048036038101906106c6919061318b565b61121f565b005b6106e760048036038101906106e29190613400565b611281565b6040516106f49190613b18565b60405180910390f35b610717600480360381019061071291906134f8565b6112a1565b6040516107249190613b4e565b60405180910390f35b6107356112c3565b6040516107429190613b33565b60405180910390f35b61076560048036038101906107609190613429565b6112e7565b005b610781600480360381019061077c91906134b7565b611308565b005b61078b611330565b6040516107989190613b33565b60405180910390f35b6107bb60048036038101906107b69190613100565b611354565b6040516107c89190613b18565b60405180910390f35b6107eb60048036038101906107e691906130d7565b6113e8565b005b60006107f882611423565b9050919050565b60606000805461080e906140ff565b80601f016020809104026020016040519081016040528092919081815260200182805461083a906140ff565b80156108875780601f1061085c57610100808354040283529160200191610887565b820191906000526020600020905b81548152906001019060200180831161086a57829003601f168201915b5050505050905090565b600061089c8261149d565b6108db576040517f08c379a00000000000000000000000000000000000000000000000000000000081526004016108d290613d30565b60405180910390fd5b6004600083815260200190815260200160002060009054906101000a900473ffffffffffffffffffffffffffffffffffffffff169050919050565b600061092182610ed6565b90508073ffffffffffffffffffffffffffffffffffffffff168373ffffffffffffffffffffffffffffffffffffffff161415610992576040517f08c379a000000000000000000000000000000000000000000000000000000000815260040161098990613d70565b60405180910390fd5b8073ffffffffffffffffffffffffffffffffffffffff166109b1611509565b73ffffffffffffffffffffffffffffffffffffffff1614806109e057506109df816109da611509565b611354565b5b610a1f576040517f08c379a0000000000000000000000000000000000000000000000000000000008152600401610a1690613cb0565b60405180910390fd5b610a298383611511565b505050565b6000801b610a3b816115ca565b610a486000801b836115de565b5050565b6000600880549050905090565b610a6a610a64611509565b826115ec565b610aa9576040517f08c379a0000000000000000000000000000000000000000000000000000000008152600401610aa090613d90565b60405180910390fd5b610ab48383836116ca565b505050565b6000600c6000838152602001908152602001600020600101549050919050565b610ae282610ab9565b610aeb816115ca565b610af58383611931565b505050565b6000610b0583610f92565b8210610b46576040517f08c379a0000000000000000000000000000000000000000000000000000000008152600401610b3d90613bb0565b60405180910390fd5b600660008473ffffffffffffffffffffffffffffffffffffffff1673ffffffffffffffffffffffffffffffffffffffff168152602001908152602001600020600083815260200190815260200160002054905092915050565b610ba98787611a12565b610bb38682611a30565b50505050505050565b610bc4611509565b73ffffffffffffffffffffffffffffffffffffffff168173ffffffffffffffffffffffffffffffffffffffff1614610c31576040517f08c379a0000000000000000000000000000000000000000000000000000000008152600401610c2890613df0565b60405180910390fd5b610c3b8282611ac7565b5050565b600030838386604051602001610c5894939291906139ec565b604051602081830303815290604052604051602001610c7791906139d5565b60405160208183030381529060405280519060200120604051602001610c9d9190613a51565b6040516020818303038152906040528051906020012090509392505050565b6000610cc86013611ba9565b6000610cd46013611bbf565b9050610ce08482611a12565b610cea8184611a30565b8091505092915050565b7f65d7a28e3265b37a6474929f336521b332c1681b933f6cb9f3376673440d862a610d1e816115ca565b610d26611bcd565b50565b610d448383836040518060200160405280600081525061121f565b505050565b610d5a610d54611509565b826115ec565b610d99576040517f08c379a0000000000000000000000000000000000000000000000000000000008152600401610d9090613dd0565b60405180910390fd5b610da281611c6f565b50565b6000801b610db2816115ca565b81600d60006101000a81548173ffffffffffffffffffffffffffffffffffffffff021916908373ffffffffffffffffffffffffffffffffffffffff1602179055505050565b6000801b610e04816115ca565b81600e60146101000a81548160ff0219169083151502179055505050565b6000610e2c610a4c565b8210610e6d576040517f08c379a0000000000000000000000000000000000000000000000000000000008152600401610e6490613db0565b60405180910390fd5b60088281548110610ea7577f4e487b7100000000000000000000000000000000000000000000000000000000600052603260045260246000fd5b90600052602060002001549050919050565b6000600b60009054906101000a900460ff16905090565b600f5481565b6000806002600084815260200190815260200160002060009054906101000a900473ffffffffffffffffffffffffffffffffffffffff169050600073ffffffffffffffffffffffffffffffffffffffff168173ffffffffffffffffffffffffffffffffffffffff161415610f7f576040517f08c379a0000000000000000000000000000000000000000000000000000000008152600401610f7690613cf0565b60405180910390fd5b80915050919050565b6000600f54905090565b60008073ffffffffffffffffffffffffffffffffffffffff168273ffffffffffffffffffffffffffffffffffffffff161415611003576040517f08c379a0000000000000000000000000000000000000000000000000000000008152600401610ffa90613cd0565b60405180910390fd5b600360008373ffffffffffffffffffffffffffffffffffffffff1673ffffffffffffffffffffffffffffffffffffffff168152602001908152602001600020549050919050565b7f65d7a28e3265b37a6474929f336521b332c1681b933f6cb9f3376673440d862a611074816115ca565b61107c611c7b565b50565b6000801b61108c816115ca565b81600e60006101000a81548173ffffffffffffffffffffffffffffffffffffffff021916908373ffffffffffffffffffffffffffffffffffffffff1602179055505050565b6000600c600084815260200190815260200160002060000160008373ffffffffffffffffffffffffffffffffffffffff1673ffffffffffffffffffffffffffffffffffffffff16815260200190815260200160002060009054906101000a900460ff16905092915050565b6000801b611149816115ca565b81600f819055505050565b606060018054611163906140ff565b80601f016020809104026020016040519081016040528092919081815260200182805461118f906140ff565b80156111dc5780601f106111b1576101008083540402835291602001916111dc565b820191906000526020600020905b8154815290600101906020018083116111bf57829003601f168201915b5050505050905090565b6000801b6111f3816115ca565b6111fd8383611a12565b505050565b6000801b81565b61121b611214611509565b8383611d1e565b5050565b61123061122a611509565b836115ec565b61126f576040517f08c379a000000000000000000000000000000000000000000000000000000000815260040161126690613d90565b60405180910390fd5b61127b84848484611e8b565b50505050565b60106020528060005260406000206000915054906101000a900460ff1681565b60606040518060800160405280605781526020016148e2605791399050919050565b7f9f2df0fed2c77648de5860a4cc508cd0818c85b8b8a1ab4ceeef8d981c8956a681565b6112f082610ab9565b6112f9816115ca565b6113038383611ac7565b505050565b6000801b611315816115ca565b816014908051906020019061132b929190612e91565b505050565b7f65d7a28e3265b37a6474929f336521b332c1681b933f6cb9f3376673440d862a81565b6000600560008473ffffffffffffffffffffffffffffffffffffffff1673ffffffffffffffffffffffffffffffffffffffff16815260200190815260200160002060008373ffffffffffffffffffffffffffffffffffffffff1673ffffffffffffffffffffffffffffffffffffffff16815260200190815260200160002060009054906101000a900460ff16905092915050565b6000801b6113f5816115ca565b61141f7f9f2df0fed2c77648de5860a4cc508cd0818c85b8b8a1ab4ceeef8d981c8956a6836115de565b5050565b60007f7965db0b000000000000000000000000000000000000000000000000000000007bffffffffffffffffffffffffffffffffffffffffffffffffffffffff1916827bffffffffffffffffffffffffffffffffffffffffffffffffffffffff19161480611496575061149582611ee7565b5b9050919050565b60008073ffffffffffffffffffffffffffffffffffffffff166002600084815260200190815260200160002060009054906101000a900473ffffffffffffffffffffffffffffffffffffffff1673ffffffffffffffffffffffffffffffffffffffff1614159050919050565b600033905090565b816004600083815260200190815260200160002060006101000a81548173ffffffffffffffffffffffffffffffffffffffff021916908373ffffffffffffffffffffffffffffffffffffffff160217905550808273ffffffffffffffffffffffffffffffffffffffff1661158483610ed6565b73ffffffffffffffffffffffffffffffffffffffff167f8c5be1e5ebec7d5bd14f71427d1e84f3dd0314c0f7b2291e5b200ac8c7c3b92560405160405180910390a45050565b6115db816115d6611509565b611f61565b50565b6115e88282611931565b5050565b60006115f78261149d565b611636576040517f08c379a000000000000000000000000000000000000000000000000000000000815260040161162d90613c70565b60405180910390fd5b600061164183610ed6565b90508073ffffffffffffffffffffffffffffffffffffffff168473ffffffffffffffffffffffffffffffffffffffff16148061168357506116828185611354565b5b806116c157508373ffffffffffffffffffffffffffffffffffffffff166116a984610891565b73ffffffffffffffffffffffffffffffffffffffff16145b91505092915050565b8273ffffffffffffffffffffffffffffffffffffffff166116ea82610ed6565b73ffffffffffffffffffffffffffffffffffffffff1614611740576040517f08c379a000000000000000000000000000000000000000000000000000000000815260040161173790613bf0565b60405180910390fd5b600073ffffffffffffffffffffffffffffffffffffffff168273ffffffffffffffffffffffffffffffffffffffff1614156117b0576040517f08c379a00000000000000000000000000000000000000000000000000000000081526004016117a790613c30565b60405180910390fd5b6117bb838383611ffe565b6117c6600082611511565b6001600360008573ffffffffffffffffffffffffffffffffffffffff1673ffffffffffffffffffffffffffffffffffffffff16815260200190815260200160002060008282546118169190613fb0565b925050819055506001600360008473ffffffffffffffffffffffffffffffffffffffff1673ffffffffffffffffffffffffffffffffffffffff168152602001908152602001600020600082825461186d9190613f00565b92505081905550816002600083815260200190815260200160002060006101000a81548173ffffffffffffffffffffffffffffffffffffffff021916908373ffffffffffffffffffffffffffffffffffffffff160217905550808273ffffffffffffffffffffffffffffffffffffffff168473ffffffffffffffffffffffffffffffffffffffff167fddf252ad1be2c89b69c2b068fc378daa952ba7f163c4a11628f55a4df523b3ef60405160405180910390a461192c838383612056565b505050565b61193b82826110d1565b611a0e576001600c600084815260200190815260200160002060000160008373ffffffffffffffffffffffffffffffffffffffff1673ffffffffffffffffffffffffffffffffffffffff16815260200190815260200160002060006101000a81548160ff0219169083151502179055506119b3611509565b73ffffffffffffffffffffffffffffffffffffffff168173ffffffffffffffffffffffffffffffffffffffff16837f2f8788117e7eff1d82e926ec794901d17c78024a50270940304540a733656f0d60405160405180910390a45b5050565b611a2c82826040518060200160405280600081525061205b565b5050565b611a398261149d565b611a78576040517f08c379a0000000000000000000000000000000000000000000000000000000008152600401611a6f90613d50565b60405180910390fd5b80601160008481526020019081526020016000209080519060200190611a9f929190612e91565b5081601282604051611ab19190613a3a565b9081526020016040518091039020819055505050565b611ad182826110d1565b15611ba5576000600c600084815260200190815260200160002060000160008373ffffffffffffffffffffffffffffffffffffffff1673ffffffffffffffffffffffffffffffffffffffff16815260200190815260200160002060006101000a81548160ff021916908315150217905550611b4a611509565b73ffffffffffffffffffffffffffffffffffffffff168173ffffffffffffffffffffffffffffffffffffffff16837ff6391f5c32d9c69d2a47ea670b442974b53935d1edc7fd64eb21e047a839171b60405160405180910390a45b5050565b6001816000016000828254019250508190555050565b600081600001549050919050565b611bd5610eb9565b611c14576040517f08c379a0000000000000000000000000000000000000000000000000000000008152600401611c0b90613b90565b60405180910390fd5b6000600b60006101000a81548160ff0219169083151502179055507f5db9ee0a495bf2e6ff9c91a7834c1ba4fdd244a5e8aa4e537bd38aeae4b073aa611c58611509565b604051611c659190613ab1565b60405180910390a1565b611c78816120b6565b50565b611c83610eb9565b15611cc3576040517f08c379a0000000000000000000000000000000000000000000000000000000008152600401611cba90613c90565b60405180910390fd5b6001600b60006101000a81548160ff0219169083151502179055507f62e78cea01bee320cd4e420270b5ea74000d11b0c9f74754ebdbfc544b05a258611d07611509565b604051611d149190613ab1565b60405180910390a1565b8173ffffffffffffffffffffffffffffffffffffffff168373ffffffffffffffffffffffffffffffffffffffff161415611d8d576040517f08c379a0000000000000000000000000000000000000000000000000000000008152600401611d8490613c50565b60405180910390fd5b80600560008573ffffffffffffffffffffffffffffffffffffffff1673ffffffffffffffffffffffffffffffffffffffff16815260200190815260200160002060008473ffffffffffffffffffffffffffffffffffffffff1673ffffffffffffffffffffffffffffffffffffffff16815260200190815260200160002060006101000a81548160ff0219169083151502179055508173ffffffffffffffffffffffffffffffffffffffff168373ffffffffffffffffffffffffffffffffffffffff167f17307eab39ab6107e8899845ad3d59bd9653f200f220920489ca2b5937696c3183604051611e7e9190613b18565b60405180910390a3505050565b611e968484846116ca565b611ea284848484612109565b611ee1576040517f08c379a0000000000000000000000000000000000000000000000000000000008152600401611ed890613bd0565b60405180910390fd5b50505050565b60007f780e9d63000000000000000000000000000000000000000000000000000000007bffffffffffffffffffffffffffffffffffffffffffffffffffffffff1916827bffffffffffffffffffffffffffffffffffffffffffffffffffffffff19161480611f5a5750611f59826122a0565b5b9050919050565b611f6b82826110d1565b611ffa57611f908173ffffffffffffffffffffffffffffffffffffffff166014612382565b611f9e8360001c6020612382565b604051602001611faf929190613a77565b6040516020818303038152906040526040517f08c379a0000000000000000000000000000000000000000000000000000000008152600401611ff19190613b4e565b60405180910390fd5b5050565b612006610eb9565b15612046576040517f08c379a000000000000000000000000000000000000000000000000000000000815260040161203d90613c90565b60405180910390fd5b61205183838361267c565b505050565b505050565b6120658383612790565b6120726000848484612109565b6120b1576040517f08c379a00000000000000000000000000000000000000000000000000000000081526004016120a890613bd0565b60405180910390fd5b505050565b6120bf8161296a565b6000600a600083815260200190815260200160002080546120df906140ff565b90501461210657600a600082815260200190815260200160002060006121059190612f17565b5b50565b600061212a8473ffffffffffffffffffffffffffffffffffffffff16612a87565b15612293578373ffffffffffffffffffffffffffffffffffffffff1663150b7a02612153611509565b8786866040518563ffffffff1660e01b81526004016121759493929190613acc565b602060405180830381600087803b15801561218f57600080fd5b505af19250505080156121c057506040513d601f19601f820116820180604052508101906121bd919061348e565b60015b612243573d80600081146121f0576040519150601f19603f3d011682016040523d82523d6000602084013e6121f5565b606091505b5060008151141561223b576040517f08c379a000000000000000000000000000000000000000000000000000000000815260040161223290613bd0565b60405180910390fd5b805181602001fd5b63150b7a0260e01b7bffffffffffffffffffffffffffffffffffffffffffffffffffffffff1916817bffffffffffffffffffffffffffffffffffffffffffffffffffffffff191614915050612298565b600190505b949350505050565b60007f80ac58cd000000000000000000000000000000000000000000000000000000007bffffffffffffffffffffffffffffffffffffffffffffffffffffffff1916827bffffffffffffffffffffffffffffffffffffffffffffffffffffffff1916148061236b57507f5b5e139f000000000000000000000000000000000000000000000000000000007bffffffffffffffffffffffffffffffffffffffffffffffffffffffff1916827bffffffffffffffffffffffffffffffffffffffffffffffffffffffff1916145b8061237b575061237a82612aaa565b5b9050919050565b6060600060028360026123959190613f56565b61239f9190613f00565b67ffffffffffffffff8111156123de577f4e487b7100000000000000000000000000000000000000000000000000000000600052604160045260246000fd5b6040519080825280601f01601f1916602001820160405280156124105781602001600182028036833780820191505090505b5090507f30000000000000000000000000000000000000000000000000000000000000008160008151811061246e577f4e487b7100000000000000000000000000000000000000000000000000000000600052603260045260246000fd5b60200101907effffffffffffffffffffffffffffffffffffffffffffffffffffffffffffff1916908160001a9053507f7800000000000000000000000000000000000000000000000000000000000000816001815181106124f8577f4e487b7100000000000000000000000000000000000000000000000000000000600052603260045260246000fd5b60200101907effffffffffffffffffffffffffffffffffffffffffffffffffffffffffffff1916908160001a905350600060018460026125389190613f56565b6125429190613f00565b90505b600181111561262e577f3031323334353637383961626364656600000000000000000000000000000000600f8616601081106125aa577f4e487b7100000000000000000000000000000000000000000000000000000000600052603260045260246000fd5b1a60f81b8282815181106125e7577f4e487b7100000000000000000000000000000000000000000000000000000000600052603260045260246000fd5b60200101907effffffffffffffffffffffffffffffffffffffffffffffffffffffffffffff1916908160001a905350600485901c945080612627906140d5565b9050612545565b5060008414612672576040517f08c379a000000000000000000000000000000000000000000000000000000000815260040161266990613b70565b60405180910390fd5b8091505092915050565b612687838383612b14565b600073ffffffffffffffffffffffffffffffffffffffff168373ffffffffffffffffffffffffffffffffffffffff1614156126ca576126c581612b19565b612709565b8173ffffffffffffffffffffffffffffffffffffffff168373ffffffffffffffffffffffffffffffffffffffff1614612708576127078382612b62565b5b5b600073ffffffffffffffffffffffffffffffffffffffff168273ffffffffffffffffffffffffffffffffffffffff16141561274c5761274781612ccf565b61278b565b8273ffffffffffffffffffffffffffffffffffffffff168273ffffffffffffffffffffffffffffffffffffffff161461278a576127898282612e12565b5b5b505050565b600073ffffffffffffffffffffffffffffffffffffffff168273ffffffffffffffffffffffffffffffffffffffff161415612800576040517f08c379a00000000000000000000000000000000000000000000000000000000081526004016127f790613d10565b60405180910390fd5b6128098161149d565b15612849576040517f08c379a000000000000000000000000000000000000000000000000000000000815260040161284090613c10565b60405180910390fd5b61285560008383611ffe565b6001600360008473ffffffffffffffffffffffffffffffffffffffff1673ffffffffffffffffffffffffffffffffffffffff16815260200190815260200160002060008282546128a59190613f00565b92505081905550816002600083815260200190815260200160002060006101000a81548173ffffffffffffffffffffffffffffffffffffffff021916908373ffffffffffffffffffffffffffffffffffffffff160217905550808273ffffffffffffffffffffffffffffffffffffffff16600073ffffffffffffffffffffffffffffffffffffffff167fddf252ad1be2c89b69c2b068fc378daa952ba7f163c4a11628f55a4df523b3ef60405160405180910390a461296660008383612056565b5050565b600061297582610ed6565b905061298381600084611ffe565b61298e600083611511565b6001600360008373ffffffffffffffffffffffffffffffffffffffff1673ffffffffffffffffffffffffffffffffffffffff16815260200190815260200160002060008282546129de9190613fb0565b925050819055506002600083815260200190815260200160002060006101000a81549073ffffffffffffffffffffffffffffffffffffffff021916905581600073ffffffffffffffffffffffffffffffffffffffff168273ffffffffffffffffffffffffffffffffffffffff167fddf252ad1be2c89b69c2b068fc378daa952ba7f163c4a11628f55a4df523b3ef60405160405180910390a4612a8381600084612056565b5050565b6000808273ffffffffffffffffffffffffffffffffffffffff163b119050919050565b60007f01ffc9a7000000000000000000000000000000000000000000000000000000007bffffffffffffffffffffffffffffffffffffffffffffffffffffffff1916827bffffffffffffffffffffffffffffffffffffffffffffffffffffffff1916149050919050565b505050565b6008805490506009600083815260200190815260200160002081905550600881908060018154018082558091505060019003906000526020600020016000909190919091505550565b60006001612b6f84610f92565b612b799190613fb0565b9050600060076000848152602001908152602001600020549050818114612c5e576000600660008673ffffffffffffffffffffffffffffffffffffffff1673ffffffffffffffffffffffffffffffffffffffff168152602001908152602001600020600084815260200190815260200160002054905080600660008773ffffffffffffffffffffffffffffffffffffffff1673ffffffffffffffffffffffffffffffffffffffff168152602001908152602001600020600084815260200190815260200160002081905550816007600083815260200190815260200160002081905550505b6007600084815260200190815260200160002060009055600660008573ffffffffffffffffffffffffffffffffffffffff1673ffffffffffffffffffffffffffffffffffffffff16815260200190815260200160002060008381526020019081526020016000206000905550505050565b60006001600880549050612ce39190613fb0565b9050600060096000848152602001908152602001600020549050600060088381548110612d39577f4e487b7100000000000000000000000000000000000000000000000000000000600052603260045260246000fd5b906000526020600020015490508060088381548110612d81577f4e487b7100000000000000000000000000000000000000000000000000000000600052603260045260246000fd5b906000526020600020018190555081600960008381526020019081526020016000208190555060096000858152602001908152602001600020600090556008805480612df6577f4e487b7100000000000000000000000000000000000000000000000000000000600052603160045260246000fd5b6001900381819060005260206000200160009055905550505050565b6000612e1d83610f92565b905081600660008573ffffffffffffffffffffffffffffffffffffffff1673ffffffffffffffffffffffffffffffffffffffff168152602001908152602001600020600083815260200190815260200160002081905550806007600084815260200190815260200160002081905550505050565b828054612e9d906140ff565b90600052602060002090601f016020900481019282612ebf5760008555612f06565b82601f10612ed857805160ff1916838001178555612f06565b82800160010185558215612f06579182015b82811115612f05578251825591602001919060010190612eea565b5b509050612f139190612f57565b5090565b508054612f23906140ff565b6000825580601f10612f355750612f54565b601f016020900490600052602060002090810190612f539190612f57565b5b50565b5b80821115612f70576000816000905550600101612f58565b5090565b6000612f87612f8284613e50565b613e2b565b905082815260208101848484011115612f9f57600080fd5b612faa848285614093565b509392505050565b6000612fc5612fc084613e81565b613e2b565b905082815260208101848484011115612fdd57600080fd5b612fe8848285614093565b509392505050565b600081359050612fff81614857565b92915050565b6000813590506130148161486e565b92915050565b60008135905061302981614885565b92915050565b60008135905061303e8161489c565b92915050565b6000815190506130538161489c565b92915050565b600082601f83011261306a57600080fd5b813561307a848260208601612f74565b91505092915050565b600082601f83011261309457600080fd5b81356130a4848260208601612fb2565b91505092915050565b6000813590506130bc816148b3565b92915050565b6000813590506130d1816148ca565b92915050565b6000602082840312156130e957600080fd5b60006130f784828501612ff0565b91505092915050565b6000806040838503121561311357600080fd5b600061312185828601612ff0565b925050602061313285828601612ff0565b9150509250929050565b60008060006060848603121561315157600080fd5b600061315f86828701612ff0565b935050602061317086828701612ff0565b9250506040613181868287016130ad565b9150509250925092565b600080600080608085870312156131a157600080fd5b60006131af87828801612ff0565b94505060206131c087828801612ff0565b93505060406131d1878288016130ad565b925050606085013567ffffffffffffffff8111156131ee57600080fd5b6131fa87828801613059565b91505092959194509250565b6000806040838503121561321957600080fd5b600061322785828601612ff0565b925050602061323885828601613005565b9150509250929050565b6000806040838503121561325557600080fd5b600061326385828601612ff0565b925050602083013567ffffffffffffffff81111561328057600080fd5b61328c85828601613083565b9150509250929050565b600080604083850312156132a957600080fd5b60006132b785828601612ff0565b92505060206132c8858286016130ad565b9150509250929050565b6000806000606084860312156132e757600080fd5b60006132f586828701612ff0565b9350506020613306868287016130ad565b9250506040613317868287016130ad565b9150509250925092565b600080600080600080600060e0888a03121561333c57600080fd5b600061334a8a828b01612ff0565b975050602061335b8a828b016130ad565b965050604061336c8a828b016130ad565b955050606061337d8a828b016130c2565b945050608061338e8a828b0161301a565b93505060a061339f8a828b0161301a565b92505060c088013567ffffffffffffffff8111156133bc57600080fd5b6133c88a828b01613083565b91505092959891949750929550565b6000602082840312156133e957600080fd5b60006133f784828501613005565b91505092915050565b60006020828403121561341257600080fd5b60006134208482850161301a565b91505092915050565b6000806040838503121561343c57600080fd5b600061344a8582860161301a565b925050602061345b85828601612ff0565b9150509250929050565b60006020828403121561347757600080fd5b60006134858482850161302f565b91505092915050565b6000602082840312156134a057600080fd5b60006134ae84828501613044565b91505092915050565b6000602082840312156134c957600080fd5b600082013567ffffffffffffffff8111156134e357600080fd5b6134ef84828501613083565b91505092915050565b60006020828403121561350a57600080fd5b6000613518848285016130ad565b91505092915050565b61352a81613fe4565b82525050565b61354161353c82613fe4565b614162565b82525050565b61355081613ff6565b82525050565b61355f81614002565b82525050565b61357661357182614002565b614174565b82525050565b600061358782613eb2565b6135918185613ec8565b93506135a18185602086016140a2565b6135aa81614227565b840191505092915050565b60006135c082613eb2565b6135ca8185613ed9565b93506135da8185602086016140a2565b80840191505092915050565b6135f76135f28261406f565b614162565b82525050565b600061360882613ebd565b6136128185613ee4565b93506136228185602086016140a2565b61362b81614227565b840191505092915050565b600061364182613ebd565b61364b8185613ef5565b935061365b8185602086016140a2565b80840191505092915050565b6000613674602083613ee4565b915061367f82614245565b602082019050919050565b6000613697601483613ee4565b91506136a28261426e565b602082019050919050565b60006136ba601c83613ef5565b91506136c582614297565b601c82019050919050565b60006136dd602b83613ee4565b91506136e8826142c0565b604082019050919050565b6000613700603283613ee4565b915061370b8261430f565b604082019050919050565b6000613723602583613ee4565b915061372e8261435e565b604082019050919050565b6000613746601c83613ee4565b9150613751826143ad565b602082019050919050565b6000613769602483613ee4565b9150613774826143d6565b604082019050919050565b600061378c601983613ee4565b915061379782614425565b602082019050919050565b60006137af602c83613ee4565b91506137ba8261444e565b604082019050919050565b60006137d2601083613ee4565b91506137dd8261449d565b602082019050919050565b60006137f5603883613ee4565b9150613800826144c6565b604082019050919050565b6000613818602a83613ee4565b915061382382614515565b604082019050919050565b600061383b602983613ee4565b915061384682614564565b604082019050919050565b600061385e602083613ee4565b9150613869826145b3565b602082019050919050565b6000613881602c83613ee4565b915061388c826145dc565b604082019050919050565b60006138a4602c83613ee4565b91506138af8261462b565b604082019050919050565b60006138c7602183613ee4565b91506138d28261467a565b604082019050919050565b60006138ea603183613ee4565b91506138f5826146c9565b604082019050919050565b600061390d602c83613ee4565b915061391882614718565b604082019050919050565b6000613930601783613ef5565b915061393b82614767565b601782019050919050565b6000613953603083613ee4565b915061395e82614790565b604082019050919050565b6000613976601183613ef5565b9150613981826147df565b601182019050919050565b6000613999602f83613ee4565b91506139a482614808565b604082019050919050565b6139b881614058565b82525050565b6139cf6139ca82614058565b614190565b82525050565b60006139e182846135b5565b915081905092915050565b60006139f882876135e6565b601482019150613a0882866139be565b602082019150613a1882856139be565b602082019150613a288284613530565b60148201915081905095945050505050565b6000613a468284613636565b915081905092915050565b6000613a5c826136ad565b9150613a688284613565565b60208201915081905092915050565b6000613a8282613923565b9150613a8e8285613636565b9150613a9982613969565b9150613aa58284613636565b91508190509392505050565b6000602082019050613ac66000830184613521565b92915050565b6000608082019050613ae16000830187613521565b613aee6020830186613521565b613afb60408301856139af565b8181036060830152613b0d818461357c565b905095945050505050565b6000602082019050613b2d6000830184613547565b92915050565b6000602082019050613b486000830184613556565b92915050565b60006020820190508181036000830152613b6881846135fd565b905092915050565b60006020820190508181036000830152613b8981613667565b9050919050565b60006020820190508181036000830152613ba98161368a565b9050919050565b60006020820190508181036000830152613bc9816136d0565b9050919050565b60006020820190508181036000830152613be9816136f3565b9050919050565b60006020820190508181036000830152613c0981613716565b9050919050565b60006020820190508181036000830152613c2981613739565b9050919050565b60006020820190508181036000830152613c498161375c565b9050919050565b60006020820190508181036000830152613c698161377f565b9050919050565b60006020820190508181036000830152613c89816137a2565b9050919050565b60006020820190508181036000830152613ca9816137c5565b9050919050565b60006020820190508181036000830152613cc9816137e8565b9050919050565b60006020820190508181036000830152613ce98161380b565b9050919050565b60006020820190508181036000830152613d098161382e565b9050919050565b60006020820190508181036000830152613d2981613851565b9050919050565b60006020820190508181036000830152613d4981613874565b9050919050565b60006020820190508181036000830152613d6981613897565b9050919050565b60006020820190508181036000830152613d89816138ba565b9050919050565b60006020820190508181036000830152613da9816138dd565b9050919050565b60006020820190508181036000830152613dc981613900565b9050919050565b60006020820190508181036000830152613de981613946565b9050919050565b60006020820190508181036000830152613e098161398c565b9050919050565b6000602082019050613e2560008301846139af565b92915050565b6000613e35613e46565b9050613e418282614131565b919050565b6000604051905090565b600067ffffffffffffffff821115613e6b57613e6a6141f8565b5b613e7482614227565b9050602081019050919050565b600067ffffffffffffffff821115613e9c57613e9b6141f8565b5b613ea582614227565b9050602081019050919050565b600081519050919050565b600081519050919050565b600082825260208201905092915050565b600081905092915050565b600082825260208201905092915050565b600081905092915050565b6000613f0b82614058565b9150613f1683614058565b9250827fffffffffffffffffffffffffffffffffffffffffffffffffffffffffffffffff03821115613f4b57613f4a61419a565b5b828201905092915050565b6000613f6182614058565b9150613f6c83614058565b9250817fffffffffffffffffffffffffffffffffffffffffffffffffffffffffffffffff0483118215151615613fa557613fa461419a565b5b828202905092915050565b6000613fbb82614058565b9150613fc683614058565b925082821015613fd957613fd861419a565b5b828203905092915050565b6000613fef82614038565b9050919050565b60008115159050919050565b6000819050919050565b60007fffffffff0000000000000000000000000000000000000000000000000000000082169050919050565b600073ffffffffffffffffffffffffffffffffffffffff82169050919050565b6000819050919050565b600060ff82169050919050565b600061407a82614081565b9050919050565b600061408c82614038565b9050919050565b82818337600083830152505050565b60005b838110156140c05780820151818401526020810190506140a5565b838111156140cf576000848401525b50505050565b60006140e082614058565b915060008214156140f4576140f361419a565b5b600182039050919050565b6000600282049050600182168061411757607f821691505b6020821081141561412b5761412a6141c9565b5b50919050565b61413a82614227565b810181811067ffffffffffffffff82111715614159576141586141f8565b5b80604052505050565b600061416d8261417e565b9050919050565b6000819050919050565b600061418982614238565b9050919050565b6000819050919050565b7f4e487b7100000000000000000000000000000000000000000000000000000000600052601160045260246000fd5b7f4e487b7100000000000000000000000000000000000000000000000000000000600052602260045260246000fd5b7f4e487b7100000000000000000000000000000000000000000000000000000000600052604160045260246000fd5b6000601f19601f8301169050919050565b60008160601b9050919050565b7f537472696e67733a20686578206c656e67746820696e73756666696369656e74600082015250565b7f5061757361626c653a206e6f7420706175736564000000000000000000000000600082015250565b7f19457468657265756d205369676e6564204d6573736167653a0a333200000000600082015250565b7f455243373231456e756d657261626c653a206f776e657220696e646578206f7560008201527f74206f6620626f756e6473000000000000000000000000000000000000000000602082015250565b7f4552433732313a207472616e7366657220746f206e6f6e20455243373231526560008201527f63656976657220696d706c656d656e7465720000000000000000000000000000602082015250565b7f4552433732313a207472616e736665722066726f6d20696e636f72726563742060008201527f6f776e6572000000000000000000000000000000000000000000000000000000602082015250565b7f4552433732313a20746f6b656e20616c7265616479206d696e74656400000000600082015250565b7f4552433732313a207472616e7366657220746f20746865207a65726f2061646460008201527f7265737300000000000000000000000000000000000000000000000000000000602082015250565b7f4552433732313a20617070726f766520746f2063616c6c657200000000000000600082015250565b7f4552433732313a206f70657261746f7220717565727920666f72206e6f6e657860008201527f697374656e7420746f6b656e0000000000000000000000000000000000000000602082015250565b7f5061757361626c653a2070617573656400000000000000000000000000000000600082015250565b7f4552433732313a20617070726f76652063616c6c6572206973206e6f74206f7760008201527f6e6572206e6f7220617070726f76656420666f7220616c6c0000000000000000602082015250565b7f4552433732313a2062616c616e636520717565727920666f7220746865207a6560008201527f726f206164647265737300000000000000000000000000000000000000000000602082015250565b7f4552433732313a206f776e657220717565727920666f72206e6f6e657869737460008201527f656e7420746f6b656e0000000000000000000000000000000000000000000000602082015250565b7f4552433732313a206d696e7420746f20746865207a65726f2061646472657373600082015250565b7f4552433732313a20617070726f76656420717565727920666f72206e6f6e657860008201527f697374656e7420746f6b656e0000000000000000000000000000000000000000602082015250565b7f4552433732314d657461646174613a2055524920736574206f66206e6f6e657860008201527f697374656e7420746f6b656e0000000000000000000000000000000000000000602082015250565b7f4552433732313a20617070726f76616c20746f2063757272656e74206f776e6560008201527f7200000000000000000000000000000000000000000000000000000000000000602082015250565b7f4552433732313a207472616e736665722063616c6c6572206973206e6f74206f60008201527f776e6572206e6f7220617070726f766564000000000000000000000000000000602082015250565b7f455243373231456e756d657261626c653a20676c6f62616c20696e646578206f60008201527f7574206f6620626f756e64730000000000000000000000000000000000000000602082015250565b7f416363657373436f6e74726f6c3a206163636f756e7420000000000000000000600082015250565b7f4552433732314275726e61626c653a2063616c6c6572206973206e6f74206f7760008201527f6e6572206e6f7220617070726f76656400000000000000000000000000000000602082015250565b7f206973206d697373696e6720726f6c6520000000000000000000000000000000600082015250565b7f416363657373436f6e74726f6c3a2063616e206f6e6c792072656e6f756e636560008201527f20726f6c657320666f722073656c660000000000000000000000000000000000602082015250565b61486081613fe4565b811461486b57600080fd5b50565b61487781613ff6565b811461488257600080fd5b50565b61488e81614002565b811461489957600080fd5b50565b6148a58161400c565b81146148b057600080fd5b50565b6148bc81614058565b81146148c757600080fd5b50565b6148d381614062565b81146148de57600080fd5b5056fe68747470733a2f2f696e667572612d697066732e696f2f697066732f6261666b726569686265676f75787367626333706578766f706c75656f757a6f616567707163356172696962746a7161686934626671766a6c3371a26469706673582212201952c29520aee68c7e7615460ece6b184e7e05187ad3211822a9071b86cf749364736f6c63430008040033",
  "linkReferences": {},
  "deployedLinkReferences": {}
}