{
    "contractName": "vNFT",
    "abi": [
        {
            "anonymous": false,
            "inputs": [
                {
                    "indexed": true,
                    "internalType": "address",
                    "name": "owner",
                    "type": "address"
                },
                {
                    "indexed": true,
                    "internalType": "address",
                    "name": "approved",
                    "type": "address"
                },
                {
                    "indexed": true,
                    "internalType": "uint256",
                    "name": "tokenId",
                    "type": "uint256"
                }
            ],
            "name": "Approval",
            "type": "event"
        },
        {
            "anonymous": false,
            "inputs": [
                {
                    "indexed": true,
                    "internalType": "address",
                    "name": "owner",
                    "type": "address"
                },
                {
                    "indexed": true,
                    "internalType": "address",
                    "name": "operator",
                    "type": "address"
                },
                {
                    "indexed": false,
                    "internalType": "bool",
                    "name": "approved",
                    "type": "bool"
                }
            ],
            "name": "ApprovalForAll",
            "type": "event"
        },
        {
            "anonymous": false,
            "inputs": [
                {
                    "indexed": false,
                    "internalType": "address",
                    "name": "opreator",
                    "type": "address"
                },
                {
                    "indexed": false,
                    "internalType": "address",
                    "name": "to",
                    "type": "address"
                },
                {
                    "indexed": false,
                    "internalType": "uint256",
                    "name": "tokenId",
                    "type": "uint256"
                },
                {
                    "indexed": false,
                    "internalType": "uint256",
                    "name": "durationId",
                    "type": "uint256"
                },
                {
                    "indexed": false,
                    "internalType": "uint256",
                    "name": "oid",
                    "type": "uint256"
                },
                {
                    "indexed": false,
                    "internalType": "uint64",
                    "name": "expires",
                    "type": "uint64"
                }
            ],
            "name": "CheckIn",
            "type": "event"
        },
        {
            "anonymous": false,
            "inputs": [
                {
                    "indexed": false,
                    "internalType": "uint256[]",
                    "name": "durationIdList",
                    "type": "uint256[]"
                }
            ],
            "name": "DurationBurn",
            "type": "event"
        },
        {
            "anonymous": false,
            "inputs": [
                {
                    "indexed": false,
                    "internalType": "uint256",
                    "name": "durationId",
                    "type": "uint256"
                },
                {
                    "indexed": false,
                    "internalType": "uint256",
                    "name": "tokenId",
                    "type": "uint256"
                },
                {
                    "indexed": false,
                    "internalType": "uint64",
                    "name": "start",
                    "type": "uint64"
                },
                {
                    "indexed": false,
                    "internalType": "uint64",
                    "name": "end",
                    "type": "uint64"
                }
            ],
            "name": "DurationUpdate",
            "type": "event"
        },
        {
            "anonymous": false,
            "inputs": [
                {
                    "indexed": false,
                    "internalType": "uint8",
                    "name": "version",
                    "type": "uint8"
                }
            ],
            "name": "Initialized",
            "type": "event"
        },
        {
            "anonymous": false,
            "inputs": [
                {
                    "indexed": false,
                    "internalType": "uint256",
                    "name": "tokenId",
                    "type": "uint256"
                }
            ],
            "name": "MetadataUpdate",
            "type": "event"
        },
        {
            "anonymous": false,
            "inputs": [
                {
                    "indexed": false,
                    "internalType": "address",
                    "name": "oldAdmin",
                    "type": "address"
                },
                {
                    "indexed": false,
                    "internalType": "address",
                    "name": "newAdmin",
                    "type": "address"
                }
            ],
            "name": "NewAdmin",
            "type": "event"
        },
        {
            "anonymous": false,
            "inputs": [
                {
                    "indexed": false,
                    "internalType": "address",
                    "name": "oldOwner",
                    "type": "address"
                },
                {
                    "indexed": false,
                    "internalType": "address",
                    "name": "newOwner",
                    "type": "address"
                }
            ],
            "name": "NewOwner",
            "type": "event"
        },
        {
            "anonymous": false,
            "inputs": [
                {
                    "indexed": false,
                    "internalType": "address",
                    "name": "oldPendingOwner",
                    "type": "address"
                },
                {
                    "indexed": false,
                    "internalType": "address",
                    "name": "newPendingOwner",
                    "type": "address"
                }
            ],
            "name": "NewPendingOwner",
            "type": "event"
        },
        {
            "anonymous": false,
            "inputs": [
                {
                    "indexed": false,
                    "internalType": "uint256",
                    "name": "oid",
                    "type": "uint256"
                },
                {
                    "indexed": false,
                    "internalType": "uint256",
                    "name": "tokenId",
                    "type": "uint256"
                }
            ],
            "name": "Redeem",
            "type": "event"
        },
        {
            "anonymous": false,
            "inputs": [
                {
                    "indexed": true,
                    "internalType": "address",
                    "name": "from",
                    "type": "address"
                },
                {
                    "indexed": true,
                    "internalType": "address",
                    "name": "to",
                    "type": "address"
                },
                {
                    "indexed": true,
                    "internalType": "uint256",
                    "name": "tokenId",
                    "type": "uint256"
                }
            ],
            "name": "Transfer",
            "type": "event"
        },
        {
            "inputs": [],
            "name": "acceptOwner",
            "outputs": [],
            "stateMutability": "nonpayable",
            "type": "function"
        },
        {
            "inputs": [],
            "name": "admin",
            "outputs": [
                {
                    "internalType": "address",
                    "name": "",
                    "type": "address"
                }
            ],
            "stateMutability": "view",
            "type": "function"
        },
        {
            "inputs": [
                {
                    "internalType": "address",
                    "name": "to",
                    "type": "address"
                },
                {
                    "internalType": "uint256",
                    "name": "tokenId",
                    "type": "uint256"
                }
            ],
            "name": "approve",
            "outputs": [],
            "stateMutability": "nonpayable",
            "type": "function"
        },
        {
            "inputs": [
                {
                    "internalType": "address",
                    "name": "owner",
                    "type": "address"
                }
            ],
            "name": "balanceOf",
            "outputs": [
                {
                    "internalType": "uint256",
                    "name": "",
                    "type": "uint256"
                }
            ],
            "stateMutability": "view",
            "type": "function"
        },
        {
            "inputs": [
                {
                    "internalType": "address",
                    "name": "to",
                    "type": "address"
                },
                {
                    "internalType": "uint256",
                    "name": "tokenId",
                    "type": "uint256"
                },
                {
                    "internalType": "uint256",
                    "name": "durationId",
                    "type": "uint256"
                }
            ],
            "name": "checkIn",
            "outputs": [],
            "stateMutability": "nonpayable",
            "type": "function"
        },
        {
            "inputs": [
                {
                    "internalType": "uint256",
                    "name": "tokenId",
                    "type": "uint256"
                },
                {
                    "internalType": "uint256",
                    "name": "durationId",
                    "type": "uint256"
                },
                {
                    "internalType": "uint256",
                    "name": "targetTokenId",
                    "type": "uint256"
                },
                {
                    "internalType": "uint256",
                    "name": "targetDurationId",
                    "type": "uint256"
                }
            ],
            "name": "concat",
            "outputs": [],
            "stateMutability": "nonpayable",
            "type": "function"
        },
        {
            "inputs": [
                {
                    "internalType": "uint256",
                    "name": "tokenId",
                    "type": "uint256"
                },
                {
                    "internalType": "uint256",
                    "name": "durationId",
                    "type": "uint256"
                }
            ],
            "name": "contains",
            "outputs": [
                {
                    "internalType": "bool",
                    "name": "",
                    "type": "bool"
                }
            ],
            "stateMutability": "view",
            "type": "function"
        },
        {
            "inputs": [
                {
                    "internalType": "uint256",
                    "name": "tokenId",
                    "type": "uint256"
                },
                {
                    "internalType": "uint256[]",
                    "name": "durationIds",
                    "type": "uint256[]"
                }
            ],
            "name": "couldRedeem",
            "outputs": [
                {
                    "internalType": "bool",
                    "name": "",
                    "type": "bool"
                }
            ],
            "stateMutability": "view",
            "type": "function"
        },
        {
            "inputs": [],
            "name": "curDoid",
            "outputs": [
                {
                    "internalType": "uint256",
                    "name": "",
                    "type": "uint256"
                }
            ],
            "stateMutability": "view",
            "type": "function"
        },
        {
            "inputs": [],
            "name": "curDurationId",
            "outputs": [
                {
                    "internalType": "uint256",
                    "name": "",
                    "type": "uint256"
                }
            ],
            "stateMutability": "view",
            "type": "function"
        },
        {
            "inputs": [
                {
                    "internalType": "uint256",
                    "name": "tokenId",
                    "type": "uint256"
                }
            ],
            "name": "exists",
            "outputs": [
                {
                    "internalType": "bool",
                    "name": "",
                    "type": "bool"
                }
            ],
            "stateMutability": "view",
            "type": "function"
        },
        {
            "inputs": [
                {
                    "internalType": "uint256",
                    "name": "tokenId",
                    "type": "uint256"
                },
                {
                    "internalType": "uint256[]",
                    "name": "durationIds",
                    "type": "uint256[]"
                }
            ],
            "name": "gc",
            "outputs": [],
            "stateMutability": "nonpayable",
            "type": "function"
        },
        {
            "inputs": [
                {
                    "internalType": "uint256",
                    "name": "tokenId",
                    "type": "uint256"
                }
            ],
            "name": "getApproved",
            "outputs": [
                {
                    "internalType": "address",
                    "name": "",
                    "type": "address"
                }
            ],
            "stateMutability": "view",
            "type": "function"
        },
        {
            "inputs": [
                {
                    "internalType": "uint256",
                    "name": "tokenId",
                    "type": "uint256"
                }
            ],
            "name": "getDoNftInfo",
            "outputs": [
                {
                    "internalType": "uint256",
                    "name": "oid",
                    "type": "uint256"
                },
                {
                    "internalType": "uint256[]",
                    "name": "durationIds",
                    "type": "uint256[]"
                },
                {
                    "internalType": "uint64[]",
                    "name": "starts",
                    "type": "uint64[]"
                },
                {
                    "internalType": "uint64[]",
                    "name": "ends",
                    "type": "uint64[]"
                },
                {
                    "internalType": "uint64",
                    "name": "nonce",
                    "type": "uint64"
                }
            ],
            "stateMutability": "view",
            "type": "function"
        },
        {
            "inputs": [
                {
                    "internalType": "uint256",
                    "name": "durationId",
                    "type": "uint256"
                }
            ],
            "name": "getDuration",
            "outputs": [
                {
                    "internalType": "uint64",
                    "name": "",
                    "type": "uint64"
                },
                {
                    "internalType": "uint64",
                    "name": "",
                    "type": "uint64"
                }
            ],
            "stateMutability": "view",
            "type": "function"
        },
        {
            "inputs": [
                {
                    "internalType": "uint256",
                    "name": "tokenId",
                    "type": "uint256"
                },
                {
                    "internalType": "uint256",
                    "name": "index",
                    "type": "uint256"
                }
            ],
            "name": "getDurationByIndex",
            "outputs": [
                {
                    "internalType": "uint256",
                    "name": "durationId",
                    "type": "uint256"
                },
                {
                    "internalType": "uint64",
                    "name": "start",
                    "type": "uint64"
                },
                {
                    "internalType": "uint64",
                    "name": "end",
                    "type": "uint64"
                }
            ],
            "stateMutability": "view",
            "type": "function"
        },
        {
            "inputs": [
                {
                    "internalType": "uint256",
                    "name": "tokenId",
                    "type": "uint256"
                }
            ],
            "name": "getDurationIdList",
            "outputs": [
                {
                    "internalType": "uint256[]",
                    "name": "",
                    "type": "uint256[]"
                }
            ],
            "stateMutability": "view",
            "type": "function"
        },
        {
            "inputs": [
                {
                    "internalType": "uint256",
                    "name": "tokenId",
                    "type": "uint256"
                }
            ],
            "name": "getDurationListLength",
            "outputs": [
                {
                    "internalType": "uint256",
                    "name": "",
                    "type": "uint256"
                }
            ],
            "stateMutability": "view",
            "type": "function"
        },
        {
            "inputs": [
                {
                    "internalType": "uint256",
                    "name": "tokenId",
                    "type": "uint256"
                }
            ],
            "name": "getFingerprint",
            "outputs": [
                {
                    "internalType": "bytes32",
                    "name": "print",
                    "type": "bytes32"
                }
            ],
            "stateMutability": "view",
            "type": "function"
        },
        {
            "inputs": [],
            "name": "getMaxDuration",
            "outputs": [
                {
                    "internalType": "uint64",
                    "name": "",
                    "type": "uint64"
                }
            ],
            "stateMutability": "view",
            "type": "function"
        },
        {
            "inputs": [
                {
                    "internalType": "uint256",
                    "name": "tokenId",
                    "type": "uint256"
                }
            ],
            "name": "getNonce",
            "outputs": [
                {
                    "internalType": "uint64",
                    "name": "",
                    "type": "uint64"
                }
            ],
            "stateMutability": "view",
            "type": "function"
        },
        {
            "inputs": [],
            "name": "getOriginalNftAddress",
            "outputs": [
                {
                    "internalType": "address",
                    "name": "",
                    "type": "address"
                }
            ],
            "stateMutability": "view",
            "type": "function"
        },
        {
            "inputs": [
                {
                    "internalType": "uint256",
                    "name": "tokenId",
                    "type": "uint256"
                }
            ],
            "name": "getOriginalNftId",
            "outputs": [
                {
                    "internalType": "uint256",
                    "name": "",
                    "type": "uint256"
                }
            ],
            "stateMutability": "view",
            "type": "function"
        },
        {
            "inputs": [
                {
                    "internalType": "uint256",
                    "name": "originalNftId",
                    "type": "uint256"
                }
            ],
            "name": "getUser",
            "outputs": [
                {
                    "internalType": "address",
                    "name": "",
                    "type": "address"
                }
            ],
            "stateMutability": "view",
            "type": "function"
        },
        {
            "inputs": [
                {
                    "internalType": "uint256",
                    "name": "originalNftId",
                    "type": "uint256"
                }
            ],
            "name": "getVNftId",
            "outputs": [
                {
                    "internalType": "uint256",
                    "name": "",
                    "type": "uint256"
                }
            ],
            "stateMutability": "view",
            "type": "function"
        },
        {
            "inputs": [
                {
                    "internalType": "string",
                    "name": "name_",
                    "type": "string"
                },
                {
                    "internalType": "string",
                    "name": "symbol_",
                    "type": "string"
                },
                {
                    "internalType": "address",
                    "name": "nftAddress_",
                    "type": "address"
                },
                {
                    "internalType": "address",
                    "name": "market_",
                    "type": "address"
                },
                {
                    "internalType": "address",
                    "name": "owner_",
                    "type": "address"
                },
                {
                    "internalType": "address",
                    "name": "admin_",
                    "type": "address"
                }
            ],
            "name": "initialize",
            "outputs": [],
            "stateMutability": "nonpayable",
            "type": "function"
        },
        {
            "inputs": [
                {
                    "internalType": "address",
                    "name": "owner",
                    "type": "address"
                },
                {
                    "internalType": "address",
                    "name": "operator",
                    "type": "address"
                }
            ],
            "name": "isApprovedForAll",
            "outputs": [
                {
                    "internalType": "bool",
                    "name": "",
                    "type": "bool"
                }
            ],
            "stateMutability": "view",
            "type": "function"
        },
        {
            "inputs": [
                {
                    "internalType": "uint256",
                    "name": "tokenId",
                    "type": "uint256"
                }
            ],
            "name": "isVNft",
            "outputs": [
                {
                    "internalType": "bool",
                    "name": "",
                    "type": "bool"
                }
            ],
            "stateMutability": "view",
            "type": "function"
        },
        {
            "inputs": [
                {
                    "internalType": "uint256",
                    "name": "tokenId",
                    "type": "uint256"
                }
            ],
            "name": "isValidNow",
            "outputs": [
                {
                    "internalType": "bool",
                    "name": "isValid",
                    "type": "bool"
                }
            ],
            "stateMutability": "view",
            "type": "function"
        },
        {
            "inputs": [],
            "name": "market",
            "outputs": [
                {
                    "internalType": "address",
                    "name": "",
                    "type": "address"
                }
            ],
            "stateMutability": "view",
            "type": "function"
        },
        {
            "inputs": [],
            "name": "maxDuration",
            "outputs": [
                {
                    "internalType": "uint64",
                    "name": "",
                    "type": "uint64"
                }
            ],
            "stateMutability": "view",
            "type": "function"
        },
        {
            "inputs": [
                {
                    "internalType": "uint256",
                    "name": "tokenId",
                    "type": "uint256"
                },
                {
                    "internalType": "uint256",
                    "name": "durationId",
                    "type": "uint256"
                },
                {
                    "internalType": "uint64",
                    "name": "start",
                    "type": "uint64"
                },
                {
                    "internalType": "uint64",
                    "name": "end",
                    "type": "uint64"
                },
                {
                    "internalType": "address",
                    "name": "to",
                    "type": "address"
                },
                {
                    "internalType": "address",
                    "name": "user",
                    "type": "address"
                }
            ],
            "name": "mint",
            "outputs": [
                {
                    "internalType": "uint256",
                    "name": "tid",
                    "type": "uint256"
                }
            ],
            "stateMutability": "nonpayable",
            "type": "function"
        },
        {
            "inputs": [
                {
                    "internalType": "uint256",
                    "name": "oid",
                    "type": "uint256"
                }
            ],
            "name": "mintVNft",
            "outputs": [
                {
                    "internalType": "uint256",
                    "name": "tid",
                    "type": "uint256"
                }
            ],
            "stateMutability": "nonpayable",
            "type": "function"
        },
        {
            "inputs": [],
            "name": "name",
            "outputs": [
                {
                    "internalType": "string",
                    "name": "",
                    "type": "string"
                }
            ],
            "stateMutability": "view",
            "type": "function"
        },
        {
            "inputs": [
                {
                    "internalType": "address",
                    "name": "operator",
                    "type": "address"
                },
                {
                    "internalType": "address",
                    "name": "from",
                    "type": "address"
                },
                {
                    "internalType": "uint256",
                    "name": "tokenId",
                    "type": "uint256"
                },
                {
                    "internalType": "bytes",
                    "name": "data",
                    "type": "bytes"
                }
            ],
            "name": "onERC721Received",
            "outputs": [
                {
                    "internalType": "bytes4",
                    "name": "",
                    "type": "bytes4"
                }
            ],
            "stateMutability": "pure",
            "type": "function"
        },
        {
            "inputs": [],
            "name": "owner",
            "outputs": [
                {
                    "internalType": "address",
                    "name": "",
                    "type": "address"
                }
            ],
            "stateMutability": "view",
            "type": "function"
        },
        {
            "inputs": [
                {
                    "internalType": "uint256",
                    "name": "tokenId",
                    "type": "uint256"
                }
            ],
            "name": "ownerOf",
            "outputs": [
                {
                    "internalType": "address",
                    "name": "",
                    "type": "address"
                }
            ],
            "stateMutability": "view",
            "type": "function"
        },
        {
            "inputs": [],
            "name": "pendingOwner",
            "outputs": [
                {
                    "internalType": "address",
                    "name": "",
                    "type": "address"
                }
            ],
            "stateMutability": "view",
            "type": "function"
        },
        {
            "inputs": [
                {
                    "internalType": "uint256",
                    "name": "tokenId",
                    "type": "uint256"
                },
                {
                    "internalType": "uint256[]",
                    "name": "durationIds",
                    "type": "uint256[]"
                }
            ],
            "name": "redeem",
            "outputs": [],
            "stateMutability": "nonpayable",
            "type": "function"
        },
        {
            "inputs": [],
            "name": "renounceOwnership",
            "outputs": [],
            "stateMutability": "nonpayable",
            "type": "function"
        },
        {
            "inputs": [
                {
                    "internalType": "address",
                    "name": "from",
                    "type": "address"
                },
                {
                    "internalType": "address",
                    "name": "to",
                    "type": "address"
                },
                {
                    "internalType": "uint256",
                    "name": "tokenId",
                    "type": "uint256"
                }
            ],
            "name": "safeTransferFrom",
            "outputs": [],
            "stateMutability": "nonpayable",
            "type": "function"
        },
        {
            "inputs": [
                {
                    "internalType": "address",
                    "name": "from",
                    "type": "address"
                },
                {
                    "internalType": "address",
                    "name": "to",
                    "type": "address"
                },
                {
                    "internalType": "uint256",
                    "name": "tokenId",
                    "type": "uint256"
                },
                {
                    "internalType": "bytes",
                    "name": "_data",
                    "type": "bytes"
                }
            ],
            "name": "safeTransferFrom",
            "outputs": [],
            "stateMutability": "nonpayable",
            "type": "function"
        },
        {
            "inputs": [
                {
                    "internalType": "address",
                    "name": "newAdmin",
                    "type": "address"
                }
            ],
            "name": "setAdmin",
            "outputs": [],
            "stateMutability": "nonpayable",
            "type": "function"
        },
        {
            "inputs": [
                {
                    "internalType": "address",
                    "name": "operator",
                    "type": "address"
                },
                {
                    "internalType": "bool",
                    "name": "approved",
                    "type": "bool"
                }
            ],
            "name": "setApprovalForAll",
            "outputs": [],
            "stateMutability": "nonpayable",
            "type": "function"
        },
        {
            "inputs": [
                {
                    "internalType": "bool",
                    "name": "v",
                    "type": "bool"
                }
            ],
            "name": "setIsOnlyNow",
            "outputs": [],
            "stateMutability": "nonpayable",
            "type": "function"
        },
        {
            "inputs": [
                {
                    "internalType": "address",
                    "name": "_market",
                    "type": "address"
                }
            ],
            "name": "setMarket",
            "outputs": [],
            "stateMutability": "nonpayable",
            "type": "function"
        },
        {
            "inputs": [
                {
                    "internalType": "uint64",
                    "name": "v",
                    "type": "uint64"
                }
            ],
            "name": "setMaxDuration",
            "outputs": [],
            "stateMutability": "nonpayable",
            "type": "function"
        },
        {
            "inputs": [
                {
                    "internalType": "bytes4",
                    "name": "interfaceId",
                    "type": "bytes4"
                }
            ],
            "name": "supportsInterface",
            "outputs": [
                {
                    "internalType": "bool",
                    "name": "",
                    "type": "bool"
                }
            ],
            "stateMutability": "view",
            "type": "function"
        },
        {
            "inputs": [],
            "name": "symbol",
            "outputs": [
                {
                    "internalType": "string",
                    "name": "",
                    "type": "string"
                }
            ],
            "stateMutability": "view",
            "type": "function"
        },
        {
            "inputs": [
                {
                    "internalType": "uint256",
                    "name": "tokenId",
                    "type": "uint256"
                }
            ],
            "name": "tokenURI",
            "outputs": [
                {
                    "internalType": "string",
                    "name": "",
                    "type": "string"
                }
            ],
            "stateMutability": "view",
            "type": "function"
        },
        {
            "inputs": [
                {
                    "internalType": "address",
                    "name": "from",
                    "type": "address"
                },
                {
                    "internalType": "address",
                    "name": "to",
                    "type": "address"
                },
                {
                    "internalType": "uint256",
                    "name": "tokenId",
                    "type": "uint256"
                }
            ],
            "name": "transferFrom",
            "outputs": [],
            "stateMutability": "nonpayable",
            "type": "function"
        },
        {
            "inputs": [
                {
                    "internalType": "address",
                    "name": "_pendingOwner",
                    "type": "address"
                }
            ],
            "name": "transferOwnership",
            "outputs": [],
            "stateMutability": "nonpayable",
            "type": "function"
        }
    ],
    "bytecode": "608060405234801561001057600080fd5b50614a95806100206000396000f3fe608060405234801561001057600080fd5b506004361061030b5760003560e01c80638da5cb5b1161019d578063cb697d1e116100e9578063e985e9c5116100a2578063f2fde38b1161007c578063f2fde38b146107c4578063f851a440146107d7578063fd83de62146107ea578063fe909ee4146107fd57600080fd5b8063e985e9c51461076d578063ebbc4965146107a9578063f0147832146107b157600080fd5b8063cb697d1e146106c9578063d816f091146106dc578063dbe102c0146106ef578063e30c39781461070f578063e42e66a914610722578063e56f2fe41461075a57600080fd5b8063a832841211610156578063b49a2db911610130578063b49a2db91461067f578063b88d4fde14610690578063c4a0db96146106a3578063c87b56dd146106b657600080fd5b8063a832841214610650578063abb2176a14610663578063b0467deb1461066c57600080fd5b80638da5cb5b146105f357806395d89b411461060657806398e5d38f1461060e578063a050ac8f14610621578063a22cb4651461062a578063a6cc26501461063d57600080fd5b80633ed189cf1161025c5780636db5c8fd1161021557806370a08231116101ef57806370a0823114610570578063715018a61461058357806380f556051461058b5780638bb126a71461059e57600080fd5b80636db5c8fd146105375780636dcea85f1461054a578063704b6c021461055d57600080fd5b80633ed189cf146104a757806342842e0e146104c7578063438e15fc146104da5780634f558e79146104ed57806352332ed8146105005780636352211e1461052457600080fd5b8063150b7a02116102c957806323b872dd116102a357806323b872dd1461042c57806325cb25b01461043f578063393b17a4146104505780633d46b8191461046357600080fd5b8063150b7a02146103c1578063159a6475146103f95780631aa144981461040c57600080fd5b806295d6451461031057806301ffc9a71461032557806306fdde031461034d578063081812fc14610362578063095ea7b31461038d57806310c11854146103a0575b600080fd5b61032361031e366004614233565b610810565b005b61033861033336600461426b565b610883565b60405190151581526020015b60405180910390f35b6103556108ae565b6040516103449190614677565b61037561037036600461434e565b610940565b6040516001600160a01b039091168152602001610344565b61032361039b3660046141d4565b6109d5565b6103b36103ae366004614431565b610aeb565b604051908152602001610344565b6103e06103cf366004614092565b630a85bd0160e11b95945050505050565b6040516001600160e01b03199091168152602001610344565b6103b361040736600461434e565b610f7e565b6103b361041a36600461434e565b600090815260d0602052604090205490565b61032361043a366004614052565b610fd5565b60cb546001600160a01b0316610375565b61033861045e36600461434e565b611006565b61048f61047136600461434e565b600090815260d060205260409020600101546001600160401b031690565b6040516001600160401b039091168152602001610344565b6103b36104b536600461434e565b600090815260d2602052604090205490565b6103236104d5366004614052565b6110b5565b6103386104e83660046143df565b6110d0565b6103386104fb36600461434e565b6110f2565b61051361050e36600461434e565b611111565b60405161034495949392919061483f565b61037561053236600461434e565b6112e2565b60cf5461048f906001600160401b031681565b610323610558366004613fe2565b611359565b61032361056b366004613fe2565b611402565b6103b361057e366004613fe2565b611495565b61032361151c565b60cc54610375906001600160a01b031681565b6105d36105ac36600461434e565b600090815260d160205260409020546001600160401b0380821692600160401b9092041690565b604080516001600160401b03938416815292909116602083015201610344565b600054610375906001600160a01b031681565b610355611640565b61032361061c3660046141ff565b61164f565b6103b360ce5481565b6103236106383660046141a7565b6117f8565b6103b361064b36600461434e565b611807565b61033861065e36600461434e565b611d9f565b6103b360cd5481565b61037561067a36600461434e565b611dcf565b60cf546001600160401b031661048f565b61032361069e36600461412b565b611e4c565b6103236106b1366004614366565b611e83565b6103556106c436600461434e565b6121a9565b6103386106d7366004614366565b612290565b6103236106ea366004614400565b6124b9565b6107026106fd36600461434e565b612726565b6040516103449190614664565b600154610375906001600160a01b031681565b6107356107303660046143df565b612743565b604080519384526001600160401b039283166020850152911690820152606001610344565b6103236107683660046142a3565b6127dd565b61033861077b36600461401a565b6001600160a01b039182166000908152606c6020908152604080832093909416825291909152205460ff1690565b610323612864565b6103236107bf36600461446e565b61297a565b6103236107d2366004613fe2565b6129f8565b600254610375906001600160a01b031681565b6103b36107f836600461434e565b612a61565b61032361080b366004614366565b612a7b565b6002546001600160a01b031633148061083357506000546001600160a01b031633145b6108705760405162461bcd60e51b815260206004820152600960248201526837b7363ca0b236b4b760b91b60448201526064015b60405180910390fd5b60d3805460ff1916911515919091179055565b60006001600160e01b0319821663395bcbf960e21b14806108a857506108a882612b77565b92915050565b6060606780546108bd90614953565b80601f01602080910402602001604051908101604052809291908181526020018280546108e990614953565b80156109365780601f1061090b57610100808354040283529160200191610936565b820191906000526020600020905b81548152906001019060200180831161091957829003601f168201915b5050505050905090565b6000818152606960205260408120546001600160a01b03166109b95760405162461bcd60e51b815260206004820152602c60248201527f4552433732313a20617070726f76656420717565727920666f72206e6f6e657860448201526b34b9ba32b73a103a37b5b2b760a11b6064820152608401610867565b506000908152606b60205260409020546001600160a01b031690565b60006109e0826112e2565b9050806001600160a01b0316836001600160a01b03161415610a4e5760405162461bcd60e51b815260206004820152602160248201527f4552433732313a20617070726f76616c20746f2063757272656e74206f776e656044820152603960f91b6064820152608401610867565b336001600160a01b0382161480610a6a5750610a6a813361077b565b610adc5760405162461bcd60e51b815260206004820152603860248201527f4552433732313a20617070726f76652063616c6c6572206973206e6f74206f7760448201527f6e6572206e6f7220617070726f76656420666f7220616c6c00000000000000006064820152608401610867565b610ae68383612b9c565b505050565b60d354600090859060ff1615610b445742816001600160401b03161115610b445760405162461bcd60e51b815260206004820152600d60248201526c6d7573742066726f6d206e6f7760981b6044820152606401610867565b60026099541415610b975760405162461bcd60e51b815260206004820152601f60248201527f5265656e7472616e637947756172643a207265656e7472616e742063616c6c006044820152606401610867565b6002609955426001600160401b0387161015610bb1574295505b610bbb3389612c0a565b610c005760405162461bcd60e51b81526020600482015260166024820152751b9bdd081bdddb995c881b9bdc88185c1c1c9bdd995960521b6044820152606401610867565b856001600160401b0316856001600160401b0316118015610c3f575060cf54610c32906001600160401b03164261489a565b856001600160401b031611155b610c825760405162461bcd60e51b81526020600482015260146024820152731a5b9d985b1a59081cdd185c9d081bdc88195b9960621b6044820152606401610867565b600088815260d060205260409020610c9a89896110d0565b610ce65760405162461bcd60e51b815260206004820152601760248201527f6e6f7420636f6e7461696e73206475726174696f6e49640000000000000000006044820152606401610867565b600088815260d16020526040902080546001600160401b0390811690891610801590610d27575080546001600160401b03600160401b909104811690881611155b610d665760405162461bcd60e51b815260206004820152601060248201526f34b73b30b634b210323ab930ba34b7b760811b6044820152606401610867565b80546000906001600160401b038a81169116148015610d98575081546001600160401b03898116600160401b90920416145b15610ddc57610dad8784600001548b8b612c35565b945060ce549050610dbe8b8b612c5c565b610dca83600201612d1f565b610dd757610dd78b612d29565b610f1b565b81546001600160401b038a81169116148015610e0c575081546001600160401b03898116600160401b9092041614155b15610e3d57610e1c8860016148b2565b825467ffffffffffffffff19166001600160401b0391909116178255610f03565b81546001600160401b038a8116911614801590610e6d575081546001600160401b03898116600160401b90920416145b15610ea957610e7d60018a6148ff565b82546001600160401b0391909116600160401b0267ffffffffffffffff60401b19909116178255610f03565b42896001600160401b03161115610edb578154610edb908c906001600160401b0316610ed660018d6148ff565b612d68565b610ee68860016148b2565b825467ffffffffffffffff19166001600160401b03919091161782555b610f138784600001548b8b612c35565b945060ce5490505b42896001600160401b03161415610f3757610f3786868361164f565b6040518b81527ff8e1a15aba9398e019f0b49df1a4fde98ee17ae345cb5f6b5e2c27f5033e8ce79060200160405180910390a1505060016099555090979650505050505050565b600080600080600080610f9087611111565b945094509450945094508484848484604051602001610fb3959493929190614583565b6040516020818303038152906040528051906020012095505050505050919050565b610fdf3382612c0a565b610ffb5760405162461bcd60e51b815260040161086790614780565b610ae6838383612e46565b600081815260d0602052604081208161102160028301612d1f565b90506000805b828110156110a95761103c6002850182612fed565b600081815260d16020526040902054909250426001600160401b03909116118015906110865750600082815260d16020526040902054600160401b90046001600160401b03164211155b156110975750600195945050505050565b806110a18161498e565b915050611027565b50600095945050505050565b610ae683838360405180602001604052806000815250611e4c565b600082815260d0602052604081206110eb9060020183612ff9565b9392505050565b6000818152606960205260408120546001600160a01b031615156108a8565b600081815260d060205260408120805460018201549092606092839283926001600160401b03909116919061114860028301612d1f565b90506000816001600160401b0381111561117257634e487b7160e01b600052604160045260246000fd5b60405190808252806020026020018201604052801561119b578160200160208202803683370190505b509550816001600160401b038111156111c457634e487b7160e01b600052604160045260246000fd5b6040519080825280602002602001820160405280156111ed578160200160208202803683370190505b5094506111fc83600201613011565b965060005b828110156112d5576112166002850182612fed565b600081815260d1602052604090205488519193506001600160401b03169088908390811061125457634e487b7160e01b600052603260045260246000fd5b6001600160401b03928316602091820292909201810191909152600084815260d190915260409020548751600160401b909104909116908790839081106112ab57634e487b7160e01b600052603260045260246000fd5b6001600160401b0390921660209283029190910190910152806112cd8161498e565b915050611201565b5050505091939590929450565b6000818152606960205260408120546001600160a01b0316806108a85760405162461bcd60e51b815260206004820152602960248201527f4552433732313a206f776e657220717565727920666f72206e6f6e657869737460448201526832b73a103a37b5b2b760b91b6064820152608401610867565b6000546001600160a01b031633146113835760405162461bcd60e51b81526004016108679061481c565b4660048114806113935750806061145b6113df5760405162461bcd60e51b815260206004820152601860248201527f6f6e6c7920666f722072696e6b656279206f72206273637400000000000000006044820152606401610867565b5060cc80546001600160a01b0319166001600160a01b0392909216919091179055565b6000546001600160a01b0316331461142c5760405162461bcd60e51b81526004016108679061481c565b6002546040517ff9ffabca9c8276e99321725bcb43fb076a6c66a54b7f21c4e8146d8519b417dc9161146b916001600160a01b039091169084906145e9565b60405180910390a1600280546001600160a01b0319166001600160a01b0392909216919091179055565b60006001600160a01b0382166115005760405162461bcd60e51b815260206004820152602a60248201527f4552433732313a2062616c616e636520717565727920666f7220746865207a65604482015269726f206164647265737360b01b6064820152608401610867565b506001600160a01b03166000908152606a602052604090205490565b6000546001600160a01b031633146115465760405162461bcd60e51b81526004016108679061481c565b600080546040517f70aea8d848e8a90fb7661b227dc522eb6395c3dac71b63cb59edd5c9899b236492611582926001600160a01b0316916145e9565b60405180910390a16002546040517ff9ffabca9c8276e99321725bcb43fb076a6c66a54b7f21c4e8146d8519b417dc916115ca916001600160a01b03909116906000906145e9565b60405180910390a16001546040517fb3d55174552271a4f1aaf36b72f50381e892171636b3fb5447fe00e995e7a37b91611612916001600160a01b03909116906000906145e9565b60405180910390a1600080546001600160a01b03199081169091556001805482169055600280549091169055565b6060606880546108bd90614953565b61165a335b83612c0a565b61169f5760405162461bcd60e51b81526020600482015260166024820152751b9bdd081bdddb995c881b9bdc88185c1c1c9bdd995960521b6044820152606401610867565b600082815260d06020908152604080832084845260d1909252909120805442600160401b9091046001600160401b0316101561170b5760405162461bcd60e51b815260206004820152600b60248201526a1a5b9d985b1a5908195b9960aa1b6044820152606401610867565b8054426001600160401b0390911611156117575760405162461bcd60e51b815260206004820152600d60248201526c1a5b9d985b1a59081cdd185c9d609a1b6044820152606401610867565b6117646002830184612ff9565b6117805760405162461bcd60e51b8152600401610867906146dc565b81548154604080513381526001600160a01b0389166020820152908101879052606081018690526080810192909252600160401b90046001600160401b031660a08201527f241f46f4ab26147c933bd52501926d0ff84727224002739590fdfcf7a6559f129060c00160405180910390a15050505050565b61180333838361301e565b5050565b60006002609954141561185c5760405162461bcd60e51b815260206004820152601f60248201527f5265656e7472616e637947756172643a207265656e7472616e742063616c6c006044820152606401610867565b6002609955600082815260d26020526040902054156118ae5760405162461bcd60e51b815260206004820152600e60248201526d185b1c9958591e481dd85c9c195960921b6044820152606401610867565b60cb546040516301ffc9a760e01b81526311b47cc160e01b60048201526000916001600160a01b0316906301ffc9a79060240160206040518083038186803b1580156118f957600080fd5b505afa15801561190d573d6000803e3d6000fd5b505050506040513d601f19601f82011682018060405250810190611931919061424f565b15611c585760cb54604080516332ad05ad60e21b815290516000926001600160a01b03169163cab416b4916004808301926020929190829003018186803b15801561197b57600080fd5b505afa15801561198f573d6000803e3d6000fd5b505050506040513d601f19601f820116820180604052508101906119b39190613ffe565b6040516331a9108f60e11b8152600481018690529091506001600160a01b03821690636352211e9060240160206040518083038186803b1580156119f657600080fd5b505afa158015611a0a573d6000803e3d6000fd5b505050506040513d601f19601f82011682018060405250810190611a2e9190613ffe565b60cb549092506001600160a01b03808416911614611b3a57611a513382866130ed565b611a6d5760405162461bcd60e51b815260040161086790614750565b604051632142170760e11b81526001600160a01b038216906342842e0e90611a9d90859030908990600401614603565b600060405180830381600087803b158015611ab757600080fd5b505af1158015611acb573d6000803e3d6000fd5b505060cb5460405163095ea7b360e01b81526001600160a01b03918216600482015260248101889052908416925063095ea7b39150604401600060405180830381600087803b158015611b1d57600080fd5b505af1158015611b31573d6000803e3d6000fd5b50505050611c52565b60cb54611b529033906001600160a01b0316866130ed565b611b6e5760405162461bcd60e51b815260040161086790614750565b60cb546040516331a9108f60e11b8152600481018690526001600160a01b0390911690636352211e9060240160206040518083038186803b158015611bb257600080fd5b505afa158015611bc6573d6000803e3d6000fd5b505050506040513d601f19601f82011682018060405250810190611bea9190613ffe565b60cb54604051632142170760e11b81529193506001600160a01b0316906342842e0e90611c1f90859030908990600401614603565b600060405180830381600087803b158015611c3957600080fd5b505af1158015611c4d573d6000803e3d6000fd5b505050505b50611d70565b60cb54611c709033906001600160a01b0316856130ed565b611c8c5760405162461bcd60e51b815260040161086790614750565b60cb546040516331a9108f60e11b8152600481018590526001600160a01b0390911690636352211e9060240160206040518083038186803b158015611cd057600080fd5b505afa158015611ce4573d6000803e3d6000fd5b505050506040513d601f19601f82011682018060405250810190611d089190613ffe565b60cb54604051632142170760e11b81529192506001600160a01b0316906342842e0e90611d3d90849030908890600401614603565b600060405180830381600087803b158015611d5757600080fd5b505af1158015611d6b573d6000803e3d6000fd5b505050505b611d838184426001600160401b03612c35565b600093845260d260205260409093208390555050600160995590565b600081611dae57506000919050565b50600081815260d06020908152604080832054835260d29091529020541490565b60cb54604051636178f8a560e11b8152600481018390526000916001600160a01b03169063c2f1f14a9060240160206040518083038186803b158015611e1457600080fd5b505afa158015611e28573d6000803e3d6000fd5b505050506040513d601f19601f820116820180604052508101906108a89190613ffe565b611e5533611654565b611e715760405162461bcd60e51b815260040161086790614780565b611e7d848484846132b8565b50505050565b611e8d3384612c0a565b611ea95760405162461bcd60e51b815260040161086790614780565b611eb4838383612290565b611ef05760405162461bcd60e51b815260206004820152600d60248201526c63616e6e6f742072656465656d60981b6044820152606401610867565b600083815260d060205260409081902060cb5491516301ffc9a760e01b81526311b47cc160e01b600482015290916001600160a01b0316906301ffc9a79060240160206040518083038186803b158015611f4957600080fd5b505afa158015611f5d573d6000803e3d6000fd5b505050506040513d601f19601f82011682018060405250810190611f81919061424f565b156120ec5760cb54815460405163db006a7560e01b81526001600160a01b039092169163db006a7591611fba9160040190815260200190565b600060405180830381600087803b158015611fd457600080fd5b505af1158015611fe8573d6000803e3d6000fd5b50505050600060cb60009054906101000a90046001600160a01b03166001600160a01b031663cab416b46040518163ffffffff1660e01b815260040160206040518083038186803b15801561203c57600080fd5b505afa158015612050573d6000803e3d6000fd5b505050506040513d601f19601f820116820180604052508101906120749190613ffe565b9050806001600160a01b03166342842e0e3061208f886112e2565b85546040516001600160e01b031960e086901b1681526120b493929190600401614603565b600060405180830381600087803b1580156120ce57600080fd5b505af11580156120e2573d6000803e3d6000fd5b505050505061215f565b60cb546001600160a01b03166342842e0e30612107876112e2565b84546040516001600160e01b031960e086901b16815261212c93929190600401614603565b600060405180830381600087803b15801561214657600080fd5b505af115801561215a573d6000803e3d6000fd5b505050505b612168846132eb565b805460408051918252602082018690527fe3829d5463fae0f748d927f86f762044188c9ce53d91a394eb93e98354cc3092910160405180910390a150505050565b6000818152606960205260409020546060906001600160a01b03166122285760405162461bcd60e51b815260206004820152602f60248201527f4552433732314d657461646174613a2055524920717565727920666f72206e6f60448201526e3732bc34b9ba32b73a103a37b5b2b760891b6064820152608401610867565b600061223f60408051602081019091526000815290565b9050600081511161225f57604051806020016040528060008152506110eb565b80612269846133c8565b60405160200161227a929190614554565b6040516020818303038152906040529392505050565b600061229b84611d9f565b6122d25760405162461bcd60e51b81526020600482015260086024820152671b9bdd081d93919560c21b6044820152606401610867565b600084815260d0602052604081209060d1818686828161230257634e487b7160e01b600052603260045260246000fd5b602090810292909201358352508101919091526040016000208054909150426001600160401b03909116111561233d576000925050506110eb565b8054600160401b90046001600160401b031660015b858110156124a25761239687878381811061237d57634e487b7160e01b600052603260045260246000fd5b9050602002013585600201612ff990919063ffffffff16565b8787838181106123b657634e487b7160e01b600052603260045260246000fd5b905060200201356040516020016123e891906b6e6f7420636f6e7461696c7360a01b8152600c810191909152602c0190565b604051602081830303815290604052906124155760405162461bcd60e51b81526004016108679190614677565b5060d1600088888481811061243a57634e487b7160e01b600052603260045260246000fd5b6020908102929092013583525081019190915260400160002080549093506001600160401b031661246c8360016148b2565b6001600160401b03161415612490578254600160401b90046001600160401b031691505b8061249a8161498e565b915050612352565b506001600160401b03908116149695505050505050565b6124c33385612c0a565b6124df5760405162461bcd60e51b815260040161086790614780565b6124e984846110d0565b6125055760405162461bcd60e51b8152600401610867906146dc565b61250e826112e2565b6001600160a01b0316612520856112e2565b6001600160a01b0316146125635760405162461bcd60e51b815260206004820152600a6024820152693234b3331037bbb732b960b11b6044820152606401610867565b600082815260d0602052604080822054868352912054146125b15760405162461bcd60e51b8152602060048201526008602482015267191a5999881bda5960c21b6044820152606401610867565b6125bb82826110d0565b6125d75760405162461bcd60e51b8152600401610867906146dc565b600083815260d160205260408082208383529120805482546001600160401b03918216600160401b909104909116101561266d57805482546001600160401b039182169161262e91600160401b90041660016148b2565b6001600160401b03161461264157600080fd5b8154815467ffffffffffffffff19166001600160401b039091161781556126688686612c5c565b6126f7565b815481546001600160401b03918216600160401b90910490911610156126f757815481546001600160401b03918216916126b091600160401b90041660016148b2565b6001600160401b0316146126c357600080fd5b8154815467ffffffffffffffff60401b1916600160401b918290046001600160401b03169091021781556126f78686612c5c565b600086815260d06020526040902061271190600201612d1f565b61271e5761271e86612d29565b505050505050565b600081815260d0602052604090206060906110eb60028201613011565b600082815260d0602052604081208190819061276160028201612d1f565b851061279e5760405162461bcd60e51b815260206004820152600c60248201526b6f7574206f662072616e676560a01b6044820152606401610867565b6127ab6002820186612fed565b600081815260d1602052604090205490976001600160401b038083169850600160401b90920490911695509350505050565b60006127e960016134e1565b90508015612805576002805460ff60a81b1916600160a81b1790555b612813878787878787613583565b801561285b576002805460ff60a81b19169055604051600181527f7f26b83ff96e1f2b6a682f133852f6798a09c465da95921460cefb38474024989060200160405180910390a15b50505050505050565b6001546001600160a01b031633146128b15760405162461bcd60e51b815260206004820152601060248201526f37b7363ca832b73234b733a7bbb732b960811b6044820152606401610867565b6000546001546040517f70aea8d848e8a90fb7661b227dc522eb6395c3dac71b63cb59edd5c9899b2364926128f4926001600160a01b03918216929116906145e9565b60405180910390a1600154600080546001600160a01b0319166001600160a01b03909216918217815560405190917fb3d55174552271a4f1aaf36b72f50381e892171636b3fb5447fe00e995e7a37b91612950919084906145e9565b60405180910390a1600180546001600160a01b0319166001600160a01b0392909216919091179055565b6002546001600160a01b031633148061299d57506000546001600160a01b031633145b6129d55760405162461bcd60e51b815260206004820152600960248201526837b7363ca0b236b4b760b91b6044820152606401610867565b60cf805467ffffffffffffffff19166001600160401b0392909216919091179055565b6000546001600160a01b03163314612a225760405162461bcd60e51b81526004016108679061481c565b6001546040517fb3d55174552271a4f1aaf36b72f50381e892171636b3fb5447fe00e995e7a37b91612950916001600160a01b039091169084906145e9565b600081815260d0602052604081206108a890600201612d1f565b600083815260d0602052604081209080805b84811015612b1357858582818110612ab557634e487b7160e01b600052603260045260246000fd5b905060200201359250612ac887846110d0565b15612b0157600083815260d160205260409020805490925042600160401b9091046001600160401b031611612b0157612b018784612c5c565b80612b0b8161498e565b915050612a8d565b50612b2083600201612d1f565b61271e57612b2d86611d9f565b15612b6e5760405162461bcd60e51b815260206004820152601160248201527018d85b881b9bdd08189d5c9b881d939195607a1b6044820152606401610867565b61271e86612d29565b60006001600160e01b031982166311a79d5760e11b14806108a857506108a882613646565b6000818152606b6020526040902080546001600160a01b0319166001600160a01b0384169081179091558190612bd1826112e2565b6001600160a01b03167f8c5be1e5ebec7d5bd14f71427d1e84f3dd0314c0f7b2291e5b200ac8c7c3b92560405160405180910390a45050565b60cc546000906001600160a01b0384811691161415612c2b575060016108a8565b6110eb8383613696565b6000612c4284848461378c565b50612c4f8560cd546137e3565b5060cd545b949350505050565b600081815260d16020908152604080832080546001600160801b031916905584835260d09091529020612c9290600201826137fd565b50604080516001808252818301909252600091602080830190803683370190505090508181600081518110612cd757634e487b7160e01b600052603260045260246000fd5b6020026020010181815250507fdaf2d83211561a92f21e9184ba96aac6a054d6e4132aa90592fd88eeff75879c81604051612d129190614664565b60405180910390a1505050565b60006108a8825490565b612d3281613809565b600081815260d06020526040812081815560018101805467ffffffffffffffff19169055906002820181818161285b8282613e7d565b60ce8054906000612d788361498e565b90915550506040805180820182526001600160401b038085168252838116602080840191825260ce8054600090815260d183528681209551865494518616600160401b026001600160801b0319909516951694909417929092179093555486825260d090925291909120612df1916002909101906138b0565b5060ce5460408051918252602082018590526001600160401b0380851691830191909152821660608201527fd89b3a389fda649f6511ea8da7b3cda710b4478a1a29d5e7a92c89b0b669aa1290608001612d12565b826001600160a01b0316612e59826112e2565b6001600160a01b031614612ebd5760405162461bcd60e51b815260206004820152602560248201527f4552433732313a207472616e736665722066726f6d20696e636f72726563742060448201526437bbb732b960d91b6064820152608401610867565b6001600160a01b038216612f1f5760405162461bcd60e51b8152602060048201526024808201527f4552433732313a207472616e7366657220746f20746865207a65726f206164646044820152637265737360e01b6064820152608401610867565b612f2a8383836138bc565b612f35600082612b9c565b6001600160a01b0383166000908152606a60205260408120805460019290612f5e9084906148e8565b90915550506001600160a01b0382166000908152606a60205260408120805460019290612f8c90849061489a565b909155505060008181526069602052604080822080546001600160a01b0319166001600160a01b0386811691821790925591518493918716917fddf252ad1be2c89b69c2b068fc378daa952ba7f163c4a11628f55a4df523b3ef91a4505050565b60006110eb838361390c565b600081815260018301602052604081205415156110eb565b606060006110eb83613944565b816001600160a01b0316836001600160a01b031614156130805760405162461bcd60e51b815260206004820152601960248201527f4552433732313a20617070726f766520746f2063616c6c6572000000000000006044820152606401610867565b6001600160a01b038381166000818152606c6020908152604080832094871680845294825291829020805460ff191686151590811790915591519182527f17307eab39ab6107e8899845ad3d59bd9653f200f220920489ca2b5937696c31910160405180910390a3505050565b60cc546000906001600160a01b031633141561310b575060016110eb565b6040516331a9108f60e11b8152600481018390526000906001600160a01b03851690636352211e9060240160206040518083038186803b15801561314e57600080fd5b505afa158015613162573d6000803e3d6000fd5b505050506040513d601f19601f820116820180604052508101906131869190613ffe565b9050806001600160a01b0316856001600160a01b0316148061322b575060405163020604bf60e21b8152600481018490526001600160a01b03808716919086169063081812fc9060240160206040518083038186803b1580156131e857600080fd5b505afa1580156131fc573d6000803e3d6000fd5b505050506040513d601f19601f820116820180604052508101906132209190613ffe565b6001600160a01b0316145b806132af575060405163e985e9c560e01b81526001600160a01b0385169063e985e9c59061325f90849089906004016145e9565b60206040518083038186803b15801561327757600080fd5b505afa15801561328b573d6000803e3d6000fd5b505050506040513d601f19601f820116820180604052508101906132af919061424f565b95945050505050565b6132c3848484612e46565b6132cf848484846139a0565b611e7d5760405162461bcd60e51b81526004016108679061468a565b600081815260d0602052604081209061330660028301612d1f565b905060005b818110156133545760d160006133246002860184612fed565b8152602081019190915260400160002080546001600160801b03191690558061334c8161498e565b91505061330b565b507fdaf2d83211561a92f21e9184ba96aac6a054d6e4132aa90592fd88eeff75879c61338283600201613011565b60405161338f9190614664565b60405180910390a160028201600081816133a98282613e7d565b50508354600090815260d2602052604081205550610ae6905083612d29565b6060816133ec5750506040805180820190915260018152600360fc1b602082015290565b8160005b811561341657806134008161498e565b915061340f9050600a836148d4565b91506133f0565b6000816001600160401b0381111561343e57634e487b7160e01b600052604160045260246000fd5b6040519080825280601f01601f191660200182016040528015613468576020820181803683370190505b5090505b8415612c545761347d6001836148e8565b915061348a600a866149d0565b61349590603061489a565b60f81b8183815181106134b857634e487b7160e01b600052603260045260246000fd5b60200101906001600160f81b031916908160001a9053506134da600a866148d4565b945061346c565b600254600090600160a81b900460ff161561352c578160ff1660011480156135085750303b155b6135245760405162461bcd60e51b815260040161086790614702565b506000919050565b60025460ff808416600160a01b909204161061355a5760405162461bcd60e51b815260040161086790614702565b506002805460ff909216600160a01b0260ff60a01b19909216919091179055600190565b919050565b600254600160a81b900460ff166135ac5760405162461bcd60e51b8152600401610867906147d1565b6135b68686613aaa565b6135be613add565b6135f18282600080546001600160a01b039384166001600160a01b03199182161790915560028054929093169116179055565b505060cb80546001600160a01b039384166001600160a01b03199182161790915560cc8054929093169116179055505060d3805460ff1916600117905560cf805467ffffffffffffffff191662ed4e00179055565b60006001600160e01b031982166380ac58cd60e01b148061367757506001600160e01b03198216635b5e139f60e01b145b806108a857506301ffc9a760e01b6001600160e01b03198316146108a8565b6000818152606960205260408120546001600160a01b031661370f5760405162461bcd60e51b815260206004820152602c60248201527f4552433732313a206f70657261746f7220717565727920666f72206e6f6e657860448201526b34b9ba32b73a103a37b5b2b760a11b6064820152608401610867565b600061371a836112e2565b9050806001600160a01b0316846001600160a01b0316148061376157506001600160a01b038082166000908152606c602090815260408083209388168352929052205460ff165b80612c545750836001600160a01b031661377a84610940565b6001600160a01b031614949350505050565b60cd80546000918261379d8361498e565b909155505060cd8054600090815260d06020526040902085815560018101805467ffffffffffffffff1916905590546137d7908585612d68565b505060cd549392505050565b611803828260405180602001604052806000815250613b10565b60006110eb8383613b43565b6000613814826112e2565b9050613822816000846138bc565b61382d600083612b9c565b6001600160a01b0381166000908152606a602052604081208054600192906138569084906148e8565b909155505060008281526069602052604080822080546001600160a01b0319169055518391906001600160a01b038416907fddf252ad1be2c89b69c2b068fc378daa952ba7f163c4a11628f55a4df523b3ef908390a45050565b60006110eb8383613c60565b600081815260d06020526040812060010180546001600160401b0316916138e2836149a9565b91906101000a8154816001600160401b0302191690836001600160401b0316021790555050505050565b600082600001828154811061393157634e487b7160e01b600052603260045260246000fd5b9060005260206000200154905092915050565b60608160000180548060200260200160405190810160405280929190818152602001828054801561399457602002820191906000526020600020905b815481526020019060010190808311613980575b50505050509050919050565b60006001600160a01b0384163b15613aa257604051630a85bd0160e11b81526001600160a01b0385169063150b7a02906139e4903390899088908890600401614627565b602060405180830381600087803b1580156139fe57600080fd5b505af1925050508015613a2e575060408051601f3d908101601f19168201909252613a2b91810190614287565b60015b613a88573d808015613a5c576040519150601f19603f3d011682016040523d82523d6000602084013e613a61565b606091505b508051613a805760405162461bcd60e51b81526004016108679061468a565b805181602001fd5b6001600160e01b031916630a85bd0160e11b149050612c54565b506001612c54565b600254600160a81b900460ff16613ad35760405162461bcd60e51b8152600401610867906147d1565b6118038282613caf565b600254600160a81b900460ff16613b065760405162461bcd60e51b8152600401610867906147d1565b613b0e613cff565b565b613b1a8383613d2f565b613b2760008484846139a0565b610ae65760405162461bcd60e51b81526004016108679061468a565b60008181526001830160205260408120548015613c56576000613b676001836148e8565b8554909150600090613b7b906001906148e8565b9050818114613bfc576000866000018281548110613ba957634e487b7160e01b600052603260045260246000fd5b9060005260206000200154905080876000018481548110613bda57634e487b7160e01b600052603260045260246000fd5b6000918252602080832090910192909255918252600188019052604090208390555b8554869080613c1b57634e487b7160e01b600052603160045260246000fd5b6001900381819060005260206000200160009055905585600101600086815260200190815260200160002060009055600193505050506108a8565b60009150506108a8565b6000818152600183016020526040812054613ca7575081546001818101845560008481526020808220909301849055845484825282860190935260409020919091556108a8565b5060006108a8565b600254600160a81b900460ff16613cd85760405162461bcd60e51b8152600401610867906147d1565b8151613ceb906067906020850190613e9e565b508051610ae6906068906020840190613e9e565b600254600160a81b900460ff16613d285760405162461bcd60e51b8152600401610867906147d1565b6001609955565b6001600160a01b038216613d855760405162461bcd60e51b815260206004820181905260248201527f4552433732313a206d696e7420746f20746865207a65726f20616464726573736044820152606401610867565b6000818152606960205260409020546001600160a01b031615613dea5760405162461bcd60e51b815260206004820152601c60248201527f4552433732313a20746f6b656e20616c7265616479206d696e746564000000006044820152606401610867565b613df6600083836138bc565b6001600160a01b0382166000908152606a60205260408120805460019290613e1f90849061489a565b909155505060008181526069602052604080822080546001600160a01b0319166001600160a01b03861690811790915590518392907fddf252ad1be2c89b69c2b068fc378daa952ba7f163c4a11628f55a4df523b3ef908290a45050565b5080546000825590600052602060002090810190613e9b9190613f22565b50565b828054613eaa90614953565b90600052602060002090601f016020900481019282613ecc5760008555613f12565b82601f10613ee557805160ff1916838001178555613f12565b82800160010185558215613f12579182015b82811115613f12578251825591602001919060010190613ef7565b50613f1e929150613f22565b5090565b5b80821115613f1e5760008155600101613f23565b60006001600160401b0380841115613f5157613f51614a10565b604051601f8501601f19908116603f01168101908282118183101715613f7957613f79614a10565b81604052809350858152868686011115613f9257600080fd5b858560208301376000602087830101525050509392505050565b600082601f830112613fbc578081fd5b6110eb83833560208501613f37565b80356001600160401b038116811461357e57600080fd5b600060208284031215613ff3578081fd5b81356110eb81614a26565b60006020828403121561400f578081fd5b81516110eb81614a26565b6000806040838503121561402c578081fd5b823561403781614a26565b9150602083013561404781614a26565b809150509250929050565b600080600060608486031215614066578081fd5b833561407181614a26565b9250602084013561408181614a26565b929592945050506040919091013590565b6000806000806000608086880312156140a9578081fd5b85356140b481614a26565b945060208601356140c481614a26565b93506040860135925060608601356001600160401b03808211156140e6578283fd5b818801915088601f8301126140f9578283fd5b813581811115614107578384fd5b896020828501011115614118578384fd5b9699959850939650602001949392505050565b60008060008060808587031215614140578384fd5b843561414b81614a26565b9350602085013561415b81614a26565b92506040850135915060608501356001600160401b0381111561417c578182fd5b8501601f8101871361418c578182fd5b61419b87823560208401613f37565b91505092959194509250565b600080604083850312156141b9578182fd5b82356141c481614a26565b9150602083013561404781614a3b565b600080604083850312156141e6578182fd5b82356141f181614a26565b946020939093013593505050565b600080600060608486031215614213578283fd5b833561421e81614a26565b95602085013595506040909401359392505050565b600060208284031215614244578081fd5b81356110eb81614a3b565b600060208284031215614260578081fd5b81516110eb81614a3b565b60006020828403121561427c578081fd5b81356110eb81614a49565b600060208284031215614298578081fd5b81516110eb81614a49565b60008060008060008060c087890312156142bb578384fd5b86356001600160401b03808211156142d1578586fd5b6142dd8a838b01613fac565b975060208901359150808211156142f2578586fd5b506142ff89828a01613fac565b955050604087013561431081614a26565b9350606087013561432081614a26565b9250608087013561433081614a26565b915060a087013561434081614a26565b809150509295509295509295565b60006020828403121561435f578081fd5b5035919050565b60008060006040848603121561437a578081fd5b8335925060208401356001600160401b0380821115614397578283fd5b818601915086601f8301126143aa578283fd5b8135818111156143b8578384fd5b8760208260051b85010111156143cc578384fd5b6020830194508093505050509250925092565b600080604083850312156143f1578182fd5b50508035926020909101359150565b60008060008060808587031215614415578182fd5b5050823594602084013594506040840135936060013592509050565b60008060008060008060c08789031215614449578384fd5b863595506020870135945061446060408801613fcb565b935061432060608801613fcb565b60006020828403121561447f578081fd5b6110eb82613fcb565b6000815180845260208085019450808401835b838110156144b75781518752958201959082019060010161449b565b509495945050505050565b6000815180845260208085019450808401835b838110156144b75781516001600160401b0316875295820195908201906001016144d5565b805160009060208084018383156144b75781516001600160401b0316875295820195908201906001016144d5565b60008151808452614540816020860160208601614927565b601f01601f19169290920160200192915050565b60008351614566818460208801614927565b83519083019061457a818360208801614927565b01949350505050565b858152600060208083018751828901845b828110156145b057815184529284019290840190600101614594565b5050506145c66145c082896144fa565b876144fa565b60c09590951b6001600160c01b0319168552505060089092019695505050505050565b6001600160a01b0392831681529116602082015260400190565b6001600160a01b039384168152919092166020820152604081019190915260600190565b6001600160a01b038581168252841660208201526040810183905260806060820181905260009061465a90830184614528565b9695505050505050565b6020815260006110eb6020830184614488565b6020815260006110eb6020830184614528565b60208082526032908201527f4552433732313a207472616e7366657220746f206e6f6e20455243373231526560408201527131b2b4bb32b91034b6b83632b6b2b73a32b960711b606082015260800190565b6020808252600c908201526b6e6f7420636f6e7461696e7360a01b604082015260600190565b6020808252602e908201527f496e697469616c697a61626c653a20636f6e747261637420697320616c72656160408201526d191e481a5b9a5d1a585b1a5e995960921b606082015260800190565b60208082526016908201527537b7363c9030b8383937bb32b21037b91037bbb732b960511b604082015260600190565b60208082526031908201527f4552433732313a207472616e736665722063616c6c6572206973206e6f74206f6040820152701ddb995c881b9bdc88185c1c1c9bdd9959607a1b606082015260800190565b6020808252602b908201527f496e697469616c697a61626c653a20636f6e7472616374206973206e6f74206960408201526a6e697469616c697a696e6760a81b606082015260800190565b60208082526009908201526837b7363ca7bbb732b960b91b604082015260600190565b85815260a06020820152600061485860a0830187614488565b828103604084015261486a81876144c2565b9050828103606084015261487e81866144c2565b9150506001600160401b03831660808301529695505050505050565b600082198211156148ad576148ad6149e4565b500190565b60006001600160401b0380831681851680830382111561457a5761457a6149e4565b6000826148e3576148e36149fa565b500490565b6000828210156148fa576148fa6149e4565b500390565b60006001600160401b038381169083168181101561491f5761491f6149e4565b039392505050565b60005b8381101561494257818101518382015260200161492a565b83811115611e7d5750506000910152565b600181811c9082168061496757607f821691505b6020821081141561498857634e487b7160e01b600052602260045260246000fd5b50919050565b60006000198214156149a2576149a26149e4565b5060010190565b60006001600160401b03808316818114156149c6576149c66149e4565b6001019392505050565b6000826149df576149df6149fa565b500690565b634e487b7160e01b600052601160045260246000fd5b634e487b7160e01b600052601260045260246000fd5b634e487b7160e01b600052604160045260246000fd5b6001600160a01b0381168114613e9b57600080fd5b8015158114613e9b57600080fd5b6001600160e01b031981168114613e9b57600080fdfea264697066735822122085ba0b341a3d858d00df9e498e7afca32e6995c7703ffb61632e1598654f343f64736f6c63430008040033",
    "sourcePath": "c:/Chuonglh/SmartOSC/LendingNFTSmartContract/contracts/VNFT/vNFT.sol",
    "compiler": {
        "name": "solc",
        "version": "0.8.4+commit.c7e474f2"
    },
    "functionHashes": {
        "acceptOwner()": "ebbc4965",
        "admin()": "f851a440",
        "approve(address,uint256)": "095ea7b3",
        "balanceOf(address)": "70a08231",
        "checkIn(address,uint256,uint256)": "98e5d38f",
        "concat(uint256,uint256,uint256,uint256)": "d816f091",
        "contains(uint256,uint256)": "438e15fc",
        "couldRedeem(uint256,uint256[])": "cb697d1e",
        "curDoid()": "abb2176a",
        "curDurationId()": "a050ac8f",
        "exists(uint256)": "4f558e79",
        "gc(uint256,uint256[])": "fe909ee4",
        "getApproved(uint256)": "081812fc",
        "getDoNftInfo(uint256)": "52332ed8",
        "getDuration(uint256)": "8bb126a7",
        "getDurationByIndex(uint256,uint256)": "e42e66a9",
        "getDurationIdList(uint256)": "dbe102c0",
        "getDurationListLength(uint256)": "fd83de62",
        "getFingerprint(uint256)": "159a6475",
        "getMaxDuration()": "b49a2db9",
        "getNonce(uint256)": "3d46b819",
        "getOriginalNftAddress()": "25cb25b0",
        "getOriginalNftId(uint256)": "1aa14498",
        "getUser(uint256)": "b0467deb",
        "getVNftId(uint256)": "3ed189cf",
        "initialize(string,string,address,address,address,address)": "e56f2fe4",
        "isApprovedForAll(address,address)": "e985e9c5",
        "isVNft(uint256)": "a8328412",
        "isValidNow(uint256)": "393b17a4",
        "market()": "80f55605",
        "maxDuration()": "6db5c8fd",
        "mint(uint256,uint256,uint64,uint64,address,address)": "10c11854",
        "mintVNft(uint256)": "a6cc2650",
        "name()": "06fdde03",
        "onERC721Received(address,address,uint256,bytes)": "150b7a02",
        "owner()": "8da5cb5b",
        "ownerOf(uint256)": "6352211e",
        "pendingOwner()": "e30c3978",
        "redeem(uint256,uint256[])": "c4a0db96",
        "renounceOwnership()": "715018a6",
        "safeTransferFrom(address,address,uint256)": "42842e0e",
        "safeTransferFrom(address,address,uint256,bytes)": "b88d4fde",
        "setAdmin(address)": "704b6c02",
        "setApprovalForAll(address,bool)": "a22cb465",
        "setIsOnlyNow(bool)": "0095d645",
        "setMarket(address)": "6dcea85f",
        "setMaxDuration(uint64)": "f0147832",
        "supportsInterface(bytes4)": "01ffc9a7",
        "symbol()": "95d89b41",
        "tokenURI(uint256)": "c87b56dd",
        "transferFrom(address,address,uint256)": "23b872dd",
        "transferOwnership(address)": "f2fde38b"
    },
    "gasEstimates": {
        "creation": {
            "codeDepositCost": "3818600",
            "executionCost": "4329",
            "totalCost": "3822929"
        },
        "external": {
            "acceptOwner()": "infinite",
            "admin()": "1125",
            "approve(address,uint256)": "infinite",
            "balanceOf(address)": "1350",
            "checkIn(address,uint256,uint256)": "infinite",
            "concat(uint256,uint256,uint256,uint256)": "infinite",
            "contains(uint256,uint256)": "infinite",
            "couldRedeem(uint256,uint256[])": "infinite",
            "curDoid()": "1085",
            "curDurationId()": "1107",
            "exists(uint256)": "1300",
            "gc(uint256,uint256[])": "infinite",
            "getApproved(uint256)": "2205",
            "getDoNftInfo(uint256)": "infinite",
            "getDuration(uint256)": "1369",
            "getDurationByIndex(uint256,uint256)": "4199",
            "getDurationIdList(uint256)": "infinite",
            "getDurationListLength(uint256)": "infinite",
            "getFingerprint(uint256)": "infinite",
            "getMaxDuration()": "1098",
            "getNonce(uint256)": "1317",
            "getOriginalNftAddress()": "1121",
            "getOriginalNftId(uint256)": "1251",
            "getUser(uint256)": "infinite",
            "getVNftId(uint256)": "1184",
            "initialize(string,string,address,address,address,address)": "infinite",
            "isApprovedForAll(address,address)": "infinite",
            "isVNft(uint256)": "2110",
            "isValidNow(uint256)": "infinite",
            "market()": "1148",
            "maxDuration()": "1105",
            "mint(uint256,uint256,uint64,uint64,address,address)": "infinite",
            "mintVNft(uint256)": "infinite",
            "name()": "infinite",
            "onERC721Received(address,address,uint256,bytes)": "infinite",
            "owner()": "1083",
            "ownerOf(uint256)": "1412",
            "pendingOwner()": "1148",
            "redeem(uint256,uint256[])": "infinite",
            "renounceOwnership()": "infinite",
            "safeTransferFrom(address,address,uint256)": "infinite",
            "safeTransferFrom(address,address,uint256,bytes)": "infinite",
            "setAdmin(address)": "24338",
            "setApprovalForAll(address,bool)": "infinite",
            "setIsOnlyNow(bool)": "22855",
            "setMarket(address)": "22150",
            "setMaxDuration(uint64)": "22955",
            "supportsInterface(bytes4)": "infinite",
            "symbol()": "infinite",
            "tokenURI(uint256)": "infinite",
            "transferFrom(address,address,uint256)": "infinite",
            "transferOwnership(address)": "24292"
        }
    }
}