{
  "_format": "hh-sol-artifact-1",
  "contractName": "StakingTest",
  "sourceName": "contracts/staking/StakingTest.sol",
  "abi": [
    {
      "inputs": [
        {
          "internalType": "address",
          "name": "_mainToken",
          "type": "address"
        },
        {
          "internalType": "uint256",
          "name": "_rewardRate",
          "type": "uint256"
        }
      ],
      "stateMutability": "nonpayable",
      "type": "constructor"
    },
    {
      "anonymous": false,
      "inputs": [
        {
          "indexed": true,
          "internalType": "address",
          "name": "previousOwner",
          "type": "address"
        },
        {
          "indexed": true,
          "internalType": "address",
          "name": "newOwner",
          "type": "address"
        }
      ],
      "name": "OwnershipTransferred",
      "type": "event"
    },
    {
      "inputs": [
        {
          "internalType": "uint256",
          "name": "_amount",
          "type": "uint256"
        }
      ],
      "name": "addStake",
      "outputs": [],
      "stateMutability": "nonpayable",
      "type": "function"
    },
    {
      "inputs": [
        {
          "internalType": "address",
          "name": "account",
          "type": "address"
        }
      ],
      "name": "calculateUserReward",
      "outputs": [
        {
          "internalType": "uint256",
          "name": "",
          "type": "uint256"
        }
      ],
      "stateMutability": "view",
      "type": "function"
    },
    {
      "inputs": [],
      "name": "claimReward",
      "outputs": [],
      "stateMutability": "nonpayable",
      "type": "function"
    },
    {
      "inputs": [
        {
          "internalType": "address",
          "name": "account",
          "type": "address"
        }
      ],
      "name": "getStakeInfo",
      "outputs": [
        {
          "components": [
            {
              "internalType": "uint256",
              "name": "amount",
              "type": "uint256"
            },
            {
              "internalType": "uint256",
              "name": "startTime",
              "type": "uint256"
            }
          ],
          "internalType": "struct StakingTest.StakingInfo",
          "name": "",
          "type": "tuple"
        }
      ],
      "stateMutability": "view",
      "type": "function"
    },
    {
      "inputs": [],
      "name": "getTotalSupply",
      "outputs": [
        {
          "internalType": "uint256",
          "name": "",
          "type": "uint256"
        }
      ],
      "stateMutability": "view",
      "type": "function"
    },
    {
      "inputs": [],
      "name": "lastUpdateTime",
      "outputs": [
        {
          "internalType": "uint256",
          "name": "",
          "type": "uint256"
        }
      ],
      "stateMutability": "view",
      "type": "function"
    },
    {
      "inputs": [],
      "name": "mainToken",
      "outputs": [
        {
          "internalType": "contract IERC20",
          "name": "",
          "type": "address"
        }
      ],
      "stateMutability": "view",
      "type": "function"
    },
    {
      "inputs": [],
      "name": "owner",
      "outputs": [
        {
          "internalType": "address",
          "name": "",
          "type": "address"
        }
      ],
      "stateMutability": "view",
      "type": "function"
    },
    {
      "inputs": [],
      "name": "renounceOwnership",
      "outputs": [],
      "stateMutability": "nonpayable",
      "type": "function"
    },
    {
      "inputs": [],
      "name": "reserve",
      "outputs": [
        {
          "internalType": "contract ReserveTest",
          "name": "",
          "type": "address"
        }
      ],
      "stateMutability": "view",
      "type": "function"
    },
    {
      "inputs": [],
      "name": "rewardPerToken",
      "outputs": [
        {
          "internalType": "uint256",
          "name": "",
          "type": "uint256"
        }
      ],
      "stateMutability": "view",
      "type": "function"
    },
    {
      "inputs": [],
      "name": "rewardPerTokenStake",
      "outputs": [
        {
          "internalType": "uint256",
          "name": "",
          "type": "uint256"
        }
      ],
      "stateMutability": "view",
      "type": "function"
    },
    {
      "inputs": [],
      "name": "rewardRate",
      "outputs": [
        {
          "internalType": "uint256",
          "name": "",
          "type": "uint256"
        }
      ],
      "stateMutability": "view",
      "type": "function"
    },
    {
      "inputs": [
        {
          "internalType": "address",
          "name": "_reserve",
          "type": "address"
        }
      ],
      "name": "setReserve",
      "outputs": [],
      "stateMutability": "nonpayable",
      "type": "function"
    },
    {
      "inputs": [
        {
          "internalType": "address",
          "name": "newOwner",
          "type": "address"
        }
      ],
      "name": "transferOwnership",
      "outputs": [],
      "stateMutability": "nonpayable",
      "type": "function"
    },
    {
      "inputs": [
        {
          "internalType": "address",
          "name": "",
          "type": "address"
        }
      ],
      "name": "userRewardPerStake",
      "outputs": [
        {
          "internalType": "uint256",
          "name": "",
          "type": "uint256"
        }
      ],
      "stateMutability": "view",
      "type": "function"
    },
    {
      "inputs": [
        {
          "internalType": "address",
          "name": "",
          "type": "address"
        }
      ],
      "name": "userToRewards",
      "outputs": [
        {
          "internalType": "uint256",
          "name": "",
          "type": "uint256"
        }
      ],
      "stateMutability": "view",
      "type": "function"
    },
    {
      "inputs": [
        {
          "internalType": "address",
          "name": "",
          "type": "address"
        }
      ],
      "name": "userToStakeInfo",
      "outputs": [
        {
          "internalType": "uint256",
          "name": "amount",
          "type": "uint256"
        },
        {
          "internalType": "uint256",
          "name": "startTime",
          "type": "uint256"
        }
      ],
      "stateMutability": "view",
      "type": "function"
    },
    {
      "inputs": [
        {
          "internalType": "uint256",
          "name": "_amount",
          "type": "uint256"
        }
      ],
      "name": "withdrawStake",
      "outputs": [],
      "stateMutability": "nonpayable",
      "type": "function"
    }
  ],
  "bytecode": "0x608060405234801561001057600080fd5b50604051610c33380380610c3383398101604081905261002f916100b5565b61003833610065565b60018055600380546001600160a01b0319166001600160a01b0393909316929092179091556004556100ed565b600080546001600160a01b038381166001600160a01b0319831681178455604051919092169283917f8be0079c531659141344cd1fd0a4f28419497f9722a3daafe3b4186f6b6457e09190a35050565b600080604083850312156100c7578182fd5b82516001600160a01b03811681146100dd578283fd5b6020939093015192949293505050565b610b37806100fc6000396000f3fe608060405234801561001057600080fd5b50600436106101215760003560e01c8063b88a802f116100ad578063cd3daf9d11610071578063cd3daf9d146102af578063cf2b9f48146102b7578063ea7a47e6146102ca578063eb4f16b5146102ea578063f2fde38b146102fd57600080fd5b8063b88a802f14610213578063c34531531461021b578063c4e41b221461028b578063c8f33c9114610293578063cd3293de1461029c57600080fd5b80637c80bf9b116100f45780637c80bf9b1461018a57806380f5c86d146101aa5780638da5cb5b146101e65780639cecc80a146101f7578063b60617a11461020a57600080fd5b806325d5971f146101265780633fc15f151461013b578063715018a61461016b5780637b0a47ee14610173575b600080fd5b6101396101343660046109f9565b610310565b005b60035461014e906001600160a01b031681565b6040516001600160a01b0390911681526020015b60405180910390f35b610139610482565b61017c60045481565b604051908152602001610162565b61017c6101983660046109b2565b60076020526000908152604090205481565b6101d16101b83660046109b2565b600a602052600090815260409020805460019091015482565b60408051928352602083019190915201610162565b6000546001600160a01b031661014e565b6101396102053660046109b2565b6104b8565b61017c60065481565b610139610504565b6102706102293660046109b2565b6040805180820190915260008082526020820152506001600160a01b03166000908152600a6020908152604091829020825180840190935280548352600101549082015290565b60408051825181526020928301519281019290925201610162565b60095461017c565b61017c60055481565b60025461014e906001600160a01b031681565b61017c610623565b61017c6102c53660046109b2565b610681565b61017c6102d83660046109b2565b60086020526000908152604090205481565b6101396102f83660046109f9565b6106f9565b61013961030b3660046109b2565b610890565b6002600154141561033c5760405162461bcd60e51b815260040161033390610a46565b60405180910390fd5b6002600155338061034c57600080fd5b610354610623565b6006554260055561036481610681565b6001600160a01b0382166000908152600860209081526040808320939093556006546007909152919020558161039957600080fd5b336000908152600a60205260409020548211156103b557600080fd5b6009546103c2908361092b565b600955336000908152600a60205260409020546103df908361092b565b336000818152600a60205260409081902092909255600354915163a9059cbb60e01b81526004810191909152602481018490526001600160a01b039091169063a9059cbb90604401602060405180830381600087803b15801561044157600080fd5b505af1158015610455573d6000803e3d6000fd5b505050506040513d601f19601f8201168201806040525081019061047991906109d9565b50506001805550565b6000546001600160a01b031633146104ac5760405162461bcd60e51b815260040161033390610a11565b6104b6600061093e565b565b6000546001600160a01b031633146104e25760405162461bcd60e51b815260040161033390610a11565b600280546001600160a01b0319166001600160a01b0392909216919091179055565b600260015414156105275760405162461bcd60e51b815260040161033390610a46565b6002600155338061053757600080fd5b61053f610623565b6006554260055561054f81610681565b6001600160a01b038216600090815260086020818152604080842094909455600654600782528484205533835252205461058857600080fd5b6002543360008181526008602052604090819020549051637a74b75b60e01b81526001600160a01b0390931692637a74b75b926105da92916004019182526001600160a01b0316602082015260400190565b600060405180830381600087803b1580156105f457600080fd5b505af1158015610608573d6000803e3d6000fd5b50503360009081526008602052604081205550506001805550565b600060095460001415610637575060065490565b61067c61067360095461066d670de0b6b3a76400006106676004546106676005544261092b90919063ffffffff16565b9061098e565b9061099a565b600654906109a6565b905090565b6001600160a01b03811660009081526008602090815260408083205460079092528220546106f391906106ed90670de0b6b3a76400009061066d906106ce906106c8610623565b9061092b565b6001600160a01b0388166000908152600a60205260409020549061098e565b906109a6565b92915050565b6002600154141561071c5760405162461bcd60e51b815260040161033390610a46565b6002600155338061072c57600080fd5b610734610623565b6006554260055561074481610681565b6001600160a01b0382166000908152600860209081526040808320939093556006546007909152919020558161077957600080fd5b60095461078690836109a6565b6009556003546040516323b872dd60e01b8152336004820152306024820152604481018490526001600160a01b03909116906323b872dd90606401602060405180830381600087803b1580156107db57600080fd5b505af11580156107ef573d6000803e3d6000fd5b505050506040513d601f19601f8201168201806040525081019061081391906109d9565b50336000908152600a602052604090205461085d57604080518082018252838152426020808301918252336000908152600a90915292909220905181559051600190910155610888565b336000908152600a602052604090205461087790836109a6565b336000908152600a60205260409020555b505060018055565b6000546001600160a01b031633146108ba5760405162461bcd60e51b815260040161033390610a11565b6001600160a01b03811661091f5760405162461bcd60e51b815260206004820152602660248201527f4f776e61626c653a206e6577206f776e657220697320746865207a65726f206160448201526564647265737360d01b6064820152608401610333565b6109288161093e565b50565b60006109378284610ad4565b9392505050565b600080546001600160a01b038381166001600160a01b0319831681178455604051919092169283917f8be0079c531659141344cd1fd0a4f28419497f9722a3daafe3b4186f6b6457e09190a35050565b60006109378284610ab5565b60006109378284610a95565b60006109378284610a7d565b6000602082840312156109c3578081fd5b81356001600160a01b0381168114610937578182fd5b6000602082840312156109ea578081fd5b81518015158114610937578182fd5b600060208284031215610a0a578081fd5b5035919050565b6020808252818101527f4f776e61626c653a2063616c6c6572206973206e6f7420746865206f776e6572604082015260600190565b6020808252601f908201527f5265656e7472616e637947756172643a207265656e7472616e742063616c6c00604082015260600190565b60008219821115610a9057610a90610aeb565b500190565b600082610ab057634e487b7160e01b81526012600452602481fd5b500490565b6000816000190483118215151615610acf57610acf610aeb565b500290565b600082821015610ae657610ae6610aeb565b500390565b634e487b7160e01b600052601160045260246000fdfea2646970667358221220372e6d86f297224a116f8b7820a8e4db696f3353b76c6ec01092f7e104a6bc6f64736f6c63430008040033",
  "linkReferences": {},
  "deployedLinkReferences": {}
}