{
  "_format": "hh-sol-artifact-1",
  "contractName": "DCL",
  "sourceName": "contracts/Double/dcl/DCL.sol",
  "abi": [
    {
      "inputs": [
        {
          "internalType": "uint256",
          "name": "",
          "type": "uint256"
        }
      ],
      "name": "updateOperator",
      "outputs": [
        {
          "internalType": "address",
          "name": "",
          "type": "address"
        }
      ],
      "stateMutability": "view",
      "type": "function"
    }
  ],
  "bytecode": "0x608060405234801561001057600080fd5b50610184806100206000396000f3fe608060405234801561001057600080fd5b506004361061002b5760003560e01c80639d40b85014610030575b600080fd5b61004a600480360381019061004591906100a8565b610060565b60405161005791906100e0565b60405180910390f35b60006020528060005260406000206000915054906101000a900473ffffffffffffffffffffffffffffffffffffffff1681565b6000813590506100a281610137565b92915050565b6000602082840312156100ba57600080fd5b60006100c884828501610093565b91505092915050565b6100da816100fb565b82525050565b60006020820190506100f560008301846100d1565b92915050565b60006101068261010d565b9050919050565b600073ffffffffffffffffffffffffffffffffffffffff82169050919050565b6000819050919050565b6101408161012d565b811461014b57600080fd5b5056fea2646970667358221220c19fc04d8076cd65b52604ce55db6be57df35dda6e7760538dc7c3339f2d0be164736f6c63430008040033",
  "linkReferences": {},
  "deployedLinkReferences": {}
}