{
  "_format": "hh-sol-artifact-1",
  "contractName": "DoNFTFactory",
  "sourceName": "contracts/Double/DoNFTFactory.sol",
  "abi": [
    {
      "inputs": [
        {
          "internalType": "address",
          "name": "owner_",
          "type": "address"
        },
        {
          "internalType": "address",
          "name": "admin_",
          "type": "address"
        },
        {
          "internalType": "address",
          "name": "beacon_",
          "type": "address"
        },
        {
          "internalType": "address",
          "name": "market_",
          "type": "address"
        }
      ],
      "stateMutability": "nonpayable",
      "type": "constructor"
    },
    {
      "anonymous": false,
      "inputs": [
        {
          "indexed": false,
          "internalType": "address",
          "name": "proxy",
          "type": "address"
        },
        {
          "indexed": false,
          "internalType": "string",
          "name": "name",
          "type": "string"
        },
        {
          "indexed": false,
          "internalType": "string",
          "name": "symbol",
          "type": "string"
        },
        {
          "indexed": false,
          "internalType": "address",
          "name": "originalAddress",
          "type": "address"
        },
        {
          "indexed": false,
          "internalType": "address",
          "name": "market",
          "type": "address"
        },
        {
          "indexed": false,
          "internalType": "address",
          "name": "royaltyAdmin",
          "type": "address"
        },
        {
          "indexed": false,
          "internalType": "string",
          "name": "gameKey",
          "type": "string"
        }
      ],
      "name": "DeployDoNFT",
      "type": "event"
    },
    {
      "anonymous": false,
      "inputs": [
        {
          "indexed": false,
          "internalType": "address",
          "name": "wrapNFT",
          "type": "address"
        },
        {
          "indexed": false,
          "internalType": "string",
          "name": "name",
          "type": "string"
        },
        {
          "indexed": false,
          "internalType": "string",
          "name": "symbol",
          "type": "string"
        },
        {
          "indexed": false,
          "internalType": "address",
          "name": "originalAddress",
          "type": "address"
        }
      ],
      "name": "DeployWrapERC721DualRole",
      "type": "event"
    },
    {
      "anonymous": false,
      "inputs": [
        {
          "indexed": false,
          "internalType": "address",
          "name": "oldAdmin",
          "type": "address"
        },
        {
          "indexed": false,
          "internalType": "address",
          "name": "newAdmin",
          "type": "address"
        }
      ],
      "name": "NewAdmin",
      "type": "event"
    },
    {
      "anonymous": false,
      "inputs": [
        {
          "indexed": false,
          "internalType": "address",
          "name": "oldOwner",
          "type": "address"
        },
        {
          "indexed": false,
          "internalType": "address",
          "name": "newOwner",
          "type": "address"
        }
      ],
      "name": "NewOwner",
      "type": "event"
    },
    {
      "anonymous": false,
      "inputs": [
        {
          "indexed": false,
          "internalType": "address",
          "name": "oldPendingOwner",
          "type": "address"
        },
        {
          "indexed": false,
          "internalType": "address",
          "name": "newPendingOwner",
          "type": "address"
        }
      ],
      "name": "NewPendingOwner",
      "type": "event"
    },
    {
      "inputs": [],
      "name": "acceptOwner",
      "outputs": [],
      "stateMutability": "nonpayable",
      "type": "function"
    },
    {
      "inputs": [],
      "name": "admin",
      "outputs": [
        {
          "internalType": "address",
          "name": "",
          "type": "address"
        }
      ],
      "stateMutability": "view",
      "type": "function"
    },
    {
      "inputs": [],
      "name": "beacon",
      "outputs": [
        {
          "internalType": "address",
          "name": "",
          "type": "address"
        }
      ],
      "stateMutability": "view",
      "type": "function"
    },
    {
      "inputs": [
        {
          "internalType": "string",
          "name": "name",
          "type": "string"
        },
        {
          "internalType": "string",
          "name": "symbol",
          "type": "string"
        },
        {
          "internalType": "address",
          "name": "originalAddress",
          "type": "address"
        },
        {
          "internalType": "address",
          "name": "owner_",
          "type": "address"
        },
        {
          "internalType": "address",
          "name": "admin_",
          "type": "address"
        },
        {
          "internalType": "address",
          "name": "royaltyAdmin",
          "type": "address"
        },
        {
          "internalType": "string",
          "name": "gameKey",
          "type": "string"
        }
      ],
      "name": "deployDoNFT",
      "outputs": [
        {
          "internalType": "contract BeaconProxy",
          "name": "proxy",
          "type": "address"
        }
      ],
      "stateMutability": "nonpayable",
      "type": "function"
    },
    {
      "inputs": [
        {
          "internalType": "string",
          "name": "name",
          "type": "string"
        },
        {
          "internalType": "string",
          "name": "symbol",
          "type": "string"
        },
        {
          "internalType": "address",
          "name": "originalAddress",
          "type": "address"
        }
      ],
      "name": "deployWrapNFT",
      "outputs": [
        {
          "internalType": "contract WrapERC721DualRole",
          "name": "wrapNFT",
          "type": "address"
        }
      ],
      "stateMutability": "nonpayable",
      "type": "function"
    },
    {
      "inputs": [
        {
          "internalType": "address",
          "name": "nftAddress",
          "type": "address"
        },
        {
          "internalType": "string",
          "name": "gameKey",
          "type": "string"
        }
      ],
      "name": "getDoNFT",
      "outputs": [
        {
          "internalType": "address",
          "name": "",
          "type": "address"
        }
      ],
      "stateMutability": "view",
      "type": "function"
    },
    {
      "inputs": [],
      "name": "market",
      "outputs": [
        {
          "internalType": "address",
          "name": "",
          "type": "address"
        }
      ],
      "stateMutability": "view",
      "type": "function"
    },
    {
      "inputs": [],
      "name": "owner",
      "outputs": [
        {
          "internalType": "address",
          "name": "",
          "type": "address"
        }
      ],
      "stateMutability": "view",
      "type": "function"
    },
    {
      "inputs": [],
      "name": "pendingOwner",
      "outputs": [
        {
          "internalType": "address",
          "name": "",
          "type": "address"
        }
      ],
      "stateMutability": "view",
      "type": "function"
    },
    {
      "inputs": [],
      "name": "renounceOwnership",
      "outputs": [],
      "stateMutability": "nonpayable",
      "type": "function"
    },
    {
      "inputs": [
        {
          "internalType": "address",
          "name": "newAdmin",
          "type": "address"
        }
      ],
      "name": "setAdmin",
      "outputs": [],
      "stateMutability": "nonpayable",
      "type": "function"
    },
    {
      "inputs": [
        {
          "internalType": "address",
          "name": "beacon_",
          "type": "address"
        },
        {
          "internalType": "address",
          "name": "market_",
          "type": "address"
        }
      ],
      "name": "setBeaconAndMarket",
      "outputs": [],
      "stateMutability": "nonpayable",
      "type": "function"
    },
    {
      "inputs": [
        {
          "internalType": "address",
          "name": "_pendingOwner",
          "type": "address"
        }
      ],
      "name": "transferOwnership",
      "outputs": [],
      "stateMutability": "nonpayable",
      "type": "function"
    }
  ],
  "bytecode": "0x60806040523480156200001157600080fd5b5060405162006f5438038062006f54833981810160405281019062000037919062000171565b620000498484620000d560201b60201c565b81600460006101000a81548173ffffffffffffffffffffffffffffffffffffffff021916908373ffffffffffffffffffffffffffffffffffffffff16021790555080600560006101000a81548173ffffffffffffffffffffffffffffffffffffffff021916908373ffffffffffffffffffffffffffffffffffffffff160217905550505050506200022b565b816000806101000a81548173ffffffffffffffffffffffffffffffffffffffff021916908373ffffffffffffffffffffffffffffffffffffffff16021790555080600260006101000a81548173ffffffffffffffffffffffffffffffffffffffff021916908373ffffffffffffffffffffffffffffffffffffffff1602179055505050565b6000815190506200016b8162000211565b92915050565b600080600080608085870312156200018857600080fd5b600062000198878288016200015a565b9450506020620001ab878288016200015a565b9350506040620001be878288016200015a565b9250506060620001d1878288016200015a565b91505092959194509250565b6000620001ea82620001f1565b9050919050565b600073ffffffffffffffffffffffffffffffffffffffff82169050919050565b6200021c81620001dd565b81146200022857600080fd5b50565b616d19806200023b6000396000f3fe60806040523480156200001157600080fd5b5060043610620000e25760003560e01c80638da5cb5b1162000099578063ebbc4965116200006f578063ebbc49651462000227578063ee4e3f2a1462000233578063f2fde38b1462000269578063f851a440146200028957620000e2565b80638da5cb5b14620001c3578063918b1ac514620001e5578063e30c3978146200020557620000e2565b80632672c36114620000e757806359659e90146200011d57806365b4ab05146200013f578063704b6c021462000175578063715018a6146200019557806380f5560514620001a1575b600080fd5b620001056004803603810190620000ff919062001444565b620002ab565b604051620001149190620018a0565b60405180910390f35b6200012762000336565b604051620001369190620018a0565b60405180910390f35b6200015d600480360381019062000157919062001556565b6200035c565b6040516200016c919062001a2a565b60405180910390f35b6200019360048036038101906200018d9190620013d7565b62000775565b005b6200019f620008a7565b005b620001ab62000b17565b604051620001ba9190620018a0565b60405180910390f35b620001cd62000b3d565b604051620001dc9190620018a0565b60405180910390f35b620002036004803603810190620001fd919062001403565b62000b61565b005b6200020f62000cd1565b6040516200021e9190620018a0565b60405180910390f35b6200023162000cf7565b005b6200025160048036038101906200024b9190620014ce565b62000f0c565b60405162000260919062001a47565b60405180910390f35b620002876004803603810190620002819190620013d7565b62001176565b005b62000293620012a8565b604051620002a29190620018a0565b60405180910390f35b6000600360008573ffffffffffffffffffffffffffffffffffffffff1673ffffffffffffffffffffffffffffffffffffffff1681526020019081526020016000208383604051620002fe92919062001885565b908152602001604051809103902060009054906101000a900473ffffffffffffffffffffffffffffffffffffffff1690509392505050565b600460009054906101000a900473ffffffffffffffffffffffffffffffffffffffff1681565b60008673ffffffffffffffffffffffffffffffffffffffff166301ffc9a77fad092b5c000000000000000000000000000000000000000000000000000000006040518263ffffffff1660e01b8152600401620003b9919062001a0d565b60206040518083038186803b158015620003d257600080fd5b505afa158015620003e7573d6000803e3d6000fd5b505050506040513d601f19601f820116820180604052508101906200040d9190620014a2565b6200044f576040517f08c379a0000000000000000000000000000000000000000000000000000000008152600401620004469062001bc2565b60405180910390fd5b600073ffffffffffffffffffffffffffffffffffffffff16600360008973ffffffffffffffffffffffffffffffffffffffff1673ffffffffffffffffffffffffffffffffffffffff1681526020019081526020016000208484604051620004b892919062001885565b908152602001604051809103902060009054906101000a900473ffffffffffffffffffffffffffffffffffffffff1673ffffffffffffffffffffffffffffffffffffffff161462000540576040517f08c379a0000000000000000000000000000000000000000000000000000000008152600401620005379062001b7e565b60405180910390fd5b6000898989600560009054906101000a900473ffffffffffffffffffffffffffffffffffffffff168a8a8a60405160240162000583979695949392919062001aaf565b6040516020818303038152906040527fc91f0c53000000000000000000000000000000000000000000000000000000007bffffffffffffffffffffffffffffffffffffffffffffffffffffffff19166020820180517bffffffffffffffffffffffffffffffffffffffffffffffffffffffff83818316178352505050509050600460009054906101000a900473ffffffffffffffffffffffffffffffffffffffff16816040516200063490620012ce565b62000641929190620018ea565b604051809103906000f0801580156200065e573d6000803e3d6000fd5b50915081600360008a73ffffffffffffffffffffffffffffffffffffffff1673ffffffffffffffffffffffffffffffffffffffff1681526020019081526020016000208585604051620006b392919062001885565b908152602001604051809103902060006101000a81548173ffffffffffffffffffffffffffffffffffffffff021916908373ffffffffffffffffffffffffffffffffffffffff1602179055507ff980fa4f2345d659926c5d7a24c6b1007cde280d6f3db9e5fb63ed5320d89b7e828b8b8b600560009054906101000a900473ffffffffffffffffffffffffffffffffffffffff168a8a8a6040516200076098979695949392919062001979565b60405180910390a15098975050505050505050565b60008054906101000a900473ffffffffffffffffffffffffffffffffffffffff1673ffffffffffffffffffffffffffffffffffffffff163373ffffffffffffffffffffffffffffffffffffffff161462000806576040517f08c379a0000000000000000000000000000000000000000000000000000000008152600401620007fd9062001c06565b60405180910390fd5b7ff9ffabca9c8276e99321725bcb43fb076a6c66a54b7f21c4e8146d8519b417dc600260009054906101000a900473ffffffffffffffffffffffffffffffffffffffff16826040516200085b929190620018bd565b60405180910390a180600260006101000a81548173ffffffffffffffffffffffffffffffffffffffff021916908373ffffffffffffffffffffffffffffffffffffffff16021790555050565b60008054906101000a900473ffffffffffffffffffffffffffffffffffffffff1673ffffffffffffffffffffffffffffffffffffffff163373ffffffffffffffffffffffffffffffffffffffff161462000938576040517f08c379a00000000000000000000000000000000000000000000000000000000081526004016200092f9062001c06565b60405180910390fd5b7f70aea8d848e8a90fb7661b227dc522eb6395c3dac71b63cb59edd5c9899b236460008054906101000a900473ffffffffffffffffffffffffffffffffffffffff1660006040516200098c929190620018bd565b60405180910390a17ff9ffabca9c8276e99321725bcb43fb076a6c66a54b7f21c4e8146d8519b417dc600260009054906101000a900473ffffffffffffffffffffffffffffffffffffffff166000604051620009ea929190620018bd565b60405180910390a17fb3d55174552271a4f1aaf36b72f50381e892171636b3fb5447fe00e995e7a37b600160009054906101000a900473ffffffffffffffffffffffffffffffffffffffff16600060405162000a48929190620018bd565b60405180910390a160008060006101000a81548173ffffffffffffffffffffffffffffffffffffffff021916908373ffffffffffffffffffffffffffffffffffffffff1602179055506000600160006101000a81548173ffffffffffffffffffffffffffffffffffffffff021916908373ffffffffffffffffffffffffffffffffffffffff1602179055506000600260006101000a81548173ffffffffffffffffffffffffffffffffffffffff021916908373ffffffffffffffffffffffffffffffffffffffff160217905550565b600560009054906101000a900473ffffffffffffffffffffffffffffffffffffffff1681565b60008054906101000a900473ffffffffffffffffffffffffffffffffffffffff1681565b600260009054906101000a900473ffffffffffffffffffffffffffffffffffffffff1673ffffffffffffffffffffffffffffffffffffffff163373ffffffffffffffffffffffffffffffffffffffff16148062000c09575060008054906101000a900473ffffffffffffffffffffffffffffffffffffffff1673ffffffffffffffffffffffffffffffffffffffff163373ffffffffffffffffffffffffffffffffffffffff16145b62000c4b576040517f08c379a000000000000000000000000000000000000000000000000000000000815260040162000c429062001b3a565b60405180910390fd5b81600460006101000a81548173ffffffffffffffffffffffffffffffffffffffff021916908373ffffffffffffffffffffffffffffffffffffffff16021790555080600560006101000a81548173ffffffffffffffffffffffffffffffffffffffff021916908373ffffffffffffffffffffffffffffffffffffffff1602179055505050565b600160009054906101000a900473ffffffffffffffffffffffffffffffffffffffff1681565b600160009054906101000a900473ffffffffffffffffffffffffffffffffffffffff1673ffffffffffffffffffffffffffffffffffffffff163373ffffffffffffffffffffffffffffffffffffffff161462000d8a576040517f08c379a000000000000000000000000000000000000000000000000000000000815260040162000d819062001ba0565b60405180910390fd5b7f70aea8d848e8a90fb7661b227dc522eb6395c3dac71b63cb59edd5c9899b236460008054906101000a900473ffffffffffffffffffffffffffffffffffffffff16600160009054906101000a900473ffffffffffffffffffffffffffffffffffffffff1660405162000dff929190620018bd565b60405180910390a1600160009054906101000a900473ffffffffffffffffffffffffffffffffffffffff166000806101000a81548173ffffffffffffffffffffffffffffffffffffffff021916908373ffffffffffffffffffffffffffffffffffffffff16021790555060007fb3d55174552271a4f1aaf36b72f50381e892171636b3fb5447fe00e995e7a37b600160009054906101000a900473ffffffffffffffffffffffffffffffffffffffff168260405162000ec0929190620018bd565b60405180910390a180600160006101000a81548173ffffffffffffffffffffffffffffffffffffffff021916908373ffffffffffffffffffffffffffffffffffffffff16021790555050565b60008173ffffffffffffffffffffffffffffffffffffffff166301ffc9a77f80ac58cd000000000000000000000000000000000000000000000000000000006040518263ffffffff1660e01b815260040162000f69919062001a0d565b60206040518083038186803b15801562000f8257600080fd5b505afa15801562000f97573d6000803e3d6000fd5b505050506040513d601f19601f8201168201806040525081019062000fbd9190620014a2565b62000fff576040517f08c379a000000000000000000000000000000000000000000000000000000000815260040162000ff69062001b5c565b60405180910390fd5b8173ffffffffffffffffffffffffffffffffffffffff166301ffc9a77fad092b5c000000000000000000000000000000000000000000000000000000006040518263ffffffff1660e01b81526004016200105a919062001a0d565b60206040518083038186803b1580156200107357600080fd5b505afa15801562001088573d6000803e3d6000fd5b505050506040513d601f19601f82011682018060405250810190620010ae9190620014a2565b15620010f1576040517f08c379a0000000000000000000000000000000000000000000000000000000008152600401620010e89062001be4565b60405180910390fd5b8383836040516200110290620012dc565b620011109392919062001a64565b604051809103906000f0801580156200112d573d6000803e3d6000fd5b5090507f0b046c391cc11ba006dcb4665a04d5c5d7f681bae6c1ed67aaa101bd4c339332818585856040516200116794939291906200191e565b60405180910390a19392505050565b60008054906101000a900473ffffffffffffffffffffffffffffffffffffffff1673ffffffffffffffffffffffffffffffffffffffff163373ffffffffffffffffffffffffffffffffffffffff161462001207576040517f08c379a0000000000000000000000000000000000000000000000000000000008152600401620011fe9062001c06565b60405180910390fd5b7fb3d55174552271a4f1aaf36b72f50381e892171636b3fb5447fe00e995e7a37b600160009054906101000a900473ffffffffffffffffffffffffffffffffffffffff16826040516200125c929190620018bd565b60405180910390a180600160006101000a81548173ffffffffffffffffffffffffffffffffffffffff021916908373ffffffffffffffffffffffffffffffffffffffff16021790555050565b600260009054906101000a900473ffffffffffffffffffffffffffffffffffffffff1681565b61105d8062001f9583390190565b613cf28062002ff283390190565b600062001301620012fb8462001c51565b62001c28565b9050828152602081018484840111156200131a57600080fd5b6200132784828562001d86565b509392505050565b600081359050620013408162001f60565b92915050565b600081519050620013578162001f7a565b92915050565b60008083601f8401126200137057600080fd5b8235905067ffffffffffffffff8111156200138a57600080fd5b602083019150836001820283011115620013a357600080fd5b9250929050565b600082601f830112620013bc57600080fd5b8135620013ce848260208601620012ea565b91505092915050565b600060208284031215620013ea57600080fd5b6000620013fa848285016200132f565b91505092915050565b600080604083850312156200141757600080fd5b600062001427858286016200132f565b92505060206200143a858286016200132f565b9150509250929050565b6000806000604084860312156200145a57600080fd5b60006200146a868287016200132f565b935050602084013567ffffffffffffffff8111156200148857600080fd5b62001496868287016200135d565b92509250509250925092565b600060208284031215620014b557600080fd5b6000620014c58482850162001346565b91505092915050565b600080600060608486031215620014e457600080fd5b600084013567ffffffffffffffff811115620014ff57600080fd5b6200150d86828701620013aa565b935050602084013567ffffffffffffffff8111156200152b57600080fd5b6200153986828701620013aa565b92505060406200154c868287016200132f565b9150509250925092565b60008060008060008060008060e0898b0312156200157357600080fd5b600089013567ffffffffffffffff8111156200158e57600080fd5b6200159c8b828c01620013aa565b985050602089013567ffffffffffffffff811115620015ba57600080fd5b620015c88b828c01620013aa565b9750506040620015db8b828c016200132f565b9650506060620015ee8b828c016200132f565b9550506080620016018b828c016200132f565b94505060a0620016148b828c016200132f565b93505060c089013567ffffffffffffffff8111156200163257600080fd5b620016408b828c016200135d565b92509250509295985092959890939650565b6200165d8162001cca565b82525050565b6200166e8162001cea565b82525050565b6000620016818262001c87565b6200168d818562001c9d565b93506200169f81856020860162001d95565b620016aa8162001e30565b840191505092915050565b620016c08162001d36565b82525050565b620016d18162001d5e565b82525050565b6000620016e5838562001cae565b9350620016f483858462001d86565b620016ff8362001e30565b840190509392505050565b600062001718838562001cbf565b93506200172783858462001d86565b82840190509392505050565b6000620017408262001c92565b6200174c818562001cae565b93506200175e81856020860162001d95565b620017698162001e30565b840191505092915050565b60006200178360098362001cae565b9150620017908262001e41565b602082019050919050565b6000620017aa600a8362001cae565b9150620017b78262001e6a565b602082019050919050565b6000620017d160108362001cae565b9150620017de8262001e93565b602082019050919050565b6000620017f860108362001cae565b9150620018058262001ebc565b602082019050919050565b60006200181f601c8362001cae565b91506200182c8262001ee5565b602082019050919050565b600062001846601b8362001cae565b9150620018538262001f0e565b602082019050919050565b60006200186d60098362001cae565b91506200187a8262001f37565b602082019050919050565b6000620018948284866200170a565b91508190509392505050565b6000602082019050620018b7600083018462001652565b92915050565b6000604082019050620018d4600083018562001652565b620018e3602083018462001652565b9392505050565b600060408201905062001901600083018562001652565b818103602083015262001915818462001674565b90509392505050565b600060808201905062001935600083018762001652565b818103602083015262001949818662001733565b905081810360408301526200195f818562001733565b905062001970606083018462001652565b95945050505050565b600060e08201905062001990600083018b62001652565b8181036020830152620019a4818a62001733565b90508181036040830152620019ba818962001733565b9050620019cb606083018862001652565b620019da608083018762001652565b620019e960a083018662001652565b81810360c0830152620019fe818486620016d7565b90509998505050505050505050565b600060208201905062001a24600083018462001663565b92915050565b600060208201905062001a416000830184620016b5565b92915050565b600060208201905062001a5e6000830184620016c6565b92915050565b6000606082019050818103600083015262001a80818662001733565b9050818103602083015262001a96818562001733565b905062001aa7604083018462001652565b949350505050565b600060e082019050818103600083015262001acb818a62001733565b9050818103602083015262001ae1818962001733565b905062001af2604083018862001652565b62001b01606083018762001652565b62001b10608083018662001652565b62001b1f60a083018562001652565b62001b2e60c083018462001652565b98975050505050505050565b6000602082019050818103600083015262001b558162001774565b9050919050565b6000602082019050818103600083015262001b77816200179b565b9050919050565b6000602082019050818103600083015262001b9981620017c2565b9050919050565b6000602082019050818103600083015262001bbb81620017e9565b9050919050565b6000602082019050818103600083015262001bdd8162001810565b9050919050565b6000602082019050818103600083015262001bff8162001837565b9050919050565b6000602082019050818103600083015262001c21816200185e565b9050919050565b600062001c3462001c47565b905062001c42828262001dcb565b919050565b6000604051905090565b600067ffffffffffffffff82111562001c6f5762001c6e62001e01565b5b62001c7a8262001e30565b9050602081019050919050565b600081519050919050565b600081519050919050565b600082825260208201905092915050565b600082825260208201905092915050565b600081905092915050565b600062001cd78262001d16565b9050919050565b60008115159050919050565b60007fffffffff0000000000000000000000000000000000000000000000000000000082169050919050565b600073ffffffffffffffffffffffffffffffffffffffff82169050919050565b600062001d438262001d4a565b9050919050565b600062001d578262001d16565b9050919050565b600062001d6b8262001d72565b9050919050565b600062001d7f8262001d16565b9050919050565b82818337600083830152505050565b60005b8381101562001db557808201518184015260208101905062001d98565b8381111562001dc5576000848401525b50505050565b62001dd68262001e30565b810181811067ffffffffffffffff8211171562001df85762001df762001e01565b5b80604052505050565b7f4e487b7100000000000000000000000000000000000000000000000000000000600052604160045260246000fd5b6000601f19601f8301169050919050565b7f6f6e6c7941646d696e0000000000000000000000000000000000000000000000600082015250565b7f6e6f742045524337323100000000000000000000000000000000000000000000600082015250565b7f6465706f6c79656420616c726561647900000000000000000000000000000000600082015250565b7f6f6e6c7950656e64696e674f776e657200000000000000000000000000000000600082015250565b7f6f726967696e616c204e4654206973206e6f7420494552433439303700000000600082015250565b7f746865204e465420697320494552433439303720616c72656164790000000000600082015250565b7f6f6e6c794f776e65720000000000000000000000000000000000000000000000600082015250565b62001f6b8162001cca565b811462001f7757600080fd5b50565b62001f858162001cde565b811462001f9157600080fd5b5056fe60806040526040516200105d3803806200105d8339818101604052810190620000299190620005f1565b60017fa3f0ad74e5423aebfd80d3ef4346578335a9a72aeaee59ff6cb3582b35133d5160001c6200005b91906200086c565b60001b7fa3f0ad74e5423aebfd80d3ef4346578335a9a72aeaee59ff6cb3582b35133d5060001b14620000b7577f4e487b7100000000000000000000000000000000000000000000000000000000600052600160045260246000fd5b620000cb82826000620000d360201b60201c565b505062000ac7565b620000e483620001da60201b60201c565b8273ffffffffffffffffffffffffffffffffffffffff167f1cf3b03a6cf19fa2baba4df148e9dcabedea7f8a5c07840e207e5c089be95d3e60405160405180910390a2600082511180620001355750805b15620001d557620001d38373ffffffffffffffffffffffffffffffffffffffff16635c60da1b6040518163ffffffff1660e01b815260040160206040518083038186803b1580156200018657600080fd5b505afa1580156200019b573d6000803e3d6000fd5b505050506040513d601f19601f82011682018060405250810190620001c19190620005c5565b836200038960201b620000371760201c565b505b505050565b620001f081620003bf60201b620000641760201c565b62000232576040517f08c379a0000000000000000000000000000000000000000000000000000000008152600401620002299062000775565b60405180910390fd5b620002c98173ffffffffffffffffffffffffffffffffffffffff16635c60da1b6040518163ffffffff1660e01b815260040160206040518083038186803b1580156200027d57600080fd5b505afa15801562000292573d6000803e3d6000fd5b505050506040513d601f19601f82011682018060405250810190620002b89190620005c5565b620003bf60201b620000641760201c565b6200030b576040517f08c379a00000000000000000000000000000000000000000000000000000000081526004016200030290620007b9565b60405180910390fd5b80620003457fa3f0ad74e5423aebfd80d3ef4346578335a9a72aeaee59ff6cb3582b35133d5060001b620003e260201b620000871760201c565b60000160006101000a81548173ffffffffffffffffffffffffffffffffffffffff021916908373ffffffffffffffffffffffffffffffffffffffff16021790555050565b6060620003b783836040518060600160405280602781526020016200103660279139620003ec60201b60201c565b905092915050565b6000808273ffffffffffffffffffffffffffffffffffffffff163b119050919050565b6000819050919050565b6060620003ff84620003bf60201b60201c565b62000441576040517f08c379a0000000000000000000000000000000000000000000000000000000008152600401620004389062000797565b60405180910390fd5b6000808573ffffffffffffffffffffffffffffffffffffffff16856040516200046b919062000738565b600060405180830381855af49150503d8060008114620004a8576040519150601f19603f3d011682016040523d82523d6000602084013e620004ad565b606091505b5091509150620004c5828286620004d060201b60201c565b925050509392505050565b60608315620004e25782905062000535565b600083511115620004f65782518084602001fd5b816040517f08c379a00000000000000000000000000000000000000000000000000000000081526004016200052c919062000751565b60405180910390fd5b9392505050565b6000620005536200054d8462000804565b620007db565b9050828152602081018484840111156200056c57600080fd5b62000579848285620008e5565b509392505050565b600081519050620005928162000aad565b92915050565b600082601f830112620005aa57600080fd5b8151620005bc8482602086016200053c565b91505092915050565b600060208284031215620005d857600080fd5b6000620005e88482850162000581565b91505092915050565b600080604083850312156200060557600080fd5b6000620006158582860162000581565b925050602083015167ffffffffffffffff8111156200063357600080fd5b620006418582860162000598565b9150509250929050565b600062000658826200083a565b62000664818562000850565b935062000676818560208601620008e5565b80840191505092915050565b60006200068f8262000845565b6200069b81856200085b565b9350620006ad818560208601620008e5565b620006b881620009af565b840191505092915050565b6000620006d26025836200085b565b9150620006df82620009c0565b604082019050919050565b6000620006f96026836200085b565b9150620007068262000a0f565b604082019050919050565b6000620007206030836200085b565b91506200072d8262000a5e565b604082019050919050565b60006200074682846200064b565b915081905092915050565b600060208201905081810360008301526200076d818462000682565b905092915050565b600060208201905081810360008301526200079081620006c3565b9050919050565b60006020820190508181036000830152620007b281620006ea565b9050919050565b60006020820190508181036000830152620007d48162000711565b9050919050565b6000620007e7620007fa565b9050620007f582826200091b565b919050565b6000604051905090565b600067ffffffffffffffff82111562000822576200082162000980565b5b6200082d82620009af565b9050602081019050919050565b600081519050919050565b600081519050919050565b600081905092915050565b600082825260208201905092915050565b60006200087982620008db565b91506200088683620008db565b9250828210156200089c576200089b62000951565b5b828203905092915050565b6000620008b482620008bb565b9050919050565b600073ffffffffffffffffffffffffffffffffffffffff82169050919050565b6000819050919050565b60005b8381101562000905578082015181840152602081019050620008e8565b8381111562000915576000848401525b50505050565b6200092682620009af565b810181811067ffffffffffffffff8211171562000948576200094762000980565b5b80604052505050565b7f4e487b7100000000000000000000000000000000000000000000000000000000600052601160045260246000fd5b7f4e487b7100000000000000000000000000000000000000000000000000000000600052604160045260246000fd5b6000601f19601f8301169050919050565b7f455243313936373a206e657720626561636f6e206973206e6f74206120636f6e60008201527f7472616374000000000000000000000000000000000000000000000000000000602082015250565b7f416464726573733a2064656c65676174652063616c6c20746f206e6f6e2d636f60008201527f6e74726163740000000000000000000000000000000000000000000000000000602082015250565b7f455243313936373a20626561636f6e20696d706c656d656e746174696f6e206960008201527f73206e6f74206120636f6e747261637400000000000000000000000000000000602082015250565b62000ab881620008a7565b811462000ac457600080fd5b50565b61055f8062000ad76000396000f3fe6080604052366100135761001161001d565b005b61001b61001d565b005b610025610091565b610035610030610093565b61011f565b565b606061005c838360405180606001604052806027815260200161050360279139610145565b905092915050565b6000808273ffffffffffffffffffffffffffffffffffffffff163b119050919050565b6000819050919050565b565b600061009d610212565b73ffffffffffffffffffffffffffffffffffffffff16635c60da1b6040518163ffffffff1660e01b815260040160206040518083038186803b1580156100e257600080fd5b505afa1580156100f6573d6000803e3d6000fd5b505050506040513d601f19601f8201168201806040525081019061011a91906102e5565b905090565b3660008037600080366000845af43d6000803e8060008114610140573d6000f35b3d6000fd5b606061015084610064565b61018f576040517f08c379a0000000000000000000000000000000000000000000000000000000008152600401610186906103d4565b60405180910390fd5b6000808573ffffffffffffffffffffffffffffffffffffffff16856040516101b7919061039b565b600060405180830381855af49150503d80600081146101f2576040519150601f19603f3d011682016040523d82523d6000602084013e6101f7565b606091505b5091509150610207828286610269565b925050509392505050565b60006102407fa3f0ad74e5423aebfd80d3ef4346578335a9a72aeaee59ff6cb3582b35133d5060001b610087565b60000160009054906101000a900473ffffffffffffffffffffffffffffffffffffffff16905090565b60608315610279578290506102c9565b60008351111561028c5782518084602001fd5b816040517f08c379a00000000000000000000000000000000000000000000000000000000081526004016102c091906103b2565b60405180910390fd5b9392505050565b6000815190506102df816104eb565b92915050565b6000602082840312156102f757600080fd5b6000610305848285016102d0565b91505092915050565b6000610319826103f4565b610323818561040a565b9350610333818560208601610458565b80840191505092915050565b600061034a826103ff565b6103548185610415565b9350610364818560208601610458565b61036d8161048b565b840191505092915050565b6000610385602683610415565b91506103908261049c565b604082019050919050565b60006103a7828461030e565b915081905092915050565b600060208201905081810360008301526103cc818461033f565b905092915050565b600060208201905081810360008301526103ed81610378565b9050919050565b600081519050919050565b600081519050919050565b600081905092915050565b600082825260208201905092915050565b600061043182610438565b9050919050565b600073ffffffffffffffffffffffffffffffffffffffff82169050919050565b60005b8381101561047657808201518184015260208101905061045b565b83811115610485576000848401525b50505050565b6000601f19601f8301169050919050565b7f416464726573733a2064656c65676174652063616c6c20746f206e6f6e2d636f60008201527f6e74726163740000000000000000000000000000000000000000000000000000602082015250565b6104f481610426565b81146104ff57600080fd5b5056fe416464726573733a206c6f772d6c6576656c2064656c65676174652063616c6c206661696c6564a2646970667358221220fc2306d5a12e2e230c96f83ffcbb7f99ccf8203032720341acc4198300f04db964736f6c63430008040033416464726573733a206c6f772d6c6576656c2064656c65676174652063616c6c206661696c656460806040523480156200001157600080fd5b5060405162003cf238038062003cf28339818101604052810190620000379190620003bc565b8282818181600090805190602001906200005392919062000240565b5080600190805190602001906200006c92919062000240565b5050505050600073ffffffffffffffffffffffffffffffffffffffff16600760009054906101000a900473ffffffffffffffffffffffffffffffffffffffff1673ffffffffffffffffffffffffffffffffffffffff161462000105576040517f08c379a0000000000000000000000000000000000000000000000000000000008152600401620000fc90620004c0565b60405180910390fd5b8073ffffffffffffffffffffffffffffffffffffffff166301ffc9a77f80ac58cd000000000000000000000000000000000000000000000000000000006040518263ffffffff1660e01b8152600401620001609190620004a3565b60206040518083038186803b1580156200017957600080fd5b505afa1580156200018e573d6000803e3d6000fd5b505050506040513d601f19601f82011682018060405250810190620001b4919062000390565b620001f6576040517f08c379a0000000000000000000000000000000000000000000000000000000008152600401620001ed90620004e2565b60405180910390fd5b80600760006101000a81548173ffffffffffffffffffffffffffffffffffffffff021916908373ffffffffffffffffffffffffffffffffffffffff16021790555050505062000777565b8280546200024e9062000616565b90600052602060002090601f016020900481019282620002725760008555620002be565b82601f106200028d57805160ff1916838001178555620002be565b82800160010185558215620002be579182015b82811115620002bd578251825591602001919060010190620002a0565b5b509050620002cd9190620002d1565b5090565b5b80821115620002ec576000816000905550600101620002d2565b5090565b60006200030762000301846200052d565b62000504565b9050828152602081018484840111156200032057600080fd5b6200032d848285620005e0565b509392505050565b600081519050620003468162000743565b92915050565b6000815190506200035d816200075d565b92915050565b600082601f8301126200037557600080fd5b815162000387848260208601620002f0565b91505092915050565b600060208284031215620003a357600080fd5b6000620003b3848285016200034c565b91505092915050565b600080600060608486031215620003d257600080fd5b600084015167ffffffffffffffff811115620003ed57600080fd5b620003fb8682870162000363565b935050602084015167ffffffffffffffff8111156200041957600080fd5b620004278682870162000363565b92505060406200043a8682870162000335565b9150509250925092565b6200044f8162000594565b82525050565b600062000464600e8362000563565b91506200047182620006f1565b602082019050919050565b60006200048b600a8362000563565b915062000498826200071a565b602082019050919050565b6000602082019050620004ba600083018462000444565b92915050565b60006020820190508181036000830152620004db8162000455565b9050919050565b60006020820190508181036000830152620004fd816200047c565b9050919050565b60006200051062000523565b90506200051e82826200064c565b919050565b6000604051905090565b600067ffffffffffffffff8211156200054b576200054a620006b1565b5b6200055682620006e0565b9050602081019050919050565b600082825260208201905092915050565b60006200058182620005c0565b9050919050565b60008115159050919050565b60007fffffffff0000000000000000000000000000000000000000000000000000000082169050919050565b600073ffffffffffffffffffffffffffffffffffffffff82169050919050565b60005b8381101562000600578082015181840152602081019050620005e3565b8381111562000610576000848401525b50505050565b600060028204905060018216806200062f57607f821691505b6020821081141562000646576200064562000682565b5b50919050565b6200065782620006e0565b810181811067ffffffffffffffff82111715620006795762000678620006b1565b5b80604052505050565b7f4e487b7100000000000000000000000000000000000000000000000000000000600052602260045260246000fd5b7f4e487b7100000000000000000000000000000000000000000000000000000000600052604160045260246000fd5b6000601f19601f8301169050919050565b7f696e6974656420616c7265616479000000000000000000000000000000000000600082015250565b7f6e6f742045524337323100000000000000000000000000000000000000000000600082015250565b6200074e8162000574565b81146200075a57600080fd5b50565b620007688162000588565b81146200077457600080fd5b50565b61356b80620007876000396000f3fe608060405234801561001057600080fd5b50600436106101375760003560e01c80638fc88c48116100b8578063c2f1f14a1161007c578063c2f1f14a14610384578063c87b56dd146103b4578063cab416b4146103e4578063db006a7514610402578063e030565e1461041e578063e985e9c51461043a57610137565b80638fc88c48146102ce57806395d89b41146102fe578063a22cb4651461031c578063a694fc3a14610338578063b88d4fde1461036857610137565b806323b872dd116100ff57806323b872dd1461020657806342842e0e146102225780636352211e1461023e57806370a082311461026e57806373b64ac51461029e57610137565b806301ffc9a71461013c57806306fdde031461016c578063081812fc1461018a578063095ea7b3146101ba578063150b7a02146101d6575b600080fd5b610156600480360381019061015191906126f1565b61046a565b6040516101639190612b79565b60405180910390f35b61017461054c565b6040516101819190612bca565b60405180910390f35b6101a4600480360381019061019f9190612784565b6105de565b6040516101b19190612ab2565b60405180910390f35b6101d460048036038101906101cf919061268c565b610663565b005b6101f060048036038101906101eb9190612555565b61077b565b6040516101fd9190612b94565b60405180910390f35b610220600480360381019061021b9190612506565b610795565b005b61023c60048036038101906102379190612506565b6107f5565b005b61025860048036038101906102539190612784565b610815565b6040516102659190612ab2565b60405180910390f35b61028860048036038101906102839190612478565b6108c7565b6040516102959190612dac565b60405180910390f35b6102b860048036038101906102b39190612784565b61097f565b6040516102c59190612ab2565b60405180910390f35b6102e860048036038101906102e39190612784565b610a73565b6040516102f59190612dac565b60405180910390f35b610306610ab1565b6040516103139190612bca565b60405180910390f35b61033660048036038101906103319190612650565b610b43565b005b610352600480360381019061034d9190612784565b610b59565b60405161035f9190612dac565b60405180910390f35b610382600480360381019061037d91906125d5565b610d77565b005b61039e60048036038101906103999190612784565b610dd9565b6040516103ab9190612ab2565b60405180910390f35b6103ce60048036038101906103c99190612784565b610e5e565b6040516103db9190612bca565b60405180910390f35b6103ec610f17565b6040516103f99190612ab2565b60405180910390f35b61041c60048036038101906104179190612784565b610f41565b005b610438600480360381019061043391906127ad565b611093565b005b610454600480360381019061044f91906124ca565b6111b6565b6040516104619190612b79565b60405180910390f35b60007fb72080fb000000000000000000000000000000000000000000000000000000007bffffffffffffffffffffffffffffffffffffffffffffffffffffffff1916827bffffffffffffffffffffffffffffffffffffffffffffffffffffffff1916148061053557507fad092b5c000000000000000000000000000000000000000000000000000000007bffffffffffffffffffffffffffffffffffffffffffffffffffffffff1916827bffffffffffffffffffffffffffffffffffffffffffffffffffffffff1916145b8061054557506105448261124a565b5b9050919050565b60606000805461055b90613007565b80601f016020809104026020016040519081016040528092919081815260200182805461058790613007565b80156105d45780601f106105a9576101008083540402835291602001916105d4565b820191906000526020600020905b8154815290600101906020018083116105b757829003601f168201915b5050505050905090565b60006105e9826112c4565b610628576040517f08c379a000000000000000000000000000000000000000000000000000000000815260040161061f90612d2c565b60405180910390fd5b6004600083815260200190815260200160002060009054906101000a900473ffffffffffffffffffffffffffffffffffffffff169050919050565b600061066e82610815565b90508073ffffffffffffffffffffffffffffffffffffffff168373ffffffffffffffffffffffffffffffffffffffff1614156106df576040517f08c379a00000000000000000000000000000000000000000000000000000000081526004016106d690612d6c565b60405180910390fd5b8073ffffffffffffffffffffffffffffffffffffffff166106fe611330565b73ffffffffffffffffffffffffffffffffffffffff16148061072d575061072c81610727611330565b6111b6565b5b61076c576040517f08c379a000000000000000000000000000000000000000000000000000000000815260040161076390612cac565b60405180910390fd5b6107768383611338565b505050565b60008063150b7a0260e01b90508091505095945050505050565b6107a66107a0611330565b826113f1565b6107e5576040517f08c379a00000000000000000000000000000000000000000000000000000000081526004016107dc90612d8c565b60405180910390fd5b6107f08383836114cf565b505050565b61081083838360405180602001604052806000815250610d77565b505050565b6000806002600084815260200190815260200160002060009054906101000a900473ffffffffffffffffffffffffffffffffffffffff169050600073ffffffffffffffffffffffffffffffffffffffff168173ffffffffffffffffffffffffffffffffffffffff1614156108be576040517f08c379a00000000000000000000000000000000000000000000000000000000081526004016108b590612cec565b60405180910390fd5b80915050919050565b60008073ffffffffffffffffffffffffffffffffffffffff168273ffffffffffffffffffffffffffffffffffffffff161415610938576040517f08c379a000000000000000000000000000000000000000000000000000000000815260040161092f90612ccc565b60405180910390fd5b600360008373ffffffffffffffffffffffffffffffffffffffff1673ffffffffffffffffffffffffffffffffffffffff168152602001908152602001600020549050919050565b6000600760009054906101000a900473ffffffffffffffffffffffffffffffffffffffff1673ffffffffffffffffffffffffffffffffffffffff16636352211e836040518263ffffffff1660e01b81526004016109dc9190612dac565b60206040518083038186803b1580156109f457600080fd5b505afa158015610a08573d6000803e3d6000fd5b505050506040513d601f19601f82011682018060405250810190610a2c91906124a1565b90503073ffffffffffffffffffffffffffffffffffffffff168173ffffffffffffffffffffffffffffffffffffffff161415610a6e57610a6b82610815565b90505b919050565b60006006600083815260200190815260200160002060000160149054906101000a900467ffffffffffffffff1667ffffffffffffffff169050919050565b606060018054610ac090613007565b80601f0160208091040260200160405190810160405280929190818152602001828054610aec90613007565b8015610b395780601f10610b0e57610100808354040283529160200191610b39565b820191906000526020600020905b815481529060010190602001808311610b1c57829003601f168201915b5050505050905090565b610b55610b4e611330565b8383611736565b5050565b6000610b8833600760009054906101000a900473ffffffffffffffffffffffffffffffffffffffff16846118a3565b610bc7576040517f08c379a0000000000000000000000000000000000000000000000000000000008152600401610bbe90612d4c565b60405180910390fd5b6000600760009054906101000a900473ffffffffffffffffffffffffffffffffffffffff1673ffffffffffffffffffffffffffffffffffffffff16636352211e846040518263ffffffff1660e01b8152600401610c249190612dac565b60206040518083038186803b158015610c3c57600080fd5b505afa158015610c50573d6000803e3d6000fd5b505050506040513d601f19601f82011682018060405250810190610c7491906124a1565b9050600760009054906101000a900473ffffffffffffffffffffffffffffffffffffffff1673ffffffffffffffffffffffffffffffffffffffff166342842e0e8230866040518463ffffffff1660e01b8152600401610cd593929190612af6565b600060405180830381600087803b158015610cef57600080fd5b505af1158015610d03573d6000803e3d6000fd5b50505050610d118184611b2a565b7f99039fcf0a98f484616c5196ee8b2ecfa971babf0b519848289ea4db381f85f733600760009054906101000a900473ffffffffffffffffffffffffffffffffffffffff1685604051610d6693929190612af6565b60405180910390a182915050919050565b610d88610d82611330565b836113f1565b610dc7576040517f08c379a0000000000000000000000000000000000000000000000000000000008152600401610dbe90612d8c565b60405180910390fd5b610dd384848484611d04565b50505050565b6000426006600084815260200190815260200160002060000160149054906101000a900467ffffffffffffffff1667ffffffffffffffff1610610e54576006600083815260200190815260200160002060000160009054906101000a900473ffffffffffffffffffffffffffffffffffffffff169050610e59565b600090505b919050565b6060600760009054906101000a900473ffffffffffffffffffffffffffffffffffffffff1673ffffffffffffffffffffffffffffffffffffffff1663c87b56dd836040518263ffffffff1660e01b8152600401610ebb9190612dac565b60006040518083038186803b158015610ed357600080fd5b505afa158015610ee7573d6000803e3d6000fd5b505050506040513d6000823e3d601f19601f82011682018060405250810190610f109190612743565b9050919050565b6000600760009054906101000a900473ffffffffffffffffffffffffffffffffffffffff16905090565b610f52610f4c611330565b826113f1565b610f91576040517f08c379a0000000000000000000000000000000000000000000000000000000008152600401610f8890612d8c565b60405180910390fd5b600760009054906101000a900473ffffffffffffffffffffffffffffffffffffffff1673ffffffffffffffffffffffffffffffffffffffff166342842e0e30610fd984610815565b846040518463ffffffff1660e01b8152600401610ff893929190612af6565b600060405180830381600087803b15801561101257600080fd5b505af1158015611026573d6000803e3d6000fd5b5050505061103381611d60565b7fd12200efa34901b99367694174c3b0d32c99585fdf37c7c26892136ddd0836d933600760009054906101000a900473ffffffffffffffffffffffffffffffffffffffff168360405161108893929190612af6565b60405180910390a150565b61109d33846113f1565b6110dc576040517f08c379a00000000000000000000000000000000000000000000000000000000081526004016110d390612d8c565b60405180910390fd5b6000600660008581526020019081526020016000209050828160000160006101000a81548173ffffffffffffffffffffffffffffffffffffffff021916908373ffffffffffffffffffffffffffffffffffffffff160217905550818160000160146101000a81548167ffffffffffffffff021916908367ffffffffffffffff1602179055508273ffffffffffffffffffffffffffffffffffffffff16847f4e06b4e7000e659094299b3533b47b6aa8ad048e95e872d23d1f4ee55af89cfe846040516111a89190612dc7565b60405180910390a350505050565b6000600560008473ffffffffffffffffffffffffffffffffffffffff1673ffffffffffffffffffffffffffffffffffffffff16815260200190815260200160002060008373ffffffffffffffffffffffffffffffffffffffff1673ffffffffffffffffffffffffffffffffffffffff16815260200190815260200160002060009054906101000a900460ff16905092915050565b60007fad092b5c000000000000000000000000000000000000000000000000000000007bffffffffffffffffffffffffffffffffffffffffffffffffffffffff1916827bffffffffffffffffffffffffffffffffffffffffffffffffffffffff191614806112bd57506112bc82611e7d565b5b9050919050565b60008073ffffffffffffffffffffffffffffffffffffffff166002600084815260200190815260200160002060009054906101000a900473ffffffffffffffffffffffffffffffffffffffff1673ffffffffffffffffffffffffffffffffffffffff1614159050919050565b600033905090565b816004600083815260200190815260200160002060006101000a81548173ffffffffffffffffffffffffffffffffffffffff021916908373ffffffffffffffffffffffffffffffffffffffff160217905550808273ffffffffffffffffffffffffffffffffffffffff166113ab83610815565b73ffffffffffffffffffffffffffffffffffffffff167f8c5be1e5ebec7d5bd14f71427d1e84f3dd0314c0f7b2291e5b200ac8c7c3b92560405160405180910390a45050565b60006113fc826112c4565b61143b576040517f08c379a000000000000000000000000000000000000000000000000000000000815260040161143290612c8c565b60405180910390fd5b600061144683610815565b90508073ffffffffffffffffffffffffffffffffffffffff168473ffffffffffffffffffffffffffffffffffffffff161480611488575061148781856111b6565b5b806114c657508373ffffffffffffffffffffffffffffffffffffffff166114ae846105de565b73ffffffffffffffffffffffffffffffffffffffff16145b91505092915050565b8273ffffffffffffffffffffffffffffffffffffffff166114ef82610815565b73ffffffffffffffffffffffffffffffffffffffff1614611545576040517f08c379a000000000000000000000000000000000000000000000000000000000815260040161153c90612c0c565b60405180910390fd5b600073ffffffffffffffffffffffffffffffffffffffff168273ffffffffffffffffffffffffffffffffffffffff1614156115b5576040517f08c379a00000000000000000000000000000000000000000000000000000000081526004016115ac90612c4c565b60405180910390fd5b6115c0838383611f5f565b6115cb600082611338565b6001600360008573ffffffffffffffffffffffffffffffffffffffff1673ffffffffffffffffffffffffffffffffffffffff168152602001908152602001600020600082825461161b9190612ef7565b925050819055506001600360008473ffffffffffffffffffffffffffffffffffffffff1673ffffffffffffffffffffffffffffffffffffffff16815260200190815260200160002060008282546116729190612ea1565b92505081905550816002600083815260200190815260200160002060006101000a81548173ffffffffffffffffffffffffffffffffffffffff021916908373ffffffffffffffffffffffffffffffffffffffff160217905550808273ffffffffffffffffffffffffffffffffffffffff168473ffffffffffffffffffffffffffffffffffffffff167fddf252ad1be2c89b69c2b068fc378daa952ba7f163c4a11628f55a4df523b3ef60405160405180910390a4611731838383612088565b505050565b8173ffffffffffffffffffffffffffffffffffffffff168373ffffffffffffffffffffffffffffffffffffffff1614156117a5576040517f08c379a000000000000000000000000000000000000000000000000000000000815260040161179c90612c6c565b60405180910390fd5b80600560008573ffffffffffffffffffffffffffffffffffffffff1673ffffffffffffffffffffffffffffffffffffffff16815260200190815260200160002060008473ffffffffffffffffffffffffffffffffffffffff1673ffffffffffffffffffffffffffffffffffffffff16815260200190815260200160002060006101000a81548160ff0219169083151502179055508173ffffffffffffffffffffffffffffffffffffffff168373ffffffffffffffffffffffffffffffffffffffff167f17307eab39ab6107e8899845ad3d59bd9653f200f220920489ca2b5937696c31836040516118969190612b79565b60405180910390a3505050565b6000808373ffffffffffffffffffffffffffffffffffffffff16636352211e846040518263ffffffff1660e01b81526004016118df9190612dac565b60206040518083038186803b1580156118f757600080fd5b505afa15801561190b573d6000803e3d6000fd5b505050506040513d601f19601f8201168201806040525081019061192f91906124a1565b9050600073ffffffffffffffffffffffffffffffffffffffff168173ffffffffffffffffffffffffffffffffffffffff1614156119a1576040517f08c379a000000000000000000000000000000000000000000000000000000000815260040161199890612c8c565b60405180910390fd5b8073ffffffffffffffffffffffffffffffffffffffff168573ffffffffffffffffffffffffffffffffffffffff161480611a8e57508473ffffffffffffffffffffffffffffffffffffffff168473ffffffffffffffffffffffffffffffffffffffff1663081812fc856040518263ffffffff1660e01b8152600401611a269190612dac565b60206040518083038186803b158015611a3e57600080fd5b505afa158015611a52573d6000803e3d6000fd5b505050506040513d601f19601f82011682018060405250810190611a7691906124a1565b73ffffffffffffffffffffffffffffffffffffffff16145b80611b2057508373ffffffffffffffffffffffffffffffffffffffff1663e985e9c582876040518363ffffffff1660e01b8152600401611acf929190612acd565b60206040518083038186803b158015611ae757600080fd5b505afa158015611afb573d6000803e3d6000fd5b505050506040513d601f19601f82011682018060405250810190611b1f91906126c8565b5b9150509392505050565b600073ffffffffffffffffffffffffffffffffffffffff168273ffffffffffffffffffffffffffffffffffffffff161415611b9a576040517f08c379a0000000000000000000000000000000000000000000000000000000008152600401611b9190612d0c565b60405180910390fd5b611ba3816112c4565b15611be3576040517f08c379a0000000000000000000000000000000000000000000000000000000008152600401611bda90612c2c565b60405180910390fd5b611bef60008383611f5f565b6001600360008473ffffffffffffffffffffffffffffffffffffffff1673ffffffffffffffffffffffffffffffffffffffff1681526020019081526020016000206000828254611c3f9190612ea1565b92505081905550816002600083815260200190815260200160002060006101000a81548173ffffffffffffffffffffffffffffffffffffffff021916908373ffffffffffffffffffffffffffffffffffffffff160217905550808273ffffffffffffffffffffffffffffffffffffffff16600073ffffffffffffffffffffffffffffffffffffffff167fddf252ad1be2c89b69c2b068fc378daa952ba7f163c4a11628f55a4df523b3ef60405160405180910390a4611d0060008383612088565b5050565b611d0f8484846114cf565b611d1b8484848461208d565b611d5a576040517f08c379a0000000000000000000000000000000000000000000000000000000008152600401611d5190612bec565b60405180910390fd5b50505050565b6000611d6b82610815565b9050611d7981600084611f5f565b611d84600083611338565b6001600360008373ffffffffffffffffffffffffffffffffffffffff1673ffffffffffffffffffffffffffffffffffffffff1681526020019081526020016000206000828254611dd49190612ef7565b925050819055506002600083815260200190815260200160002060006101000a81549073ffffffffffffffffffffffffffffffffffffffff021916905581600073ffffffffffffffffffffffffffffffffffffffff168273ffffffffffffffffffffffffffffffffffffffff167fddf252ad1be2c89b69c2b068fc378daa952ba7f163c4a11628f55a4df523b3ef60405160405180910390a4611e7981600084612088565b5050565b60007f80ac58cd000000000000000000000000000000000000000000000000000000007bffffffffffffffffffffffffffffffffffffffffffffffffffffffff1916827bffffffffffffffffffffffffffffffffffffffffffffffffffffffff19161480611f4857507f5b5e139f000000000000000000000000000000000000000000000000000000007bffffffffffffffffffffffffffffffffffffffffffffffffffffffff1916827bffffffffffffffffffffffffffffffffffffffffffffffffffffffff1916145b80611f585750611f5782612224565b5b9050919050565b611f6a83838361228e565b8173ffffffffffffffffffffffffffffffffffffffff168373ffffffffffffffffffffffffffffffffffffffff16146120835760006006600083815260200190815260200160002060000160006101000a81548173ffffffffffffffffffffffffffffffffffffffff021916908373ffffffffffffffffffffffffffffffffffffffff16021790555060006006600083815260200190815260200160002060000160146101000a81548167ffffffffffffffff021916908367ffffffffffffffff160217905550600073ffffffffffffffffffffffffffffffffffffffff16817f4e06b4e7000e659094299b3533b47b6aa8ad048e95e872d23d1f4ee55af89cfe600060405161207a9190612baf565b60405180910390a35b505050565b505050565b60006120ae8473ffffffffffffffffffffffffffffffffffffffff16612293565b15612217578373ffffffffffffffffffffffffffffffffffffffff1663150b7a026120d7611330565b8786866040518563ffffffff1660e01b81526004016120f99493929190612b2d565b602060405180830381600087803b15801561211357600080fd5b505af192505050801561214457506040513d601f19601f82011682018060405250810190612141919061271a565b60015b6121c7573d8060008114612174576040519150601f19603f3d011682016040523d82523d6000602084013e612179565b606091505b506000815114156121bf576040517f08c379a00000000000000000000000000000000000000000000000000000000081526004016121b690612bec565b60405180910390fd5b805181602001fd5b63150b7a0260e01b7bffffffffffffffffffffffffffffffffffffffffffffffffffffffff1916817bffffffffffffffffffffffffffffffffffffffffffffffffffffffff19161491505061221c565b600190505b949350505050565b60007f01ffc9a7000000000000000000000000000000000000000000000000000000007bffffffffffffffffffffffffffffffffffffffffffffffffffffffff1916827bffffffffffffffffffffffffffffffffffffffffffffffffffffffff1916149050919050565b505050565b6000808273ffffffffffffffffffffffffffffffffffffffff163b119050919050565b60006122c96122c484612e07565b612de2565b9050828152602081018484840111156122e157600080fd5b6122ec848285612fc5565b509392505050565b600061230761230284612e38565b612de2565b90508281526020810184848401111561231f57600080fd5b61232a848285612fd4565b509392505050565b600081359050612341816134c2565b92915050565b600081519050612356816134c2565b92915050565b60008135905061236b816134d9565b92915050565b600081519050612380816134d9565b92915050565b600081359050612395816134f0565b92915050565b6000815190506123aa816134f0565b92915050565b60008083601f8401126123c257600080fd5b8235905067ffffffffffffffff8111156123db57600080fd5b6020830191508360018202830111156123f357600080fd5b9250929050565b600082601f83011261240b57600080fd5b813561241b8482602086016122b6565b91505092915050565b600082601f83011261243557600080fd5b81516124458482602086016122f4565b91505092915050565b60008135905061245d81613507565b92915050565b6000813590506124728161351e565b92915050565b60006020828403121561248a57600080fd5b600061249884828501612332565b91505092915050565b6000602082840312156124b357600080fd5b60006124c184828501612347565b91505092915050565b600080604083850312156124dd57600080fd5b60006124eb85828601612332565b92505060206124fc85828601612332565b9150509250929050565b60008060006060848603121561251b57600080fd5b600061252986828701612332565b935050602061253a86828701612332565b925050604061254b8682870161244e565b9150509250925092565b60008060008060006080868803121561256d57600080fd5b600061257b88828901612332565b955050602061258c88828901612332565b945050604061259d8882890161244e565b935050606086013567ffffffffffffffff8111156125ba57600080fd5b6125c6888289016123b0565b92509250509295509295909350565b600080600080608085870312156125eb57600080fd5b60006125f987828801612332565b945050602061260a87828801612332565b935050604061261b8782880161244e565b925050606085013567ffffffffffffffff81111561263857600080fd5b612644878288016123fa565b91505092959194509250565b6000806040838503121561266357600080fd5b600061267185828601612332565b92505060206126828582860161235c565b9150509250929050565b6000806040838503121561269f57600080fd5b60006126ad85828601612332565b92505060206126be8582860161244e565b9150509250929050565b6000602082840312156126da57600080fd5b60006126e884828501612371565b91505092915050565b60006020828403121561270357600080fd5b600061271184828501612386565b91505092915050565b60006020828403121561272c57600080fd5b600061273a8482850161239b565b91505092915050565b60006020828403121561275557600080fd5b600082015167ffffffffffffffff81111561276f57600080fd5b61277b84828501612424565b91505092915050565b60006020828403121561279657600080fd5b60006127a48482850161244e565b91505092915050565b6000806000606084860312156127c257600080fd5b60006127d08682870161244e565b93505060206127e186828701612332565b92505060406127f286828701612463565b9150509250925092565b61280581612f2b565b82525050565b61281481612f3d565b82525050565b61282381612f49565b82525050565b600061283482612e69565b61283e8185612e7f565b935061284e818560208601612fd4565b612857816130f7565b840191505092915050565b61286b81612fb3565b82525050565b600061287c82612e74565b6128868185612e90565b9350612896818560208601612fd4565b61289f816130f7565b840191505092915050565b60006128b7603283612e90565b91506128c282613108565b604082019050919050565b60006128da602583612e90565b91506128e582613157565b604082019050919050565b60006128fd601c83612e90565b9150612908826131a6565b602082019050919050565b6000612920602483612e90565b915061292b826131cf565b604082019050919050565b6000612943601983612e90565b915061294e8261321e565b602082019050919050565b6000612966602c83612e90565b915061297182613247565b604082019050919050565b6000612989603883612e90565b915061299482613296565b604082019050919050565b60006129ac602a83612e90565b91506129b7826132e5565b604082019050919050565b60006129cf602983612e90565b91506129da82613334565b604082019050919050565b60006129f2602083612e90565b91506129fd82613383565b602082019050919050565b6000612a15602c83612e90565b9150612a20826133ac565b604082019050919050565b6000612a38601683612e90565b9150612a43826133fb565b602082019050919050565b6000612a5b602183612e90565b9150612a6682613424565b604082019050919050565b6000612a7e603183612e90565b9150612a8982613473565b604082019050919050565b612a9d81612f95565b82525050565b612aac81612f9f565b82525050565b6000602082019050612ac760008301846127fc565b92915050565b6000604082019050612ae260008301856127fc565b612aef60208301846127fc565b9392505050565b6000606082019050612b0b60008301866127fc565b612b1860208301856127fc565b612b256040830184612a94565b949350505050565b6000608082019050612b4260008301876127fc565b612b4f60208301866127fc565b612b5c6040830185612a94565b8181036060830152612b6e8184612829565b905095945050505050565b6000602082019050612b8e600083018461280b565b92915050565b6000602082019050612ba9600083018461281a565b92915050565b6000602082019050612bc46000830184612862565b92915050565b60006020820190508181036000830152612be48184612871565b905092915050565b60006020820190508181036000830152612c05816128aa565b9050919050565b60006020820190508181036000830152612c25816128cd565b9050919050565b60006020820190508181036000830152612c45816128f0565b9050919050565b60006020820190508181036000830152612c6581612913565b9050919050565b60006020820190508181036000830152612c8581612936565b9050919050565b60006020820190508181036000830152612ca581612959565b9050919050565b60006020820190508181036000830152612cc58161297c565b9050919050565b60006020820190508181036000830152612ce58161299f565b9050919050565b60006020820190508181036000830152612d05816129c2565b9050919050565b60006020820190508181036000830152612d25816129e5565b9050919050565b60006020820190508181036000830152612d4581612a08565b9050919050565b60006020820190508181036000830152612d6581612a2b565b9050919050565b60006020820190508181036000830152612d8581612a4e565b9050919050565b60006020820190508181036000830152612da581612a71565b9050919050565b6000602082019050612dc16000830184612a94565b92915050565b6000602082019050612ddc6000830184612aa3565b92915050565b6000612dec612dfd565b9050612df88282613039565b919050565b6000604051905090565b600067ffffffffffffffff821115612e2257612e216130c8565b5b612e2b826130f7565b9050602081019050919050565b600067ffffffffffffffff821115612e5357612e526130c8565b5b612e5c826130f7565b9050602081019050919050565b600081519050919050565b600081519050919050565b600082825260208201905092915050565b600082825260208201905092915050565b6000612eac82612f95565b9150612eb783612f95565b9250827fffffffffffffffffffffffffffffffffffffffffffffffffffffffffffffffff03821115612eec57612eeb61306a565b5b828201905092915050565b6000612f0282612f95565b9150612f0d83612f95565b925082821015612f2057612f1f61306a565b5b828203905092915050565b6000612f3682612f75565b9050919050565b60008115159050919050565b60007fffffffff0000000000000000000000000000000000000000000000000000000082169050919050565b600073ffffffffffffffffffffffffffffffffffffffff82169050919050565b6000819050919050565b600067ffffffffffffffff82169050919050565b6000612fbe82612f9f565b9050919050565b82818337600083830152505050565b60005b83811015612ff2578082015181840152602081019050612fd7565b83811115613001576000848401525b50505050565b6000600282049050600182168061301f57607f821691505b6020821081141561303357613032613099565b5b50919050565b613042826130f7565b810181811067ffffffffffffffff82111715613061576130606130c8565b5b80604052505050565b7f4e487b7100000000000000000000000000000000000000000000000000000000600052601160045260246000fd5b7f4e487b7100000000000000000000000000000000000000000000000000000000600052602260045260246000fd5b7f4e487b7100000000000000000000000000000000000000000000000000000000600052604160045260246000fd5b6000601f19601f8301169050919050565b7f4552433732313a207472616e7366657220746f206e6f6e20455243373231526560008201527f63656976657220696d706c656d656e7465720000000000000000000000000000602082015250565b7f4552433732313a207472616e736665722066726f6d20696e636f72726563742060008201527f6f776e6572000000000000000000000000000000000000000000000000000000602082015250565b7f4552433732313a20746f6b656e20616c7265616479206d696e74656400000000600082015250565b7f4552433732313a207472616e7366657220746f20746865207a65726f2061646460008201527f7265737300000000000000000000000000000000000000000000000000000000602082015250565b7f4552433732313a20617070726f766520746f2063616c6c657200000000000000600082015250565b7f4552433732313a206f70657261746f7220717565727920666f72206e6f6e657860008201527f697374656e7420746f6b656e0000000000000000000000000000000000000000602082015250565b7f4552433732313a20617070726f76652063616c6c6572206973206e6f74206f7760008201527f6e6572206e6f7220617070726f76656420666f7220616c6c0000000000000000602082015250565b7f4552433732313a2062616c616e636520717565727920666f7220746865207a6560008201527f726f206164647265737300000000000000000000000000000000000000000000602082015250565b7f4552433732313a206f776e657220717565727920666f72206e6f6e657869737460008201527f656e7420746f6b656e0000000000000000000000000000000000000000000000602082015250565b7f4552433732313a206d696e7420746f20746865207a65726f2061646472657373600082015250565b7f4552433732313a20617070726f76656420717565727920666f72206e6f6e657860008201527f697374656e7420746f6b656e0000000000000000000000000000000000000000602082015250565b7f6f6e6c7920617070726f766564206f72206f776e657200000000000000000000600082015250565b7f4552433732313a20617070726f76616c20746f2063757272656e74206f776e6560008201527f7200000000000000000000000000000000000000000000000000000000000000602082015250565b7f4552433732313a207472616e736665722063616c6c6572206973206e6f74206f60008201527f776e6572206e6f7220617070726f766564000000000000000000000000000000602082015250565b6134cb81612f2b565b81146134d657600080fd5b50565b6134e281612f3d565b81146134ed57600080fd5b50565b6134f981612f49565b811461350457600080fd5b50565b61351081612f95565b811461351b57600080fd5b50565b61352781612f9f565b811461353257600080fd5b5056fea2646970667358221220147014278a86d0070884bb0f2dbd60e8a750078e9bcaee13faf03321b6367aa664736f6c63430008040033a2646970667358221220fc730eb573e5cb569668a4efd36dde4eef4d08b4c8b0a5640d93d05c9eb62e2c64736f6c63430008040033",
  "linkReferences": {},
  "deployedLinkReferences": {}
}