{
  "_format": "hh-sol-artifact-1",
  "contractName": "doNft",
  "sourceName": "contracts/doNFT/doNft.sol",
  "abi": [
    {
      "anonymous": false,
      "inputs": [
        {
          "indexed": true,
          "internalType": "address",
          "name": "owner",
          "type": "address"
        },
        {
          "indexed": true,
          "internalType": "address",
          "name": "approved",
          "type": "address"
        },
        {
          "indexed": true,
          "internalType": "uint256",
          "name": "tokenId",
          "type": "uint256"
        }
      ],
      "name": "Approval",
      "type": "event"
    },
    {
      "anonymous": false,
      "inputs": [
        {
          "indexed": true,
          "internalType": "address",
          "name": "owner",
          "type": "address"
        },
        {
          "indexed": true,
          "internalType": "address",
          "name": "operator",
          "type": "address"
        },
        {
          "indexed": false,
          "internalType": "bool",
          "name": "approved",
          "type": "bool"
        }
      ],
      "name": "ApprovalForAll",
      "type": "event"
    },
    {
      "anonymous": false,
      "inputs": [
        {
          "indexed": false,
          "internalType": "address",
          "name": "opreator",
          "type": "address"
        },
        {
          "indexed": false,
          "internalType": "address",
          "name": "to",
          "type": "address"
        },
        {
          "indexed": false,
          "internalType": "uint256",
          "name": "tokenId",
          "type": "uint256"
        },
        {
          "indexed": false,
          "internalType": "uint256",
          "name": "durationId",
          "type": "uint256"
        },
        {
          "indexed": false,
          "internalType": "uint256",
          "name": "oid",
          "type": "uint256"
        },
        {
          "indexed": false,
          "internalType": "uint64",
          "name": "expires",
          "type": "uint64"
        }
      ],
      "name": "CheckIn",
      "type": "event"
    },
    {
      "anonymous": false,
      "inputs": [
        {
          "indexed": false,
          "internalType": "uint256[]",
          "name": "durationIdList",
          "type": "uint256[]"
        }
      ],
      "name": "DurationBurn",
      "type": "event"
    },
    {
      "anonymous": false,
      "inputs": [
        {
          "indexed": false,
          "internalType": "uint256",
          "name": "durationId",
          "type": "uint256"
        },
        {
          "indexed": false,
          "internalType": "uint256",
          "name": "tokenId",
          "type": "uint256"
        },
        {
          "indexed": false,
          "internalType": "uint64",
          "name": "start",
          "type": "uint64"
        },
        {
          "indexed": false,
          "internalType": "uint64",
          "name": "end",
          "type": "uint64"
        }
      ],
      "name": "DurationUpdate",
      "type": "event"
    },
    {
      "anonymous": false,
      "inputs": [
        {
          "indexed": false,
          "internalType": "uint8",
          "name": "version",
          "type": "uint8"
        }
      ],
      "name": "Initialized",
      "type": "event"
    },
    {
      "anonymous": false,
      "inputs": [
        {
          "indexed": false,
          "internalType": "uint256",
          "name": "tokenId",
          "type": "uint256"
        }
      ],
      "name": "MetadataUpdate",
      "type": "event"
    },
    {
      "anonymous": false,
      "inputs": [
        {
          "indexed": false,
          "internalType": "address",
          "name": "oldAdmin",
          "type": "address"
        },
        {
          "indexed": false,
          "internalType": "address",
          "name": "newAdmin",
          "type": "address"
        }
      ],
      "name": "NewAdmin",
      "type": "event"
    },
    {
      "anonymous": false,
      "inputs": [
        {
          "indexed": false,
          "internalType": "address",
          "name": "oldOwner",
          "type": "address"
        },
        {
          "indexed": false,
          "internalType": "address",
          "name": "newOwner",
          "type": "address"
        }
      ],
      "name": "NewOwner",
      "type": "event"
    },
    {
      "anonymous": false,
      "inputs": [
        {
          "indexed": false,
          "internalType": "address",
          "name": "oldPendingOwner",
          "type": "address"
        },
        {
          "indexed": false,
          "internalType": "address",
          "name": "newPendingOwner",
          "type": "address"
        }
      ],
      "name": "NewPendingOwner",
      "type": "event"
    },
    {
      "anonymous": false,
      "inputs": [
        {
          "indexed": false,
          "internalType": "uint256",
          "name": "oid",
          "type": "uint256"
        },
        {
          "indexed": false,
          "internalType": "uint256",
          "name": "tokenId",
          "type": "uint256"
        }
      ],
      "name": "Redeem",
      "type": "event"
    },
    {
      "anonymous": false,
      "inputs": [
        {
          "indexed": true,
          "internalType": "address",
          "name": "from",
          "type": "address"
        },
        {
          "indexed": true,
          "internalType": "address",
          "name": "to",
          "type": "address"
        },
        {
          "indexed": true,
          "internalType": "uint256",
          "name": "tokenId",
          "type": "uint256"
        }
      ],
      "name": "Transfer",
      "type": "event"
    },
    {
      "inputs": [],
      "name": "acceptOwner",
      "outputs": [],
      "stateMutability": "nonpayable",
      "type": "function"
    },
    {
      "inputs": [],
      "name": "admin",
      "outputs": [
        {
          "internalType": "address",
          "name": "",
          "type": "address"
        }
      ],
      "stateMutability": "view",
      "type": "function"
    },
    {
      "inputs": [
        {
          "internalType": "address",
          "name": "to",
          "type": "address"
        },
        {
          "internalType": "uint256",
          "name": "tokenId",
          "type": "uint256"
        }
      ],
      "name": "approve",
      "outputs": [],
      "stateMutability": "nonpayable",
      "type": "function"
    },
    {
      "inputs": [
        {
          "internalType": "address",
          "name": "owner",
          "type": "address"
        }
      ],
      "name": "balanceOf",
      "outputs": [
        {
          "internalType": "uint256",
          "name": "",
          "type": "uint256"
        }
      ],
      "stateMutability": "view",
      "type": "function"
    },
    {
      "inputs": [
        {
          "internalType": "address",
          "name": "to",
          "type": "address"
        },
        {
          "internalType": "uint256",
          "name": "tokenId",
          "type": "uint256"
        },
        {
          "internalType": "uint256",
          "name": "durationId",
          "type": "uint256"
        }
      ],
      "name": "checkIn",
      "outputs": [],
      "stateMutability": "nonpayable",
      "type": "function"
    },
    {
      "inputs": [
        {
          "internalType": "uint256",
          "name": "tokenId",
          "type": "uint256"
        },
        {
          "internalType": "uint256[]",
          "name": "durationIds",
          "type": "uint256[]"
        }
      ],
      "name": "couldRedeem",
      "outputs": [
        {
          "internalType": "bool",
          "name": "",
          "type": "bool"
        }
      ],
      "stateMutability": "view",
      "type": "function"
    },
    {
      "inputs": [],
      "name": "curDoid",
      "outputs": [
        {
          "internalType": "uint256",
          "name": "",
          "type": "uint256"
        }
      ],
      "stateMutability": "view",
      "type": "function"
    },
    {
      "inputs": [],
      "name": "curDurationId",
      "outputs": [
        {
          "internalType": "uint256",
          "name": "",
          "type": "uint256"
        }
      ],
      "stateMutability": "view",
      "type": "function"
    },
    {
      "inputs": [
        {
          "internalType": "uint256",
          "name": "tokenId",
          "type": "uint256"
        }
      ],
      "name": "exists",
      "outputs": [
        {
          "internalType": "bool",
          "name": "",
          "type": "bool"
        }
      ],
      "stateMutability": "view",
      "type": "function"
    },
    {
      "inputs": [
        {
          "internalType": "uint256",
          "name": "tokenId",
          "type": "uint256"
        }
      ],
      "name": "getApproved",
      "outputs": [
        {
          "internalType": "address",
          "name": "",
          "type": "address"
        }
      ],
      "stateMutability": "view",
      "type": "function"
    },
    {
      "inputs": [
        {
          "internalType": "uint256",
          "name": "tokenId",
          "type": "uint256"
        }
      ],
      "name": "getDoNftInfo",
      "outputs": [
        {
          "internalType": "uint256",
          "name": "oid",
          "type": "uint256"
        },
        {
          "internalType": "uint256[]",
          "name": "durationIds",
          "type": "uint256[]"
        },
        {
          "internalType": "uint64[]",
          "name": "starts",
          "type": "uint64[]"
        },
        {
          "internalType": "uint64[]",
          "name": "ends",
          "type": "uint64[]"
        },
        {
          "internalType": "uint64",
          "name": "nonce",
          "type": "uint64"
        }
      ],
      "stateMutability": "view",
      "type": "function"
    },
    {
      "inputs": [
        {
          "internalType": "uint256",
          "name": "durationId",
          "type": "uint256"
        }
      ],
      "name": "getDuration",
      "outputs": [
        {
          "internalType": "uint64",
          "name": "",
          "type": "uint64"
        },
        {
          "internalType": "uint64",
          "name": "",
          "type": "uint64"
        }
      ],
      "stateMutability": "view",
      "type": "function"
    },
    {
      "inputs": [
        {
          "internalType": "uint256",
          "name": "tokenId",
          "type": "uint256"
        },
        {
          "internalType": "uint256",
          "name": "index",
          "type": "uint256"
        }
      ],
      "name": "getDurationByIndex",
      "outputs": [
        {
          "internalType": "uint256",
          "name": "durationId",
          "type": "uint256"
        },
        {
          "internalType": "uint64",
          "name": "start",
          "type": "uint64"
        },
        {
          "internalType": "uint64",
          "name": "end",
          "type": "uint64"
        }
      ],
      "stateMutability": "view",
      "type": "function"
    },
    {
      "inputs": [
        {
          "internalType": "uint256",
          "name": "tokenId",
          "type": "uint256"
        }
      ],
      "name": "getDurationIdList",
      "outputs": [
        {
          "internalType": "uint256[]",
          "name": "",
          "type": "uint256[]"
        }
      ],
      "stateMutability": "view",
      "type": "function"
    },
    {
      "inputs": [
        {
          "internalType": "uint256",
          "name": "tokenId",
          "type": "uint256"
        }
      ],
      "name": "getDurationListLength",
      "outputs": [
        {
          "internalType": "uint256",
          "name": "",
          "type": "uint256"
        }
      ],
      "stateMutability": "view",
      "type": "function"
    },
    {
      "inputs": [],
      "name": "getMaxDuration",
      "outputs": [
        {
          "internalType": "uint64",
          "name": "",
          "type": "uint64"
        }
      ],
      "stateMutability": "view",
      "type": "function"
    },
    {
      "inputs": [
        {
          "internalType": "uint256",
          "name": "tokenId",
          "type": "uint256"
        }
      ],
      "name": "getNonce",
      "outputs": [
        {
          "internalType": "uint64",
          "name": "",
          "type": "uint64"
        }
      ],
      "stateMutability": "view",
      "type": "function"
    },
    {
      "inputs": [],
      "name": "getOriginalNftAddress",
      "outputs": [
        {
          "internalType": "address",
          "name": "",
          "type": "address"
        }
      ],
      "stateMutability": "view",
      "type": "function"
    },
    {
      "inputs": [
        {
          "internalType": "uint256",
          "name": "tokenId",
          "type": "uint256"
        }
      ],
      "name": "getOriginalNftId",
      "outputs": [
        {
          "internalType": "uint256",
          "name": "",
          "type": "uint256"
        }
      ],
      "stateMutability": "view",
      "type": "function"
    },
    {
      "inputs": [
        {
          "internalType": "uint256",
          "name": "originalNftId",
          "type": "uint256"
        }
      ],
      "name": "getUser",
      "outputs": [
        {
          "internalType": "address",
          "name": "",
          "type": "address"
        }
      ],
      "stateMutability": "view",
      "type": "function"
    },
    {
      "inputs": [
        {
          "internalType": "uint256",
          "name": "originalNftId",
          "type": "uint256"
        }
      ],
      "name": "getVNftId",
      "outputs": [
        {
          "internalType": "uint256",
          "name": "",
          "type": "uint256"
        }
      ],
      "stateMutability": "view",
      "type": "function"
    },
    {
      "inputs": [
        {
          "internalType": "string",
          "name": "name_",
          "type": "string"
        },
        {
          "internalType": "string",
          "name": "symbol_",
          "type": "string"
        },
        {
          "internalType": "address",
          "name": "nftAddress_",
          "type": "address"
        },
        {
          "internalType": "address",
          "name": "market_",
          "type": "address"
        },
        {
          "internalType": "address",
          "name": "owner_",
          "type": "address"
        },
        {
          "internalType": "address",
          "name": "admin_",
          "type": "address"
        }
      ],
      "name": "initialize",
      "outputs": [],
      "stateMutability": "nonpayable",
      "type": "function"
    },
    {
      "inputs": [
        {
          "internalType": "address",
          "name": "owner",
          "type": "address"
        },
        {
          "internalType": "address",
          "name": "operator",
          "type": "address"
        }
      ],
      "name": "isApprovedForAll",
      "outputs": [
        {
          "internalType": "bool",
          "name": "",
          "type": "bool"
        }
      ],
      "stateMutability": "view",
      "type": "function"
    },
    {
      "inputs": [
        {
          "internalType": "uint256",
          "name": "tokenId",
          "type": "uint256"
        }
      ],
      "name": "isVNft",
      "outputs": [
        {
          "internalType": "bool",
          "name": "",
          "type": "bool"
        }
      ],
      "stateMutability": "view",
      "type": "function"
    },
    {
      "inputs": [
        {
          "internalType": "uint256",
          "name": "tokenId",
          "type": "uint256"
        }
      ],
      "name": "isValidNow",
      "outputs": [
        {
          "internalType": "bool",
          "name": "isValid",
          "type": "bool"
        }
      ],
      "stateMutability": "view",
      "type": "function"
    },
    {
      "inputs": [],
      "name": "market",
      "outputs": [
        {
          "internalType": "address",
          "name": "",
          "type": "address"
        }
      ],
      "stateMutability": "view",
      "type": "function"
    },
    {
      "inputs": [],
      "name": "maxDuration",
      "outputs": [
        {
          "internalType": "uint64",
          "name": "",
          "type": "uint64"
        }
      ],
      "stateMutability": "view",
      "type": "function"
    },
    {
      "inputs": [
        {
          "internalType": "uint256",
          "name": "tokenId",
          "type": "uint256"
        },
        {
          "internalType": "uint256",
          "name": "durationId",
          "type": "uint256"
        },
        {
          "internalType": "uint64",
          "name": "start",
          "type": "uint64"
        },
        {
          "internalType": "uint64",
          "name": "end",
          "type": "uint64"
        },
        {
          "internalType": "address",
          "name": "to",
          "type": "address"
        },
        {
          "internalType": "address",
          "name": "user",
          "type": "address"
        }
      ],
      "name": "mint",
      "outputs": [
        {
          "internalType": "uint256",
          "name": "tid",
          "type": "uint256"
        }
      ],
      "stateMutability": "nonpayable",
      "type": "function"
    },
    {
      "inputs": [
        {
          "internalType": "uint256",
          "name": "oid",
          "type": "uint256"
        }
      ],
      "name": "mintVNft",
      "outputs": [
        {
          "internalType": "uint256",
          "name": "tid",
          "type": "uint256"
        }
      ],
      "stateMutability": "nonpayable",
      "type": "function"
    },
    {
      "inputs": [],
      "name": "name",
      "outputs": [
        {
          "internalType": "string",
          "name": "",
          "type": "string"
        }
      ],
      "stateMutability": "view",
      "type": "function"
    },
    {
      "inputs": [
        {
          "internalType": "address",
          "name": "operator",
          "type": "address"
        },
        {
          "internalType": "address",
          "name": "from",
          "type": "address"
        },
        {
          "internalType": "uint256",
          "name": "tokenId",
          "type": "uint256"
        },
        {
          "internalType": "bytes",
          "name": "data",
          "type": "bytes"
        }
      ],
      "name": "onERC721Received",
      "outputs": [
        {
          "internalType": "bytes4",
          "name": "",
          "type": "bytes4"
        }
      ],
      "stateMutability": "pure",
      "type": "function"
    },
    {
      "inputs": [],
      "name": "owner",
      "outputs": [
        {
          "internalType": "address",
          "name": "",
          "type": "address"
        }
      ],
      "stateMutability": "view",
      "type": "function"
    },
    {
      "inputs": [
        {
          "internalType": "uint256",
          "name": "tokenId",
          "type": "uint256"
        }
      ],
      "name": "ownerOf",
      "outputs": [
        {
          "internalType": "address",
          "name": "",
          "type": "address"
        }
      ],
      "stateMutability": "view",
      "type": "function"
    },
    {
      "inputs": [],
      "name": "pendingOwner",
      "outputs": [
        {
          "internalType": "address",
          "name": "",
          "type": "address"
        }
      ],
      "stateMutability": "view",
      "type": "function"
    },
    {
      "inputs": [
        {
          "internalType": "uint256",
          "name": "tokenId",
          "type": "uint256"
        },
        {
          "internalType": "uint256[]",
          "name": "durationIds",
          "type": "uint256[]"
        }
      ],
      "name": "redeem",
      "outputs": [],
      "stateMutability": "nonpayable",
      "type": "function"
    },
    {
      "inputs": [],
      "name": "renounceOwnership",
      "outputs": [],
      "stateMutability": "nonpayable",
      "type": "function"
    },
    {
      "inputs": [
        {
          "internalType": "address",
          "name": "from",
          "type": "address"
        },
        {
          "internalType": "address",
          "name": "to",
          "type": "address"
        },
        {
          "internalType": "uint256",
          "name": "tokenId",
          "type": "uint256"
        }
      ],
      "name": "safeTransferFrom",
      "outputs": [],
      "stateMutability": "nonpayable",
      "type": "function"
    },
    {
      "inputs": [
        {
          "internalType": "address",
          "name": "from",
          "type": "address"
        },
        {
          "internalType": "address",
          "name": "to",
          "type": "address"
        },
        {
          "internalType": "uint256",
          "name": "tokenId",
          "type": "uint256"
        },
        {
          "internalType": "bytes",
          "name": "_data",
          "type": "bytes"
        }
      ],
      "name": "safeTransferFrom",
      "outputs": [],
      "stateMutability": "nonpayable",
      "type": "function"
    },
    {
      "inputs": [
        {
          "internalType": "address",
          "name": "newAdmin",
          "type": "address"
        }
      ],
      "name": "setAdmin",
      "outputs": [],
      "stateMutability": "nonpayable",
      "type": "function"
    },
    {
      "inputs": [
        {
          "internalType": "address",
          "name": "operator",
          "type": "address"
        },
        {
          "internalType": "bool",
          "name": "approved",
          "type": "bool"
        }
      ],
      "name": "setApprovalForAll",
      "outputs": [],
      "stateMutability": "nonpayable",
      "type": "function"
    },
    {
      "inputs": [
        {
          "internalType": "uint64",
          "name": "v",
          "type": "uint64"
        }
      ],
      "name": "setMaxDuration",
      "outputs": [],
      "stateMutability": "nonpayable",
      "type": "function"
    },
    {
      "inputs": [
        {
          "internalType": "bytes4",
          "name": "interfaceId",
          "type": "bytes4"
        }
      ],
      "name": "supportsInterface",
      "outputs": [
        {
          "internalType": "bool",
          "name": "",
          "type": "bool"
        }
      ],
      "stateMutability": "view",
      "type": "function"
    },
    {
      "inputs": [],
      "name": "symbol",
      "outputs": [
        {
          "internalType": "string",
          "name": "",
          "type": "string"
        }
      ],
      "stateMutability": "view",
      "type": "function"
    },
    {
      "inputs": [
        {
          "internalType": "uint256",
          "name": "tokenId",
          "type": "uint256"
        }
      ],
      "name": "tokenURI",
      "outputs": [
        {
          "internalType": "string",
          "name": "",
          "type": "string"
        }
      ],
      "stateMutability": "view",
      "type": "function"
    },
    {
      "inputs": [
        {
          "internalType": "address",
          "name": "from",
          "type": "address"
        },
        {
          "internalType": "address",
          "name": "to",
          "type": "address"
        },
        {
          "internalType": "uint256",
          "name": "tokenId",
          "type": "uint256"
        }
      ],
      "name": "transferFrom",
      "outputs": [],
      "stateMutability": "nonpayable",
      "type": "function"
    },
    {
      "inputs": [
        {
          "internalType": "address",
          "name": "_pendingOwner",
          "type": "address"
        }
      ],
      "name": "transferOwnership",
      "outputs": [],
      "stateMutability": "nonpayable",
      "type": "function"
    }
  ],
  "bytecode": "0x608060405234801561001057600080fd5b50617bbd80620000216000396000f3fe608060405234801561001057600080fd5b506004361061028a5760003560e01c806395d89b411161015c578063c87b56dd116100ce578063e985e9c511610087578063e985e9c514610888578063ebbc4965146108b8578063f0147832146108c2578063f2fde38b146108de578063f851a440146108fa578063fd83de62146109185761028a565b8063c87b56dd1461078c578063cb697d1e146107bc578063dbe102c0146107ec578063e30c39781461081c578063e42e66a91461083a578063e56f2fe41461086c5761028a565b8063a832841211610120578063a8328412146106b8578063abb2176a146106e8578063b0467deb14610706578063b49a2db914610736578063b88d4fde14610754578063c4a0db96146107705761028a565b806395d89b411461061457806398e5d38f14610632578063a050ac8f1461064e578063a22cb4651461066c578063a6cc2650146106885761028a565b80633ed189cf11610200578063704b6c02116101b9578063704b6c021461055157806370a082311461056d578063715018a61461059d57806380f55605146105a75780638bb126a7146105c55780638da5cb5b146105f65761028a565b80633ed189cf1461045357806342842e0e146104835780634f558e791461049f57806352332ed8146104cf5780636352211e146105035780636db5c8fd146105335761028a565b8063150b7a0211610252578063150b7a02146103595780631aa144981461038957806323b872dd146103b957806325cb25b0146103d5578063393b17a4146103f35780633d46b819146104235761028a565b806301ffc9a71461028f57806306fdde03146102bf578063081812fc146102dd578063095ea7b31461030d57806310c1185414610329575b600080fd5b6102a960048036038101906102a49190615cfe565b610948565b6040516102b691906168ee565b60405180910390f35b6102c76109c2565b6040516102d49190616924565b60405180910390f35b6102f760048036038101906102f29190615e4a565b610a54565b604051610304919061677b565b60405180910390f35b61032760048036038101906103229190615c4a565b610ad9565b005b610343600480360381019061033e9190615f30565b610bf1565b6040516103509190616d46565b60405180910390f35b610373600480360381019061036e9190615b13565b611165565b6040516103809190616909565b60405180910390f35b6103a3600480360381019061039e9190615e4a565b61117f565b6040516103b09190616d46565b60405180910390f35b6103d360048036038101906103ce9190615ac4565b6111a4565b005b6103dd611204565b6040516103ea919061677b565b60405180910390f35b61040d60048036038101906104089190615e4a565b61122e565b60405161041a91906168ee565b60405180910390f35b61043d60048036038101906104389190615e4a565b611329565b60405161044a9190616f06565b60405180910390f35b61046d60048036038101906104689190615e4a565b61135d565b60405161047a9190616d46565b60405180910390f35b61049d60048036038101906104989190615ac4565b61137a565b005b6104b960048036038101906104b49190615e4a565b61139a565b6040516104c691906168ee565b60405180910390f35b6104e960048036038101906104e49190615e4a565b6113ac565b6040516104fa959493929190616d98565b60405180910390f35b61051d60048036038101906105189190615e4a565b61163e565b60405161052a919061677b565b60405180910390f35b61053b6116f0565b6040516105489190616f06565b60405180910390f35b61056b60048036038101906105669190615a36565b61170a565b005b61058760048036038101906105829190615a36565b6117b1565b6040516105949190616d46565b60405180910390f35b6105a5611869565b005b6105af611a4a565b6040516105bc919061677b565b60405180910390f35b6105df60048036038101906105da9190615e4a565b611a70565b6040516105ed929190616f21565b60405180910390f35b6105fe611ac6565b60405161060b919061677b565b60405180910390f35b61061c611aea565b6040516106299190616924565b60405180910390f35b61064c60048036038101906106479190615c86565b611b7c565b005b610656611c5d565b6040516106639190616d46565b60405180910390f35b61068660048036038101906106819190615c0e565b611c63565b005b6106a2600480360381019061069d9190615e4a565b611c79565b6040516106af9190616d46565b60405180910390f35b6106d260048036038101906106cd9190615e4a565b6125a2565b6040516106df91906168ee565b60405180910390f35b6106f06125e9565b6040516106fd9190616d46565b60405180910390f35b610720600480360381019061071b9190615e4a565b6125ef565b60405161072d919061677b565b60405180910390f35b61073e6126a3565b60405161074b9190616f06565b60405180910390f35b61076e60048036038101906107699190615b93565b6126c1565b005b61078a60048036038101906107859190615e9c565b612723565b005b6107a660048036038101906107a19190615e4a565b612b44565b6040516107b39190616924565b60405180910390f35b6107d660048036038101906107d19190615e9c565b612fb0565b6040516107e391906168ee565b60405180910390f35b61080660048036038101906108019190615e4a565b6132aa565b60405161081391906168cc565b60405180910390f35b6108246132d7565b604051610831919061677b565b60405180910390f35b610854600480360381019061084f9190615ef4565b6132fd565b60405161086393929190616ecf565b60405180910390f35b61088660048036038101906108819190615d91565b613396565b005b6108a2600480360381019061089d9190615a88565b6133ac565b6040516108af91906168ee565b60405180910390f35b6108c0613440565b005b6108dc60048036038101906108d79190615fb9565b6135c6565b005b6108f860048036038101906108f39190615a36565b6135fa565b005b6109026136a1565b60405161090f919061677b565b60405180910390f35b610932600480360381019061092d9190615e4a565b6136c7565b60405161093f9190616d46565b60405180910390f35b60007fe56f2fe4000000000000000000000000000000000000000000000000000000007bffffffffffffffffffffffffffffffffffffffffffffffffffffffff1916827bffffffffffffffffffffffffffffffffffffffffffffffffffffffff191614806109bb57506109ba826136ee565b5b9050919050565b6060606780546109d19061725d565b80601f01602080910402602001604051908101604052809291908181526020018280546109fd9061725d565b8015610a4a5780601f10610a1f57610100808354040283529160200191610a4a565b820191906000526020600020905b815481529060010190602001808311610a2d57829003601f168201915b5050505050905090565b6000610a5f826137d0565b610a9e576040517f08c379a0000000000000000000000000000000000000000000000000000000008152600401610a9590616ba6565b60405180910390fd5b606b600083815260200190815260200160002060009054906101000a900473ffffffffffffffffffffffffffffffffffffffff169050919050565b6000610ae48261163e565b90508073ffffffffffffffffffffffffffffffffffffffff168373ffffffffffffffffffffffffffffffffffffffff161415610b55576040517f08c379a0000000000000000000000000000000000000000000000000000000008152600401610b4c90616c46565b60405180910390fd5b8073ffffffffffffffffffffffffffffffffffffffff16610b7461383c565b73ffffffffffffffffffffffffffffffffffffffff161480610ba35750610ba281610b9d61383c565b6133ac565b5b610be2576040517f08c379a0000000000000000000000000000000000000000000000000000000008152600401610bd990616b06565b60405180910390fd5b610bec8383613844565b505050565b600084610bfd816138fd565b60026099541415610c43576040517f08c379a0000000000000000000000000000000000000000000000000000000008152600401610c3a90616cc6565b60405180910390fd5b6002609981905550428667ffffffffffffffff161015610c61574295505b610c72610c6c61383c565b89613963565b610cb1576040517f08c379a0000000000000000000000000000000000000000000000000000000008152600401610ca890616966565b60405180910390fd5b8567ffffffffffffffff168567ffffffffffffffff16118015610d09575060cf60009054906101000a900467ffffffffffffffff1667ffffffffffffffff1642610cfb9190617097565b8567ffffffffffffffff1611155b610d48576040517f08c379a0000000000000000000000000000000000000000000000000000000008152600401610d3f90616ac6565b60405180910390fd5b600060d060008a81526020019081526020016000209050610d6989896139d7565b610da8576040517f08c379a0000000000000000000000000000000000000000000000000000000008152600401610d9f90616a26565b60405180910390fd5b600060d160008a815260200190815260200160002090508060000160009054906101000a900467ffffffffffffffff1667ffffffffffffffff168867ffffffffffffffff1610158015610e2757508060000160089054906101000a900467ffffffffffffffff1667ffffffffffffffff168767ffffffffffffffff1611155b610e66576040517f08c379a0000000000000000000000000000000000000000000000000000000008152600401610e5d90616be6565b60405180910390fd5b60008160000160009054906101000a900467ffffffffffffffff1667ffffffffffffffff168967ffffffffffffffff16148015610ece57508160000160089054906101000a900467ffffffffffffffff1667ffffffffffffffff168867ffffffffffffffff16145b15610f1757610ee38784600001548b8b613a09565b945060ce549050610ef48b8b613a30565b6000610f0284600201613b9c565b1415610f1257610f118b613bb1565b5b6110fa565b8160000160009054906101000a900467ffffffffffffffff1667ffffffffffffffff168967ffffffffffffffff16148015610f7e57508160000160089054906101000a900467ffffffffffffffff1667ffffffffffffffff168867ffffffffffffffff1614155b15610fbf57600188610f9091906170ed565b8260000160006101000a81548167ffffffffffffffff021916908367ffffffffffffffff1602179055506110e2565b8160000160009054906101000a900467ffffffffffffffff1667ffffffffffffffff168967ffffffffffffffff161415801561102657508160000160089054906101000a900467ffffffffffffffff1667ffffffffffffffff168867ffffffffffffffff16145b1561106757600189611038919061715f565b8260000160086101000a81548167ffffffffffffffff021916908367ffffffffffffffff1602179055506110e1565b428967ffffffffffffffff1611156110a9576110a88b8360000160009054906101000a900467ffffffffffffffff1660018c6110a3919061715f565b613c14565b5b6001886110b691906170ed565b8260000160006101000a81548167ffffffffffffffff021916908367ffffffffffffffff1602179055505b5b6110f28784600001548b8b613a09565b945060ce5490505b428967ffffffffffffffff16141561111857611117868683611b7c565b5b7ff8e1a15aba9398e019f0b49df1a4fde98ee17ae345cb5f6b5e2c27f5033e8ce78b6040516111479190616d46565b60405180910390a15050506001609981905550509695505050505050565b60008063150b7a0260e01b90508091505095945050505050565b60008060d0600084815260200190815260200160002090508060000154915050919050565b6111b56111af61383c565b82613963565b6111f4576040517f08c379a00000000000000000000000000000000000000000000000000000000081526004016111eb90616c66565b60405180910390fd5b6111ff838383613d3a565b505050565b600060cb60009054906101000a900473ffffffffffffffffffffffffffffffffffffffff16905090565b60008060d060008481526020019081526020016000209050600061125482600201613b9c565b9050600080600090505b8281101561131b5761127c8185600201613fa190919063ffffffff16565b91504260d1600084815260200190815260200160002060000160009054906101000a900467ffffffffffffffff1667ffffffffffffffff16111580156112f6575060d1600083815260200190815260200160002060000160089054906101000a900467ffffffffffffffff1667ffffffffffffffff164211155b15611308576001945050505050611324565b8080611313906172c0565b91505061125e565b50600093505050505b919050565b600060d0600083815260200190815260200160002060010160009054906101000a900467ffffffffffffffff169050919050565b600060d26000838152602001908152602001600020549050919050565b611395838383604051806020016040528060008152506126c1565b505050565b60006113a5826137d0565b9050919050565b6000606080606060008060d060008881526020019081526020016000209050806000015495508060010160009054906101000a900467ffffffffffffffff16915060006113fb82600201613b9c565b905060008167ffffffffffffffff81111561143f577f4e487b7100000000000000000000000000000000000000000000000000000000600052604160045260246000fd5b60405190808252806020026020018201604052801561146d5781602001602082028036833780820191505090505b5095508167ffffffffffffffff8111156114b0577f4e487b7100000000000000000000000000000000000000000000000000000000600052604160045260246000fd5b6040519080825280602002602001820160405280156114de5781602001602082028036833780820191505090505b5094506114ed83600201613fbb565b965060005b82811015611631576115108185600201613fa190919063ffffffff16565b915060d1600083815260200190815260200160002060000160009054906101000a900467ffffffffffffffff16878281518110611576577f4e487b7100000000000000000000000000000000000000000000000000000000600052603260045260246000fd5b602002602001019067ffffffffffffffff16908167ffffffffffffffff168152505060d1600083815260200190815260200160002060000160089054906101000a900467ffffffffffffffff168682815181106115fc577f4e487b7100000000000000000000000000000000000000000000000000000000600052603260045260246000fd5b602002602001019067ffffffffffffffff16908167ffffffffffffffff16815250508080611629906172c0565b9150506114f2565b5050505091939590929450565b6000806069600084815260200190815260200160002060009054906101000a900473ffffffffffffffffffffffffffffffffffffffff169050600073ffffffffffffffffffffffffffffffffffffffff168173ffffffffffffffffffffffffffffffffffffffff1614156116e7576040517f08c379a00000000000000000000000000000000000000000000000000000000081526004016116de90616b66565b60405180910390fd5b80915050919050565b60cf60009054906101000a900467ffffffffffffffff1681565b611712613fdc565b7ff9ffabca9c8276e99321725bcb43fb076a6c66a54b7f21c4e8146d8519b417dc600260009054906101000a900473ffffffffffffffffffffffffffffffffffffffff1682604051611765929190616796565b60405180910390a180600260006101000a81548173ffffffffffffffffffffffffffffffffffffffff021916908373ffffffffffffffffffffffffffffffffffffffff16021790555050565b60008073ffffffffffffffffffffffffffffffffffffffff168273ffffffffffffffffffffffffffffffffffffffff161415611822576040517f08c379a000000000000000000000000000000000000000000000000000000000815260040161181990616b46565b60405180910390fd5b606a60008373ffffffffffffffffffffffffffffffffffffffff1673ffffffffffffffffffffffffffffffffffffffff168152602001908152602001600020549050919050565b611871613fdc565b7f70aea8d848e8a90fb7661b227dc522eb6395c3dac71b63cb59edd5c9899b236460008054906101000a900473ffffffffffffffffffffffffffffffffffffffff1660006040516118c3929190616796565b60405180910390a17ff9ffabca9c8276e99321725bcb43fb076a6c66a54b7f21c4e8146d8519b417dc600260009054906101000a900473ffffffffffffffffffffffffffffffffffffffff16600060405161191f929190616796565b60405180910390a17fb3d55174552271a4f1aaf36b72f50381e892171636b3fb5447fe00e995e7a37b600160009054906101000a900473ffffffffffffffffffffffffffffffffffffffff16600060405161197b929190616796565b60405180910390a160008060006101000a81548173ffffffffffffffffffffffffffffffffffffffff021916908373ffffffffffffffffffffffffffffffffffffffff1602179055506000600160006101000a81548173ffffffffffffffffffffffffffffffffffffffff021916908373ffffffffffffffffffffffffffffffffffffffff1602179055506000600260006101000a81548173ffffffffffffffffffffffffffffffffffffffff021916908373ffffffffffffffffffffffffffffffffffffffff160217905550565b60cc60009054906101000a900473ffffffffffffffffffffffffffffffffffffffff1681565b600080600060d1600085815260200190815260200160002090508060000160009054906101000a900467ffffffffffffffff168160000160089054906101000a900467ffffffffffffffff169250925050915091565b60008054906101000a900473ffffffffffffffffffffffffffffffffffffffff1681565b606060688054611af99061725d565b80601f0160208091040260200160405190810160405280929190818152602001828054611b259061725d565b8015611b725780601f10611b4757610100808354040283529160200191611b72565b820191906000526020600020905b815481529060010190602001808311611b5557829003601f168201915b5050505050905090565b611b8783838361406c565b60cb60009054906101000a900473ffffffffffffffffffffffffffffffffffffffff1673ffffffffffffffffffffffffffffffffffffffff1663e030565e60d06000858152602001908152602001600020600001548560d1600086815260200190815260200160002060000160089054906101000a900467ffffffffffffffff166040518463ffffffff1660e01b8152600401611c2693929190616d61565b600060405180830381600087803b158015611c4057600080fd5b505af1158015611c54573d6000803e3d6000fd5b50505050505050565b60ce5481565b611c75611c6e61383c565b838361426d565b5050565b600060026099541415611cc1576040517f08c379a0000000000000000000000000000000000000000000000000000000008152600401611cb890616cc6565b60405180910390fd5b6002609981905550600060d260008481526020019081526020016000205414611d1f576040517f08c379a0000000000000000000000000000000000000000000000000000000008152600401611d16906169e6565b60405180910390fd5b600060cb60009054906101000a900473ffffffffffffffffffffffffffffffffffffffff1673ffffffffffffffffffffffffffffffffffffffff166301ffc9a77fb72080fb000000000000000000000000000000000000000000000000000000006040518263ffffffff1660e01b8152600401611d9c9190616909565b60206040518083038186803b158015611db457600080fd5b505afa158015611dc8573d6000803e3d6000fd5b505050506040513d601f19601f82011682018060405250810190611dec9190615cd5565b1561232257600060cb60009054906101000a900473ffffffffffffffffffffffffffffffffffffffff1673ffffffffffffffffffffffffffffffffffffffff1663cab416b46040518163ffffffff1660e01b815260040160206040518083038186803b158015611e5b57600080fd5b505afa158015611e6f573d6000803e3d6000fd5b505050506040513d601f19601f82011682018060405250810190611e939190615a5f565b90508073ffffffffffffffffffffffffffffffffffffffff16636352211e856040518263ffffffff1660e01b8152600401611ece9190616d46565b60206040518083038186803b158015611ee657600080fd5b505afa158015611efa573d6000803e3d6000fd5b505050506040513d601f19601f82011682018060405250810190611f1e9190615a5f565b915060cb60009054906101000a900473ffffffffffffffffffffffffffffffffffffffff1673ffffffffffffffffffffffffffffffffffffffff168273ffffffffffffffffffffffffffffffffffffffff161461217157611f803382866143da565b611fbf576040517f08c379a0000000000000000000000000000000000000000000000000000000008152600401611fb690616bc6565b60405180910390fd5b8073ffffffffffffffffffffffffffffffffffffffff166342842e0e8330876040518463ffffffff1660e01b8152600401611ffc939291906167bf565b600060405180830381600087803b15801561201657600080fd5b505af115801561202a573d6000803e3d6000fd5b505050508073ffffffffffffffffffffffffffffffffffffffff1663095ea7b360cb60009054906101000a900473ffffffffffffffffffffffffffffffffffffffff16866040518363ffffffff1660e01b815260040161208b9291906168a3565b600060405180830381600087803b1580156120a557600080fd5b505af11580156120b9573d6000803e3d6000fd5b5050505060cb60009054906101000a900473ffffffffffffffffffffffffffffffffffffffff1673ffffffffffffffffffffffffffffffffffffffff1663a694fc3a856040518263ffffffff1660e01b81526004016121189190616d46565b602060405180830381600087803b15801561213257600080fd5b505af1158015612146573d6000803e3d6000fd5b505050506040513d601f19601f8201168201806040525081019061216a9190615e73565b935061231c565b61219e3360cb60009054906101000a900473ffffffffffffffffffffffffffffffffffffffff16866143da565b6121dd576040517f08c379a00000000000000000000000000000000000000000000000000000000081526004016121d490616bc6565b60405180910390fd5b60cb60009054906101000a900473ffffffffffffffffffffffffffffffffffffffff1673ffffffffffffffffffffffffffffffffffffffff16636352211e856040518263ffffffff1660e01b81526004016122389190616d46565b60206040518083038186803b15801561225057600080fd5b505afa158015612264573d6000803e3d6000fd5b505050506040513d601f19601f820116820180604052508101906122889190615a5f565b915060cb60009054906101000a900473ffffffffffffffffffffffffffffffffffffffff1673ffffffffffffffffffffffffffffffffffffffff166342842e0e8330876040518463ffffffff1660e01b81526004016122e9939291906167bf565b600060405180830381600087803b15801561230357600080fd5b505af1158015612317573d6000803e3d6000fd5b505050505b506124cd565b61234f3360cb60009054906101000a900473ffffffffffffffffffffffffffffffffffffffff16856143da565b61238e576040517f08c379a000000000000000000000000000000000000000000000000000000000815260040161238590616bc6565b60405180910390fd5b60cb60009054906101000a900473ffffffffffffffffffffffffffffffffffffffff1673ffffffffffffffffffffffffffffffffffffffff16636352211e846040518263ffffffff1660e01b81526004016123e99190616d46565b60206040518083038186803b15801561240157600080fd5b505afa158015612415573d6000803e3d6000fd5b505050506040513d601f19601f820116820180604052508101906124399190615a5f565b905060cb60009054906101000a900473ffffffffffffffffffffffffffffffffffffffff1673ffffffffffffffffffffffffffffffffffffffff166342842e0e8230866040518463ffffffff1660e01b815260040161249a939291906167bf565b600060405180830381600087803b1580156124b457600080fd5b505af11580156124c8573d6000803e3d6000fd5b505050505b6124e181844267ffffffffffffffff613a09565b91508160d260008581526020019081526020016000208190555060cb60009054906101000a900473ffffffffffffffffffffffffffffffffffffffff1673ffffffffffffffffffffffffffffffffffffffff1663e030565e848367ffffffffffffffff6040518463ffffffff1660e01b815260040161256293929190616d61565b600060405180830381600087803b15801561257c57600080fd5b505af1158015612590573d6000803e3d6000fd5b50505050506001609981905550919050565b6000808214156125b557600090506125e4565b8160d2600060d06000868152602001908152602001600020600001548152602001908152602001600020541490505b919050565b60cd5481565b600060cb60009054906101000a900473ffffffffffffffffffffffffffffffffffffffff1673ffffffffffffffffffffffffffffffffffffffff1663c2f1f14a836040518263ffffffff1660e01b815260040161264c9190616d46565b60206040518083038186803b15801561266457600080fd5b505afa158015612678573d6000803e3d6000fd5b505050506040513d601f19601f8201168201806040525081019061269c9190615a5f565b9050919050565b600060cf60009054906101000a900467ffffffffffffffff16905090565b6126d26126cc61383c565b83613963565b612711576040517f08c379a000000000000000000000000000000000000000000000000000000000815260040161270890616c66565b60405180910390fd5b61271d84848484614652565b50505050565b61273461272e61383c565b84613963565b612773576040517f08c379a000000000000000000000000000000000000000000000000000000000815260040161276a90616c66565b60405180910390fd5b61277e838383612fb0565b6127bd576040517f08c379a00000000000000000000000000000000000000000000000000000000081526004016127b490616b26565b60405180910390fd5b600060d06000858152602001908152602001600020905060cb60009054906101000a900473ffffffffffffffffffffffffffffffffffffffff1673ffffffffffffffffffffffffffffffffffffffff166301ffc9a77fb72080fb000000000000000000000000000000000000000000000000000000006040518263ffffffff1660e01b815260040161284f9190616909565b60206040518083038186803b15801561286757600080fd5b505afa15801561287b573d6000803e3d6000fd5b505050506040513d601f19601f8201168201806040525081019061289f9190615cd5565b15612a5a5760cb60009054906101000a900473ffffffffffffffffffffffffffffffffffffffff1673ffffffffffffffffffffffffffffffffffffffff1663db006a7582600001546040518263ffffffff1660e01b81526004016129039190616d46565b600060405180830381600087803b15801561291d57600080fd5b505af1158015612931573d6000803e3d6000fd5b50505050600060cb60009054906101000a900473ffffffffffffffffffffffffffffffffffffffff1673ffffffffffffffffffffffffffffffffffffffff1663cab416b46040518163ffffffff1660e01b815260040160206040518083038186803b15801561299f57600080fd5b505afa1580156129b3573d6000803e3d6000fd5b505050506040513d601f19601f820116820180604052508101906129d79190615a5f565b90508073ffffffffffffffffffffffffffffffffffffffff166342842e0e306129ff8861163e565b85600001546040518463ffffffff1660e01b8152600401612a22939291906167bf565b600060405180830381600087803b158015612a3c57600080fd5b505af1158015612a50573d6000803e3d6000fd5b5050505050612af8565b60cb60009054906101000a900473ffffffffffffffffffffffffffffffffffffffff1673ffffffffffffffffffffffffffffffffffffffff166342842e0e30612aa28761163e565b84600001546040518463ffffffff1660e01b8152600401612ac5939291906167bf565b600060405180830381600087803b158015612adf57600080fd5b505af1158015612af3573d6000803e3d6000fd5b505050505b612b01846146ae565b7fe3829d5463fae0f748d927f86f762044188c9ce53d91a394eb93e98354cc3092816000015485604051612b36929190616e61565b60405180910390a150505050565b6060612b4f826137d0565b612b8e576040517f08c379a0000000000000000000000000000000000000000000000000000000008152600401612b8590616c06565b60405180910390fd5b600080612b9c8460006132fd565b9250925050606080600060cb60009054906101000a900473ffffffffffffffffffffffffffffffffffffffff1673ffffffffffffffffffffffffffffffffffffffff166395d89b416040518163ffffffff1660e01b815260040160006040518083038186803b158015612c0e57600080fd5b505afa158015612c22573d6000803e3d6000fd5b505050506040513d6000823e3d601f19601f82011682018060405250810190612c4b9190615d50565b905060cb60009054906101000a900473ffffffffffffffffffffffffffffffffffffffff1673ffffffffffffffffffffffffffffffffffffffff166301ffc9a77fb72080fb000000000000000000000000000000000000000000000000000000006040518263ffffffff1660e01b8152600401612cc89190616909565b60206040518083038186803b158015612ce057600080fd5b505afa158015612cf4573d6000803e3d6000fd5b505050506040513d601f19601f82011682018060405250810190612d189190615cd5565b15612e4857600060cb60009054906101000a900473ffffffffffffffffffffffffffffffffffffffff1673ffffffffffffffffffffffffffffffffffffffff1663cab416b46040518163ffffffff1660e01b815260040160206040518083038186803b158015612d8757600080fd5b505afa158015612d9b573d6000803e3d6000fd5b505050506040513d601f19601f82011682018060405250810190612dbf9190615a5f565b90508073ffffffffffffffffffffffffffffffffffffffff166395d89b416040518163ffffffff1660e01b815260040160006040518083038186803b158015612e0757600080fd5b505afa158015612e1b573d6000803e3d6000fd5b505050506040513d6000823e3d601f19601f82011682018060405250810190612e449190615d50565b9150505b612e51876125a2565b15612eb55780604051602001612e679190616733565b60405160208183030381529060405292506040518060400160405280600481526020017f764e4654000000000000000000000000000000000000000000000000000000008152509150612f10565b80604051602001612ec69190616711565b60405160208183030381529060405292506040518060400160405280600581526020017f646f4e465400000000000000000000000000000000000000000000000000000081525091505b73__$996ce4ea27519c2de692a7755c14713365$__630557ba5188858589896040518663ffffffff1660e01b8152600401612f4f959493929190616e00565b60006040518083038186803b158015612f6757600080fd5b505af4158015612f7b573d6000803e3d6000fd5b505050506040513d6000823e3d601f19601f82011682018060405250810190612fa49190615d50565b95505050505050919050565b6000612fbb846125a2565b612ffa576040517f08c379a0000000000000000000000000000000000000000000000000000000008152600401612ff190616a06565b60405180910390fd5b600060d060008681526020019081526020016000209050600060d1600086866000818110613051577f4e487b7100000000000000000000000000000000000000000000000000000000600052603260045260246000fd5b9050602002013581526020019081526020016000209050428160000160009054906101000a900467ffffffffffffffff1667ffffffffffffffff16111561309d576000925050506132a3565b60008160000160089054906101000a900467ffffffffffffffff1690506000600190505b8686905081101561328557613121878783818110613108577f4e487b7100000000000000000000000000000000000000000000000000000000600052603260045260246000fd5b90506020020135856002016147de90919063ffffffff16565b87878381811061315a577f4e487b7100000000000000000000000000000000000000000000000000000000600052603260045260246000fd5b905060200201356040516020016131719190616755565b604051602081830303815290604052906131c1576040517f08c379a00000000000000000000000000000000000000000000000000000000081526004016131b89190616924565b60405180910390fd5b5060d160008888848181106131ff577f4e487b7100000000000000000000000000000000000000000000000000000000600052603260045260246000fd5b90506020020135815260200190815260200160002092508260000160009054906101000a900467ffffffffffffffff1667ffffffffffffffff1660018361324691906170ed565b67ffffffffffffffff161415613272578260000160089054906101000a900467ffffffffffffffff1691505b808061327d906172c0565b9150506130c1565b5067ffffffffffffffff80168167ffffffffffffffff161493505050505b9392505050565b6060600060d0600084815260200190815260200160002090506132cf81600201613fbb565b915050919050565b600160009054906101000a900473ffffffffffffffffffffffffffffffffffffffff1681565b60008060008060d06000878152602001908152602001600020905061332481600201613b9c565b8510613365576040517f08c379a000000000000000000000000000000000000000000000000000000000815260040161335c90616a86565b60405180910390fd5b61337b8582600201613fa190919063ffffffff16565b935061338684611a70565b8093508194505050509250925092565b6133a48686868686866147f8565b505050505050565b6000606c60008473ffffffffffffffffffffffffffffffffffffffff1673ffffffffffffffffffffffffffffffffffffffff16815260200190815260200160002060008373ffffffffffffffffffffffffffffffffffffffff1673ffffffffffffffffffffffffffffffffffffffff16815260200190815260200160002060009054906101000a900460ff16905092915050565b613448614934565b7f70aea8d848e8a90fb7661b227dc522eb6395c3dac71b63cb59edd5c9899b236460008054906101000a900473ffffffffffffffffffffffffffffffffffffffff16600160009054906101000a900473ffffffffffffffffffffffffffffffffffffffff166040516134bb929190616796565b60405180910390a1600160009054906101000a900473ffffffffffffffffffffffffffffffffffffffff166000806101000a81548173ffffffffffffffffffffffffffffffffffffffff021916908373ffffffffffffffffffffffffffffffffffffffff16021790555060007fb3d55174552271a4f1aaf36b72f50381e892171636b3fb5447fe00e995e7a37b600160009054906101000a900473ffffffffffffffffffffffffffffffffffffffff168260405161357a929190616796565b60405180910390a180600160006101000a81548173ffffffffffffffffffffffffffffffffffffffff021916908373ffffffffffffffffffffffffffffffffffffffff16021790555050565b6135ce6149c6565b8060cf60006101000a81548167ffffffffffffffff021916908367ffffffffffffffff16021790555050565b613602613fdc565b7fb3d55174552271a4f1aaf36b72f50381e892171636b3fb5447fe00e995e7a37b600160009054906101000a900473ffffffffffffffffffffffffffffffffffffffff1682604051613655929190616796565b60405180910390a180600160006101000a81548173ffffffffffffffffffffffffffffffffffffffff021916908373ffffffffffffffffffffffffffffffffffffffff16021790555050565b600260009054906101000a900473ffffffffffffffffffffffffffffffffffffffff1681565b60006136e760d06000848152602001908152602001600020600201613b9c565b9050919050565b60007f80ac58cd000000000000000000000000000000000000000000000000000000007bffffffffffffffffffffffffffffffffffffffffffffffffffffffff1916827bffffffffffffffffffffffffffffffffffffffffffffffffffffffff191614806137b957507f5b5e139f000000000000000000000000000000000000000000000000000000007bffffffffffffffffffffffffffffffffffffffffffffffffffffffff1916827bffffffffffffffffffffffffffffffffffffffffffffffffffffffff1916145b806137c957506137c882614aae565b5b9050919050565b60008073ffffffffffffffffffffffffffffffffffffffff166069600084815260200190815260200160002060009054906101000a900473ffffffffffffffffffffffffffffffffffffffff1673ffffffffffffffffffffffffffffffffffffffff1614159050919050565b600033905090565b81606b600083815260200190815260200160002060006101000a81548173ffffffffffffffffffffffffffffffffffffffff021916908373ffffffffffffffffffffffffffffffffffffffff160217905550808273ffffffffffffffffffffffffffffffffffffffff166138b78361163e565b73ffffffffffffffffffffffffffffffffffffffff167f8c5be1e5ebec7d5bd14f71427d1e84f3dd0314c0f7b2291e5b200ac8c7c3b92560405160405180910390a45050565b60d360009054906101000a900460ff161561396057428167ffffffffffffffff16111561395f576040517f08c379a000000000000000000000000000000000000000000000000000000000815260040161395690616c86565b60405180910390fd5b5b50565b600060cc60009054906101000a900473ffffffffffffffffffffffffffffffffffffffff1673ffffffffffffffffffffffffffffffffffffffff168373ffffffffffffffffffffffffffffffffffffffff1614156139c457600190506139d1565b6139ce8383614b18565b90505b92915050565b6000613a018260d060008681526020019081526020016000206002016147de90919063ffffffff16565b905092915050565b6000613a16848484614bf6565b50613a238560cd54614c78565b60cd549050949350505050565b60d16000828152602001908152602001600020600080820160006101000a81549067ffffffffffffffff02191690556000820160086101000a81549067ffffffffffffffff02191690555050613aa48160d06000858152602001908152602001600020600201614c9690919063ffffffff16565b506000600167ffffffffffffffff811115613ae8577f4e487b7100000000000000000000000000000000000000000000000000000000600052604160045260246000fd5b604051908082528060200260200182016040528015613b165781602001602082028036833780820191505090505b5090508181600081518110613b54577f4e487b7100000000000000000000000000000000000000000000000000000000600052603260045260246000fd5b6020026020010181815250507fdaf2d83211561a92f21e9184ba96aac6a054d6e4132aa90592fd88eeff75879c81604051613b8f91906168cc565b60405180910390a1505050565b6000613baa82600001614cb0565b9050919050565b613bba81614cc1565b60d060008281526020019081526020016000206000808201600090556001820160006101000a81549067ffffffffffffffff021916905560028201600080820160008082016000613c0b91906156cc565b50505050505050565b60ce6000815480929190613c27906172c0565b919050555060405180604001604052808367ffffffffffffffff1681526020018267ffffffffffffffff1681525060d1600060ce54815260200190815260200160002060008201518160000160006101000a81548167ffffffffffffffff021916908367ffffffffffffffff16021790555060208201518160000160086101000a81548167ffffffffffffffff021916908367ffffffffffffffff160217905550905050613cf560ce5460d06000868152602001908152602001600020600201614dde90919063ffffffff16565b507fd89b3a389fda649f6511ea8da7b3cda710b4478a1a29d5e7a92c89b0b669aa1260ce54848484604051613d2d9493929190616e8a565b60405180910390a1505050565b8273ffffffffffffffffffffffffffffffffffffffff16613d5a8261163e565b73ffffffffffffffffffffffffffffffffffffffff1614613db0576040517f08c379a0000000000000000000000000000000000000000000000000000000008152600401613da7906169a6565b60405180910390fd5b600073ffffffffffffffffffffffffffffffffffffffff168273ffffffffffffffffffffffffffffffffffffffff161415613e20576040517f08c379a0000000000000000000000000000000000000000000000000000000008152600401613e1790616a46565b60405180910390fd5b613e2b838383614df8565b613e36600082613844565b6001606a60008573ffffffffffffffffffffffffffffffffffffffff1673ffffffffffffffffffffffffffffffffffffffff1681526020019081526020016000206000828254613e86919061712b565b925050819055506001606a60008473ffffffffffffffffffffffffffffffffffffffff1673ffffffffffffffffffffffffffffffffffffffff1681526020019081526020016000206000828254613edd9190617097565b92505081905550816069600083815260200190815260200160002060006101000a81548173ffffffffffffffffffffffffffffffffffffffff021916908373ffffffffffffffffffffffffffffffffffffffff160217905550808273ffffffffffffffffffffffffffffffffffffffff168473ffffffffffffffffffffffffffffffffffffffff167fddf252ad1be2c89b69c2b068fc378daa952ba7f163c4a11628f55a4df523b3ef60405160405180910390a4613f9c838383614dfd565b505050565b6000613fb08360000183614e02565b60001c905092915050565b60606000613fcb83600001614e53565b905060608190508092505050919050565b60008054906101000a900473ffffffffffffffffffffffffffffffffffffffff1673ffffffffffffffffffffffffffffffffffffffff163373ffffffffffffffffffffffffffffffffffffffff161461406a576040517f08c379a000000000000000000000000000000000000000000000000000000000815260040161406190616d06565b60405180910390fd5b565b61407d61407761383c565b83613963565b6140bc576040517f08c379a00000000000000000000000000000000000000000000000000000000081526004016140b390616966565b60405180910390fd5b600060d060008481526020019081526020016000209050600060d160008481526020019081526020016000209050428160000160089054906101000a900467ffffffffffffffff1667ffffffffffffffff16101561414f576040517f08c379a000000000000000000000000000000000000000000000000000000000815260040161414690616ce6565b60405180910390fd5b428160000160009054906101000a900467ffffffffffffffff1667ffffffffffffffff1611156141b4576040517f08c379a00000000000000000000000000000000000000000000000000000000081526004016141ab90616d26565b60405180910390fd5b6141ca83836002016147de90919063ffffffff16565b614209576040517f08c379a000000000000000000000000000000000000000000000000000000000815260040161420090616ae6565b60405180910390fd5b7f241f46f4ab26147c933bd52501926d0ff84727224002739590fdfcf7a6559f123386868686600001548660000160089054906101000a900467ffffffffffffffff1660405161425e96959493929190616842565b60405180910390a15050505050565b8173ffffffffffffffffffffffffffffffffffffffff168373ffffffffffffffffffffffffffffffffffffffff1614156142dc576040517f08c379a00000000000000000000000000000000000000000000000000000000081526004016142d390616a66565b60405180910390fd5b80606c60008573ffffffffffffffffffffffffffffffffffffffff1673ffffffffffffffffffffffffffffffffffffffff16815260200190815260200160002060008473ffffffffffffffffffffffffffffffffffffffff1673ffffffffffffffffffffffffffffffffffffffff16815260200190815260200160002060006101000a81548160ff0219169083151502179055508173ffffffffffffffffffffffffffffffffffffffff168373ffffffffffffffffffffffffffffffffffffffff167f17307eab39ab6107e8899845ad3d59bd9653f200f220920489ca2b5937696c31836040516143cd91906168ee565b60405180910390a3505050565b600060cc60009054906101000a900473ffffffffffffffffffffffffffffffffffffffff1673ffffffffffffffffffffffffffffffffffffffff163373ffffffffffffffffffffffffffffffffffffffff16141561443b576001905061464b565b60008373ffffffffffffffffffffffffffffffffffffffff16636352211e846040518263ffffffff1660e01b81526004016144769190616d46565b60206040518083038186803b15801561448e57600080fd5b505afa1580156144a2573d6000803e3d6000fd5b505050506040513d601f19601f820116820180604052508101906144c69190615a5f565b90508073ffffffffffffffffffffffffffffffffffffffff168573ffffffffffffffffffffffffffffffffffffffff1614806145b557508473ffffffffffffffffffffffffffffffffffffffff168473ffffffffffffffffffffffffffffffffffffffff1663081812fc856040518263ffffffff1660e01b815260040161454d9190616d46565b60206040518083038186803b15801561456557600080fd5b505afa158015614579573d6000803e3d6000fd5b505050506040513d601f19601f8201168201806040525081019061459d9190615a5f565b73ffffffffffffffffffffffffffffffffffffffff16145b8061464757508373ffffffffffffffffffffffffffffffffffffffff1663e985e9c582876040518363ffffffff1660e01b81526004016145f6929190616796565b60206040518083038186803b15801561460e57600080fd5b505afa158015614622573d6000803e3d6000fd5b505050506040513d601f19601f820116820180604052508101906146469190615cd5565b5b9150505b9392505050565b61465d848484613d3a565b61466984848484614eaf565b6146a8576040517f08c379a000000000000000000000000000000000000000000000000000000000815260040161469f90616986565b60405180910390fd5b50505050565b600060d06000838152602001908152602001600020905060006146d382600201613b9c565b905060005b818110156147545760d160006146fa8386600201613fa190919063ffffffff16565b8152602001908152602001600020600080820160006101000a81549067ffffffffffffffff02191690556000820160086101000a81549067ffffffffffffffff02191690555050808061474c906172c0565b9150506146d8565b507fdaf2d83211561a92f21e9184ba96aac6a054d6e4132aa90592fd88eeff75879c61478283600201613fbb565b60405161478f91906168cc565b60405180910390a1816002016000808201600080820160006147b191906156cc565b5050505060d2600083600001548152602001908152602001600020600090556147d983613bb1565b505050565b60006147f0836000018360001b615046565b905092915050565b600260159054906101000a900460ff16614847576040517f08c379a000000000000000000000000000000000000000000000000000000000815260040161483e90616ca6565b60405180910390fd5b6148518686615069565b6148596150c6565b614863828261511f565b8360cb60006101000a81548173ffffffffffffffffffffffffffffffffffffffff021916908373ffffffffffffffffffffffffffffffffffffffff1602179055508260cc60006101000a81548173ffffffffffffffffffffffffffffffffffffffff021916908373ffffffffffffffffffffffffffffffffffffffff160217905550600160d360006101000a81548160ff02191690831515021790555062ed4e0060cf60006101000a81548167ffffffffffffffff021916908367ffffffffffffffff160217905550505050505050565b600160009054906101000a900473ffffffffffffffffffffffffffffffffffffffff1673ffffffffffffffffffffffffffffffffffffffff163373ffffffffffffffffffffffffffffffffffffffff16146149c4576040517f08c379a00000000000000000000000000000000000000000000000000000000081526004016149bb90616c26565b60405180910390fd5b565b600260009054906101000a900473ffffffffffffffffffffffffffffffffffffffff1673ffffffffffffffffffffffffffffffffffffffff163373ffffffffffffffffffffffffffffffffffffffff161480614a6d575060008054906101000a900473ffffffffffffffffffffffffffffffffffffffff1673ffffffffffffffffffffffffffffffffffffffff163373ffffffffffffffffffffffffffffffffffffffff16145b614aac576040517f08c379a0000000000000000000000000000000000000000000000000000000008152600401614aa390616946565b60405180910390fd5b565b60007f01ffc9a7000000000000000000000000000000000000000000000000000000007bffffffffffffffffffffffffffffffffffffffffffffffffffffffff1916827bffffffffffffffffffffffffffffffffffffffffffffffffffffffff1916149050919050565b6000614b23826137d0565b614b62576040517f08c379a0000000000000000000000000000000000000000000000000000000008152600401614b5990616aa6565b60405180910390fd5b6000614b6d8361163e565b90508073ffffffffffffffffffffffffffffffffffffffff168473ffffffffffffffffffffffffffffffffffffffff161480614baf5750614bae81856133ac565b5b80614bed57508373ffffffffffffffffffffffffffffffffffffffff16614bd584610a54565b73ffffffffffffffffffffffffffffffffffffffff16145b91505092915050565b600060cd6000815480929190614c0b906172c0565b9190505550600060d0600060cd548152602001908152602001600020905084816000018190555060008160010160006101000a81548167ffffffffffffffff021916908367ffffffffffffffff160217905550614c6b60cd548585613c14565b60cd549150509392505050565b614c928282604051806020016040528060008152506151a4565b5050565b6000614ca8836000018360001b6151ff565b905092915050565b600081600001805490509050919050565b6000614ccc8261163e565b9050614cda81600084614df8565b614ce5600083613844565b6001606a60008373ffffffffffffffffffffffffffffffffffffffff1673ffffffffffffffffffffffffffffffffffffffff1681526020019081526020016000206000828254614d35919061712b565b925050819055506069600083815260200190815260200160002060006101000a81549073ffffffffffffffffffffffffffffffffffffffff021916905581600073ffffffffffffffffffffffffffffffffffffffff168273ffffffffffffffffffffffffffffffffffffffff167fddf252ad1be2c89b69c2b068fc378daa952ba7f163c4a11628f55a4df523b3ef60405160405180910390a4614dda81600084614dfd565b5050565b6000614df0836000018360001b615385565b905092915050565b505050565b505050565b6000826000018281548110614e40577f4e487b7100000000000000000000000000000000000000000000000000000000600052603260045260246000fd5b9060005260206000200154905092915050565b606081600001805480602002602001604051908101604052809291908181526020018280548015614ea357602002820191906000526020600020905b815481526020019060010190808311614e8f575b50505050509050919050565b6000614ed08473ffffffffffffffffffffffffffffffffffffffff166153f5565b15615039578373ffffffffffffffffffffffffffffffffffffffff1663150b7a02614ef961383c565b8786866040518563ffffffff1660e01b8152600401614f1b94939291906167f6565b602060405180830381600087803b158015614f3557600080fd5b505af1925050508015614f6657506040513d601f19601f82011682018060405250810190614f639190615d27565b60015b614fe9573d8060008114614f96576040519150601f19603f3d011682016040523d82523d6000602084013e614f9b565b606091505b50600081511415614fe1576040517f08c379a0000000000000000000000000000000000000000000000000000000008152600401614fd890616986565b60405180910390fd5b805181602001fd5b63150b7a0260e01b7bffffffffffffffffffffffffffffffffffffffffffffffffffffffff1916817bffffffffffffffffffffffffffffffffffffffffffffffffffffffff19161491505061503e565b600190505b949350505050565b600080836001016000848152602001908152602001600020541415905092915050565b600260159054906101000a900460ff166150b8576040517f08c379a00000000000000000000000000000000000000000000000000000000081526004016150af90616ca6565b60405180910390fd5b6150c28282615418565b5050565b600260159054906101000a900460ff16615115576040517f08c379a000000000000000000000000000000000000000000000000000000000815260040161510c90616ca6565b60405180910390fd5b61511d615499565b565b816000806101000a81548173ffffffffffffffffffffffffffffffffffffffff021916908373ffffffffffffffffffffffffffffffffffffffff16021790555080600260006101000a81548173ffffffffffffffffffffffffffffffffffffffff021916908373ffffffffffffffffffffffffffffffffffffffff1602179055505050565b6151ae83836154f2565b6151bb6000848484614eaf565b6151fa576040517f08c379a00000000000000000000000000000000000000000000000000000000081526004016151f190616986565b60405180910390fd5b505050565b60008083600101600084815260200190815260200160002054905060008114615379576000600182615231919061712b565b9050600060018660000180549050615249919061712b565b9050818114615304576000866000018281548110615290577f4e487b7100000000000000000000000000000000000000000000000000000000600052603260045260246000fd5b90600052602060002001549050808760000184815481106152da577f4e487b7100000000000000000000000000000000000000000000000000000000600052603260045260246000fd5b90600052602060002001819055508387600101600083815260200190815260200160002081905550505b8560000180548061533e577f4e487b7100000000000000000000000000000000000000000000000000000000600052603160045260246000fd5b60019003818190600052602060002001600090559055856001016000868152602001908152602001600020600090556001935050505061537f565b60009150505b92915050565b60006153918383615046565b6153ea5782600001829080600181540180825580915050600190039060005260206000200160009091909190915055826000018054905083600101600084815260200190815260200160002081905550600190506153ef565b600090505b92915050565b6000808273ffffffffffffffffffffffffffffffffffffffff163b119050919050565b600260159054906101000a900460ff16615467576040517f08c379a000000000000000000000000000000000000000000000000000000000815260040161545e90616ca6565b60405180910390fd5b816067908051906020019061547d9291906156ed565b5080606890805190602001906154949291906156ed565b505050565b600260159054906101000a900460ff166154e8576040517f08c379a00000000000000000000000000000000000000000000000000000000081526004016154df90616ca6565b60405180910390fd5b6001609981905550565b600073ffffffffffffffffffffffffffffffffffffffff168273ffffffffffffffffffffffffffffffffffffffff161415615562576040517f08c379a000000000000000000000000000000000000000000000000000000000815260040161555990616b86565b60405180910390fd5b61556b816137d0565b156155ab576040517f08c379a00000000000000000000000000000000000000000000000000000000081526004016155a2906169c6565b60405180910390fd5b6155b760008383614df8565b6001606a60008473ffffffffffffffffffffffffffffffffffffffff1673ffffffffffffffffffffffffffffffffffffffff16815260200190815260200160002060008282546156079190617097565b92505081905550816069600083815260200190815260200160002060006101000a81548173ffffffffffffffffffffffffffffffffffffffff021916908373ffffffffffffffffffffffffffffffffffffffff160217905550808273ffffffffffffffffffffffffffffffffffffffff16600073ffffffffffffffffffffffffffffffffffffffff167fddf252ad1be2c89b69c2b068fc378daa952ba7f163c4a11628f55a4df523b3ef60405160405180910390a46156c860008383614dfd565b5050565b50805460008255906000526020600020908101906156ea9190615773565b50565b8280546156f99061725d565b90600052602060002090601f01602090048101928261571b5760008555615762565b82601f1061573457805160ff1916838001178555615762565b82800160010185558215615762579182015b82811115615761578251825591602001919060010190615746565b5b50905061576f9190615790565b5090565b5b8082111561578c576000816000905550600101615774565b5090565b5b808211156157a9576000816000905550600101615791565b5090565b60006157c06157bb84616f6f565b616f4a565b9050828152602081018484840111156157d857600080fd5b6157e384828561721b565b509392505050565b60006157fe6157f984616fa0565b616f4a565b90508281526020810184848401111561581657600080fd5b61582184828561721b565b509392505050565b600061583c61583784616fa0565b616f4a565b90508281526020810184848401111561585457600080fd5b61585f84828561722a565b509392505050565b60008135905061587681617b14565b92915050565b60008151905061588b81617b14565b92915050565b60008083601f8401126158a357600080fd5b8235905067ffffffffffffffff8111156158bc57600080fd5b6020830191508360208202830111156158d457600080fd5b9250929050565b6000813590506158ea81617b2b565b92915050565b6000815190506158ff81617b2b565b92915050565b60008135905061591481617b42565b92915050565b60008151905061592981617b42565b92915050565b60008083601f84011261594157600080fd5b8235905067ffffffffffffffff81111561595a57600080fd5b60208301915083600182028301111561597257600080fd5b9250929050565b600082601f83011261598a57600080fd5b813561599a8482602086016157ad565b91505092915050565b600082601f8301126159b457600080fd5b81356159c48482602086016157eb565b91505092915050565b600082601f8301126159de57600080fd5b81516159ee848260208601615829565b91505092915050565b600081359050615a0681617b59565b92915050565b600081519050615a1b81617b59565b92915050565b600081359050615a3081617b70565b92915050565b600060208284031215615a4857600080fd5b6000615a5684828501615867565b91505092915050565b600060208284031215615a7157600080fd5b6000615a7f8482850161587c565b91505092915050565b60008060408385031215615a9b57600080fd5b6000615aa985828601615867565b9250506020615aba85828601615867565b9150509250929050565b600080600060608486031215615ad957600080fd5b6000615ae786828701615867565b9350506020615af886828701615867565b9250506040615b09868287016159f7565b9150509250925092565b600080600080600060808688031215615b2b57600080fd5b6000615b3988828901615867565b9550506020615b4a88828901615867565b9450506040615b5b888289016159f7565b935050606086013567ffffffffffffffff811115615b7857600080fd5b615b848882890161592f565b92509250509295509295909350565b60008060008060808587031215615ba957600080fd5b6000615bb787828801615867565b9450506020615bc887828801615867565b9350506040615bd9878288016159f7565b925050606085013567ffffffffffffffff811115615bf657600080fd5b615c0287828801615979565b91505092959194509250565b60008060408385031215615c2157600080fd5b6000615c2f85828601615867565b9250506020615c40858286016158db565b9150509250929050565b60008060408385031215615c5d57600080fd5b6000615c6b85828601615867565b9250506020615c7c858286016159f7565b9150509250929050565b600080600060608486031215615c9b57600080fd5b6000615ca986828701615867565b9350506020615cba868287016159f7565b9250506040615ccb868287016159f7565b9150509250925092565b600060208284031215615ce757600080fd5b6000615cf5848285016158f0565b91505092915050565b600060208284031215615d1057600080fd5b6000615d1e84828501615905565b91505092915050565b600060208284031215615d3957600080fd5b6000615d478482850161591a565b91505092915050565b600060208284031215615d6257600080fd5b600082015167ffffffffffffffff811115615d7c57600080fd5b615d88848285016159cd565b91505092915050565b60008060008060008060c08789031215615daa57600080fd5b600087013567ffffffffffffffff811115615dc457600080fd5b615dd089828a016159a3565b965050602087013567ffffffffffffffff811115615ded57600080fd5b615df989828a016159a3565b9550506040615e0a89828a01615867565b9450506060615e1b89828a01615867565b9350506080615e2c89828a01615867565b92505060a0615e3d89828a01615867565b9150509295509295509295565b600060208284031215615e5c57600080fd5b6000615e6a848285016159f7565b91505092915050565b600060208284031215615e8557600080fd5b6000615e9384828501615a0c565b91505092915050565b600080600060408486031215615eb157600080fd5b6000615ebf868287016159f7565b935050602084013567ffffffffffffffff811115615edc57600080fd5b615ee886828701615891565b92509250509250925092565b60008060408385031215615f0757600080fd5b6000615f15858286016159f7565b9250506020615f26858286016159f7565b9150509250929050565b60008060008060008060c08789031215615f4957600080fd5b6000615f5789828a016159f7565b9650506020615f6889828a016159f7565b9550506040615f7989828a01615a21565b9450506060615f8a89828a01615a21565b9350506080615f9b89828a01615867565b92505060a0615fac89828a01615867565b9150509295509295509295565b600060208284031215615fcb57600080fd5b6000615fd984828501615a21565b91505092915050565b6000615fee83836166a0565b60208301905092915050565b600061600683836166e4565b60208301905092915050565b61601b81617193565b82525050565b600061602c82616ff1565b6160368185617037565b935061604183616fd1565b8060005b838110156160725781516160598882615fe2565b97506160648361701d565b925050600181019050616045565b5085935050505092915050565b600061608a82616ffc565b6160948185617048565b935061609f83616fe1565b8060005b838110156160d05781516160b78882615ffa565b97506160c28361702a565b9250506001810190506160a3565b5085935050505092915050565b6160e6816171a5565b82525050565b6160f5816171b1565b82525050565b600061610682617007565b6161108185617059565b935061612081856020860161722a565b616129816173a0565b840191505092915050565b600061613f82617012565b616149818561706a565b935061615981856020860161722a565b616162816173a0565b840191505092915050565b600061617882617012565b616182818561707b565b935061619281856020860161722a565b61619b816173a0565b840191505092915050565b60006161b182617012565b6161bb818561708c565b93506161cb81856020860161722a565b80840191505092915050565b60006161e460098361706a565b91506161ef826173b1565b602082019050919050565b600061620760038361708c565b9150616212826173da565b600382019050919050565b600061622a60168361706a565b915061623582617403565b602082019050919050565b600061624d60328361706a565b91506162588261742c565b604082019050919050565b600061627060258361706a565b915061627b8261747b565b604082019050919050565b6000616293601c8361706a565b915061629e826174ca565b602082019050919050565b60006162b6600e8361706a565b91506162c1826174f3565b602082019050919050565b60006162d960088361706a565b91506162e48261751c565b602082019050919050565b60006162fc60178361706a565b915061630782617545565b602082019050919050565b600061631f60248361706a565b915061632a8261756e565b604082019050919050565b600061634260198361706a565b915061634d826175bd565b602082019050919050565b6000616365600c8361706a565b9150616370826175e6565b602082019050919050565b6000616388602c8361706a565b91506163938261760f565b604082019050919050565b60006163ab60148361706a565b91506163b68261765e565b602082019050919050565b60006163ce600c8361706a565b91506163d982617687565b602082019050919050565b60006163f160388361706a565b91506163fc826176b0565b604082019050919050565b6000616414600d8361706a565b915061641f826176ff565b602082019050919050565b6000616437602a8361706a565b915061644282617728565b604082019050919050565b600061645a60298361706a565b915061646582617777565b604082019050919050565b600061647d60208361706a565b9150616488826177c6565b602082019050919050565b60006164a0602c8361706a565b91506164ab826177ef565b604082019050919050565b60006164c360168361706a565b91506164ce8261783e565b602082019050919050565b60006164e660108361706a565b91506164f182617867565b602082019050919050565b6000616509602f8361706a565b915061651482617890565b604082019050919050565b600061652c60108361706a565b9150616537826178df565b602082019050919050565b600061654f60218361706a565b915061655a82617908565b604082019050919050565b600061657260318361706a565b915061657d82617957565b604082019050919050565b6000616595600d8361706a565b91506165a0826179a6565b602082019050919050565b60006165b8602b8361706a565b91506165c3826179cf565b604082019050919050565b60006165db60028361708c565b91506165e682617a1e565b600282019050919050565b60006165fe600c8361708c565b915061660982617a47565b600c82019050919050565b6000616621601f8361706a565b915061662c82617a70565b602082019050919050565b6000616644600b8361706a565b915061664f82617a99565b602082019050919050565b600061666760098361706a565b915061667282617ac2565b602082019050919050565b600061668a600d8361706a565b915061669582617aeb565b602082019050919050565b6166a9816171fd565b82525050565b6166b8816171fd565b82525050565b6166c7816171fd565b82525050565b6166de6166d9826171fd565b617309565b82525050565b6166ed81617207565b82525050565b6166fc81617207565b82525050565b61670b81617207565b82525050565b600061671c826161fa565b915061672882846161a6565b915081905092915050565b600061673e826165ce565b915061674a82846161a6565b915081905092915050565b6000616760826165f1565b915061676c82846166cd565b60208201915081905092915050565b60006020820190506167906000830184616012565b92915050565b60006040820190506167ab6000830185616012565b6167b86020830184616012565b9392505050565b60006060820190506167d46000830186616012565b6167e16020830185616012565b6167ee60408301846166af565b949350505050565b600060808201905061680b6000830187616012565b6168186020830186616012565b61682560408301856166af565b818103606083015261683781846160fb565b905095945050505050565b600060c0820190506168576000830189616012565b6168646020830188616012565b61687160408301876166af565b61687e60608301866166af565b61688b60808301856166af565b61689860a08301846166f3565b979650505050505050565b60006040820190506168b86000830185616012565b6168c560208301846166af565b9392505050565b600060208201905081810360008301526168e68184616021565b905092915050565b600060208201905061690360008301846160dd565b92915050565b600060208201905061691e60008301846160ec565b92915050565b6000602082019050818103600083015261693e8184616134565b905092915050565b6000602082019050818103600083015261695f816161d7565b9050919050565b6000602082019050818103600083015261697f8161621d565b9050919050565b6000602082019050818103600083015261699f81616240565b9050919050565b600060208201905081810360008301526169bf81616263565b9050919050565b600060208201905081810360008301526169df81616286565b9050919050565b600060208201905081810360008301526169ff816162a9565b9050919050565b60006020820190508181036000830152616a1f816162cc565b9050919050565b60006020820190508181036000830152616a3f816162ef565b9050919050565b60006020820190508181036000830152616a5f81616312565b9050919050565b60006020820190508181036000830152616a7f81616335565b9050919050565b60006020820190508181036000830152616a9f81616358565b9050919050565b60006020820190508181036000830152616abf8161637b565b9050919050565b60006020820190508181036000830152616adf8161639e565b9050919050565b60006020820190508181036000830152616aff816163c1565b9050919050565b60006020820190508181036000830152616b1f816163e4565b9050919050565b60006020820190508181036000830152616b3f81616407565b9050919050565b60006020820190508181036000830152616b5f8161642a565b9050919050565b60006020820190508181036000830152616b7f8161644d565b9050919050565b60006020820190508181036000830152616b9f81616470565b9050919050565b60006020820190508181036000830152616bbf81616493565b9050919050565b60006020820190508181036000830152616bdf816164b6565b9050919050565b60006020820190508181036000830152616bff816164d9565b9050919050565b60006020820190508181036000830152616c1f816164fc565b9050919050565b60006020820190508181036000830152616c3f8161651f565b9050919050565b60006020820190508181036000830152616c5f81616542565b9050919050565b60006020820190508181036000830152616c7f81616565565b9050919050565b60006020820190508181036000830152616c9f81616588565b9050919050565b60006020820190508181036000830152616cbf816165ab565b9050919050565b60006020820190508181036000830152616cdf81616614565b9050919050565b60006020820190508181036000830152616cff81616637565b9050919050565b60006020820190508181036000830152616d1f8161665a565b9050919050565b60006020820190508181036000830152616d3f8161667d565b9050919050565b6000602082019050616d5b60008301846166af565b92915050565b6000606082019050616d7660008301866166af565b616d836020830185616012565b616d9060408301846166f3565b949350505050565b600060a082019050616dad60008301886166af565b8181036020830152616dbf8187616021565b90508181036040830152616dd3818661607f565b90508181036060830152616de7818561607f565b9050616df660808301846166f3565b9695505050505050565b600060a082019050616e1560008301886166be565b8181036020830152616e27818761616d565b90508181036040830152616e3b818661616d565b9050616e4a6060830185616702565b616e576080830184616702565b9695505050505050565b6000604082019050616e7660008301856166af565b616e8360208301846166af565b9392505050565b6000608082019050616e9f60008301876166af565b616eac60208301866166af565b616eb960408301856166f3565b616ec660608301846166f3565b95945050505050565b6000606082019050616ee460008301866166af565b616ef160208301856166f3565b616efe60408301846166f3565b949350505050565b6000602082019050616f1b60008301846166f3565b92915050565b6000604082019050616f3660008301856166f3565b616f4360208301846166f3565b9392505050565b6000616f54616f65565b9050616f60828261728f565b919050565b6000604051905090565b600067ffffffffffffffff821115616f8a57616f89617371565b5b616f93826173a0565b9050602081019050919050565b600067ffffffffffffffff821115616fbb57616fba617371565b5b616fc4826173a0565b9050602081019050919050565b6000819050602082019050919050565b6000819050602082019050919050565b600081519050919050565b600081519050919050565b600081519050919050565b600081519050919050565b6000602082019050919050565b6000602082019050919050565b600082825260208201905092915050565b600082825260208201905092915050565b600082825260208201905092915050565b600082825260208201905092915050565b600082825260208201905092915050565b600081905092915050565b60006170a2826171fd565b91506170ad836171fd565b9250827fffffffffffffffffffffffffffffffffffffffffffffffffffffffffffffffff038211156170e2576170e1617313565b5b828201905092915050565b60006170f882617207565b915061710383617207565b92508267ffffffffffffffff038211156171205761711f617313565b5b828201905092915050565b6000617136826171fd565b9150617141836171fd565b92508282101561715457617153617313565b5b828203905092915050565b600061716a82617207565b915061717583617207565b92508282101561718857617187617313565b5b828203905092915050565b600061719e826171dd565b9050919050565b60008115159050919050565b60007fffffffff0000000000000000000000000000000000000000000000000000000082169050919050565b600073ffffffffffffffffffffffffffffffffffffffff82169050919050565b6000819050919050565b600067ffffffffffffffff82169050919050565b82818337600083830152505050565b60005b8381101561724857808201518184015260208101905061722d565b83811115617257576000848401525b50505050565b6000600282049050600182168061727557607f821691505b6020821081141561728957617288617342565b5b50919050565b617298826173a0565b810181811067ffffffffffffffff821117156172b7576172b6617371565b5b80604052505050565b60006172cb826171fd565b91507fffffffffffffffffffffffffffffffffffffffffffffffffffffffffffffffff8214156172fe576172fd617313565b5b600182019050919050565b6000819050919050565b7f4e487b7100000000000000000000000000000000000000000000000000000000600052601160045260246000fd5b7f4e487b7100000000000000000000000000000000000000000000000000000000600052602260045260246000fd5b7f4e487b7100000000000000000000000000000000000000000000000000000000600052604160045260246000fd5b6000601f19601f8301169050919050565b7f6f6e6c7941646d696e0000000000000000000000000000000000000000000000600082015250565b7f646f2d0000000000000000000000000000000000000000000000000000000000600082015250565b7f6e6f74206f776e6572206e6f7220617070726f76656400000000000000000000600082015250565b7f4552433732313a207472616e7366657220746f206e6f6e20455243373231526560008201527f63656976657220696d706c656d656e7465720000000000000000000000000000602082015250565b7f4552433732313a207472616e736665722066726f6d20696e636f72726563742060008201527f6f776e6572000000000000000000000000000000000000000000000000000000602082015250565b7f4552433732313a20746f6b656e20616c7265616479206d696e74656400000000600082015250565b7f616c726561647920777261706564000000000000000000000000000000000000600082015250565b7f6e6f7420764e4654000000000000000000000000000000000000000000000000600082015250565b7f6e6f7420636f6e7461696e73206475726174696f6e4964000000000000000000600082015250565b7f4552433732313a207472616e7366657220746f20746865207a65726f2061646460008201527f7265737300000000000000000000000000000000000000000000000000000000602082015250565b7f4552433732313a20617070726f766520746f2063616c6c657200000000000000600082015250565b7f6f7574206f662072616e67650000000000000000000000000000000000000000600082015250565b7f4552433732313a206f70657261746f7220717565727920666f72206e6f6e657860008201527f697374656e7420746f6b656e0000000000000000000000000000000000000000602082015250565b7f696e76616c6964207374617274206f7220656e64000000000000000000000000600082015250565b7f6e6f7420636f6e7461696e730000000000000000000000000000000000000000600082015250565b7f4552433732313a20617070726f76652063616c6c6572206973206e6f74206f7760008201527f6e6572206e6f7220617070726f76656420666f7220616c6c0000000000000000602082015250565b7f63616e6e6f742072656465656d00000000000000000000000000000000000000600082015250565b7f4552433732313a2062616c616e636520717565727920666f7220746865207a6560008201527f726f206164647265737300000000000000000000000000000000000000000000602082015250565b7f4552433732313a206f776e657220717565727920666f72206e6f6e657869737460008201527f656e7420746f6b656e0000000000000000000000000000000000000000000000602082015250565b7f4552433732313a206d696e7420746f20746865207a65726f2061646472657373600082015250565b7f4552433732313a20617070726f76656420717565727920666f72206e6f6e657860008201527f697374656e7420746f6b656e0000000000000000000000000000000000000000602082015250565b7f6f6e6c7920617070726f766564206f72206f776e657200000000000000000000600082015250565b7f696e76616c6964206475726174696f6e00000000000000000000000000000000600082015250565b7f4552433732314d657461646174613a2055524920717565727920666f72206e6f60008201527f6e6578697374656e7420746f6b656e0000000000000000000000000000000000602082015250565b7f6f6e6c7950656e64696e674f776e657200000000000000000000000000000000600082015250565b7f4552433732313a20617070726f76616c20746f2063757272656e74206f776e6560008201527f7200000000000000000000000000000000000000000000000000000000000000602082015250565b7f4552433732313a207472616e736665722063616c6c6572206973206e6f74206f60008201527f776e6572206e6f7220617070726f766564000000000000000000000000000000602082015250565b7f6d7573742066726f6d206e6f7700000000000000000000000000000000000000600082015250565b7f496e697469616c697a61626c653a20636f6e7472616374206973206e6f74206960008201527f6e697469616c697a696e67000000000000000000000000000000000000000000602082015250565b7f762d000000000000000000000000000000000000000000000000000000000000600082015250565b7f6e6f7420636f6e7461696c730000000000000000000000000000000000000000600082015250565b7f5265656e7472616e637947756172643a207265656e7472616e742063616c6c00600082015250565b7f696e76616c696420656e64000000000000000000000000000000000000000000600082015250565b7f6f6e6c794f776e65720000000000000000000000000000000000000000000000600082015250565b7f696e76616c696420737461727400000000000000000000000000000000000000600082015250565b617b1d81617193565b8114617b2857600080fd5b50565b617b34816171a5565b8114617b3f57600080fd5b50565b617b4b816171b1565b8114617b5657600080fd5b50565b617b62816171fd565b8114617b6d57600080fd5b50565b617b7981617207565b8114617b8457600080fd5b5056fea2646970667358221220d6e85b7562998d5480072537629c8fb72543d5100467bbd95014ab8f7090cbe964736f6c63430008040033",
  "linkReferences": {
    "contracts/DoubleSVG.sol": {
      "DoubleSVG": [
        {
          "length": 20,
          "start": 12083
        }
      ]
    }
  },
  "deployedLinkReferences": {
    "contracts/DoubleSVG.sol": {
      "DoubleSVG": [
        {
          "length": 20,
          "start": 12050
        }
      ]
    }
  }
}