{
  "_format": "hh-sol-artifact-1",
  "contractName": "doNft",
  "sourceName": "contracts/doNFT/doNft.sol",
  "abi": [
    {
      "anonymous": false,
      "inputs": [
        {
          "indexed": true,
          "internalType": "address",
          "name": "owner",
          "type": "address"
        },
        {
          "indexed": true,
          "internalType": "address",
          "name": "approved",
          "type": "address"
        },
        {
          "indexed": true,
          "internalType": "uint256",
          "name": "tokenId",
          "type": "uint256"
        }
      ],
      "name": "Approval",
      "type": "event"
    },
    {
      "anonymous": false,
      "inputs": [
        {
          "indexed": true,
          "internalType": "address",
          "name": "owner",
          "type": "address"
        },
        {
          "indexed": true,
          "internalType": "address",
          "name": "operator",
          "type": "address"
        },
        {
          "indexed": false,
          "internalType": "bool",
          "name": "approved",
          "type": "bool"
        }
      ],
      "name": "ApprovalForAll",
      "type": "event"
    },
    {
      "anonymous": false,
      "inputs": [
        {
          "indexed": false,
          "internalType": "address",
          "name": "opreator",
          "type": "address"
        },
        {
          "indexed": false,
          "internalType": "address",
          "name": "to",
          "type": "address"
        },
        {
          "indexed": false,
          "internalType": "uint256",
          "name": "tokenId",
          "type": "uint256"
        },
        {
          "indexed": false,
          "internalType": "uint256",
          "name": "durationId",
          "type": "uint256"
        },
        {
          "indexed": false,
          "internalType": "uint256",
          "name": "oid",
          "type": "uint256"
        },
        {
          "indexed": false,
          "internalType": "uint64",
          "name": "expires",
          "type": "uint64"
        }
      ],
      "name": "CheckIn",
      "type": "event"
    },
    {
      "anonymous": false,
      "inputs": [
        {
          "indexed": false,
          "internalType": "uint256[]",
          "name": "durationIdList",
          "type": "uint256[]"
        }
      ],
      "name": "DurationBurn",
      "type": "event"
    },
    {
      "anonymous": false,
      "inputs": [
        {
          "indexed": false,
          "internalType": "uint256",
          "name": "durationId",
          "type": "uint256"
        },
        {
          "indexed": false,
          "internalType": "uint256",
          "name": "tokenId",
          "type": "uint256"
        },
        {
          "indexed": false,
          "internalType": "uint64",
          "name": "start",
          "type": "uint64"
        },
        {
          "indexed": false,
          "internalType": "uint64",
          "name": "end",
          "type": "uint64"
        }
      ],
      "name": "DurationUpdate",
      "type": "event"
    },
    {
      "anonymous": false,
      "inputs": [
        {
          "indexed": false,
          "internalType": "uint8",
          "name": "version",
          "type": "uint8"
        }
      ],
      "name": "Initialized",
      "type": "event"
    },
    {
      "anonymous": false,
      "inputs": [
        {
          "indexed": false,
          "internalType": "uint256",
          "name": "tokenId",
          "type": "uint256"
        }
      ],
      "name": "MetadataUpdate",
      "type": "event"
    },
    {
      "anonymous": false,
      "inputs": [
        {
          "indexed": false,
          "internalType": "address",
          "name": "oldAdmin",
          "type": "address"
        },
        {
          "indexed": false,
          "internalType": "address",
          "name": "newAdmin",
          "type": "address"
        }
      ],
      "name": "NewAdmin",
      "type": "event"
    },
    {
      "anonymous": false,
      "inputs": [
        {
          "indexed": false,
          "internalType": "address",
          "name": "oldOwner",
          "type": "address"
        },
        {
          "indexed": false,
          "internalType": "address",
          "name": "newOwner",
          "type": "address"
        }
      ],
      "name": "NewOwner",
      "type": "event"
    },
    {
      "anonymous": false,
      "inputs": [
        {
          "indexed": false,
          "internalType": "address",
          "name": "oldPendingOwner",
          "type": "address"
        },
        {
          "indexed": false,
          "internalType": "address",
          "name": "newPendingOwner",
          "type": "address"
        }
      ],
      "name": "NewPendingOwner",
      "type": "event"
    },
    {
      "anonymous": false,
      "inputs": [
        {
          "indexed": false,
          "internalType": "uint256",
          "name": "oid",
          "type": "uint256"
        },
        {
          "indexed": false,
          "internalType": "uint256",
          "name": "tokenId",
          "type": "uint256"
        }
      ],
      "name": "Redeem",
      "type": "event"
    },
    {
      "anonymous": false,
      "inputs": [
        {
          "indexed": true,
          "internalType": "address",
          "name": "from",
          "type": "address"
        },
        {
          "indexed": true,
          "internalType": "address",
          "name": "to",
          "type": "address"
        },
        {
          "indexed": true,
          "internalType": "uint256",
          "name": "tokenId",
          "type": "uint256"
        }
      ],
      "name": "Transfer",
      "type": "event"
    },
    {
      "inputs": [],
      "name": "acceptOwner",
      "outputs": [],
      "stateMutability": "nonpayable",
      "type": "function"
    },
    {
      "inputs": [],
      "name": "admin",
      "outputs": [
        {
          "internalType": "address",
          "name": "",
          "type": "address"
        }
      ],
      "stateMutability": "view",
      "type": "function"
    },
    {
      "inputs": [
        {
          "internalType": "address",
          "name": "to",
          "type": "address"
        },
        {
          "internalType": "uint256",
          "name": "tokenId",
          "type": "uint256"
        }
      ],
      "name": "approve",
      "outputs": [],
      "stateMutability": "nonpayable",
      "type": "function"
    },
    {
      "inputs": [
        {
          "internalType": "address",
          "name": "owner",
          "type": "address"
        }
      ],
      "name": "balanceOf",
      "outputs": [
        {
          "internalType": "uint256",
          "name": "",
          "type": "uint256"
        }
      ],
      "stateMutability": "view",
      "type": "function"
    },
    {
      "inputs": [
        {
          "internalType": "address",
          "name": "to",
          "type": "address"
        },
        {
          "internalType": "uint256",
          "name": "tokenId",
          "type": "uint256"
        },
        {
          "internalType": "uint256",
          "name": "durationId",
          "type": "uint256"
        }
      ],
      "name": "checkIn",
      "outputs": [],
      "stateMutability": "nonpayable",
      "type": "function"
    },
    {
      "inputs": [
        {
          "internalType": "uint256",
          "name": "tokenId",
          "type": "uint256"
        },
        {
          "internalType": "uint256",
          "name": "durationId",
          "type": "uint256"
        },
        {
          "internalType": "uint256",
          "name": "targetTokenId",
          "type": "uint256"
        },
        {
          "internalType": "uint256",
          "name": "targetDurationId",
          "type": "uint256"
        }
      ],
      "name": "concat",
      "outputs": [],
      "stateMutability": "nonpayable",
      "type": "function"
    },
    {
      "inputs": [
        {
          "internalType": "uint256",
          "name": "tokenId",
          "type": "uint256"
        },
        {
          "internalType": "uint256",
          "name": "durationId",
          "type": "uint256"
        }
      ],
      "name": "contains",
      "outputs": [
        {
          "internalType": "bool",
          "name": "",
          "type": "bool"
        }
      ],
      "stateMutability": "view",
      "type": "function"
    },
    {
      "inputs": [
        {
          "internalType": "uint256",
          "name": "tokenId",
          "type": "uint256"
        },
        {
          "internalType": "uint256[]",
          "name": "durationIds",
          "type": "uint256[]"
        }
      ],
      "name": "couldRedeem",
      "outputs": [
        {
          "internalType": "bool",
          "name": "",
          "type": "bool"
        }
      ],
      "stateMutability": "view",
      "type": "function"
    },
    {
      "inputs": [],
      "name": "curDoid",
      "outputs": [
        {
          "internalType": "uint256",
          "name": "",
          "type": "uint256"
        }
      ],
      "stateMutability": "view",
      "type": "function"
    },
    {
      "inputs": [],
      "name": "curDurationId",
      "outputs": [
        {
          "internalType": "uint256",
          "name": "",
          "type": "uint256"
        }
      ],
      "stateMutability": "view",
      "type": "function"
    },
    {
      "inputs": [
        {
          "internalType": "uint256",
          "name": "tokenId",
          "type": "uint256"
        }
      ],
      "name": "exists",
      "outputs": [
        {
          "internalType": "bool",
          "name": "",
          "type": "bool"
        }
      ],
      "stateMutability": "view",
      "type": "function"
    },
    {
      "inputs": [
        {
          "internalType": "uint256",
          "name": "tokenId",
          "type": "uint256"
        }
      ],
      "name": "getApproved",
      "outputs": [
        {
          "internalType": "address",
          "name": "",
          "type": "address"
        }
      ],
      "stateMutability": "view",
      "type": "function"
    },
    {
      "inputs": [
        {
          "internalType": "uint256",
          "name": "tokenId",
          "type": "uint256"
        }
      ],
      "name": "getDoNftInfo",
      "outputs": [
        {
          "internalType": "uint256",
          "name": "oid",
          "type": "uint256"
        },
        {
          "internalType": "uint256[]",
          "name": "durationIds",
          "type": "uint256[]"
        },
        {
          "internalType": "uint64[]",
          "name": "starts",
          "type": "uint64[]"
        },
        {
          "internalType": "uint64[]",
          "name": "ends",
          "type": "uint64[]"
        },
        {
          "internalType": "uint64",
          "name": "nonce",
          "type": "uint64"
        }
      ],
      "stateMutability": "view",
      "type": "function"
    },
    {
      "inputs": [
        {
          "internalType": "uint256",
          "name": "durationId",
          "type": "uint256"
        }
      ],
      "name": "getDuration",
      "outputs": [
        {
          "internalType": "uint64",
          "name": "",
          "type": "uint64"
        },
        {
          "internalType": "uint64",
          "name": "",
          "type": "uint64"
        }
      ],
      "stateMutability": "view",
      "type": "function"
    },
    {
      "inputs": [
        {
          "internalType": "uint256",
          "name": "tokenId",
          "type": "uint256"
        },
        {
          "internalType": "uint256",
          "name": "index",
          "type": "uint256"
        }
      ],
      "name": "getDurationByIndex",
      "outputs": [
        {
          "internalType": "uint256",
          "name": "durationId",
          "type": "uint256"
        },
        {
          "internalType": "uint64",
          "name": "start",
          "type": "uint64"
        },
        {
          "internalType": "uint64",
          "name": "end",
          "type": "uint64"
        }
      ],
      "stateMutability": "view",
      "type": "function"
    },
    {
      "inputs": [
        {
          "internalType": "uint256",
          "name": "tokenId",
          "type": "uint256"
        }
      ],
      "name": "getDurationIdList",
      "outputs": [
        {
          "internalType": "uint256[]",
          "name": "",
          "type": "uint256[]"
        }
      ],
      "stateMutability": "view",
      "type": "function"
    },
    {
      "inputs": [
        {
          "internalType": "uint256",
          "name": "tokenId",
          "type": "uint256"
        }
      ],
      "name": "getDurationListLength",
      "outputs": [
        {
          "internalType": "uint256",
          "name": "",
          "type": "uint256"
        }
      ],
      "stateMutability": "view",
      "type": "function"
    },
    {
      "inputs": [],
      "name": "getMaxDuration",
      "outputs": [
        {
          "internalType": "uint64",
          "name": "",
          "type": "uint64"
        }
      ],
      "stateMutability": "view",
      "type": "function"
    },
    {
      "inputs": [
        {
          "internalType": "uint256",
          "name": "tokenId",
          "type": "uint256"
        }
      ],
      "name": "getNonce",
      "outputs": [
        {
          "internalType": "uint64",
          "name": "",
          "type": "uint64"
        }
      ],
      "stateMutability": "view",
      "type": "function"
    },
    {
      "inputs": [],
      "name": "getOriginalNftAddress",
      "outputs": [
        {
          "internalType": "address",
          "name": "",
          "type": "address"
        }
      ],
      "stateMutability": "view",
      "type": "function"
    },
    {
      "inputs": [
        {
          "internalType": "uint256",
          "name": "tokenId",
          "type": "uint256"
        }
      ],
      "name": "getOriginalNftId",
      "outputs": [
        {
          "internalType": "uint256",
          "name": "",
          "type": "uint256"
        }
      ],
      "stateMutability": "view",
      "type": "function"
    },
    {
      "inputs": [
        {
          "internalType": "uint256",
          "name": "originalNftId",
          "type": "uint256"
        }
      ],
      "name": "getUser",
      "outputs": [
        {
          "internalType": "address",
          "name": "",
          "type": "address"
        }
      ],
      "stateMutability": "view",
      "type": "function"
    },
    {
      "inputs": [
        {
          "internalType": "uint256",
          "name": "originalNftId",
          "type": "uint256"
        }
      ],
      "name": "getVNftId",
      "outputs": [
        {
          "internalType": "uint256",
          "name": "",
          "type": "uint256"
        }
      ],
      "stateMutability": "view",
      "type": "function"
    },
    {
      "inputs": [
        {
          "internalType": "string",
          "name": "name_",
          "type": "string"
        },
        {
          "internalType": "string",
          "name": "symbol_",
          "type": "string"
        },
        {
          "internalType": "address",
          "name": "nftAddress_",
          "type": "address"
        },
        {
          "internalType": "address",
          "name": "market_",
          "type": "address"
        },
        {
          "internalType": "address",
          "name": "owner_",
          "type": "address"
        },
        {
          "internalType": "address",
          "name": "admin_",
          "type": "address"
        }
      ],
      "name": "initialize",
      "outputs": [],
      "stateMutability": "nonpayable",
      "type": "function"
    },
    {
      "inputs": [
        {
          "internalType": "address",
          "name": "owner",
          "type": "address"
        },
        {
          "internalType": "address",
          "name": "operator",
          "type": "address"
        }
      ],
      "name": "isApprovedForAll",
      "outputs": [
        {
          "internalType": "bool",
          "name": "",
          "type": "bool"
        }
      ],
      "stateMutability": "view",
      "type": "function"
    },
    {
      "inputs": [
        {
          "internalType": "uint256",
          "name": "tokenId",
          "type": "uint256"
        }
      ],
      "name": "isVNft",
      "outputs": [
        {
          "internalType": "bool",
          "name": "",
          "type": "bool"
        }
      ],
      "stateMutability": "view",
      "type": "function"
    },
    {
      "inputs": [
        {
          "internalType": "uint256",
          "name": "tokenId",
          "type": "uint256"
        }
      ],
      "name": "isValidNow",
      "outputs": [
        {
          "internalType": "bool",
          "name": "isValid",
          "type": "bool"
        }
      ],
      "stateMutability": "view",
      "type": "function"
    },
    {
      "inputs": [],
      "name": "market",
      "outputs": [
        {
          "internalType": "address",
          "name": "",
          "type": "address"
        }
      ],
      "stateMutability": "view",
      "type": "function"
    },
    {
      "inputs": [],
      "name": "maxDuration",
      "outputs": [
        {
          "internalType": "uint64",
          "name": "",
          "type": "uint64"
        }
      ],
      "stateMutability": "view",
      "type": "function"
    },
    {
      "inputs": [
        {
          "internalType": "uint256",
          "name": "tokenId",
          "type": "uint256"
        },
        {
          "internalType": "uint256",
          "name": "durationId",
          "type": "uint256"
        },
        {
          "internalType": "uint64",
          "name": "start",
          "type": "uint64"
        },
        {
          "internalType": "uint64",
          "name": "end",
          "type": "uint64"
        },
        {
          "internalType": "address",
          "name": "to",
          "type": "address"
        },
        {
          "internalType": "address",
          "name": "user",
          "type": "address"
        }
      ],
      "name": "mint",
      "outputs": [
        {
          "internalType": "uint256",
          "name": "tid",
          "type": "uint256"
        }
      ],
      "stateMutability": "nonpayable",
      "type": "function"
    },
    {
      "inputs": [
        {
          "internalType": "uint256",
          "name": "oid",
          "type": "uint256"
        }
      ],
      "name": "mintVNft",
      "outputs": [
        {
          "internalType": "uint256",
          "name": "tid",
          "type": "uint256"
        }
      ],
      "stateMutability": "nonpayable",
      "type": "function"
    },
    {
      "inputs": [],
      "name": "name",
      "outputs": [
        {
          "internalType": "string",
          "name": "",
          "type": "string"
        }
      ],
      "stateMutability": "view",
      "type": "function"
    },
    {
      "inputs": [
        {
          "internalType": "address",
          "name": "operator",
          "type": "address"
        },
        {
          "internalType": "address",
          "name": "from",
          "type": "address"
        },
        {
          "internalType": "uint256",
          "name": "tokenId",
          "type": "uint256"
        },
        {
          "internalType": "bytes",
          "name": "data",
          "type": "bytes"
        }
      ],
      "name": "onERC721Received",
      "outputs": [
        {
          "internalType": "bytes4",
          "name": "",
          "type": "bytes4"
        }
      ],
      "stateMutability": "pure",
      "type": "function"
    },
    {
      "inputs": [],
      "name": "owner",
      "outputs": [
        {
          "internalType": "address",
          "name": "",
          "type": "address"
        }
      ],
      "stateMutability": "view",
      "type": "function"
    },
    {
      "inputs": [
        {
          "internalType": "uint256",
          "name": "tokenId",
          "type": "uint256"
        }
      ],
      "name": "ownerOf",
      "outputs": [
        {
          "internalType": "address",
          "name": "",
          "type": "address"
        }
      ],
      "stateMutability": "view",
      "type": "function"
    },
    {
      "inputs": [],
      "name": "pendingOwner",
      "outputs": [
        {
          "internalType": "address",
          "name": "",
          "type": "address"
        }
      ],
      "stateMutability": "view",
      "type": "function"
    },
    {
      "inputs": [
        {
          "internalType": "uint256",
          "name": "tokenId",
          "type": "uint256"
        },
        {
          "internalType": "uint256[]",
          "name": "durationIds",
          "type": "uint256[]"
        }
      ],
      "name": "redeem",
      "outputs": [],
      "stateMutability": "nonpayable",
      "type": "function"
    },
    {
      "inputs": [],
      "name": "renounceOwnership",
      "outputs": [],
      "stateMutability": "nonpayable",
      "type": "function"
    },
    {
      "inputs": [
        {
          "internalType": "address",
          "name": "from",
          "type": "address"
        },
        {
          "internalType": "address",
          "name": "to",
          "type": "address"
        },
        {
          "internalType": "uint256",
          "name": "tokenId",
          "type": "uint256"
        }
      ],
      "name": "safeTransferFrom",
      "outputs": [],
      "stateMutability": "nonpayable",
      "type": "function"
    },
    {
      "inputs": [
        {
          "internalType": "address",
          "name": "from",
          "type": "address"
        },
        {
          "internalType": "address",
          "name": "to",
          "type": "address"
        },
        {
          "internalType": "uint256",
          "name": "tokenId",
          "type": "uint256"
        },
        {
          "internalType": "bytes",
          "name": "_data",
          "type": "bytes"
        }
      ],
      "name": "safeTransferFrom",
      "outputs": [],
      "stateMutability": "nonpayable",
      "type": "function"
    },
    {
      "inputs": [
        {
          "internalType": "address",
          "name": "newAdmin",
          "type": "address"
        }
      ],
      "name": "setAdmin",
      "outputs": [],
      "stateMutability": "nonpayable",
      "type": "function"
    },
    {
      "inputs": [
        {
          "internalType": "address",
          "name": "operator",
          "type": "address"
        },
        {
          "internalType": "bool",
          "name": "approved",
          "type": "bool"
        }
      ],
      "name": "setApprovalForAll",
      "outputs": [],
      "stateMutability": "nonpayable",
      "type": "function"
    },
    {
      "inputs": [
        {
          "internalType": "bool",
          "name": "v",
          "type": "bool"
        }
      ],
      "name": "setIsOnlyNow",
      "outputs": [],
      "stateMutability": "nonpayable",
      "type": "function"
    },
    {
      "inputs": [
        {
          "internalType": "address",
          "name": "_market",
          "type": "address"
        }
      ],
      "name": "setMarket",
      "outputs": [],
      "stateMutability": "nonpayable",
      "type": "function"
    },
    {
      "inputs": [
        {
          "internalType": "uint64",
          "name": "v",
          "type": "uint64"
        }
      ],
      "name": "setMaxDuration",
      "outputs": [],
      "stateMutability": "nonpayable",
      "type": "function"
    },
    {
      "inputs": [
        {
          "internalType": "bytes4",
          "name": "interfaceId",
          "type": "bytes4"
        }
      ],
      "name": "supportsInterface",
      "outputs": [
        {
          "internalType": "bool",
          "name": "",
          "type": "bool"
        }
      ],
      "stateMutability": "view",
      "type": "function"
    },
    {
      "inputs": [],
      "name": "symbol",
      "outputs": [
        {
          "internalType": "string",
          "name": "",
          "type": "string"
        }
      ],
      "stateMutability": "view",
      "type": "function"
    },
    {
      "inputs": [
        {
          "internalType": "uint256",
          "name": "tokenId",
          "type": "uint256"
        }
      ],
      "name": "tokenURI",
      "outputs": [
        {
          "internalType": "string",
          "name": "",
          "type": "string"
        }
      ],
      "stateMutability": "view",
      "type": "function"
    },
    {
      "inputs": [
        {
          "internalType": "address",
          "name": "from",
          "type": "address"
        },
        {
          "internalType": "address",
          "name": "to",
          "type": "address"
        },
        {
          "internalType": "uint256",
          "name": "tokenId",
          "type": "uint256"
        }
      ],
      "name": "transferFrom",
      "outputs": [],
      "stateMutability": "nonpayable",
      "type": "function"
    },
    {
      "inputs": [
        {
          "internalType": "address",
          "name": "_pendingOwner",
          "type": "address"
        }
      ],
      "name": "transferOwnership",
      "outputs": [],
      "stateMutability": "nonpayable",
      "type": "function"
    }
  ],
  "bytecode": "0x60806040523480156200001157600080fd5b506186a880620000226000396000f3fe608060405234801561001057600080fd5b50600436106102d55760003560e01c80638da5cb5b11610182578063c87b56dd116100e9578063e56f2fe4116100a2578063f01478321161007c578063f014783214610991578063f2fde38b146109ad578063f851a440146109c9578063fd83de62146109e7576102d5565b8063e56f2fe41461093b578063e985e9c514610957578063ebbc496514610987576102d5565b8063c87b56dd1461083f578063cb697d1e1461086f578063d816f0911461089f578063dbe102c0146108bb578063e30c3978146108eb578063e42e66a914610909576102d5565b8063a83284121161013b578063a83284121461076b578063abb2176a1461079b578063b0467deb146107b9578063b49a2db9146107e9578063b88d4fde14610807578063c4a0db9614610823576102d5565b80638da5cb5b146106a957806395d89b41146106c757806398e5d38f146106e5578063a050ac8f14610701578063a22cb4651461071f578063a6cc26501461073b576102d5565b80633ed189cf116102415780636db5c8fd116101fa57806370a08231116101d457806370a0823114610620578063715018a61461065057806380f556051461065a5780638bb126a714610678576102d5565b80636db5c8fd146105ca5780636dcea85f146105e8578063704b6c0214610604576102d5565b80633ed189cf146104ba57806342842e0e146104ea578063438e15fc146105065780634f558e791461053657806352332ed8146105665780636352211e1461059a576102d5565b8063150b7a0211610293578063150b7a02146103c05780631aa14498146103f057806323b872dd1461042057806325cb25b01461043c578063393b17a41461045a5780633d46b8191461048a576102d5565b806295d645146102da57806301ffc9a7146102f657806306fdde0314610326578063081812fc14610344578063095ea7b31461037457806310c1185414610390575b600080fd5b6102f460048036038101906102ef91906165bf565b610a17565b005b610310600480360381019061030b9190616611565b610b1a565b60405161031d91906172cd565b60405180910390f35b61032e610b94565b60405161033b9190617303565b60405180910390f35b61035e6004803603810190610359919061675d565b610c26565b60405161036b919061715a565b60405180910390f35b61038e60048036038101906103899190616534565b610cab565b005b6103aa60048036038101906103a591906168a6565b610dc3565b6040516103b79190617785565b60405180910390f35b6103da60048036038101906103d591906163fd565b611391565b6040516103e791906172e8565b60405180910390f35b61040a6004803603810190610405919061675d565b6113ab565b6040516104179190617785565b60405180910390f35b61043a600480360381019061043591906163ae565b6113d0565b005b610444611430565b604051610451919061715a565b60405180910390f35b610474600480360381019061046f919061675d565b61145a565b60405161048191906172cd565b60405180910390f35b6104a4600480360381019061049f919061675d565b611555565b6040516104b19190617945565b60405180910390f35b6104d460048036038101906104cf919061675d565b611589565b6040516104e19190617785565b60405180910390f35b61050460048036038101906104ff91906163ae565b6115a6565b005b610520600480360381019061051b9190616807565b6115c6565b60405161052d91906172cd565b60405180910390f35b610550600480360381019061054b919061675d565b6115f8565b60405161055d91906172cd565b60405180910390f35b610580600480360381019061057b919061675d565b61160a565b6040516105919594939291906177d7565b60405180910390f35b6105b460048036038101906105af919061675d565b61189c565b6040516105c1919061715a565b60405180910390f35b6105d261194e565b6040516105df9190617945565b60405180910390f35b61060260048036038101906105fd9190616320565b611968565b005b61061e60048036038101906106199190616320565b611a8e565b005b61063a60048036038101906106359190616320565b611bbb565b6040516106479190617785565b60405180910390f35b610658611c73565b005b610662611eda565b60405161066f919061715a565b60405180910390f35b610692600480360381019061068d919061675d565b611f00565b6040516106a0929190617960565b60405180910390f35b6106b1611f56565b6040516106be919061715a565b60405180910390f35b6106cf611f7a565b6040516106dc9190617303565b60405180910390f35b6106ff60048036038101906106fa9190616570565b61200c565b005b6107096120ed565b6040516107169190617785565b60405180910390f35b610739600480360381019061073491906164f8565b6120f3565b005b6107556004803603810190610750919061675d565b612109565b6040516107629190617785565b60405180910390f35b6107856004803603810190610780919061675d565b612a32565b60405161079291906172cd565b60405180910390f35b6107a3612a79565b6040516107b09190617785565b60405180910390f35b6107d360048036038101906107ce919061675d565b612a7f565b6040516107e0919061715a565b60405180910390f35b6107f1612b33565b6040516107fe9190617945565b60405180910390f35b610821600480360381019061081c919061647d565b612b51565b005b61083d600480360381019061083891906167af565b612bb3565b005b6108596004803603810190610854919061675d565b612fd4565b6040516108669190617303565b60405180910390f35b610889600480360381019061088491906167af565b613440565b60405161089691906172cd565b60405180910390f35b6108b960048036038101906108b49190616843565b61373a565b005b6108d560048036038101906108d0919061675d565b613b5f565b6040516108e291906172ab565b60405180910390f35b6108f3613b8c565b604051610900919061715a565b60405180910390f35b610923600480360381019061091e9190616807565b613bb2565b6040516109329392919061790e565b60405180910390f35b610955600480360381019061095091906166a4565b613c4b565b005b610971600480360381019061096c9190616372565b613c61565b60405161097e91906172cd565b60405180910390f35b61098f613cf5565b005b6109ab60048036038101906109a6919061692f565b613f03565b005b6109c760048036038101906109c29190616320565b614015565b005b6109d1614142565b6040516109de919061715a565b60405180910390f35b610a0160048036038101906109fc919061675d565b614168565b604051610a0e9190617785565b60405180910390f35b600260009054906101000a900473ffffffffffffffffffffffffffffffffffffffff1673ffffffffffffffffffffffffffffffffffffffff163373ffffffffffffffffffffffffffffffffffffffff161480610abe575060008054906101000a900473ffffffffffffffffffffffffffffffffffffffff1673ffffffffffffffffffffffffffffffffffffffff163373ffffffffffffffffffffffffffffffffffffffff16145b610afd576040517f08c379a0000000000000000000000000000000000000000000000000000000008152600401610af490617325565b60405180910390fd5b8060d360006101000a81548160ff02191690831515021790555050565b60007fe56f2fe4000000000000000000000000000000000000000000000000000000007bffffffffffffffffffffffffffffffffffffffffffffffffffffffff1916827bffffffffffffffffffffffffffffffffffffffffffffffffffffffff19161480610b8d5750610b8c8261418f565b5b9050919050565b606060678054610ba390617c9c565b80601f0160208091040260200160405190810160405280929190818152602001828054610bcf90617c9c565b8015610c1c5780601f10610bf157610100808354040283529160200191610c1c565b820191906000526020600020905b815481529060010190602001808311610bff57829003601f168201915b5050505050905090565b6000610c3182614209565b610c70576040517f08c379a0000000000000000000000000000000000000000000000000000000008152600401610c67906175e5565b60405180910390fd5b606b600083815260200190815260200160002060009054906101000a900473ffffffffffffffffffffffffffffffffffffffff169050919050565b6000610cb68261189c565b90508073ffffffffffffffffffffffffffffffffffffffff168373ffffffffffffffffffffffffffffffffffffffff161415610d27576040517f08c379a0000000000000000000000000000000000000000000000000000000008152600401610d1e90617685565b60405180910390fd5b8073ffffffffffffffffffffffffffffffffffffffff16610d46614275565b73ffffffffffffffffffffffffffffffffffffffff161480610d755750610d7481610d6f614275565b613c61565b5b610db4576040517f08c379a0000000000000000000000000000000000000000000000000000000008152600401610dab90617545565b60405180910390fd5b610dbe838361427d565b505050565b60008460d360009054906101000a900460ff1615610e2957428167ffffffffffffffff161115610e28576040517f08c379a0000000000000000000000000000000000000000000000000000000008152600401610e1f906176c5565b60405180910390fd5b5b60026099541415610e6f576040517f08c379a0000000000000000000000000000000000000000000000000000000008152600401610e6690617705565b60405180910390fd5b6002609981905550428667ffffffffffffffff161015610e8d574295505b610e9e610e98614275565b89614336565b610edd576040517f08c379a0000000000000000000000000000000000000000000000000000000008152600401610ed490617365565b60405180910390fd5b8567ffffffffffffffff168567ffffffffffffffff16118015610f35575060cf60009054906101000a900467ffffffffffffffff1667ffffffffffffffff1642610f279190617ad6565b8567ffffffffffffffff1611155b610f74576040517f08c379a0000000000000000000000000000000000000000000000000000000008152600401610f6b906174e5565b60405180910390fd5b600060d060008a81526020019081526020016000209050610f9589896115c6565b610fd4576040517f08c379a0000000000000000000000000000000000000000000000000000000008152600401610fcb90617445565b60405180910390fd5b600060d160008a815260200190815260200160002090508060000160009054906101000a900467ffffffffffffffff1667ffffffffffffffff168867ffffffffffffffff161015801561105357508060000160089054906101000a900467ffffffffffffffff1667ffffffffffffffff168767ffffffffffffffff1611155b611092576040517f08c379a000000000000000000000000000000000000000000000000000000000815260040161108990617625565b60405180910390fd5b60008160000160009054906101000a900467ffffffffffffffff1667ffffffffffffffff168967ffffffffffffffff161480156110fa57508160000160089054906101000a900467ffffffffffffffff1667ffffffffffffffff168867ffffffffffffffff16145b156111435761110f8784600001548b8b6143aa565b945060ce5490506111208b8b6143d1565b600061112e8460020161453d565b141561113e5761113d8b614552565b5b611326565b8160000160009054906101000a900467ffffffffffffffff1667ffffffffffffffff168967ffffffffffffffff161480156111aa57508160000160089054906101000a900467ffffffffffffffff1667ffffffffffffffff168867ffffffffffffffff1614155b156111eb576001886111bc9190617b2c565b8260000160006101000a81548167ffffffffffffffff021916908367ffffffffffffffff16021790555061130e565b8160000160009054906101000a900467ffffffffffffffff1667ffffffffffffffff168967ffffffffffffffff161415801561125257508160000160089054906101000a900467ffffffffffffffff1667ffffffffffffffff168867ffffffffffffffff16145b15611293576001896112649190617b9e565b8260000160086101000a81548167ffffffffffffffff021916908367ffffffffffffffff16021790555061130d565b428967ffffffffffffffff1611156112d5576112d48b8360000160009054906101000a900467ffffffffffffffff1660018c6112cf9190617b9e565b6145b5565b5b6001886112e29190617b2c565b8260000160006101000a81548167ffffffffffffffff021916908367ffffffffffffffff1602179055505b5b61131e8784600001548b8b6143aa565b945060ce5490505b428967ffffffffffffffff1614156113445761134386868361200c565b5b7ff8e1a15aba9398e019f0b49df1a4fde98ee17ae345cb5f6b5e2c27f5033e8ce78b6040516113739190617785565b60405180910390a15050506001609981905550509695505050505050565b60008063150b7a0260e01b90508091505095945050505050565b60008060d0600084815260200190815260200160002090508060000154915050919050565b6113e16113db614275565b82614336565b611420576040517f08c379a0000000000000000000000000000000000000000000000000000000008152600401611417906176a5565b60405180910390fd5b61142b8383836146db565b505050565b600060cb60009054906101000a900473ffffffffffffffffffffffffffffffffffffffff16905090565b60008060d06000848152602001908152602001600020905060006114808260020161453d565b9050600080600090505b82811015611547576114a8818560020161494290919063ffffffff16565b91504260d1600084815260200190815260200160002060000160009054906101000a900467ffffffffffffffff1667ffffffffffffffff1611158015611522575060d1600083815260200190815260200160002060000160089054906101000a900467ffffffffffffffff1667ffffffffffffffff164211155b15611534576001945050505050611550565b808061153f90617cff565b91505061148a565b50600093505050505b919050565b600060d0600083815260200190815260200160002060010160009054906101000a900467ffffffffffffffff169050919050565b600060d26000838152602001908152602001600020549050919050565b6115c183838360405180602001604052806000815250612b51565b505050565b60006115f08260d0600086815260200190815260200160002060020161495c90919063ffffffff16565b905092915050565b600061160382614209565b9050919050565b6000606080606060008060d060008881526020019081526020016000209050806000015495508060010160009054906101000a900467ffffffffffffffff16915060006116598260020161453d565b905060008167ffffffffffffffff81111561169d577f4e487b7100000000000000000000000000000000000000000000000000000000600052604160045260246000fd5b6040519080825280602002602001820160405280156116cb5781602001602082028036833780820191505090505b5095508167ffffffffffffffff81111561170e577f4e487b7100000000000000000000000000000000000000000000000000000000600052604160045260246000fd5b60405190808252806020026020018201604052801561173c5781602001602082028036833780820191505090505b50945061174b83600201614976565b965060005b8281101561188f5761176e818560020161494290919063ffffffff16565b915060d1600083815260200190815260200160002060000160009054906101000a900467ffffffffffffffff168782815181106117d4577f4e487b7100000000000000000000000000000000000000000000000000000000600052603260045260246000fd5b602002602001019067ffffffffffffffff16908167ffffffffffffffff168152505060d1600083815260200190815260200160002060000160089054906101000a900467ffffffffffffffff1686828151811061185a577f4e487b7100000000000000000000000000000000000000000000000000000000600052603260045260246000fd5b602002602001019067ffffffffffffffff16908167ffffffffffffffff1681525050808061188790617cff565b915050611750565b5050505091939590929450565b6000806069600084815260200190815260200160002060009054906101000a900473ffffffffffffffffffffffffffffffffffffffff169050600073ffffffffffffffffffffffffffffffffffffffff168173ffffffffffffffffffffffffffffffffffffffff161415611945576040517f08c379a000000000000000000000000000000000000000000000000000000000815260040161193c906175a5565b60405180910390fd5b80915050919050565b60cf60009054906101000a900467ffffffffffffffff1681565b60008054906101000a900473ffffffffffffffffffffffffffffffffffffffff1673ffffffffffffffffffffffffffffffffffffffff163373ffffffffffffffffffffffffffffffffffffffff16146119f6576040517f08c379a00000000000000000000000000000000000000000000000000000000081526004016119ed90617745565b60405180910390fd5b60004690506004811480611a0a5750606181145b611a49576040517f08c379a0000000000000000000000000000000000000000000000000000000008152600401611a4090617525565b60405180910390fd5b8160cc60006101000a81548173ffffffffffffffffffffffffffffffffffffffff021916908373ffffffffffffffffffffffffffffffffffffffff1602179055505050565b60008054906101000a900473ffffffffffffffffffffffffffffffffffffffff1673ffffffffffffffffffffffffffffffffffffffff163373ffffffffffffffffffffffffffffffffffffffff1614611b1c576040517f08c379a0000000000000000000000000000000000000000000000000000000008152600401611b1390617745565b60405180910390fd5b7ff9ffabca9c8276e99321725bcb43fb076a6c66a54b7f21c4e8146d8519b417dc600260009054906101000a900473ffffffffffffffffffffffffffffffffffffffff1682604051611b6f929190617175565b60405180910390a180600260006101000a81548173ffffffffffffffffffffffffffffffffffffffff021916908373ffffffffffffffffffffffffffffffffffffffff16021790555050565b60008073ffffffffffffffffffffffffffffffffffffffff168273ffffffffffffffffffffffffffffffffffffffff161415611c2c576040517f08c379a0000000000000000000000000000000000000000000000000000000008152600401611c2390617585565b60405180910390fd5b606a60008373ffffffffffffffffffffffffffffffffffffffff1673ffffffffffffffffffffffffffffffffffffffff168152602001908152602001600020549050919050565b60008054906101000a900473ffffffffffffffffffffffffffffffffffffffff1673ffffffffffffffffffffffffffffffffffffffff163373ffffffffffffffffffffffffffffffffffffffff1614611d01576040517f08c379a0000000000000000000000000000000000000000000000000000000008152600401611cf890617745565b60405180910390fd5b7f70aea8d848e8a90fb7661b227dc522eb6395c3dac71b63cb59edd5c9899b236460008054906101000a900473ffffffffffffffffffffffffffffffffffffffff166000604051611d53929190617175565b60405180910390a17ff9ffabca9c8276e99321725bcb43fb076a6c66a54b7f21c4e8146d8519b417dc600260009054906101000a900473ffffffffffffffffffffffffffffffffffffffff166000604051611daf929190617175565b60405180910390a17fb3d55174552271a4f1aaf36b72f50381e892171636b3fb5447fe00e995e7a37b600160009054906101000a900473ffffffffffffffffffffffffffffffffffffffff166000604051611e0b929190617175565b60405180910390a160008060006101000a81548173ffffffffffffffffffffffffffffffffffffffff021916908373ffffffffffffffffffffffffffffffffffffffff1602179055506000600160006101000a81548173ffffffffffffffffffffffffffffffffffffffff021916908373ffffffffffffffffffffffffffffffffffffffff1602179055506000600260006101000a81548173ffffffffffffffffffffffffffffffffffffffff021916908373ffffffffffffffffffffffffffffffffffffffff160217905550565b60cc60009054906101000a900473ffffffffffffffffffffffffffffffffffffffff1681565b600080600060d1600085815260200190815260200160002090508060000160009054906101000a900467ffffffffffffffff168160000160089054906101000a900467ffffffffffffffff169250925050915091565b60008054906101000a900473ffffffffffffffffffffffffffffffffffffffff1681565b606060688054611f8990617c9c565b80601f0160208091040260200160405190810160405280929190818152602001828054611fb590617c9c565b80156120025780601f10611fd757610100808354040283529160200191612002565b820191906000526020600020905b815481529060010190602001808311611fe557829003601f168201915b5050505050905090565b612017838383614997565b60cb60009054906101000a900473ffffffffffffffffffffffffffffffffffffffff1673ffffffffffffffffffffffffffffffffffffffff1663e030565e60d06000858152602001908152602001600020600001548560d1600086815260200190815260200160002060000160089054906101000a900467ffffffffffffffff166040518463ffffffff1660e01b81526004016120b6939291906177a0565b600060405180830381600087803b1580156120d057600080fd5b505af11580156120e4573d6000803e3d6000fd5b50505050505050565b60ce5481565b6121056120fe614275565b8383614b98565b5050565b600060026099541415612151576040517f08c379a000000000000000000000000000000000000000000000000000000000815260040161214890617705565b60405180910390fd5b6002609981905550600060d2600084815260200190815260200160002054146121af576040517f08c379a00000000000000000000000000000000000000000000000000000000081526004016121a690617385565b60405180910390fd5b600060cb60009054906101000a900473ffffffffffffffffffffffffffffffffffffffff1673ffffffffffffffffffffffffffffffffffffffff166301ffc9a77fb72080fb000000000000000000000000000000000000000000000000000000006040518263ffffffff1660e01b815260040161222c91906172e8565b60206040518083038186803b15801561224457600080fd5b505afa158015612258573d6000803e3d6000fd5b505050506040513d601f19601f8201168201806040525081019061227c91906165e8565b156127b257600060cb60009054906101000a900473ffffffffffffffffffffffffffffffffffffffff1673ffffffffffffffffffffffffffffffffffffffff1663cab416b46040518163ffffffff1660e01b815260040160206040518083038186803b1580156122eb57600080fd5b505afa1580156122ff573d6000803e3d6000fd5b505050506040513d601f19601f820116820180604052508101906123239190616349565b90508073ffffffffffffffffffffffffffffffffffffffff16636352211e856040518263ffffffff1660e01b815260040161235e9190617785565b60206040518083038186803b15801561237657600080fd5b505afa15801561238a573d6000803e3d6000fd5b505050506040513d601f19601f820116820180604052508101906123ae9190616349565b915060cb60009054906101000a900473ffffffffffffffffffffffffffffffffffffffff1673ffffffffffffffffffffffffffffffffffffffff168273ffffffffffffffffffffffffffffffffffffffff161461260157612410338286614d05565b61244f576040517f08c379a000000000000000000000000000000000000000000000000000000000815260040161244690617605565b60405180910390fd5b8073ffffffffffffffffffffffffffffffffffffffff166342842e0e8330876040518463ffffffff1660e01b815260040161248c9392919061719e565b600060405180830381600087803b1580156124a657600080fd5b505af11580156124ba573d6000803e3d6000fd5b505050508073ffffffffffffffffffffffffffffffffffffffff1663095ea7b360cb60009054906101000a900473ffffffffffffffffffffffffffffffffffffffff16866040518363ffffffff1660e01b815260040161251b929190617282565b600060405180830381600087803b15801561253557600080fd5b505af1158015612549573d6000803e3d6000fd5b5050505060cb60009054906101000a900473ffffffffffffffffffffffffffffffffffffffff1673ffffffffffffffffffffffffffffffffffffffff1663a694fc3a856040518263ffffffff1660e01b81526004016125a89190617785565b602060405180830381600087803b1580156125c257600080fd5b505af11580156125d6573d6000803e3d6000fd5b505050506040513d601f19601f820116820180604052508101906125fa9190616786565b93506127ac565b61262e3360cb60009054906101000a900473ffffffffffffffffffffffffffffffffffffffff1686614d05565b61266d576040517f08c379a000000000000000000000000000000000000000000000000000000000815260040161266490617605565b60405180910390fd5b60cb60009054906101000a900473ffffffffffffffffffffffffffffffffffffffff1673ffffffffffffffffffffffffffffffffffffffff16636352211e856040518263ffffffff1660e01b81526004016126c89190617785565b60206040518083038186803b1580156126e057600080fd5b505afa1580156126f4573d6000803e3d6000fd5b505050506040513d601f19601f820116820180604052508101906127189190616349565b915060cb60009054906101000a900473ffffffffffffffffffffffffffffffffffffffff1673ffffffffffffffffffffffffffffffffffffffff166342842e0e8330876040518463ffffffff1660e01b81526004016127799392919061719e565b600060405180830381600087803b15801561279357600080fd5b505af11580156127a7573d6000803e3d6000fd5b505050505b5061295d565b6127df3360cb60009054906101000a900473ffffffffffffffffffffffffffffffffffffffff1685614d05565b61281e576040517f08c379a000000000000000000000000000000000000000000000000000000000815260040161281590617605565b60405180910390fd5b60cb60009054906101000a900473ffffffffffffffffffffffffffffffffffffffff1673ffffffffffffffffffffffffffffffffffffffff16636352211e846040518263ffffffff1660e01b81526004016128799190617785565b60206040518083038186803b15801561289157600080fd5b505afa1580156128a5573d6000803e3d6000fd5b505050506040513d601f19601f820116820180604052508101906128c99190616349565b905060cb60009054906101000a900473ffffffffffffffffffffffffffffffffffffffff1673ffffffffffffffffffffffffffffffffffffffff166342842e0e8230866040518463ffffffff1660e01b815260040161292a9392919061719e565b600060405180830381600087803b15801561294457600080fd5b505af1158015612958573d6000803e3d6000fd5b505050505b61297181844267ffffffffffffffff6143aa565b91508160d260008581526020019081526020016000208190555060cb60009054906101000a900473ffffffffffffffffffffffffffffffffffffffff1673ffffffffffffffffffffffffffffffffffffffff1663e030565e848367ffffffffffffffff6040518463ffffffff1660e01b81526004016129f2939291906177a0565b600060405180830381600087803b158015612a0c57600080fd5b505af1158015612a20573d6000803e3d6000fd5b50505050506001609981905550919050565b600080821415612a455760009050612a74565b8160d2600060d06000868152602001908152602001600020600001548152602001908152602001600020541490505b919050565b60cd5481565b600060cb60009054906101000a900473ffffffffffffffffffffffffffffffffffffffff1673ffffffffffffffffffffffffffffffffffffffff1663c2f1f14a836040518263ffffffff1660e01b8152600401612adc9190617785565b60206040518083038186803b158015612af457600080fd5b505afa158015612b08573d6000803e3d6000fd5b505050506040513d601f19601f82011682018060405250810190612b2c9190616349565b9050919050565b600060cf60009054906101000a900467ffffffffffffffff16905090565b612b62612b5c614275565b83614336565b612ba1576040517f08c379a0000000000000000000000000000000000000000000000000000000008152600401612b98906176a5565b60405180910390fd5b612bad84848484614f7d565b50505050565b612bc4612bbe614275565b84614336565b612c03576040517f08c379a0000000000000000000000000000000000000000000000000000000008152600401612bfa906176a5565b60405180910390fd5b612c0e838383613440565b612c4d576040517f08c379a0000000000000000000000000000000000000000000000000000000008152600401612c4490617565565b60405180910390fd5b600060d06000858152602001908152602001600020905060cb60009054906101000a900473ffffffffffffffffffffffffffffffffffffffff1673ffffffffffffffffffffffffffffffffffffffff166301ffc9a77fb72080fb000000000000000000000000000000000000000000000000000000006040518263ffffffff1660e01b8152600401612cdf91906172e8565b60206040518083038186803b158015612cf757600080fd5b505afa158015612d0b573d6000803e3d6000fd5b505050506040513d601f19601f82011682018060405250810190612d2f91906165e8565b15612eea5760cb60009054906101000a900473ffffffffffffffffffffffffffffffffffffffff1673ffffffffffffffffffffffffffffffffffffffff1663db006a7582600001546040518263ffffffff1660e01b8152600401612d939190617785565b600060405180830381600087803b158015612dad57600080fd5b505af1158015612dc1573d6000803e3d6000fd5b50505050600060cb60009054906101000a900473ffffffffffffffffffffffffffffffffffffffff1673ffffffffffffffffffffffffffffffffffffffff1663cab416b46040518163ffffffff1660e01b815260040160206040518083038186803b158015612e2f57600080fd5b505afa158015612e43573d6000803e3d6000fd5b505050506040513d601f19601f82011682018060405250810190612e679190616349565b90508073ffffffffffffffffffffffffffffffffffffffff166342842e0e30612e8f8861189c565b85600001546040518463ffffffff1660e01b8152600401612eb29392919061719e565b600060405180830381600087803b158015612ecc57600080fd5b505af1158015612ee0573d6000803e3d6000fd5b5050505050612f88565b60cb60009054906101000a900473ffffffffffffffffffffffffffffffffffffffff1673ffffffffffffffffffffffffffffffffffffffff166342842e0e30612f328761189c565b84600001546040518463ffffffff1660e01b8152600401612f559392919061719e565b600060405180830381600087803b158015612f6f57600080fd5b505af1158015612f83573d6000803e3d6000fd5b505050505b612f9184614fd9565b7fe3829d5463fae0f748d927f86f762044188c9ce53d91a394eb93e98354cc3092816000015485604051612fc69291906178a0565b60405180910390a150505050565b6060612fdf82614209565b61301e576040517f08c379a000000000000000000000000000000000000000000000000000000000815260040161301590617645565b60405180910390fd5b60008061302c846000613bb2565b9250925050606080600060cb60009054906101000a900473ffffffffffffffffffffffffffffffffffffffff1673ffffffffffffffffffffffffffffffffffffffff166395d89b416040518163ffffffff1660e01b815260040160006040518083038186803b15801561309e57600080fd5b505afa1580156130b2573d6000803e3d6000fd5b505050506040513d6000823e3d601f19601f820116820180604052508101906130db9190616663565b905060cb60009054906101000a900473ffffffffffffffffffffffffffffffffffffffff1673ffffffffffffffffffffffffffffffffffffffff166301ffc9a77fb72080fb000000000000000000000000000000000000000000000000000000006040518263ffffffff1660e01b815260040161315891906172e8565b60206040518083038186803b15801561317057600080fd5b505afa158015613184573d6000803e3d6000fd5b505050506040513d601f19601f820116820180604052508101906131a891906165e8565b156132d857600060cb60009054906101000a900473ffffffffffffffffffffffffffffffffffffffff1673ffffffffffffffffffffffffffffffffffffffff1663cab416b46040518163ffffffff1660e01b815260040160206040518083038186803b15801561321757600080fd5b505afa15801561322b573d6000803e3d6000fd5b505050506040513d601f19601f8201168201806040525081019061324f9190616349565b90508073ffffffffffffffffffffffffffffffffffffffff166395d89b416040518163ffffffff1660e01b815260040160006040518083038186803b15801561329757600080fd5b505afa1580156132ab573d6000803e3d6000fd5b505050506040513d6000823e3d601f19601f820116820180604052508101906132d49190616663565b9150505b6132e187612a32565b1561334557806040516020016132f79190617112565b60405160208183030381529060405292506040518060400160405280600481526020017f764e46540000000000000000000000000000000000000000000000000000000081525091506133a0565b8060405160200161335691906170f0565b60405160208183030381529060405292506040518060400160405280600581526020017f646f4e465400000000000000000000000000000000000000000000000000000081525091505b73__$996ce4ea27519c2de692a7755c14713365$__630557ba5188858589896040518663ffffffff1660e01b81526004016133df95949392919061783f565b60006040518083038186803b1580156133f757600080fd5b505af415801561340b573d6000803e3d6000fd5b505050506040513d6000823e3d601f19601f820116820180604052508101906134349190616663565b95505050505050919050565b600061344b84612a32565b61348a576040517f08c379a000000000000000000000000000000000000000000000000000000000815260040161348190617425565b60405180910390fd5b600060d060008681526020019081526020016000209050600060d16000868660008181106134e1577f4e487b7100000000000000000000000000000000000000000000000000000000600052603260045260246000fd5b9050602002013581526020019081526020016000209050428160000160009054906101000a900467ffffffffffffffff1667ffffffffffffffff16111561352d57600092505050613733565b60008160000160089054906101000a900467ffffffffffffffff1690506000600190505b86869050811015613715576135b1878783818110613598577f4e487b7100000000000000000000000000000000000000000000000000000000600052603260045260246000fd5b905060200201358560020161495c90919063ffffffff16565b8787838181106135ea577f4e487b7100000000000000000000000000000000000000000000000000000000600052603260045260246000fd5b905060200201356040516020016136019190617134565b60405160208183030381529060405290613651576040517f08c379a00000000000000000000000000000000000000000000000000000000081526004016136489190617303565b60405180910390fd5b5060d1600088888481811061368f577f4e487b7100000000000000000000000000000000000000000000000000000000600052603260045260246000fd5b90506020020135815260200190815260200160002092508260000160009054906101000a900467ffffffffffffffff1667ffffffffffffffff166001836136d69190617b2c565b67ffffffffffffffff161415613702578260000160089054906101000a900467ffffffffffffffff1691505b808061370d90617cff565b915050613551565b5067ffffffffffffffff80168167ffffffffffffffff161493505050505b9392505050565b61374b613745614275565b85614336565b61378a576040517f08c379a0000000000000000000000000000000000000000000000000000000008152600401613781906176a5565b60405180910390fd5b61379484846115c6565b6137d3576040517f08c379a00000000000000000000000000000000000000000000000000000000081526004016137ca90617505565b60405180910390fd5b6137dc8261189c565b73ffffffffffffffffffffffffffffffffffffffff166137fb8561189c565b73ffffffffffffffffffffffffffffffffffffffff1614613851576040517f08c379a000000000000000000000000000000000000000000000000000000000815260040161384890617345565b60405180910390fd5b60d060008381526020019081526020016000206000015460d0600086815260200190815260200160002060000154146138bf576040517f08c379a00000000000000000000000000000000000000000000000000000000081526004016138b690617405565b60405180910390fd5b6138c982826115c6565b613908576040517f08c379a00000000000000000000000000000000000000000000000000000000081526004016138ff90617505565b60405180910390fd5b600060d160008581526020019081526020016000209050600060d1600084815260200190815260200160002090508060000160009054906101000a900467ffffffffffffffff1667ffffffffffffffff168260000160089054906101000a900467ffffffffffffffff1667ffffffffffffffff161015613a30578060000160009054906101000a900467ffffffffffffffff1667ffffffffffffffff1660018360000160089054906101000a900467ffffffffffffffff166139ca9190617b2c565b67ffffffffffffffff16146139de57600080fd5b8160000160009054906101000a900467ffffffffffffffff168160000160006101000a81548167ffffffffffffffff021916908367ffffffffffffffff160217905550613a2b86866143d1565b613b27565b8160000160009054906101000a900467ffffffffffffffff1667ffffffffffffffff168160000160089054906101000a900467ffffffffffffffff1667ffffffffffffffff161015613b26578160000160009054906101000a900467ffffffffffffffff1667ffffffffffffffff1660018260000160089054906101000a900467ffffffffffffffff16613ac49190617b2c565b67ffffffffffffffff1614613ad857600080fd5b8160000160089054906101000a900467ffffffffffffffff168160000160086101000a81548167ffffffffffffffff021916908367ffffffffffffffff160217905550613b2586866143d1565b5b5b6000613b4760d0600089815260200190815260200160002060020161453d565b1415613b5757613b5686614552565b5b505050505050565b6060600060d060008481526020019081526020016000209050613b8481600201614976565b915050919050565b600160009054906101000a900473ffffffffffffffffffffffffffffffffffffffff1681565b60008060008060d060008781526020019081526020016000209050613bd98160020161453d565b8510613c1a576040517f08c379a0000000000000000000000000000000000000000000000000000000008152600401613c11906174a5565b60405180910390fd5b613c30858260020161494290919063ffffffff16565b9350613c3b84611f00565b8093508194505050509250925092565b613c59868686868686615109565b505050505050565b6000606c60008473ffffffffffffffffffffffffffffffffffffffff1673ffffffffffffffffffffffffffffffffffffffff16815260200190815260200160002060008373ffffffffffffffffffffffffffffffffffffffff1673ffffffffffffffffffffffffffffffffffffffff16815260200190815260200160002060009054906101000a900460ff16905092915050565b600160009054906101000a900473ffffffffffffffffffffffffffffffffffffffff1673ffffffffffffffffffffffffffffffffffffffff163373ffffffffffffffffffffffffffffffffffffffff1614613d85576040517f08c379a0000000000000000000000000000000000000000000000000000000008152600401613d7c90617665565b60405180910390fd5b7f70aea8d848e8a90fb7661b227dc522eb6395c3dac71b63cb59edd5c9899b236460008054906101000a900473ffffffffffffffffffffffffffffffffffffffff16600160009054906101000a900473ffffffffffffffffffffffffffffffffffffffff16604051613df8929190617175565b60405180910390a1600160009054906101000a900473ffffffffffffffffffffffffffffffffffffffff166000806101000a81548173ffffffffffffffffffffffffffffffffffffffff021916908373ffffffffffffffffffffffffffffffffffffffff16021790555060007fb3d55174552271a4f1aaf36b72f50381e892171636b3fb5447fe00e995e7a37b600160009054906101000a900473ffffffffffffffffffffffffffffffffffffffff1682604051613eb7929190617175565b60405180910390a180600160006101000a81548173ffffffffffffffffffffffffffffffffffffffff021916908373ffffffffffffffffffffffffffffffffffffffff16021790555050565b600260009054906101000a900473ffffffffffffffffffffffffffffffffffffffff1673ffffffffffffffffffffffffffffffffffffffff163373ffffffffffffffffffffffffffffffffffffffff161480613faa575060008054906101000a900473ffffffffffffffffffffffffffffffffffffffff1673ffffffffffffffffffffffffffffffffffffffff163373ffffffffffffffffffffffffffffffffffffffff16145b613fe9576040517f08c379a0000000000000000000000000000000000000000000000000000000008152600401613fe090617325565b60405180910390fd5b8060cf60006101000a81548167ffffffffffffffff021916908367ffffffffffffffff16021790555050565b60008054906101000a900473ffffffffffffffffffffffffffffffffffffffff1673ffffffffffffffffffffffffffffffffffffffff163373ffffffffffffffffffffffffffffffffffffffff16146140a3576040517f08c379a000000000000000000000000000000000000000000000000000000000815260040161409a90617745565b60405180910390fd5b7fb3d55174552271a4f1aaf36b72f50381e892171636b3fb5447fe00e995e7a37b600160009054906101000a900473ffffffffffffffffffffffffffffffffffffffff16826040516140f6929190617175565b60405180910390a180600160006101000a81548173ffffffffffffffffffffffffffffffffffffffff021916908373ffffffffffffffffffffffffffffffffffffffff16021790555050565b600260009054906101000a900473ffffffffffffffffffffffffffffffffffffffff1681565b600061418860d0600084815260200190815260200160002060020161453d565b9050919050565b60007f234f3aae000000000000000000000000000000000000000000000000000000007bffffffffffffffffffffffffffffffffffffffffffffffffffffffff1916827bffffffffffffffffffffffffffffffffffffffffffffffffffffffff19161480614202575061420182615245565b5b9050919050565b60008073ffffffffffffffffffffffffffffffffffffffff166069600084815260200190815260200160002060009054906101000a900473ffffffffffffffffffffffffffffffffffffffff1673ffffffffffffffffffffffffffffffffffffffff1614159050919050565b600033905090565b81606b600083815260200190815260200160002060006101000a81548173ffffffffffffffffffffffffffffffffffffffff021916908373ffffffffffffffffffffffffffffffffffffffff160217905550808273ffffffffffffffffffffffffffffffffffffffff166142f08361189c565b73ffffffffffffffffffffffffffffffffffffffff167f8c5be1e5ebec7d5bd14f71427d1e84f3dd0314c0f7b2291e5b200ac8c7c3b92560405160405180910390a45050565b600060cc60009054906101000a900473ffffffffffffffffffffffffffffffffffffffff1673ffffffffffffffffffffffffffffffffffffffff168373ffffffffffffffffffffffffffffffffffffffff16141561439757600190506143a4565b6143a18383615327565b90505b92915050565b60006143b7848484615405565b506143c48560cd54615487565b60cd549050949350505050565b60d16000828152602001908152602001600020600080820160006101000a81549067ffffffffffffffff02191690556000820160086101000a81549067ffffffffffffffff021916905550506144458160d060008581526020019081526020016000206002016154a590919063ffffffff16565b506000600167ffffffffffffffff811115614489577f4e487b7100000000000000000000000000000000000000000000000000000000600052604160045260246000fd5b6040519080825280602002602001820160405280156144b75781602001602082028036833780820191505090505b50905081816000815181106144f5577f4e487b7100000000000000000000000000000000000000000000000000000000600052603260045260246000fd5b6020026020010181815250507fdaf2d83211561a92f21e9184ba96aac6a054d6e4132aa90592fd88eeff75879c8160405161453091906172ab565b60405180910390a1505050565b600061454b826000016154bf565b9050919050565b61455b816154d0565b60d060008281526020019081526020016000206000808201600090556001820160006101000a81549067ffffffffffffffff0219169055600282016000808201600080820160006145ac9190615fb6565b50505050505050565b60ce60008154809291906145c890617cff565b919050555060405180604001604052808367ffffffffffffffff1681526020018267ffffffffffffffff1681525060d1600060ce54815260200190815260200160002060008201518160000160006101000a81548167ffffffffffffffff021916908367ffffffffffffffff16021790555060208201518160000160086101000a81548167ffffffffffffffff021916908367ffffffffffffffff16021790555090505061469660ce5460d060008681526020019081526020016000206002016155ed90919063ffffffff16565b507fd89b3a389fda649f6511ea8da7b3cda710b4478a1a29d5e7a92c89b0b669aa1260ce548484846040516146ce94939291906178c9565b60405180910390a1505050565b8273ffffffffffffffffffffffffffffffffffffffff166146fb8261189c565b73ffffffffffffffffffffffffffffffffffffffff1614614751576040517f08c379a0000000000000000000000000000000000000000000000000000000008152600401614748906173c5565b60405180910390fd5b600073ffffffffffffffffffffffffffffffffffffffff168273ffffffffffffffffffffffffffffffffffffffff1614156147c1576040517f08c379a00000000000000000000000000000000000000000000000000000000081526004016147b890617465565b60405180910390fd5b6147cc838383615607565b6147d760008261427d565b6001606a60008573ffffffffffffffffffffffffffffffffffffffff1673ffffffffffffffffffffffffffffffffffffffff16815260200190815260200160002060008282546148279190617b6a565b925050819055506001606a60008473ffffffffffffffffffffffffffffffffffffffff1673ffffffffffffffffffffffffffffffffffffffff168152602001908152602001600020600082825461487e9190617ad6565b92505081905550816069600083815260200190815260200160002060006101000a81548173ffffffffffffffffffffffffffffffffffffffff021916908373ffffffffffffffffffffffffffffffffffffffff160217905550808273ffffffffffffffffffffffffffffffffffffffff168473ffffffffffffffffffffffffffffffffffffffff167fddf252ad1be2c89b69c2b068fc378daa952ba7f163c4a11628f55a4df523b3ef60405160405180910390a461493d838383615678565b505050565b6000614951836000018361567d565b60001c905092915050565b600061496e836000018360001b6156ce565b905092915050565b60606000614986836000016156f1565b905060608190508092505050919050565b6149a86149a2614275565b83614336565b6149e7576040517f08c379a00000000000000000000000000000000000000000000000000000000081526004016149de90617365565b60405180910390fd5b600060d060008481526020019081526020016000209050600060d160008481526020019081526020016000209050428160000160089054906101000a900467ffffffffffffffff1667ffffffffffffffff161015614a7a576040517f08c379a0000000000000000000000000000000000000000000000000000000008152600401614a7190617725565b60405180910390fd5b428160000160009054906101000a900467ffffffffffffffff1667ffffffffffffffff161115614adf576040517f08c379a0000000000000000000000000000000000000000000000000000000008152600401614ad690617765565b60405180910390fd5b614af5838360020161495c90919063ffffffff16565b614b34576040517f08c379a0000000000000000000000000000000000000000000000000000000008152600401614b2b90617505565b60405180910390fd5b7f241f46f4ab26147c933bd52501926d0ff84727224002739590fdfcf7a6559f123386868686600001548660000160089054906101000a900467ffffffffffffffff16604051614b8996959493929190617221565b60405180910390a15050505050565b8173ffffffffffffffffffffffffffffffffffffffff168373ffffffffffffffffffffffffffffffffffffffff161415614c07576040517f08c379a0000000000000000000000000000000000000000000000000000000008152600401614bfe90617485565b60405180910390fd5b80606c60008573ffffffffffffffffffffffffffffffffffffffff1673ffffffffffffffffffffffffffffffffffffffff16815260200190815260200160002060008473ffffffffffffffffffffffffffffffffffffffff1673ffffffffffffffffffffffffffffffffffffffff16815260200190815260200160002060006101000a81548160ff0219169083151502179055508173ffffffffffffffffffffffffffffffffffffffff168373ffffffffffffffffffffffffffffffffffffffff167f17307eab39ab6107e8899845ad3d59bd9653f200f220920489ca2b5937696c3183604051614cf891906172cd565b60405180910390a3505050565b600060cc60009054906101000a900473ffffffffffffffffffffffffffffffffffffffff1673ffffffffffffffffffffffffffffffffffffffff163373ffffffffffffffffffffffffffffffffffffffff161415614d665760019050614f76565b60008373ffffffffffffffffffffffffffffffffffffffff16636352211e846040518263ffffffff1660e01b8152600401614da19190617785565b60206040518083038186803b158015614db957600080fd5b505afa158015614dcd573d6000803e3d6000fd5b505050506040513d601f19601f82011682018060405250810190614df19190616349565b90508073ffffffffffffffffffffffffffffffffffffffff168573ffffffffffffffffffffffffffffffffffffffff161480614ee057508473ffffffffffffffffffffffffffffffffffffffff168473ffffffffffffffffffffffffffffffffffffffff1663081812fc856040518263ffffffff1660e01b8152600401614e789190617785565b60206040518083038186803b158015614e9057600080fd5b505afa158015614ea4573d6000803e3d6000fd5b505050506040513d601f19601f82011682018060405250810190614ec89190616349565b73ffffffffffffffffffffffffffffffffffffffff16145b80614f7257508373ffffffffffffffffffffffffffffffffffffffff1663e985e9c582876040518363ffffffff1660e01b8152600401614f21929190617175565b60206040518083038186803b158015614f3957600080fd5b505afa158015614f4d573d6000803e3d6000fd5b505050506040513d601f19601f82011682018060405250810190614f7191906165e8565b5b9150505b9392505050565b614f888484846146db565b614f948484848461574d565b614fd3576040517f08c379a0000000000000000000000000000000000000000000000000000000008152600401614fca906173a5565b60405180910390fd5b50505050565b600060d0600083815260200190815260200160002090506000614ffe8260020161453d565b905060005b8181101561507f5760d16000615025838660020161494290919063ffffffff16565b8152602001908152602001600020600080820160006101000a81549067ffffffffffffffff02191690556000820160086101000a81549067ffffffffffffffff02191690555050808061507790617cff565b915050615003565b507fdaf2d83211561a92f21e9184ba96aac6a054d6e4132aa90592fd88eeff75879c6150ad83600201614976565b6040516150ba91906172ab565b60405180910390a1816002016000808201600080820160006150dc9190615fb6565b5050505060d26000836000015481526020019081526020016000206000905561510483614552565b505050565b600260159054906101000a900460ff16615158576040517f08c379a000000000000000000000000000000000000000000000000000000000815260040161514f906176e5565b60405180910390fd5b61516286866158e4565b61516a615941565b615174828261599a565b8360cb60006101000a81548173ffffffffffffffffffffffffffffffffffffffff021916908373ffffffffffffffffffffffffffffffffffffffff1602179055508260cc60006101000a81548173ffffffffffffffffffffffffffffffffffffffff021916908373ffffffffffffffffffffffffffffffffffffffff160217905550600160d360006101000a81548160ff02191690831515021790555062ed4e0060cf60006101000a81548167ffffffffffffffff021916908367ffffffffffffffff160217905550505050505050565b60007f80ac58cd000000000000000000000000000000000000000000000000000000007bffffffffffffffffffffffffffffffffffffffffffffffffffffffff1916827bffffffffffffffffffffffffffffffffffffffffffffffffffffffff1916148061531057507f5b5e139f000000000000000000000000000000000000000000000000000000007bffffffffffffffffffffffffffffffffffffffffffffffffffffffff1916827bffffffffffffffffffffffffffffffffffffffffffffffffffffffff1916145b80615320575061531f82615a1f565b5b9050919050565b600061533282614209565b615371576040517f08c379a0000000000000000000000000000000000000000000000000000000008152600401615368906174c5565b60405180910390fd5b600061537c8361189c565b90508073ffffffffffffffffffffffffffffffffffffffff168473ffffffffffffffffffffffffffffffffffffffff1614806153be57506153bd8185613c61565b5b806153fc57508373ffffffffffffffffffffffffffffffffffffffff166153e484610c26565b73ffffffffffffffffffffffffffffffffffffffff16145b91505092915050565b600060cd600081548092919061541a90617cff565b9190505550600060d0600060cd548152602001908152602001600020905084816000018190555060008160010160006101000a81548167ffffffffffffffff021916908367ffffffffffffffff16021790555061547a60cd5485856145b5565b60cd549150509392505050565b6154a1828260405180602001604052806000815250615a89565b5050565b60006154b7836000018360001b615ae4565b905092915050565b600081600001805490509050919050565b60006154db8261189c565b90506154e981600084615607565b6154f460008361427d565b6001606a60008373ffffffffffffffffffffffffffffffffffffffff1673ffffffffffffffffffffffffffffffffffffffff16815260200190815260200160002060008282546155449190617b6a565b925050819055506069600083815260200190815260200160002060006101000a81549073ffffffffffffffffffffffffffffffffffffffff021916905581600073ffffffffffffffffffffffffffffffffffffffff168273ffffffffffffffffffffffffffffffffffffffff167fddf252ad1be2c89b69c2b068fc378daa952ba7f163c4a11628f55a4df523b3ef60405160405180910390a46155e981600084615678565b5050565b60006155ff836000018360001b615c6a565b905092915050565b615612838383615cda565b60d06000828152602001908152602001600020600101600081819054906101000a900467ffffffffffffffff168092919061564c90617d48565b91906101000a81548167ffffffffffffffff021916908367ffffffffffffffff16021790555050505050565b505050565b60008260000182815481106156bb577f4e487b7100000000000000000000000000000000000000000000000000000000600052603260045260246000fd5b9060005260206000200154905092915050565b600080836001016000848152602001908152602001600020541415905092915050565b60608160000180548060200260200160405190810160405280929190818152602001828054801561574157602002820191906000526020600020905b81548152602001906001019080831161572d575b50505050509050919050565b600061576e8473ffffffffffffffffffffffffffffffffffffffff16615cdf565b156158d7578373ffffffffffffffffffffffffffffffffffffffff1663150b7a02615797614275565b8786866040518563ffffffff1660e01b81526004016157b994939291906171d5565b602060405180830381600087803b1580156157d357600080fd5b505af192505050801561580457506040513d601f19601f82011682018060405250810190615801919061663a565b60015b615887573d8060008114615834576040519150601f19603f3d011682016040523d82523d6000602084013e615839565b606091505b5060008151141561587f576040517f08c379a0000000000000000000000000000000000000000000000000000000008152600401615876906173a5565b60405180910390fd5b805181602001fd5b63150b7a0260e01b7bffffffffffffffffffffffffffffffffffffffffffffffffffffffff1916817bffffffffffffffffffffffffffffffffffffffffffffffffffffffff1916149150506158dc565b600190505b949350505050565b600260159054906101000a900460ff16615933576040517f08c379a000000000000000000000000000000000000000000000000000000000815260040161592a906176e5565b60405180910390fd5b61593d8282615d02565b5050565b600260159054906101000a900460ff16615990576040517f08c379a0000000000000000000000000000000000000000000000000000000008152600401615987906176e5565b60405180910390fd5b615998615d83565b565b816000806101000a81548173ffffffffffffffffffffffffffffffffffffffff021916908373ffffffffffffffffffffffffffffffffffffffff16021790555080600260006101000a81548173ffffffffffffffffffffffffffffffffffffffff021916908373ffffffffffffffffffffffffffffffffffffffff1602179055505050565b60007f01ffc9a7000000000000000000000000000000000000000000000000000000007bffffffffffffffffffffffffffffffffffffffffffffffffffffffff1916827bffffffffffffffffffffffffffffffffffffffffffffffffffffffff1916149050919050565b615a938383615ddc565b615aa0600084848461574d565b615adf576040517f08c379a0000000000000000000000000000000000000000000000000000000008152600401615ad6906173a5565b60405180910390fd5b505050565b60008083600101600084815260200190815260200160002054905060008114615c5e576000600182615b169190617b6a565b9050600060018660000180549050615b2e9190617b6a565b9050818114615be9576000866000018281548110615b75577f4e487b7100000000000000000000000000000000000000000000000000000000600052603260045260246000fd5b9060005260206000200154905080876000018481548110615bbf577f4e487b7100000000000000000000000000000000000000000000000000000000600052603260045260246000fd5b90600052602060002001819055508387600101600083815260200190815260200160002081905550505b85600001805480615c23577f4e487b7100000000000000000000000000000000000000000000000000000000600052603160045260246000fd5b600190038181906000526020600020016000905590558560010160008681526020019081526020016000206000905560019350505050615c64565b60009150505b92915050565b6000615c7683836156ce565b615ccf578260000182908060018154018082558091505060019003906000526020600020016000909190919091505582600001805490508360010160008481526020019081526020016000208190555060019050615cd4565b600090505b92915050565b505050565b6000808273ffffffffffffffffffffffffffffffffffffffff163b119050919050565b600260159054906101000a900460ff16615d51576040517f08c379a0000000000000000000000000000000000000000000000000000000008152600401615d48906176e5565b60405180910390fd5b8160679080519060200190615d67929190615fd7565b508060689080519060200190615d7e929190615fd7565b505050565b600260159054906101000a900460ff16615dd2576040517f08c379a0000000000000000000000000000000000000000000000000000000008152600401615dc9906176e5565b60405180910390fd5b6001609981905550565b600073ffffffffffffffffffffffffffffffffffffffff168273ffffffffffffffffffffffffffffffffffffffff161415615e4c576040517f08c379a0000000000000000000000000000000000000000000000000000000008152600401615e43906175c5565b60405180910390fd5b615e5581614209565b15615e95576040517f08c379a0000000000000000000000000000000000000000000000000000000008152600401615e8c906173e5565b60405180910390fd5b615ea160008383615607565b6001606a60008473ffffffffffffffffffffffffffffffffffffffff1673ffffffffffffffffffffffffffffffffffffffff1681526020019081526020016000206000828254615ef19190617ad6565b92505081905550816069600083815260200190815260200160002060006101000a81548173ffffffffffffffffffffffffffffffffffffffff021916908373ffffffffffffffffffffffffffffffffffffffff160217905550808273ffffffffffffffffffffffffffffffffffffffff16600073ffffffffffffffffffffffffffffffffffffffff167fddf252ad1be2c89b69c2b068fc378daa952ba7f163c4a11628f55a4df523b3ef60405160405180910390a4615fb260008383615678565b5050565b5080546000825590600052602060002090810190615fd4919061605d565b50565b828054615fe390617c9c565b90600052602060002090601f016020900481019282616005576000855561604c565b82601f1061601e57805160ff191683800117855561604c565b8280016001018555821561604c579182015b8281111561604b578251825591602001919060010190616030565b5b509050616059919061607a565b5090565b5b8082111561607657600081600090555060010161605e565b5090565b5b8082111561609357600081600090555060010161607b565b5090565b60006160aa6160a5846179ae565b617989565b9050828152602081018484840111156160c257600080fd5b6160cd848285617c5a565b509392505050565b60006160e86160e3846179df565b617989565b90508281526020810184848401111561610057600080fd5b61610b848285617c5a565b509392505050565b6000616126616121846179df565b617989565b90508281526020810184848401111561613e57600080fd5b616149848285617c69565b509392505050565b600081359050616160816185ff565b92915050565b600081519050616175816185ff565b92915050565b60008083601f84011261618d57600080fd5b8235905067ffffffffffffffff8111156161a657600080fd5b6020830191508360208202830111156161be57600080fd5b9250929050565b6000813590506161d481618616565b92915050565b6000815190506161e981618616565b92915050565b6000813590506161fe8161862d565b92915050565b6000815190506162138161862d565b92915050565b60008083601f84011261622b57600080fd5b8235905067ffffffffffffffff81111561624457600080fd5b60208301915083600182028301111561625c57600080fd5b9250929050565b600082601f83011261627457600080fd5b8135616284848260208601616097565b91505092915050565b600082601f83011261629e57600080fd5b81356162ae8482602086016160d5565b91505092915050565b600082601f8301126162c857600080fd5b81516162d8848260208601616113565b91505092915050565b6000813590506162f081618644565b92915050565b60008151905061630581618644565b92915050565b60008135905061631a8161865b565b92915050565b60006020828403121561633257600080fd5b600061634084828501616151565b91505092915050565b60006020828403121561635b57600080fd5b600061636984828501616166565b91505092915050565b6000806040838503121561638557600080fd5b600061639385828601616151565b92505060206163a485828601616151565b9150509250929050565b6000806000606084860312156163c357600080fd5b60006163d186828701616151565b93505060206163e286828701616151565b92505060406163f3868287016162e1565b9150509250925092565b60008060008060006080868803121561641557600080fd5b600061642388828901616151565b955050602061643488828901616151565b9450506040616445888289016162e1565b935050606086013567ffffffffffffffff81111561646257600080fd5b61646e88828901616219565b92509250509295509295909350565b6000806000806080858703121561649357600080fd5b60006164a187828801616151565b94505060206164b287828801616151565b93505060406164c3878288016162e1565b925050606085013567ffffffffffffffff8111156164e057600080fd5b6164ec87828801616263565b91505092959194509250565b6000806040838503121561650b57600080fd5b600061651985828601616151565b925050602061652a858286016161c5565b9150509250929050565b6000806040838503121561654757600080fd5b600061655585828601616151565b9250506020616566858286016162e1565b9150509250929050565b60008060006060848603121561658557600080fd5b600061659386828701616151565b93505060206165a4868287016162e1565b92505060406165b5868287016162e1565b9150509250925092565b6000602082840312156165d157600080fd5b60006165df848285016161c5565b91505092915050565b6000602082840312156165fa57600080fd5b6000616608848285016161da565b91505092915050565b60006020828403121561662357600080fd5b6000616631848285016161ef565b91505092915050565b60006020828403121561664c57600080fd5b600061665a84828501616204565b91505092915050565b60006020828403121561667557600080fd5b600082015167ffffffffffffffff81111561668f57600080fd5b61669b848285016162b7565b91505092915050565b60008060008060008060c087890312156166bd57600080fd5b600087013567ffffffffffffffff8111156166d757600080fd5b6166e389828a0161628d565b965050602087013567ffffffffffffffff81111561670057600080fd5b61670c89828a0161628d565b955050604061671d89828a01616151565b945050606061672e89828a01616151565b935050608061673f89828a01616151565b92505060a061675089828a01616151565b9150509295509295509295565b60006020828403121561676f57600080fd5b600061677d848285016162e1565b91505092915050565b60006020828403121561679857600080fd5b60006167a6848285016162f6565b91505092915050565b6000806000604084860312156167c457600080fd5b60006167d2868287016162e1565b935050602084013567ffffffffffffffff8111156167ef57600080fd5b6167fb8682870161617b565b92509250509250925092565b6000806040838503121561681a57600080fd5b6000616828858286016162e1565b9250506020616839858286016162e1565b9150509250929050565b6000806000806080858703121561685957600080fd5b6000616867878288016162e1565b9450506020616878878288016162e1565b9350506040616889878288016162e1565b925050606061689a878288016162e1565b91505092959194509250565b60008060008060008060c087890312156168bf57600080fd5b60006168cd89828a016162e1565b96505060206168de89828a016162e1565b95505060406168ef89828a0161630b565b945050606061690089828a0161630b565b935050608061691189828a01616151565b92505060a061692289828a01616151565b9150509295509295509295565b60006020828403121561694157600080fd5b600061694f8482850161630b565b91505092915050565b6000616964838361707f565b60208301905092915050565b600061697c83836170c3565b60208301905092915050565b61699181617bd2565b82525050565b60006169a282617a30565b6169ac8185617a76565b93506169b783617a10565b8060005b838110156169e85781516169cf8882616958565b97506169da83617a5c565b9250506001810190506169bb565b5085935050505092915050565b6000616a0082617a3b565b616a0a8185617a87565b9350616a1583617a20565b8060005b83811015616a46578151616a2d8882616970565b9750616a3883617a69565b925050600181019050616a19565b5085935050505092915050565b616a5c81617be4565b82525050565b616a6b81617bf0565b82525050565b6000616a7c82617a46565b616a868185617a98565b9350616a96818560208601617c69565b616a9f81617e10565b840191505092915050565b6000616ab582617a51565b616abf8185617aa9565b9350616acf818560208601617c69565b616ad881617e10565b840191505092915050565b6000616aee82617a51565b616af88185617aba565b9350616b08818560208601617c69565b616b1181617e10565b840191505092915050565b6000616b2782617a51565b616b318185617acb565b9350616b41818560208601617c69565b80840191505092915050565b6000616b5a600983617aa9565b9150616b6582617e21565b602082019050919050565b6000616b7d600a83617aa9565b9150616b8882617e4a565b602082019050919050565b6000616ba0600383617acb565b9150616bab82617e73565b600382019050919050565b6000616bc3601683617aa9565b9150616bce82617e9c565b602082019050919050565b6000616be6600e83617aa9565b9150616bf182617ec5565b602082019050919050565b6000616c09603283617aa9565b9150616c1482617eee565b604082019050919050565b6000616c2c602583617aa9565b9150616c3782617f3d565b604082019050919050565b6000616c4f601c83617aa9565b9150616c5a82617f8c565b602082019050919050565b6000616c72600883617aa9565b9150616c7d82617fb5565b602082019050919050565b6000616c95600883617aa9565b9150616ca082617fde565b602082019050919050565b6000616cb8601783617aa9565b9150616cc382618007565b602082019050919050565b6000616cdb602483617aa9565b9150616ce682618030565b604082019050919050565b6000616cfe601983617aa9565b9150616d098261807f565b602082019050919050565b6000616d21600c83617aa9565b9150616d2c826180a8565b602082019050919050565b6000616d44602c83617aa9565b9150616d4f826180d1565b604082019050919050565b6000616d67601483617aa9565b9150616d7282618120565b602082019050919050565b6000616d8a600c83617aa9565b9150616d9582618149565b602082019050919050565b6000616dad601883617aa9565b9150616db882618172565b602082019050919050565b6000616dd0603883617aa9565b9150616ddb8261819b565b604082019050919050565b6000616df3600d83617aa9565b9150616dfe826181ea565b602082019050919050565b6000616e16602a83617aa9565b9150616e2182618213565b604082019050919050565b6000616e39602983617aa9565b9150616e4482618262565b604082019050919050565b6000616e5c602083617aa9565b9150616e67826182b1565b602082019050919050565b6000616e7f602c83617aa9565b9150616e8a826182da565b604082019050919050565b6000616ea2601683617aa9565b9150616ead82618329565b602082019050919050565b6000616ec5601083617aa9565b9150616ed082618352565b602082019050919050565b6000616ee8602f83617aa9565b9150616ef38261837b565b604082019050919050565b6000616f0b601083617aa9565b9150616f16826183ca565b602082019050919050565b6000616f2e602183617aa9565b9150616f39826183f3565b604082019050919050565b6000616f51603183617aa9565b9150616f5c82618442565b604082019050919050565b6000616f74600d83617aa9565b9150616f7f82618491565b602082019050919050565b6000616f97602b83617aa9565b9150616fa2826184ba565b604082019050919050565b6000616fba600283617acb565b9150616fc582618509565b600282019050919050565b6000616fdd600c83617acb565b9150616fe882618532565b600c82019050919050565b6000617000601f83617aa9565b915061700b8261855b565b602082019050919050565b6000617023600b83617aa9565b915061702e82618584565b602082019050919050565b6000617046600983617aa9565b9150617051826185ad565b602082019050919050565b6000617069600d83617aa9565b9150617074826185d6565b602082019050919050565b61708881617c3c565b82525050565b61709781617c3c565b82525050565b6170a681617c3c565b82525050565b6170bd6170b882617c3c565b617d79565b82525050565b6170cc81617c46565b82525050565b6170db81617c46565b82525050565b6170ea81617c46565b82525050565b60006170fb82616b93565b91506171078284616b1c565b915081905092915050565b600061711d82616fad565b91506171298284616b1c565b915081905092915050565b600061713f82616fd0565b915061714b82846170ac565b60208201915081905092915050565b600060208201905061716f6000830184616988565b92915050565b600060408201905061718a6000830185616988565b6171976020830184616988565b9392505050565b60006060820190506171b36000830186616988565b6171c06020830185616988565b6171cd604083018461708e565b949350505050565b60006080820190506171ea6000830187616988565b6171f76020830186616988565b617204604083018561708e565b81810360608301526172168184616a71565b905095945050505050565b600060c0820190506172366000830189616988565b6172436020830188616988565b617250604083018761708e565b61725d606083018661708e565b61726a608083018561708e565b61727760a08301846170d2565b979650505050505050565b60006040820190506172976000830185616988565b6172a4602083018461708e565b9392505050565b600060208201905081810360008301526172c58184616997565b905092915050565b60006020820190506172e26000830184616a53565b92915050565b60006020820190506172fd6000830184616a62565b92915050565b6000602082019050818103600083015261731d8184616aaa565b905092915050565b6000602082019050818103600083015261733e81616b4d565b9050919050565b6000602082019050818103600083015261735e81616b70565b9050919050565b6000602082019050818103600083015261737e81616bb6565b9050919050565b6000602082019050818103600083015261739e81616bd9565b9050919050565b600060208201905081810360008301526173be81616bfc565b9050919050565b600060208201905081810360008301526173de81616c1f565b9050919050565b600060208201905081810360008301526173fe81616c42565b9050919050565b6000602082019050818103600083015261741e81616c65565b9050919050565b6000602082019050818103600083015261743e81616c88565b9050919050565b6000602082019050818103600083015261745e81616cab565b9050919050565b6000602082019050818103600083015261747e81616cce565b9050919050565b6000602082019050818103600083015261749e81616cf1565b9050919050565b600060208201905081810360008301526174be81616d14565b9050919050565b600060208201905081810360008301526174de81616d37565b9050919050565b600060208201905081810360008301526174fe81616d5a565b9050919050565b6000602082019050818103600083015261751e81616d7d565b9050919050565b6000602082019050818103600083015261753e81616da0565b9050919050565b6000602082019050818103600083015261755e81616dc3565b9050919050565b6000602082019050818103600083015261757e81616de6565b9050919050565b6000602082019050818103600083015261759e81616e09565b9050919050565b600060208201905081810360008301526175be81616e2c565b9050919050565b600060208201905081810360008301526175de81616e4f565b9050919050565b600060208201905081810360008301526175fe81616e72565b9050919050565b6000602082019050818103600083015261761e81616e95565b9050919050565b6000602082019050818103600083015261763e81616eb8565b9050919050565b6000602082019050818103600083015261765e81616edb565b9050919050565b6000602082019050818103600083015261767e81616efe565b9050919050565b6000602082019050818103600083015261769e81616f21565b9050919050565b600060208201905081810360008301526176be81616f44565b9050919050565b600060208201905081810360008301526176de81616f67565b9050919050565b600060208201905081810360008301526176fe81616f8a565b9050919050565b6000602082019050818103600083015261771e81616ff3565b9050919050565b6000602082019050818103600083015261773e81617016565b9050919050565b6000602082019050818103600083015261775e81617039565b9050919050565b6000602082019050818103600083015261777e8161705c565b9050919050565b600060208201905061779a600083018461708e565b92915050565b60006060820190506177b5600083018661708e565b6177c26020830185616988565b6177cf60408301846170d2565b949350505050565b600060a0820190506177ec600083018861708e565b81810360208301526177fe8187616997565b9050818103604083015261781281866169f5565b9050818103606083015261782681856169f5565b905061783560808301846170d2565b9695505050505050565b600060a082019050617854600083018861709d565b81810360208301526178668187616ae3565b9050818103604083015261787a8186616ae3565b905061788960608301856170e1565b61789660808301846170e1565b9695505050505050565b60006040820190506178b5600083018561708e565b6178c2602083018461708e565b9392505050565b60006080820190506178de600083018761708e565b6178eb602083018661708e565b6178f860408301856170d2565b61790560608301846170d2565b95945050505050565b6000606082019050617923600083018661708e565b61793060208301856170d2565b61793d60408301846170d2565b949350505050565b600060208201905061795a60008301846170d2565b92915050565b600060408201905061797560008301856170d2565b61798260208301846170d2565b9392505050565b60006179936179a4565b905061799f8282617cce565b919050565b6000604051905090565b600067ffffffffffffffff8211156179c9576179c8617de1565b5b6179d282617e10565b9050602081019050919050565b600067ffffffffffffffff8211156179fa576179f9617de1565b5b617a0382617e10565b9050602081019050919050565b6000819050602082019050919050565b6000819050602082019050919050565b600081519050919050565b600081519050919050565b600081519050919050565b600081519050919050565b6000602082019050919050565b6000602082019050919050565b600082825260208201905092915050565b600082825260208201905092915050565b600082825260208201905092915050565b600082825260208201905092915050565b600082825260208201905092915050565b600081905092915050565b6000617ae182617c3c565b9150617aec83617c3c565b9250827fffffffffffffffffffffffffffffffffffffffffffffffffffffffffffffffff03821115617b2157617b20617d83565b5b828201905092915050565b6000617b3782617c46565b9150617b4283617c46565b92508267ffffffffffffffff03821115617b5f57617b5e617d83565b5b828201905092915050565b6000617b7582617c3c565b9150617b8083617c3c565b925082821015617b9357617b92617d83565b5b828203905092915050565b6000617ba982617c46565b9150617bb483617c46565b925082821015617bc757617bc6617d83565b5b828203905092915050565b6000617bdd82617c1c565b9050919050565b60008115159050919050565b60007fffffffff0000000000000000000000000000000000000000000000000000000082169050919050565b600073ffffffffffffffffffffffffffffffffffffffff82169050919050565b6000819050919050565b600067ffffffffffffffff82169050919050565b82818337600083830152505050565b60005b83811015617c87578082015181840152602081019050617c6c565b83811115617c96576000848401525b50505050565b60006002820490506001821680617cb457607f821691505b60208210811415617cc857617cc7617db2565b5b50919050565b617cd782617e10565b810181811067ffffffffffffffff82111715617cf657617cf5617de1565b5b80604052505050565b6000617d0a82617c3c565b91507fffffffffffffffffffffffffffffffffffffffffffffffffffffffffffffffff821415617d3d57617d3c617d83565b5b600182019050919050565b6000617d5382617c46565b915067ffffffffffffffff821415617d6e57617d6d617d83565b5b600182019050919050565b6000819050919050565b7f4e487b7100000000000000000000000000000000000000000000000000000000600052601160045260246000fd5b7f4e487b7100000000000000000000000000000000000000000000000000000000600052602260045260246000fd5b7f4e487b7100000000000000000000000000000000000000000000000000000000600052604160045260246000fd5b6000601f19601f8301169050919050565b7f6f6e6c7941646d696e0000000000000000000000000000000000000000000000600082015250565b7f64696666206f776e657200000000000000000000000000000000000000000000600082015250565b7f646f2d0000000000000000000000000000000000000000000000000000000000600082015250565b7f6e6f74206f776e6572206e6f7220617070726f76656400000000000000000000600082015250565b7f616c726561647920776172706564000000000000000000000000000000000000600082015250565b7f4552433732313a207472616e7366657220746f206e6f6e20455243373231526560008201527f63656976657220696d706c656d656e7465720000000000000000000000000000602082015250565b7f4552433732313a207472616e736665722066726f6d20696e636f72726563742060008201527f6f776e6572000000000000000000000000000000000000000000000000000000602082015250565b7f4552433732313a20746f6b656e20616c7265616479206d696e74656400000000600082015250565b7f64696666206f6964000000000000000000000000000000000000000000000000600082015250565b7f6e6f7420764e4654000000000000000000000000000000000000000000000000600082015250565b7f6e6f7420636f6e7461696e73206475726174696f6e4964000000000000000000600082015250565b7f4552433732313a207472616e7366657220746f20746865207a65726f2061646460008201527f7265737300000000000000000000000000000000000000000000000000000000602082015250565b7f4552433732313a20617070726f766520746f2063616c6c657200000000000000600082015250565b7f6f7574206f662072616e67650000000000000000000000000000000000000000600082015250565b7f4552433732313a206f70657261746f7220717565727920666f72206e6f6e657860008201527f697374656e7420746f6b656e0000000000000000000000000000000000000000602082015250565b7f696e76616c6964207374617274206f7220656e64000000000000000000000000600082015250565b7f6e6f7420636f6e7461696e730000000000000000000000000000000000000000600082015250565b7f6f6e6c7920666f722072696e6b656279206f7220627363740000000000000000600082015250565b7f4552433732313a20617070726f76652063616c6c6572206973206e6f74206f7760008201527f6e6572206e6f7220617070726f76656420666f7220616c6c0000000000000000602082015250565b7f63616e6e6f742072656465656d00000000000000000000000000000000000000600082015250565b7f4552433732313a2062616c616e636520717565727920666f7220746865207a6560008201527f726f206164647265737300000000000000000000000000000000000000000000602082015250565b7f4552433732313a206f776e657220717565727920666f72206e6f6e657869737460008201527f656e7420746f6b656e0000000000000000000000000000000000000000000000602082015250565b7f4552433732313a206d696e7420746f20746865207a65726f2061646472657373600082015250565b7f4552433732313a20617070726f76656420717565727920666f72206e6f6e657860008201527f697374656e7420746f6b656e0000000000000000000000000000000000000000602082015250565b7f6f6e6c7920617070726f766564206f72206f776e657200000000000000000000600082015250565b7f696e76616c6964206475726174696f6e00000000000000000000000000000000600082015250565b7f4552433732314d657461646174613a2055524920717565727920666f72206e6f60008201527f6e6578697374656e7420746f6b656e0000000000000000000000000000000000602082015250565b7f6f6e6c7950656e64696e674f776e657200000000000000000000000000000000600082015250565b7f4552433732313a20617070726f76616c20746f2063757272656e74206f776e6560008201527f7200000000000000000000000000000000000000000000000000000000000000602082015250565b7f4552433732313a207472616e736665722063616c6c6572206973206e6f74206f60008201527f776e6572206e6f7220617070726f766564000000000000000000000000000000602082015250565b7f6d7573742066726f6d206e6f7700000000000000000000000000000000000000600082015250565b7f496e697469616c697a61626c653a20636f6e7472616374206973206e6f74206960008201527f6e697469616c697a696e67000000000000000000000000000000000000000000602082015250565b7f762d000000000000000000000000000000000000000000000000000000000000600082015250565b7f6e6f7420636f6e7461696c730000000000000000000000000000000000000000600082015250565b7f5265656e7472616e637947756172643a207265656e7472616e742063616c6c00600082015250565b7f696e76616c696420656e64000000000000000000000000000000000000000000600082015250565b7f6f6e6c794f776e65720000000000000000000000000000000000000000000000600082015250565b7f696e76616c696420737461727400000000000000000000000000000000000000600082015250565b61860881617bd2565b811461861357600080fd5b50565b61861f81617be4565b811461862a57600080fd5b50565b61863681617bf0565b811461864157600080fd5b50565b61864d81617c3c565b811461865857600080fd5b50565b61866481617c46565b811461866f57600080fd5b5056fea2646970667358221220142dcd30cb47d3a8f4a4dbf2d282dd5fa5ff73e1e8b21c449cd2bc181b7c90db64736f6c63430008040033",
  "linkReferences": {
    "contracts/DoubleSVG.sol": {
      "DoubleSVG": [
        {
          "length": 20,
          "start": 13252
        }
      ]
    }
  },
  "deployedLinkReferences": {
    "contracts/DoubleSVG.sol": {
      "DoubleSVG": [
        {
          "length": 20,
          "start": 13218
        }
      ]
    }
  }
}