{
  "_format": "hh-sol-artifact-1",
  "contractName": "Deposit",
  "sourceName": "contracts/deposit/Deposit.sol",
  "abi": [
    {
      "inputs": [
        {
          "internalType": "address",
          "name": "_mainToken",
          "type": "address"
        },
        {
          "internalType": "address",
          "name": "_rewardAddress",
          "type": "address"
        }
      ],
      "stateMutability": "nonpayable",
      "type": "constructor"
    },
    {
      "anonymous": false,
      "inputs": [
        {
          "indexed": false,
          "internalType": "uint256",
          "name": "id",
          "type": "uint256"
        },
        {
          "indexed": false,
          "internalType": "address",
          "name": "user",
          "type": "address"
        },
        {
          "indexed": false,
          "internalType": "uint256",
          "name": "amount",
          "type": "uint256"
        },
        {
          "indexed": false,
          "internalType": "uint256",
          "name": "timestamp",
          "type": "uint256"
        }
      ],
      "name": "Deposited",
      "type": "event"
    },
    {
      "anonymous": false,
      "inputs": [
        {
          "indexed": false,
          "internalType": "address",
          "name": "account",
          "type": "address"
        }
      ],
      "name": "Paused",
      "type": "event"
    },
    {
      "anonymous": false,
      "inputs": [
        {
          "indexed": true,
          "internalType": "bytes32",
          "name": "role",
          "type": "bytes32"
        },
        {
          "indexed": true,
          "internalType": "bytes32",
          "name": "previousAdminRole",
          "type": "bytes32"
        },
        {
          "indexed": true,
          "internalType": "bytes32",
          "name": "newAdminRole",
          "type": "bytes32"
        }
      ],
      "name": "RoleAdminChanged",
      "type": "event"
    },
    {
      "anonymous": false,
      "inputs": [
        {
          "indexed": true,
          "internalType": "bytes32",
          "name": "role",
          "type": "bytes32"
        },
        {
          "indexed": true,
          "internalType": "address",
          "name": "account",
          "type": "address"
        },
        {
          "indexed": true,
          "internalType": "address",
          "name": "sender",
          "type": "address"
        }
      ],
      "name": "RoleGranted",
      "type": "event"
    },
    {
      "anonymous": false,
      "inputs": [
        {
          "indexed": true,
          "internalType": "bytes32",
          "name": "role",
          "type": "bytes32"
        },
        {
          "indexed": true,
          "internalType": "address",
          "name": "account",
          "type": "address"
        },
        {
          "indexed": true,
          "internalType": "address",
          "name": "sender",
          "type": "address"
        }
      ],
      "name": "RoleRevoked",
      "type": "event"
    },
    {
      "anonymous": false,
      "inputs": [
        {
          "indexed": false,
          "internalType": "address",
          "name": "account",
          "type": "address"
        }
      ],
      "name": "Unpaused",
      "type": "event"
    },
    {
      "inputs": [],
      "name": "DEFAULT_ADMIN_ROLE",
      "outputs": [
        {
          "internalType": "bytes32",
          "name": "",
          "type": "bytes32"
        }
      ],
      "stateMutability": "view",
      "type": "function"
    },
    {
      "inputs": [],
      "name": "PAUSER_ROLE",
      "outputs": [
        {
          "internalType": "bytes32",
          "name": "",
          "type": "bytes32"
        }
      ],
      "stateMutability": "view",
      "type": "function"
    },
    {
      "inputs": [
        {
          "internalType": "uint256",
          "name": "_amount",
          "type": "uint256"
        }
      ],
      "name": "deposit",
      "outputs": [],
      "stateMutability": "nonpayable",
      "type": "function"
    },
    {
      "inputs": [
        {
          "internalType": "uint256",
          "name": "",
          "type": "uint256"
        }
      ],
      "name": "deposits",
      "outputs": [
        {
          "internalType": "uint256",
          "name": "id",
          "type": "uint256"
        },
        {
          "internalType": "address",
          "name": "user",
          "type": "address"
        },
        {
          "internalType": "uint256",
          "name": "amount",
          "type": "uint256"
        },
        {
          "internalType": "uint256",
          "name": "timestamp",
          "type": "uint256"
        }
      ],
      "stateMutability": "view",
      "type": "function"
    },
    {
      "inputs": [
        {
          "internalType": "bytes32",
          "name": "role",
          "type": "bytes32"
        }
      ],
      "name": "getRoleAdmin",
      "outputs": [
        {
          "internalType": "bytes32",
          "name": "",
          "type": "bytes32"
        }
      ],
      "stateMutability": "view",
      "type": "function"
    },
    {
      "inputs": [
        {
          "internalType": "bytes32",
          "name": "role",
          "type": "bytes32"
        },
        {
          "internalType": "address",
          "name": "account",
          "type": "address"
        }
      ],
      "name": "grantRole",
      "outputs": [],
      "stateMutability": "nonpayable",
      "type": "function"
    },
    {
      "inputs": [
        {
          "internalType": "bytes32",
          "name": "role",
          "type": "bytes32"
        },
        {
          "internalType": "address",
          "name": "account",
          "type": "address"
        }
      ],
      "name": "hasRole",
      "outputs": [
        {
          "internalType": "bool",
          "name": "",
          "type": "bool"
        }
      ],
      "stateMutability": "view",
      "type": "function"
    },
    {
      "inputs": [],
      "name": "mainToken",
      "outputs": [
        {
          "internalType": "contract IERC20",
          "name": "",
          "type": "address"
        }
      ],
      "stateMutability": "view",
      "type": "function"
    },
    {
      "inputs": [],
      "name": "pause",
      "outputs": [],
      "stateMutability": "nonpayable",
      "type": "function"
    },
    {
      "inputs": [],
      "name": "paused",
      "outputs": [
        {
          "internalType": "bool",
          "name": "",
          "type": "bool"
        }
      ],
      "stateMutability": "view",
      "type": "function"
    },
    {
      "inputs": [
        {
          "internalType": "bytes32",
          "name": "role",
          "type": "bytes32"
        },
        {
          "internalType": "address",
          "name": "account",
          "type": "address"
        }
      ],
      "name": "renounceRole",
      "outputs": [],
      "stateMutability": "nonpayable",
      "type": "function"
    },
    {
      "inputs": [
        {
          "internalType": "bytes32",
          "name": "role",
          "type": "bytes32"
        },
        {
          "internalType": "address",
          "name": "account",
          "type": "address"
        }
      ],
      "name": "revokeRole",
      "outputs": [],
      "stateMutability": "nonpayable",
      "type": "function"
    },
    {
      "inputs": [],
      "name": "rewardAddress",
      "outputs": [
        {
          "internalType": "address",
          "name": "",
          "type": "address"
        }
      ],
      "stateMutability": "view",
      "type": "function"
    },
    {
      "inputs": [
        {
          "internalType": "bytes4",
          "name": "interfaceId",
          "type": "bytes4"
        }
      ],
      "name": "supportsInterface",
      "outputs": [
        {
          "internalType": "bool",
          "name": "",
          "type": "bool"
        }
      ],
      "stateMutability": "view",
      "type": "function"
    },
    {
      "inputs": [],
      "name": "unpause",
      "outputs": [],
      "stateMutability": "nonpayable",
      "type": "function"
    }
  ],
  "bytecode": "0x608060405268056bc75e2d6310000060045534801561001d57600080fd5b50604051610e51380380610e5183398101604081905261003c9161017d565b6001805460ff19168155600255600680546001600160a01b038084166001600160a01b03199283161790925560058054928516929091169190911790556100846000336100b5565b6100ae7f65d7a28e3265b37a6474929f336521b332c1681b933f6cb9f3376673440d862a336100b5565b50506101af565b6100bf82826100c3565b5050565b6000828152602081815260408083206001600160a01b038516845290915290205460ff166100bf576000828152602081815260408083206001600160a01b03851684529091529020805460ff1916600117905561011d3390565b6001600160a01b0316816001600160a01b0316837f2f8788117e7eff1d82e926ec794901d17c78024a50270940304540a733656f0d60405160405180910390a45050565b80516001600160a01b038116811461017857600080fd5b919050565b6000806040838503121561018f578182fd5b61019883610161565b91506101a660208401610161565b90509250929050565b610c93806101be6000396000f3fe608060405234801561001057600080fd5b50600436106100f55760003560e01c80638456cb5911610097578063b02c43d011610066578063b02c43d0146101ef578063b6b55f2514610256578063d547741f14610269578063e63ab1e91461027c57600080fd5b80638456cb59146101b95780638cf57cb9146101c157806391d14854146101d4578063a217fddf146101e757600080fd5b806336568abe116100d357806336568abe146101685780633f4ba83a1461017b5780633fc15f15146101835780635c975abb146101ae57600080fd5b806301ffc9a7146100fa578063248a9ca3146101225780632f2ff15d14610153575b600080fd5b61010d610108366004610af9565b6102a3565b60405190151581526020015b60405180910390f35b610145610130366004610aa7565b60009081526020819052604090206001015490565b604051908152602001610119565b610166610161366004610abf565b6102da565b005b610166610176366004610abf565b610305565b610166610388565b600554610196906001600160a01b031681565b6040516001600160a01b039091168152602001610119565b60015460ff1661010d565b6101666103be565b600654610196906001600160a01b031681565b61010d6101e2366004610abf565b6103f1565b610145600081565b61022e6101fd366004610aa7565b600760205260009081526040902080546001820154600283015460039093015491926001600160a01b039091169184565b604080519485526001600160a01b039093166020850152918301526060820152608001610119565b610166610264366004610aa7565b61041a565b610166610277366004610abf565b61061f565b6101457f65d7a28e3265b37a6474929f336521b332c1681b933f6cb9f3376673440d862a81565b60006001600160e01b03198216637965db0b60e01b14806102d457506301ffc9a760e01b6001600160e01b03198316145b92915050565b6000828152602081905260409020600101546102f68133610645565b61030083836106a9565b505050565b6001600160a01b038116331461037a5760405162461bcd60e51b815260206004820152602f60248201527f416363657373436f6e74726f6c3a2063616e206f6e6c792072656e6f756e636560448201526e103937b632b9903337b91039b2b63360891b60648201526084015b60405180910390fd5b610384828261072d565b5050565b7f65d7a28e3265b37a6474929f336521b332c1681b933f6cb9f3376673440d862a6103b38133610645565b6103bb610792565b50565b7f65d7a28e3265b37a6474929f336521b332c1681b933f6cb9f3376673440d862a6103e98133610645565b6103bb610825565b6000918252602082815260408084206001600160a01b0393909316845291905290205460ff1690565b60015460ff16156104605760405162461bcd60e51b815260206004820152601060248201526f14185d5cd8589b194e881c185d5cd95960821b6044820152606401610371565b6002805414156104b25760405162461bcd60e51b815260206004820152601f60248201527f5265656e7472616e637947756172643a207265656e7472616e742063616c6c006044820152606401610371565b600280556004548110156104c557600080fd5b60006104d060035490565b60408051608081018252828152336020808301828152838501888152426060860190815260008881526007909452928690209451855590516001850180546001600160a01b0319166001600160a01b0392831617905590516002850155905160039093019290925560055460065493516323b872dd60e01b8152600481019290925292821660248201526044810186905292935016906323b872dd90606401602060405180830381600087803b15801561058957600080fd5b505af115801561059d573d6000803e3d6000fd5b505050506040513d601f19601f820116820180604052508101906105c19190610a87565b506105d0600380546001019055565b604080518281523360208201529081018390524260608201527fad5b4075b97dbf75ad5c78f7afac948e4ae611c4fdf2825e2ce3c6c96925bf3b9060800160405180910390a150506001600255565b60008281526020819052604090206001015461063b8133610645565b610300838361072d565b61064f82826103f1565b61038457610667816001600160a01b0316601461089e565b61067283602061089e565b604051602001610683929190610b21565b60408051601f198184030181529082905262461bcd60e51b825261037191600401610b96565b6106b382826103f1565b610384576000828152602081815260408083206001600160a01b03851684529091529020805460ff191660011790556106e93390565b6001600160a01b0316816001600160a01b0316837f2f8788117e7eff1d82e926ec794901d17c78024a50270940304540a733656f0d60405160405180910390a45050565b61073782826103f1565b15610384576000828152602081815260408083206001600160a01b0385168085529252808320805460ff1916905551339285917ff6391f5c32d9c69d2a47ea670b442974b53935d1edc7fd64eb21e047a839171b9190a45050565b60015460ff166107db5760405162461bcd60e51b815260206004820152601460248201527314185d5cd8589b194e881b9bdd081c185d5cd95960621b6044820152606401610371565b6001805460ff191690557f5db9ee0a495bf2e6ff9c91a7834c1ba4fdd244a5e8aa4e537bd38aeae4b073aa335b6040516001600160a01b03909116815260200160405180910390a1565b60015460ff161561086b5760405162461bcd60e51b815260206004820152601060248201526f14185d5cd8589b194e881c185d5cd95960821b6044820152606401610371565b6001805460ff1916811790557f62e78cea01bee320cd4e420270b5ea74000d11b0c9f74754ebdbfc544b05a25833610808565b606060006108ad836002610be1565b6108b8906002610bc9565b67ffffffffffffffff8111156108de57634e487b7160e01b600052604160045260246000fd5b6040519080825280601f01601f191660200182016040528015610908576020820181803683370190505b509050600360fc1b8160008151811061093157634e487b7160e01b600052603260045260246000fd5b60200101906001600160f81b031916908160001a905350600f60fb1b8160018151811061096e57634e487b7160e01b600052603260045260246000fd5b60200101906001600160f81b031916908160001a9053506000610992846002610be1565b61099d906001610bc9565b90505b6001811115610a31576f181899199a1a9b1b9c1cb0b131b232b360811b85600f16601081106109df57634e487b7160e01b600052603260045260246000fd5b1a60f81b828281518110610a0357634e487b7160e01b600052603260045260246000fd5b60200101906001600160f81b031916908160001a90535060049490941c93610a2a81610c30565b90506109a0565b508315610a805760405162461bcd60e51b815260206004820181905260248201527f537472696e67733a20686578206c656e67746820696e73756666696369656e746044820152606401610371565b9392505050565b600060208284031215610a98578081fd5b81518015158114610a80578182fd5b600060208284031215610ab8578081fd5b5035919050565b60008060408385031215610ad1578081fd5b8235915060208301356001600160a01b0381168114610aee578182fd5b809150509250929050565b600060208284031215610b0a578081fd5b81356001600160e01b031981168114610a80578182fd5b7f416363657373436f6e74726f6c3a206163636f756e7420000000000000000000815260008351610b59816017850160208801610c00565b7001034b99036b4b9b9b4b733903937b6329607d1b6017918401918201528351610b8a816028840160208801610c00565b01602801949350505050565b6020815260008251806020840152610bb5816040850160208701610c00565b601f01601f19169190910160400192915050565b60008219821115610bdc57610bdc610c47565b500190565b6000816000190483118215151615610bfb57610bfb610c47565b500290565b60005b83811015610c1b578181015183820152602001610c03565b83811115610c2a576000848401525b50505050565b600081610c3f57610c3f610c47565b506000190190565b634e487b7160e01b600052601160045260246000fdfea264697066735822122057e052d507568d7a18d2d18b8a8d937fd632c33d09f0da5f9db79119077b261664736f6c63430008040033",
  "linkReferences": {},
  "deployedLinkReferences": {}
}