{
  "_format": "hh-sol-artifact-1",
  "contractName": "ERC4907",
  "sourceName": "contracts/ERC/ERC4907.sol",
  "abi": [
    {
      "inputs": [
        {
          "internalType": "string",
          "name": "name_",
          "type": "string"
        },
        {
          "internalType": "string",
          "name": "symbol_",
          "type": "string"
        }
      ],
      "stateMutability": "nonpayable",
      "type": "constructor"
    },
    {
      "anonymous": false,
      "inputs": [
        {
          "indexed": true,
          "internalType": "address",
          "name": "owner",
          "type": "address"
        },
        {
          "indexed": true,
          "internalType": "address",
          "name": "approved",
          "type": "address"
        },
        {
          "indexed": true,
          "internalType": "uint256",
          "name": "tokenId",
          "type": "uint256"
        }
      ],
      "name": "Approval",
      "type": "event"
    },
    {
      "anonymous": false,
      "inputs": [
        {
          "indexed": true,
          "internalType": "address",
          "name": "owner",
          "type": "address"
        },
        {
          "indexed": true,
          "internalType": "address",
          "name": "operator",
          "type": "address"
        },
        {
          "indexed": false,
          "internalType": "bool",
          "name": "approved",
          "type": "bool"
        }
      ],
      "name": "ApprovalForAll",
      "type": "event"
    },
    {
      "anonymous": false,
      "inputs": [
        {
          "indexed": true,
          "internalType": "address",
          "name": "from",
          "type": "address"
        },
        {
          "indexed": true,
          "internalType": "address",
          "name": "to",
          "type": "address"
        },
        {
          "indexed": true,
          "internalType": "uint256",
          "name": "tokenId",
          "type": "uint256"
        }
      ],
      "name": "Transfer",
      "type": "event"
    },
    {
      "anonymous": false,
      "inputs": [
        {
          "indexed": true,
          "internalType": "uint256",
          "name": "tokenId",
          "type": "uint256"
        },
        {
          "indexed": true,
          "internalType": "address",
          "name": "user",
          "type": "address"
        },
        {
          "indexed": false,
          "internalType": "uint64",
          "name": "expires",
          "type": "uint64"
        }
      ],
      "name": "UpdateUser",
      "type": "event"
    },
    {
      "inputs": [
        {
          "internalType": "address",
          "name": "to",
          "type": "address"
        },
        {
          "internalType": "uint256",
          "name": "tokenId",
          "type": "uint256"
        }
      ],
      "name": "approve",
      "outputs": [],
      "stateMutability": "nonpayable",
      "type": "function"
    },
    {
      "inputs": [
        {
          "internalType": "address",
          "name": "owner",
          "type": "address"
        }
      ],
      "name": "balanceOf",
      "outputs": [
        {
          "internalType": "uint256",
          "name": "",
          "type": "uint256"
        }
      ],
      "stateMutability": "view",
      "type": "function"
    },
    {
      "inputs": [
        {
          "internalType": "uint256",
          "name": "tokenId",
          "type": "uint256"
        }
      ],
      "name": "getApproved",
      "outputs": [
        {
          "internalType": "address",
          "name": "",
          "type": "address"
        }
      ],
      "stateMutability": "view",
      "type": "function"
    },
    {
      "inputs": [
        {
          "internalType": "address",
          "name": "owner",
          "type": "address"
        },
        {
          "internalType": "address",
          "name": "operator",
          "type": "address"
        }
      ],
      "name": "isApprovedForAll",
      "outputs": [
        {
          "internalType": "bool",
          "name": "",
          "type": "bool"
        }
      ],
      "stateMutability": "view",
      "type": "function"
    },
    {
      "inputs": [],
      "name": "name",
      "outputs": [
        {
          "internalType": "string",
          "name": "",
          "type": "string"
        }
      ],
      "stateMutability": "view",
      "type": "function"
    },
    {
      "inputs": [
        {
          "internalType": "uint256",
          "name": "tokenId",
          "type": "uint256"
        }
      ],
      "name": "ownerOf",
      "outputs": [
        {
          "internalType": "address",
          "name": "",
          "type": "address"
        }
      ],
      "stateMutability": "view",
      "type": "function"
    },
    {
      "inputs": [
        {
          "internalType": "address",
          "name": "from",
          "type": "address"
        },
        {
          "internalType": "address",
          "name": "to",
          "type": "address"
        },
        {
          "internalType": "uint256",
          "name": "tokenId",
          "type": "uint256"
        }
      ],
      "name": "safeTransferFrom",
      "outputs": [],
      "stateMutability": "nonpayable",
      "type": "function"
    },
    {
      "inputs": [
        {
          "internalType": "address",
          "name": "from",
          "type": "address"
        },
        {
          "internalType": "address",
          "name": "to",
          "type": "address"
        },
        {
          "internalType": "uint256",
          "name": "tokenId",
          "type": "uint256"
        },
        {
          "internalType": "bytes",
          "name": "_data",
          "type": "bytes"
        }
      ],
      "name": "safeTransferFrom",
      "outputs": [],
      "stateMutability": "nonpayable",
      "type": "function"
    },
    {
      "inputs": [
        {
          "internalType": "address",
          "name": "operator",
          "type": "address"
        },
        {
          "internalType": "bool",
          "name": "approved",
          "type": "bool"
        }
      ],
      "name": "setApprovalForAll",
      "outputs": [],
      "stateMutability": "nonpayable",
      "type": "function"
    },
    {
      "inputs": [
        {
          "internalType": "uint256",
          "name": "tokenId",
          "type": "uint256"
        },
        {
          "internalType": "address",
          "name": "user",
          "type": "address"
        },
        {
          "internalType": "uint64",
          "name": "expires",
          "type": "uint64"
        }
      ],
      "name": "setUser",
      "outputs": [],
      "stateMutability": "nonpayable",
      "type": "function"
    },
    {
      "inputs": [
        {
          "internalType": "bytes4",
          "name": "interfaceId",
          "type": "bytes4"
        }
      ],
      "name": "supportsInterface",
      "outputs": [
        {
          "internalType": "bool",
          "name": "",
          "type": "bool"
        }
      ],
      "stateMutability": "view",
      "type": "function"
    },
    {
      "inputs": [],
      "name": "symbol",
      "outputs": [
        {
          "internalType": "string",
          "name": "",
          "type": "string"
        }
      ],
      "stateMutability": "view",
      "type": "function"
    },
    {
      "inputs": [
        {
          "internalType": "uint256",
          "name": "tokenId",
          "type": "uint256"
        }
      ],
      "name": "tokenURI",
      "outputs": [
        {
          "internalType": "string",
          "name": "",
          "type": "string"
        }
      ],
      "stateMutability": "view",
      "type": "function"
    },
    {
      "inputs": [
        {
          "internalType": "address",
          "name": "from",
          "type": "address"
        },
        {
          "internalType": "address",
          "name": "to",
          "type": "address"
        },
        {
          "internalType": "uint256",
          "name": "tokenId",
          "type": "uint256"
        }
      ],
      "name": "transferFrom",
      "outputs": [],
      "stateMutability": "nonpayable",
      "type": "function"
    },
    {
      "inputs": [
        {
          "internalType": "uint256",
          "name": "tokenId",
          "type": "uint256"
        }
      ],
      "name": "userExpires",
      "outputs": [
        {
          "internalType": "uint256",
          "name": "",
          "type": "uint256"
        }
      ],
      "stateMutability": "view",
      "type": "function"
    },
    {
      "inputs": [
        {
          "internalType": "uint256",
          "name": "tokenId",
          "type": "uint256"
        }
      ],
      "name": "userOf",
      "outputs": [
        {
          "internalType": "address",
          "name": "",
          "type": "address"
        }
      ],
      "stateMutability": "view",
      "type": "function"
    }
  ],
  "bytecode": "0x60806040523480156200001157600080fd5b5060405162002c7c38038062002c7c833981810160405281019062000037919062000197565b818181600090805190602001906200005192919062000075565b5080600190805190602001906200006a92919062000075565b50505050506200037a565b82805462000083906200029f565b90600052602060002090601f016020900481019282620000a75760008555620000f3565b82601f10620000c257805160ff1916838001178555620000f3565b82800160010185558215620000f3579182015b82811115620000f2578251825591602001919060010190620000d5565b5b50905062000102919062000106565b5090565b5b808211156200012157600081600090555060010162000107565b5090565b60006200013c620001368462000233565b6200020a565b9050828152602081018484840111156200015557600080fd5b6200016284828562000269565b509392505050565b600082601f8301126200017c57600080fd5b81516200018e84826020860162000125565b91505092915050565b60008060408385031215620001ab57600080fd5b600083015167ffffffffffffffff811115620001c657600080fd5b620001d4858286016200016a565b925050602083015167ffffffffffffffff811115620001f257600080fd5b62000200858286016200016a565b9150509250929050565b60006200021662000229565b9050620002248282620002d5565b919050565b6000604051905090565b600067ffffffffffffffff8211156200025157620002506200033a565b5b6200025c8262000369565b9050602081019050919050565b60005b83811015620002895780820151818401526020810190506200026c565b8381111562000299576000848401525b50505050565b60006002820490506001821680620002b857607f821691505b60208210811415620002cf57620002ce6200030b565b5b50919050565b620002e08262000369565b810181811067ffffffffffffffff821117156200030257620003016200033a565b5b80604052505050565b7f4e487b7100000000000000000000000000000000000000000000000000000000600052602260045260246000fd5b7f4e487b7100000000000000000000000000000000000000000000000000000000600052604160045260246000fd5b6000601f19601f8301169050919050565b6128f2806200038a6000396000f3fe608060405234801561001057600080fd5b50600436106101005760003560e01c80638fc88c4811610097578063c2f1f14a11610066578063c2f1f14a146102bd578063c87b56dd146102ed578063e030565e1461031d578063e985e9c51461033957610100565b80638fc88c481461023757806395d89b4114610267578063a22cb46514610285578063b88d4fde146102a157610100565b806323b872dd116100d357806323b872dd1461019f57806342842e0e146101bb5780636352211e146101d757806370a082311461020757610100565b806301ffc9a71461010557806306fdde0314610135578063081812fc14610153578063095ea7b314610183575b600080fd5b61011f600480360381019061011a9190611aec565b610369565b60405161012c9190611ed3565b60405180910390f35b61013d6103e3565b60405161014a9190611f09565b60405180910390f35b61016d60048036038101906101689190611b3e565b610475565b60405161017a9190611e6c565b60405180910390f35b61019d60048036038101906101989190611ab0565b6104fa565b005b6101b960048036038101906101b491906119aa565b610612565b005b6101d560048036038101906101d091906119aa565b610672565b005b6101f160048036038101906101ec9190611b3e565b610692565b6040516101fe9190611e6c565b60405180910390f35b610221600480360381019061021c9190611945565b610744565b60405161022e91906120ab565b60405180910390f35b610251600480360381019061024c9190611b3e565b6107fc565b60405161025e91906120ab565b60405180910390f35b61026f61083a565b60405161027c9190611f09565b60405180910390f35b61029f600480360381019061029a9190611a74565b6108cc565b005b6102bb60048036038101906102b691906119f9565b6108e2565b005b6102d760048036038101906102d29190611b3e565b610944565b6040516102e49190611e6c565b60405180910390f35b61030760048036038101906103029190611b3e565b6109c9565b6040516103149190611f09565b60405180910390f35b61033760048036038101906103329190611b67565b610a70565b005b610353600480360381019061034e919061196e565b610b93565b6040516103609190611ed3565b60405180910390f35b60007fad092b5c000000000000000000000000000000000000000000000000000000007bffffffffffffffffffffffffffffffffffffffffffffffffffffffff1916827bffffffffffffffffffffffffffffffffffffffffffffffffffffffff191614806103dc57506103db82610c27565b5b9050919050565b6060600080546103f290612311565b80601f016020809104026020016040519081016040528092919081815260200182805461041e90612311565b801561046b5780601f106104405761010080835404028352916020019161046b565b820191906000526020600020905b81548152906001019060200180831161044e57829003601f168201915b5050505050905090565b600061048082610d09565b6104bf576040517f08c379a00000000000000000000000000000000000000000000000000000000081526004016104b69061202b565b60405180910390fd5b6004600083815260200190815260200160002060009054906101000a900473ffffffffffffffffffffffffffffffffffffffff169050919050565b600061050582610692565b90508073ffffffffffffffffffffffffffffffffffffffff168373ffffffffffffffffffffffffffffffffffffffff161415610576576040517f08c379a000000000000000000000000000000000000000000000000000000000815260040161056d9061206b565b60405180910390fd5b8073ffffffffffffffffffffffffffffffffffffffff16610595610d75565b73ffffffffffffffffffffffffffffffffffffffff1614806105c457506105c3816105be610d75565b610b93565b5b610603576040517f08c379a00000000000000000000000000000000000000000000000000000000081526004016105fa90611fcb565b60405180910390fd5b61060d8383610d7d565b505050565b61062361061d610d75565b82610e36565b610662576040517f08c379a00000000000000000000000000000000000000000000000000000000081526004016106599061208b565b60405180910390fd5b61066d838383610f14565b505050565b61068d838383604051806020016040528060008152506108e2565b505050565b6000806002600084815260200190815260200160002060009054906101000a900473ffffffffffffffffffffffffffffffffffffffff169050600073ffffffffffffffffffffffffffffffffffffffff168173ffffffffffffffffffffffffffffffffffffffff16141561073b576040517f08c379a00000000000000000000000000000000000000000000000000000000081526004016107329061200b565b60405180910390fd5b80915050919050565b60008073ffffffffffffffffffffffffffffffffffffffff168273ffffffffffffffffffffffffffffffffffffffff1614156107b5576040517f08c379a00000000000000000000000000000000000000000000000000000000081526004016107ac90611feb565b60405180910390fd5b600360008373ffffffffffffffffffffffffffffffffffffffff1673ffffffffffffffffffffffffffffffffffffffff168152602001908152602001600020549050919050565b60006006600083815260200190815260200160002060000160149054906101000a900467ffffffffffffffff1667ffffffffffffffff169050919050565b60606001805461084990612311565b80601f016020809104026020016040519081016040528092919081815260200182805461087590612311565b80156108c25780601f10610897576101008083540402835291602001916108c2565b820191906000526020600020905b8154815290600101906020018083116108a557829003601f168201915b5050505050905090565b6108de6108d7610d75565b838361117b565b5050565b6108f36108ed610d75565b83610e36565b610932576040517f08c379a00000000000000000000000000000000000000000000000000000000081526004016109299061208b565b60405180910390fd5b61093e848484846112e8565b50505050565b6000426006600084815260200190815260200160002060000160149054906101000a900467ffffffffffffffff1667ffffffffffffffff16106109bf576006600083815260200190815260200160002060000160009054906101000a900473ffffffffffffffffffffffffffffffffffffffff1690506109c4565b600090505b919050565b60606109d482610d09565b610a13576040517f08c379a0000000000000000000000000000000000000000000000000000000008152600401610a0a9061204b565b60405180910390fd5b6000610a1d611344565b90506000815111610a3d5760405180602001604052806000815250610a68565b80610a478461135b565b604051602001610a58929190611e48565b6040516020818303038152906040525b915050919050565b610a7a3384610e36565b610ab9576040517f08c379a0000000000000000000000000000000000000000000000000000000008152600401610ab09061208b565b60405180910390fd5b6000600660008581526020019081526020016000209050828160000160006101000a81548173ffffffffffffffffffffffffffffffffffffffff021916908373ffffffffffffffffffffffffffffffffffffffff160217905550818160000160146101000a81548167ffffffffffffffff021916908367ffffffffffffffff1602179055508273ffffffffffffffffffffffffffffffffffffffff16847f4e06b4e7000e659094299b3533b47b6aa8ad048e95e872d23d1f4ee55af89cfe84604051610b8591906120c6565b60405180910390a350505050565b6000600560008473ffffffffffffffffffffffffffffffffffffffff1673ffffffffffffffffffffffffffffffffffffffff16815260200190815260200160002060008373ffffffffffffffffffffffffffffffffffffffff1673ffffffffffffffffffffffffffffffffffffffff16815260200190815260200160002060009054906101000a900460ff16905092915050565b60007f80ac58cd000000000000000000000000000000000000000000000000000000007bffffffffffffffffffffffffffffffffffffffffffffffffffffffff1916827bffffffffffffffffffffffffffffffffffffffffffffffffffffffff19161480610cf257507f5b5e139f000000000000000000000000000000000000000000000000000000007bffffffffffffffffffffffffffffffffffffffffffffffffffffffff1916827bffffffffffffffffffffffffffffffffffffffffffffffffffffffff1916145b80610d025750610d0182611508565b5b9050919050565b60008073ffffffffffffffffffffffffffffffffffffffff166002600084815260200190815260200160002060009054906101000a900473ffffffffffffffffffffffffffffffffffffffff1673ffffffffffffffffffffffffffffffffffffffff1614159050919050565b600033905090565b816004600083815260200190815260200160002060006101000a81548173ffffffffffffffffffffffffffffffffffffffff021916908373ffffffffffffffffffffffffffffffffffffffff160217905550808273ffffffffffffffffffffffffffffffffffffffff16610df083610692565b73ffffffffffffffffffffffffffffffffffffffff167f8c5be1e5ebec7d5bd14f71427d1e84f3dd0314c0f7b2291e5b200ac8c7c3b92560405160405180910390a45050565b6000610e4182610d09565b610e80576040517f08c379a0000000000000000000000000000000000000000000000000000000008152600401610e7790611fab565b60405180910390fd5b6000610e8b83610692565b90508073ffffffffffffffffffffffffffffffffffffffff168473ffffffffffffffffffffffffffffffffffffffff161480610ecd5750610ecc8185610b93565b5b80610f0b57508373ffffffffffffffffffffffffffffffffffffffff16610ef384610475565b73ffffffffffffffffffffffffffffffffffffffff16145b91505092915050565b8273ffffffffffffffffffffffffffffffffffffffff16610f3482610692565b73ffffffffffffffffffffffffffffffffffffffff1614610f8a576040517f08c379a0000000000000000000000000000000000000000000000000000000008152600401610f8190611f4b565b60405180910390fd5b600073ffffffffffffffffffffffffffffffffffffffff168273ffffffffffffffffffffffffffffffffffffffff161415610ffa576040517f08c379a0000000000000000000000000000000000000000000000000000000008152600401610ff190611f6b565b60405180910390fd5b611005838383611572565b611010600082610d7d565b6001600360008573ffffffffffffffffffffffffffffffffffffffff1673ffffffffffffffffffffffffffffffffffffffff16815260200190815260200160002060008282546110609190612201565b925050819055506001600360008473ffffffffffffffffffffffffffffffffffffffff1673ffffffffffffffffffffffffffffffffffffffff16815260200190815260200160002060008282546110b7919061217a565b92505081905550816002600083815260200190815260200160002060006101000a81548173ffffffffffffffffffffffffffffffffffffffff021916908373ffffffffffffffffffffffffffffffffffffffff160217905550808273ffffffffffffffffffffffffffffffffffffffff168473ffffffffffffffffffffffffffffffffffffffff167fddf252ad1be2c89b69c2b068fc378daa952ba7f163c4a11628f55a4df523b3ef60405160405180910390a461117683838361169b565b505050565b8173ffffffffffffffffffffffffffffffffffffffff168373ffffffffffffffffffffffffffffffffffffffff1614156111ea576040517f08c379a00000000000000000000000000000000000000000000000000000000081526004016111e190611f8b565b60405180910390fd5b80600560008573ffffffffffffffffffffffffffffffffffffffff1673ffffffffffffffffffffffffffffffffffffffff16815260200190815260200160002060008473ffffffffffffffffffffffffffffffffffffffff1673ffffffffffffffffffffffffffffffffffffffff16815260200190815260200160002060006101000a81548160ff0219169083151502179055508173ffffffffffffffffffffffffffffffffffffffff168373ffffffffffffffffffffffffffffffffffffffff167f17307eab39ab6107e8899845ad3d59bd9653f200f220920489ca2b5937696c31836040516112db9190611ed3565b60405180910390a3505050565b6112f3848484610f14565b6112ff848484846116a0565b61133e576040517f08c379a000000000000000000000000000000000000000000000000000000000815260040161133590611f2b565b60405180910390fd5b50505050565b606060405180602001604052806000815250905090565b606060008214156113a3576040518060400160405280600181526020017f30000000000000000000000000000000000000000000000000000000000000008152509050611503565b600082905060005b600082146113d55780806113be90612374565b915050600a826113ce91906121d0565b91506113ab565b60008167ffffffffffffffff811115611417577f4e487b7100000000000000000000000000000000000000000000000000000000600052604160045260246000fd5b6040519080825280601f01601f1916602001820160405280156114495781602001600182028036833780820191505090505b5090505b600085146114fc576001826114629190612201565b9150600a8561147191906123bd565b603061147d919061217a565b60f81b8183815181106114b9577f4e487b7100000000000000000000000000000000000000000000000000000000600052603260045260246000fd5b60200101907effffffffffffffffffffffffffffffffffffffffffffffffffffffffffffff1916908160001a905350600a856114f591906121d0565b945061144d565b8093505050505b919050565b60007f01ffc9a7000000000000000000000000000000000000000000000000000000007bffffffffffffffffffffffffffffffffffffffffffffffffffffffff1916827bffffffffffffffffffffffffffffffffffffffffffffffffffffffff1916149050919050565b61157d838383611837565b8173ffffffffffffffffffffffffffffffffffffffff168373ffffffffffffffffffffffffffffffffffffffff16146116965760006006600083815260200190815260200160002060000160006101000a81548173ffffffffffffffffffffffffffffffffffffffff021916908373ffffffffffffffffffffffffffffffffffffffff16021790555060006006600083815260200190815260200160002060000160146101000a81548167ffffffffffffffff021916908367ffffffffffffffff160217905550600073ffffffffffffffffffffffffffffffffffffffff16817f4e06b4e7000e659094299b3533b47b6aa8ad048e95e872d23d1f4ee55af89cfe600060405161168d9190611eee565b60405180910390a35b505050565b505050565b60006116c18473ffffffffffffffffffffffffffffffffffffffff1661183c565b1561182a578373ffffffffffffffffffffffffffffffffffffffff1663150b7a026116ea610d75565b8786866040518563ffffffff1660e01b815260040161170c9493929190611e87565b602060405180830381600087803b15801561172657600080fd5b505af192505050801561175757506040513d601f19601f820116820180604052508101906117549190611b15565b60015b6117da573d8060008114611787576040519150601f19603f3d011682016040523d82523d6000602084013e61178c565b606091505b506000815114156117d2576040517f08c379a00000000000000000000000000000000000000000000000000000000081526004016117c990611f2b565b60405180910390fd5b805181602001fd5b63150b7a0260e01b7bffffffffffffffffffffffffffffffffffffffffffffffffffffffff1916817bffffffffffffffffffffffffffffffffffffffffffffffffffffffff19161491505061182f565b600190505b949350505050565b505050565b6000808273ffffffffffffffffffffffffffffffffffffffff163b119050919050565b600061187261186d84612106565b6120e1565b90508281526020810184848401111561188a57600080fd5b6118958482856122cf565b509392505050565b6000813590506118ac81612849565b92915050565b6000813590506118c181612860565b92915050565b6000813590506118d681612877565b92915050565b6000815190506118eb81612877565b92915050565b600082601f83011261190257600080fd5b813561191284826020860161185f565b91505092915050565b60008135905061192a8161288e565b92915050565b60008135905061193f816128a5565b92915050565b60006020828403121561195757600080fd5b60006119658482850161189d565b91505092915050565b6000806040838503121561198157600080fd5b600061198f8582860161189d565b92505060206119a08582860161189d565b9150509250929050565b6000806000606084860312156119bf57600080fd5b60006119cd8682870161189d565b93505060206119de8682870161189d565b92505060406119ef8682870161191b565b9150509250925092565b60008060008060808587031215611a0f57600080fd5b6000611a1d8782880161189d565b9450506020611a2e8782880161189d565b9350506040611a3f8782880161191b565b925050606085013567ffffffffffffffff811115611a5c57600080fd5b611a68878288016118f1565b91505092959194509250565b60008060408385031215611a8757600080fd5b6000611a958582860161189d565b9250506020611aa6858286016118b2565b9150509250929050565b60008060408385031215611ac357600080fd5b6000611ad18582860161189d565b9250506020611ae28582860161191b565b9150509250929050565b600060208284031215611afe57600080fd5b6000611b0c848285016118c7565b91505092915050565b600060208284031215611b2757600080fd5b6000611b35848285016118dc565b91505092915050565b600060208284031215611b5057600080fd5b6000611b5e8482850161191b565b91505092915050565b600080600060608486031215611b7c57600080fd5b6000611b8a8682870161191b565b9350506020611b9b8682870161189d565b9250506040611bac86828701611930565b9150509250925092565b611bbf81612235565b82525050565b611bce81612247565b82525050565b6000611bdf82612137565b611be9818561214d565b9350611bf98185602086016122de565b611c02816124aa565b840191505092915050565b611c16816122bd565b82525050565b6000611c2782612142565b611c31818561215e565b9350611c418185602086016122de565b611c4a816124aa565b840191505092915050565b6000611c6082612142565b611c6a818561216f565b9350611c7a8185602086016122de565b80840191505092915050565b6000611c9360328361215e565b9150611c9e826124bb565b604082019050919050565b6000611cb660258361215e565b9150611cc18261250a565b604082019050919050565b6000611cd960248361215e565b9150611ce482612559565b604082019050919050565b6000611cfc60198361215e565b9150611d07826125a8565b602082019050919050565b6000611d1f602c8361215e565b9150611d2a826125d1565b604082019050919050565b6000611d4260388361215e565b9150611d4d82612620565b604082019050919050565b6000611d65602a8361215e565b9150611d708261266f565b604082019050919050565b6000611d8860298361215e565b9150611d93826126be565b604082019050919050565b6000611dab602c8361215e565b9150611db68261270d565b604082019050919050565b6000611dce602f8361215e565b9150611dd98261275c565b604082019050919050565b6000611df160218361215e565b9150611dfc826127ab565b604082019050919050565b6000611e1460318361215e565b9150611e1f826127fa565b604082019050919050565b611e338161229f565b82525050565b611e42816122a9565b82525050565b6000611e548285611c55565b9150611e608284611c55565b91508190509392505050565b6000602082019050611e816000830184611bb6565b92915050565b6000608082019050611e9c6000830187611bb6565b611ea96020830186611bb6565b611eb66040830185611e2a565b8181036060830152611ec88184611bd4565b905095945050505050565b6000602082019050611ee86000830184611bc5565b92915050565b6000602082019050611f036000830184611c0d565b92915050565b60006020820190508181036000830152611f238184611c1c565b905092915050565b60006020820190508181036000830152611f4481611c86565b9050919050565b60006020820190508181036000830152611f6481611ca9565b9050919050565b60006020820190508181036000830152611f8481611ccc565b9050919050565b60006020820190508181036000830152611fa481611cef565b9050919050565b60006020820190508181036000830152611fc481611d12565b9050919050565b60006020820190508181036000830152611fe481611d35565b9050919050565b6000602082019050818103600083015261200481611d58565b9050919050565b6000602082019050818103600083015261202481611d7b565b9050919050565b6000602082019050818103600083015261204481611d9e565b9050919050565b6000602082019050818103600083015261206481611dc1565b9050919050565b6000602082019050818103600083015261208481611de4565b9050919050565b600060208201905081810360008301526120a481611e07565b9050919050565b60006020820190506120c06000830184611e2a565b92915050565b60006020820190506120db6000830184611e39565b92915050565b60006120eb6120fc565b90506120f78282612343565b919050565b6000604051905090565b600067ffffffffffffffff8211156121215761212061247b565b5b61212a826124aa565b9050602081019050919050565b600081519050919050565b600081519050919050565b600082825260208201905092915050565b600082825260208201905092915050565b600081905092915050565b60006121858261229f565b91506121908361229f565b9250827fffffffffffffffffffffffffffffffffffffffffffffffffffffffffffffffff038211156121c5576121c46123ee565b5b828201905092915050565b60006121db8261229f565b91506121e68361229f565b9250826121f6576121f561241d565b5b828204905092915050565b600061220c8261229f565b91506122178361229f565b92508282101561222a576122296123ee565b5b828203905092915050565b60006122408261227f565b9050919050565b60008115159050919050565b60007fffffffff0000000000000000000000000000000000000000000000000000000082169050919050565b600073ffffffffffffffffffffffffffffffffffffffff82169050919050565b6000819050919050565b600067ffffffffffffffff82169050919050565b60006122c8826122a9565b9050919050565b82818337600083830152505050565b60005b838110156122fc5780820151818401526020810190506122e1565b8381111561230b576000848401525b50505050565b6000600282049050600182168061232957607f821691505b6020821081141561233d5761233c61244c565b5b50919050565b61234c826124aa565b810181811067ffffffffffffffff8211171561236b5761236a61247b565b5b80604052505050565b600061237f8261229f565b91507fffffffffffffffffffffffffffffffffffffffffffffffffffffffffffffffff8214156123b2576123b16123ee565b5b600182019050919050565b60006123c88261229f565b91506123d38361229f565b9250826123e3576123e261241d565b5b828206905092915050565b7f4e487b7100000000000000000000000000000000000000000000000000000000600052601160045260246000fd5b7f4e487b7100000000000000000000000000000000000000000000000000000000600052601260045260246000fd5b7f4e487b7100000000000000000000000000000000000000000000000000000000600052602260045260246000fd5b7f4e487b7100000000000000000000000000000000000000000000000000000000600052604160045260246000fd5b6000601f19601f8301169050919050565b7f4552433732313a207472616e7366657220746f206e6f6e20455243373231526560008201527f63656976657220696d706c656d656e7465720000000000000000000000000000602082015250565b7f4552433732313a207472616e736665722066726f6d20696e636f72726563742060008201527f6f776e6572000000000000000000000000000000000000000000000000000000602082015250565b7f4552433732313a207472616e7366657220746f20746865207a65726f2061646460008201527f7265737300000000000000000000000000000000000000000000000000000000602082015250565b7f4552433732313a20617070726f766520746f2063616c6c657200000000000000600082015250565b7f4552433732313a206f70657261746f7220717565727920666f72206e6f6e657860008201527f697374656e7420746f6b656e0000000000000000000000000000000000000000602082015250565b7f4552433732313a20617070726f76652063616c6c6572206973206e6f74206f7760008201527f6e6572206e6f7220617070726f76656420666f7220616c6c0000000000000000602082015250565b7f4552433732313a2062616c616e636520717565727920666f7220746865207a6560008201527f726f206164647265737300000000000000000000000000000000000000000000602082015250565b7f4552433732313a206f776e657220717565727920666f72206e6f6e657869737460008201527f656e7420746f6b656e0000000000000000000000000000000000000000000000602082015250565b7f4552433732313a20617070726f76656420717565727920666f72206e6f6e657860008201527f697374656e7420746f6b656e0000000000000000000000000000000000000000602082015250565b7f4552433732314d657461646174613a2055524920717565727920666f72206e6f60008201527f6e6578697374656e7420746f6b656e0000000000000000000000000000000000602082015250565b7f4552433732313a20617070726f76616c20746f2063757272656e74206f776e6560008201527f7200000000000000000000000000000000000000000000000000000000000000602082015250565b7f4552433732313a207472616e736665722063616c6c6572206973206e6f74206f60008201527f776e6572206e6f7220617070726f766564000000000000000000000000000000602082015250565b61285281612235565b811461285d57600080fd5b50565b61286981612247565b811461287457600080fd5b50565b61288081612253565b811461288b57600080fd5b50565b6128978161229f565b81146128a257600080fd5b50565b6128ae816122a9565b81146128b957600080fd5b5056fea2646970667358221220164771ac921d1402ed19db7e9a54f2b5466b03a87d745b6ec2532cd2a645959d64736f6c63430008040033",
  "linkReferences": {},
  "deployedLinkReferences": {}
}