{
  "_format": "hh-sol-artifact-1",
  "contractName": "ERC721A",
  "sourceName": "erc721a/contracts/ERC721A.sol",
  "abi": [
    {
      "inputs": [
        {
          "internalType": "string",
          "name": "name_",
          "type": "string"
        },
        {
          "internalType": "string",
          "name": "symbol_",
          "type": "string"
        }
      ],
      "stateMutability": "nonpayable",
      "type": "constructor"
    },
    {
      "inputs": [],
      "name": "ApprovalCallerNotOwnerNorApproved",
      "type": "error"
    },
    {
      "inputs": [],
      "name": "ApprovalQueryForNonexistentToken",
      "type": "error"
    },
    {
      "inputs": [],
      "name": "ApprovalToCurrentOwner",
      "type": "error"
    },
    {
      "inputs": [],
      "name": "ApproveToCaller",
      "type": "error"
    },
    {
      "inputs": [],
      "name": "BalanceQueryForZeroAddress",
      "type": "error"
    },
    {
      "inputs": [],
      "name": "MintToZeroAddress",
      "type": "error"
    },
    {
      "inputs": [],
      "name": "MintZeroQuantity",
      "type": "error"
    },
    {
      "inputs": [],
      "name": "OwnerQueryForNonexistentToken",
      "type": "error"
    },
    {
      "inputs": [],
      "name": "TransferCallerNotOwnerNorApproved",
      "type": "error"
    },
    {
      "inputs": [],
      "name": "TransferFromIncorrectOwner",
      "type": "error"
    },
    {
      "inputs": [],
      "name": "TransferToNonERC721ReceiverImplementer",
      "type": "error"
    },
    {
      "inputs": [],
      "name": "TransferToZeroAddress",
      "type": "error"
    },
    {
      "inputs": [],
      "name": "URIQueryForNonexistentToken",
      "type": "error"
    },
    {
      "anonymous": false,
      "inputs": [
        {
          "indexed": true,
          "internalType": "address",
          "name": "owner",
          "type": "address"
        },
        {
          "indexed": true,
          "internalType": "address",
          "name": "approved",
          "type": "address"
        },
        {
          "indexed": true,
          "internalType": "uint256",
          "name": "tokenId",
          "type": "uint256"
        }
      ],
      "name": "Approval",
      "type": "event"
    },
    {
      "anonymous": false,
      "inputs": [
        {
          "indexed": true,
          "internalType": "address",
          "name": "owner",
          "type": "address"
        },
        {
          "indexed": true,
          "internalType": "address",
          "name": "operator",
          "type": "address"
        },
        {
          "indexed": false,
          "internalType": "bool",
          "name": "approved",
          "type": "bool"
        }
      ],
      "name": "ApprovalForAll",
      "type": "event"
    },
    {
      "anonymous": false,
      "inputs": [
        {
          "indexed": true,
          "internalType": "address",
          "name": "from",
          "type": "address"
        },
        {
          "indexed": true,
          "internalType": "address",
          "name": "to",
          "type": "address"
        },
        {
          "indexed": true,
          "internalType": "uint256",
          "name": "tokenId",
          "type": "uint256"
        }
      ],
      "name": "Transfer",
      "type": "event"
    },
    {
      "inputs": [
        {
          "internalType": "address",
          "name": "to",
          "type": "address"
        },
        {
          "internalType": "uint256",
          "name": "tokenId",
          "type": "uint256"
        }
      ],
      "name": "approve",
      "outputs": [],
      "stateMutability": "nonpayable",
      "type": "function"
    },
    {
      "inputs": [
        {
          "internalType": "address",
          "name": "owner",
          "type": "address"
        }
      ],
      "name": "balanceOf",
      "outputs": [
        {
          "internalType": "uint256",
          "name": "",
          "type": "uint256"
        }
      ],
      "stateMutability": "view",
      "type": "function"
    },
    {
      "inputs": [
        {
          "internalType": "uint256",
          "name": "tokenId",
          "type": "uint256"
        }
      ],
      "name": "getApproved",
      "outputs": [
        {
          "internalType": "address",
          "name": "",
          "type": "address"
        }
      ],
      "stateMutability": "view",
      "type": "function"
    },
    {
      "inputs": [
        {
          "internalType": "address",
          "name": "owner",
          "type": "address"
        },
        {
          "internalType": "address",
          "name": "operator",
          "type": "address"
        }
      ],
      "name": "isApprovedForAll",
      "outputs": [
        {
          "internalType": "bool",
          "name": "",
          "type": "bool"
        }
      ],
      "stateMutability": "view",
      "type": "function"
    },
    {
      "inputs": [],
      "name": "name",
      "outputs": [
        {
          "internalType": "string",
          "name": "",
          "type": "string"
        }
      ],
      "stateMutability": "view",
      "type": "function"
    },
    {
      "inputs": [
        {
          "internalType": "uint256",
          "name": "tokenId",
          "type": "uint256"
        }
      ],
      "name": "ownerOf",
      "outputs": [
        {
          "internalType": "address",
          "name": "",
          "type": "address"
        }
      ],
      "stateMutability": "view",
      "type": "function"
    },
    {
      "inputs": [
        {
          "internalType": "address",
          "name": "from",
          "type": "address"
        },
        {
          "internalType": "address",
          "name": "to",
          "type": "address"
        },
        {
          "internalType": "uint256",
          "name": "tokenId",
          "type": "uint256"
        }
      ],
      "name": "safeTransferFrom",
      "outputs": [],
      "stateMutability": "nonpayable",
      "type": "function"
    },
    {
      "inputs": [
        {
          "internalType": "address",
          "name": "from",
          "type": "address"
        },
        {
          "internalType": "address",
          "name": "to",
          "type": "address"
        },
        {
          "internalType": "uint256",
          "name": "tokenId",
          "type": "uint256"
        },
        {
          "internalType": "bytes",
          "name": "_data",
          "type": "bytes"
        }
      ],
      "name": "safeTransferFrom",
      "outputs": [],
      "stateMutability": "nonpayable",
      "type": "function"
    },
    {
      "inputs": [
        {
          "internalType": "address",
          "name": "operator",
          "type": "address"
        },
        {
          "internalType": "bool",
          "name": "approved",
          "type": "bool"
        }
      ],
      "name": "setApprovalForAll",
      "outputs": [],
      "stateMutability": "nonpayable",
      "type": "function"
    },
    {
      "inputs": [
        {
          "internalType": "bytes4",
          "name": "interfaceId",
          "type": "bytes4"
        }
      ],
      "name": "supportsInterface",
      "outputs": [
        {
          "internalType": "bool",
          "name": "",
          "type": "bool"
        }
      ],
      "stateMutability": "view",
      "type": "function"
    },
    {
      "inputs": [],
      "name": "symbol",
      "outputs": [
        {
          "internalType": "string",
          "name": "",
          "type": "string"
        }
      ],
      "stateMutability": "view",
      "type": "function"
    },
    {
      "inputs": [
        {
          "internalType": "uint256",
          "name": "tokenId",
          "type": "uint256"
        }
      ],
      "name": "tokenURI",
      "outputs": [
        {
          "internalType": "string",
          "name": "",
          "type": "string"
        }
      ],
      "stateMutability": "view",
      "type": "function"
    },
    {
      "inputs": [],
      "name": "totalSupply",
      "outputs": [
        {
          "internalType": "uint256",
          "name": "",
          "type": "uint256"
        }
      ],
      "stateMutability": "view",
      "type": "function"
    },
    {
      "inputs": [
        {
          "internalType": "address",
          "name": "from",
          "type": "address"
        },
        {
          "internalType": "address",
          "name": "to",
          "type": "address"
        },
        {
          "internalType": "uint256",
          "name": "tokenId",
          "type": "uint256"
        }
      ],
      "name": "transferFrom",
      "outputs": [],
      "stateMutability": "nonpayable",
      "type": "function"
    }
  ],
  "bytecode": "0x60806040523480156200001157600080fd5b5060405162001cc338038062001cc38339818101604052810190620000379190620001ae565b81600290805190602001906200004f9291906200008c565b508060039080519060200190620000689291906200008c565b50620000796200008760201b60201c565b600081905550505062000391565b600090565b8280546200009a90620002b6565b90600052602060002090601f016020900481019282620000be57600085556200010a565b82601f10620000d957805160ff19168380011785556200010a565b828001600101855582156200010a579182015b8281111562000109578251825591602001919060010190620000ec565b5b5090506200011991906200011d565b5090565b5b80821115620001385760008160009055506001016200011e565b5090565b6000620001536200014d846200024a565b62000221565b9050828152602081018484840111156200016c57600080fd5b6200017984828562000280565b509392505050565b600082601f8301126200019357600080fd5b8151620001a58482602086016200013c565b91505092915050565b60008060408385031215620001c257600080fd5b600083015167ffffffffffffffff811115620001dd57600080fd5b620001eb8582860162000181565b925050602083015167ffffffffffffffff8111156200020957600080fd5b620002178582860162000181565b9150509250929050565b60006200022d62000240565b90506200023b8282620002ec565b919050565b6000604051905090565b600067ffffffffffffffff82111562000268576200026762000351565b5b620002738262000380565b9050602081019050919050565b60005b83811015620002a057808201518184015260208101905062000283565b83811115620002b0576000848401525b50505050565b60006002820490506001821680620002cf57607f821691505b60208210811415620002e657620002e562000322565b5b50919050565b620002f78262000380565b810181811067ffffffffffffffff8211171562000319576200031862000351565b5b80604052505050565b7f4e487b7100000000000000000000000000000000000000000000000000000000600052602260045260246000fd5b7f4e487b7100000000000000000000000000000000000000000000000000000000600052604160045260246000fd5b6000601f19601f8301169050919050565b61192280620003a16000396000f3fe608060405234801561001057600080fd5b50600436106100ea5760003560e01c80636352211e1161008c578063a22cb46511610066578063a22cb4651461025d578063b88d4fde14610279578063c87b56dd14610295578063e985e9c5146102c5576100ea565b80636352211e146101df57806370a082311461020f57806395d89b411461023f576100ea565b8063095ea7b3116100c8578063095ea7b31461016d57806318160ddd1461018957806323b872dd146101a757806342842e0e146101c3576100ea565b806301ffc9a7146100ef57806306fdde031461011f578063081812fc1461013d575b600080fd5b61010960048036038101906101049190611441565b6102f5565b6040516101169190611617565b60405180910390f35b610127610387565b6040516101349190611632565b60405180910390f35b61015760048036038101906101529190611493565b610419565b60405161016491906115b0565b60405180910390f35b61018760048036038101906101829190611405565b610495565b005b61019161063c565b60405161019e9190611654565b60405180910390f35b6101c160048036038101906101bc91906112ff565b610653565b005b6101dd60048036038101906101d891906112ff565b610663565b005b6101f960048036038101906101f49190611493565b610683565b60405161020691906115b0565b60405180910390f35b6102296004803603810190610224919061129a565b610695565b6040516102369190611654565b60405180910390f35b61024761074e565b6040516102549190611632565b60405180910390f35b610277600480360381019061027291906113c9565b6107e0565b005b610293600480360381019061028e919061134e565b610958565b005b6102af60048036038101906102aa9190611493565b6109cb565b6040516102bc9190611632565b60405180910390f35b6102df60048036038101906102da91906112c3565b610a6a565b6040516102ec9190611617565b60405180910390f35b60006301ffc9a760e01b827bffffffffffffffffffffffffffffffffffffffffffffffffffffffff1916148061035057506380ac58cd60e01b827bffffffffffffffffffffffffffffffffffffffffffffffffffffffff1916145b806103805750635b5e139f60e01b827bffffffffffffffffffffffffffffffffffffffffffffffffffffffff1916145b9050919050565b606060028054610396906117be565b80601f01602080910402602001604051908101604052809291908181526020018280546103c2906117be565b801561040f5780601f106103e45761010080835404028352916020019161040f565b820191906000526020600020905b8154815290600101906020018083116103f257829003601f168201915b5050505050905090565b600061042482610afe565b61045a576040517fcf4700e400000000000000000000000000000000000000000000000000000000815260040160405180910390fd5b6006600083815260200190815260200160002060009054906101000a900473ffffffffffffffffffffffffffffffffffffffff169050919050565b60006104a082610b5d565b90508073ffffffffffffffffffffffffffffffffffffffff168373ffffffffffffffffffffffffffffffffffffffff161415610508576040517f943f7b8c00000000000000000000000000000000000000000000000000000000815260040160405180910390fd5b8073ffffffffffffffffffffffffffffffffffffffff16610527610c2b565b73ffffffffffffffffffffffffffffffffffffffff161461058a576105538161054e610c2b565b610a6a565b610589576040517fcfb3b94200000000000000000000000000000000000000000000000000000000815260040160405180910390fd5b5b826006600084815260200190815260200160002060006101000a81548173ffffffffffffffffffffffffffffffffffffffff021916908373ffffffffffffffffffffffffffffffffffffffff160217905550818373ffffffffffffffffffffffffffffffffffffffff168273ffffffffffffffffffffffffffffffffffffffff167f8c5be1e5ebec7d5bd14f71427d1e84f3dd0314c0f7b2291e5b200ac8c7c3b92560405160405180910390a4505050565b6000610646610c33565b6001546000540303905090565b61065e838383610c38565b505050565b61067e83838360405180602001604052806000815250610958565b505050565b600061068e82610b5d565b9050919050565b60008073ffffffffffffffffffffffffffffffffffffffff168273ffffffffffffffffffffffffffffffffffffffff1614156106fd576040517f8f4eb60400000000000000000000000000000000000000000000000000000000815260040160405180910390fd5b67ffffffffffffffff600560008473ffffffffffffffffffffffffffffffffffffffff1673ffffffffffffffffffffffffffffffffffffffff16815260200190815260200160002054169050919050565b60606003805461075d906117be565b80601f0160208091040260200160405190810160405280929190818152602001828054610789906117be565b80156107d65780601f106107ab576101008083540402835291602001916107d6565b820191906000526020600020905b8154815290600101906020018083116107b957829003601f168201915b5050505050905090565b6107e8610c2b565b73ffffffffffffffffffffffffffffffffffffffff168273ffffffffffffffffffffffffffffffffffffffff16141561084d576040517fb06307db00000000000000000000000000000000000000000000000000000000815260040160405180910390fd5b806007600061085a610c2b565b73ffffffffffffffffffffffffffffffffffffffff1673ffffffffffffffffffffffffffffffffffffffff16815260200190815260200160002060008473ffffffffffffffffffffffffffffffffffffffff1673ffffffffffffffffffffffffffffffffffffffff16815260200190815260200160002060006101000a81548160ff0219169083151502179055508173ffffffffffffffffffffffffffffffffffffffff16610907610c2b565b73ffffffffffffffffffffffffffffffffffffffff167f17307eab39ab6107e8899845ad3d59bd9653f200f220920489ca2b5937696c318360405161094c9190611617565b60405180910390a35050565b610963848484610c38565b60008373ffffffffffffffffffffffffffffffffffffffff163b146109c55761098e84848484610fe2565b6109c4576040517fd1a57ed600000000000000000000000000000000000000000000000000000000815260040160405180910390fd5b5b50505050565b60606109d682610afe565b610a0c576040517fa14c4b5000000000000000000000000000000000000000000000000000000000815260040160405180910390fd5b6000610a16611142565b9050600081511415610a375760405180602001604052806000815250610a62565b80610a4184611159565b604051602001610a5292919061158c565b6040516020818303038152906040525b915050919050565b6000600760008473ffffffffffffffffffffffffffffffffffffffff1673ffffffffffffffffffffffffffffffffffffffff16815260200190815260200160002060008373ffffffffffffffffffffffffffffffffffffffff1673ffffffffffffffffffffffffffffffffffffffff16815260200190815260200160002060009054906101000a900460ff16905092915050565b600081610b09610c33565b11158015610b18575060005482105b8015610b56575060007c0100000000000000000000000000000000000000000000000000000000600460008581526020019081526020016000205416145b9050919050565b60008082905080610b6c610c33565b11610bf457600054811015610bf35760006004600083815260200190815260200160002054905060007c010000000000000000000000000000000000000000000000000000000082161415610bf1575b6000811415610be7576004600083600190039350838152602001908152602001600020549050610bbc565b8092505050610c26565b505b5b6040517fdf2d9b4200000000000000000000000000000000000000000000000000000000815260040160405180910390fd5b919050565b600033905090565b600090565b6000610c4382610b5d565b90508373ffffffffffffffffffffffffffffffffffffffff168173ffffffffffffffffffffffffffffffffffffffff1614610caa576040517fa114810000000000000000000000000000000000000000000000000000000000815260040160405180910390fd5b60008473ffffffffffffffffffffffffffffffffffffffff16610ccb610c2b565b73ffffffffffffffffffffffffffffffffffffffff161480610cfa5750610cf985610cf4610c2b565b610a6a565b5b80610d3f5750610d08610c2b565b73ffffffffffffffffffffffffffffffffffffffff16610d2784610419565b73ffffffffffffffffffffffffffffffffffffffff16145b905080610d78576040517f59c896be00000000000000000000000000000000000000000000000000000000815260040160405180910390fd5b600073ffffffffffffffffffffffffffffffffffffffff168473ffffffffffffffffffffffffffffffffffffffff161415610ddf576040517fea553b3400000000000000000000000000000000000000000000000000000000815260040160405180910390fd5b610dec85858560016111b3565b6006600084815260200190815260200160002060006101000a81549073ffffffffffffffffffffffffffffffffffffffff0219169055600560008673ffffffffffffffffffffffffffffffffffffffff1673ffffffffffffffffffffffffffffffffffffffff168152602001908152602001600020600081546001900391905081905550600560008573ffffffffffffffffffffffffffffffffffffffff1673ffffffffffffffffffffffffffffffffffffffff16815260200190815260200160002060008154600101919050819055507c020000000000000000000000000000000000000000000000000000000060a042901b610ee9866111b9565b1717600460008581526020019081526020016000208190555060007c020000000000000000000000000000000000000000000000000000000083161415610f73576000600184019050600060046000838152602001908152602001600020541415610f71576000548114610f70578260046000838152602001908152602001600020819055505b5b505b828473ffffffffffffffffffffffffffffffffffffffff168673ffffffffffffffffffffffffffffffffffffffff167fddf252ad1be2c89b69c2b068fc378daa952ba7f163c4a11628f55a4df523b3ef60405160405180910390a4610fdb85858560016111c3565b5050505050565b60008373ffffffffffffffffffffffffffffffffffffffff1663150b7a02611008610c2b565b8786866040518563ffffffff1660e01b815260040161102a94939291906115cb565b602060405180830381600087803b15801561104457600080fd5b505af192505050801561107557506040513d601f19601f82011682018060405250810190611072919061146a565b60015b6110ef573d80600081146110a5576040519150601f19603f3d011682016040523d82523d6000602084013e6110aa565b606091505b506000815114156110e7576040517fd1a57ed600000000000000000000000000000000000000000000000000000000815260040160405180910390fd5b805181602001fd5b63150b7a0260e01b7bffffffffffffffffffffffffffffffffffffffffffffffffffffffff1916817bffffffffffffffffffffffffffffffffffffffffffffffffffffffff191614915050949350505050565b606060405180602001604052806000815250905090565b60606080604051019050806040528082600183039250600a81066030018353600a810490505b801561119f57600183039250600a81066030018353600a8104905061117f565b508181036020830392508083525050919050565b50505050565b6000819050919050565b50505050565b60006111dc6111d784611694565b61166f565b9050828152602081018484840111156111f457600080fd5b6111ff84828561177c565b509392505050565b60008135905061121681611890565b92915050565b60008135905061122b816118a7565b92915050565b600081359050611240816118be565b92915050565b600081519050611255816118be565b92915050565b600082601f83011261126c57600080fd5b813561127c8482602086016111c9565b91505092915050565b600081359050611294816118d5565b92915050565b6000602082840312156112ac57600080fd5b60006112ba84828501611207565b91505092915050565b600080604083850312156112d657600080fd5b60006112e485828601611207565b92505060206112f585828601611207565b9150509250929050565b60008060006060848603121561131457600080fd5b600061132286828701611207565b935050602061133386828701611207565b925050604061134486828701611285565b9150509250925092565b6000806000806080858703121561136457600080fd5b600061137287828801611207565b945050602061138387828801611207565b935050604061139487828801611285565b925050606085013567ffffffffffffffff8111156113b157600080fd5b6113bd8782880161125b565b91505092959194509250565b600080604083850312156113dc57600080fd5b60006113ea85828601611207565b92505060206113fb8582860161121c565b9150509250929050565b6000806040838503121561141857600080fd5b600061142685828601611207565b925050602061143785828601611285565b9150509250929050565b60006020828403121561145357600080fd5b600061146184828501611231565b91505092915050565b60006020828403121561147c57600080fd5b600061148a84828501611246565b91505092915050565b6000602082840312156114a557600080fd5b60006114b384828501611285565b91505092915050565b6114c581611708565b82525050565b6114d48161171a565b82525050565b60006114e5826116c5565b6114ef81856116db565b93506114ff81856020860161178b565b6115088161187f565b840191505092915050565b600061151e826116d0565b61152881856116ec565b935061153881856020860161178b565b6115418161187f565b840191505092915050565b6000611557826116d0565b61156181856116fd565b935061157181856020860161178b565b80840191505092915050565b61158681611772565b82525050565b6000611598828561154c565b91506115a4828461154c565b91508190509392505050565b60006020820190506115c560008301846114bc565b92915050565b60006080820190506115e060008301876114bc565b6115ed60208301866114bc565b6115fa604083018561157d565b818103606083015261160c81846114da565b905095945050505050565b600060208201905061162c60008301846114cb565b92915050565b6000602082019050818103600083015261164c8184611513565b905092915050565b6000602082019050611669600083018461157d565b92915050565b600061167961168a565b905061168582826117f0565b919050565b6000604051905090565b600067ffffffffffffffff8211156116af576116ae611850565b5b6116b88261187f565b9050602081019050919050565b600081519050919050565b600081519050919050565b600082825260208201905092915050565b600082825260208201905092915050565b600081905092915050565b600061171382611752565b9050919050565b60008115159050919050565b60007fffffffff0000000000000000000000000000000000000000000000000000000082169050919050565b600073ffffffffffffffffffffffffffffffffffffffff82169050919050565b6000819050919050565b82818337600083830152505050565b60005b838110156117a957808201518184015260208101905061178e565b838111156117b8576000848401525b50505050565b600060028204905060018216806117d657607f821691505b602082108114156117ea576117e9611821565b5b50919050565b6117f98261187f565b810181811067ffffffffffffffff8211171561181857611817611850565b5b80604052505050565b7f4e487b7100000000000000000000000000000000000000000000000000000000600052602260045260246000fd5b7f4e487b7100000000000000000000000000000000000000000000000000000000600052604160045260246000fd5b6000601f19601f8301169050919050565b61189981611708565b81146118a457600080fd5b50565b6118b08161171a565b81146118bb57600080fd5b50565b6118c781611726565b81146118d257600080fd5b50565b6118de81611772565b81146118e957600080fd5b5056fea2646970667358221220321cfd33f2c59d04f8bc8b16df50185300a8326c2f96fcc7356d1aa3083bac5f64736f6c63430008040033",
  "linkReferences": {},
  "deployedLinkReferences": {}
}