{
  "_format": "hh-sol-artifact-1",
  "contractName": "Market",
  "sourceName": "contracts/market/Market.sol",
  "abi": [
    {
      "anonymous": false,
      "inputs": [
        {
          "indexed": false,
          "internalType": "address",
          "name": "lender",
          "type": "address"
        },
        {
          "indexed": false,
          "internalType": "address",
          "name": "nftAddress",
          "type": "address"
        },
        {
          "indexed": false,
          "internalType": "uint256",
          "name": "nftId",
          "type": "uint256"
        }
      ],
      "name": "CancelLendOrder",
      "type": "event"
    },
    {
      "anonymous": false,
      "inputs": [
        {
          "indexed": false,
          "internalType": "address",
          "name": "lender",
          "type": "address"
        },
        {
          "indexed": false,
          "internalType": "address",
          "name": "nftAddress",
          "type": "address"
        },
        {
          "indexed": false,
          "internalType": "uint256",
          "name": "nftId",
          "type": "uint256"
        },
        {
          "indexed": false,
          "internalType": "uint64",
          "name": "maxDuration",
          "type": "uint64"
        },
        {
          "indexed": false,
          "internalType": "uint64",
          "name": "minDuration",
          "type": "uint64"
        },
        {
          "indexed": false,
          "internalType": "uint256",
          "name": "pricePerDay",
          "type": "uint256"
        },
        {
          "indexed": false,
          "internalType": "address",
          "name": "paymentToken",
          "type": "address"
        },
        {
          "indexed": false,
          "internalType": "address",
          "name": "renter",
          "type": "address"
        },
        {
          "indexed": false,
          "internalType": "enum IMarket.OrderType",
          "name": "orderType",
          "type": "uint8"
        }
      ],
      "name": "CreateLendOrder",
      "type": "event"
    },
    {
      "anonymous": false,
      "inputs": [
        {
          "indexed": false,
          "internalType": "address",
          "name": "renter",
          "type": "address"
        },
        {
          "indexed": false,
          "internalType": "address",
          "name": "lender",
          "type": "address"
        },
        {
          "indexed": false,
          "internalType": "address",
          "name": "nftAddress",
          "type": "address"
        },
        {
          "indexed": false,
          "internalType": "uint256",
          "name": "nftId",
          "type": "uint256"
        },
        {
          "indexed": false,
          "internalType": "uint64",
          "name": "startTime",
          "type": "uint64"
        },
        {
          "indexed": false,
          "internalType": "uint64",
          "name": "Duration",
          "type": "uint64"
        },
        {
          "indexed": false,
          "internalType": "uint256",
          "name": "pricePerDay",
          "type": "uint256"
        },
        {
          "indexed": false,
          "internalType": "uint256",
          "name": "newId",
          "type": "uint256"
        },
        {
          "indexed": false,
          "internalType": "address",
          "name": "paymentToken",
          "type": "address"
        }
      ],
      "name": "FulfillOrder",
      "type": "event"
    },
    {
      "anonymous": false,
      "inputs": [
        {
          "indexed": false,
          "internalType": "uint8",
          "name": "version",
          "type": "uint8"
        }
      ],
      "name": "Initialized",
      "type": "event"
    },
    {
      "anonymous": false,
      "inputs": [
        {
          "indexed": false,
          "internalType": "address",
          "name": "oldAdmin",
          "type": "address"
        },
        {
          "indexed": false,
          "internalType": "address",
          "name": "newAdmin",
          "type": "address"
        }
      ],
      "name": "NewAdmin",
      "type": "event"
    },
    {
      "anonymous": false,
      "inputs": [
        {
          "indexed": false,
          "internalType": "address",
          "name": "oldOwner",
          "type": "address"
        },
        {
          "indexed": false,
          "internalType": "address",
          "name": "newOwner",
          "type": "address"
        }
      ],
      "name": "NewOwner",
      "type": "event"
    },
    {
      "anonymous": false,
      "inputs": [
        {
          "indexed": false,
          "internalType": "address",
          "name": "oldPendingOwner",
          "type": "address"
        },
        {
          "indexed": false,
          "internalType": "address",
          "name": "newPendingOwner",
          "type": "address"
        }
      ],
      "name": "NewPendingOwner",
      "type": "event"
    },
    {
      "anonymous": false,
      "inputs": [
        {
          "indexed": false,
          "internalType": "address",
          "name": "account",
          "type": "address"
        }
      ],
      "name": "Paused",
      "type": "event"
    },
    {
      "anonymous": false,
      "inputs": [
        {
          "indexed": false,
          "internalType": "address",
          "name": "account",
          "type": "address"
        }
      ],
      "name": "Unpaused",
      "type": "event"
    },
    {
      "inputs": [],
      "name": "acceptOwner",
      "outputs": [],
      "stateMutability": "nonpayable",
      "type": "function"
    },
    {
      "inputs": [],
      "name": "admin",
      "outputs": [
        {
          "internalType": "address",
          "name": "",
          "type": "address"
        }
      ],
      "stateMutability": "view",
      "type": "function"
    },
    {
      "inputs": [
        {
          "internalType": "address",
          "name": "",
          "type": "address"
        }
      ],
      "name": "balanceOfFee",
      "outputs": [
        {
          "internalType": "uint256",
          "name": "",
          "type": "uint256"
        }
      ],
      "stateMutability": "view",
      "type": "function"
    },
    {
      "inputs": [],
      "name": "beneficiary",
      "outputs": [
        {
          "internalType": "address payable",
          "name": "",
          "type": "address"
        }
      ],
      "stateMutability": "view",
      "type": "function"
    },
    {
      "inputs": [
        {
          "internalType": "address",
          "name": "nftAddress",
          "type": "address"
        },
        {
          "internalType": "uint256",
          "name": "nftId",
          "type": "uint256"
        }
      ],
      "name": "cancelLendOrder",
      "outputs": [],
      "stateMutability": "nonpayable",
      "type": "function"
    },
    {
      "inputs": [
        {
          "internalType": "address[]",
          "name": "paymentTokens",
          "type": "address[]"
        }
      ],
      "name": "claimFee",
      "outputs": [],
      "stateMutability": "nonpayable",
      "type": "function"
    },
    {
      "inputs": [
        {
          "internalType": "address",
          "name": "nftAddress",
          "type": "address"
        },
        {
          "internalType": "uint256",
          "name": "nftId",
          "type": "uint256"
        },
        {
          "internalType": "uint64",
          "name": "maxDuration",
          "type": "uint64"
        },
        {
          "internalType": "uint64",
          "name": "minDuration",
          "type": "uint64"
        },
        {
          "internalType": "uint256",
          "name": "pricePerDay",
          "type": "uint256"
        },
        {
          "internalType": "address",
          "name": "paymentToken",
          "type": "address"
        }
      ],
      "name": "createLendOrder",
      "outputs": [],
      "stateMutability": "nonpayable",
      "type": "function"
    },
    {
      "inputs": [
        {
          "internalType": "address",
          "name": "nftAddress",
          "type": "address"
        },
        {
          "internalType": "uint256",
          "name": "nftId",
          "type": "uint256"
        },
        {
          "internalType": "uint256",
          "name": "durationId",
          "type": "uint256"
        },
        {
          "internalType": "uint64",
          "name": "duration",
          "type": "uint64"
        },
        {
          "internalType": "address",
          "name": "user",
          "type": "address"
        }
      ],
      "name": "fulfillOrderNow",
      "outputs": [
        {
          "internalType": "uint256",
          "name": "tid",
          "type": "uint256"
        }
      ],
      "stateMutability": "payable",
      "type": "function"
    },
    {
      "inputs": [],
      "name": "getFee",
      "outputs": [
        {
          "internalType": "uint256",
          "name": "",
          "type": "uint256"
        }
      ],
      "stateMutability": "view",
      "type": "function"
    },
    {
      "inputs": [
        {
          "internalType": "address",
          "name": "nftAddress",
          "type": "address"
        },
        {
          "internalType": "uint256",
          "name": "nftId",
          "type": "uint256"
        }
      ],
      "name": "getLendOrder",
      "outputs": [
        {
          "components": [
            {
              "internalType": "address",
              "name": "lender",
              "type": "address"
            },
            {
              "internalType": "address",
              "name": "nftAddress",
              "type": "address"
            },
            {
              "internalType": "uint256",
              "name": "nftId",
              "type": "uint256"
            },
            {
              "internalType": "uint64",
              "name": "maxDuration",
              "type": "uint64"
            },
            {
              "internalType": "uint64",
              "name": "minDuration",
              "type": "uint64"
            },
            {
              "internalType": "uint64",
              "name": "createTime",
              "type": "uint64"
            },
            {
              "internalType": "uint64",
              "name": "nonce",
              "type": "uint64"
            },
            {
              "internalType": "enum IMarket.OrderType",
              "name": "orderType",
              "type": "uint8"
            },
            {
              "internalType": "enum IMarket.PaymentType",
              "name": "paymentType",
              "type": "uint8"
            }
          ],
          "internalType": "struct IMarket.Lending",
          "name": "",
          "type": "tuple"
        }
      ],
      "stateMutability": "view",
      "type": "function"
    },
    {
      "inputs": [
        {
          "internalType": "address",
          "name": "nftAddress",
          "type": "address"
        },
        {
          "internalType": "uint256",
          "name": "nftId",
          "type": "uint256"
        }
      ],
      "name": "getPaymentNormal",
      "outputs": [
        {
          "components": [
            {
              "internalType": "address",
              "name": "token",
              "type": "address"
            },
            {
              "internalType": "uint256",
              "name": "pricePerDay",
              "type": "uint256"
            }
          ],
          "internalType": "struct IMarket.PaymentNormal",
          "name": "",
          "type": "tuple"
        }
      ],
      "stateMutability": "view",
      "type": "function"
    },
    {
      "inputs": [
        {
          "internalType": "address",
          "name": "owner_",
          "type": "address"
        },
        {
          "internalType": "address",
          "name": "admin_",
          "type": "address"
        }
      ],
      "name": "initialize",
      "outputs": [],
      "stateMutability": "nonpayable",
      "type": "function"
    },
    {
      "inputs": [
        {
          "internalType": "address",
          "name": "nftAddress",
          "type": "address"
        },
        {
          "internalType": "uint256",
          "name": "nftId",
          "type": "uint256"
        }
      ],
      "name": "isLendOrderValid",
      "outputs": [
        {
          "internalType": "bool",
          "name": "",
          "type": "bool"
        }
      ],
      "stateMutability": "view",
      "type": "function"
    },
    {
      "inputs": [],
      "name": "isPausing",
      "outputs": [
        {
          "internalType": "bool",
          "name": "",
          "type": "bool"
        }
      ],
      "stateMutability": "view",
      "type": "function"
    },
    {
      "inputs": [],
      "name": "maxIndate",
      "outputs": [
        {
          "internalType": "uint64",
          "name": "",
          "type": "uint64"
        }
      ],
      "stateMutability": "view",
      "type": "function"
    },
    {
      "inputs": [
        {
          "internalType": "address",
          "name": "doNftAddress",
          "type": "address"
        },
        {
          "internalType": "uint256",
          "name": "oNftId",
          "type": "uint256"
        },
        {
          "internalType": "uint64",
          "name": "maxDuration",
          "type": "uint64"
        },
        {
          "internalType": "uint64",
          "name": "minDuration",
          "type": "uint64"
        },
        {
          "internalType": "uint256",
          "name": "pricePerDay",
          "type": "uint256"
        },
        {
          "internalType": "address",
          "name": "paymentToken",
          "type": "address"
        }
      ],
      "name": "mintAndCreateLendOrder",
      "outputs": [],
      "stateMutability": "nonpayable",
      "type": "function"
    },
    {
      "inputs": [],
      "name": "owner",
      "outputs": [
        {
          "internalType": "address",
          "name": "",
          "type": "address"
        }
      ],
      "stateMutability": "view",
      "type": "function"
    },
    {
      "inputs": [],
      "name": "pendingOwner",
      "outputs": [
        {
          "internalType": "address",
          "name": "",
          "type": "address"
        }
      ],
      "stateMutability": "view",
      "type": "function"
    },
    {
      "inputs": [],
      "name": "renounceOwnership",
      "outputs": [],
      "stateMutability": "nonpayable",
      "type": "function"
    },
    {
      "inputs": [
        {
          "internalType": "address",
          "name": "newAdmin",
          "type": "address"
        }
      ],
      "name": "setAdmin",
      "outputs": [],
      "stateMutability": "nonpayable",
      "type": "function"
    },
    {
      "inputs": [
        {
          "internalType": "uint256",
          "name": "fee_",
          "type": "uint256"
        }
      ],
      "name": "setFee",
      "outputs": [],
      "stateMutability": "nonpayable",
      "type": "function"
    },
    {
      "inputs": [
        {
          "internalType": "address payable",
          "name": "beneficiary_",
          "type": "address"
        }
      ],
      "name": "setMarketBeneficiary",
      "outputs": [],
      "stateMutability": "nonpayable",
      "type": "function"
    },
    {
      "inputs": [
        {
          "internalType": "uint64",
          "name": "max_",
          "type": "uint64"
        }
      ],
      "name": "setMaxIndate",
      "outputs": [],
      "stateMutability": "nonpayable",
      "type": "function"
    },
    {
      "inputs": [
        {
          "internalType": "bool",
          "name": "pause_",
          "type": "bool"
        }
      ],
      "name": "setPause",
      "outputs": [],
      "stateMutability": "nonpayable",
      "type": "function"
    },
    {
      "inputs": [],
      "name": "supportERC20",
      "outputs": [
        {
          "internalType": "bool",
          "name": "",
          "type": "bool"
        }
      ],
      "stateMutability": "view",
      "type": "function"
    },
    {
      "inputs": [
        {
          "internalType": "address",
          "name": "_pendingOwner",
          "type": "address"
        }
      ],
      "name": "transferOwnership",
      "outputs": [],
      "stateMutability": "nonpayable",
      "type": "function"
    }
  ],
  "bytecode": "0x608060405234801561001057600080fd5b506152b1806100206000396000f3fe6080604052600436106101815760003560e01c80639815becf116100d1578063ced72f871161008a578063ebbc496511610064578063ebbc49651461055f578063ec005b6714610576578063f2fde38b1461059f578063f851a440146105c857610181565b8063ced72f87146104de578063e30c397814610509578063e389bc101461053457610181565b80639815becf146103be578063a18087fd146103fb578063b23bc40e14610438578063b774b60114610461578063bedb86fb1461048a578063bf59a457146104b357610181565b8063430e70501161013e57806369fe0e2d1161011857806369fe0e2d1461032a578063704b6c0214610353578063715018a61461037c5780638da5cb5b1461039357610181565b8063430e70501461029b578063434aee63146102d8578063485cc9551461030157610181565b806302bb4bbe146101865780630d34b79c146101b657806312aa48e2146101e157806316e5e29b1461020a578063257254751461023357806338af3eed14610270575b600080fd5b6101a0600480360381019061019b9190613cae565b6105f3565b6040516101ad919061496c565b60405180910390f35b3480156101c257600080fd5b506101cb610a97565b6040516101d89190614642565b60405180910390f35b3480156101ed57600080fd5b5061020860048036038101906102039190613d25565b610aaa565b005b34801561021657600080fd5b50610231600480360381019061022c9190613d25565b610b9c565b005b34801561023f57600080fd5b5061025a60048036038101906102559190613c72565b610c18565b6040516102679190614951565b60405180910390f35b34801561027c57600080fd5b50610285610ce3565b6040516102929190614484565b60405180910390f35b3480156102a757600080fd5b506102c260048036038101906102bd9190613c72565b610d09565b6040516102cf9190614935565b60405180910390f35b3480156102e457600080fd5b506102ff60048036038101906102fa9190613c72565b611001565b005b34801561030d57600080fd5b5061032860048036038101906103239190613c36565b611212565b005b34801561033657600080fd5b50610351600480360381019061034c9190613e45565b6112e9565b005b34801561035f57600080fd5b5061037a60048036038101906103759190613bbb565b611340565b005b34801561038857600080fd5b506103916113e7565b005b34801561039f57600080fd5b506103a86115c8565b6040516103b59190614469565b60405180910390f35b3480156103ca57600080fd5b506103e560048036038101906103e09190613bbb565b6115ec565b6040516103f2919061496c565b60405180910390f35b34801561040757600080fd5b50610422600480360381019061041d9190613c72565b611604565b60405161042f9190614642565b60405180910390f35b34801561044457600080fd5b5061045f600480360381019061045a9190613ee6565b611777565b005b34801561046d57600080fd5b5061048860048036038101906104839190613dae565b6117ab565b005b34801561049657600080fd5b506104b160048036038101906104ac9190613df3565b611b58565b005b3480156104bf57600080fd5b506104c8611c06565b6040516104d59190614642565b60405180910390f35b3480156104ea57600080fd5b506104f3611c19565b604051610500919061496c565b60405180910390f35b34801561051557600080fd5b5061051e611c23565b60405161052b9190614469565b60405180910390f35b34801561054057600080fd5b50610549611c49565b6040516105569190614a11565b60405180910390f35b34801561056b57600080fd5b50610574611c63565b005b34801561058257600080fd5b5061059d60048036038101906105989190613c0d565b611de9565b005b3480156105ab57600080fd5b506105c660048036038101906105c19190613bbb565b611e35565b005b3480156105d457600080fd5b506105dd611edc565b6040516105ea9190614469565b60405180910390f35b60006105fd611f02565b60026003541415610643576040517f08c379a000000000000000000000000000000000000000000000000000000000815260040161063a906148d5565b60405180910390fd5b60026003819055506106558686611604565b610694576040517f08c379a000000000000000000000000000000000000000000000000000000000815260040161068b906147f5565b60405180910390fd5b6000603560008873ffffffffffffffffffffffffffffffffffffffff1673ffffffffffffffffffffffffffffffffffffffff168152602001908152602001600020600087815260200190815260200160002090508060030160009054906101000a900467ffffffffffffffff1667ffffffffffffffff168467ffffffffffffffff161115610738578060030160009054906101000a900467ffffffffffffffff1693505b6000808873ffffffffffffffffffffffffffffffffffffffff16638bb126a7886040518263ffffffff1660e01b8152600401610774919061496c565b604080518083038186803b15801561078b57600080fd5b505afa15801561079f573d6000803e3d6000fd5b505050506040513d601f19601f820116820180604052508101906107c39190613f38565b9150915081816107d39190614bb1565b67ffffffffffffffff168667ffffffffffffffff1611156107fd5781816107fa9190614bb1565b95505b6000429050828261080e9190614bb1565b67ffffffffffffffff168767ffffffffffffffff16148061085a57508360030160009054906101000a900467ffffffffffffffff1667ffffffffffffffff168767ffffffffffffffff16145b6108ce578360030160089054906101000a900467ffffffffffffffff1667ffffffffffffffff168767ffffffffffffffff1610156108cd576040517f08c379a00000000000000000000000000000000000000000000000000000000081526004016108c4906148b5565b60405180910390fd5b5b600060018867ffffffffffffffff16426108e89190614a5e565b6108f29190614b7d565b90506108ff8b8b8a611f54565b5050508a73ffffffffffffffffffffffffffffffffffffffff166310c118548b8b8585338d6040518763ffffffff1660e01b8152600401610945969594939291906149b0565b602060405180830381600087803b15801561095f57600080fd5b505af1158015610973573d6000803e3d6000fd5b505050506040513d601f19601f820116820180604052508101906109979190613e6e565b95506000603660008d73ffffffffffffffffffffffffffffffffffffffff1673ffffffffffffffffffffffffffffffffffffffff16815260200190815260200160002060008c815260200190815260200160002090507ff8ce95efc95f64de1eca0db3354afad7c88704a1f7e64ba969056d449a1c0b10888760000160009054906101000a900473ffffffffffffffffffffffffffffffffffffffff168e8e878787600101548e8960000160009054906101000a900473ffffffffffffffffffffffffffffffffffffffff16604051610a78999897969594939291906144c8565b60405180910390a1505050505050600160038190555095945050505050565b603a60089054906101000a900460ff1681565b610ab2611f02565b60405180604001604052808273ffffffffffffffffffffffffffffffffffffffff16815260200183815250603660008873ffffffffffffffffffffffffffffffffffffffff1673ffffffffffffffffffffffffffffffffffffffff168152602001908152602001600020600087815260200190815260200160002060008201518160000160006101000a81548173ffffffffffffffffffffffffffffffffffffffff021916908373ffffffffffffffffffffffffffffffffffffffff16021790555060208201518160010155905050610b9486868686868660008060006124f4565b505050505050565b60026003541415610be2576040517f08c379a0000000000000000000000000000000000000000000000000000000008152600401610bd9906148d5565b60405180910390fd5b60026003819055506000610bf7878787612bbc565b9050610c07878287878787610aaa565b506001600381905550505050505050565b610c20613976565b603660008473ffffffffffffffffffffffffffffffffffffffff1673ffffffffffffffffffffffffffffffffffffffff16815260200190815260200160002060008381526020019081526020016000206040518060400160405290816000820160009054906101000a900473ffffffffffffffffffffffffffffffffffffffff1673ffffffffffffffffffffffffffffffffffffffff1673ffffffffffffffffffffffffffffffffffffffff168152602001600182015481525050905092915050565b603860009054906101000a900473ffffffffffffffffffffffffffffffffffffffff1681565b610d116139a6565b603560008473ffffffffffffffffffffffffffffffffffffffff1673ffffffffffffffffffffffffffffffffffffffff1681526020019081526020016000206000838152602001908152602001600020604051806101200160405290816000820160009054906101000a900473ffffffffffffffffffffffffffffffffffffffff1673ffffffffffffffffffffffffffffffffffffffff1673ffffffffffffffffffffffffffffffffffffffff1681526020016001820160009054906101000a900473ffffffffffffffffffffffffffffffffffffffff1673ffffffffffffffffffffffffffffffffffffffff1673ffffffffffffffffffffffffffffffffffffffff168152602001600282015481526020016003820160009054906101000a900467ffffffffffffffff1667ffffffffffffffff1667ffffffffffffffff1681526020016003820160089054906101000a900467ffffffffffffffff1667ffffffffffffffff1667ffffffffffffffff1681526020016003820160109054906101000a900467ffffffffffffffff1667ffffffffffffffff1667ffffffffffffffff1681526020016003820160189054906101000a900467ffffffffffffffff1667ffffffffffffffff1667ffffffffffffffff1681526020016004820160009054906101000a900460ff166000811115610f36577f4e487b7100000000000000000000000000000000000000000000000000000000600052602160045260246000fd5b6000811115610f6e577f4e487b7100000000000000000000000000000000000000000000000000000000600052602160045260246000fd5b81526020016004820160019054906101000a900460ff166000811115610fbd577f4e487b7100000000000000000000000000000000000000000000000000000000600052602160045260246000fd5b6000811115610ff5577f4e487b7100000000000000000000000000000000000000000000000000000000600052602160045260246000fd5b81525050905092915050565b611009611f02565b611014338383612f41565b603560008373ffffffffffffffffffffffffffffffffffffffff1673ffffffffffffffffffffffffffffffffffffffff1681526020019081526020016000206000828152602001908152602001600020600080820160006101000a81549073ffffffffffffffffffffffffffffffffffffffff02191690556001820160006101000a81549073ffffffffffffffffffffffffffffffffffffffff021916905560028201600090556003820160006101000a81549067ffffffffffffffff02191690556003820160086101000a81549067ffffffffffffffff02191690556003820160106101000a81549067ffffffffffffffff02191690556003820160186101000a81549067ffffffffffffffff02191690556004820160006101000a81549060ff02191690556004820160016101000a81549060ff02191690555050603660008373ffffffffffffffffffffffffffffffffffffffff1673ffffffffffffffffffffffffffffffffffffffff1681526020019081526020016000206000828152602001908152602001600020600080820160006101000a81549073ffffffffffffffffffffffffffffffffffffffff0219169055600182016000905550507fd683d5e080429307176d202675b21464dc43b9ab5339355dabb01bebee4008be33838360405161120693929190614555565b60405180910390a15050565b600061121e6001613192565b90508015611242576001600260156101000a81548160ff0219169083151502179055505b61124a613286565b61125483836132df565b6301e13380603a60006101000a81548167ffffffffffffffff021916908367ffffffffffffffff1602179055506109c460398190555080156112e4576000600260156101000a81548160ff0219169083151502179055507f7f26b83ff96e1f2b6a682f133852f6798a09c465da95921460cefb384740249860016040516112db9190614678565b60405180910390a15b505050565b6112f1613364565b612710811115611336576040517f08c379a000000000000000000000000000000000000000000000000000000000815260040161132d90614735565b60405180910390fd5b8060398190555050565b61134861344c565b7ff9ffabca9c8276e99321725bcb43fb076a6c66a54b7f21c4e8146d8519b417dc600260009054906101000a900473ffffffffffffffffffffffffffffffffffffffff168260405161139b92919061449f565b60405180910390a180600260006101000a81548173ffffffffffffffffffffffffffffffffffffffff021916908373ffffffffffffffffffffffffffffffffffffffff16021790555050565b6113ef61344c565b7f70aea8d848e8a90fb7661b227dc522eb6395c3dac71b63cb59edd5c9899b236460008054906101000a900473ffffffffffffffffffffffffffffffffffffffff16600060405161144192919061449f565b60405180910390a17ff9ffabca9c8276e99321725bcb43fb076a6c66a54b7f21c4e8146d8519b417dc600260009054906101000a900473ffffffffffffffffffffffffffffffffffffffff16600060405161149d92919061449f565b60405180910390a17fb3d55174552271a4f1aaf36b72f50381e892171636b3fb5447fe00e995e7a37b600160009054906101000a900473ffffffffffffffffffffffffffffffffffffffff1660006040516114f992919061449f565b60405180910390a160008060006101000a81548173ffffffffffffffffffffffffffffffffffffffff021916908373ffffffffffffffffffffffffffffffffffffffff1602179055506000600160006101000a81548173ffffffffffffffffffffffffffffffffffffffff021916908373ffffffffffffffffffffffffffffffffffffffff1602179055506000600260006101000a81548173ffffffffffffffffffffffffffffffffffffffff021916908373ffffffffffffffffffffffffffffffffffffffff160217905550565b60008054906101000a900473ffffffffffffffffffffffffffffffffffffffff1681565b60376020528060005260406000206000915090505481565b600080603560008573ffffffffffffffffffffffffffffffffffffffff1673ffffffffffffffffffffffffffffffffffffffff16815260200190815260200160002060008481526020019081526020016000209050603a60089054906101000a900460ff1615611678576000915050611771565b600081600201541180156116ae575060008160030160009054906101000a900467ffffffffffffffff1667ffffffffffffffff16115b801561176d57508373ffffffffffffffffffffffffffffffffffffffff16633d46b819846040518263ffffffff1660e01b81526004016116ee919061496c565b60206040518083038186803b15801561170657600080fd5b505afa15801561171a573d6000803e3d6000fd5b505050506040513d601f19601f8201168201806040525081019061173e9190613f0f565b67ffffffffffffffff168160030160189054906101000a900467ffffffffffffffff1667ffffffffffffffff16145b9150505b92915050565b61177f613364565b80603a60006101000a81548167ffffffffffffffff021916908367ffffffffffffffff16021790555050565b6117b3611f02565b600260035414156117f9576040517f08c379a00000000000000000000000000000000000000000000000000000000081526004016117f0906148d5565b60405180910390fd5b6002600381905550603860009054906101000a900473ffffffffffffffffffffffffffffffffffffffff1673ffffffffffffffffffffffffffffffffffffffff163373ffffffffffffffffffffffffffffffffffffffff1614611891576040517f08c379a0000000000000000000000000000000000000000000000000000000008152600401611888906146d5565b60405180910390fd5b60005b82829050811015611b4b576000603760008585858181106118de577f4e487b7100000000000000000000000000000000000000000000000000000000600052603260045260246000fd5b90506020020160208101906118f39190613bbb565b73ffffffffffffffffffffffffffffffffffffffff1673ffffffffffffffffffffffffffffffffffffffff1681526020019081526020016000205490506000811115611b3757600073ffffffffffffffffffffffffffffffffffffffff1684848481811061198a577f4e487b7100000000000000000000000000000000000000000000000000000000600052603260045260246000fd5b905060200201602081019061199f9190613bbb565b73ffffffffffffffffffffffffffffffffffffffff161415611a2957603860009054906101000a900473ffffffffffffffffffffffffffffffffffffffff1673ffffffffffffffffffffffffffffffffffffffff166108fc829081150290604051600060405180830381858888f19350505050158015611a23573d6000803e3d6000fd5b50611aa4565b611aa3848484818110611a65577f4e487b7100000000000000000000000000000000000000000000000000000000600052603260045260246000fd5b9050602002016020810190611a7a9190613bbb565b603860009054906101000a900473ffffffffffffffffffffffffffffffffffffffff16836134dc565b5b600060376000868686818110611ae3577f4e487b7100000000000000000000000000000000000000000000000000000000600052603260045260246000fd5b9050602002016020810190611af89190613bbb565b73ffffffffffffffffffffffffffffffffffffffff1673ffffffffffffffffffffffffffffffffffffffff168152602001908152602001600020819055505b508080611b4390614d2d565b915050611894565b5060016003819055505050565b611b60613364565b80603a60086101000a81548160ff021916908315150217905550603a60089054906101000a900460ff1615611bcb577f62e78cea01bee320cd4e420270b5ea74000d11b0c9f74754ebdbfc544b05a25830604051611bbe9190614469565b60405180910390a1611c03565b7f5db9ee0a495bf2e6ff9c91a7834c1ba4fdd244a5e8aa4e537bd38aeae4b073aa30604051611bfa9190614469565b60405180910390a15b50565b603a60099054906101000a900460ff1681565b6000603954905090565b600160009054906101000a900473ffffffffffffffffffffffffffffffffffffffff1681565b603a60009054906101000a900467ffffffffffffffff1681565b611c6b613562565b7f70aea8d848e8a90fb7661b227dc522eb6395c3dac71b63cb59edd5c9899b236460008054906101000a900473ffffffffffffffffffffffffffffffffffffffff16600160009054906101000a900473ffffffffffffffffffffffffffffffffffffffff16604051611cde92919061449f565b60405180910390a1600160009054906101000a900473ffffffffffffffffffffffffffffffffffffffff166000806101000a81548173ffffffffffffffffffffffffffffffffffffffff021916908373ffffffffffffffffffffffffffffffffffffffff16021790555060007fb3d55174552271a4f1aaf36b72f50381e892171636b3fb5447fe00e995e7a37b600160009054906101000a900473ffffffffffffffffffffffffffffffffffffffff1682604051611d9d92919061449f565b60405180910390a180600160006101000a81548173ffffffffffffffffffffffffffffffffffffffff021916908373ffffffffffffffffffffffffffffffffffffffff16021790555050565b611df161344c565b80603860006101000a81548173ffffffffffffffffffffffffffffffffffffffff021916908373ffffffffffffffffffffffffffffffffffffffff16021790555050565b611e3d61344c565b7fb3d55174552271a4f1aaf36b72f50381e892171636b3fb5447fe00e995e7a37b600160009054906101000a900473ffffffffffffffffffffffffffffffffffffffff1682604051611e9092919061449f565b60405180910390a180600160006101000a81548173ffffffffffffffffffffffffffffffffffffffff021916908373ffffffffffffffffffffffffffffffffffffffff16021790555050565b600260009054906101000a900473ffffffffffffffffffffffffffffffffffffffff1681565b603a60089054906101000a900460ff1615611f52576040517f08c379a0000000000000000000000000000000000000000000000000000000008152600401611f4990614835565b60405180910390fd5b565b600080600080603660008873ffffffffffffffffffffffffffffffffffffffff1673ffffffffffffffffffffffffffffffffffffffff16815260200190815260200160002060008781526020019081526020016000209050620151808567ffffffffffffffff168260010154611fca9190614b23565b611fd49190614af2565b9350620186a067ffffffffffffffff1660395485611ff29190614b23565b611ffc9190614af2565b9150818461200a9190614b7d565b925081603760008360000160009054906101000a900473ffffffffffffffffffffffffffffffffffffffff1673ffffffffffffffffffffffffffffffffffffffff1673ffffffffffffffffffffffffffffffffffffffff168152602001908152602001600020600082825461207f9190614a5e565b92505081905550600073ffffffffffffffffffffffffffffffffffffffff168160000160009054906101000a900473ffffffffffffffffffffffffffffffffffffffff1673ffffffffffffffffffffffffffffffffffffffff1614156122515783341015612122576040517f08c379a000000000000000000000000000000000000000000000000000000000815260040161211990614775565b60405180910390fd5b8673ffffffffffffffffffffffffffffffffffffffff16636352211e876040518263ffffffff1660e01b815260040161215b919061496c565b60206040518083038186803b15801561217357600080fd5b505afa158015612187573d6000803e3d6000fd5b505050506040513d601f19601f820116820180604052508101906121ab9190613be4565b73ffffffffffffffffffffffffffffffffffffffff166108fc849081150290604051600060405180830381858888f193505050501580156121f0573d6000803e3d6000fd5b508334111561224c573373ffffffffffffffffffffffffffffffffffffffff166108fc853461221f9190614b7d565b9081150290604051600060405180830381858888f1935050505015801561224a573d6000803e3d6000fd5b505b6124ea565b60008160000160009054906101000a900473ffffffffffffffffffffffffffffffffffffffff1673ffffffffffffffffffffffffffffffffffffffff166370a08231306040518263ffffffff1660e01b81526004016122b09190614469565b60206040518083038186803b1580156122c857600080fd5b505afa1580156122dc573d6000803e3d6000fd5b505050506040513d601f19601f820116820180604052508101906123009190613e6e565b90506123328260000160009054906101000a900473ffffffffffffffffffffffffffffffffffffffff163330886135f4565b60008260000160009054906101000a900473ffffffffffffffffffffffffffffffffffffffff1673ffffffffffffffffffffffffffffffffffffffff166370a08231306040518263ffffffff1660e01b81526004016123919190614469565b60206040518083038186803b1580156123a957600080fd5b505afa1580156123bd573d6000803e3d6000fd5b505050506040513d601f19601f820116820180604052508101906123e19190613e6e565b90508086836123f09190614a5e565b14612430576040517f08c379a0000000000000000000000000000000000000000000000000000000008152600401612427906147b5565b60405180910390fd5b6124e78360000160009054906101000a900473ffffffffffffffffffffffffffffffffffffffff168a73ffffffffffffffffffffffffffffffffffffffff16636352211e8b6040518263ffffffff1660e01b8152600401612491919061496c565b60206040518083038186803b1580156124a957600080fd5b505afa1580156124bd573d6000803e3d6000fd5b505050506040513d601f19601f820116820180604052508101906124e19190613be4565b876134dc565b50505b5093509350939050565b6124ff338a8a612f41565b60008767ffffffffffffffff161161254c576040517f08c379a0000000000000000000000000000000000000000000000000000000008152600401612543906146f5565b60405180910390fd5b8873ffffffffffffffffffffffffffffffffffffffff1663b49a2db96040518163ffffffff1660e01b815260040160206040518083038186803b15801561259257600080fd5b505afa1580156125a6573d6000803e3d6000fd5b505050506040513d601f19601f820116820180604052508101906125ca9190613f0f565b67ffffffffffffffff168667ffffffffffffffff161115612620576040517f08c379a0000000000000000000000000000000000000000000000000000000008152600401612617906148f5565b60405180910390fd5b8873ffffffffffffffffffffffffffffffffffffffff166301ffc9a77fe56f2fe4000000000000000000000000000000000000000000000000000000006040518263ffffffff1660e01b8152600401612679919061465d565b60206040518083038186803b15801561269157600080fd5b505afa1580156126a5573d6000803e3d6000fd5b505050506040513d601f19601f820116820180604052508101906126c99190613e1c565b612708576040517f08c379a00000000000000000000000000000000000000000000000000000000081526004016126ff90614895565b60405180910390fd5b6000808a73ffffffffffffffffffffffffffffffffffffffff1663e42e66a98b60006040518363ffffffff1660e01b8152600401612747929190614987565b60606040518083038186803b15801561275f57600080fd5b505afa158015612773573d6000803e3d6000fd5b505050506040513d601f19601f820116820180604052508101906127979190613e97565b92509250508067ffffffffffffffff16828a6127b39190614ab4565b67ffffffffffffffff1611156127d25781816127cf9190614bb1565b98505b603a60009054906101000a900467ffffffffffffffff1667ffffffffffffffff168967ffffffffffffffff16111561281e57603a60009054906101000a900467ffffffffffffffff1698505b60008b73ffffffffffffffffffffffffffffffffffffffff16636352211e8c6040518263ffffffff1660e01b8152600401612859919061496c565b60206040518083038186803b15801561287157600080fd5b505afa158015612885573d6000803e3d6000fd5b505050506040513d601f19601f820116820180604052508101906128a99190613be4565b90506000603560008e73ffffffffffffffffffffffffffffffffffffffff1673ffffffffffffffffffffffffffffffffffffffff16815260200190815260200160002060008d81526020019081526020016000209050818160000160006101000a81548173ffffffffffffffffffffffffffffffffffffffff021916908373ffffffffffffffffffffffffffffffffffffffff1602179055508c8160010160006101000a81548173ffffffffffffffffffffffffffffffffffffffff021916908373ffffffffffffffffffffffffffffffffffffffff1602179055508b81600201819055508a8160030160006101000a81548167ffffffffffffffff021916908367ffffffffffffffff160217905550898160030160086101000a81548167ffffffffffffffff021916908367ffffffffffffffff1602179055508c73ffffffffffffffffffffffffffffffffffffffff16633d46b8198d6040518263ffffffff1660e01b8152600401612a1d919061496c565b60206040518083038186803b158015612a3557600080fd5b505afa158015612a49573d6000803e3d6000fd5b505050506040513d601f19601f82011682018060405250810190612a6d9190613f0f565b8160030160186101000a81548167ffffffffffffffff021916908367ffffffffffffffff160217905550428160030160106101000a81548167ffffffffffffffff021916908367ffffffffffffffff160217905550868160040160006101000a81548160ff02191690836000811115612b0f577f4e487b7100000000000000000000000000000000000000000000000000000000600052602160045260246000fd5b0217905550858160040160016101000a81548160ff02191690836000811115612b61577f4e487b7100000000000000000000000000000000000000000000000000000000600052602160045260246000fd5b02179055507faeb169383f2ae7c2482351835d026f1a393e148c3a1b5398c1655bc120cfc16f828e8e8e8e8e8e8c8f604051612ba59998979695949392919061458c565b60405180910390a150505050505050505050505050565b6000808473ffffffffffffffffffffffffffffffffffffffff166325cb25b06040518163ffffffff1660e01b815260040160206040518083038186803b158015612c0557600080fd5b505afa158015612c19573d6000803e3d6000fd5b505050506040513d601f19601f82011682018060405250810190612c3d9190613be4565b90508073ffffffffffffffffffffffffffffffffffffffff166301ffc9a77fb72080fb000000000000000000000000000000000000000000000000000000006040518263ffffffff1660e01b8152600401612c98919061465d565b60206040518083038186803b158015612cb057600080fd5b505afa158015612cc4573d6000803e3d6000fd5b505050506040513d601f19601f82011682018060405250810190612ce89190613e1c565b15612e535760008173ffffffffffffffffffffffffffffffffffffffff1663cab416b46040518163ffffffff1660e01b815260040160206040518083038186803b158015612d3557600080fd5b505afa158015612d49573d6000803e3d6000fd5b505050506040513d601f19601f82011682018060405250810190612d6d9190613be4565b905060008273ffffffffffffffffffffffffffffffffffffffff168273ffffffffffffffffffffffffffffffffffffffff16636352211e886040518263ffffffff1660e01b8152600401612dc1919061496c565b60206040518083038186803b158015612dd957600080fd5b505afa158015612ded573d6000803e3d6000fd5b505050506040513d601f19601f82011682018060405250810190612e119190613be4565b73ffffffffffffffffffffffffffffffffffffffff161490508015612e4057612e3b338488612f41565b612e4c565b612e4b338388612f41565b5b5050612e5f565b612e5e338286612f41565b5b60008367ffffffffffffffff1611612eac576040517f08c379a0000000000000000000000000000000000000000000000000000000008152600401612ea3906146f5565b60405180910390fd5b8473ffffffffffffffffffffffffffffffffffffffff1663a6cc2650856040518263ffffffff1660e01b8152600401612ee5919061496c565b602060405180830381600087803b158015612eff57600080fd5b505af1158015612f13573d6000803e3d6000fd5b505050506040513d601f19601f82011682018060405250810190612f379190613e6e565b9150509392505050565b60008273ffffffffffffffffffffffffffffffffffffffff16636352211e836040518263ffffffff1660e01b8152600401612f7c919061496c565b60206040518083038186803b158015612f9457600080fd5b505afa158015612fa8573d6000803e3d6000fd5b505050506040513d601f19601f82011682018060405250810190612fcc9190613be4565b90508073ffffffffffffffffffffffffffffffffffffffff168473ffffffffffffffffffffffffffffffffffffffff1614806130bb57508373ffffffffffffffffffffffffffffffffffffffff168373ffffffffffffffffffffffffffffffffffffffff1663081812fc846040518263ffffffff1660e01b8152600401613053919061496c565b60206040518083038186803b15801561306b57600080fd5b505afa15801561307f573d6000803e3d6000fd5b505050506040513d601f19601f820116820180604052508101906130a39190613be4565b73ffffffffffffffffffffffffffffffffffffffff16145b8061314d57508273ffffffffffffffffffffffffffffffffffffffff1663e985e9c582866040518363ffffffff1660e01b81526004016130fc92919061449f565b60206040518083038186803b15801561311457600080fd5b505afa158015613128573d6000803e3d6000fd5b505050506040513d601f19601f8201168201806040525081019061314c9190613e1c565b5b61318c576040517f08c379a000000000000000000000000000000000000000000000000000000000815260040161318390614795565b60405180910390fd5b50505050565b6000600260159054906101000a900460ff161561320a5760018260ff161480156131c257506131c03061367d565b155b613201576040517f08c379a00000000000000000000000000000000000000000000000000000000081526004016131f890614755565b60405180910390fd5b60009050613281565b8160ff16600260149054906101000a900460ff1660ff1610613261576040517f08c379a000000000000000000000000000000000000000000000000000000000815260040161325890614755565b60405180910390fd5b81600260146101000a81548160ff021916908360ff160217905550600190505b919050565b600260159054906101000a900460ff166132d5576040517f08c379a00000000000000000000000000000000000000000000000000000000081526004016132cc90614855565b60405180910390fd5b6132dd6136a0565b565b816000806101000a81548173ffffffffffffffffffffffffffffffffffffffff021916908373ffffffffffffffffffffffffffffffffffffffff16021790555080600260006101000a81548173ffffffffffffffffffffffffffffffffffffffff021916908373ffffffffffffffffffffffffffffffffffffffff1602179055505050565b600260009054906101000a900473ffffffffffffffffffffffffffffffffffffffff1673ffffffffffffffffffffffffffffffffffffffff163373ffffffffffffffffffffffffffffffffffffffff16148061340b575060008054906101000a900473ffffffffffffffffffffffffffffffffffffffff1673ffffffffffffffffffffffffffffffffffffffff163373ffffffffffffffffffffffffffffffffffffffff16145b61344a576040517f08c379a0000000000000000000000000000000000000000000000000000000008152600401613441906146b5565b60405180910390fd5b565b60008054906101000a900473ffffffffffffffffffffffffffffffffffffffff1673ffffffffffffffffffffffffffffffffffffffff163373ffffffffffffffffffffffffffffffffffffffff16146134da576040517f08c379a00000000000000000000000000000000000000000000000000000000081526004016134d190614915565b60405180910390fd5b565b61355d8363a9059cbb60e01b84846040516024016134fb929190614619565b604051602081830303815290604052907bffffffffffffffffffffffffffffffffffffffffffffffffffffffff19166020820180517bffffffffffffffffffffffffffffffffffffffffffffffffffffffff83818316178352505050506136f9565b505050565b600160009054906101000a900473ffffffffffffffffffffffffffffffffffffffff1673ffffffffffffffffffffffffffffffffffffffff163373ffffffffffffffffffffffffffffffffffffffff16146135f2576040517f08c379a00000000000000000000000000000000000000000000000000000000081526004016135e9906147d5565b60405180910390fd5b565b613677846323b872dd60e01b85858560405160240161361593929190614555565b604051602081830303815290604052907bffffffffffffffffffffffffffffffffffffffffffffffffffffffff19166020820180517bffffffffffffffffffffffffffffffffffffffffffffffffffffffff83818316178352505050506136f9565b50505050565b6000808273ffffffffffffffffffffffffffffffffffffffff163b119050919050565b600260159054906101000a900460ff166136ef576040517f08c379a00000000000000000000000000000000000000000000000000000000081526004016136e690614855565b60405180910390fd5b6001600381905550565b600061375b826040518060400160405280602081526020017f5361666545524332303a206c6f772d6c6576656c2063616c6c206661696c65648152508573ffffffffffffffffffffffffffffffffffffffff166137c09092919063ffffffff16565b90506000815111156137bb578080602001905181019061377b9190613e1c565b6137ba576040517f08c379a00000000000000000000000000000000000000000000000000000000081526004016137b190614875565b60405180910390fd5b5b505050565b60606137cf84846000856137d8565b90509392505050565b60608247101561381d576040517f08c379a000000000000000000000000000000000000000000000000000000000815260040161381490614715565b60405180910390fd5b613826856138ec565b613865576040517f08c379a000000000000000000000000000000000000000000000000000000000815260040161385c90614815565b60405180910390fd5b6000808673ffffffffffffffffffffffffffffffffffffffff16858760405161388e9190614452565b60006040518083038185875af1925050503d80600081146138cb576040519150601f19603f3d011682016040523d82523d6000602084013e6138d0565b606091505b50915091506138e082828661390f565b92505050949350505050565b6000808273ffffffffffffffffffffffffffffffffffffffff163b119050919050565b6060831561391f5782905061396f565b6000835111156139325782518084602001fd5b816040517f08c379a00000000000000000000000000000000000000000000000000000000081526004016139669190614693565b60405180910390fd5b9392505050565b6040518060400160405280600073ffffffffffffffffffffffffffffffffffffffff168152602001600081525090565b604051806101200160405280600073ffffffffffffffffffffffffffffffffffffffff168152602001600073ffffffffffffffffffffffffffffffffffffffff16815260200160008152602001600067ffffffffffffffff168152602001600067ffffffffffffffff168152602001600067ffffffffffffffff168152602001600067ffffffffffffffff168152602001600080811115613a70577f4e487b7100000000000000000000000000000000000000000000000000000000600052602160045260246000fd5b8152602001600080811115613aae577f4e487b7100000000000000000000000000000000000000000000000000000000600052602160045260246000fd5b81525090565b600081359050613ac381615208565b92915050565b600081519050613ad881615208565b92915050565b600081359050613aed8161521f565b92915050565b60008083601f840112613b0557600080fd5b8235905067ffffffffffffffff811115613b1e57600080fd5b602083019150836020820283011115613b3657600080fd5b9250929050565b600081359050613b4c81615236565b92915050565b600081519050613b6181615236565b92915050565b600081359050613b768161524d565b92915050565b600081519050613b8b8161524d565b92915050565b600081359050613ba081615264565b92915050565b600081519050613bb581615264565b92915050565b600060208284031215613bcd57600080fd5b6000613bdb84828501613ab4565b91505092915050565b600060208284031215613bf657600080fd5b6000613c0484828501613ac9565b91505092915050565b600060208284031215613c1f57600080fd5b6000613c2d84828501613ade565b91505092915050565b60008060408385031215613c4957600080fd5b6000613c5785828601613ab4565b9250506020613c6885828601613ab4565b9150509250929050565b60008060408385031215613c8557600080fd5b6000613c9385828601613ab4565b9250506020613ca485828601613b67565b9150509250929050565b600080600080600060a08688031215613cc657600080fd5b6000613cd488828901613ab4565b9550506020613ce588828901613b67565b9450506040613cf688828901613b67565b9350506060613d0788828901613b91565b9250506080613d1888828901613ab4565b9150509295509295909350565b60008060008060008060c08789031215613d3e57600080fd5b6000613d4c89828a01613ab4565b9650506020613d5d89828a01613b67565b9550506040613d6e89828a01613b91565b9450506060613d7f89828a01613b91565b9350506080613d9089828a01613b67565b92505060a0613da189828a01613ab4565b9150509295509295509295565b60008060208385031215613dc157600080fd5b600083013567ffffffffffffffff811115613ddb57600080fd5b613de785828601613af3565b92509250509250929050565b600060208284031215613e0557600080fd5b6000613e1384828501613b3d565b91505092915050565b600060208284031215613e2e57600080fd5b6000613e3c84828501613b52565b91505092915050565b600060208284031215613e5757600080fd5b6000613e6584828501613b67565b91505092915050565b600060208284031215613e8057600080fd5b6000613e8e84828501613b7c565b91505092915050565b600080600060608486031215613eac57600080fd5b6000613eba86828701613b7c565b9350506020613ecb86828701613ba6565b9250506040613edc86828701613ba6565b9150509250925092565b600060208284031215613ef857600080fd5b6000613f0684828501613b91565b91505092915050565b600060208284031215613f2157600080fd5b6000613f2f84828501613ba6565b91505092915050565b60008060408385031215613f4b57600080fd5b6000613f5985828601613ba6565b9250506020613f6a85828601613ba6565b9150509250929050565b613f7d81614bf7565b82525050565b613f8c81614be5565b82525050565b613f9b81614be5565b82525050565b613faa81614c09565b82525050565b613fb981614c15565b82525050565b6000613fca82614a2c565b613fd48185614a42565b9350613fe4818560208601614cfa565b80840191505092915050565b613ff981614cb2565b82525050565b61400881614cb2565b82525050565b61401781614cc4565b82525050565b61402681614cd6565b82525050565b61403581614ce8565b82525050565b600061404682614a37565b6140508185614a4d565b9350614060818560208601614cfa565b61406981614e03565b840191505092915050565b6000614081600983614a4d565b915061408c82614e14565b602082019050919050565b60006140a4600f83614a4d565b91506140af82614e3d565b602082019050919050565b60006140c7601383614a4d565b91506140d282614e66565b602082019050919050565b60006140ea602683614a4d565b91506140f582614e8f565b604082019050919050565b600061410d600b83614a4d565b915061411882614ede565b602082019050919050565b6000614130602e83614a4d565b915061413b82614f07565b604082019050919050565b6000614153601583614a4d565b915061415e82614f56565b602082019050919050565b6000614176601683614a4d565b915061418182614f7f565b602082019050919050565b6000614199601683614a4d565b91506141a482614fa8565b602082019050919050565b60006141bc601083614a4d565b91506141c782614fd1565b602082019050919050565b60006141df600d83614a4d565b91506141ea82614ffa565b602082019050919050565b6000614202601d83614a4d565b915061420d82615023565b602082019050919050565b6000614225600a83614a4d565b91506142308261504c565b602082019050919050565b6000614248602b83614a4d565b915061425382615075565b604082019050919050565b600061426b602a83614a4d565b9150614276826150c4565b604082019050919050565b600061428e600983614a4d565b915061429982615113565b602082019050919050565b60006142b1601683614a4d565b91506142bc8261513c565b602082019050919050565b60006142d4601f83614a4d565b91506142df82615165565b602082019050919050565b60006142f7601783614a4d565b91506143028261518e565b602082019050919050565b600061431a600983614a4d565b9150614325826151b7565b602082019050919050565b610120820160008201516143476000850182613f83565b50602082015161435a6020850182613f83565b50604082015161436d6040850182614416565b5060608201516143806060850182614434565b5060808201516143936080850182614434565b5060a08201516143a660a0850182614434565b5060c08201516143b960c0850182614434565b5060e08201516143cc60e0850182613ff0565b506101008201516143e161010085018261400e565b50505050565b6040820160008201516143fd6000850182613f83565b5060208201516144106020850182614416565b50505050565b61441f81614c87565b82525050565b61442e81614c87565b82525050565b61443d81614c91565b82525050565b61444c81614c91565b82525050565b600061445e8284613fbf565b915081905092915050565b600060208201905061447e6000830184613f92565b92915050565b60006020820190506144996000830184613f74565b92915050565b60006040820190506144b46000830185613f92565b6144c16020830184613f92565b9392505050565b6000610120820190506144de600083018c613f92565b6144eb602083018b613f92565b6144f8604083018a613f92565b6145056060830189614425565b6145126080830188614443565b61451f60a0830187614443565b61452c60c0830186614425565b61453960e0830185614425565b614547610100830184613f92565b9a9950505050505050505050565b600060608201905061456a6000830186613f92565b6145776020830185613f92565b6145846040830184614425565b949350505050565b6000610120820190506145a2600083018c613f92565b6145af602083018b613f92565b6145bc604083018a614425565b6145c96060830189614443565b6145d66080830188614443565b6145e360a0830187614425565b6145f060c0830186613f92565b6145fd60e0830185613f92565b61460b610100830184613fff565b9a9950505050505050505050565b600060408201905061462e6000830185613f92565b61463b6020830184614425565b9392505050565b60006020820190506146576000830184613fa1565b92915050565b60006020820190506146726000830184613fb0565b92915050565b600060208201905061468d600083018461402c565b92915050565b600060208201905081810360008301526146ad818461403b565b905092915050565b600060208201905081810360008301526146ce81614074565b9050919050565b600060208201905081810360008301526146ee81614097565b9050919050565b6000602082019050818103600083015261470e816140ba565b9050919050565b6000602082019050818103600083015261472e816140dd565b9050919050565b6000602082019050818103600083015261474e81614100565b9050919050565b6000602082019050818103600083015261476e81614123565b9050919050565b6000602082019050818103600083015261478e81614146565b9050919050565b600060208201905081810360008301526147ae81614169565b9050919050565b600060208201905081810360008301526147ce8161418c565b9050919050565b600060208201905081810360008301526147ee816141af565b9050919050565b6000602082019050818103600083015261480e816141d2565b9050919050565b6000602082019050818103600083015261482e816141f5565b9050919050565b6000602082019050818103600083015261484e81614218565b9050919050565b6000602082019050818103600083015261486e8161423b565b9050919050565b6000602082019050818103600083015261488e8161425e565b9050919050565b600060208201905081810360008301526148ae81614281565b9050919050565b600060208201905081810360008301526148ce816142a4565b9050919050565b600060208201905081810360008301526148ee816142c7565b9050919050565b6000602082019050818103600083015261490e816142ea565b9050919050565b6000602082019050818103600083015261492e8161430d565b9050919050565b60006101208201905061494b6000830184614330565b92915050565b600060408201905061496660008301846143e7565b92915050565b60006020820190506149816000830184614425565b92915050565b600060408201905061499c6000830185614425565b6149a9602083018461401d565b9392505050565b600060c0820190506149c56000830189614425565b6149d26020830188614425565b6149df6040830187614443565b6149ec6060830186614443565b6149f96080830185613f92565b614a0660a0830184613f92565b979650505050505050565b6000602082019050614a266000830184614443565b92915050565b600081519050919050565b600081519050919050565b600081905092915050565b600082825260208201905092915050565b6000614a6982614c87565b9150614a7483614c87565b9250827fffffffffffffffffffffffffffffffffffffffffffffffffffffffffffffffff03821115614aa957614aa8614d76565b5b828201905092915050565b6000614abf82614c91565b9150614aca83614c91565b92508267ffffffffffffffff03821115614ae757614ae6614d76565b5b828201905092915050565b6000614afd82614c87565b9150614b0883614c87565b925082614b1857614b17614da5565b5b828204905092915050565b6000614b2e82614c87565b9150614b3983614c87565b9250817fffffffffffffffffffffffffffffffffffffffffffffffffffffffffffffffff0483118215151615614b7257614b71614d76565b5b828202905092915050565b6000614b8882614c87565b9150614b9383614c87565b925082821015614ba657614ba5614d76565b5b828203905092915050565b6000614bbc82614c91565b9150614bc783614c91565b925082821015614bda57614bd9614d76565b5b828203905092915050565b6000614bf082614c67565b9050919050565b6000614c0282614c67565b9050919050565b60008115159050919050565b60007fffffffff0000000000000000000000000000000000000000000000000000000082169050919050565b6000819050614c4f826151e0565b919050565b6000819050614c62826151f4565b919050565b600073ffffffffffffffffffffffffffffffffffffffff82169050919050565b6000819050919050565b600067ffffffffffffffff82169050919050565b600060ff82169050919050565b6000614cbd82614c41565b9050919050565b6000614ccf82614c54565b9050919050565b6000614ce182614c87565b9050919050565b6000614cf382614ca5565b9050919050565b60005b83811015614d18578082015181840152602081019050614cfd565b83811115614d27576000848401525b50505050565b6000614d3882614c87565b91507fffffffffffffffffffffffffffffffffffffffffffffffffffffffffffffffff821415614d6b57614d6a614d76565b5b600182019050919050565b7f4e487b7100000000000000000000000000000000000000000000000000000000600052601160045260246000fd5b7f4e487b7100000000000000000000000000000000000000000000000000000000600052601260045260246000fd5b7f4e487b7100000000000000000000000000000000000000000000000000000000600052602160045260246000fd5b6000601f19601f8301169050919050565b7f6f6e6c7941646d696e0000000000000000000000000000000000000000000000600082015250565b7f6e6f742062656e65666963696172790000000000000000000000000000000000600082015250565b7f696e76616c6964206d61784475726174696f6e00000000000000000000000000600082015250565b7f416464726573733a20696e73756666696369656e742062616c616e636520666f60008201527f722063616c6c0000000000000000000000000000000000000000000000000000602082015250565b7f696e76616c696420666565000000000000000000000000000000000000000000600082015250565b7f496e697469616c697a61626c653a20636f6e747261637420697320616c72656160008201527f647920696e697469616c697a6564000000000000000000000000000000000000602082015250565b7f7061796d656e74206973206e6f7420656e6f7567680000000000000000000000600082015250565b7f6f6e6c7920617070726f766564206f72206f776e657200000000000000000000600082015250565b7f6e6f7420737570706f7274206275726e20455243323000000000000000000000600082015250565b7f6f6e6c7950656e64696e674f776e657200000000000000000000000000000000600082015250565b7f696e76616c6964206f7264657200000000000000000000000000000000000000600082015250565b7f416464726573733a2063616c6c20746f206e6f6e2d636f6e7472616374000000600082015250565b7f69732070617573696e6700000000000000000000000000000000000000000000600082015250565b7f496e697469616c697a61626c653a20636f6e7472616374206973206e6f74206960008201527f6e697469616c697a696e67000000000000000000000000000000000000000000602082015250565b7f5361666545524332303a204552433230206f7065726174696f6e20646964206e60008201527f6f74207375636365656400000000000000000000000000000000000000000000602082015250565b7f6e6f7420646f4e46540000000000000000000000000000000000000000000000600082015250565b7f6475726174696f6e203c206d696e4475726174696f6e00000000000000000000600082015250565b7f5265656e7472616e637947756172643a207265656e7472616e742063616c6c00600082015250565b7f4572726f723a6d696e4475726174696f6e203e206d6178000000000000000000600082015250565b7f6f6e6c794f776e65720000000000000000000000000000000000000000000000600082015250565b600181106151f1576151f0614dd4565b5b50565b6001811061520557615204614dd4565b5b50565b61521181614be5565b811461521c57600080fd5b50565b61522881614bf7565b811461523357600080fd5b50565b61523f81614c09565b811461524a57600080fd5b50565b61525681614c87565b811461526157600080fd5b50565b61526d81614c91565b811461527857600080fd5b5056fea26469706673582212208ba19a2447f12e4f913487bcaece3a0cc57028d26a1ef0150c034af3ccce070364736f6c63430008040033",
  "linkReferences": {},
  "deployedLinkReferences": {}
}