{
  "_format": "hh-sol-artifact-1",
  "contractName": "Market",
  "sourceName": "contracts/market/Market.sol",
  "abi": [
    {
      "anonymous": false,
      "inputs": [
        {
          "indexed": false,
          "internalType": "address",
          "name": "lender",
          "type": "address"
        },
        {
          "indexed": false,
          "internalType": "address",
          "name": "nftAddress",
          "type": "address"
        },
        {
          "indexed": false,
          "internalType": "uint256",
          "name": "nftId",
          "type": "uint256"
        }
      ],
      "name": "CancelLendOrder",
      "type": "event"
    },
    {
      "anonymous": false,
      "inputs": [
        {
          "indexed": false,
          "internalType": "address",
          "name": "lender",
          "type": "address"
        },
        {
          "indexed": false,
          "internalType": "address",
          "name": "nftAddress",
          "type": "address"
        },
        {
          "indexed": false,
          "internalType": "uint256",
          "name": "nftId",
          "type": "uint256"
        },
        {
          "indexed": false,
          "internalType": "uint64",
          "name": "maxDuration",
          "type": "uint64"
        },
        {
          "indexed": false,
          "internalType": "uint64",
          "name": "minDuration",
          "type": "uint64"
        },
        {
          "indexed": false,
          "internalType": "uint256",
          "name": "pricePerDay",
          "type": "uint256"
        },
        {
          "indexed": false,
          "internalType": "address",
          "name": "paymentToken",
          "type": "address"
        },
        {
          "indexed": false,
          "internalType": "address",
          "name": "renter",
          "type": "address"
        },
        {
          "indexed": false,
          "internalType": "enum IMarket.OrderType",
          "name": "orderType",
          "type": "uint8"
        }
      ],
      "name": "CreateLendOrder",
      "type": "event"
    },
    {
      "anonymous": false,
      "inputs": [
        {
          "indexed": false,
          "internalType": "address",
          "name": "renter",
          "type": "address"
        },
        {
          "indexed": false,
          "internalType": "address",
          "name": "lender",
          "type": "address"
        },
        {
          "indexed": false,
          "internalType": "address",
          "name": "nftAddress",
          "type": "address"
        },
        {
          "indexed": false,
          "internalType": "uint256",
          "name": "nftId",
          "type": "uint256"
        },
        {
          "indexed": false,
          "internalType": "uint64",
          "name": "startTime",
          "type": "uint64"
        },
        {
          "indexed": false,
          "internalType": "uint64",
          "name": "Duration",
          "type": "uint64"
        },
        {
          "indexed": false,
          "internalType": "uint256",
          "name": "pricePerDay",
          "type": "uint256"
        },
        {
          "indexed": false,
          "internalType": "uint256",
          "name": "newId",
          "type": "uint256"
        },
        {
          "indexed": false,
          "internalType": "address",
          "name": "paymentToken",
          "type": "address"
        }
      ],
      "name": "FulfillOrder",
      "type": "event"
    },
    {
      "anonymous": false,
      "inputs": [
        {
          "indexed": false,
          "internalType": "uint8",
          "name": "version",
          "type": "uint8"
        }
      ],
      "name": "Initialized",
      "type": "event"
    },
    {
      "anonymous": false,
      "inputs": [
        {
          "indexed": false,
          "internalType": "address",
          "name": "oldAdmin",
          "type": "address"
        },
        {
          "indexed": false,
          "internalType": "address",
          "name": "newAdmin",
          "type": "address"
        }
      ],
      "name": "NewAdmin",
      "type": "event"
    },
    {
      "anonymous": false,
      "inputs": [
        {
          "indexed": false,
          "internalType": "address",
          "name": "oldOwner",
          "type": "address"
        },
        {
          "indexed": false,
          "internalType": "address",
          "name": "newOwner",
          "type": "address"
        }
      ],
      "name": "NewOwner",
      "type": "event"
    },
    {
      "anonymous": false,
      "inputs": [
        {
          "indexed": false,
          "internalType": "address",
          "name": "oldPendingOwner",
          "type": "address"
        },
        {
          "indexed": false,
          "internalType": "address",
          "name": "newPendingOwner",
          "type": "address"
        }
      ],
      "name": "NewPendingOwner",
      "type": "event"
    },
    {
      "anonymous": false,
      "inputs": [
        {
          "indexed": false,
          "internalType": "address",
          "name": "account",
          "type": "address"
        }
      ],
      "name": "Paused",
      "type": "event"
    },
    {
      "anonymous": false,
      "inputs": [
        {
          "indexed": false,
          "internalType": "address",
          "name": "account",
          "type": "address"
        }
      ],
      "name": "Unpaused",
      "type": "event"
    },
    {
      "inputs": [],
      "name": "acceptOwner",
      "outputs": [],
      "stateMutability": "nonpayable",
      "type": "function"
    },
    {
      "inputs": [],
      "name": "admin",
      "outputs": [
        {
          "internalType": "address",
          "name": "",
          "type": "address"
        }
      ],
      "stateMutability": "view",
      "type": "function"
    },
    {
      "inputs": [
        {
          "internalType": "address",
          "name": "",
          "type": "address"
        }
      ],
      "name": "balanceOfFee",
      "outputs": [
        {
          "internalType": "uint256",
          "name": "",
          "type": "uint256"
        }
      ],
      "stateMutability": "view",
      "type": "function"
    },
    {
      "inputs": [],
      "name": "beneficiary",
      "outputs": [
        {
          "internalType": "address payable",
          "name": "",
          "type": "address"
        }
      ],
      "stateMutability": "view",
      "type": "function"
    },
    {
      "inputs": [
        {
          "internalType": "address",
          "name": "nftAddress",
          "type": "address"
        },
        {
          "internalType": "uint256",
          "name": "nftId",
          "type": "uint256"
        }
      ],
      "name": "cancelLendOrder",
      "outputs": [],
      "stateMutability": "nonpayable",
      "type": "function"
    },
    {
      "inputs": [
        {
          "internalType": "address[]",
          "name": "paymentTokens",
          "type": "address[]"
        }
      ],
      "name": "claimFee",
      "outputs": [],
      "stateMutability": "nonpayable",
      "type": "function"
    },
    {
      "inputs": [
        {
          "internalType": "address",
          "name": "nftAddress",
          "type": "address"
        },
        {
          "internalType": "uint256",
          "name": "nftId",
          "type": "uint256"
        },
        {
          "internalType": "uint64",
          "name": "maxDuration",
          "type": "uint64"
        },
        {
          "internalType": "uint64",
          "name": "minDuration",
          "type": "uint64"
        },
        {
          "internalType": "uint256",
          "name": "pricePerDay",
          "type": "uint256"
        },
        {
          "internalType": "address",
          "name": "paymentToken",
          "type": "address"
        }
      ],
      "name": "createLendOrder",
      "outputs": [],
      "stateMutability": "nonpayable",
      "type": "function"
    },
    {
      "inputs": [
        {
          "internalType": "address",
          "name": "nftAddress",
          "type": "address"
        },
        {
          "internalType": "uint256",
          "name": "nftId",
          "type": "uint256"
        },
        {
          "internalType": "uint256",
          "name": "durationId",
          "type": "uint256"
        },
        {
          "internalType": "uint64",
          "name": "duration",
          "type": "uint64"
        },
        {
          "internalType": "address",
          "name": "user",
          "type": "address"
        }
      ],
      "name": "fulfillOrderNow",
      "outputs": [
        {
          "internalType": "uint256",
          "name": "tid",
          "type": "uint256"
        }
      ],
      "stateMutability": "payable",
      "type": "function"
    },
    {
      "inputs": [],
      "name": "getFee",
      "outputs": [
        {
          "internalType": "uint256",
          "name": "",
          "type": "uint256"
        }
      ],
      "stateMutability": "view",
      "type": "function"
    },
    {
      "inputs": [
        {
          "internalType": "address",
          "name": "nftAddress",
          "type": "address"
        },
        {
          "internalType": "uint256",
          "name": "nftId",
          "type": "uint256"
        }
      ],
      "name": "getLendOrder",
      "outputs": [
        {
          "components": [
            {
              "internalType": "address",
              "name": "lender",
              "type": "address"
            },
            {
              "internalType": "address",
              "name": "nftAddress",
              "type": "address"
            },
            {
              "internalType": "uint256",
              "name": "nftId",
              "type": "uint256"
            },
            {
              "internalType": "uint64",
              "name": "maxDuration",
              "type": "uint64"
            },
            {
              "internalType": "uint64",
              "name": "minDuration",
              "type": "uint64"
            },
            {
              "internalType": "uint64",
              "name": "createTime",
              "type": "uint64"
            },
            {
              "internalType": "uint64",
              "name": "nonce",
              "type": "uint64"
            },
            {
              "internalType": "enum IMarket.OrderType",
              "name": "orderType",
              "type": "uint8"
            },
            {
              "internalType": "enum IMarket.PaymentType",
              "name": "paymentType",
              "type": "uint8"
            }
          ],
          "internalType": "struct IMarket.Lending",
          "name": "",
          "type": "tuple"
        }
      ],
      "stateMutability": "view",
      "type": "function"
    },
    {
      "inputs": [
        {
          "internalType": "address",
          "name": "nftAddress",
          "type": "address"
        },
        {
          "internalType": "uint256",
          "name": "nftId",
          "type": "uint256"
        }
      ],
      "name": "getPaymentNormal",
      "outputs": [
        {
          "components": [
            {
              "internalType": "address",
              "name": "token",
              "type": "address"
            },
            {
              "internalType": "uint256",
              "name": "pricePerDay",
              "type": "uint256"
            }
          ],
          "internalType": "struct IMarket.PaymentNormal",
          "name": "",
          "type": "tuple"
        }
      ],
      "stateMutability": "view",
      "type": "function"
    },
    {
      "inputs": [
        {
          "internalType": "address",
          "name": "owner_",
          "type": "address"
        },
        {
          "internalType": "address",
          "name": "admin_",
          "type": "address"
        }
      ],
      "name": "initialize",
      "outputs": [],
      "stateMutability": "nonpayable",
      "type": "function"
    },
    {
      "inputs": [
        {
          "internalType": "address",
          "name": "nftAddress",
          "type": "address"
        },
        {
          "internalType": "uint256",
          "name": "nftId",
          "type": "uint256"
        }
      ],
      "name": "isLendOrderValid",
      "outputs": [
        {
          "internalType": "bool",
          "name": "",
          "type": "bool"
        }
      ],
      "stateMutability": "view",
      "type": "function"
    },
    {
      "inputs": [],
      "name": "isPausing",
      "outputs": [
        {
          "internalType": "bool",
          "name": "",
          "type": "bool"
        }
      ],
      "stateMutability": "view",
      "type": "function"
    },
    {
      "inputs": [],
      "name": "maxIndate",
      "outputs": [
        {
          "internalType": "uint64",
          "name": "",
          "type": "uint64"
        }
      ],
      "stateMutability": "view",
      "type": "function"
    },
    {
      "inputs": [
        {
          "internalType": "address",
          "name": "doNftAddress",
          "type": "address"
        },
        {
          "internalType": "uint256",
          "name": "oNftId",
          "type": "uint256"
        },
        {
          "internalType": "uint64",
          "name": "maxDuration",
          "type": "uint64"
        },
        {
          "internalType": "uint64",
          "name": "minDuration",
          "type": "uint64"
        },
        {
          "internalType": "uint256",
          "name": "pricePerDay",
          "type": "uint256"
        },
        {
          "internalType": "address",
          "name": "paymentToken",
          "type": "address"
        }
      ],
      "name": "mintAndCreateLendOrder",
      "outputs": [],
      "stateMutability": "nonpayable",
      "type": "function"
    },
    {
      "inputs": [],
      "name": "owner",
      "outputs": [
        {
          "internalType": "address",
          "name": "",
          "type": "address"
        }
      ],
      "stateMutability": "view",
      "type": "function"
    },
    {
      "inputs": [],
      "name": "pendingOwner",
      "outputs": [
        {
          "internalType": "address",
          "name": "",
          "type": "address"
        }
      ],
      "stateMutability": "view",
      "type": "function"
    },
    {
      "inputs": [],
      "name": "renounceOwnership",
      "outputs": [],
      "stateMutability": "nonpayable",
      "type": "function"
    },
    {
      "inputs": [
        {
          "internalType": "address",
          "name": "newAdmin",
          "type": "address"
        }
      ],
      "name": "setAdmin",
      "outputs": [],
      "stateMutability": "nonpayable",
      "type": "function"
    },
    {
      "inputs": [
        {
          "internalType": "uint256",
          "name": "fee_",
          "type": "uint256"
        }
      ],
      "name": "setFee",
      "outputs": [],
      "stateMutability": "nonpayable",
      "type": "function"
    },
    {
      "inputs": [
        {
          "internalType": "address payable",
          "name": "beneficiary_",
          "type": "address"
        }
      ],
      "name": "setMarketBeneficiary",
      "outputs": [],
      "stateMutability": "nonpayable",
      "type": "function"
    },
    {
      "inputs": [
        {
          "internalType": "uint64",
          "name": "max_",
          "type": "uint64"
        }
      ],
      "name": "setMaxIndate",
      "outputs": [],
      "stateMutability": "nonpayable",
      "type": "function"
    },
    {
      "inputs": [
        {
          "internalType": "bool",
          "name": "pause_",
          "type": "bool"
        }
      ],
      "name": "setPause",
      "outputs": [],
      "stateMutability": "nonpayable",
      "type": "function"
    },
    {
      "inputs": [],
      "name": "supportERC20",
      "outputs": [
        {
          "internalType": "bool",
          "name": "",
          "type": "bool"
        }
      ],
      "stateMutability": "view",
      "type": "function"
    },
    {
      "inputs": [
        {
          "internalType": "address",
          "name": "_pendingOwner",
          "type": "address"
        }
      ],
      "name": "transferOwnership",
      "outputs": [],
      "stateMutability": "nonpayable",
      "type": "function"
    }
  ],
  "bytecode": "0x608060405234801561001057600080fd5b506156af80620000216000396000f3fe6080604052600436106101815760003560e01c80639815becf116100d1578063ced72f871161008a578063ebbc496511610064578063ebbc49651461055f578063ec005b6714610576578063f2fde38b1461059f578063f851a440146105c857610181565b8063ced72f87146104de578063e30c397814610509578063e389bc101461053457610181565b80639815becf146103be578063a18087fd146103fb578063b23bc40e14610438578063b774b60114610461578063bedb86fb1461048a578063bf59a457146104b357610181565b8063430e70501161013e57806369fe0e2d1161011857806369fe0e2d1461032a578063704b6c0214610353578063715018a61461037c5780638da5cb5b1461039357610181565b8063430e70501461029b578063434aee63146102d8578063485cc9551461030157610181565b806302bb4bbe146101865780630d34b79c146101b657806312aa48e2146101e157806316e5e29b1461020a578063257254751461023357806338af3eed14610270575b600080fd5b6101a0600480360381019061019b91906140ac565b6105f3565b6040516101ad9190614d6a565b60405180910390f35b3480156101c257600080fd5b506101cb610adf565b6040516101d89190614a40565b60405180910390f35b3480156101ed57600080fd5b5061020860048036038101906102039190614123565b610af2565b005b34801561021657600080fd5b50610231600480360381019061022c9190614123565b610c2c565b005b34801561023f57600080fd5b5061025a60048036038101906102559190614070565b610ca8565b6040516102679190614d4f565b60405180910390f35b34801561027c57600080fd5b50610285610d73565b6040516102929190614882565b60405180910390f35b3480156102a757600080fd5b506102c260048036038101906102bd9190614070565b610d99565b6040516102cf9190614d33565b60405180910390f35b3480156102e457600080fd5b506102ff60048036038101906102fa9190614070565b611091565b005b34801561030d57600080fd5b5061032860048036038101906103239190614034565b6112ea565b005b34801561033657600080fd5b50610351600480360381019061034c9190614243565b6113c1565b005b34801561035f57600080fd5b5061037a60048036038101906103759190613fb9565b6114f6565b005b34801561038857600080fd5b50610391611623565b005b34801561039f57600080fd5b506103a861188a565b6040516103b59190614867565b60405180910390f35b3480156103ca57600080fd5b506103e560048036038101906103e09190613fb9565b6118ae565b6040516103f29190614d6a565b60405180910390f35b34801561040757600080fd5b50610422600480360381019061041d9190614070565b6118c6565b60405161042f9190614a40565b60405180910390f35b34801561044457600080fd5b5061045f600480360381019061045a91906142e4565b611a39565b005b34801561046d57600080fd5b50610488600480360381019061048391906141ac565b611b4b565b005b34801561049657600080fd5b506104b160048036038101906104ac91906141f1565b611f40565b005b3480156104bf57600080fd5b506104c86120cc565b6040516104d59190614a40565b60405180910390f35b3480156104ea57600080fd5b506104f36120df565b6040516105009190614d6a565b60405180910390f35b34801561051557600080fd5b5061051e6120e9565b60405161052b9190614867565b60405180910390f35b34801561054057600080fd5b5061054961210f565b6040516105569190614e0f565b60405180910390f35b34801561056b57600080fd5b50610574612129565b005b34801561058257600080fd5b5061059d6004803603810190610598919061400b565b612337565b005b3480156105ab57600080fd5b506105c660048036038101906105c19190613fb9565b612409565b005b3480156105d457600080fd5b506105dd612536565b6040516105ea9190614867565b60405180910390f35b6000603a60089054906101000a900460ff1615610645576040517f08c379a000000000000000000000000000000000000000000000000000000000815260040161063c90614c33565b60405180910390fd5b6002600354141561068b576040517f08c379a000000000000000000000000000000000000000000000000000000000815260040161068290614cd3565b60405180910390fd5b600260038190555061069d86866118c6565b6106dc576040517f08c379a00000000000000000000000000000000000000000000000000000000081526004016106d390614bf3565b60405180910390fd5b6000603560008873ffffffffffffffffffffffffffffffffffffffff1673ffffffffffffffffffffffffffffffffffffffff168152602001908152602001600020600087815260200190815260200160002090508060030160009054906101000a900467ffffffffffffffff1667ffffffffffffffff168467ffffffffffffffff161115610780578060030160009054906101000a900467ffffffffffffffff1693505b6000808873ffffffffffffffffffffffffffffffffffffffff16638bb126a7886040518263ffffffff1660e01b81526004016107bc9190614d6a565b604080518083038186803b1580156107d357600080fd5b505afa1580156107e7573d6000803e3d6000fd5b505050506040513d601f19601f8201168201806040525081019061080b9190614336565b91509150818161081b9190614faf565b67ffffffffffffffff168667ffffffffffffffff1611156108455781816108429190614faf565b95505b600042905082826108569190614faf565b67ffffffffffffffff168767ffffffffffffffff1614806108a257508360030160009054906101000a900467ffffffffffffffff1667ffffffffffffffff168767ffffffffffffffff16145b610916578360030160089054906101000a900467ffffffffffffffff1667ffffffffffffffff168767ffffffffffffffff161015610915576040517f08c379a000000000000000000000000000000000000000000000000000000000815260040161090c90614cb3565b60405180910390fd5b5b600060018867ffffffffffffffff16426109309190614e5c565b61093a9190614f7b565b90506109478b8b8a61255c565b5050508a73ffffffffffffffffffffffffffffffffffffffff166310c118548b8b8585338d6040518763ffffffff1660e01b815260040161098d96959493929190614dae565b602060405180830381600087803b1580156109a757600080fd5b505af11580156109bb573d6000803e3d6000fd5b505050506040513d601f19601f820116820180604052508101906109df919061426c565b95506000603660008d73ffffffffffffffffffffffffffffffffffffffff1673ffffffffffffffffffffffffffffffffffffffff16815260200190815260200160002060008c815260200190815260200160002090507ff8ce95efc95f64de1eca0db3354afad7c88704a1f7e64ba969056d449a1c0b10888760000160009054906101000a900473ffffffffffffffffffffffffffffffffffffffff168e8e878787600101548e8960000160009054906101000a900473ffffffffffffffffffffffffffffffffffffffff16604051610ac0999897969594939291906148c6565b60405180910390a1505050505050600160038190555095945050505050565b603a60089054906101000a900460ff1681565b603a60089054906101000a900460ff1615610b42576040517f08c379a0000000000000000000000000000000000000000000000000000000008152600401610b3990614c33565b60405180910390fd5b60405180604001604052808273ffffffffffffffffffffffffffffffffffffffff16815260200183815250603660008873ffffffffffffffffffffffffffffffffffffffff1673ffffffffffffffffffffffffffffffffffffffff168152602001908152602001600020600087815260200190815260200160002060008201518160000160006101000a81548173ffffffffffffffffffffffffffffffffffffffff021916908373ffffffffffffffffffffffffffffffffffffffff16021790555060208201518160010155905050610c248686868686866000806000612afc565b505050505050565b60026003541415610c72576040517f08c379a0000000000000000000000000000000000000000000000000000000008152600401610c6990614cd3565b60405180910390fd5b60026003819055506000610c878787876131c4565b9050610c97878287878787610af2565b506001600381905550505050505050565b610cb0613d74565b603660008473ffffffffffffffffffffffffffffffffffffffff1673ffffffffffffffffffffffffffffffffffffffff16815260200190815260200160002060008381526020019081526020016000206040518060400160405290816000820160009054906101000a900473ffffffffffffffffffffffffffffffffffffffff1673ffffffffffffffffffffffffffffffffffffffff1673ffffffffffffffffffffffffffffffffffffffff168152602001600182015481525050905092915050565b603860009054906101000a900473ffffffffffffffffffffffffffffffffffffffff1681565b610da1613da4565b603560008473ffffffffffffffffffffffffffffffffffffffff1673ffffffffffffffffffffffffffffffffffffffff1681526020019081526020016000206000838152602001908152602001600020604051806101200160405290816000820160009054906101000a900473ffffffffffffffffffffffffffffffffffffffff1673ffffffffffffffffffffffffffffffffffffffff1673ffffffffffffffffffffffffffffffffffffffff1681526020016001820160009054906101000a900473ffffffffffffffffffffffffffffffffffffffff1673ffffffffffffffffffffffffffffffffffffffff1673ffffffffffffffffffffffffffffffffffffffff168152602001600282015481526020016003820160009054906101000a900467ffffffffffffffff1667ffffffffffffffff1667ffffffffffffffff1681526020016003820160089054906101000a900467ffffffffffffffff1667ffffffffffffffff1667ffffffffffffffff1681526020016003820160109054906101000a900467ffffffffffffffff1667ffffffffffffffff1667ffffffffffffffff1681526020016003820160189054906101000a900467ffffffffffffffff1667ffffffffffffffff1667ffffffffffffffff1681526020016004820160009054906101000a900460ff166000811115610fc6577f4e487b7100000000000000000000000000000000000000000000000000000000600052602160045260246000fd5b6000811115610ffe577f4e487b7100000000000000000000000000000000000000000000000000000000600052602160045260246000fd5b81526020016004820160019054906101000a900460ff16600081111561104d577f4e487b7100000000000000000000000000000000000000000000000000000000600052602160045260246000fd5b6000811115611085577f4e487b7100000000000000000000000000000000000000000000000000000000600052602160045260246000fd5b81525050905092915050565b603a60089054906101000a900460ff16156110e1576040517f08c379a00000000000000000000000000000000000000000000000000000000081526004016110d890614c33565b60405180910390fd5b6110ec338383613549565b603560008373ffffffffffffffffffffffffffffffffffffffff1673ffffffffffffffffffffffffffffffffffffffff1681526020019081526020016000206000828152602001908152602001600020600080820160006101000a81549073ffffffffffffffffffffffffffffffffffffffff02191690556001820160006101000a81549073ffffffffffffffffffffffffffffffffffffffff021916905560028201600090556003820160006101000a81549067ffffffffffffffff02191690556003820160086101000a81549067ffffffffffffffff02191690556003820160106101000a81549067ffffffffffffffff02191690556003820160186101000a81549067ffffffffffffffff02191690556004820160006101000a81549060ff02191690556004820160016101000a81549060ff02191690555050603660008373ffffffffffffffffffffffffffffffffffffffff1673ffffffffffffffffffffffffffffffffffffffff1681526020019081526020016000206000828152602001908152602001600020600080820160006101000a81549073ffffffffffffffffffffffffffffffffffffffff0219169055600182016000905550507fd683d5e080429307176d202675b21464dc43b9ab5339355dabb01bebee4008be3383836040516112de93929190614953565b60405180910390a15050565b60006112f6600161379a565b9050801561131a576001600260156101000a81548160ff0219169083151502179055505b61132261388e565b61132c83836138e7565b6301e13380603a60006101000a81548167ffffffffffffffff021916908367ffffffffffffffff1602179055506109c460398190555080156113bc576000600260156101000a81548160ff0219169083151502179055507f7f26b83ff96e1f2b6a682f133852f6798a09c465da95921460cefb384740249860016040516113b39190614a76565b60405180910390a15b505050565b600260009054906101000a900473ffffffffffffffffffffffffffffffffffffffff1673ffffffffffffffffffffffffffffffffffffffff163373ffffffffffffffffffffffffffffffffffffffff161480611468575060008054906101000a900473ffffffffffffffffffffffffffffffffffffffff1673ffffffffffffffffffffffffffffffffffffffff163373ffffffffffffffffffffffffffffffffffffffff16145b6114a7576040517f08c379a000000000000000000000000000000000000000000000000000000000815260040161149e90614ab3565b60405180910390fd5b6127108111156114ec576040517f08c379a00000000000000000000000000000000000000000000000000000000081526004016114e390614b33565b60405180910390fd5b8060398190555050565b60008054906101000a900473ffffffffffffffffffffffffffffffffffffffff1673ffffffffffffffffffffffffffffffffffffffff163373ffffffffffffffffffffffffffffffffffffffff1614611584576040517f08c379a000000000000000000000000000000000000000000000000000000000815260040161157b90614d13565b60405180910390fd5b7ff9ffabca9c8276e99321725bcb43fb076a6c66a54b7f21c4e8146d8519b417dc600260009054906101000a900473ffffffffffffffffffffffffffffffffffffffff16826040516115d792919061489d565b60405180910390a180600260006101000a81548173ffffffffffffffffffffffffffffffffffffffff021916908373ffffffffffffffffffffffffffffffffffffffff16021790555050565b60008054906101000a900473ffffffffffffffffffffffffffffffffffffffff1673ffffffffffffffffffffffffffffffffffffffff163373ffffffffffffffffffffffffffffffffffffffff16146116b1576040517f08c379a00000000000000000000000000000000000000000000000000000000081526004016116a890614d13565b60405180910390fd5b7f70aea8d848e8a90fb7661b227dc522eb6395c3dac71b63cb59edd5c9899b236460008054906101000a900473ffffffffffffffffffffffffffffffffffffffff16600060405161170392919061489d565b60405180910390a17ff9ffabca9c8276e99321725bcb43fb076a6c66a54b7f21c4e8146d8519b417dc600260009054906101000a900473ffffffffffffffffffffffffffffffffffffffff16600060405161175f92919061489d565b60405180910390a17fb3d55174552271a4f1aaf36b72f50381e892171636b3fb5447fe00e995e7a37b600160009054906101000a900473ffffffffffffffffffffffffffffffffffffffff1660006040516117bb92919061489d565b60405180910390a160008060006101000a81548173ffffffffffffffffffffffffffffffffffffffff021916908373ffffffffffffffffffffffffffffffffffffffff1602179055506000600160006101000a81548173ffffffffffffffffffffffffffffffffffffffff021916908373ffffffffffffffffffffffffffffffffffffffff1602179055506000600260006101000a81548173ffffffffffffffffffffffffffffffffffffffff021916908373ffffffffffffffffffffffffffffffffffffffff160217905550565b60008054906101000a900473ffffffffffffffffffffffffffffffffffffffff1681565b60376020528060005260406000206000915090505481565b600080603560008573ffffffffffffffffffffffffffffffffffffffff1673ffffffffffffffffffffffffffffffffffffffff16815260200190815260200160002060008481526020019081526020016000209050603a60089054906101000a900460ff161561193a576000915050611a33565b60008160020154118015611970575060008160030160009054906101000a900467ffffffffffffffff1667ffffffffffffffff16115b8015611a2f57508373ffffffffffffffffffffffffffffffffffffffff16633d46b819846040518263ffffffff1660e01b81526004016119b09190614d6a565b60206040518083038186803b1580156119c857600080fd5b505afa1580156119dc573d6000803e3d6000fd5b505050506040513d601f19601f82011682018060405250810190611a00919061430d565b67ffffffffffffffff168160030160189054906101000a900467ffffffffffffffff1667ffffffffffffffff16145b9150505b92915050565b600260009054906101000a900473ffffffffffffffffffffffffffffffffffffffff1673ffffffffffffffffffffffffffffffffffffffff163373ffffffffffffffffffffffffffffffffffffffff161480611ae0575060008054906101000a900473ffffffffffffffffffffffffffffffffffffffff1673ffffffffffffffffffffffffffffffffffffffff163373ffffffffffffffffffffffffffffffffffffffff16145b611b1f576040517f08c379a0000000000000000000000000000000000000000000000000000000008152600401611b1690614ab3565b60405180910390fd5b80603a60006101000a81548167ffffffffffffffff021916908367ffffffffffffffff16021790555050565b603a60089054906101000a900460ff1615611b9b576040517f08c379a0000000000000000000000000000000000000000000000000000000008152600401611b9290614c33565b60405180910390fd5b60026003541415611be1576040517f08c379a0000000000000000000000000000000000000000000000000000000008152600401611bd890614cd3565b60405180910390fd5b6002600381905550603860009054906101000a900473ffffffffffffffffffffffffffffffffffffffff1673ffffffffffffffffffffffffffffffffffffffff163373ffffffffffffffffffffffffffffffffffffffff1614611c79576040517f08c379a0000000000000000000000000000000000000000000000000000000008152600401611c7090614ad3565b60405180910390fd5b60005b82829050811015611f3357600060376000858585818110611cc6577f4e487b7100000000000000000000000000000000000000000000000000000000600052603260045260246000fd5b9050602002016020810190611cdb9190613fb9565b73ffffffffffffffffffffffffffffffffffffffff1673ffffffffffffffffffffffffffffffffffffffff1681526020019081526020016000205490506000811115611f1f57600073ffffffffffffffffffffffffffffffffffffffff16848484818110611d72577f4e487b7100000000000000000000000000000000000000000000000000000000600052603260045260246000fd5b9050602002016020810190611d879190613fb9565b73ffffffffffffffffffffffffffffffffffffffff161415611e1157603860009054906101000a900473ffffffffffffffffffffffffffffffffffffffff1673ffffffffffffffffffffffffffffffffffffffff166108fc829081150290604051600060405180830381858888f19350505050158015611e0b573d6000803e3d6000fd5b50611e8c565b611e8b848484818110611e4d577f4e487b7100000000000000000000000000000000000000000000000000000000600052603260045260246000fd5b9050602002016020810190611e629190613fb9565b603860009054906101000a900473ffffffffffffffffffffffffffffffffffffffff168361396c565b5b600060376000868686818110611ecb577f4e487b7100000000000000000000000000000000000000000000000000000000600052603260045260246000fd5b9050602002016020810190611ee09190613fb9565b73ffffffffffffffffffffffffffffffffffffffff1673ffffffffffffffffffffffffffffffffffffffff168152602001908152602001600020819055505b508080611f2b9061512b565b915050611c7c565b5060016003819055505050565b600260009054906101000a900473ffffffffffffffffffffffffffffffffffffffff1673ffffffffffffffffffffffffffffffffffffffff163373ffffffffffffffffffffffffffffffffffffffff161480611fe7575060008054906101000a900473ffffffffffffffffffffffffffffffffffffffff1673ffffffffffffffffffffffffffffffffffffffff163373ffffffffffffffffffffffffffffffffffffffff16145b612026576040517f08c379a000000000000000000000000000000000000000000000000000000000815260040161201d90614ab3565b60405180910390fd5b80603a60086101000a81548160ff021916908315150217905550603a60089054906101000a900460ff1615612091577f62e78cea01bee320cd4e420270b5ea74000d11b0c9f74754ebdbfc544b05a258306040516120849190614867565b60405180910390a16120c9565b7f5db9ee0a495bf2e6ff9c91a7834c1ba4fdd244a5e8aa4e537bd38aeae4b073aa306040516120c09190614867565b60405180910390a15b50565b603a60099054906101000a900460ff1681565b6000603954905090565b600160009054906101000a900473ffffffffffffffffffffffffffffffffffffffff1681565b603a60009054906101000a900467ffffffffffffffff1681565b600160009054906101000a900473ffffffffffffffffffffffffffffffffffffffff1673ffffffffffffffffffffffffffffffffffffffff163373ffffffffffffffffffffffffffffffffffffffff16146121b9576040517f08c379a00000000000000000000000000000000000000000000000000000000081526004016121b090614bd3565b60405180910390fd5b7f70aea8d848e8a90fb7661b227dc522eb6395c3dac71b63cb59edd5c9899b236460008054906101000a900473ffffffffffffffffffffffffffffffffffffffff16600160009054906101000a900473ffffffffffffffffffffffffffffffffffffffff1660405161222c92919061489d565b60405180910390a1600160009054906101000a900473ffffffffffffffffffffffffffffffffffffffff166000806101000a81548173ffffffffffffffffffffffffffffffffffffffff021916908373ffffffffffffffffffffffffffffffffffffffff16021790555060007fb3d55174552271a4f1aaf36b72f50381e892171636b3fb5447fe00e995e7a37b600160009054906101000a900473ffffffffffffffffffffffffffffffffffffffff16826040516122eb92919061489d565b60405180910390a180600160006101000a81548173ffffffffffffffffffffffffffffffffffffffff021916908373ffffffffffffffffffffffffffffffffffffffff16021790555050565b60008054906101000a900473ffffffffffffffffffffffffffffffffffffffff1673ffffffffffffffffffffffffffffffffffffffff163373ffffffffffffffffffffffffffffffffffffffff16146123c5576040517f08c379a00000000000000000000000000000000000000000000000000000000081526004016123bc90614d13565b60405180910390fd5b80603860006101000a81548173ffffffffffffffffffffffffffffffffffffffff021916908373ffffffffffffffffffffffffffffffffffffffff16021790555050565b60008054906101000a900473ffffffffffffffffffffffffffffffffffffffff1673ffffffffffffffffffffffffffffffffffffffff163373ffffffffffffffffffffffffffffffffffffffff1614612497576040517f08c379a000000000000000000000000000000000000000000000000000000000815260040161248e90614d13565b60405180910390fd5b7fb3d55174552271a4f1aaf36b72f50381e892171636b3fb5447fe00e995e7a37b600160009054906101000a900473ffffffffffffffffffffffffffffffffffffffff16826040516124ea92919061489d565b60405180910390a180600160006101000a81548173ffffffffffffffffffffffffffffffffffffffff021916908373ffffffffffffffffffffffffffffffffffffffff16021790555050565b600260009054906101000a900473ffffffffffffffffffffffffffffffffffffffff1681565b600080600080603660008873ffffffffffffffffffffffffffffffffffffffff1673ffffffffffffffffffffffffffffffffffffffff16815260200190815260200160002060008781526020019081526020016000209050620151808567ffffffffffffffff1682600101546125d29190614f21565b6125dc9190614ef0565b9350620186a067ffffffffffffffff16603954856125fa9190614f21565b6126049190614ef0565b915081846126129190614f7b565b925081603760008360000160009054906101000a900473ffffffffffffffffffffffffffffffffffffffff1673ffffffffffffffffffffffffffffffffffffffff1673ffffffffffffffffffffffffffffffffffffffff16815260200190815260200160002060008282546126879190614e5c565b92505081905550600073ffffffffffffffffffffffffffffffffffffffff168160000160009054906101000a900473ffffffffffffffffffffffffffffffffffffffff1673ffffffffffffffffffffffffffffffffffffffff161415612859578334101561272a576040517f08c379a000000000000000000000000000000000000000000000000000000000815260040161272190614b73565b60405180910390fd5b8673ffffffffffffffffffffffffffffffffffffffff16636352211e876040518263ffffffff1660e01b81526004016127639190614d6a565b60206040518083038186803b15801561277b57600080fd5b505afa15801561278f573d6000803e3d6000fd5b505050506040513d601f19601f820116820180604052508101906127b39190613fe2565b73ffffffffffffffffffffffffffffffffffffffff166108fc849081150290604051600060405180830381858888f193505050501580156127f8573d6000803e3d6000fd5b5083341115612854573373ffffffffffffffffffffffffffffffffffffffff166108fc85346128279190614f7b565b9081150290604051600060405180830381858888f19350505050158015612852573d6000803e3d6000fd5b505b612af2565b60008160000160009054906101000a900473ffffffffffffffffffffffffffffffffffffffff1673ffffffffffffffffffffffffffffffffffffffff166370a08231306040518263ffffffff1660e01b81526004016128b89190614867565b60206040518083038186803b1580156128d057600080fd5b505afa1580156128e4573d6000803e3d6000fd5b505050506040513d601f19601f82011682018060405250810190612908919061426c565b905061293a8260000160009054906101000a900473ffffffffffffffffffffffffffffffffffffffff163330886139f2565b60008260000160009054906101000a900473ffffffffffffffffffffffffffffffffffffffff1673ffffffffffffffffffffffffffffffffffffffff166370a08231306040518263ffffffff1660e01b81526004016129999190614867565b60206040518083038186803b1580156129b157600080fd5b505afa1580156129c5573d6000803e3d6000fd5b505050506040513d601f19601f820116820180604052508101906129e9919061426c565b90508086836129f89190614e5c565b14612a38576040517f08c379a0000000000000000000000000000000000000000000000000000000008152600401612a2f90614bb3565b60405180910390fd5b612aef8360000160009054906101000a900473ffffffffffffffffffffffffffffffffffffffff168a73ffffffffffffffffffffffffffffffffffffffff16636352211e8b6040518263ffffffff1660e01b8152600401612a999190614d6a565b60206040518083038186803b158015612ab157600080fd5b505afa158015612ac5573d6000803e3d6000fd5b505050506040513d601f19601f82011682018060405250810190612ae99190613fe2565b8761396c565b50505b5093509350939050565b612b07338a8a613549565b60008767ffffffffffffffff1611612b54576040517f08c379a0000000000000000000000000000000000000000000000000000000008152600401612b4b90614af3565b60405180910390fd5b8873ffffffffffffffffffffffffffffffffffffffff1663b49a2db96040518163ffffffff1660e01b815260040160206040518083038186803b158015612b9a57600080fd5b505afa158015612bae573d6000803e3d6000fd5b505050506040513d601f19601f82011682018060405250810190612bd2919061430d565b67ffffffffffffffff168667ffffffffffffffff161115612c28576040517f08c379a0000000000000000000000000000000000000000000000000000000008152600401612c1f90614cf3565b60405180910390fd5b8873ffffffffffffffffffffffffffffffffffffffff166301ffc9a77fe56f2fe4000000000000000000000000000000000000000000000000000000006040518263ffffffff1660e01b8152600401612c819190614a5b565b60206040518083038186803b158015612c9957600080fd5b505afa158015612cad573d6000803e3d6000fd5b505050506040513d601f19601f82011682018060405250810190612cd1919061421a565b612d10576040517f08c379a0000000000000000000000000000000000000000000000000000000008152600401612d0790614c93565b60405180910390fd5b6000808a73ffffffffffffffffffffffffffffffffffffffff1663e42e66a98b60006040518363ffffffff1660e01b8152600401612d4f929190614d85565b60606040518083038186803b158015612d6757600080fd5b505afa158015612d7b573d6000803e3d6000fd5b505050506040513d601f19601f82011682018060405250810190612d9f9190614295565b92509250508067ffffffffffffffff16828a612dbb9190614eb2565b67ffffffffffffffff161115612dda578181612dd79190614faf565b98505b603a60009054906101000a900467ffffffffffffffff1667ffffffffffffffff168967ffffffffffffffff161115612e2657603a60009054906101000a900467ffffffffffffffff1698505b60008b73ffffffffffffffffffffffffffffffffffffffff16636352211e8c6040518263ffffffff1660e01b8152600401612e619190614d6a565b60206040518083038186803b158015612e7957600080fd5b505afa158015612e8d573d6000803e3d6000fd5b505050506040513d601f19601f82011682018060405250810190612eb19190613fe2565b90506000603560008e73ffffffffffffffffffffffffffffffffffffffff1673ffffffffffffffffffffffffffffffffffffffff16815260200190815260200160002060008d81526020019081526020016000209050818160000160006101000a81548173ffffffffffffffffffffffffffffffffffffffff021916908373ffffffffffffffffffffffffffffffffffffffff1602179055508c8160010160006101000a81548173ffffffffffffffffffffffffffffffffffffffff021916908373ffffffffffffffffffffffffffffffffffffffff1602179055508b81600201819055508a8160030160006101000a81548167ffffffffffffffff021916908367ffffffffffffffff160217905550898160030160086101000a81548167ffffffffffffffff021916908367ffffffffffffffff1602179055508c73ffffffffffffffffffffffffffffffffffffffff16633d46b8198d6040518263ffffffff1660e01b81526004016130259190614d6a565b60206040518083038186803b15801561303d57600080fd5b505afa158015613051573d6000803e3d6000fd5b505050506040513d601f19601f82011682018060405250810190613075919061430d565b8160030160186101000a81548167ffffffffffffffff021916908367ffffffffffffffff160217905550428160030160106101000a81548167ffffffffffffffff021916908367ffffffffffffffff160217905550868160040160006101000a81548160ff02191690836000811115613117577f4e487b7100000000000000000000000000000000000000000000000000000000600052602160045260246000fd5b0217905550858160040160016101000a81548160ff02191690836000811115613169577f4e487b7100000000000000000000000000000000000000000000000000000000600052602160045260246000fd5b02179055507faeb169383f2ae7c2482351835d026f1a393e148c3a1b5398c1655bc120cfc16f828e8e8e8e8e8e8c8f6040516131ad9998979695949392919061498a565b60405180910390a150505050505050505050505050565b6000808473ffffffffffffffffffffffffffffffffffffffff166325cb25b06040518163ffffffff1660e01b815260040160206040518083038186803b15801561320d57600080fd5b505afa158015613221573d6000803e3d6000fd5b505050506040513d601f19601f820116820180604052508101906132459190613fe2565b90508073ffffffffffffffffffffffffffffffffffffffff166301ffc9a77fb72080fb000000000000000000000000000000000000000000000000000000006040518263ffffffff1660e01b81526004016132a09190614a5b565b60206040518083038186803b1580156132b857600080fd5b505afa1580156132cc573d6000803e3d6000fd5b505050506040513d601f19601f820116820180604052508101906132f0919061421a565b1561345b5760008173ffffffffffffffffffffffffffffffffffffffff1663cab416b46040518163ffffffff1660e01b815260040160206040518083038186803b15801561333d57600080fd5b505afa158015613351573d6000803e3d6000fd5b505050506040513d601f19601f820116820180604052508101906133759190613fe2565b905060008273ffffffffffffffffffffffffffffffffffffffff168273ffffffffffffffffffffffffffffffffffffffff16636352211e886040518263ffffffff1660e01b81526004016133c99190614d6a565b60206040518083038186803b1580156133e157600080fd5b505afa1580156133f5573d6000803e3d6000fd5b505050506040513d601f19601f820116820180604052508101906134199190613fe2565b73ffffffffffffffffffffffffffffffffffffffff16149050801561344857613443338488613549565b613454565b613453338388613549565b5b5050613467565b613466338286613549565b5b60008367ffffffffffffffff16116134b4576040517f08c379a00000000000000000000000000000000000000000000000000000000081526004016134ab90614af3565b60405180910390fd5b8473ffffffffffffffffffffffffffffffffffffffff1663a6cc2650856040518263ffffffff1660e01b81526004016134ed9190614d6a565b602060405180830381600087803b15801561350757600080fd5b505af115801561351b573d6000803e3d6000fd5b505050506040513d601f19601f8201168201806040525081019061353f919061426c565b9150509392505050565b60008273ffffffffffffffffffffffffffffffffffffffff16636352211e836040518263ffffffff1660e01b81526004016135849190614d6a565b60206040518083038186803b15801561359c57600080fd5b505afa1580156135b0573d6000803e3d6000fd5b505050506040513d601f19601f820116820180604052508101906135d49190613fe2565b90508073ffffffffffffffffffffffffffffffffffffffff168473ffffffffffffffffffffffffffffffffffffffff1614806136c357508373ffffffffffffffffffffffffffffffffffffffff168373ffffffffffffffffffffffffffffffffffffffff1663081812fc846040518263ffffffff1660e01b815260040161365b9190614d6a565b60206040518083038186803b15801561367357600080fd5b505afa158015613687573d6000803e3d6000fd5b505050506040513d601f19601f820116820180604052508101906136ab9190613fe2565b73ffffffffffffffffffffffffffffffffffffffff16145b8061375557508273ffffffffffffffffffffffffffffffffffffffff1663e985e9c582866040518363ffffffff1660e01b815260040161370492919061489d565b60206040518083038186803b15801561371c57600080fd5b505afa158015613730573d6000803e3d6000fd5b505050506040513d601f19601f82011682018060405250810190613754919061421a565b5b613794576040517f08c379a000000000000000000000000000000000000000000000000000000000815260040161378b90614b93565b60405180910390fd5b50505050565b6000600260159054906101000a900460ff16156138125760018260ff161480156137ca57506137c830613a7b565b155b613809576040517f08c379a000000000000000000000000000000000000000000000000000000000815260040161380090614b53565b60405180910390fd5b60009050613889565b8160ff16600260149054906101000a900460ff1660ff1610613869576040517f08c379a000000000000000000000000000000000000000000000000000000000815260040161386090614b53565b60405180910390fd5b81600260146101000a81548160ff021916908360ff160217905550600190505b919050565b600260159054906101000a900460ff166138dd576040517f08c379a00000000000000000000000000000000000000000000000000000000081526004016138d490614c53565b60405180910390fd5b6138e5613a9e565b565b816000806101000a81548173ffffffffffffffffffffffffffffffffffffffff021916908373ffffffffffffffffffffffffffffffffffffffff16021790555080600260006101000a81548173ffffffffffffffffffffffffffffffffffffffff021916908373ffffffffffffffffffffffffffffffffffffffff1602179055505050565b6139ed8363a9059cbb60e01b848460405160240161398b929190614a17565b604051602081830303815290604052907bffffffffffffffffffffffffffffffffffffffffffffffffffffffff19166020820180517bffffffffffffffffffffffffffffffffffffffffffffffffffffffff8381831617835250505050613af7565b505050565b613a75846323b872dd60e01b858585604051602401613a1393929190614953565b604051602081830303815290604052907bffffffffffffffffffffffffffffffffffffffffffffffffffffffff19166020820180517bffffffffffffffffffffffffffffffffffffffffffffffffffffffff8381831617835250505050613af7565b50505050565b6000808273ffffffffffffffffffffffffffffffffffffffff163b119050919050565b600260159054906101000a900460ff16613aed576040517f08c379a0000000000000000000000000000000000000000000000000000000008152600401613ae490614c53565b60405180910390fd5b6001600381905550565b6000613b59826040518060400160405280602081526020017f5361666545524332303a206c6f772d6c6576656c2063616c6c206661696c65648152508573ffffffffffffffffffffffffffffffffffffffff16613bbe9092919063ffffffff16565b9050600081511115613bb95780806020019051810190613b79919061421a565b613bb8576040517f08c379a0000000000000000000000000000000000000000000000000000000008152600401613baf90614c73565b60405180910390fd5b5b505050565b6060613bcd8484600085613bd6565b90509392505050565b606082471015613c1b576040517f08c379a0000000000000000000000000000000000000000000000000000000008152600401613c1290614b13565b60405180910390fd5b613c2485613cea565b613c63576040517f08c379a0000000000000000000000000000000000000000000000000000000008152600401613c5a90614c13565b60405180910390fd5b6000808673ffffffffffffffffffffffffffffffffffffffff168587604051613c8c9190614850565b60006040518083038185875af1925050503d8060008114613cc9576040519150601f19603f3d011682016040523d82523d6000602084013e613cce565b606091505b5091509150613cde828286613d0d565b92505050949350505050565b6000808273ffffffffffffffffffffffffffffffffffffffff163b119050919050565b60608315613d1d57829050613d6d565b600083511115613d305782518084602001fd5b816040517f08c379a0000000000000000000000000000000000000000000000000000000008152600401613d649190614a91565b60405180910390fd5b9392505050565b6040518060400160405280600073ffffffffffffffffffffffffffffffffffffffff168152602001600081525090565b604051806101200160405280600073ffffffffffffffffffffffffffffffffffffffff168152602001600073ffffffffffffffffffffffffffffffffffffffff16815260200160008152602001600067ffffffffffffffff168152602001600067ffffffffffffffff168152602001600067ffffffffffffffff168152602001600067ffffffffffffffff168152602001600080811115613e6e577f4e487b7100000000000000000000000000000000000000000000000000000000600052602160045260246000fd5b8152602001600080811115613eac577f4e487b7100000000000000000000000000000000000000000000000000000000600052602160045260246000fd5b81525090565b600081359050613ec181615606565b92915050565b600081519050613ed681615606565b92915050565b600081359050613eeb8161561d565b92915050565b60008083601f840112613f0357600080fd5b8235905067ffffffffffffffff811115613f1c57600080fd5b602083019150836020820283011115613f3457600080fd5b9250929050565b600081359050613f4a81615634565b92915050565b600081519050613f5f81615634565b92915050565b600081359050613f748161564b565b92915050565b600081519050613f898161564b565b92915050565b600081359050613f9e81615662565b92915050565b600081519050613fb381615662565b92915050565b600060208284031215613fcb57600080fd5b6000613fd984828501613eb2565b91505092915050565b600060208284031215613ff457600080fd5b600061400284828501613ec7565b91505092915050565b60006020828403121561401d57600080fd5b600061402b84828501613edc565b91505092915050565b6000806040838503121561404757600080fd5b600061405585828601613eb2565b925050602061406685828601613eb2565b9150509250929050565b6000806040838503121561408357600080fd5b600061409185828601613eb2565b92505060206140a285828601613f65565b9150509250929050565b600080600080600060a086880312156140c457600080fd5b60006140d288828901613eb2565b95505060206140e388828901613f65565b94505060406140f488828901613f65565b935050606061410588828901613f8f565b925050608061411688828901613eb2565b9150509295509295909350565b60008060008060008060c0878903121561413c57600080fd5b600061414a89828a01613eb2565b965050602061415b89828a01613f65565b955050604061416c89828a01613f8f565b945050606061417d89828a01613f8f565b935050608061418e89828a01613f65565b92505060a061419f89828a01613eb2565b9150509295509295509295565b600080602083850312156141bf57600080fd5b600083013567ffffffffffffffff8111156141d957600080fd5b6141e585828601613ef1565b92509250509250929050565b60006020828403121561420357600080fd5b600061421184828501613f3b565b91505092915050565b60006020828403121561422c57600080fd5b600061423a84828501613f50565b91505092915050565b60006020828403121561425557600080fd5b600061426384828501613f65565b91505092915050565b60006020828403121561427e57600080fd5b600061428c84828501613f7a565b91505092915050565b6000806000606084860312156142aa57600080fd5b60006142b886828701613f7a565b93505060206142c986828701613fa4565b92505060406142da86828701613fa4565b9150509250925092565b6000602082840312156142f657600080fd5b600061430484828501613f8f565b91505092915050565b60006020828403121561431f57600080fd5b600061432d84828501613fa4565b91505092915050565b6000806040838503121561434957600080fd5b600061435785828601613fa4565b925050602061436885828601613fa4565b9150509250929050565b61437b81614ff5565b82525050565b61438a81614fe3565b82525050565b61439981614fe3565b82525050565b6143a881615007565b82525050565b6143b781615013565b82525050565b60006143c882614e2a565b6143d28185614e40565b93506143e28185602086016150f8565b80840191505092915050565b6143f7816150b0565b82525050565b614406816150b0565b82525050565b614415816150c2565b82525050565b614424816150d4565b82525050565b614433816150e6565b82525050565b600061444482614e35565b61444e8185614e4b565b935061445e8185602086016150f8565b61446781615201565b840191505092915050565b600061447f600983614e4b565b915061448a82615212565b602082019050919050565b60006144a2600f83614e4b565b91506144ad8261523b565b602082019050919050565b60006144c5601383614e4b565b91506144d082615264565b602082019050919050565b60006144e8602683614e4b565b91506144f38261528d565b604082019050919050565b600061450b600b83614e4b565b9150614516826152dc565b602082019050919050565b600061452e602e83614e4b565b915061453982615305565b604082019050919050565b6000614551601583614e4b565b915061455c82615354565b602082019050919050565b6000614574601683614e4b565b915061457f8261537d565b602082019050919050565b6000614597601683614e4b565b91506145a2826153a6565b602082019050919050565b60006145ba601083614e4b565b91506145c5826153cf565b602082019050919050565b60006145dd600d83614e4b565b91506145e8826153f8565b602082019050919050565b6000614600601d83614e4b565b915061460b82615421565b602082019050919050565b6000614623600a83614e4b565b915061462e8261544a565b602082019050919050565b6000614646602b83614e4b565b915061465182615473565b604082019050919050565b6000614669602a83614e4b565b9150614674826154c2565b604082019050919050565b600061468c600983614e4b565b915061469782615511565b602082019050919050565b60006146af601683614e4b565b91506146ba8261553a565b602082019050919050565b60006146d2601f83614e4b565b91506146dd82615563565b602082019050919050565b60006146f5601783614e4b565b91506147008261558c565b602082019050919050565b6000614718600983614e4b565b9150614723826155b5565b602082019050919050565b610120820160008201516147456000850182614381565b5060208201516147586020850182614381565b50604082015161476b6040850182614814565b50606082015161477e6060850182614832565b5060808201516147916080850182614832565b5060a08201516147a460a0850182614832565b5060c08201516147b760c0850182614832565b5060e08201516147ca60e08501826143ee565b506101008201516147df61010085018261440c565b50505050565b6040820160008201516147fb6000850182614381565b50602082015161480e6020850182614814565b50505050565b61481d81615085565b82525050565b61482c81615085565b82525050565b61483b8161508f565b82525050565b61484a8161508f565b82525050565b600061485c82846143bd565b915081905092915050565b600060208201905061487c6000830184614390565b92915050565b60006020820190506148976000830184614372565b92915050565b60006040820190506148b26000830185614390565b6148bf6020830184614390565b9392505050565b6000610120820190506148dc600083018c614390565b6148e9602083018b614390565b6148f6604083018a614390565b6149036060830189614823565b6149106080830188614841565b61491d60a0830187614841565b61492a60c0830186614823565b61493760e0830185614823565b614945610100830184614390565b9a9950505050505050505050565b60006060820190506149686000830186614390565b6149756020830185614390565b6149826040830184614823565b949350505050565b6000610120820190506149a0600083018c614390565b6149ad602083018b614390565b6149ba604083018a614823565b6149c76060830189614841565b6149d46080830188614841565b6149e160a0830187614823565b6149ee60c0830186614390565b6149fb60e0830185614390565b614a096101008301846143fd565b9a9950505050505050505050565b6000604082019050614a2c6000830185614390565b614a396020830184614823565b9392505050565b6000602082019050614a55600083018461439f565b92915050565b6000602082019050614a7060008301846143ae565b92915050565b6000602082019050614a8b600083018461442a565b92915050565b60006020820190508181036000830152614aab8184614439565b905092915050565b60006020820190508181036000830152614acc81614472565b9050919050565b60006020820190508181036000830152614aec81614495565b9050919050565b60006020820190508181036000830152614b0c816144b8565b9050919050565b60006020820190508181036000830152614b2c816144db565b9050919050565b60006020820190508181036000830152614b4c816144fe565b9050919050565b60006020820190508181036000830152614b6c81614521565b9050919050565b60006020820190508181036000830152614b8c81614544565b9050919050565b60006020820190508181036000830152614bac81614567565b9050919050565b60006020820190508181036000830152614bcc8161458a565b9050919050565b60006020820190508181036000830152614bec816145ad565b9050919050565b60006020820190508181036000830152614c0c816145d0565b9050919050565b60006020820190508181036000830152614c2c816145f3565b9050919050565b60006020820190508181036000830152614c4c81614616565b9050919050565b60006020820190508181036000830152614c6c81614639565b9050919050565b60006020820190508181036000830152614c8c8161465c565b9050919050565b60006020820190508181036000830152614cac8161467f565b9050919050565b60006020820190508181036000830152614ccc816146a2565b9050919050565b60006020820190508181036000830152614cec816146c5565b9050919050565b60006020820190508181036000830152614d0c816146e8565b9050919050565b60006020820190508181036000830152614d2c8161470b565b9050919050565b600061012082019050614d49600083018461472e565b92915050565b6000604082019050614d6460008301846147e5565b92915050565b6000602082019050614d7f6000830184614823565b92915050565b6000604082019050614d9a6000830185614823565b614da7602083018461441b565b9392505050565b600060c082019050614dc36000830189614823565b614dd06020830188614823565b614ddd6040830187614841565b614dea6060830186614841565b614df76080830185614390565b614e0460a0830184614390565b979650505050505050565b6000602082019050614e246000830184614841565b92915050565b600081519050919050565b600081519050919050565b600081905092915050565b600082825260208201905092915050565b6000614e6782615085565b9150614e7283615085565b9250827fffffffffffffffffffffffffffffffffffffffffffffffffffffffffffffffff03821115614ea757614ea6615174565b5b828201905092915050565b6000614ebd8261508f565b9150614ec88361508f565b92508267ffffffffffffffff03821115614ee557614ee4615174565b5b828201905092915050565b6000614efb82615085565b9150614f0683615085565b925082614f1657614f156151a3565b5b828204905092915050565b6000614f2c82615085565b9150614f3783615085565b9250817fffffffffffffffffffffffffffffffffffffffffffffffffffffffffffffffff0483118215151615614f7057614f6f615174565b5b828202905092915050565b6000614f8682615085565b9150614f9183615085565b925082821015614fa457614fa3615174565b5b828203905092915050565b6000614fba8261508f565b9150614fc58361508f565b925082821015614fd857614fd7615174565b5b828203905092915050565b6000614fee82615065565b9050919050565b600061500082615065565b9050919050565b60008115159050919050565b60007fffffffff0000000000000000000000000000000000000000000000000000000082169050919050565b600081905061504d826155de565b919050565b6000819050615060826155f2565b919050565b600073ffffffffffffffffffffffffffffffffffffffff82169050919050565b6000819050919050565b600067ffffffffffffffff82169050919050565b600060ff82169050919050565b60006150bb8261503f565b9050919050565b60006150cd82615052565b9050919050565b60006150df82615085565b9050919050565b60006150f1826150a3565b9050919050565b60005b838110156151165780820151818401526020810190506150fb565b83811115615125576000848401525b50505050565b600061513682615085565b91507fffffffffffffffffffffffffffffffffffffffffffffffffffffffffffffffff82141561516957615168615174565b5b600182019050919050565b7f4e487b7100000000000000000000000000000000000000000000000000000000600052601160045260246000fd5b7f4e487b7100000000000000000000000000000000000000000000000000000000600052601260045260246000fd5b7f4e487b7100000000000000000000000000000000000000000000000000000000600052602160045260246000fd5b6000601f19601f8301169050919050565b7f6f6e6c7941646d696e0000000000000000000000000000000000000000000000600082015250565b7f6e6f742062656e65666963696172790000000000000000000000000000000000600082015250565b7f696e76616c6964206d61784475726174696f6e00000000000000000000000000600082015250565b7f416464726573733a20696e73756666696369656e742062616c616e636520666f60008201527f722063616c6c0000000000000000000000000000000000000000000000000000602082015250565b7f696e76616c696420666565000000000000000000000000000000000000000000600082015250565b7f496e697469616c697a61626c653a20636f6e747261637420697320616c72656160008201527f647920696e697469616c697a6564000000000000000000000000000000000000602082015250565b7f7061796d656e74206973206e6f7420656e6f7567680000000000000000000000600082015250565b7f6f6e6c7920617070726f766564206f72206f776e657200000000000000000000600082015250565b7f6e6f7420737570706f7274206275726e20455243323000000000000000000000600082015250565b7f6f6e6c7950656e64696e674f776e657200000000000000000000000000000000600082015250565b7f696e76616c6964206f7264657200000000000000000000000000000000000000600082015250565b7f416464726573733a2063616c6c20746f206e6f6e2d636f6e7472616374000000600082015250565b7f69732070617573696e6700000000000000000000000000000000000000000000600082015250565b7f496e697469616c697a61626c653a20636f6e7472616374206973206e6f74206960008201527f6e697469616c697a696e67000000000000000000000000000000000000000000602082015250565b7f5361666545524332303a204552433230206f7065726174696f6e20646964206e60008201527f6f74207375636365656400000000000000000000000000000000000000000000602082015250565b7f6e6f7420646f4e46540000000000000000000000000000000000000000000000600082015250565b7f6475726174696f6e203c206d696e4475726174696f6e00000000000000000000600082015250565b7f5265656e7472616e637947756172643a207265656e7472616e742063616c6c00600082015250565b7f4572726f723a6d696e4475726174696f6e203e206d6178000000000000000000600082015250565b7f6f6e6c794f776e65720000000000000000000000000000000000000000000000600082015250565b600181106155ef576155ee6151d2565b5b50565b60018110615603576156026151d2565b5b50565b61560f81614fe3565b811461561a57600080fd5b50565b61562681614ff5565b811461563157600080fd5b50565b61563d81615007565b811461564857600080fd5b50565b61565481615085565b811461565f57600080fd5b50565b61566b8161508f565b811461567657600080fd5b5056fea264697066735822122076e4951e14c4b6a33d087ff16c622866f628cfacc556428d2201f57e7f9b0fe064736f6c63430008040033",
  "linkReferences": {},
  "deployedLinkReferences": {}
}