{
  "_format": "hh-sol-artifact-1",
  "contractName": "TestERC4907",
  "sourceName": "contracts/Double/dualRoles/TestERC4907.sol",
  "abi": [
    {
      "inputs": [],
      "stateMutability": "nonpayable",
      "type": "constructor"
    },
    {
      "anonymous": false,
      "inputs": [
        {
          "indexed": true,
          "internalType": "address",
          "name": "owner",
          "type": "address"
        },
        {
          "indexed": true,
          "internalType": "address",
          "name": "approved",
          "type": "address"
        },
        {
          "indexed": true,
          "internalType": "uint256",
          "name": "tokenId",
          "type": "uint256"
        }
      ],
      "name": "Approval",
      "type": "event"
    },
    {
      "anonymous": false,
      "inputs": [
        {
          "indexed": true,
          "internalType": "address",
          "name": "owner",
          "type": "address"
        },
        {
          "indexed": true,
          "internalType": "address",
          "name": "operator",
          "type": "address"
        },
        {
          "indexed": false,
          "internalType": "bool",
          "name": "approved",
          "type": "bool"
        }
      ],
      "name": "ApprovalForAll",
      "type": "event"
    },
    {
      "anonymous": false,
      "inputs": [
        {
          "indexed": true,
          "internalType": "address",
          "name": "from",
          "type": "address"
        },
        {
          "indexed": true,
          "internalType": "address",
          "name": "to",
          "type": "address"
        },
        {
          "indexed": true,
          "internalType": "uint256",
          "name": "tokenId",
          "type": "uint256"
        }
      ],
      "name": "Transfer",
      "type": "event"
    },
    {
      "anonymous": false,
      "inputs": [
        {
          "indexed": true,
          "internalType": "uint256",
          "name": "tokenId",
          "type": "uint256"
        },
        {
          "indexed": true,
          "internalType": "address",
          "name": "user",
          "type": "address"
        },
        {
          "indexed": false,
          "internalType": "uint64",
          "name": "expires",
          "type": "uint64"
        }
      ],
      "name": "UpdateUser",
      "type": "event"
    },
    {
      "inputs": [
        {
          "internalType": "address",
          "name": "to",
          "type": "address"
        },
        {
          "internalType": "uint256",
          "name": "tokenId",
          "type": "uint256"
        }
      ],
      "name": "approve",
      "outputs": [],
      "stateMutability": "nonpayable",
      "type": "function"
    },
    {
      "inputs": [
        {
          "internalType": "address",
          "name": "owner",
          "type": "address"
        }
      ],
      "name": "balanceOf",
      "outputs": [
        {
          "internalType": "uint256",
          "name": "",
          "type": "uint256"
        }
      ],
      "stateMutability": "view",
      "type": "function"
    },
    {
      "inputs": [
        {
          "internalType": "uint256",
          "name": "tokenId",
          "type": "uint256"
        }
      ],
      "name": "getApproved",
      "outputs": [
        {
          "internalType": "address",
          "name": "",
          "type": "address"
        }
      ],
      "stateMutability": "view",
      "type": "function"
    },
    {
      "inputs": [
        {
          "internalType": "address",
          "name": "owner",
          "type": "address"
        },
        {
          "internalType": "address",
          "name": "operator",
          "type": "address"
        }
      ],
      "name": "isApprovedForAll",
      "outputs": [
        {
          "internalType": "bool",
          "name": "",
          "type": "bool"
        }
      ],
      "stateMutability": "view",
      "type": "function"
    },
    {
      "inputs": [
        {
          "internalType": "address",
          "name": "to",
          "type": "address"
        },
        {
          "internalType": "uint256",
          "name": "tokenId",
          "type": "uint256"
        }
      ],
      "name": "mint",
      "outputs": [],
      "stateMutability": "nonpayable",
      "type": "function"
    },
    {
      "inputs": [],
      "name": "name",
      "outputs": [
        {
          "internalType": "string",
          "name": "",
          "type": "string"
        }
      ],
      "stateMutability": "view",
      "type": "function"
    },
    {
      "inputs": [
        {
          "internalType": "uint256",
          "name": "tokenId",
          "type": "uint256"
        }
      ],
      "name": "ownerOf",
      "outputs": [
        {
          "internalType": "address",
          "name": "",
          "type": "address"
        }
      ],
      "stateMutability": "view",
      "type": "function"
    },
    {
      "inputs": [
        {
          "internalType": "address",
          "name": "from",
          "type": "address"
        },
        {
          "internalType": "address",
          "name": "to",
          "type": "address"
        },
        {
          "internalType": "uint256",
          "name": "tokenId",
          "type": "uint256"
        }
      ],
      "name": "safeTransferFrom",
      "outputs": [],
      "stateMutability": "nonpayable",
      "type": "function"
    },
    {
      "inputs": [
        {
          "internalType": "address",
          "name": "from",
          "type": "address"
        },
        {
          "internalType": "address",
          "name": "to",
          "type": "address"
        },
        {
          "internalType": "uint256",
          "name": "tokenId",
          "type": "uint256"
        },
        {
          "internalType": "bytes",
          "name": "_data",
          "type": "bytes"
        }
      ],
      "name": "safeTransferFrom",
      "outputs": [],
      "stateMutability": "nonpayable",
      "type": "function"
    },
    {
      "inputs": [
        {
          "internalType": "address",
          "name": "operator",
          "type": "address"
        },
        {
          "internalType": "bool",
          "name": "approved",
          "type": "bool"
        }
      ],
      "name": "setApprovalForAll",
      "outputs": [],
      "stateMutability": "nonpayable",
      "type": "function"
    },
    {
      "inputs": [
        {
          "internalType": "uint256",
          "name": "tokenId",
          "type": "uint256"
        },
        {
          "internalType": "address",
          "name": "user",
          "type": "address"
        },
        {
          "internalType": "uint64",
          "name": "expires",
          "type": "uint64"
        }
      ],
      "name": "setUser",
      "outputs": [],
      "stateMutability": "nonpayable",
      "type": "function"
    },
    {
      "inputs": [
        {
          "internalType": "bytes4",
          "name": "interfaceId",
          "type": "bytes4"
        }
      ],
      "name": "supportsInterface",
      "outputs": [
        {
          "internalType": "bool",
          "name": "",
          "type": "bool"
        }
      ],
      "stateMutability": "view",
      "type": "function"
    },
    {
      "inputs": [],
      "name": "symbol",
      "outputs": [
        {
          "internalType": "string",
          "name": "",
          "type": "string"
        }
      ],
      "stateMutability": "view",
      "type": "function"
    },
    {
      "inputs": [
        {
          "internalType": "uint256",
          "name": "tokenId",
          "type": "uint256"
        }
      ],
      "name": "tokenURI",
      "outputs": [
        {
          "internalType": "string",
          "name": "",
          "type": "string"
        }
      ],
      "stateMutability": "view",
      "type": "function"
    },
    {
      "inputs": [
        {
          "internalType": "address",
          "name": "from",
          "type": "address"
        },
        {
          "internalType": "address",
          "name": "to",
          "type": "address"
        },
        {
          "internalType": "uint256",
          "name": "tokenId",
          "type": "uint256"
        }
      ],
      "name": "transferFrom",
      "outputs": [],
      "stateMutability": "nonpayable",
      "type": "function"
    },
    {
      "inputs": [
        {
          "internalType": "uint256",
          "name": "tokenId",
          "type": "uint256"
        }
      ],
      "name": "userExpires",
      "outputs": [
        {
          "internalType": "uint256",
          "name": "",
          "type": "uint256"
        }
      ],
      "stateMutability": "view",
      "type": "function"
    },
    {
      "inputs": [
        {
          "internalType": "uint256",
          "name": "tokenId",
          "type": "uint256"
        }
      ],
      "name": "userOf",
      "outputs": [
        {
          "internalType": "address",
          "name": "",
          "type": "address"
        }
      ],
      "stateMutability": "view",
      "type": "function"
    }
  ],
  "bytecode": "0x60806040523480156200001157600080fd5b506040518060400160405280600b81526020017f54657374455243343930370000000000000000000000000000000000000000008152506040518060400160405280600b81526020017f54657374455243343930370000000000000000000000000000000000000000008152508181816000908051906020019062000098929190620000bc565b508060019080519060200190620000b1929190620000bc565b5050505050620001d1565b828054620000ca906200016c565b90600052602060002090601f016020900481019282620000ee57600085556200013a565b82601f106200010957805160ff19168380011785556200013a565b828001600101855582156200013a579182015b82811115620001395782518255916020019190600101906200011c565b5b5090506200014991906200014d565b5090565b5b80821115620001685760008160009055506001016200014e565b5090565b600060028204905060018216806200018557607f821691505b602082108114156200019c576200019b620001a2565b5b50919050565b7f4e487b7100000000000000000000000000000000000000000000000000000000600052602260045260246000fd5b612bd980620001e16000396000f3fe608060405234801561001057600080fd5b506004361061010b5760003560e01c806370a08231116100a2578063b88d4fde11610071578063b88d4fde146102c8578063c2f1f14a146102e4578063c87b56dd14610314578063e030565e14610344578063e985e9c5146103605761010b565b806370a082311461022e5780638fc88c481461025e57806395d89b411461028e578063a22cb465146102ac5761010b565b806323b872dd116100de57806323b872dd146101aa57806340c10f19146101c657806342842e0e146101e25780636352211e146101fe5761010b565b806301ffc9a71461011057806306fdde0314610140578063081812fc1461015e578063095ea7b31461018e575b600080fd5b61012a60048036038101906101259190611cfb565b610390565b6040516101379190612128565b60405180910390f35b61014861040a565b604051610155919061215e565b60405180910390f35b61017860048036038101906101739190611d4d565b61049c565b60405161018591906120c1565b60405180910390f35b6101a860048036038101906101a39190611cbf565b610521565b005b6101c460048036038101906101bf9190611bb9565b610639565b005b6101e060048036038101906101db9190611cbf565b610699565b005b6101fc60048036038101906101f79190611bb9565b6106a7565b005b61021860048036038101906102139190611d4d565b6106c7565b60405161022591906120c1565b60405180910390f35b61024860048036038101906102439190611b54565b610779565b6040516102559190612340565b60405180910390f35b61027860048036038101906102739190611d4d565b610831565b6040516102859190612340565b60405180910390f35b61029661086f565b6040516102a3919061215e565b60405180910390f35b6102c660048036038101906102c19190611c83565b610901565b005b6102e260048036038101906102dd9190611c08565b610917565b005b6102fe60048036038101906102f99190611d4d565b610979565b60405161030b91906120c1565b60405180910390f35b61032e60048036038101906103299190611d4d565b6109fe565b60405161033b919061215e565b60405180910390f35b61035e60048036038101906103599190611d76565b610aa5565b005b61037a60048036038101906103759190611b7d565b610bc8565b6040516103879190612128565b60405180910390f35b60007fad092b5c000000000000000000000000000000000000000000000000000000007bffffffffffffffffffffffffffffffffffffffffffffffffffffffff1916827bffffffffffffffffffffffffffffffffffffffffffffffffffffffff19161480610403575061040282610c5c565b5b9050919050565b606060008054610419906125a6565b80601f0160208091040260200160405190810160405280929190818152602001828054610445906125a6565b80156104925780601f1061046757610100808354040283529160200191610492565b820191906000526020600020905b81548152906001019060200180831161047557829003601f168201915b5050505050905090565b60006104a782610d3e565b6104e6576040517f08c379a00000000000000000000000000000000000000000000000000000000081526004016104dd906122c0565b60405180910390fd5b6004600083815260200190815260200160002060009054906101000a900473ffffffffffffffffffffffffffffffffffffffff169050919050565b600061052c826106c7565b90508073ffffffffffffffffffffffffffffffffffffffff168373ffffffffffffffffffffffffffffffffffffffff16141561059d576040517f08c379a000000000000000000000000000000000000000000000000000000000815260040161059490612300565b60405180910390fd5b8073ffffffffffffffffffffffffffffffffffffffff166105bc610daa565b73ffffffffffffffffffffffffffffffffffffffff1614806105eb57506105ea816105e5610daa565b610bc8565b5b61062a576040517f08c379a000000000000000000000000000000000000000000000000000000000815260040161062190612240565b60405180910390fd5b6106348383610db2565b505050565b61064a610644610daa565b82610e6b565b610689576040517f08c379a000000000000000000000000000000000000000000000000000000000815260040161068090612320565b60405180910390fd5b610694838383610f49565b505050565b6106a382826111b0565b5050565b6106c283838360405180602001604052806000815250610917565b505050565b6000806002600084815260200190815260200160002060009054906101000a900473ffffffffffffffffffffffffffffffffffffffff169050600073ffffffffffffffffffffffffffffffffffffffff168173ffffffffffffffffffffffffffffffffffffffff161415610770576040517f08c379a000000000000000000000000000000000000000000000000000000000815260040161076790612280565b60405180910390fd5b80915050919050565b60008073ffffffffffffffffffffffffffffffffffffffff168273ffffffffffffffffffffffffffffffffffffffff1614156107ea576040517f08c379a00000000000000000000000000000000000000000000000000000000081526004016107e190612260565b60405180910390fd5b600360008373ffffffffffffffffffffffffffffffffffffffff1673ffffffffffffffffffffffffffffffffffffffff168152602001908152602001600020549050919050565b60006006600083815260200190815260200160002060000160149054906101000a900467ffffffffffffffff1667ffffffffffffffff169050919050565b60606001805461087e906125a6565b80601f01602080910402602001604051908101604052809291908181526020018280546108aa906125a6565b80156108f75780601f106108cc576101008083540402835291602001916108f7565b820191906000526020600020905b8154815290600101906020018083116108da57829003601f168201915b5050505050905090565b61091361090c610daa565b838361138a565b5050565b610928610922610daa565b83610e6b565b610967576040517f08c379a000000000000000000000000000000000000000000000000000000000815260040161095e90612320565b60405180910390fd5b610973848484846114f7565b50505050565b6000426006600084815260200190815260200160002060000160149054906101000a900467ffffffffffffffff1667ffffffffffffffff16106109f4576006600083815260200190815260200160002060000160009054906101000a900473ffffffffffffffffffffffffffffffffffffffff1690506109f9565b600090505b919050565b6060610a0982610d3e565b610a48576040517f08c379a0000000000000000000000000000000000000000000000000000000008152600401610a3f906122e0565b60405180910390fd5b6000610a52611553565b90506000815111610a725760405180602001604052806000815250610a9d565b80610a7c8461156a565b604051602001610a8d92919061209d565b6040516020818303038152906040525b915050919050565b610aaf3384610e6b565b610aee576040517f08c379a0000000000000000000000000000000000000000000000000000000008152600401610ae590612320565b60405180910390fd5b6000600660008581526020019081526020016000209050828160000160006101000a81548173ffffffffffffffffffffffffffffffffffffffff021916908373ffffffffffffffffffffffffffffffffffffffff160217905550818160000160146101000a81548167ffffffffffffffff021916908367ffffffffffffffff1602179055508273ffffffffffffffffffffffffffffffffffffffff16847f4e06b4e7000e659094299b3533b47b6aa8ad048e95e872d23d1f4ee55af89cfe84604051610bba919061235b565b60405180910390a350505050565b6000600560008473ffffffffffffffffffffffffffffffffffffffff1673ffffffffffffffffffffffffffffffffffffffff16815260200190815260200160002060008373ffffffffffffffffffffffffffffffffffffffff1673ffffffffffffffffffffffffffffffffffffffff16815260200190815260200160002060009054906101000a900460ff16905092915050565b60007f80ac58cd000000000000000000000000000000000000000000000000000000007bffffffffffffffffffffffffffffffffffffffffffffffffffffffff1916827bffffffffffffffffffffffffffffffffffffffffffffffffffffffff19161480610d2757507f5b5e139f000000000000000000000000000000000000000000000000000000007bffffffffffffffffffffffffffffffffffffffffffffffffffffffff1916827bffffffffffffffffffffffffffffffffffffffffffffffffffffffff1916145b80610d375750610d3682611717565b5b9050919050565b60008073ffffffffffffffffffffffffffffffffffffffff166002600084815260200190815260200160002060009054906101000a900473ffffffffffffffffffffffffffffffffffffffff1673ffffffffffffffffffffffffffffffffffffffff1614159050919050565b600033905090565b816004600083815260200190815260200160002060006101000a81548173ffffffffffffffffffffffffffffffffffffffff021916908373ffffffffffffffffffffffffffffffffffffffff160217905550808273ffffffffffffffffffffffffffffffffffffffff16610e25836106c7565b73ffffffffffffffffffffffffffffffffffffffff167f8c5be1e5ebec7d5bd14f71427d1e84f3dd0314c0f7b2291e5b200ac8c7c3b92560405160405180910390a45050565b6000610e7682610d3e565b610eb5576040517f08c379a0000000000000000000000000000000000000000000000000000000008152600401610eac90612220565b60405180910390fd5b6000610ec0836106c7565b90508073ffffffffffffffffffffffffffffffffffffffff168473ffffffffffffffffffffffffffffffffffffffff161480610f025750610f018185610bc8565b5b80610f4057508373ffffffffffffffffffffffffffffffffffffffff16610f288461049c565b73ffffffffffffffffffffffffffffffffffffffff16145b91505092915050565b8273ffffffffffffffffffffffffffffffffffffffff16610f69826106c7565b73ffffffffffffffffffffffffffffffffffffffff1614610fbf576040517f08c379a0000000000000000000000000000000000000000000000000000000008152600401610fb6906121a0565b60405180910390fd5b600073ffffffffffffffffffffffffffffffffffffffff168273ffffffffffffffffffffffffffffffffffffffff16141561102f576040517f08c379a0000000000000000000000000000000000000000000000000000000008152600401611026906121e0565b60405180910390fd5b61103a838383611781565b611045600082610db2565b6001600360008573ffffffffffffffffffffffffffffffffffffffff1673ffffffffffffffffffffffffffffffffffffffff16815260200190815260200160002060008282546110959190612496565b925050819055506001600360008473ffffffffffffffffffffffffffffffffffffffff1673ffffffffffffffffffffffffffffffffffffffff16815260200190815260200160002060008282546110ec919061240f565b92505081905550816002600083815260200190815260200160002060006101000a81548173ffffffffffffffffffffffffffffffffffffffff021916908373ffffffffffffffffffffffffffffffffffffffff160217905550808273ffffffffffffffffffffffffffffffffffffffff168473ffffffffffffffffffffffffffffffffffffffff167fddf252ad1be2c89b69c2b068fc378daa952ba7f163c4a11628f55a4df523b3ef60405160405180910390a46111ab8383836118aa565b505050565b600073ffffffffffffffffffffffffffffffffffffffff168273ffffffffffffffffffffffffffffffffffffffff161415611220576040517f08c379a0000000000000000000000000000000000000000000000000000000008152600401611217906122a0565b60405180910390fd5b61122981610d3e565b15611269576040517f08c379a0000000000000000000000000000000000000000000000000000000008152600401611260906121c0565b60405180910390fd5b61127560008383611781565b6001600360008473ffffffffffffffffffffffffffffffffffffffff1673ffffffffffffffffffffffffffffffffffffffff16815260200190815260200160002060008282546112c5919061240f565b92505081905550816002600083815260200190815260200160002060006101000a81548173ffffffffffffffffffffffffffffffffffffffff021916908373ffffffffffffffffffffffffffffffffffffffff160217905550808273ffffffffffffffffffffffffffffffffffffffff16600073ffffffffffffffffffffffffffffffffffffffff167fddf252ad1be2c89b69c2b068fc378daa952ba7f163c4a11628f55a4df523b3ef60405160405180910390a4611386600083836118aa565b5050565b8173ffffffffffffffffffffffffffffffffffffffff168373ffffffffffffffffffffffffffffffffffffffff1614156113f9576040517f08c379a00000000000000000000000000000000000000000000000000000000081526004016113f090612200565b60405180910390fd5b80600560008573ffffffffffffffffffffffffffffffffffffffff1673ffffffffffffffffffffffffffffffffffffffff16815260200190815260200160002060008473ffffffffffffffffffffffffffffffffffffffff1673ffffffffffffffffffffffffffffffffffffffff16815260200190815260200160002060006101000a81548160ff0219169083151502179055508173ffffffffffffffffffffffffffffffffffffffff168373ffffffffffffffffffffffffffffffffffffffff167f17307eab39ab6107e8899845ad3d59bd9653f200f220920489ca2b5937696c31836040516114ea9190612128565b60405180910390a3505050565b611502848484610f49565b61150e848484846118af565b61154d576040517f08c379a000000000000000000000000000000000000000000000000000000000815260040161154490612180565b60405180910390fd5b50505050565b606060405180602001604052806000815250905090565b606060008214156115b2576040518060400160405280600181526020017f30000000000000000000000000000000000000000000000000000000000000008152509050611712565b600082905060005b600082146115e45780806115cd90612609565b915050600a826115dd9190612465565b91506115ba565b60008167ffffffffffffffff811115611626577f4e487b7100000000000000000000000000000000000000000000000000000000600052604160045260246000fd5b6040519080825280601f01601f1916602001820160405280156116585781602001600182028036833780820191505090505b5090505b6000851461170b576001826116719190612496565b9150600a856116809190612652565b603061168c919061240f565b60f81b8183815181106116c8577f4e487b7100000000000000000000000000000000000000000000000000000000600052603260045260246000fd5b60200101907effffffffffffffffffffffffffffffffffffffffffffffffffffffffffffff1916908160001a905350600a856117049190612465565b945061165c565b8093505050505b919050565b60007f01ffc9a7000000000000000000000000000000000000000000000000000000007bffffffffffffffffffffffffffffffffffffffffffffffffffffffff1916827bffffffffffffffffffffffffffffffffffffffffffffffffffffffff1916149050919050565b61178c838383611a46565b8173ffffffffffffffffffffffffffffffffffffffff168373ffffffffffffffffffffffffffffffffffffffff16146118a55760006006600083815260200190815260200160002060000160006101000a81548173ffffffffffffffffffffffffffffffffffffffff021916908373ffffffffffffffffffffffffffffffffffffffff16021790555060006006600083815260200190815260200160002060000160146101000a81548167ffffffffffffffff021916908367ffffffffffffffff160217905550600073ffffffffffffffffffffffffffffffffffffffff16817f4e06b4e7000e659094299b3533b47b6aa8ad048e95e872d23d1f4ee55af89cfe600060405161189c9190612143565b60405180910390a35b505050565b505050565b60006118d08473ffffffffffffffffffffffffffffffffffffffff16611a4b565b15611a39578373ffffffffffffffffffffffffffffffffffffffff1663150b7a026118f9610daa565b8786866040518563ffffffff1660e01b815260040161191b94939291906120dc565b602060405180830381600087803b15801561193557600080fd5b505af192505050801561196657506040513d601f19601f820116820180604052508101906119639190611d24565b60015b6119e9573d8060008114611996576040519150601f19603f3d011682016040523d82523d6000602084013e61199b565b606091505b506000815114156119e1576040517f08c379a00000000000000000000000000000000000000000000000000000000081526004016119d890612180565b60405180910390fd5b805181602001fd5b63150b7a0260e01b7bffffffffffffffffffffffffffffffffffffffffffffffffffffffff1916817bffffffffffffffffffffffffffffffffffffffffffffffffffffffff191614915050611a3e565b600190505b949350505050565b505050565b6000808273ffffffffffffffffffffffffffffffffffffffff163b119050919050565b6000611a81611a7c8461239b565b612376565b905082815260208101848484011115611a9957600080fd5b611aa4848285612564565b509392505050565b600081359050611abb81612b30565b92915050565b600081359050611ad081612b47565b92915050565b600081359050611ae581612b5e565b92915050565b600081519050611afa81612b5e565b92915050565b600082601f830112611b1157600080fd5b8135611b21848260208601611a6e565b91505092915050565b600081359050611b3981612b75565b92915050565b600081359050611b4e81612b8c565b92915050565b600060208284031215611b6657600080fd5b6000611b7484828501611aac565b91505092915050565b60008060408385031215611b9057600080fd5b6000611b9e85828601611aac565b9250506020611baf85828601611aac565b9150509250929050565b600080600060608486031215611bce57600080fd5b6000611bdc86828701611aac565b9350506020611bed86828701611aac565b9250506040611bfe86828701611b2a565b9150509250925092565b60008060008060808587031215611c1e57600080fd5b6000611c2c87828801611aac565b9450506020611c3d87828801611aac565b9350506040611c4e87828801611b2a565b925050606085013567ffffffffffffffff811115611c6b57600080fd5b611c7787828801611b00565b91505092959194509250565b60008060408385031215611c9657600080fd5b6000611ca485828601611aac565b9250506020611cb585828601611ac1565b9150509250929050565b60008060408385031215611cd257600080fd5b6000611ce085828601611aac565b9250506020611cf185828601611b2a565b9150509250929050565b600060208284031215611d0d57600080fd5b6000611d1b84828501611ad6565b91505092915050565b600060208284031215611d3657600080fd5b6000611d4484828501611aeb565b91505092915050565b600060208284031215611d5f57600080fd5b6000611d6d84828501611b2a565b91505092915050565b600080600060608486031215611d8b57600080fd5b6000611d9986828701611b2a565b9350506020611daa86828701611aac565b9250506040611dbb86828701611b3f565b9150509250925092565b611dce816124ca565b82525050565b611ddd816124dc565b82525050565b6000611dee826123cc565b611df881856123e2565b9350611e08818560208601612573565b611e118161273f565b840191505092915050565b611e2581612552565b82525050565b6000611e36826123d7565b611e4081856123f3565b9350611e50818560208601612573565b611e598161273f565b840191505092915050565b6000611e6f826123d7565b611e798185612404565b9350611e89818560208601612573565b80840191505092915050565b6000611ea26032836123f3565b9150611ead82612750565b604082019050919050565b6000611ec56025836123f3565b9150611ed08261279f565b604082019050919050565b6000611ee8601c836123f3565b9150611ef3826127ee565b602082019050919050565b6000611f0b6024836123f3565b9150611f1682612817565b604082019050919050565b6000611f2e6019836123f3565b9150611f3982612866565b602082019050919050565b6000611f51602c836123f3565b9150611f5c8261288f565b604082019050919050565b6000611f746038836123f3565b9150611f7f826128de565b604082019050919050565b6000611f97602a836123f3565b9150611fa28261292d565b604082019050919050565b6000611fba6029836123f3565b9150611fc58261297c565b604082019050919050565b6000611fdd6020836123f3565b9150611fe8826129cb565b602082019050919050565b6000612000602c836123f3565b915061200b826129f4565b604082019050919050565b6000612023602f836123f3565b915061202e82612a43565b604082019050919050565b60006120466021836123f3565b915061205182612a92565b604082019050919050565b60006120696031836123f3565b915061207482612ae1565b604082019050919050565b61208881612534565b82525050565b6120978161253e565b82525050565b60006120a98285611e64565b91506120b58284611e64565b91508190509392505050565b60006020820190506120d66000830184611dc5565b92915050565b60006080820190506120f16000830187611dc5565b6120fe6020830186611dc5565b61210b604083018561207f565b818103606083015261211d8184611de3565b905095945050505050565b600060208201905061213d6000830184611dd4565b92915050565b60006020820190506121586000830184611e1c565b92915050565b600060208201905081810360008301526121788184611e2b565b905092915050565b6000602082019050818103600083015261219981611e95565b9050919050565b600060208201905081810360008301526121b981611eb8565b9050919050565b600060208201905081810360008301526121d981611edb565b9050919050565b600060208201905081810360008301526121f981611efe565b9050919050565b6000602082019050818103600083015261221981611f21565b9050919050565b6000602082019050818103600083015261223981611f44565b9050919050565b6000602082019050818103600083015261225981611f67565b9050919050565b6000602082019050818103600083015261227981611f8a565b9050919050565b6000602082019050818103600083015261229981611fad565b9050919050565b600060208201905081810360008301526122b981611fd0565b9050919050565b600060208201905081810360008301526122d981611ff3565b9050919050565b600060208201905081810360008301526122f981612016565b9050919050565b6000602082019050818103600083015261231981612039565b9050919050565b600060208201905081810360008301526123398161205c565b9050919050565b6000602082019050612355600083018461207f565b92915050565b6000602082019050612370600083018461208e565b92915050565b6000612380612391565b905061238c82826125d8565b919050565b6000604051905090565b600067ffffffffffffffff8211156123b6576123b5612710565b5b6123bf8261273f565b9050602081019050919050565b600081519050919050565b600081519050919050565b600082825260208201905092915050565b600082825260208201905092915050565b600081905092915050565b600061241a82612534565b915061242583612534565b9250827fffffffffffffffffffffffffffffffffffffffffffffffffffffffffffffffff0382111561245a57612459612683565b5b828201905092915050565b600061247082612534565b915061247b83612534565b92508261248b5761248a6126b2565b5b828204905092915050565b60006124a182612534565b91506124ac83612534565b9250828210156124bf576124be612683565b5b828203905092915050565b60006124d582612514565b9050919050565b60008115159050919050565b60007fffffffff0000000000000000000000000000000000000000000000000000000082169050919050565b600073ffffffffffffffffffffffffffffffffffffffff82169050919050565b6000819050919050565b600067ffffffffffffffff82169050919050565b600061255d8261253e565b9050919050565b82818337600083830152505050565b60005b83811015612591578082015181840152602081019050612576565b838111156125a0576000848401525b50505050565b600060028204905060018216806125be57607f821691505b602082108114156125d2576125d16126e1565b5b50919050565b6125e18261273f565b810181811067ffffffffffffffff82111715612600576125ff612710565b5b80604052505050565b600061261482612534565b91507fffffffffffffffffffffffffffffffffffffffffffffffffffffffffffffffff82141561264757612646612683565b5b600182019050919050565b600061265d82612534565b915061266883612534565b925082612678576126776126b2565b5b828206905092915050565b7f4e487b7100000000000000000000000000000000000000000000000000000000600052601160045260246000fd5b7f4e487b7100000000000000000000000000000000000000000000000000000000600052601260045260246000fd5b7f4e487b7100000000000000000000000000000000000000000000000000000000600052602260045260246000fd5b7f4e487b7100000000000000000000000000000000000000000000000000000000600052604160045260246000fd5b6000601f19601f8301169050919050565b7f4552433732313a207472616e7366657220746f206e6f6e20455243373231526560008201527f63656976657220696d706c656d656e7465720000000000000000000000000000602082015250565b7f4552433732313a207472616e736665722066726f6d20696e636f72726563742060008201527f6f776e6572000000000000000000000000000000000000000000000000000000602082015250565b7f4552433732313a20746f6b656e20616c7265616479206d696e74656400000000600082015250565b7f4552433732313a207472616e7366657220746f20746865207a65726f2061646460008201527f7265737300000000000000000000000000000000000000000000000000000000602082015250565b7f4552433732313a20617070726f766520746f2063616c6c657200000000000000600082015250565b7f4552433732313a206f70657261746f7220717565727920666f72206e6f6e657860008201527f697374656e7420746f6b656e0000000000000000000000000000000000000000602082015250565b7f4552433732313a20617070726f76652063616c6c6572206973206e6f74206f7760008201527f6e6572206e6f7220617070726f76656420666f7220616c6c0000000000000000602082015250565b7f4552433732313a2062616c616e636520717565727920666f7220746865207a6560008201527f726f206164647265737300000000000000000000000000000000000000000000602082015250565b7f4552433732313a206f776e657220717565727920666f72206e6f6e657869737460008201527f656e7420746f6b656e0000000000000000000000000000000000000000000000602082015250565b7f4552433732313a206d696e7420746f20746865207a65726f2061646472657373600082015250565b7f4552433732313a20617070726f76656420717565727920666f72206e6f6e657860008201527f697374656e7420746f6b656e0000000000000000000000000000000000000000602082015250565b7f4552433732314d657461646174613a2055524920717565727920666f72206e6f60008201527f6e6578697374656e7420746f6b656e0000000000000000000000000000000000602082015250565b7f4552433732313a20617070726f76616c20746f2063757272656e74206f776e6560008201527f7200000000000000000000000000000000000000000000000000000000000000602082015250565b7f4552433732313a207472616e736665722063616c6c6572206973206e6f74206f60008201527f776e6572206e6f7220617070726f766564000000000000000000000000000000602082015250565b612b39816124ca565b8114612b4457600080fd5b50565b612b50816124dc565b8114612b5b57600080fd5b50565b612b67816124e8565b8114612b7257600080fd5b50565b612b7e81612534565b8114612b8957600080fd5b50565b612b958161253e565b8114612ba057600080fd5b5056fea26469706673582212202350aff93034c49d5e7bd9c318a0388a2ecf5c0b8d3eff64e0718ce93383b52b64736f6c63430008040033",
  "linkReferences": {},
  "deployedLinkReferences": {}
}