{
  "_format": "hh-sol-artifact-1",
  "contractName": "ComplexDoNFT",
  "sourceName": "contracts/Double/ComplexDoNFT.sol",
  "abi": [
    {
      "anonymous": false,
      "inputs": [
        {
          "indexed": true,
          "internalType": "address",
          "name": "owner",
          "type": "address"
        },
        {
          "indexed": true,
          "internalType": "address",
          "name": "approved",
          "type": "address"
        },
        {
          "indexed": true,
          "internalType": "uint256",
          "name": "tokenId",
          "type": "uint256"
        }
      ],
      "name": "Approval",
      "type": "event"
    },
    {
      "anonymous": false,
      "inputs": [
        {
          "indexed": true,
          "internalType": "address",
          "name": "owner",
          "type": "address"
        },
        {
          "indexed": true,
          "internalType": "address",
          "name": "operator",
          "type": "address"
        },
        {
          "indexed": false,
          "internalType": "bool",
          "name": "approved",
          "type": "bool"
        }
      ],
      "name": "ApprovalForAll",
      "type": "event"
    },
    {
      "anonymous": false,
      "inputs": [
        {
          "indexed": false,
          "internalType": "address",
          "name": "opreator",
          "type": "address"
        },
        {
          "indexed": false,
          "internalType": "address",
          "name": "to",
          "type": "address"
        },
        {
          "indexed": false,
          "internalType": "uint256",
          "name": "tokenId",
          "type": "uint256"
        },
        {
          "indexed": false,
          "internalType": "uint256",
          "name": "durationId",
          "type": "uint256"
        },
        {
          "indexed": false,
          "internalType": "uint256",
          "name": "oid",
          "type": "uint256"
        },
        {
          "indexed": false,
          "internalType": "uint64",
          "name": "expires",
          "type": "uint64"
        }
      ],
      "name": "CheckIn",
      "type": "event"
    },
    {
      "anonymous": false,
      "inputs": [
        {
          "indexed": false,
          "internalType": "address",
          "name": "operator",
          "type": "address"
        }
      ],
      "name": "ClaimRoyaltyAdmin",
      "type": "event"
    },
    {
      "anonymous": false,
      "inputs": [
        {
          "indexed": false,
          "internalType": "address",
          "name": "operator",
          "type": "address"
        },
        {
          "indexed": false,
          "internalType": "uint256",
          "name": "balance",
          "type": "uint256"
        }
      ],
      "name": "ClaimRoyaltyBalance",
      "type": "event"
    },
    {
      "anonymous": false,
      "inputs": [
        {
          "indexed": false,
          "internalType": "uint256[]",
          "name": "durationIdList",
          "type": "uint256[]"
        }
      ],
      "name": "DurationBurn",
      "type": "event"
    },
    {
      "anonymous": false,
      "inputs": [
        {
          "indexed": false,
          "internalType": "uint256",
          "name": "durationId",
          "type": "uint256"
        },
        {
          "indexed": false,
          "internalType": "uint256",
          "name": "tokenId",
          "type": "uint256"
        },
        {
          "indexed": false,
          "internalType": "uint64",
          "name": "start",
          "type": "uint64"
        },
        {
          "indexed": false,
          "internalType": "uint64",
          "name": "end",
          "type": "uint64"
        }
      ],
      "name": "DurationUpdate",
      "type": "event"
    },
    {
      "anonymous": false,
      "inputs": [
        {
          "indexed": false,
          "internalType": "uint8",
          "name": "version",
          "type": "uint8"
        }
      ],
      "name": "Initialized",
      "type": "event"
    },
    {
      "anonymous": false,
      "inputs": [
        {
          "indexed": false,
          "internalType": "uint256",
          "name": "tokenId",
          "type": "uint256"
        }
      ],
      "name": "MetadataUpdate",
      "type": "event"
    },
    {
      "anonymous": false,
      "inputs": [
        {
          "indexed": false,
          "internalType": "address",
          "name": "oldAdmin",
          "type": "address"
        },
        {
          "indexed": false,
          "internalType": "address",
          "name": "newAdmin",
          "type": "address"
        }
      ],
      "name": "NewAdmin",
      "type": "event"
    },
    {
      "anonymous": false,
      "inputs": [
        {
          "indexed": false,
          "internalType": "address",
          "name": "oldOwner",
          "type": "address"
        },
        {
          "indexed": false,
          "internalType": "address",
          "name": "newOwner",
          "type": "address"
        }
      ],
      "name": "NewOwner",
      "type": "event"
    },
    {
      "anonymous": false,
      "inputs": [
        {
          "indexed": false,
          "internalType": "address",
          "name": "oldPendingOwner",
          "type": "address"
        },
        {
          "indexed": false,
          "internalType": "address",
          "name": "newPendingOwner",
          "type": "address"
        }
      ],
      "name": "NewPendingOwner",
      "type": "event"
    },
    {
      "anonymous": false,
      "inputs": [
        {
          "indexed": false,
          "internalType": "uint256",
          "name": "oid",
          "type": "uint256"
        },
        {
          "indexed": false,
          "internalType": "uint256",
          "name": "tokenId",
          "type": "uint256"
        }
      ],
      "name": "Redeem",
      "type": "event"
    },
    {
      "anonymous": false,
      "inputs": [
        {
          "indexed": false,
          "internalType": "address",
          "name": "operator",
          "type": "address"
        },
        {
          "indexed": false,
          "internalType": "address",
          "name": "beneficiary",
          "type": "address"
        }
      ],
      "name": "SetBeneficiary",
      "type": "event"
    },
    {
      "anonymous": false,
      "inputs": [
        {
          "indexed": false,
          "internalType": "address",
          "name": "operator",
          "type": "address"
        },
        {
          "indexed": false,
          "internalType": "uint256",
          "name": "fee",
          "type": "uint256"
        }
      ],
      "name": "SetRoyaltyFee",
      "type": "event"
    },
    {
      "anonymous": false,
      "inputs": [
        {
          "indexed": true,
          "internalType": "address",
          "name": "from",
          "type": "address"
        },
        {
          "indexed": true,
          "internalType": "address",
          "name": "to",
          "type": "address"
        },
        {
          "indexed": true,
          "internalType": "uint256",
          "name": "tokenId",
          "type": "uint256"
        }
      ],
      "name": "Transfer",
      "type": "event"
    },
    {
      "inputs": [],
      "name": "acceptOwner",
      "outputs": [],
      "stateMutability": "nonpayable",
      "type": "function"
    },
    {
      "inputs": [],
      "name": "admin",
      "outputs": [
        {
          "internalType": "address",
          "name": "",
          "type": "address"
        }
      ],
      "stateMutability": "view",
      "type": "function"
    },
    {
      "inputs": [
        {
          "internalType": "address",
          "name": "to",
          "type": "address"
        },
        {
          "internalType": "uint256",
          "name": "tokenId",
          "type": "uint256"
        }
      ],
      "name": "approve",
      "outputs": [],
      "stateMutability": "nonpayable",
      "type": "function"
    },
    {
      "inputs": [
        {
          "internalType": "address",
          "name": "owner",
          "type": "address"
        }
      ],
      "name": "balanceOf",
      "outputs": [
        {
          "internalType": "uint256",
          "name": "",
          "type": "uint256"
        }
      ],
      "stateMutability": "view",
      "type": "function"
    },
    {
      "inputs": [
        {
          "internalType": "address",
          "name": "to",
          "type": "address"
        },
        {
          "internalType": "uint256",
          "name": "tokenId",
          "type": "uint256"
        },
        {
          "internalType": "uint256",
          "name": "durationId",
          "type": "uint256"
        }
      ],
      "name": "checkIn",
      "outputs": [],
      "stateMutability": "nonpayable",
      "type": "function"
    },
    {
      "inputs": [],
      "name": "claimRoyaltyAdmin",
      "outputs": [],
      "stateMutability": "nonpayable",
      "type": "function"
    },
    {
      "inputs": [
        {
          "internalType": "uint256",
          "name": "tokenId",
          "type": "uint256"
        },
        {
          "internalType": "uint256",
          "name": "durationId",
          "type": "uint256"
        },
        {
          "internalType": "uint256",
          "name": "targetTokenId",
          "type": "uint256"
        },
        {
          "internalType": "uint256",
          "name": "targetDurationId",
          "type": "uint256"
        }
      ],
      "name": "concat",
      "outputs": [],
      "stateMutability": "nonpayable",
      "type": "function"
    },
    {
      "inputs": [
        {
          "internalType": "uint256",
          "name": "tokenId",
          "type": "uint256"
        },
        {
          "internalType": "uint256",
          "name": "durationId",
          "type": "uint256"
        }
      ],
      "name": "contains",
      "outputs": [
        {
          "internalType": "bool",
          "name": "",
          "type": "bool"
        }
      ],
      "stateMutability": "view",
      "type": "function"
    },
    {
      "inputs": [
        {
          "internalType": "uint256",
          "name": "tokenId",
          "type": "uint256"
        },
        {
          "internalType": "uint256[]",
          "name": "durationIds",
          "type": "uint256[]"
        }
      ],
      "name": "couldRedeem",
      "outputs": [
        {
          "internalType": "bool",
          "name": "",
          "type": "bool"
        }
      ],
      "stateMutability": "view",
      "type": "function"
    },
    {
      "inputs": [],
      "name": "curDoid",
      "outputs": [
        {
          "internalType": "uint256",
          "name": "",
          "type": "uint256"
        }
      ],
      "stateMutability": "view",
      "type": "function"
    },
    {
      "inputs": [],
      "name": "curDurationId",
      "outputs": [
        {
          "internalType": "uint256",
          "name": "",
          "type": "uint256"
        }
      ],
      "stateMutability": "view",
      "type": "function"
    },
    {
      "inputs": [
        {
          "internalType": "uint256",
          "name": "tokenId",
          "type": "uint256"
        }
      ],
      "name": "exists",
      "outputs": [
        {
          "internalType": "bool",
          "name": "",
          "type": "bool"
        }
      ],
      "stateMutability": "view",
      "type": "function"
    },
    {
      "inputs": [
        {
          "internalType": "uint256",
          "name": "tokenId",
          "type": "uint256"
        },
        {
          "internalType": "uint256[]",
          "name": "durationIds",
          "type": "uint256[]"
        }
      ],
      "name": "gc",
      "outputs": [],
      "stateMutability": "nonpayable",
      "type": "function"
    },
    {
      "inputs": [
        {
          "internalType": "uint256",
          "name": "tokenId",
          "type": "uint256"
        }
      ],
      "name": "getApproved",
      "outputs": [
        {
          "internalType": "address",
          "name": "",
          "type": "address"
        }
      ],
      "stateMutability": "view",
      "type": "function"
    },
    {
      "inputs": [],
      "name": "getBeneficiary",
      "outputs": [
        {
          "internalType": "address payable",
          "name": "",
          "type": "address"
        }
      ],
      "stateMutability": "view",
      "type": "function"
    },
    {
      "inputs": [
        {
          "internalType": "uint256",
          "name": "tokenId",
          "type": "uint256"
        }
      ],
      "name": "getDoNftInfo",
      "outputs": [
        {
          "internalType": "uint256",
          "name": "oid",
          "type": "uint256"
        },
        {
          "internalType": "uint256[]",
          "name": "durationIds",
          "type": "uint256[]"
        },
        {
          "internalType": "uint64[]",
          "name": "starts",
          "type": "uint64[]"
        },
        {
          "internalType": "uint64[]",
          "name": "ends",
          "type": "uint64[]"
        },
        {
          "internalType": "uint64",
          "name": "nonce",
          "type": "uint64"
        }
      ],
      "stateMutability": "view",
      "type": "function"
    },
    {
      "inputs": [
        {
          "internalType": "uint256",
          "name": "durationId",
          "type": "uint256"
        }
      ],
      "name": "getDuration",
      "outputs": [
        {
          "internalType": "uint64",
          "name": "",
          "type": "uint64"
        },
        {
          "internalType": "uint64",
          "name": "",
          "type": "uint64"
        }
      ],
      "stateMutability": "view",
      "type": "function"
    },
    {
      "inputs": [
        {
          "internalType": "uint256",
          "name": "tokenId",
          "type": "uint256"
        },
        {
          "internalType": "uint256",
          "name": "index",
          "type": "uint256"
        }
      ],
      "name": "getDurationByIndex",
      "outputs": [
        {
          "internalType": "uint256",
          "name": "durationId",
          "type": "uint256"
        },
        {
          "internalType": "uint64",
          "name": "start",
          "type": "uint64"
        },
        {
          "internalType": "uint64",
          "name": "end",
          "type": "uint64"
        }
      ],
      "stateMutability": "view",
      "type": "function"
    },
    {
      "inputs": [
        {
          "internalType": "uint256",
          "name": "tokenId",
          "type": "uint256"
        }
      ],
      "name": "getDurationIdList",
      "outputs": [
        {
          "internalType": "uint256[]",
          "name": "",
          "type": "uint256[]"
        }
      ],
      "stateMutability": "view",
      "type": "function"
    },
    {
      "inputs": [
        {
          "internalType": "uint256",
          "name": "tokenId",
          "type": "uint256"
        }
      ],
      "name": "getDurationListLength",
      "outputs": [
        {
          "internalType": "uint256",
          "name": "",
          "type": "uint256"
        }
      ],
      "stateMutability": "view",
      "type": "function"
    },
    {
      "inputs": [
        {
          "internalType": "uint256",
          "name": "tokenId",
          "type": "uint256"
        }
      ],
      "name": "getFingerprint",
      "outputs": [
        {
          "internalType": "bytes32",
          "name": "print",
          "type": "bytes32"
        }
      ],
      "stateMutability": "view",
      "type": "function"
    },
    {
      "inputs": [],
      "name": "getMaxDuration",
      "outputs": [
        {
          "internalType": "uint64",
          "name": "",
          "type": "uint64"
        }
      ],
      "stateMutability": "view",
      "type": "function"
    },
    {
      "inputs": [
        {
          "internalType": "uint256",
          "name": "tokenId",
          "type": "uint256"
        }
      ],
      "name": "getNonce",
      "outputs": [
        {
          "internalType": "uint64",
          "name": "",
          "type": "uint64"
        }
      ],
      "stateMutability": "view",
      "type": "function"
    },
    {
      "inputs": [],
      "name": "getOriginalNftAddress",
      "outputs": [
        {
          "internalType": "address",
          "name": "",
          "type": "address"
        }
      ],
      "stateMutability": "view",
      "type": "function"
    },
    {
      "inputs": [
        {
          "internalType": "uint256",
          "name": "tokenId",
          "type": "uint256"
        }
      ],
      "name": "getOriginalNftId",
      "outputs": [
        {
          "internalType": "uint256",
          "name": "",
          "type": "uint256"
        }
      ],
      "stateMutability": "view",
      "type": "function"
    },
    {
      "inputs": [],
      "name": "getRoyaltyFee",
      "outputs": [
        {
          "internalType": "uint256",
          "name": "",
          "type": "uint256"
        }
      ],
      "stateMutability": "view",
      "type": "function"
    },
    {
      "inputs": [
        {
          "internalType": "uint256",
          "name": "originalNftId",
          "type": "uint256"
        }
      ],
      "name": "getUser",
      "outputs": [
        {
          "internalType": "address",
          "name": "",
          "type": "address"
        }
      ],
      "stateMutability": "view",
      "type": "function"
    },
    {
      "inputs": [
        {
          "internalType": "uint256",
          "name": "originalNftId",
          "type": "uint256"
        }
      ],
      "name": "getVNftId",
      "outputs": [
        {
          "internalType": "uint256",
          "name": "",
          "type": "uint256"
        }
      ],
      "stateMutability": "view",
      "type": "function"
    },
    {
      "inputs": [
        {
          "internalType": "string",
          "name": "name_",
          "type": "string"
        },
        {
          "internalType": "string",
          "name": "symbol_",
          "type": "string"
        },
        {
          "internalType": "address",
          "name": "nftAddress_",
          "type": "address"
        },
        {
          "internalType": "address",
          "name": "market_",
          "type": "address"
        },
        {
          "internalType": "address",
          "name": "owner_",
          "type": "address"
        },
        {
          "internalType": "address",
          "name": "admin_",
          "type": "address"
        },
        {
          "internalType": "address",
          "name": "royaltyAdmin_",
          "type": "address"
        }
      ],
      "name": "initialize",
      "outputs": [],
      "stateMutability": "nonpayable",
      "type": "function"
    },
    {
      "inputs": [
        {
          "internalType": "address",
          "name": "owner",
          "type": "address"
        },
        {
          "internalType": "address",
          "name": "operator",
          "type": "address"
        }
      ],
      "name": "isApprovedForAll",
      "outputs": [
        {
          "internalType": "bool",
          "name": "",
          "type": "bool"
        }
      ],
      "stateMutability": "view",
      "type": "function"
    },
    {
      "inputs": [
        {
          "internalType": "uint256",
          "name": "tokenId",
          "type": "uint256"
        }
      ],
      "name": "isVNft",
      "outputs": [
        {
          "internalType": "bool",
          "name": "",
          "type": "bool"
        }
      ],
      "stateMutability": "view",
      "type": "function"
    },
    {
      "inputs": [
        {
          "internalType": "uint256",
          "name": "tokenId",
          "type": "uint256"
        }
      ],
      "name": "isValidNow",
      "outputs": [
        {
          "internalType": "bool",
          "name": "isValid",
          "type": "bool"
        }
      ],
      "stateMutability": "view",
      "type": "function"
    },
    {
      "inputs": [],
      "name": "market",
      "outputs": [
        {
          "internalType": "address",
          "name": "",
          "type": "address"
        }
      ],
      "stateMutability": "view",
      "type": "function"
    },
    {
      "inputs": [],
      "name": "maxDuration",
      "outputs": [
        {
          "internalType": "uint64",
          "name": "",
          "type": "uint64"
        }
      ],
      "stateMutability": "view",
      "type": "function"
    },
    {
      "inputs": [
        {
          "internalType": "uint256",
          "name": "tokenId",
          "type": "uint256"
        },
        {
          "internalType": "uint256",
          "name": "durationId",
          "type": "uint256"
        },
        {
          "internalType": "uint64",
          "name": "start",
          "type": "uint64"
        },
        {
          "internalType": "uint64",
          "name": "end",
          "type": "uint64"
        },
        {
          "internalType": "address",
          "name": "to",
          "type": "address"
        },
        {
          "internalType": "address",
          "name": "user",
          "type": "address"
        }
      ],
      "name": "mint",
      "outputs": [
        {
          "internalType": "uint256",
          "name": "tid",
          "type": "uint256"
        }
      ],
      "stateMutability": "nonpayable",
      "type": "function"
    },
    {
      "inputs": [
        {
          "internalType": "uint256",
          "name": "oid",
          "type": "uint256"
        }
      ],
      "name": "mintVNft",
      "outputs": [
        {
          "internalType": "uint256",
          "name": "tid",
          "type": "uint256"
        }
      ],
      "stateMutability": "nonpayable",
      "type": "function"
    },
    {
      "inputs": [
        {
          "internalType": "bytes[]",
          "name": "data",
          "type": "bytes[]"
        }
      ],
      "name": "multicall",
      "outputs": [
        {
          "internalType": "bytes[]",
          "name": "results",
          "type": "bytes[]"
        }
      ],
      "stateMutability": "nonpayable",
      "type": "function"
    },
    {
      "inputs": [],
      "name": "name",
      "outputs": [
        {
          "internalType": "string",
          "name": "",
          "type": "string"
        }
      ],
      "stateMutability": "view",
      "type": "function"
    },
    {
      "inputs": [
        {
          "internalType": "address",
          "name": "operator",
          "type": "address"
        },
        {
          "internalType": "address",
          "name": "from",
          "type": "address"
        },
        {
          "internalType": "uint256",
          "name": "tokenId",
          "type": "uint256"
        },
        {
          "internalType": "bytes",
          "name": "data",
          "type": "bytes"
        }
      ],
      "name": "onERC721Received",
      "outputs": [
        {
          "internalType": "bytes4",
          "name": "",
          "type": "bytes4"
        }
      ],
      "stateMutability": "pure",
      "type": "function"
    },
    {
      "inputs": [],
      "name": "owner",
      "outputs": [
        {
          "internalType": "address",
          "name": "",
          "type": "address"
        }
      ],
      "stateMutability": "view",
      "type": "function"
    },
    {
      "inputs": [
        {
          "internalType": "uint256",
          "name": "tokenId",
          "type": "uint256"
        }
      ],
      "name": "ownerOf",
      "outputs": [
        {
          "internalType": "address",
          "name": "",
          "type": "address"
        }
      ],
      "stateMutability": "view",
      "type": "function"
    },
    {
      "inputs": [],
      "name": "pendingOwner",
      "outputs": [
        {
          "internalType": "address",
          "name": "",
          "type": "address"
        }
      ],
      "stateMutability": "view",
      "type": "function"
    },
    {
      "inputs": [
        {
          "internalType": "uint256",
          "name": "tokenId",
          "type": "uint256"
        },
        {
          "internalType": "uint256[]",
          "name": "durationIds",
          "type": "uint256[]"
        }
      ],
      "name": "redeem",
      "outputs": [],
      "stateMutability": "nonpayable",
      "type": "function"
    },
    {
      "inputs": [],
      "name": "renounceOwnership",
      "outputs": [],
      "stateMutability": "nonpayable",
      "type": "function"
    },
    {
      "inputs": [],
      "name": "royaltyAdmin",
      "outputs": [
        {
          "internalType": "address",
          "name": "",
          "type": "address"
        }
      ],
      "stateMutability": "view",
      "type": "function"
    },
    {
      "inputs": [
        {
          "internalType": "address",
          "name": "from",
          "type": "address"
        },
        {
          "internalType": "address",
          "name": "to",
          "type": "address"
        },
        {
          "internalType": "uint256",
          "name": "tokenId",
          "type": "uint256"
        }
      ],
      "name": "safeTransferFrom",
      "outputs": [],
      "stateMutability": "nonpayable",
      "type": "function"
    },
    {
      "inputs": [
        {
          "internalType": "address",
          "name": "from",
          "type": "address"
        },
        {
          "internalType": "address",
          "name": "to",
          "type": "address"
        },
        {
          "internalType": "uint256",
          "name": "tokenId",
          "type": "uint256"
        },
        {
          "internalType": "bytes",
          "name": "_data",
          "type": "bytes"
        }
      ],
      "name": "safeTransferFrom",
      "outputs": [],
      "stateMutability": "nonpayable",
      "type": "function"
    },
    {
      "inputs": [
        {
          "internalType": "address",
          "name": "newAdmin",
          "type": "address"
        }
      ],
      "name": "setAdmin",
      "outputs": [],
      "stateMutability": "nonpayable",
      "type": "function"
    },
    {
      "inputs": [
        {
          "internalType": "address",
          "name": "operator",
          "type": "address"
        },
        {
          "internalType": "bool",
          "name": "approved",
          "type": "bool"
        }
      ],
      "name": "setApprovalForAll",
      "outputs": [],
      "stateMutability": "nonpayable",
      "type": "function"
    },
    {
      "inputs": [
        {
          "internalType": "address payable",
          "name": "beneficiary_",
          "type": "address"
        }
      ],
      "name": "setBeneficiary",
      "outputs": [],
      "stateMutability": "nonpayable",
      "type": "function"
    },
    {
      "inputs": [
        {
          "internalType": "bool",
          "name": "v",
          "type": "bool"
        }
      ],
      "name": "setIsOnlyNow",
      "outputs": [],
      "stateMutability": "nonpayable",
      "type": "function"
    },
    {
      "inputs": [
        {
          "internalType": "address",
          "name": "_market",
          "type": "address"
        }
      ],
      "name": "setMarket",
      "outputs": [],
      "stateMutability": "nonpayable",
      "type": "function"
    },
    {
      "inputs": [
        {
          "internalType": "uint64",
          "name": "v",
          "type": "uint64"
        }
      ],
      "name": "setMaxDuration",
      "outputs": [],
      "stateMutability": "nonpayable",
      "type": "function"
    },
    {
      "inputs": [
        {
          "internalType": "uint256",
          "name": "fee_",
          "type": "uint256"
        }
      ],
      "name": "setRoyaltyFee",
      "outputs": [],
      "stateMutability": "nonpayable",
      "type": "function"
    },
    {
      "inputs": [
        {
          "internalType": "address",
          "name": "tempAdmin_",
          "type": "address"
        }
      ],
      "name": "setTempRoyaltyAdmin",
      "outputs": [],
      "stateMutability": "nonpayable",
      "type": "function"
    },
    {
      "inputs": [
        {
          "internalType": "bytes4",
          "name": "interfaceId",
          "type": "bytes4"
        }
      ],
      "name": "supportsInterface",
      "outputs": [
        {
          "internalType": "bool",
          "name": "",
          "type": "bool"
        }
      ],
      "stateMutability": "view",
      "type": "function"
    },
    {
      "inputs": [],
      "name": "symbol",
      "outputs": [
        {
          "internalType": "string",
          "name": "",
          "type": "string"
        }
      ],
      "stateMutability": "view",
      "type": "function"
    },
    {
      "inputs": [],
      "name": "tempRoyaltyAdmin",
      "outputs": [
        {
          "internalType": "address",
          "name": "",
          "type": "address"
        }
      ],
      "stateMutability": "view",
      "type": "function"
    },
    {
      "inputs": [
        {
          "internalType": "uint256",
          "name": "tokenId",
          "type": "uint256"
        }
      ],
      "name": "tokenURI",
      "outputs": [
        {
          "internalType": "string",
          "name": "",
          "type": "string"
        }
      ],
      "stateMutability": "view",
      "type": "function"
    },
    {
      "inputs": [
        {
          "internalType": "address",
          "name": "from",
          "type": "address"
        },
        {
          "internalType": "address",
          "name": "to",
          "type": "address"
        },
        {
          "internalType": "uint256",
          "name": "tokenId",
          "type": "uint256"
        }
      ],
      "name": "transferFrom",
      "outputs": [],
      "stateMutability": "nonpayable",
      "type": "function"
    },
    {
      "inputs": [
        {
          "internalType": "address",
          "name": "_pendingOwner",
          "type": "address"
        }
      ],
      "name": "transferOwnership",
      "outputs": [],
      "stateMutability": "nonpayable",
      "type": "function"
    }
  ],
  "bytecode": "0x60806040523480156200001157600080fd5b50619c4e80620000226000396000f3fe608060405234801561001057600080fd5b50600436106103ae5760003560e01c8063820bdcdc116101f4578063c4a0db961161011a578063e42e66a9116100ad578063f2fde38b1161007c578063f2fde38b14610bbc578063f851a44014610bd8578063fd83de6214610bf6578063fe909ee414610c26576103ae565b8063e42e66a914610b34578063e985e9c514610b66578063ebbc496514610b96578063f014783214610ba0576103ae565b8063cb697d1e116100e9578063cb697d1e14610a9a578063d816f09114610aca578063dbe102c014610ae6578063e30c397814610b16576103ae565b8063c4a0db9614610a16578063c724372614610a32578063c87b56dd14610a4e578063c91f0c5314610a7e576103ae565b8063a22cb46511610192578063ac9650d811610161578063ac9650d81461097c578063b0467deb146109ac578063b49a2db9146109dc578063b88d4fde146109fa576103ae565b8063a22cb465146108e2578063a6cc2650146108fe578063a83284121461092e578063abb2176a1461095e576103ae565b80638da5cb5b116101ce5780638da5cb5b1461086c57806395d89b411461088a57806398e5d38f146108a8578063a050ac8f146108c4576103ae565b8063820bdcdc146107ff578063894e851f1461081d5780638bb126a71461083b576103ae565b80633e4086e5116102d95780636352211e11610277578063704b6c0211610246578063704b6c021461078b57806370a08231146107a7578063715018a6146107d757806380f55605146107e1576103ae565b80636352211e146107035780636db5c8fd146107335780636dcea85f146107515780636ece56b31461076d576103ae565b8063438e15fc116102b3578063438e15fc146106515780634f558e791461068157806352332ed8146106b1578063565a2e2c146106e5576103ae565b80633e4086e5146105e95780633ed189cf1461060557806342842e0e14610635576103ae565b8063159a64751161035157806323b872dd1161032057806323b872dd1461054f57806325cb25b01461056b578063393b17a4146105895780633d46b819146105b9576103ae565b8063159a6475146104c95780631aa14498146104f95780631c31f710146105295780631f1aea3a14610545576103ae565b8063081812fc1161038d578063081812fc1461041d578063095ea7b31461044d57806310c1185414610469578063150b7a0214610499576103ae565b806295d645146103b357806301ffc9a7146103cf57806306fdde03146103ff575b600080fd5b6103cd60048036038101906103c89190617459565b610c42565b005b6103e960048036038101906103e491906174ab565b610d45565b6040516103f69190618541565b60405180910390f35b610407610e27565b60405161041491906185ad565b60405180910390f35b6104376004803603810190610432919061760c565b610eb9565b6040516104449190618368565b60405180910390f35b61046760048036038101906104629190617389565b610f3e565b005b610483600480360381019061047e9190617755565b611056565b6040516104909190618acf565b60405180910390f35b6104b360048036038101906104ae9190617252565b611624565b6040516104c09190618577565b60405180910390f35b6104e360048036038101906104de919061760c565b61163e565b6040516104f0919061855c565b60405180910390f35b610513600480360381019061050e919061760c565b611695565b6040516105209190618acf565b60405180910390f35b610543600480360381019061053e919061719e565b6116ba565b005b61054d61187d565b005b61056960048036038101906105649190617203565b6119eb565b005b610573611a4b565b6040516105809190618368565b60405180910390f35b6105a3600480360381019061059e919061760c565b611a75565b6040516105b09190618541565b60405180910390f35b6105d360048036038101906105ce919061760c565b611b70565b6040516105e09190618c8f565b60405180910390f35b61060360048036038101906105fe919061760c565b611ba4565b005b61061f600480360381019061061a919061760c565b611cbe565b60405161062c9190618acf565b60405180910390f35b61064f600480360381019061064a9190617203565b611cdb565b005b61066b600480360381019061066691906176b6565b611cfb565b6040516106789190618541565b60405180910390f35b61069b6004803603810190610696919061760c565b611d2d565b6040516106a89190618541565b60405180910390f35b6106cb60048036038101906106c6919061760c565b611d3f565b6040516106dc959493929190618b21565b60405180910390f35b6106ed611fd1565b6040516106fa9190618383565b60405180910390f35b61071d6004803603810190610718919061760c565b611ffb565b60405161072a9190618368565b60405180910390f35b61073b6120ad565b6040516107489190618c8f565b60405180910390f35b61076b6004803603810190610766919061714c565b6120c7565b005b6107756121ed565b6040516107829190618368565b60405180910390f35b6107a560048036038101906107a0919061714c565b612213565b005b6107c160048036038101906107bc919061714c565b612340565b6040516107ce9190618acf565b60405180910390f35b6107df6123f8565b005b6107e961265f565b6040516107f69190618368565b60405180910390f35b610807612685565b6040516108149190618acf565b60405180910390f35b61082561268f565b6040516108329190618368565b60405180910390f35b6108556004803603810190610850919061760c565b6126b5565b604051610863929190618caa565b60405180910390f35b61087461270b565b6040516108819190618368565b60405180910390f35b61089261272f565b60405161089f91906185ad565b60405180910390f35b6108c260048036038101906108bd91906173c5565b6127c1565b005b6108cc6128a2565b6040516108d99190618acf565b60405180910390f35b6108fc60048036038101906108f7919061734d565b6128a8565b005b6109186004803603810190610913919061760c565b6128be565b6040516109259190618acf565b60405180910390f35b6109486004803603810190610943919061760c565b6131e7565b6040516109559190618541565b60405180910390f35b61096661322e565b6040516109739190618acf565b60405180910390f35b61099660048036038101906109919190617414565b613234565b6040516109a391906184fd565b60405180910390f35b6109c660048036038101906109c1919061760c565b6133dd565b6040516109d39190618368565b60405180910390f35b6109e4613491565b6040516109f19190618c8f565b60405180910390f35b610a146004803603810190610a0f91906172d2565b6134af565b005b610a306004803603810190610a2b919061765e565b613511565b005b610a4c6004803603810190610a47919061714c565b613932565b005b610a686004803603810190610a63919061760c565b613a9a565b604051610a7591906185ad565b60405180910390f35b610a986004803603810190610a93919061753e565b613f06565b005b610ab46004803603810190610aaf919061765e565b613fe9565b604051610ac19190618541565b60405180910390f35b610ae46004803603810190610adf91906176f2565b6142e3565b005b610b006004803603810190610afb919061760c565b614708565b604051610b0d919061851f565b60405180910390f35b610b1e614735565b604051610b2b9190618368565b60405180910390f35b610b4e6004803603810190610b4991906176b6565b61475b565b604051610b5d93929190618c58565b60405180910390f35b610b806004803603810190610b7b91906171c7565b6147f4565b604051610b8d9190618541565b60405180910390f35b610b9e614888565b005b610bba6004803603810190610bb591906177de565b614a96565b005b610bd66004803603810190610bd1919061714c565b614ba8565b005b610be0614cd5565b604051610bed9190618368565b60405180910390f35b610c106004803603810190610c0b919061760c565b614cfb565b604051610c1d9190618acf565b60405180910390f35b610c406004803603810190610c3b919061765e565b614d22565b005b600260009054906101000a900473ffffffffffffffffffffffffffffffffffffffff1673ffffffffffffffffffffffffffffffffffffffff163373ffffffffffffffffffffffffffffffffffffffff161480610ce9575060008054906101000a900473ffffffffffffffffffffffffffffffffffffffff1673ffffffffffffffffffffffffffffffffffffffff163373ffffffffffffffffffffffffffffffffffffffff16145b610d28576040517f08c379a0000000000000000000000000000000000000000000000000000000008152600401610d1f906185cf565b60405180910390fd5b8060d360006101000a81548160ff02191690831515021790555050565b60007fc91f0c53000000000000000000000000000000000000000000000000000000007bffffffffffffffffffffffffffffffffffffffffffffffffffffffff1916827bffffffffffffffffffffffffffffffffffffffffffffffffffffffff19161480610e1057507fe93a693f000000000000000000000000000000000000000000000000000000007bffffffffffffffffffffffffffffffffffffffffffffffffffffffff1916827bffffffffffffffffffffffffffffffffffffffffffffffffffffffff1916145b80610e205750610e1f82614e68565b5b9050919050565b606060678054610e3690619119565b80601f0160208091040260200160405190810160405280929190818152602001828054610e6290619119565b8015610eaf5780601f10610e8457610100808354040283529160200191610eaf565b820191906000526020600020905b815481529060010190602001808311610e9257829003601f168201915b5050505050905090565b6000610ec482614ee2565b610f03576040517f08c379a0000000000000000000000000000000000000000000000000000000008152600401610efa906188ef565b60405180910390fd5b606b600083815260200190815260200160002060009054906101000a900473ffffffffffffffffffffffffffffffffffffffff169050919050565b6000610f4982611ffb565b90508073ffffffffffffffffffffffffffffffffffffffff168373ffffffffffffffffffffffffffffffffffffffff161415610fba576040517f08c379a0000000000000000000000000000000000000000000000000000000008152600401610fb1906189af565b60405180910390fd5b8073ffffffffffffffffffffffffffffffffffffffff16610fd9614f4e565b73ffffffffffffffffffffffffffffffffffffffff161480611008575061100781611002614f4e565b6147f4565b5b611047576040517f08c379a000000000000000000000000000000000000000000000000000000000815260040161103e9061880f565b60405180910390fd5b6110518383614f56565b505050565b60008460d360009054906101000a900460ff16156110bc57428167ffffffffffffffff1611156110bb576040517f08c379a00000000000000000000000000000000000000000000000000000000081526004016110b2906189ef565b60405180910390fd5b5b60026099541415611102576040517f08c379a00000000000000000000000000000000000000000000000000000000081526004016110f990618a4f565b60405180910390fd5b6002609981905550428667ffffffffffffffff161015611120574295505b61113161112b614f4e565b8961500f565b611170576040517f08c379a00000000000000000000000000000000000000000000000000000000081526004016111679061860f565b60405180910390fd5b8567ffffffffffffffff168567ffffffffffffffff161180156111c8575060cf60009054906101000a900467ffffffffffffffff1667ffffffffffffffff16426111ba9190618ee2565b8567ffffffffffffffff1611155b611207576040517f08c379a00000000000000000000000000000000000000000000000000000000081526004016111fe906187af565b60405180910390fd5b600060d060008a815260200190815260200160002090506112288989611cfb565b611267576040517f08c379a000000000000000000000000000000000000000000000000000000000815260040161125e9061870f565b60405180910390fd5b600060d160008a815260200190815260200160002090508060000160009054906101000a900467ffffffffffffffff1667ffffffffffffffff168867ffffffffffffffff16101580156112e657508060000160089054906101000a900467ffffffffffffffff1667ffffffffffffffff168767ffffffffffffffff1611155b611325576040517f08c379a000000000000000000000000000000000000000000000000000000000815260040161131c9061894f565b60405180910390fd5b60008160000160009054906101000a900467ffffffffffffffff1667ffffffffffffffff168967ffffffffffffffff1614801561138d57508160000160089054906101000a900467ffffffffffffffff1667ffffffffffffffff168867ffffffffffffffff16145b156113d6576113a28784600001548b8b615083565b945060ce5490506113b38b8b6150aa565b60006113c184600201615216565b14156113d1576113d08b61522b565b5b6115b9565b8160000160009054906101000a900467ffffffffffffffff1667ffffffffffffffff168967ffffffffffffffff1614801561143d57508160000160089054906101000a900467ffffffffffffffff1667ffffffffffffffff168867ffffffffffffffff1614155b1561147e5760018861144f9190618f38565b8260000160006101000a81548167ffffffffffffffff021916908367ffffffffffffffff1602179055506115a1565b8160000160009054906101000a900467ffffffffffffffff1667ffffffffffffffff168967ffffffffffffffff16141580156114e557508160000160089054906101000a900467ffffffffffffffff1667ffffffffffffffff168867ffffffffffffffff16145b15611526576001896114f79190618faa565b8260000160086101000a81548167ffffffffffffffff021916908367ffffffffffffffff1602179055506115a0565b428967ffffffffffffffff161115611568576115678b8360000160009054906101000a900467ffffffffffffffff1660018c6115629190618faa565b61528e565b5b6001886115759190618f38565b8260000160006101000a81548167ffffffffffffffff021916908367ffffffffffffffff1602179055505b5b6115b18784600001548b8b615083565b945060ce5490505b428967ffffffffffffffff1614156115d7576115d68686836127c1565b5b7ff8e1a15aba9398e019f0b49df1a4fde98ee17ae345cb5f6b5e2c27f5033e8ce78b6040516116069190618acf565b60405180910390a15050506001609981905550509695505050505050565b60008063150b7a0260e01b90508091505095945050505050565b60008060008060008061165087611d3f565b945094509450945094508484848484604051602001611673959493929190618315565b6040516020818303038152906040528051906020012095505050505050919050565b60008060d0600084815260200190815260200160002090508060000154915050919050565b60d660009054906101000a900473ffffffffffffffffffffffffffffffffffffffff1673ffffffffffffffffffffffffffffffffffffffff163373ffffffffffffffffffffffffffffffffffffffff161461174a576040517f08c379a0000000000000000000000000000000000000000000000000000000008152600401611741906185cf565b60405180910390fd5b600073ffffffffffffffffffffffffffffffffffffffff168173ffffffffffffffffffffffffffffffffffffffff16141580156117d5575060d560009054906101000a900473ffffffffffffffffffffffffffffffffffffffff1673ffffffffffffffffffffffffffffffffffffffff168173ffffffffffffffffffffffffffffffffffffffff1614155b6117de57600080fd5b8060d560006101000a81548173ffffffffffffffffffffffffffffffffffffffff021916908373ffffffffffffffffffffffffffffffffffffffff1602179055507f8a0149b2f3ddf2c9ee85738165131d82babbb938f749321d59f75750afa7f4e63360d560009054906101000a900473ffffffffffffffffffffffffffffffffffffffff166040516118729291906183c7565b60405180910390a150565b60d760009054906101000a900473ffffffffffffffffffffffffffffffffffffffff1673ffffffffffffffffffffffffffffffffffffffff163373ffffffffffffffffffffffffffffffffffffffff161461190d576040517f08c379a00000000000000000000000000000000000000000000000000000000081526004016119049061888f565b60405180910390fd5b60d760009054906101000a900473ffffffffffffffffffffffffffffffffffffffff1660d660006101000a81548173ffffffffffffffffffffffffffffffffffffffff021916908373ffffffffffffffffffffffffffffffffffffffff160217905550600060d760006101000a81548173ffffffffffffffffffffffffffffffffffffffff021916908373ffffffffffffffffffffffffffffffffffffffff1602179055507f0314d3865404a6a594e66b7f1922326048dad3985f6fad5069fd4bc22e3fbdcd336040516119e19190618368565b60405180910390a1565b6119fc6119f6614f4e565b8261500f565b611a3b576040517f08c379a0000000000000000000000000000000000000000000000000000000008152600401611a32906189cf565b60405180910390fd5b611a468383836153b4565b505050565b600060cb60009054906101000a900473ffffffffffffffffffffffffffffffffffffffff16905090565b60008060d0600084815260200190815260200160002090506000611a9b82600201615216565b9050600080600090505b82811015611b6257611ac3818560020161561b90919063ffffffff16565b91504260d1600084815260200190815260200160002060000160009054906101000a900467ffffffffffffffff1667ffffffffffffffff1611158015611b3d575060d1600083815260200190815260200160002060000160089054906101000a900467ffffffffffffffff1667ffffffffffffffff164211155b15611b4f576001945050505050611b6b565b8080611b5a9061917c565b915050611aa5565b50600093505050505b919050565b600060d0600083815260200190815260200160002060010160009054906101000a900467ffffffffffffffff169050919050565b60d660009054906101000a900473ffffffffffffffffffffffffffffffffffffffff1673ffffffffffffffffffffffffffffffffffffffff163373ffffffffffffffffffffffffffffffffffffffff1614611c34576040517f08c379a0000000000000000000000000000000000000000000000000000000008152600401611c2b906185cf565b60405180910390fd5b612710811115611c79576040517f08c379a0000000000000000000000000000000000000000000000000000000008152600401611c7090618a2f565b60405180910390fd5b8060d4819055507f2c94a29baa8bee7919326700203e3124421ec6498cdc7be4868a1a76fb56b03e3360d454604051611cb39291906184d4565b60405180910390a150565b600060d26000838152602001908152602001600020549050919050565b611cf6838383604051806020016040528060008152506134af565b505050565b6000611d258260d0600086815260200190815260200160002060020161563590919063ffffffff16565b905092915050565b6000611d3882614ee2565b9050919050565b6000606080606060008060d060008881526020019081526020016000209050806000015495508060010160009054906101000a900467ffffffffffffffff1691506000611d8e82600201615216565b905060008167ffffffffffffffff811115611dd2577f4e487b7100000000000000000000000000000000000000000000000000000000600052604160045260246000fd5b604051908082528060200260200182016040528015611e005781602001602082028036833780820191505090505b5095508167ffffffffffffffff811115611e43577f4e487b7100000000000000000000000000000000000000000000000000000000600052604160045260246000fd5b604051908082528060200260200182016040528015611e715781602001602082028036833780820191505090505b509450611e808360020161564f565b965060005b82811015611fc457611ea3818560020161561b90919063ffffffff16565b915060d1600083815260200190815260200160002060000160009054906101000a900467ffffffffffffffff16878281518110611f09577f4e487b7100000000000000000000000000000000000000000000000000000000600052603260045260246000fd5b602002602001019067ffffffffffffffff16908167ffffffffffffffff168152505060d1600083815260200190815260200160002060000160089054906101000a900467ffffffffffffffff16868281518110611f8f577f4e487b7100000000000000000000000000000000000000000000000000000000600052603260045260246000fd5b602002602001019067ffffffffffffffff16908167ffffffffffffffff16815250508080611fbc9061917c565b915050611e85565b5050505091939590929450565b600060d560009054906101000a900473ffffffffffffffffffffffffffffffffffffffff16905090565b6000806069600084815260200190815260200160002060009054906101000a900473ffffffffffffffffffffffffffffffffffffffff169050600073ffffffffffffffffffffffffffffffffffffffff168173ffffffffffffffffffffffffffffffffffffffff1614156120a4576040517f08c379a000000000000000000000000000000000000000000000000000000000815260040161209b9061886f565b60405180910390fd5b80915050919050565b60cf60009054906101000a900467ffffffffffffffff1681565b60008054906101000a900473ffffffffffffffffffffffffffffffffffffffff1673ffffffffffffffffffffffffffffffffffffffff163373ffffffffffffffffffffffffffffffffffffffff1614612155576040517f08c379a000000000000000000000000000000000000000000000000000000000815260040161214c90618a8f565b60405180910390fd5b600046905060048114806121695750606181145b6121a8576040517f08c379a000000000000000000000000000000000000000000000000000000000815260040161219f906187ef565b60405180910390fd5b8160cc60006101000a81548173ffffffffffffffffffffffffffffffffffffffff021916908373ffffffffffffffffffffffffffffffffffffffff1602179055505050565b60d760009054906101000a900473ffffffffffffffffffffffffffffffffffffffff1681565b60008054906101000a900473ffffffffffffffffffffffffffffffffffffffff1673ffffffffffffffffffffffffffffffffffffffff163373ffffffffffffffffffffffffffffffffffffffff16146122a1576040517f08c379a000000000000000000000000000000000000000000000000000000000815260040161229890618a8f565b60405180910390fd5b7ff9ffabca9c8276e99321725bcb43fb076a6c66a54b7f21c4e8146d8519b417dc600260009054906101000a900473ffffffffffffffffffffffffffffffffffffffff16826040516122f492919061839e565b60405180910390a180600260006101000a81548173ffffffffffffffffffffffffffffffffffffffff021916908373ffffffffffffffffffffffffffffffffffffffff16021790555050565b60008073ffffffffffffffffffffffffffffffffffffffff168273ffffffffffffffffffffffffffffffffffffffff1614156123b1576040517f08c379a00000000000000000000000000000000000000000000000000000000081526004016123a89061884f565b60405180910390fd5b606a60008373ffffffffffffffffffffffffffffffffffffffff1673ffffffffffffffffffffffffffffffffffffffff168152602001908152602001600020549050919050565b60008054906101000a900473ffffffffffffffffffffffffffffffffffffffff1673ffffffffffffffffffffffffffffffffffffffff163373ffffffffffffffffffffffffffffffffffffffff1614612486576040517f08c379a000000000000000000000000000000000000000000000000000000000815260040161247d90618a8f565b60405180910390fd5b7f70aea8d848e8a90fb7661b227dc522eb6395c3dac71b63cb59edd5c9899b236460008054906101000a900473ffffffffffffffffffffffffffffffffffffffff1660006040516124d892919061839e565b60405180910390a17ff9ffabca9c8276e99321725bcb43fb076a6c66a54b7f21c4e8146d8519b417dc600260009054906101000a900473ffffffffffffffffffffffffffffffffffffffff16600060405161253492919061839e565b60405180910390a17fb3d55174552271a4f1aaf36b72f50381e892171636b3fb5447fe00e995e7a37b600160009054906101000a900473ffffffffffffffffffffffffffffffffffffffff16600060405161259092919061839e565b60405180910390a160008060006101000a81548173ffffffffffffffffffffffffffffffffffffffff021916908373ffffffffffffffffffffffffffffffffffffffff1602179055506000600160006101000a81548173ffffffffffffffffffffffffffffffffffffffff021916908373ffffffffffffffffffffffffffffffffffffffff1602179055506000600260006101000a81548173ffffffffffffffffffffffffffffffffffffffff021916908373ffffffffffffffffffffffffffffffffffffffff160217905550565b60cc60009054906101000a900473ffffffffffffffffffffffffffffffffffffffff1681565b600060d454905090565b60d660009054906101000a900473ffffffffffffffffffffffffffffffffffffffff1681565b600080600060d1600085815260200190815260200160002090508060000160009054906101000a900467ffffffffffffffff168160000160089054906101000a900467ffffffffffffffff169250925050915091565b60008054906101000a900473ffffffffffffffffffffffffffffffffffffffff1681565b60606068805461273e90619119565b80601f016020809104026020016040519081016040528092919081815260200182805461276a90619119565b80156127b75780601f1061278c576101008083540402835291602001916127b7565b820191906000526020600020905b81548152906001019060200180831161279a57829003601f168201915b5050505050905090565b6127cc838383615670565b60cb60009054906101000a900473ffffffffffffffffffffffffffffffffffffffff1673ffffffffffffffffffffffffffffffffffffffff1663e030565e60d06000858152602001908152602001600020600001548560d1600086815260200190815260200160002060000160089054906101000a900467ffffffffffffffff166040518463ffffffff1660e01b815260040161286b93929190618aea565b600060405180830381600087803b15801561288557600080fd5b505af1158015612899573d6000803e3d6000fd5b50505050505050565b60ce5481565b6128ba6128b3614f4e565b8383615871565b5050565b600060026099541415612906576040517f08c379a00000000000000000000000000000000000000000000000000000000081526004016128fd90618a4f565b60405180910390fd5b6002609981905550600060d260008481526020019081526020016000205414612964576040517f08c379a000000000000000000000000000000000000000000000000000000000815260040161295b9061862f565b60405180910390fd5b600060cb60009054906101000a900473ffffffffffffffffffffffffffffffffffffffff1673ffffffffffffffffffffffffffffffffffffffff166301ffc9a77fb72080fb000000000000000000000000000000000000000000000000000000006040518263ffffffff1660e01b81526004016129e19190618577565b60206040518083038186803b1580156129f957600080fd5b505afa158015612a0d573d6000803e3d6000fd5b505050506040513d601f19601f82011682018060405250810190612a319190617482565b15612f6757600060cb60009054906101000a900473ffffffffffffffffffffffffffffffffffffffff1673ffffffffffffffffffffffffffffffffffffffff1663cab416b46040518163ffffffff1660e01b815260040160206040518083038186803b158015612aa057600080fd5b505afa158015612ab4573d6000803e3d6000fd5b505050506040513d601f19601f82011682018060405250810190612ad89190617175565b90508073ffffffffffffffffffffffffffffffffffffffff16636352211e856040518263ffffffff1660e01b8152600401612b139190618acf565b60206040518083038186803b158015612b2b57600080fd5b505afa158015612b3f573d6000803e3d6000fd5b505050506040513d601f19601f82011682018060405250810190612b639190617175565b915060cb60009054906101000a900473ffffffffffffffffffffffffffffffffffffffff1673ffffffffffffffffffffffffffffffffffffffff168273ffffffffffffffffffffffffffffffffffffffff1614612db657612bc53382866159de565b612c04576040517f08c379a0000000000000000000000000000000000000000000000000000000008152600401612bfb9061892f565b60405180910390fd5b8073ffffffffffffffffffffffffffffffffffffffff166342842e0e8330876040518463ffffffff1660e01b8152600401612c41939291906183f0565b600060405180830381600087803b158015612c5b57600080fd5b505af1158015612c6f573d6000803e3d6000fd5b505050508073ffffffffffffffffffffffffffffffffffffffff1663095ea7b360cb60009054906101000a900473ffffffffffffffffffffffffffffffffffffffff16866040518363ffffffff1660e01b8152600401612cd09291906184d4565b600060405180830381600087803b158015612cea57600080fd5b505af1158015612cfe573d6000803e3d6000fd5b5050505060cb60009054906101000a900473ffffffffffffffffffffffffffffffffffffffff1673ffffffffffffffffffffffffffffffffffffffff1663a694fc3a856040518263ffffffff1660e01b8152600401612d5d9190618acf565b602060405180830381600087803b158015612d7757600080fd5b505af1158015612d8b573d6000803e3d6000fd5b505050506040513d601f19601f82011682018060405250810190612daf9190617635565b9350612f61565b612de33360cb60009054906101000a900473ffffffffffffffffffffffffffffffffffffffff16866159de565b612e22576040517f08c379a0000000000000000000000000000000000000000000000000000000008152600401612e199061892f565b60405180910390fd5b60cb60009054906101000a900473ffffffffffffffffffffffffffffffffffffffff1673ffffffffffffffffffffffffffffffffffffffff16636352211e856040518263ffffffff1660e01b8152600401612e7d9190618acf565b60206040518083038186803b158015612e9557600080fd5b505afa158015612ea9573d6000803e3d6000fd5b505050506040513d601f19601f82011682018060405250810190612ecd9190617175565b915060cb60009054906101000a900473ffffffffffffffffffffffffffffffffffffffff1673ffffffffffffffffffffffffffffffffffffffff166342842e0e8330876040518463ffffffff1660e01b8152600401612f2e939291906183f0565b600060405180830381600087803b158015612f4857600080fd5b505af1158015612f5c573d6000803e3d6000fd5b505050505b50613112565b612f943360cb60009054906101000a900473ffffffffffffffffffffffffffffffffffffffff16856159de565b612fd3576040517f08c379a0000000000000000000000000000000000000000000000000000000008152600401612fca9061892f565b60405180910390fd5b60cb60009054906101000a900473ffffffffffffffffffffffffffffffffffffffff1673ffffffffffffffffffffffffffffffffffffffff16636352211e846040518263ffffffff1660e01b815260040161302e9190618acf565b60206040518083038186803b15801561304657600080fd5b505afa15801561305a573d6000803e3d6000fd5b505050506040513d601f19601f8201168201806040525081019061307e9190617175565b905060cb60009054906101000a900473ffffffffffffffffffffffffffffffffffffffff1673ffffffffffffffffffffffffffffffffffffffff166342842e0e8230866040518463ffffffff1660e01b81526004016130df939291906183f0565b600060405180830381600087803b1580156130f957600080fd5b505af115801561310d573d6000803e3d6000fd5b505050505b61312681844267ffffffffffffffff615083565b91508160d260008581526020019081526020016000208190555060cb60009054906101000a900473ffffffffffffffffffffffffffffffffffffffff1673ffffffffffffffffffffffffffffffffffffffff1663e030565e848367ffffffffffffffff6040518463ffffffff1660e01b81526004016131a793929190618aea565b600060405180830381600087803b1580156131c157600080fd5b505af11580156131d5573d6000803e3d6000fd5b50505050506001609981905550919050565b6000808214156131fa5760009050613229565b8160d2600060d06000868152602001908152602001600020600001548152602001908152602001600020541490505b919050565b60cd5481565b60608282905067ffffffffffffffff811115613279577f4e487b7100000000000000000000000000000000000000000000000000000000600052604160045260246000fd5b6040519080825280602002602001820160405280156132ac57816020015b60608152602001906001900390816132975790505b50905060005b838390508110156133d6576000803073ffffffffffffffffffffffffffffffffffffffff16868685818110613310577f4e487b7100000000000000000000000000000000000000000000000000000000600052603260045260246000fd5b90506020028101906133229190618cd3565b604051613330929190618292565b600060405180830381855af49150503d806000811461336b576040519150601f19603f3d011682016040523d82523d6000602084013e613370565b606091505b509150915081156133c157808484815181106133b5577f4e487b7100000000000000000000000000000000000000000000000000000000600052603260045260246000fd5b60200260200101819052505b505080806133ce9061917c565b9150506132b2565b5092915050565b600060cb60009054906101000a900473ffffffffffffffffffffffffffffffffffffffff1673ffffffffffffffffffffffffffffffffffffffff1663c2f1f14a836040518263ffffffff1660e01b815260040161343a9190618acf565b60206040518083038186803b15801561345257600080fd5b505afa158015613466573d6000803e3d6000fd5b505050506040513d601f19601f8201168201806040525081019061348a9190617175565b9050919050565b600060cf60009054906101000a900467ffffffffffffffff16905090565b6134c06134ba614f4e565b8361500f565b6134ff576040517f08c379a00000000000000000000000000000000000000000000000000000000081526004016134f6906189cf565b60405180910390fd5b61350b84848484615c56565b50505050565b61352261351c614f4e565b8461500f565b613561576040517f08c379a0000000000000000000000000000000000000000000000000000000008152600401613558906189cf565b60405180910390fd5b61356c838383613fe9565b6135ab576040517f08c379a00000000000000000000000000000000000000000000000000000000081526004016135a29061882f565b60405180910390fd5b600060d06000858152602001908152602001600020905060cb60009054906101000a900473ffffffffffffffffffffffffffffffffffffffff1673ffffffffffffffffffffffffffffffffffffffff166301ffc9a77fb72080fb000000000000000000000000000000000000000000000000000000006040518263ffffffff1660e01b815260040161363d9190618577565b60206040518083038186803b15801561365557600080fd5b505afa158015613669573d6000803e3d6000fd5b505050506040513d601f19601f8201168201806040525081019061368d9190617482565b156138485760cb60009054906101000a900473ffffffffffffffffffffffffffffffffffffffff1673ffffffffffffffffffffffffffffffffffffffff1663db006a7582600001546040518263ffffffff1660e01b81526004016136f19190618acf565b600060405180830381600087803b15801561370b57600080fd5b505af115801561371f573d6000803e3d6000fd5b50505050600060cb60009054906101000a900473ffffffffffffffffffffffffffffffffffffffff1673ffffffffffffffffffffffffffffffffffffffff1663cab416b46040518163ffffffff1660e01b815260040160206040518083038186803b15801561378d57600080fd5b505afa1580156137a1573d6000803e3d6000fd5b505050506040513d601f19601f820116820180604052508101906137c59190617175565b90508073ffffffffffffffffffffffffffffffffffffffff166342842e0e306137ed88611ffb565b85600001546040518463ffffffff1660e01b8152600401613810939291906183f0565b600060405180830381600087803b15801561382a57600080fd5b505af115801561383e573d6000803e3d6000fd5b50505050506138e6565b60cb60009054906101000a900473ffffffffffffffffffffffffffffffffffffffff1673ffffffffffffffffffffffffffffffffffffffff166342842e0e3061389087611ffb565b84600001546040518463ffffffff1660e01b81526004016138b3939291906183f0565b600060405180830381600087803b1580156138cd57600080fd5b505af11580156138e1573d6000803e3d6000fd5b505050505b6138ef84615cb2565b7fe3829d5463fae0f748d927f86f762044188c9ce53d91a394eb93e98354cc3092816000015485604051613924929190618bea565b60405180910390a150505050565b60d660009054906101000a900473ffffffffffffffffffffffffffffffffffffffff1673ffffffffffffffffffffffffffffffffffffffff163373ffffffffffffffffffffffffffffffffffffffff16146139c2576040517f08c379a00000000000000000000000000000000000000000000000000000000081526004016139b99061890f565b60405180910390fd5b600073ffffffffffffffffffffffffffffffffffffffff168173ffffffffffffffffffffffffffffffffffffffff1614158015613a4d575060d660009054906101000a900473ffffffffffffffffffffffffffffffffffffffff1673ffffffffffffffffffffffffffffffffffffffff168173ffffffffffffffffffffffffffffffffffffffff1614155b613a5657600080fd5b8060d760006101000a81548173ffffffffffffffffffffffffffffffffffffffff021916908373ffffffffffffffffffffffffffffffffffffffff16021790555050565b6060613aa582614ee2565b613ae4576040517f08c379a0000000000000000000000000000000000000000000000000000000008152600401613adb9061896f565b60405180910390fd5b600080613af284600061475b565b9250925050606080600060cb60009054906101000a900473ffffffffffffffffffffffffffffffffffffffff1673ffffffffffffffffffffffffffffffffffffffff166395d89b416040518163ffffffff1660e01b815260040160006040518083038186803b158015613b6457600080fd5b505afa158015613b78573d6000803e3d6000fd5b505050506040513d6000823e3d601f19601f82011682018060405250810190613ba191906174fd565b905060cb60009054906101000a900473ffffffffffffffffffffffffffffffffffffffff1673ffffffffffffffffffffffffffffffffffffffff166301ffc9a77fb72080fb000000000000000000000000000000000000000000000000000000006040518263ffffffff1660e01b8152600401613c1e9190618577565b60206040518083038186803b158015613c3657600080fd5b505afa158015613c4a573d6000803e3d6000fd5b505050506040513d601f19601f82011682018060405250810190613c6e9190617482565b15613d9e57600060cb60009054906101000a900473ffffffffffffffffffffffffffffffffffffffff1673ffffffffffffffffffffffffffffffffffffffff1663cab416b46040518163ffffffff1660e01b815260040160206040518083038186803b158015613cdd57600080fd5b505afa158015613cf1573d6000803e3d6000fd5b505050506040513d601f19601f82011682018060405250810190613d159190617175565b90508073ffffffffffffffffffffffffffffffffffffffff166395d89b416040518163ffffffff1660e01b815260040160006040518083038186803b158015613d5d57600080fd5b505afa158015613d71573d6000803e3d6000fd5b505050506040513d6000823e3d601f19601f82011682018060405250810190613d9a91906174fd565b9150505b613da7876131e7565b15613e0b5780604051602001613dbd91906182cd565b60405160208183030381529060405292506040518060400160405280600481526020017f764e4654000000000000000000000000000000000000000000000000000000008152509150613e66565b80604051602001613e1c91906182ab565b60405160208183030381529060405292506040518060400160405280600581526020017f646f4e465400000000000000000000000000000000000000000000000000000081525091505b73__$3ce9682d3d0e11855bb79e9b47e0925488$__630557ba5188858589896040518663ffffffff1660e01b8152600401613ea5959493929190618b89565b60006040518083038186803b158015613ebd57600080fd5b505af4158015613ed1573d6000803e3d6000fd5b505050506040513d6000823e3d601f19601f82011682018060405250810190613efa91906174fd565b95505050505050919050565b6000613f126001615de2565b90508015613f36576001600260156101000a81548160ff0219169083151502179055505b613f44888888888888615ed6565b8160d660006101000a81548173ffffffffffffffffffffffffffffffffffffffff021916908373ffffffffffffffffffffffffffffffffffffffff1602179055508015613fdf576000600260156101000a81548160ff0219169083151502179055507f7f26b83ff96e1f2b6a682f133852f6798a09c465da95921460cefb38474024986001604051613fd69190618592565b60405180910390a15b5050505050505050565b6000613ff4846131e7565b614033576040517f08c379a000000000000000000000000000000000000000000000000000000000815260040161402a906186cf565b60405180910390fd5b600060d060008681526020019081526020016000209050600060d160008686600081811061408a577f4e487b7100000000000000000000000000000000000000000000000000000000600052603260045260246000fd5b9050602002013581526020019081526020016000209050428160000160009054906101000a900467ffffffffffffffff1667ffffffffffffffff1611156140d6576000925050506142dc565b60008160000160089054906101000a900467ffffffffffffffff1690506000600190505b868690508110156142be5761415a878783818110614141577f4e487b7100000000000000000000000000000000000000000000000000000000600052603260045260246000fd5b905060200201358560020161563590919063ffffffff16565b878783818110614193577f4e487b7100000000000000000000000000000000000000000000000000000000600052603260045260246000fd5b905060200201356040516020016141aa91906182ef565b604051602081830303815290604052906141fa576040517f08c379a00000000000000000000000000000000000000000000000000000000081526004016141f191906185ad565b60405180910390fd5b5060d16000888884818110614238577f4e487b7100000000000000000000000000000000000000000000000000000000600052603260045260246000fd5b90506020020135815260200190815260200160002092508260000160009054906101000a900467ffffffffffffffff1667ffffffffffffffff1660018361427f9190618f38565b67ffffffffffffffff1614156142ab578260000160089054906101000a900467ffffffffffffffff1691505b80806142b69061917c565b9150506140fa565b5067ffffffffffffffff80168167ffffffffffffffff161493505050505b9392505050565b6142f46142ee614f4e565b8561500f565b614333576040517f08c379a000000000000000000000000000000000000000000000000000000000815260040161432a906189cf565b60405180910390fd5b61433d8484611cfb565b61437c576040517f08c379a0000000000000000000000000000000000000000000000000000000008152600401614373906187cf565b60405180910390fd5b61438582611ffb565b73ffffffffffffffffffffffffffffffffffffffff166143a485611ffb565b73ffffffffffffffffffffffffffffffffffffffff16146143fa576040517f08c379a00000000000000000000000000000000000000000000000000000000081526004016143f1906185ef565b60405180910390fd5b60d060008381526020019081526020016000206000015460d060008681526020019081526020016000206000015414614468576040517f08c379a000000000000000000000000000000000000000000000000000000000815260040161445f906186af565b60405180910390fd5b6144728282611cfb565b6144b1576040517f08c379a00000000000000000000000000000000000000000000000000000000081526004016144a8906187cf565b60405180910390fd5b600060d160008581526020019081526020016000209050600060d1600084815260200190815260200160002090508060000160009054906101000a900467ffffffffffffffff1667ffffffffffffffff168260000160089054906101000a900467ffffffffffffffff1667ffffffffffffffff1610156145d9578060000160009054906101000a900467ffffffffffffffff1667ffffffffffffffff1660018360000160089054906101000a900467ffffffffffffffff166145739190618f38565b67ffffffffffffffff161461458757600080fd5b8160000160009054906101000a900467ffffffffffffffff168160000160006101000a81548167ffffffffffffffff021916908367ffffffffffffffff1602179055506145d486866150aa565b6146d0565b8160000160009054906101000a900467ffffffffffffffff1667ffffffffffffffff168160000160089054906101000a900467ffffffffffffffff1667ffffffffffffffff1610156146cf578160000160009054906101000a900467ffffffffffffffff1667ffffffffffffffff1660018260000160089054906101000a900467ffffffffffffffff1661466d9190618f38565b67ffffffffffffffff161461468157600080fd5b8160000160089054906101000a900467ffffffffffffffff168160000160086101000a81548167ffffffffffffffff021916908367ffffffffffffffff1602179055506146ce86866150aa565b5b5b60006146f060d06000898152602001908152602001600020600201615216565b1415614700576146ff8661522b565b5b505050505050565b6060600060d06000848152602001908152602001600020905061472d8160020161564f565b915050919050565b600160009054906101000a900473ffffffffffffffffffffffffffffffffffffffff1681565b60008060008060d06000878152602001908152602001600020905061478281600201615216565b85106147c3576040517f08c379a00000000000000000000000000000000000000000000000000000000081526004016147ba9061876f565b60405180910390fd5b6147d9858260020161561b90919063ffffffff16565b93506147e4846126b5565b8093508194505050509250925092565b6000606c60008473ffffffffffffffffffffffffffffffffffffffff1673ffffffffffffffffffffffffffffffffffffffff16815260200190815260200160002060008373ffffffffffffffffffffffffffffffffffffffff1673ffffffffffffffffffffffffffffffffffffffff16815260200190815260200160002060009054906101000a900460ff16905092915050565b600160009054906101000a900473ffffffffffffffffffffffffffffffffffffffff1673ffffffffffffffffffffffffffffffffffffffff163373ffffffffffffffffffffffffffffffffffffffff1614614918576040517f08c379a000000000000000000000000000000000000000000000000000000000815260040161490f9061898f565b60405180910390fd5b7f70aea8d848e8a90fb7661b227dc522eb6395c3dac71b63cb59edd5c9899b236460008054906101000a900473ffffffffffffffffffffffffffffffffffffffff16600160009054906101000a900473ffffffffffffffffffffffffffffffffffffffff1660405161498b92919061839e565b60405180910390a1600160009054906101000a900473ffffffffffffffffffffffffffffffffffffffff166000806101000a81548173ffffffffffffffffffffffffffffffffffffffff021916908373ffffffffffffffffffffffffffffffffffffffff16021790555060007fb3d55174552271a4f1aaf36b72f50381e892171636b3fb5447fe00e995e7a37b600160009054906101000a900473ffffffffffffffffffffffffffffffffffffffff1682604051614a4a92919061839e565b60405180910390a180600160006101000a81548173ffffffffffffffffffffffffffffffffffffffff021916908373ffffffffffffffffffffffffffffffffffffffff16021790555050565b600260009054906101000a900473ffffffffffffffffffffffffffffffffffffffff1673ffffffffffffffffffffffffffffffffffffffff163373ffffffffffffffffffffffffffffffffffffffff161480614b3d575060008054906101000a900473ffffffffffffffffffffffffffffffffffffffff1673ffffffffffffffffffffffffffffffffffffffff163373ffffffffffffffffffffffffffffffffffffffff16145b614b7c576040517f08c379a0000000000000000000000000000000000000000000000000000000008152600401614b73906185cf565b60405180910390fd5b8060cf60006101000a81548167ffffffffffffffff021916908367ffffffffffffffff16021790555050565b60008054906101000a900473ffffffffffffffffffffffffffffffffffffffff1673ffffffffffffffffffffffffffffffffffffffff163373ffffffffffffffffffffffffffffffffffffffff1614614c36576040517f08c379a0000000000000000000000000000000000000000000000000000000008152600401614c2d90618a8f565b60405180910390fd5b7fb3d55174552271a4f1aaf36b72f50381e892171636b3fb5447fe00e995e7a37b600160009054906101000a900473ffffffffffffffffffffffffffffffffffffffff1682604051614c8992919061839e565b60405180910390a180600160006101000a81548173ffffffffffffffffffffffffffffffffffffffff021916908373ffffffffffffffffffffffffffffffffffffffff16021790555050565b600260009054906101000a900473ffffffffffffffffffffffffffffffffffffffff1681565b6000614d1b60d06000848152602001908152602001600020600201615216565b9050919050565b600060d06000858152602001908152602001600020905060008060005b85859050811015614df857858582818110614d83577f4e487b7100000000000000000000000000000000000000000000000000000000600052603260045260246000fd5b905060200201359250614d968784611cfb565b15614de55760d160008481526020019081526020016000209150428260000160089054906101000a900467ffffffffffffffff1667ffffffffffffffff1611614de457614de387846150aa565b5b5b8080614df09061917c565b915050614d3f565b506000614e0784600201615216565b1415614e6057614e16866131e7565b15614e56576040517f08c379a0000000000000000000000000000000000000000000000000000000008152600401614e4d906186ef565b60405180910390fd5b614e5f8661522b565b5b505050505050565b60007f234f3aae000000000000000000000000000000000000000000000000000000007bffffffffffffffffffffffffffffffffffffffffffffffffffffffff1916827bffffffffffffffffffffffffffffffffffffffffffffffffffffffff19161480614edb5750614eda82616012565b5b9050919050565b60008073ffffffffffffffffffffffffffffffffffffffff166069600084815260200190815260200160002060009054906101000a900473ffffffffffffffffffffffffffffffffffffffff1673ffffffffffffffffffffffffffffffffffffffff1614159050919050565b600033905090565b81606b600083815260200190815260200160002060006101000a81548173ffffffffffffffffffffffffffffffffffffffff021916908373ffffffffffffffffffffffffffffffffffffffff160217905550808273ffffffffffffffffffffffffffffffffffffffff16614fc983611ffb565b73ffffffffffffffffffffffffffffffffffffffff167f8c5be1e5ebec7d5bd14f71427d1e84f3dd0314c0f7b2291e5b200ac8c7c3b92560405160405180910390a45050565b600060cc60009054906101000a900473ffffffffffffffffffffffffffffffffffffffff1673ffffffffffffffffffffffffffffffffffffffff168373ffffffffffffffffffffffffffffffffffffffff161415615070576001905061507d565b61507a83836160f4565b90505b92915050565b60006150908484846161d2565b5061509d8560cd54616254565b60cd549050949350505050565b60d16000828152602001908152602001600020600080820160006101000a81549067ffffffffffffffff02191690556000820160086101000a81549067ffffffffffffffff0219169055505061511e8160d0600085815260200190815260200160002060020161627290919063ffffffff16565b506000600167ffffffffffffffff811115615162577f4e487b7100000000000000000000000000000000000000000000000000000000600052604160045260246000fd5b6040519080825280602002602001820160405280156151905781602001602082028036833780820191505090505b50905081816000815181106151ce577f4e487b7100000000000000000000000000000000000000000000000000000000600052603260045260246000fd5b6020026020010181815250507fdaf2d83211561a92f21e9184ba96aac6a054d6e4132aa90592fd88eeff75879c81604051615209919061851f565b60405180910390a1505050565b60006152248260000161628c565b9050919050565b6152348161629d565b60d060008281526020019081526020016000206000808201600090556001820160006101000a81549067ffffffffffffffff0219169055600282016000808201600080820160006152859190616d83565b50505050505050565b60ce60008154809291906152a19061917c565b919050555060405180604001604052808367ffffffffffffffff1681526020018267ffffffffffffffff1681525060d1600060ce54815260200190815260200160002060008201518160000160006101000a81548167ffffffffffffffff021916908367ffffffffffffffff16021790555060208201518160000160086101000a81548167ffffffffffffffff021916908367ffffffffffffffff16021790555090505061536f60ce5460d060008681526020019081526020016000206002016163ba90919063ffffffff16565b507fd89b3a389fda649f6511ea8da7b3cda710b4478a1a29d5e7a92c89b0b669aa1260ce548484846040516153a79493929190618c13565b60405180910390a1505050565b8273ffffffffffffffffffffffffffffffffffffffff166153d482611ffb565b73ffffffffffffffffffffffffffffffffffffffff161461542a576040517f08c379a00000000000000000000000000000000000000000000000000000000081526004016154219061866f565b60405180910390fd5b600073ffffffffffffffffffffffffffffffffffffffff168273ffffffffffffffffffffffffffffffffffffffff16141561549a576040517f08c379a00000000000000000000000000000000000000000000000000000000081526004016154919061872f565b60405180910390fd5b6154a58383836163d4565b6154b0600082614f56565b6001606a60008573ffffffffffffffffffffffffffffffffffffffff1673ffffffffffffffffffffffffffffffffffffffff16815260200190815260200160002060008282546155009190618f76565b925050819055506001606a60008473ffffffffffffffffffffffffffffffffffffffff1673ffffffffffffffffffffffffffffffffffffffff16815260200190815260200160002060008282546155579190618ee2565b92505081905550816069600083815260200190815260200160002060006101000a81548173ffffffffffffffffffffffffffffffffffffffff021916908373ffffffffffffffffffffffffffffffffffffffff160217905550808273ffffffffffffffffffffffffffffffffffffffff168473ffffffffffffffffffffffffffffffffffffffff167fddf252ad1be2c89b69c2b068fc378daa952ba7f163c4a11628f55a4df523b3ef60405160405180910390a4615616838383616445565b505050565b600061562a836000018361644a565b60001c905092915050565b6000615647836000018360001b61649b565b905092915050565b6060600061565f836000016164be565b905060608190508092505050919050565b61568161567b614f4e565b8361500f565b6156c0576040517f08c379a00000000000000000000000000000000000000000000000000000000081526004016156b79061860f565b60405180910390fd5b600060d060008481526020019081526020016000209050600060d160008481526020019081526020016000209050428160000160089054906101000a900467ffffffffffffffff1667ffffffffffffffff161015615753576040517f08c379a000000000000000000000000000000000000000000000000000000000815260040161574a90618a6f565b60405180910390fd5b428160000160009054906101000a900467ffffffffffffffff1667ffffffffffffffff1611156157b8576040517f08c379a00000000000000000000000000000000000000000000000000000000081526004016157af90618aaf565b60405180910390fd5b6157ce838360020161563590919063ffffffff16565b61580d576040517f08c379a0000000000000000000000000000000000000000000000000000000008152600401615804906187cf565b60405180910390fd5b7f241f46f4ab26147c933bd52501926d0ff84727224002739590fdfcf7a6559f123386868686600001548660000160089054906101000a900467ffffffffffffffff1660405161586296959493929190618473565b60405180910390a15050505050565b8173ffffffffffffffffffffffffffffffffffffffff168373ffffffffffffffffffffffffffffffffffffffff1614156158e0576040517f08c379a00000000000000000000000000000000000000000000000000000000081526004016158d79061874f565b60405180910390fd5b80606c60008573ffffffffffffffffffffffffffffffffffffffff1673ffffffffffffffffffffffffffffffffffffffff16815260200190815260200160002060008473ffffffffffffffffffffffffffffffffffffffff1673ffffffffffffffffffffffffffffffffffffffff16815260200190815260200160002060006101000a81548160ff0219169083151502179055508173ffffffffffffffffffffffffffffffffffffffff168373ffffffffffffffffffffffffffffffffffffffff167f17307eab39ab6107e8899845ad3d59bd9653f200f220920489ca2b5937696c31836040516159d19190618541565b60405180910390a3505050565b600060cc60009054906101000a900473ffffffffffffffffffffffffffffffffffffffff1673ffffffffffffffffffffffffffffffffffffffff163373ffffffffffffffffffffffffffffffffffffffff161415615a3f5760019050615c4f565b60008373ffffffffffffffffffffffffffffffffffffffff16636352211e846040518263ffffffff1660e01b8152600401615a7a9190618acf565b60206040518083038186803b158015615a9257600080fd5b505afa158015615aa6573d6000803e3d6000fd5b505050506040513d601f19601f82011682018060405250810190615aca9190617175565b90508073ffffffffffffffffffffffffffffffffffffffff168573ffffffffffffffffffffffffffffffffffffffff161480615bb957508473ffffffffffffffffffffffffffffffffffffffff168473ffffffffffffffffffffffffffffffffffffffff1663081812fc856040518263ffffffff1660e01b8152600401615b519190618acf565b60206040518083038186803b158015615b6957600080fd5b505afa158015615b7d573d6000803e3d6000fd5b505050506040513d601f19601f82011682018060405250810190615ba19190617175565b73ffffffffffffffffffffffffffffffffffffffff16145b80615c4b57508373ffffffffffffffffffffffffffffffffffffffff1663e985e9c582876040518363ffffffff1660e01b8152600401615bfa92919061839e565b60206040518083038186803b158015615c1257600080fd5b505afa158015615c26573d6000803e3d6000fd5b505050506040513d601f19601f82011682018060405250810190615c4a9190617482565b5b9150505b9392505050565b615c618484846153b4565b615c6d8484848461651a565b615cac576040517f08c379a0000000000000000000000000000000000000000000000000000000008152600401615ca39061864f565b60405180910390fd5b50505050565b600060d0600083815260200190815260200160002090506000615cd782600201615216565b905060005b81811015615d585760d16000615cfe838660020161561b90919063ffffffff16565b8152602001908152602001600020600080820160006101000a81549067ffffffffffffffff02191690556000820160086101000a81549067ffffffffffffffff021916905550508080615d509061917c565b915050615cdc565b507fdaf2d83211561a92f21e9184ba96aac6a054d6e4132aa90592fd88eeff75879c615d868360020161564f565b604051615d93919061851f565b60405180910390a181600201600080820160008082016000615db59190616d83565b5050505060d260008360000154815260200190815260200160002060009055615ddd8361522b565b505050565b6000600260159054906101000a900460ff1615615e5a5760018260ff16148015615e125750615e10306166b1565b155b615e51576040517f08c379a0000000000000000000000000000000000000000000000000000000008152600401615e48906188af565b60405180910390fd5b60009050615ed1565b8160ff16600260149054906101000a900460ff1660ff1610615eb1576040517f08c379a0000000000000000000000000000000000000000000000000000000008152600401615ea8906188af565b60405180910390fd5b81600260146101000a81548160ff021916908360ff160217905550600190505b919050565b600260159054906101000a900460ff16615f25576040517f08c379a0000000000000000000000000000000000000000000000000000000008152600401615f1c90618a0f565b60405180910390fd5b615f2f86866166d4565b615f37616731565b615f41828261678a565b8360cb60006101000a81548173ffffffffffffffffffffffffffffffffffffffff021916908373ffffffffffffffffffffffffffffffffffffffff1602179055508260cc60006101000a81548173ffffffffffffffffffffffffffffffffffffffff021916908373ffffffffffffffffffffffffffffffffffffffff160217905550600160d360006101000a81548160ff02191690831515021790555062ed4e0060cf60006101000a81548167ffffffffffffffff021916908367ffffffffffffffff160217905550505050505050565b60007f80ac58cd000000000000000000000000000000000000000000000000000000007bffffffffffffffffffffffffffffffffffffffffffffffffffffffff1916827bffffffffffffffffffffffffffffffffffffffffffffffffffffffff191614806160dd57507f5b5e139f000000000000000000000000000000000000000000000000000000007bffffffffffffffffffffffffffffffffffffffffffffffffffffffff1916827bffffffffffffffffffffffffffffffffffffffffffffffffffffffff1916145b806160ed57506160ec8261680f565b5b9050919050565b60006160ff82614ee2565b61613e576040517f08c379a00000000000000000000000000000000000000000000000000000000081526004016161359061878f565b60405180910390fd5b600061614983611ffb565b90508073ffffffffffffffffffffffffffffffffffffffff168473ffffffffffffffffffffffffffffffffffffffff16148061618b575061618a81856147f4565b5b806161c957508373ffffffffffffffffffffffffffffffffffffffff166161b184610eb9565b73ffffffffffffffffffffffffffffffffffffffff16145b91505092915050565b600060cd60008154809291906161e79061917c565b9190505550600060d0600060cd548152602001908152602001600020905084816000018190555060008160010160006101000a81548167ffffffffffffffff021916908367ffffffffffffffff16021790555061624760cd54858561528e565b60cd549150509392505050565b61626e828260405180602001604052806000815250616879565b5050565b6000616284836000018360001b6168d4565b905092915050565b600081600001805490509050919050565b60006162a882611ffb565b90506162b6816000846163d4565b6162c1600083614f56565b6001606a60008373ffffffffffffffffffffffffffffffffffffffff1673ffffffffffffffffffffffffffffffffffffffff16815260200190815260200160002060008282546163119190618f76565b925050819055506069600083815260200190815260200160002060006101000a81549073ffffffffffffffffffffffffffffffffffffffff021916905581600073ffffffffffffffffffffffffffffffffffffffff168273ffffffffffffffffffffffffffffffffffffffff167fddf252ad1be2c89b69c2b068fc378daa952ba7f163c4a11628f55a4df523b3ef60405160405180910390a46163b681600084616445565b5050565b60006163cc836000018360001b616a5a565b905092915050565b6163df838383616aca565b60d06000828152602001908152602001600020600101600081819054906101000a900467ffffffffffffffff1680929190616419906191c5565b91906101000a81548167ffffffffffffffff021916908367ffffffffffffffff16021790555050505050565b505050565b6000826000018281548110616488577f4e487b7100000000000000000000000000000000000000000000000000000000600052603260045260246000fd5b9060005260206000200154905092915050565b600080836001016000848152602001908152602001600020541415905092915050565b60608160000180548060200260200160405190810160405280929190818152602001828054801561650e57602002820191906000526020600020905b8154815260200190600101908083116164fa575b50505050509050919050565b600061653b8473ffffffffffffffffffffffffffffffffffffffff166166b1565b156166a4578373ffffffffffffffffffffffffffffffffffffffff1663150b7a02616564614f4e565b8786866040518563ffffffff1660e01b81526004016165869493929190618427565b602060405180830381600087803b1580156165a057600080fd5b505af19250505080156165d157506040513d601f19601f820116820180604052508101906165ce91906174d4565b60015b616654573d8060008114616601576040519150601f19603f3d011682016040523d82523d6000602084013e616606565b606091505b5060008151141561664c576040517f08c379a00000000000000000000000000000000000000000000000000000000081526004016166439061864f565b60405180910390fd5b805181602001fd5b63150b7a0260e01b7bffffffffffffffffffffffffffffffffffffffffffffffffffffffff1916817bffffffffffffffffffffffffffffffffffffffffffffffffffffffff1916149150506166a9565b600190505b949350505050565b6000808273ffffffffffffffffffffffffffffffffffffffff163b119050919050565b600260159054906101000a900460ff16616723576040517f08c379a000000000000000000000000000000000000000000000000000000000815260040161671a90618a0f565b60405180910390fd5b61672d8282616acf565b5050565b600260159054906101000a900460ff16616780576040517f08c379a000000000000000000000000000000000000000000000000000000000815260040161677790618a0f565b60405180910390fd5b616788616b50565b565b816000806101000a81548173ffffffffffffffffffffffffffffffffffffffff021916908373ffffffffffffffffffffffffffffffffffffffff16021790555080600260006101000a81548173ffffffffffffffffffffffffffffffffffffffff021916908373ffffffffffffffffffffffffffffffffffffffff1602179055505050565b60007f01ffc9a7000000000000000000000000000000000000000000000000000000007bffffffffffffffffffffffffffffffffffffffffffffffffffffffff1916827bffffffffffffffffffffffffffffffffffffffffffffffffffffffff1916149050919050565b6168838383616ba9565b616890600084848461651a565b6168cf576040517f08c379a00000000000000000000000000000000000000000000000000000000081526004016168c69061864f565b60405180910390fd5b505050565b60008083600101600084815260200190815260200160002054905060008114616a4e5760006001826169069190618f76565b905060006001866000018054905061691e9190618f76565b90508181146169d9576000866000018281548110616965577f4e487b7100000000000000000000000000000000000000000000000000000000600052603260045260246000fd5b90600052602060002001549050808760000184815481106169af577f4e487b7100000000000000000000000000000000000000000000000000000000600052603260045260246000fd5b90600052602060002001819055508387600101600083815260200190815260200160002081905550505b85600001805480616a13577f4e487b7100000000000000000000000000000000000000000000000000000000600052603160045260246000fd5b600190038181906000526020600020016000905590558560010160008681526020019081526020016000206000905560019350505050616a54565b60009150505b92915050565b6000616a66838361649b565b616abf578260000182908060018154018082558091505060019003906000526020600020016000909190919091505582600001805490508360010160008481526020019081526020016000208190555060019050616ac4565b600090505b92915050565b505050565b600260159054906101000a900460ff16616b1e576040517f08c379a0000000000000000000000000000000000000000000000000000000008152600401616b1590618a0f565b60405180910390fd5b8160679080519060200190616b34929190616da4565b508060689080519060200190616b4b929190616da4565b505050565b600260159054906101000a900460ff16616b9f576040517f08c379a0000000000000000000000000000000000000000000000000000000008152600401616b9690618a0f565b60405180910390fd5b6001609981905550565b600073ffffffffffffffffffffffffffffffffffffffff168273ffffffffffffffffffffffffffffffffffffffff161415616c19576040517f08c379a0000000000000000000000000000000000000000000000000000000008152600401616c10906188cf565b60405180910390fd5b616c2281614ee2565b15616c62576040517f08c379a0000000000000000000000000000000000000000000000000000000008152600401616c599061868f565b60405180910390fd5b616c6e600083836163d4565b6001606a60008473ffffffffffffffffffffffffffffffffffffffff1673ffffffffffffffffffffffffffffffffffffffff1681526020019081526020016000206000828254616cbe9190618ee2565b92505081905550816069600083815260200190815260200160002060006101000a81548173ffffffffffffffffffffffffffffffffffffffff021916908373ffffffffffffffffffffffffffffffffffffffff160217905550808273ffffffffffffffffffffffffffffffffffffffff16600073ffffffffffffffffffffffffffffffffffffffff167fddf252ad1be2c89b69c2b068fc378daa952ba7f163c4a11628f55a4df523b3ef60405160405180910390a4616d7f60008383616445565b5050565b5080546000825590600052602060002090810190616da19190616e2a565b50565b828054616db090619119565b90600052602060002090601f016020900481019282616dd25760008555616e19565b82601f10616deb57805160ff1916838001178555616e19565b82800160010185558215616e19579182015b82811115616e18578251825591602001919060010190616dfd565b5b509050616e269190616e47565b5090565b5b80821115616e43576000816000905550600101616e2b565b5090565b5b80821115616e60576000816000905550600101616e48565b5090565b6000616e77616e7284618d4f565b618d2a565b905082815260208101848484011115616e8f57600080fd5b616e9a8482856190d7565b509392505050565b6000616eb5616eb084618d80565b618d2a565b905082815260208101848484011115616ecd57600080fd5b616ed88482856190d7565b509392505050565b6000616ef3616eee84618d80565b618d2a565b905082815260208101848484011115616f0b57600080fd5b616f168482856190e6565b509392505050565b600081359050616f2d81619b8e565b92915050565b600081519050616f4281619b8e565b92915050565b600081359050616f5781619ba5565b92915050565b60008083601f840112616f6f57600080fd5b8235905067ffffffffffffffff811115616f8857600080fd5b602083019150836020820283011115616fa057600080fd5b9250929050565b60008083601f840112616fb957600080fd5b8235905067ffffffffffffffff811115616fd257600080fd5b602083019150836020820283011115616fea57600080fd5b9250929050565b60008135905061700081619bbc565b92915050565b60008151905061701581619bbc565b92915050565b60008135905061702a81619bd3565b92915050565b60008151905061703f81619bd3565b92915050565b60008083601f84011261705757600080fd5b8235905067ffffffffffffffff81111561707057600080fd5b60208301915083600182028301111561708857600080fd5b9250929050565b600082601f8301126170a057600080fd5b81356170b0848260208601616e64565b91505092915050565b600082601f8301126170ca57600080fd5b81356170da848260208601616ea2565b91505092915050565b600082601f8301126170f457600080fd5b8151617104848260208601616ee0565b91505092915050565b60008135905061711c81619bea565b92915050565b60008151905061713181619bea565b92915050565b60008135905061714681619c01565b92915050565b60006020828403121561715e57600080fd5b600061716c84828501616f1e565b91505092915050565b60006020828403121561718757600080fd5b600061719584828501616f33565b91505092915050565b6000602082840312156171b057600080fd5b60006171be84828501616f48565b91505092915050565b600080604083850312156171da57600080fd5b60006171e885828601616f1e565b92505060206171f985828601616f1e565b9150509250929050565b60008060006060848603121561721857600080fd5b600061722686828701616f1e565b935050602061723786828701616f1e565b92505060406172488682870161710d565b9150509250925092565b60008060008060006080868803121561726a57600080fd5b600061727888828901616f1e565b955050602061728988828901616f1e565b945050604061729a8882890161710d565b935050606086013567ffffffffffffffff8111156172b757600080fd5b6172c388828901617045565b92509250509295509295909350565b600080600080608085870312156172e857600080fd5b60006172f687828801616f1e565b945050602061730787828801616f1e565b93505060406173188782880161710d565b925050606085013567ffffffffffffffff81111561733557600080fd5b6173418782880161708f565b91505092959194509250565b6000806040838503121561736057600080fd5b600061736e85828601616f1e565b925050602061737f85828601616ff1565b9150509250929050565b6000806040838503121561739c57600080fd5b60006173aa85828601616f1e565b92505060206173bb8582860161710d565b9150509250929050565b6000806000606084860312156173da57600080fd5b60006173e886828701616f1e565b93505060206173f98682870161710d565b925050604061740a8682870161710d565b9150509250925092565b6000806020838503121561742757600080fd5b600083013567ffffffffffffffff81111561744157600080fd5b61744d85828601616f5d565b92509250509250929050565b60006020828403121561746b57600080fd5b600061747984828501616ff1565b91505092915050565b60006020828403121561749457600080fd5b60006174a284828501617006565b91505092915050565b6000602082840312156174bd57600080fd5b60006174cb8482850161701b565b91505092915050565b6000602082840312156174e657600080fd5b60006174f484828501617030565b91505092915050565b60006020828403121561750f57600080fd5b600082015167ffffffffffffffff81111561752957600080fd5b617535848285016170e3565b91505092915050565b600080600080600080600060e0888a03121561755957600080fd5b600088013567ffffffffffffffff81111561757357600080fd5b61757f8a828b016170b9565b975050602088013567ffffffffffffffff81111561759c57600080fd5b6175a88a828b016170b9565b96505060406175b98a828b01616f1e565b95505060606175ca8a828b01616f1e565b94505060806175db8a828b01616f1e565b93505060a06175ec8a828b01616f1e565b92505060c06175fd8a828b01616f1e565b91505092959891949750929550565b60006020828403121561761e57600080fd5b600061762c8482850161710d565b91505092915050565b60006020828403121561764757600080fd5b600061765584828501617122565b91505092915050565b60008060006040848603121561767357600080fd5b60006176818682870161710d565b935050602084013567ffffffffffffffff81111561769e57600080fd5b6176aa86828701616fa7565b92509250509250925092565b600080604083850312156176c957600080fd5b60006176d78582860161710d565b92505060206176e88582860161710d565b9150509250929050565b6000806000806080858703121561770857600080fd5b60006177168782880161710d565b94505060206177278782880161710d565b93505060406177388782880161710d565b92505060606177498782880161710d565b91505092959194509250565b60008060008060008060c0878903121561776e57600080fd5b600061777c89828a0161710d565b965050602061778d89828a0161710d565b955050604061779e89828a01617137565b94505060606177af89828a01617137565b93505060806177c089828a01616f1e565b92505060a06177d189828a01616f1e565b9150509295509295509295565b6000602082840312156177f057600080fd5b60006177fe84828501617137565b91505092915050565b60006178138383617ae7565b905092915050565b600061782783836181ec565b60208301905092915050565b600061783f8383618219565b60208301905092915050565b6000617857838361823f565b60208301905092915050565b600061786f838361826c565b60208301905092915050565b6178848161908f565b82525050565b61789381618ff0565b82525050565b6178a281618fde565b82525050565b60006178b382618de1565b6178bd8185618e3f565b9350836020820285016178cf85618db1565b8060005b8581101561790b57848403895281516178ec8582617807565b94506178f783618e18565b925060208a019950506001810190506178d3565b50829750879550505050505092915050565b600061792882618dec565b6179328185618e50565b935061793d83618dc1565b8060005b8381101561796e578151617955888261781b565b975061796083618e25565b925050600181019050617941565b5085935050505092915050565b600061798682618dec565b6179908185618e61565b935061799b83618dc1565b8060005b838110156179cc5781516179b38882617833565b97506179be83618e25565b92505060018101905061799f565b5085935050505092915050565b60006179e482618df7565b6179ee8185618e6c565b93506179f983618dd1565b8060005b83811015617a2a578151617a11888261784b565b9750617a1c83618e32565b9250506001810190506179fd565b5085935050505092915050565b6000617a4282618df7565b617a4c8185618e7d565b9350617a5783618dd1565b8060005b83811015617a88578151617a6f8882617863565b9750617a7a83618e32565b925050600181019050617a5b565b5085935050505092915050565b617a9e81619002565b82525050565b617aad8161900e565b82525050565b617abc81619018565b82525050565b6000617ace8385618eaa565b9350617adb8385846190d7565b82840190509392505050565b6000617af282618e02565b617afc8185618e88565b9350617b0c8185602086016190e6565b617b158161929f565b840191505092915050565b6000617b2b82618e02565b617b358185618e99565b9350617b458185602086016190e6565b617b4e8161929f565b840191505092915050565b617b62816190a1565b82525050565b6000617b7382618e0d565b617b7d8185618eb5565b9350617b8d8185602086016190e6565b617b968161929f565b840191505092915050565b6000617bac82618e0d565b617bb68185618ec6565b9350617bc68185602086016190e6565b617bcf8161929f565b840191505092915050565b6000617be582618e0d565b617bef8185618ed7565b9350617bff8185602086016190e6565b80840191505092915050565b6000617c18600983618eb5565b9150617c23826192bd565b602082019050919050565b6000617c3b600a83618eb5565b9150617c46826192e6565b602082019050919050565b6000617c5e600383618ed7565b9150617c698261930f565b600382019050919050565b6000617c81601683618eb5565b9150617c8c82619338565b602082019050919050565b6000617ca4600e83618eb5565b9150617caf82619361565b602082019050919050565b6000617cc7603283618eb5565b9150617cd28261938a565b604082019050919050565b6000617cea602583618eb5565b9150617cf5826193d9565b604082019050919050565b6000617d0d601c83618eb5565b9150617d1882619428565b602082019050919050565b6000617d30600883618eb5565b9150617d3b82619451565b602082019050919050565b6000617d53600883618eb5565b9150617d5e8261947a565b602082019050919050565b6000617d76601183618eb5565b9150617d81826194a3565b602082019050919050565b6000617d99601783618eb5565b9150617da4826194cc565b602082019050919050565b6000617dbc602483618eb5565b9150617dc7826194f5565b604082019050919050565b6000617ddf601983618eb5565b9150617dea82619544565b602082019050919050565b6000617e02600c83618eb5565b9150617e0d8261956d565b602082019050919050565b6000617e25602c83618eb5565b9150617e3082619596565b604082019050919050565b6000617e48601483618eb5565b9150617e53826195e5565b602082019050919050565b6000617e6b600c83618eb5565b9150617e768261960e565b602082019050919050565b6000617e8e601883618eb5565b9150617e9982619637565b602082019050919050565b6000617eb1603883618eb5565b9150617ebc82619660565b604082019050919050565b6000617ed4600d83618eb5565b9150617edf826196af565b602082019050919050565b6000617ef7602a83618eb5565b9150617f02826196d8565b604082019050919050565b6000617f1a602983618eb5565b9150617f2582619727565b604082019050919050565b6000617f3d601483618eb5565b9150617f4882619776565b602082019050919050565b6000617f60602e83618eb5565b9150617f6b8261979f565b604082019050919050565b6000617f83602083618eb5565b9150617f8e826197ee565b602082019050919050565b6000617fa6602c83618eb5565b9150617fb182619817565b604082019050919050565b6000617fc9601083618eb5565b9150617fd482619866565b602082019050919050565b6000617fec601683618eb5565b9150617ff78261988f565b602082019050919050565b600061800f601083618eb5565b915061801a826198b8565b602082019050919050565b6000618032602f83618eb5565b915061803d826198e1565b604082019050919050565b6000618055601083618eb5565b915061806082619930565b602082019050919050565b6000618078602183618eb5565b915061808382619959565b604082019050919050565b600061809b603183618eb5565b91506180a6826199a8565b604082019050919050565b60006180be600d83618eb5565b91506180c9826199f7565b602082019050919050565b60006180e1602b83618eb5565b91506180ec82619a20565b604082019050919050565b6000618104600283618ed7565b915061810f82619a6f565b600282019050919050565b6000618127600c83618ed7565b915061813282619a98565b600c82019050919050565b600061814a601183618eb5565b915061815582619ac1565b602082019050919050565b600061816d601f83618eb5565b915061817882619aea565b602082019050919050565b6000618190600b83618eb5565b915061819b82619b13565b602082019050919050565b60006181b3600983618eb5565b91506181be82619b3c565b602082019050919050565b60006181d6600d83618eb5565b91506181e182619b65565b602082019050919050565b6181f581619064565b82525050565b61820481619064565b82525050565b61821381619064565b82525050565b61822281619064565b82525050565b61823961823482619064565b6191f6565b82525050565b6182488161906e565b82525050565b6182578161906e565b82525050565b6182668161906e565b82525050565b6182758161906e565b82525050565b61828c6182878261906e565b619200565b82525050565b600061829f828486617ac2565b91508190509392505050565b60006182b682617c51565b91506182c28284617bda565b915081905092915050565b60006182d8826180f7565b91506182e48284617bda565b915081905092915050565b60006182fa8261811a565b91506183068284618228565b60208201915081905092915050565b60006183218288618228565b602082019150618331828761797b565b915061833d8286617a37565b91506183498285617a37565b9150618355828461827b565b6008820191508190509695505050505050565b600060208201905061837d6000830184617899565b92915050565b6000602082019050618398600083018461788a565b92915050565b60006040820190506183b36000830185617899565b6183c06020830184617899565b9392505050565b60006040820190506183dc6000830185617899565b6183e9602083018461787b565b9392505050565b60006060820190506184056000830186617899565b6184126020830185617899565b61841f60408301846181fb565b949350505050565b600060808201905061843c6000830187617899565b6184496020830186617899565b61845660408301856181fb565b81810360608301526184688184617b20565b905095945050505050565b600060c0820190506184886000830189617899565b6184956020830188617899565b6184a260408301876181fb565b6184af60608301866181fb565b6184bc60808301856181fb565b6184c960a083018461824e565b979650505050505050565b60006040820190506184e96000830185617899565b6184f660208301846181fb565b9392505050565b6000602082019050818103600083015261851781846178a8565b905092915050565b60006020820190508181036000830152618539818461791d565b905092915050565b60006020820190506185566000830184617a95565b92915050565b60006020820190506185716000830184617aa4565b92915050565b600060208201905061858c6000830184617ab3565b92915050565b60006020820190506185a76000830184617b59565b92915050565b600060208201905081810360008301526185c78184617b68565b905092915050565b600060208201905081810360008301526185e881617c0b565b9050919050565b6000602082019050818103600083015261860881617c2e565b9050919050565b6000602082019050818103600083015261862881617c74565b9050919050565b6000602082019050818103600083015261864881617c97565b9050919050565b6000602082019050818103600083015261866881617cba565b9050919050565b6000602082019050818103600083015261868881617cdd565b9050919050565b600060208201905081810360008301526186a881617d00565b9050919050565b600060208201905081810360008301526186c881617d23565b9050919050565b600060208201905081810360008301526186e881617d46565b9050919050565b6000602082019050818103600083015261870881617d69565b9050919050565b6000602082019050818103600083015261872881617d8c565b9050919050565b6000602082019050818103600083015261874881617daf565b9050919050565b6000602082019050818103600083015261876881617dd2565b9050919050565b6000602082019050818103600083015261878881617df5565b9050919050565b600060208201905081810360008301526187a881617e18565b9050919050565b600060208201905081810360008301526187c881617e3b565b9050919050565b600060208201905081810360008301526187e881617e5e565b9050919050565b6000602082019050818103600083015261880881617e81565b9050919050565b6000602082019050818103600083015261882881617ea4565b9050919050565b6000602082019050818103600083015261884881617ec7565b9050919050565b6000602082019050818103600083015261886881617eea565b9050919050565b6000602082019050818103600083015261888881617f0d565b9050919050565b600060208201905081810360008301526188a881617f30565b9050919050565b600060208201905081810360008301526188c881617f53565b9050919050565b600060208201905081810360008301526188e881617f76565b9050919050565b6000602082019050818103600083015261890881617f99565b9050919050565b6000602082019050818103600083015261892881617fbc565b9050919050565b6000602082019050818103600083015261894881617fdf565b9050919050565b6000602082019050818103600083015261896881618002565b9050919050565b6000602082019050818103600083015261898881618025565b9050919050565b600060208201905081810360008301526189a881618048565b9050919050565b600060208201905081810360008301526189c88161806b565b9050919050565b600060208201905081810360008301526189e88161808e565b9050919050565b60006020820190508181036000830152618a08816180b1565b9050919050565b60006020820190508181036000830152618a28816180d4565b9050919050565b60006020820190508181036000830152618a488161813d565b9050919050565b60006020820190508181036000830152618a6881618160565b9050919050565b60006020820190508181036000830152618a8881618183565b9050919050565b60006020820190508181036000830152618aa8816181a6565b9050919050565b60006020820190508181036000830152618ac8816181c9565b9050919050565b6000602082019050618ae460008301846181fb565b92915050565b6000606082019050618aff60008301866181fb565b618b0c6020830185617899565b618b19604083018461824e565b949350505050565b600060a082019050618b3660008301886181fb565b8181036020830152618b48818761791d565b90508181036040830152618b5c81866179d9565b90508181036060830152618b7081856179d9565b9050618b7f608083018461824e565b9695505050505050565b600060a082019050618b9e600083018861820a565b8181036020830152618bb08187617ba1565b90508181036040830152618bc48186617ba1565b9050618bd3606083018561825d565b618be0608083018461825d565b9695505050505050565b6000604082019050618bff60008301856181fb565b618c0c60208301846181fb565b9392505050565b6000608082019050618c2860008301876181fb565b618c3560208301866181fb565b618c42604083018561824e565b618c4f606083018461824e565b95945050505050565b6000606082019050618c6d60008301866181fb565b618c7a602083018561824e565b618c87604083018461824e565b949350505050565b6000602082019050618ca4600083018461824e565b92915050565b6000604082019050618cbf600083018561824e565b618ccc602083018461824e565b9392505050565b60008083356001602003843603038112618cec57600080fd5b80840192508235915067ffffffffffffffff821115618d0a57600080fd5b602083019250600182023603831315618d2257600080fd5b509250929050565b6000618d34618d45565b9050618d40828261914b565b919050565b6000604051905090565b600067ffffffffffffffff821115618d6a57618d69619270565b5b618d738261929f565b9050602081019050919050565b600067ffffffffffffffff821115618d9b57618d9a619270565b5b618da48261929f565b9050602081019050919050565b6000819050602082019050919050565b6000819050602082019050919050565b6000819050602082019050919050565b600081519050919050565b600081519050919050565b600081519050919050565b600081519050919050565b600081519050919050565b6000602082019050919050565b6000602082019050919050565b6000602082019050919050565b600082825260208201905092915050565b600082825260208201905092915050565b600081905092915050565b600082825260208201905092915050565b600081905092915050565b600082825260208201905092915050565b600082825260208201905092915050565b600081905092915050565b600082825260208201905092915050565b600082825260208201905092915050565b600081905092915050565b6000618eed82619064565b9150618ef883619064565b9250827fffffffffffffffffffffffffffffffffffffffffffffffffffffffffffffffff03821115618f2d57618f2c619212565b5b828201905092915050565b6000618f438261906e565b9150618f4e8361906e565b92508267ffffffffffffffff03821115618f6b57618f6a619212565b5b828201905092915050565b6000618f8182619064565b9150618f8c83619064565b925082821015618f9f57618f9e619212565b5b828203905092915050565b6000618fb58261906e565b9150618fc08361906e565b925082821015618fd357618fd2619212565b5b828203905092915050565b6000618fe982619044565b9050919050565b6000618ffb82619044565b9050919050565b60008115159050919050565b6000819050919050565b60007fffffffff0000000000000000000000000000000000000000000000000000000082169050919050565b600073ffffffffffffffffffffffffffffffffffffffff82169050919050565b6000819050919050565b600067ffffffffffffffff82169050919050565b600060ff82169050919050565b600061909a826190b3565b9050919050565b60006190ac82619082565b9050919050565b60006190be826190c5565b9050919050565b60006190d082619044565b9050919050565b82818337600083830152505050565b60005b838110156191045780820151818401526020810190506190e9565b83811115619113576000848401525b50505050565b6000600282049050600182168061913157607f821691505b6020821081141561914557619144619241565b5b50919050565b6191548261929f565b810181811067ffffffffffffffff8211171561917357619172619270565b5b80604052505050565b600061918782619064565b91507fffffffffffffffffffffffffffffffffffffffffffffffffffffffffffffffff8214156191ba576191b9619212565b5b600182019050919050565b60006191d08261906e565b915067ffffffffffffffff8214156191eb576191ea619212565b5b600182019050919050565b6000819050919050565b600061920b826192b0565b9050919050565b7f4e487b7100000000000000000000000000000000000000000000000000000000600052601160045260246000fd5b7f4e487b7100000000000000000000000000000000000000000000000000000000600052602260045260246000fd5b7f4e487b7100000000000000000000000000000000000000000000000000000000600052604160045260246000fd5b6000601f19601f8301169050919050565b60008160c01b9050919050565b7f6f6e6c7941646d696e0000000000000000000000000000000000000000000000600082015250565b7f64696666206f776e657200000000000000000000000000000000000000000000600082015250565b7f646f2d0000000000000000000000000000000000000000000000000000000000600082015250565b7f6e6f74206f776e6572206e6f7220617070726f76656400000000000000000000600082015250565b7f616c726561647920776172706564000000000000000000000000000000000000600082015250565b7f4552433732313a207472616e7366657220746f206e6f6e20455243373231526560008201527f63656976657220696d706c656d656e7465720000000000000000000000000000602082015250565b7f4552433732313a207472616e736665722066726f6d20696e636f72726563742060008201527f6f776e6572000000000000000000000000000000000000000000000000000000602082015250565b7f4552433732313a20746f6b656e20616c7265616479206d696e74656400000000600082015250565b7f64696666206f6964000000000000000000000000000000000000000000000000600082015250565b7f6e6f7420764e4654000000000000000000000000000000000000000000000000600082015250565b7f63616e206e6f74206275726e20764e4654000000000000000000000000000000600082015250565b7f6e6f7420636f6e7461696e73206475726174696f6e4964000000000000000000600082015250565b7f4552433732313a207472616e7366657220746f20746865207a65726f2061646460008201527f7265737300000000000000000000000000000000000000000000000000000000602082015250565b7f4552433732313a20617070726f766520746f2063616c6c657200000000000000600082015250565b7f6f7574206f662072616e67650000000000000000000000000000000000000000600082015250565b7f4552433732313a206f70657261746f7220717565727920666f72206e6f6e657860008201527f697374656e7420746f6b656e0000000000000000000000000000000000000000602082015250565b7f696e76616c6964207374617274206f7220656e64000000000000000000000000600082015250565b7f6e6f7420636f6e7461696e730000000000000000000000000000000000000000600082015250565b7f6f6e6c7920666f722072696e6b656279206f7220627363740000000000000000600082015250565b7f4552433732313a20617070726f76652063616c6c6572206973206e6f74206f7760008201527f6e6572206e6f7220617070726f76656420666f7220616c6c0000000000000000602082015250565b7f63616e6e6f742072656465656d00000000000000000000000000000000000000600082015250565b7f4552433732313a2062616c616e636520717565727920666f7220746865207a6560008201527f726f206164647265737300000000000000000000000000000000000000000000602082015250565b7f4552433732313a206f776e657220717565727920666f72206e6f6e657869737460008201527f656e7420746f6b656e0000000000000000000000000000000000000000000000602082015250565b7f6e6f742074656d70526f79616c747941646d696e000000000000000000000000600082015250565b7f496e697469616c697a61626c653a20636f6e747261637420697320616c72656160008201527f647920696e697469616c697a6564000000000000000000000000000000000000602082015250565b7f4552433732313a206d696e7420746f20746865207a65726f2061646472657373600082015250565b7f4552433732313a20617070726f76656420717565727920666f72206e6f6e657860008201527f697374656e7420746f6b656e0000000000000000000000000000000000000000602082015250565b7f6e6f7420726f79616c747941646d696e00000000000000000000000000000000600082015250565b7f6f6e6c7920617070726f766564206f72206f776e657200000000000000000000600082015250565b7f696e76616c6964206475726174696f6e00000000000000000000000000000000600082015250565b7f4552433732314d657461646174613a2055524920717565727920666f72206e6f60008201527f6e6578697374656e7420746f6b656e0000000000000000000000000000000000602082015250565b7f6f6e6c7950656e64696e674f776e657200000000000000000000000000000000600082015250565b7f4552433732313a20617070726f76616c20746f2063757272656e74206f776e6560008201527f7200000000000000000000000000000000000000000000000000000000000000602082015250565b7f4552433732313a207472616e736665722063616c6c6572206973206e6f74206f60008201527f776e6572206e6f7220617070726f766564000000000000000000000000000000602082015250565b7f6d7573742066726f6d206e6f7700000000000000000000000000000000000000600082015250565b7f496e697469616c697a61626c653a20636f6e7472616374206973206e6f74206960008201527f6e697469616c697a696e67000000000000000000000000000000000000000000602082015250565b7f762d000000000000000000000000000000000000000000000000000000000000600082015250565b7f6e6f7420636f6e7461696c730000000000000000000000000000000000000000600082015250565b7f6665652065786365656473203130706374000000000000000000000000000000600082015250565b7f5265656e7472616e637947756172643a207265656e7472616e742063616c6c00600082015250565b7f696e76616c696420656e64000000000000000000000000000000000000000000600082015250565b7f6f6e6c794f776e65720000000000000000000000000000000000000000000000600082015250565b7f696e76616c696420737461727400000000000000000000000000000000000000600082015250565b619b9781618fde565b8114619ba257600080fd5b50565b619bae81618ff0565b8114619bb957600080fd5b50565b619bc581619002565b8114619bd057600080fd5b50565b619bdc81619018565b8114619be757600080fd5b50565b619bf381619064565b8114619bfe57600080fd5b50565b619c0a8161906e565b8114619c1557600080fd5b5056fea26469706673582212208b15e32f46c15fbdc0ea1dfec3aba062ed65285204e89bc930a3787f7e44799064736f6c63430008040033",
  "linkReferences": {
    "contracts/Double/DoubleSVG.sol": {
      "DoubleSVG": [
        {
          "length": 20,
          "start": 16010
        }
      ]
    }
  },
  "deployedLinkReferences": {
    "contracts/Double/DoubleSVG.sol": {
      "DoubleSVG": [
        {
          "length": 20,
          "start": 15976
        }
      ]
    }
  }
}