{
  "_format": "hh-sol-artifact-1",
  "contractName": "CheckInMgr",
  "sourceName": "contracts/CheckInMgr.sol",
  "abi": [
    {
      "anonymous": false,
      "inputs": [
        {
          "indexed": false,
          "internalType": "address",
          "name": "oldAdmin",
          "type": "address"
        },
        {
          "indexed": false,
          "internalType": "address",
          "name": "newAdmin",
          "type": "address"
        }
      ],
      "name": "NewAdmin",
      "type": "event"
    },
    {
      "anonymous": false,
      "inputs": [
        {
          "indexed": false,
          "internalType": "address",
          "name": "oldOwner",
          "type": "address"
        },
        {
          "indexed": false,
          "internalType": "address",
          "name": "newOwner",
          "type": "address"
        }
      ],
      "name": "NewOwner",
      "type": "event"
    },
    {
      "anonymous": false,
      "inputs": [
        {
          "indexed": false,
          "internalType": "address",
          "name": "oldPendingOwner",
          "type": "address"
        },
        {
          "indexed": false,
          "internalType": "address",
          "name": "newPendingOwner",
          "type": "address"
        }
      ],
      "name": "NewPendingOwner",
      "type": "event"
    },
    {
      "inputs": [],
      "name": "acceptOwner",
      "outputs": [],
      "stateMutability": "nonpayable",
      "type": "function"
    },
    {
      "inputs": [],
      "name": "admin",
      "outputs": [
        {
          "internalType": "address",
          "name": "",
          "type": "address"
        }
      ],
      "stateMutability": "view",
      "type": "function"
    },
    {
      "inputs": [
        {
          "internalType": "uint256",
          "name": "oid",
          "type": "uint256"
        }
      ],
      "name": "isCheckInDataExpired",
      "outputs": [
        {
          "internalType": "bool",
          "name": "",
          "type": "bool"
        }
      ],
      "stateMutability": "view",
      "type": "function"
    },
    {
      "inputs": [],
      "name": "owner",
      "outputs": [
        {
          "internalType": "address",
          "name": "",
          "type": "address"
        }
      ],
      "stateMutability": "view",
      "type": "function"
    },
    {
      "inputs": [],
      "name": "pendingOwner",
      "outputs": [
        {
          "internalType": "address",
          "name": "",
          "type": "address"
        }
      ],
      "stateMutability": "view",
      "type": "function"
    },
    {
      "inputs": [],
      "name": "renounceOwnership",
      "outputs": [],
      "stateMutability": "nonpayable",
      "type": "function"
    },
    {
      "inputs": [
        {
          "internalType": "uint256[]",
          "name": "ids",
          "type": "uint256[]"
        },
        {
          "internalType": "address",
          "name": "to",
          "type": "address"
        }
      ],
      "name": "resetExpiredTo",
      "outputs": [],
      "stateMutability": "nonpayable",
      "type": "function"
    },
    {
      "inputs": [
        {
          "internalType": "address",
          "name": "newAdmin",
          "type": "address"
        }
      ],
      "name": "setAdmin",
      "outputs": [],
      "stateMutability": "nonpayable",
      "type": "function"
    },
    {
      "inputs": [
        {
          "internalType": "address",
          "name": "_pendingOwner",
          "type": "address"
        }
      ],
      "name": "transferOwnership",
      "outputs": [],
      "stateMutability": "nonpayable",
      "type": "function"
    }
  ],
  "bytecode": "0x608060405234801561001057600080fd5b50610f7a806100206000396000f3fe608060405234801561001057600080fd5b50600436106100935760003560e01c8063c793c12511610066578063c793c1251461010c578063e30c397814610128578063ebbc496514610146578063f2fde38b14610150578063f851a4401461016c57610093565b806358174e0614610098578063704b6c02146100c8578063715018a6146100e45780638da5cb5b146100ee575b600080fd5b6100b260048036038101906100ad9190610b99565b61018a565b6040516100bf9190610c8d565b60405180910390f35b6100e260048036038101906100dd9190610b1c565b6101ca565b005b6100ec610271565b005b6100f6610452565b6040516101039190610c49565b60405180910390f35b61012660048036038101906101219190610b45565b610476565b005b610130610503565b60405161013d9190610c49565b60405180910390f35b61014e610529565b005b61016a60048036038101906101659190610b1c565b6106af565b005b610174610756565b6040516101819190610c49565b60405180910390f35b6000426003600084815260200190815260200160002060010160149054906101000a900467ffffffffffffffff1667ffffffffffffffff16109050919050565b6101d261077c565b7ff9ffabca9c8276e99321725bcb43fb076a6c66a54b7f21c4e8146d8519b417dc600260009054906101000a900473ffffffffffffffffffffffffffffffffffffffff1682604051610225929190610c64565b60405180910390a180600260006101000a81548173ffffffffffffffffffffffffffffffffffffffff021916908373ffffffffffffffffffffffffffffffffffffffff16021790555050565b61027961077c565b7f70aea8d848e8a90fb7661b227dc522eb6395c3dac71b63cb59edd5c9899b236460008054906101000a900473ffffffffffffffffffffffffffffffffffffffff1660006040516102cb929190610c64565b60405180910390a17ff9ffabca9c8276e99321725bcb43fb076a6c66a54b7f21c4e8146d8519b417dc600260009054906101000a900473ffffffffffffffffffffffffffffffffffffffff166000604051610327929190610c64565b60405180910390a17fb3d55174552271a4f1aaf36b72f50381e892171636b3fb5447fe00e995e7a37b600160009054906101000a900473ffffffffffffffffffffffffffffffffffffffff166000604051610383929190610c64565b60405180910390a160008060006101000a81548173ffffffffffffffffffffffffffffffffffffffff021916908373ffffffffffffffffffffffffffffffffffffffff1602179055506000600160006101000a81548173ffffffffffffffffffffffffffffffffffffffff021916908373ffffffffffffffffffffffffffffffffffffffff1602179055506000600260006101000a81548173ffffffffffffffffffffffffffffffffffffffff021916908373ffffffffffffffffffffffffffffffffffffffff160217905550565b60008054906101000a900473ffffffffffffffffffffffffffffffffffffffff1681565b61047e61080c565b60005b82518110156104fe5760008382815181106104c5577f4e487b7100000000000000000000000000000000000000000000000000000000600052603260045260246000fd5b602002602001015190506104d88161018a565b156104ea576104e9818460006108f4565b5b5080806104f690610de3565b915050610481565b505050565b600160009054906101000a900473ffffffffffffffffffffffffffffffffffffffff1681565b6105316109ca565b7f70aea8d848e8a90fb7661b227dc522eb6395c3dac71b63cb59edd5c9899b236460008054906101000a900473ffffffffffffffffffffffffffffffffffffffff16600160009054906101000a900473ffffffffffffffffffffffffffffffffffffffff166040516105a4929190610c64565b60405180910390a1600160009054906101000a900473ffffffffffffffffffffffffffffffffffffffff166000806101000a81548173ffffffffffffffffffffffffffffffffffffffff021916908373ffffffffffffffffffffffffffffffffffffffff16021790555060007fb3d55174552271a4f1aaf36b72f50381e892171636b3fb5447fe00e995e7a37b600160009054906101000a900473ffffffffffffffffffffffffffffffffffffffff1682604051610663929190610c64565b60405180910390a180600160006101000a81548173ffffffffffffffffffffffffffffffffffffffff021916908373ffffffffffffffffffffffffffffffffffffffff16021790555050565b6106b761077c565b7fb3d55174552271a4f1aaf36b72f50381e892171636b3fb5447fe00e995e7a37b600160009054906101000a900473ffffffffffffffffffffffffffffffffffffffff168260405161070a929190610c64565b60405180910390a180600160006101000a81548173ffffffffffffffffffffffffffffffffffffffff021916908373ffffffffffffffffffffffffffffffffffffffff16021790555050565b600260009054906101000a900473ffffffffffffffffffffffffffffffffffffffff1681565b60008054906101000a900473ffffffffffffffffffffffffffffffffffffffff1673ffffffffffffffffffffffffffffffffffffffff163373ffffffffffffffffffffffffffffffffffffffff161461080a576040517f08c379a000000000000000000000000000000000000000000000000000000000815260040161080190610ce8565b60405180910390fd5b565b600260009054906101000a900473ffffffffffffffffffffffffffffffffffffffff1673ffffffffffffffffffffffffffffffffffffffff163373ffffffffffffffffffffffffffffffffffffffff1614806108b3575060008054906101000a900473ffffffffffffffffffffffffffffffffffffffff1673ffffffffffffffffffffffffffffffffffffffff163373ffffffffffffffffffffffffffffffffffffffff16145b6108f2576040517f08c379a00000000000000000000000000000000000000000000000000000000081526004016108e990610ca8565b60405180910390fd5b565b60405180606001604052808481526020018373ffffffffffffffffffffffffffffffffffffffff1681526020018267ffffffffffffffff16815250600360008581526020019081526020016000206000820151816000015560208201518160010160006101000a81548173ffffffffffffffffffffffffffffffffffffffff021916908373ffffffffffffffffffffffffffffffffffffffff16021790555060408201518160010160146101000a81548167ffffffffffffffff021916908367ffffffffffffffff160217905550905050505050565b600160009054906101000a900473ffffffffffffffffffffffffffffffffffffffff1673ffffffffffffffffffffffffffffffffffffffff163373ffffffffffffffffffffffffffffffffffffffff1614610a5a576040517f08c379a0000000000000000000000000000000000000000000000000000000008152600401610a5190610cc8565b60405180910390fd5b565b6000610a6f610a6a84610d2d565b610d08565b90508083825260208201905082856020860282011115610a8e57600080fd5b60005b85811015610abe5781610aa48882610b07565b845260208401935060208301925050600181019050610a91565b5050509392505050565b600081359050610ad781610f16565b92915050565b600082601f830112610aee57600080fd5b8135610afe848260208601610a5c565b91505092915050565b600081359050610b1681610f2d565b92915050565b600060208284031215610b2e57600080fd5b6000610b3c84828501610ac8565b91505092915050565b60008060408385031215610b5857600080fd5b600083013567ffffffffffffffff811115610b7257600080fd5b610b7e85828601610add565b9250506020610b8f85828601610ac8565b9150509250929050565b600060208284031215610bab57600080fd5b6000610bb984828501610b07565b91505092915050565b610bcb81610d6a565b82525050565b610bda81610d7c565b82525050565b6000610bed600983610d59565b9150610bf882610e9b565b602082019050919050565b6000610c10601083610d59565b9150610c1b82610ec4565b602082019050919050565b6000610c33600983610d59565b9150610c3e82610eed565b602082019050919050565b6000602082019050610c5e6000830184610bc2565b92915050565b6000604082019050610c796000830185610bc2565b610c866020830184610bc2565b9392505050565b6000602082019050610ca26000830184610bd1565b92915050565b60006020820190508181036000830152610cc181610be0565b9050919050565b60006020820190508181036000830152610ce181610c03565b9050919050565b60006020820190508181036000830152610d0181610c26565b9050919050565b6000610d12610d23565b9050610d1e8282610db2565b919050565b6000604051905090565b600067ffffffffffffffff821115610d4857610d47610e5b565b5b602082029050602081019050919050565b600082825260208201905092915050565b6000610d7582610d88565b9050919050565b60008115159050919050565b600073ffffffffffffffffffffffffffffffffffffffff82169050919050565b6000819050919050565b610dbb82610e8a565b810181811067ffffffffffffffff82111715610dda57610dd9610e5b565b5b80604052505050565b6000610dee82610da8565b91507fffffffffffffffffffffffffffffffffffffffffffffffffffffffffffffffff821415610e2157610e20610e2c565b5b600182019050919050565b7f4e487b7100000000000000000000000000000000000000000000000000000000600052601160045260246000fd5b7f4e487b7100000000000000000000000000000000000000000000000000000000600052604160045260246000fd5b6000601f19601f8301169050919050565b7f6f6e6c7941646d696e0000000000000000000000000000000000000000000000600082015250565b7f6f6e6c7950656e64696e674f776e657200000000000000000000000000000000600082015250565b7f6f6e6c794f776e65720000000000000000000000000000000000000000000000600082015250565b610f1f81610d6a565b8114610f2a57600080fd5b50565b610f3681610da8565b8114610f4157600080fd5b5056fea264697066735822122014bb660ee89130ee2d79b71ae16109d38eacb9139807a08782058e96a36804ca64736f6c63430008040033",
  "linkReferences": {},
  "deployedLinkReferences": {}
}