{
  "_format": "hh-sol-artifact-1",
  "contractName": "CheckInMgr",
  "sourceName": "contracts/CheckInMgr.sol",
  "abi": [
    {
      "anonymous": false,
      "inputs": [
        {
          "indexed": false,
          "internalType": "address",
          "name": "oldAdmin",
          "type": "address"
        },
        {
          "indexed": false,
          "internalType": "address",
          "name": "newAdmin",
          "type": "address"
        }
      ],
      "name": "NewAdmin",
      "type": "event"
    },
    {
      "anonymous": false,
      "inputs": [
        {
          "indexed": false,
          "internalType": "address",
          "name": "oldOwner",
          "type": "address"
        },
        {
          "indexed": false,
          "internalType": "address",
          "name": "newOwner",
          "type": "address"
        }
      ],
      "name": "NewOwner",
      "type": "event"
    },
    {
      "anonymous": false,
      "inputs": [
        {
          "indexed": false,
          "internalType": "address",
          "name": "oldPendingOwner",
          "type": "address"
        },
        {
          "indexed": false,
          "internalType": "address",
          "name": "newPendingOwner",
          "type": "address"
        }
      ],
      "name": "NewPendingOwner",
      "type": "event"
    },
    {
      "inputs": [],
      "name": "acceptOwner",
      "outputs": [],
      "stateMutability": "nonpayable",
      "type": "function"
    },
    {
      "inputs": [],
      "name": "admin",
      "outputs": [
        {
          "internalType": "address",
          "name": "",
          "type": "address"
        }
      ],
      "stateMutability": "view",
      "type": "function"
    },
    {
      "inputs": [
        {
          "internalType": "uint256",
          "name": "oid",
          "type": "uint256"
        }
      ],
      "name": "isCheckInDataExpired",
      "outputs": [
        {
          "internalType": "bool",
          "name": "",
          "type": "bool"
        }
      ],
      "stateMutability": "view",
      "type": "function"
    },
    {
      "inputs": [],
      "name": "owner",
      "outputs": [
        {
          "internalType": "address",
          "name": "",
          "type": "address"
        }
      ],
      "stateMutability": "view",
      "type": "function"
    },
    {
      "inputs": [],
      "name": "pendingOwner",
      "outputs": [
        {
          "internalType": "address",
          "name": "",
          "type": "address"
        }
      ],
      "stateMutability": "view",
      "type": "function"
    },
    {
      "inputs": [],
      "name": "renounceOwnership",
      "outputs": [],
      "stateMutability": "nonpayable",
      "type": "function"
    },
    {
      "inputs": [
        {
          "internalType": "uint256[]",
          "name": "ids",
          "type": "uint256[]"
        },
        {
          "internalType": "address",
          "name": "to",
          "type": "address"
        }
      ],
      "name": "resetExpiredTo",
      "outputs": [],
      "stateMutability": "nonpayable",
      "type": "function"
    },
    {
      "inputs": [
        {
          "internalType": "address",
          "name": "newAdmin",
          "type": "address"
        }
      ],
      "name": "setAdmin",
      "outputs": [],
      "stateMutability": "nonpayable",
      "type": "function"
    },
    {
      "inputs": [
        {
          "internalType": "address",
          "name": "_pendingOwner",
          "type": "address"
        }
      ],
      "name": "transferOwnership",
      "outputs": [],
      "stateMutability": "nonpayable",
      "type": "function"
    }
  ],
  "bytecode": "0x608060405234801561001057600080fd5b50611068806100206000396000f3fe608060405234801561001057600080fd5b50600436106100935760003560e01c8063c793c12511610066578063c793c1251461010c578063e30c397814610128578063ebbc496514610146578063f2fde38b14610150578063f851a4401461016c57610093565b806358174e0614610098578063704b6c02146100c8578063715018a6146100e45780638da5cb5b146100ee575b600080fd5b6100b260048036038101906100ad9190610c87565b61018a565b6040516100bf9190610d7b565b60405180910390f35b6100e260048036038101906100dd9190610c0a565b6101ca565b005b6100ec6102f7565b005b6100f661055e565b6040516101039190610d37565b60405180910390f35b61012660048036038101906101219190610c33565b610582565b005b6101306106ed565b60405161013d9190610d37565b60405180910390f35b61014e610713565b005b61016a60048036038101906101659190610c0a565b610921565b005b610174610a4e565b6040516101819190610d37565b60405180910390f35b6000426003600084815260200190815260200160002060010160149054906101000a900467ffffffffffffffff1667ffffffffffffffff16109050919050565b60008054906101000a900473ffffffffffffffffffffffffffffffffffffffff1673ffffffffffffffffffffffffffffffffffffffff163373ffffffffffffffffffffffffffffffffffffffff1614610258576040517f08c379a000000000000000000000000000000000000000000000000000000000815260040161024f90610dd6565b60405180910390fd5b7ff9ffabca9c8276e99321725bcb43fb076a6c66a54b7f21c4e8146d8519b417dc600260009054906101000a900473ffffffffffffffffffffffffffffffffffffffff16826040516102ab929190610d52565b60405180910390a180600260006101000a81548173ffffffffffffffffffffffffffffffffffffffff021916908373ffffffffffffffffffffffffffffffffffffffff16021790555050565b60008054906101000a900473ffffffffffffffffffffffffffffffffffffffff1673ffffffffffffffffffffffffffffffffffffffff163373ffffffffffffffffffffffffffffffffffffffff1614610385576040517f08c379a000000000000000000000000000000000000000000000000000000000815260040161037c90610dd6565b60405180910390fd5b7f70aea8d848e8a90fb7661b227dc522eb6395c3dac71b63cb59edd5c9899b236460008054906101000a900473ffffffffffffffffffffffffffffffffffffffff1660006040516103d7929190610d52565b60405180910390a17ff9ffabca9c8276e99321725bcb43fb076a6c66a54b7f21c4e8146d8519b417dc600260009054906101000a900473ffffffffffffffffffffffffffffffffffffffff166000604051610433929190610d52565b60405180910390a17fb3d55174552271a4f1aaf36b72f50381e892171636b3fb5447fe00e995e7a37b600160009054906101000a900473ffffffffffffffffffffffffffffffffffffffff16600060405161048f929190610d52565b60405180910390a160008060006101000a81548173ffffffffffffffffffffffffffffffffffffffff021916908373ffffffffffffffffffffffffffffffffffffffff1602179055506000600160006101000a81548173ffffffffffffffffffffffffffffffffffffffff021916908373ffffffffffffffffffffffffffffffffffffffff1602179055506000600260006101000a81548173ffffffffffffffffffffffffffffffffffffffff021916908373ffffffffffffffffffffffffffffffffffffffff160217905550565b60008054906101000a900473ffffffffffffffffffffffffffffffffffffffff1681565b600260009054906101000a900473ffffffffffffffffffffffffffffffffffffffff1673ffffffffffffffffffffffffffffffffffffffff163373ffffffffffffffffffffffffffffffffffffffff161480610629575060008054906101000a900473ffffffffffffffffffffffffffffffffffffffff1673ffffffffffffffffffffffffffffffffffffffff163373ffffffffffffffffffffffffffffffffffffffff16145b610668576040517f08c379a000000000000000000000000000000000000000000000000000000000815260040161065f90610d96565b60405180910390fd5b60005b82518110156106e85760008382815181106106af577f4e487b7100000000000000000000000000000000000000000000000000000000600052603260045260246000fd5b602002602001015190506106c28161018a565b156106d4576106d381846000610a74565b5b5080806106e090610ed1565b91505061066b565b505050565b600160009054906101000a900473ffffffffffffffffffffffffffffffffffffffff1681565b600160009054906101000a900473ffffffffffffffffffffffffffffffffffffffff1673ffffffffffffffffffffffffffffffffffffffff163373ffffffffffffffffffffffffffffffffffffffff16146107a3576040517f08c379a000000000000000000000000000000000000000000000000000000000815260040161079a90610db6565b60405180910390fd5b7f70aea8d848e8a90fb7661b227dc522eb6395c3dac71b63cb59edd5c9899b236460008054906101000a900473ffffffffffffffffffffffffffffffffffffffff16600160009054906101000a900473ffffffffffffffffffffffffffffffffffffffff16604051610816929190610d52565b60405180910390a1600160009054906101000a900473ffffffffffffffffffffffffffffffffffffffff166000806101000a81548173ffffffffffffffffffffffffffffffffffffffff021916908373ffffffffffffffffffffffffffffffffffffffff16021790555060007fb3d55174552271a4f1aaf36b72f50381e892171636b3fb5447fe00e995e7a37b600160009054906101000a900473ffffffffffffffffffffffffffffffffffffffff16826040516108d5929190610d52565b60405180910390a180600160006101000a81548173ffffffffffffffffffffffffffffffffffffffff021916908373ffffffffffffffffffffffffffffffffffffffff16021790555050565b60008054906101000a900473ffffffffffffffffffffffffffffffffffffffff1673ffffffffffffffffffffffffffffffffffffffff163373ffffffffffffffffffffffffffffffffffffffff16146109af576040517f08c379a00000000000000000000000000000000000000000000000000000000081526004016109a690610dd6565b60405180910390fd5b7fb3d55174552271a4f1aaf36b72f50381e892171636b3fb5447fe00e995e7a37b600160009054906101000a900473ffffffffffffffffffffffffffffffffffffffff1682604051610a02929190610d52565b60405180910390a180600160006101000a81548173ffffffffffffffffffffffffffffffffffffffff021916908373ffffffffffffffffffffffffffffffffffffffff16021790555050565b600260009054906101000a900473ffffffffffffffffffffffffffffffffffffffff1681565b60405180606001604052808481526020018373ffffffffffffffffffffffffffffffffffffffff1681526020018267ffffffffffffffff16815250600360008581526020019081526020016000206000820151816000015560208201518160010160006101000a81548173ffffffffffffffffffffffffffffffffffffffff021916908373ffffffffffffffffffffffffffffffffffffffff16021790555060408201518160010160146101000a81548167ffffffffffffffff021916908367ffffffffffffffff160217905550905050505050565b6000610b5d610b5884610e1b565b610df6565b90508083825260208201905082856020860282011115610b7c57600080fd5b60005b85811015610bac5781610b928882610bf5565b845260208401935060208301925050600181019050610b7f565b5050509392505050565b600081359050610bc581611004565b92915050565b600082601f830112610bdc57600080fd5b8135610bec848260208601610b4a565b91505092915050565b600081359050610c048161101b565b92915050565b600060208284031215610c1c57600080fd5b6000610c2a84828501610bb6565b91505092915050565b60008060408385031215610c4657600080fd5b600083013567ffffffffffffffff811115610c6057600080fd5b610c6c85828601610bcb565b9250506020610c7d85828601610bb6565b9150509250929050565b600060208284031215610c9957600080fd5b6000610ca784828501610bf5565b91505092915050565b610cb981610e58565b82525050565b610cc881610e6a565b82525050565b6000610cdb600983610e47565b9150610ce682610f89565b602082019050919050565b6000610cfe601083610e47565b9150610d0982610fb2565b602082019050919050565b6000610d21600983610e47565b9150610d2c82610fdb565b602082019050919050565b6000602082019050610d4c6000830184610cb0565b92915050565b6000604082019050610d676000830185610cb0565b610d746020830184610cb0565b9392505050565b6000602082019050610d906000830184610cbf565b92915050565b60006020820190508181036000830152610daf81610cce565b9050919050565b60006020820190508181036000830152610dcf81610cf1565b9050919050565b60006020820190508181036000830152610def81610d14565b9050919050565b6000610e00610e11565b9050610e0c8282610ea0565b919050565b6000604051905090565b600067ffffffffffffffff821115610e3657610e35610f49565b5b602082029050602081019050919050565b600082825260208201905092915050565b6000610e6382610e76565b9050919050565b60008115159050919050565b600073ffffffffffffffffffffffffffffffffffffffff82169050919050565b6000819050919050565b610ea982610f78565b810181811067ffffffffffffffff82111715610ec857610ec7610f49565b5b80604052505050565b6000610edc82610e96565b91507fffffffffffffffffffffffffffffffffffffffffffffffffffffffffffffffff821415610f0f57610f0e610f1a565b5b600182019050919050565b7f4e487b7100000000000000000000000000000000000000000000000000000000600052601160045260246000fd5b7f4e487b7100000000000000000000000000000000000000000000000000000000600052604160045260246000fd5b6000601f19601f8301169050919050565b7f6f6e6c7941646d696e0000000000000000000000000000000000000000000000600082015250565b7f6f6e6c7950656e64696e674f776e657200000000000000000000000000000000600082015250565b7f6f6e6c794f776e65720000000000000000000000000000000000000000000000600082015250565b61100d81610e58565b811461101857600080fd5b50565b61102481610e96565b811461102f57600080fd5b5056fea264697066735822122055af84d8d24542858fa107eee330153115ade511fc6f4fd38e2a3691218fb40b64736f6c63430008040033",
  "linkReferences": {},
  "deployedLinkReferences": {}
}