{
  "_format": "hh-sol-artifact-1",
  "contractName": "FarmFinance",
  "sourceName": "contracts/BEP20/FFT.sol",
  "abi": [
    {
      "inputs": [],
      "stateMutability": "nonpayable",
      "type": "constructor"
    },
    {
      "anonymous": false,
      "inputs": [
        {
          "indexed": true,
          "internalType": "address",
          "name": "owner",
          "type": "address"
        },
        {
          "indexed": true,
          "internalType": "address",
          "name": "spender",
          "type": "address"
        },
        {
          "indexed": false,
          "internalType": "uint256",
          "name": "value",
          "type": "uint256"
        }
      ],
      "name": "Approval",
      "type": "event"
    },
    {
      "anonymous": false,
      "inputs": [
        {
          "indexed": false,
          "internalType": "address",
          "name": "account",
          "type": "address"
        }
      ],
      "name": "Paused",
      "type": "event"
    },
    {
      "anonymous": false,
      "inputs": [
        {
          "indexed": true,
          "internalType": "bytes32",
          "name": "role",
          "type": "bytes32"
        },
        {
          "indexed": true,
          "internalType": "bytes32",
          "name": "previousAdminRole",
          "type": "bytes32"
        },
        {
          "indexed": true,
          "internalType": "bytes32",
          "name": "newAdminRole",
          "type": "bytes32"
        }
      ],
      "name": "RoleAdminChanged",
      "type": "event"
    },
    {
      "anonymous": false,
      "inputs": [
        {
          "indexed": true,
          "internalType": "bytes32",
          "name": "role",
          "type": "bytes32"
        },
        {
          "indexed": true,
          "internalType": "address",
          "name": "account",
          "type": "address"
        },
        {
          "indexed": true,
          "internalType": "address",
          "name": "sender",
          "type": "address"
        }
      ],
      "name": "RoleGranted",
      "type": "event"
    },
    {
      "anonymous": false,
      "inputs": [
        {
          "indexed": true,
          "internalType": "bytes32",
          "name": "role",
          "type": "bytes32"
        },
        {
          "indexed": true,
          "internalType": "address",
          "name": "account",
          "type": "address"
        },
        {
          "indexed": true,
          "internalType": "address",
          "name": "sender",
          "type": "address"
        }
      ],
      "name": "RoleRevoked",
      "type": "event"
    },
    {
      "anonymous": false,
      "inputs": [
        {
          "indexed": true,
          "internalType": "address",
          "name": "from",
          "type": "address"
        },
        {
          "indexed": true,
          "internalType": "address",
          "name": "to",
          "type": "address"
        },
        {
          "indexed": false,
          "internalType": "uint256",
          "name": "value",
          "type": "uint256"
        }
      ],
      "name": "Transfer",
      "type": "event"
    },
    {
      "anonymous": false,
      "inputs": [
        {
          "indexed": false,
          "internalType": "address",
          "name": "account",
          "type": "address"
        }
      ],
      "name": "Unpaused",
      "type": "event"
    },
    {
      "inputs": [],
      "name": "DEFAULT_ADMIN_ROLE",
      "outputs": [
        {
          "internalType": "bytes32",
          "name": "",
          "type": "bytes32"
        }
      ],
      "stateMutability": "view",
      "type": "function"
    },
    {
      "inputs": [],
      "name": "PAUSER_ROLE",
      "outputs": [
        {
          "internalType": "bytes32",
          "name": "",
          "type": "bytes32"
        }
      ],
      "stateMutability": "view",
      "type": "function"
    },
    {
      "inputs": [
        {
          "internalType": "address",
          "name": "owner",
          "type": "address"
        },
        {
          "internalType": "address",
          "name": "spender",
          "type": "address"
        }
      ],
      "name": "allowance",
      "outputs": [
        {
          "internalType": "uint256",
          "name": "",
          "type": "uint256"
        }
      ],
      "stateMutability": "view",
      "type": "function"
    },
    {
      "inputs": [
        {
          "internalType": "address",
          "name": "spender",
          "type": "address"
        },
        {
          "internalType": "uint256",
          "name": "amount",
          "type": "uint256"
        }
      ],
      "name": "approve",
      "outputs": [
        {
          "internalType": "bool",
          "name": "",
          "type": "bool"
        }
      ],
      "stateMutability": "nonpayable",
      "type": "function"
    },
    {
      "inputs": [
        {
          "internalType": "address",
          "name": "account",
          "type": "address"
        }
      ],
      "name": "balanceOf",
      "outputs": [
        {
          "internalType": "uint256",
          "name": "",
          "type": "uint256"
        }
      ],
      "stateMutability": "view",
      "type": "function"
    },
    {
      "inputs": [],
      "name": "decimals",
      "outputs": [
        {
          "internalType": "uint8",
          "name": "",
          "type": "uint8"
        }
      ],
      "stateMutability": "view",
      "type": "function"
    },
    {
      "inputs": [
        {
          "internalType": "address",
          "name": "spender",
          "type": "address"
        },
        {
          "internalType": "uint256",
          "name": "subtractedValue",
          "type": "uint256"
        }
      ],
      "name": "decreaseAllowance",
      "outputs": [
        {
          "internalType": "bool",
          "name": "",
          "type": "bool"
        }
      ],
      "stateMutability": "nonpayable",
      "type": "function"
    },
    {
      "inputs": [
        {
          "internalType": "bytes32",
          "name": "role",
          "type": "bytes32"
        }
      ],
      "name": "getRoleAdmin",
      "outputs": [
        {
          "internalType": "bytes32",
          "name": "",
          "type": "bytes32"
        }
      ],
      "stateMutability": "view",
      "type": "function"
    },
    {
      "inputs": [
        {
          "internalType": "bytes32",
          "name": "role",
          "type": "bytes32"
        },
        {
          "internalType": "address",
          "name": "account",
          "type": "address"
        }
      ],
      "name": "grantRole",
      "outputs": [],
      "stateMutability": "nonpayable",
      "type": "function"
    },
    {
      "inputs": [
        {
          "internalType": "bytes32",
          "name": "role",
          "type": "bytes32"
        },
        {
          "internalType": "address",
          "name": "account",
          "type": "address"
        }
      ],
      "name": "hasRole",
      "outputs": [
        {
          "internalType": "bool",
          "name": "",
          "type": "bool"
        }
      ],
      "stateMutability": "view",
      "type": "function"
    },
    {
      "inputs": [
        {
          "internalType": "address",
          "name": "spender",
          "type": "address"
        },
        {
          "internalType": "uint256",
          "name": "addedValue",
          "type": "uint256"
        }
      ],
      "name": "increaseAllowance",
      "outputs": [
        {
          "internalType": "bool",
          "name": "",
          "type": "bool"
        }
      ],
      "stateMutability": "nonpayable",
      "type": "function"
    },
    {
      "inputs": [],
      "name": "name",
      "outputs": [
        {
          "internalType": "string",
          "name": "",
          "type": "string"
        }
      ],
      "stateMutability": "view",
      "type": "function"
    },
    {
      "inputs": [],
      "name": "pause",
      "outputs": [],
      "stateMutability": "nonpayable",
      "type": "function"
    },
    {
      "inputs": [],
      "name": "paused",
      "outputs": [
        {
          "internalType": "bool",
          "name": "",
          "type": "bool"
        }
      ],
      "stateMutability": "view",
      "type": "function"
    },
    {
      "inputs": [
        {
          "internalType": "bytes32",
          "name": "role",
          "type": "bytes32"
        },
        {
          "internalType": "address",
          "name": "account",
          "type": "address"
        }
      ],
      "name": "renounceRole",
      "outputs": [],
      "stateMutability": "nonpayable",
      "type": "function"
    },
    {
      "inputs": [
        {
          "internalType": "bytes32",
          "name": "role",
          "type": "bytes32"
        },
        {
          "internalType": "address",
          "name": "account",
          "type": "address"
        }
      ],
      "name": "revokeRole",
      "outputs": [],
      "stateMutability": "nonpayable",
      "type": "function"
    },
    {
      "inputs": [
        {
          "internalType": "bytes4",
          "name": "interfaceId",
          "type": "bytes4"
        }
      ],
      "name": "supportsInterface",
      "outputs": [
        {
          "internalType": "bool",
          "name": "",
          "type": "bool"
        }
      ],
      "stateMutability": "view",
      "type": "function"
    },
    {
      "inputs": [],
      "name": "symbol",
      "outputs": [
        {
          "internalType": "string",
          "name": "",
          "type": "string"
        }
      ],
      "stateMutability": "view",
      "type": "function"
    },
    {
      "inputs": [],
      "name": "totalSupply",
      "outputs": [
        {
          "internalType": "uint256",
          "name": "",
          "type": "uint256"
        }
      ],
      "stateMutability": "view",
      "type": "function"
    },
    {
      "inputs": [
        {
          "internalType": "address",
          "name": "recipient",
          "type": "address"
        },
        {
          "internalType": "uint256",
          "name": "amount",
          "type": "uint256"
        }
      ],
      "name": "transfer",
      "outputs": [
        {
          "internalType": "bool",
          "name": "",
          "type": "bool"
        }
      ],
      "stateMutability": "nonpayable",
      "type": "function"
    },
    {
      "inputs": [
        {
          "internalType": "address",
          "name": "sender",
          "type": "address"
        },
        {
          "internalType": "address",
          "name": "recipient",
          "type": "address"
        },
        {
          "internalType": "uint256",
          "name": "amount",
          "type": "uint256"
        }
      ],
      "name": "transferFrom",
      "outputs": [
        {
          "internalType": "bool",
          "name": "",
          "type": "bool"
        }
      ],
      "stateMutability": "nonpayable",
      "type": "function"
    },
    {
      "inputs": [],
      "name": "unpause",
      "outputs": [],
      "stateMutability": "nonpayable",
      "type": "function"
    }
  ],
  "bytecode": "0x60806040523480156200001157600080fd5b506040518060400160405280600b81526020016a4661726d46696e616e636560a81b8152506040518060400160405280600381526020016211919560ea1b81525081600390805190602001906200006a92919062000318565b5080516200008090600490602084019062000318565b50506005805460ff19169055506200009a600033620000f5565b620000c67f65d7a28e3265b37a6474929f336521b332c1681b933f6cb9f3376673440d862a33620000f5565b620000ef33620000d96012600a62000422565b620000e990630bebc200620004ee565b62000105565b62000563565b620001018282620001fc565b5050565b6001600160a01b038216620001615760405162461bcd60e51b815260206004820152601f60248201527f45524332303a206d696e7420746f20746865207a65726f20616464726573730060448201526064015b60405180910390fd5b6200016f6000838362000286565b8060026000828254620001839190620003be565b90915550506001600160a01b03821660009081526020819052604081208054839290620001b2908490620003be565b90915550506040518181526001600160a01b038316906000907fddf252ad1be2c89b69c2b068fc378daa952ba7f163c4a11628f55a4df523b3ef9060200160405180910390a35050565b620002088282620002eb565b620001015760008281526006602090815260408083206001600160a01b03851684529091529020805460ff19166001179055620002423390565b6001600160a01b0316816001600160a01b0316837f2f8788117e7eff1d82e926ec794901d17c78024a50270940304540a733656f0d60405160405180910390a45050565b60055460ff1615620002ce5760405162461bcd60e51b815260206004820152601060248201526f14185d5cd8589b194e881c185d5cd95960821b604482015260640162000158565b620002e6838383620002e660201b620004dd1760201c565b505050565b60008281526006602090815260408083206001600160a01b038516845290915290205460ff165b92915050565b828054620003269062000510565b90600052602060002090601f0160209004810192826200034a576000855562000395565b82601f106200036557805160ff191683800117855562000395565b8280016001018555821562000395579182015b828111156200039557825182559160200191906001019062000378565b50620003a3929150620003a7565b5090565b5b80821115620003a35760008155600101620003a8565b60008219821115620003d457620003d46200054d565b500190565b600181815b808511156200041a578160001904821115620003fe57620003fe6200054d565b808516156200040c57918102915b93841c9390800290620003de565b509250929050565b60006200043360ff8416836200043a565b9392505050565b6000826200044b5750600162000312565b816200045a5750600062000312565b81600181146200047357600281146200047e576200049e565b600191505062000312565b60ff8411156200049257620004926200054d565b50506001821b62000312565b5060208310610133831016604e8410600b8410161715620004c3575081810a62000312565b620004cf8383620003d9565b8060001904821115620004e657620004e66200054d565b029392505050565b60008160001904831182151516156200050b576200050b6200054d565b500290565b600181811c908216806200052557607f821691505b602082108114156200054757634e487b7160e01b600052602260045260246000fd5b50919050565b634e487b7160e01b600052601160045260246000fd5b61116f80620005736000396000f3fe608060405234801561001057600080fd5b50600436106101425760003560e01c80635c975abb116100b8578063a217fddf1161007c578063a217fddf14610288578063a457c2d714610290578063a9059cbb146102a3578063d547741f146102b6578063dd62ed3e146102c9578063e63ab1e91461030257600080fd5b80635c975abb1461023157806370a082311461023c5780638456cb591461026557806391d148541461026d57806395d89b411461028057600080fd5b8063248a9ca31161010a578063248a9ca3146101bc5780632f2ff15d146101df578063313ce567146101f457806336568abe1461020357806339509351146102165780633f4ba83a1461022957600080fd5b806301ffc9a71461014757806306fdde031461016f578063095ea7b31461018457806318160ddd1461019757806323b872dd146101a9575b600080fd5b61015a610155366004610f9e565b610329565b60405190151581526020015b60405180910390f35b610177610360565b604051610166919061103b565b61015a610192366004610f3b565b6103f2565b6002545b604051908152602001610166565b61015a6101b7366004610f00565b610408565b61019b6101ca366004610f64565b60009081526006602052604090206001015490565b6101f26101ed366004610f7c565b6104b7565b005b60405160128152602001610166565b6101f2610211366004610f7c565b6104e2565b61015a610224366004610f3b565b610560565b6101f261059c565b60055460ff1661015a565b61019b61024a366004610eb4565b6001600160a01b031660009081526020819052604090205490565b6101f26105d2565b61015a61027b366004610f7c565b610605565b610177610630565b61019b600081565b61015a61029e366004610f3b565b61063f565b61015a6102b1366004610f3b565b6106d8565b6101f26102c4366004610f7c565b6106e5565b61019b6102d7366004610ece565b6001600160a01b03918216600090815260016020908152604080832093909416825291909152205490565b61019b7f65d7a28e3265b37a6474929f336521b332c1681b933f6cb9f3376673440d862a81565b60006001600160e01b03198216637965db0b60e01b148061035a57506301ffc9a760e01b6001600160e01b03198316145b92915050565b60606003805461036f906110e8565b80601f016020809104026020016040519081016040528092919081815260200182805461039b906110e8565b80156103e85780601f106103bd576101008083540402835291602001916103e8565b820191906000526020600020905b8154815290600101906020018083116103cb57829003601f168201915b5050505050905090565b60006103ff33848461070b565b50600192915050565b600061041584848461082f565b6001600160a01b03841660009081526001602090815260408083203384529091529020548281101561049f5760405162461bcd60e51b815260206004820152602860248201527f45524332303a207472616e7366657220616d6f756e74206578636565647320616044820152676c6c6f77616e636560c01b60648201526084015b60405180910390fd5b6104ac853385840361070b565b506001949350505050565b6000828152600660205260409020600101546104d38133610a0a565b6104dd8383610a6e565b505050565b6001600160a01b03811633146105525760405162461bcd60e51b815260206004820152602f60248201527f416363657373436f6e74726f6c3a2063616e206f6e6c792072656e6f756e636560448201526e103937b632b9903337b91039b2b63360891b6064820152608401610496565b61055c8282610af4565b5050565b3360008181526001602090815260408083206001600160a01b038716845290915281205490916103ff91859061059790869061106e565b61070b565b7f65d7a28e3265b37a6474929f336521b332c1681b933f6cb9f3376673440d862a6105c78133610a0a565b6105cf610b5b565b50565b7f65d7a28e3265b37a6474929f336521b332c1681b933f6cb9f3376673440d862a6105fd8133610a0a565b6105cf610bee565b60009182526006602090815260408084206001600160a01b0393909316845291905290205460ff1690565b60606004805461036f906110e8565b3360009081526001602090815260408083206001600160a01b0386168452909152812054828110156106c15760405162461bcd60e51b815260206004820152602560248201527f45524332303a2064656372656173656420616c6c6f77616e63652062656c6f77604482015264207a65726f60d81b6064820152608401610496565b6106ce338585840361070b565b5060019392505050565b60006103ff33848461082f565b6000828152600660205260409020600101546107018133610a0a565b6104dd8383610af4565b6001600160a01b03831661076d5760405162461bcd60e51b8152602060048201526024808201527f45524332303a20617070726f76652066726f6d20746865207a65726f206164646044820152637265737360e01b6064820152608401610496565b6001600160a01b0382166107ce5760405162461bcd60e51b815260206004820152602260248201527f45524332303a20617070726f766520746f20746865207a65726f206164647265604482015261737360f01b6064820152608401610496565b6001600160a01b0383811660008181526001602090815260408083209487168084529482529182902085905590518481527f8c5be1e5ebec7d5bd14f71427d1e84f3dd0314c0f7b2291e5b200ac8c7c3b925910160405180910390a3505050565b6001600160a01b0383166108935760405162461bcd60e51b815260206004820152602560248201527f45524332303a207472616e736665722066726f6d20746865207a65726f206164604482015264647265737360d81b6064820152608401610496565b6001600160a01b0382166108f55760405162461bcd60e51b815260206004820152602360248201527f45524332303a207472616e7366657220746f20746865207a65726f206164647260448201526265737360e81b6064820152608401610496565b610900838383610c69565b6001600160a01b038316600090815260208190526040902054818110156109785760405162461bcd60e51b815260206004820152602660248201527f45524332303a207472616e7366657220616d6f756e7420657863656564732062604482015265616c616e636560d01b6064820152608401610496565b6001600160a01b038085166000908152602081905260408082208585039055918516815290812080548492906109af90849061106e565b92505081905550826001600160a01b0316846001600160a01b03167fddf252ad1be2c89b69c2b068fc378daa952ba7f163c4a11628f55a4df523b3ef846040516109fb91815260200190565b60405180910390a35b50505050565b610a148282610605565b61055c57610a2c816001600160a01b03166014610caf565b610a37836020610caf565b604051602001610a48929190610fc6565b60408051601f198184030181529082905262461bcd60e51b82526104969160040161103b565b610a788282610605565b61055c5760008281526006602090815260408083206001600160a01b03851684529091529020805460ff19166001179055610ab03390565b6001600160a01b0316816001600160a01b0316837f2f8788117e7eff1d82e926ec794901d17c78024a50270940304540a733656f0d60405160405180910390a45050565b610afe8282610605565b1561055c5760008281526006602090815260408083206001600160a01b0385168085529252808320805460ff1916905551339285917ff6391f5c32d9c69d2a47ea670b442974b53935d1edc7fd64eb21e047a839171b9190a45050565b60055460ff16610ba45760405162461bcd60e51b815260206004820152601460248201527314185d5cd8589b194e881b9bdd081c185d5cd95960621b6044820152606401610496565b6005805460ff191690557f5db9ee0a495bf2e6ff9c91a7834c1ba4fdd244a5e8aa4e537bd38aeae4b073aa335b6040516001600160a01b03909116815260200160405180910390a1565b60055460ff1615610c345760405162461bcd60e51b815260206004820152601060248201526f14185d5cd8589b194e881c185d5cd95960821b6044820152606401610496565b6005805460ff191660011790557f62e78cea01bee320cd4e420270b5ea74000d11b0c9f74754ebdbfc544b05a258610bd13390565b60055460ff16156104dd5760405162461bcd60e51b815260206004820152601060248201526f14185d5cd8589b194e881c185d5cd95960821b6044820152606401610496565b60606000610cbe836002611086565b610cc990600261106e565b67ffffffffffffffff811115610cef57634e487b7160e01b600052604160045260246000fd5b6040519080825280601f01601f191660200182016040528015610d19576020820181803683370190505b509050600360fc1b81600081518110610d4257634e487b7160e01b600052603260045260246000fd5b60200101906001600160f81b031916908160001a905350600f60fb1b81600181518110610d7f57634e487b7160e01b600052603260045260246000fd5b60200101906001600160f81b031916908160001a9053506000610da3846002611086565b610dae90600161106e565b90505b6001811115610e42576f181899199a1a9b1b9c1cb0b131b232b360811b85600f1660108110610df057634e487b7160e01b600052603260045260246000fd5b1a60f81b828281518110610e1457634e487b7160e01b600052603260045260246000fd5b60200101906001600160f81b031916908160001a90535060049490941c93610e3b816110d1565b9050610db1565b508315610e915760405162461bcd60e51b815260206004820181905260248201527f537472696e67733a20686578206c656e67746820696e73756666696369656e746044820152606401610496565b9392505050565b80356001600160a01b0381168114610eaf57600080fd5b919050565b600060208284031215610ec5578081fd5b610e9182610e98565b60008060408385031215610ee0578081fd5b610ee983610e98565b9150610ef760208401610e98565b90509250929050565b600080600060608486031215610f14578081fd5b610f1d84610e98565b9250610f2b60208501610e98565b9150604084013590509250925092565b60008060408385031215610f4d578182fd5b610f5683610e98565b946020939093013593505050565b600060208284031215610f75578081fd5b5035919050565b60008060408385031215610f8e578182fd5b82359150610ef760208401610e98565b600060208284031215610faf578081fd5b81356001600160e01b031981168114610e91578182fd5b7f416363657373436f6e74726f6c3a206163636f756e7420000000000000000000815260008351610ffe8160178501602088016110a5565b7001034b99036b4b9b9b4b733903937b6329607d1b601791840191820152835161102f8160288401602088016110a5565b01602801949350505050565b602081526000825180602084015261105a8160408501602087016110a5565b601f01601f19169190910160400192915050565b6000821982111561108157611081611123565b500190565b60008160001904831182151516156110a0576110a0611123565b500290565b60005b838110156110c05781810151838201526020016110a8565b83811115610a045750506000910152565b6000816110e0576110e0611123565b506000190190565b600181811c908216806110fc57607f821691505b6020821081141561111d57634e487b7160e01b600052602260045260246000fd5b50919050565b634e487b7160e01b600052601160045260246000fdfea2646970667358221220ac1e702da2349ec1f925f899bac6c11b25ac4dc5b19c9429d2c81e0d98203a5b64736f6c63430008040033",
  "linkReferences": {},
  "deployedLinkReferences": {}
}