{
  "_format": "hh-sol-artifact-1",
  "contractName": "WrapERC721DualRole",
  "sourceName": "contracts/ERC4907/wrap/WrapERC721DualRole.sol",
  "abi": [
    {
      "inputs": [
        {
          "internalType": "string",
          "name": "name_",
          "type": "string"
        },
        {
          "internalType": "string",
          "name": "symbol_",
          "type": "string"
        },
        {
          "internalType": "address",
          "name": "originalAddress_",
          "type": "address"
        }
      ],
      "stateMutability": "nonpayable",
      "type": "constructor"
    },
    {
      "anonymous": false,
      "inputs": [
        {
          "indexed": true,
          "internalType": "address",
          "name": "owner",
          "type": "address"
        },
        {
          "indexed": true,
          "internalType": "address",
          "name": "approved",
          "type": "address"
        },
        {
          "indexed": true,
          "internalType": "uint256",
          "name": "tokenId",
          "type": "uint256"
        }
      ],
      "name": "Approval",
      "type": "event"
    },
    {
      "anonymous": false,
      "inputs": [
        {
          "indexed": true,
          "internalType": "address",
          "name": "owner",
          "type": "address"
        },
        {
          "indexed": true,
          "internalType": "address",
          "name": "operator",
          "type": "address"
        },
        {
          "indexed": false,
          "internalType": "bool",
          "name": "approved",
          "type": "bool"
        }
      ],
      "name": "ApprovalForAll",
      "type": "event"
    },
    {
      "anonymous": false,
      "inputs": [
        {
          "indexed": false,
          "internalType": "address",
          "name": "msgSender",
          "type": "address"
        },
        {
          "indexed": false,
          "internalType": "address",
          "name": "nftAddress",
          "type": "address"
        },
        {
          "indexed": false,
          "internalType": "uint256",
          "name": "tokenId",
          "type": "uint256"
        }
      ],
      "name": "Redeem",
      "type": "event"
    },
    {
      "anonymous": false,
      "inputs": [
        {
          "indexed": false,
          "internalType": "address",
          "name": "msgSender",
          "type": "address"
        },
        {
          "indexed": false,
          "internalType": "address",
          "name": "nftAddress",
          "type": "address"
        },
        {
          "indexed": false,
          "internalType": "uint256",
          "name": "tokenId",
          "type": "uint256"
        }
      ],
      "name": "Stake",
      "type": "event"
    },
    {
      "anonymous": false,
      "inputs": [
        {
          "indexed": true,
          "internalType": "address",
          "name": "from",
          "type": "address"
        },
        {
          "indexed": true,
          "internalType": "address",
          "name": "to",
          "type": "address"
        },
        {
          "indexed": true,
          "internalType": "uint256",
          "name": "tokenId",
          "type": "uint256"
        }
      ],
      "name": "Transfer",
      "type": "event"
    },
    {
      "anonymous": false,
      "inputs": [
        {
          "indexed": true,
          "internalType": "uint256",
          "name": "tokenId",
          "type": "uint256"
        },
        {
          "indexed": true,
          "internalType": "address",
          "name": "user",
          "type": "address"
        },
        {
          "indexed": false,
          "internalType": "uint64",
          "name": "expires",
          "type": "uint64"
        }
      ],
      "name": "UpdateUser",
      "type": "event"
    },
    {
      "inputs": [
        {
          "internalType": "address",
          "name": "to",
          "type": "address"
        },
        {
          "internalType": "uint256",
          "name": "tokenId",
          "type": "uint256"
        }
      ],
      "name": "approve",
      "outputs": [],
      "stateMutability": "nonpayable",
      "type": "function"
    },
    {
      "inputs": [
        {
          "internalType": "address",
          "name": "owner",
          "type": "address"
        }
      ],
      "name": "balanceOf",
      "outputs": [
        {
          "internalType": "uint256",
          "name": "",
          "type": "uint256"
        }
      ],
      "stateMutability": "view",
      "type": "function"
    },
    {
      "inputs": [
        {
          "internalType": "uint256",
          "name": "tokenId",
          "type": "uint256"
        }
      ],
      "name": "getApproved",
      "outputs": [
        {
          "internalType": "address",
          "name": "",
          "type": "address"
        }
      ],
      "stateMutability": "view",
      "type": "function"
    },
    {
      "inputs": [
        {
          "internalType": "address",
          "name": "owner",
          "type": "address"
        },
        {
          "internalType": "address",
          "name": "operator",
          "type": "address"
        }
      ],
      "name": "isApprovedForAll",
      "outputs": [
        {
          "internalType": "bool",
          "name": "",
          "type": "bool"
        }
      ],
      "stateMutability": "view",
      "type": "function"
    },
    {
      "inputs": [],
      "name": "name",
      "outputs": [
        {
          "internalType": "string",
          "name": "",
          "type": "string"
        }
      ],
      "stateMutability": "view",
      "type": "function"
    },
    {
      "inputs": [
        {
          "internalType": "address",
          "name": "operator",
          "type": "address"
        },
        {
          "internalType": "address",
          "name": "from",
          "type": "address"
        },
        {
          "internalType": "uint256",
          "name": "tokenId",
          "type": "uint256"
        },
        {
          "internalType": "bytes",
          "name": "data",
          "type": "bytes"
        }
      ],
      "name": "onERC721Received",
      "outputs": [
        {
          "internalType": "bytes4",
          "name": "",
          "type": "bytes4"
        }
      ],
      "stateMutability": "pure",
      "type": "function"
    },
    {
      "inputs": [],
      "name": "originalAddress",
      "outputs": [
        {
          "internalType": "address",
          "name": "",
          "type": "address"
        }
      ],
      "stateMutability": "view",
      "type": "function"
    },
    {
      "inputs": [
        {
          "internalType": "uint256",
          "name": "tokenId",
          "type": "uint256"
        }
      ],
      "name": "originalOwnerOf",
      "outputs": [
        {
          "internalType": "address",
          "name": "owner",
          "type": "address"
        }
      ],
      "stateMutability": "view",
      "type": "function"
    },
    {
      "inputs": [
        {
          "internalType": "uint256",
          "name": "tokenId",
          "type": "uint256"
        }
      ],
      "name": "ownerOf",
      "outputs": [
        {
          "internalType": "address",
          "name": "",
          "type": "address"
        }
      ],
      "stateMutability": "view",
      "type": "function"
    },
    {
      "inputs": [
        {
          "internalType": "uint256",
          "name": "tokenId",
          "type": "uint256"
        }
      ],
      "name": "redeem",
      "outputs": [],
      "stateMutability": "nonpayable",
      "type": "function"
    },
    {
      "inputs": [
        {
          "internalType": "address",
          "name": "from",
          "type": "address"
        },
        {
          "internalType": "address",
          "name": "to",
          "type": "address"
        },
        {
          "internalType": "uint256",
          "name": "tokenId",
          "type": "uint256"
        }
      ],
      "name": "safeTransferFrom",
      "outputs": [],
      "stateMutability": "nonpayable",
      "type": "function"
    },
    {
      "inputs": [
        {
          "internalType": "address",
          "name": "from",
          "type": "address"
        },
        {
          "internalType": "address",
          "name": "to",
          "type": "address"
        },
        {
          "internalType": "uint256",
          "name": "tokenId",
          "type": "uint256"
        },
        {
          "internalType": "bytes",
          "name": "_data",
          "type": "bytes"
        }
      ],
      "name": "safeTransferFrom",
      "outputs": [],
      "stateMutability": "nonpayable",
      "type": "function"
    },
    {
      "inputs": [
        {
          "internalType": "address",
          "name": "operator",
          "type": "address"
        },
        {
          "internalType": "bool",
          "name": "approved",
          "type": "bool"
        }
      ],
      "name": "setApprovalForAll",
      "outputs": [],
      "stateMutability": "nonpayable",
      "type": "function"
    },
    {
      "inputs": [
        {
          "internalType": "uint256",
          "name": "tokenId",
          "type": "uint256"
        },
        {
          "internalType": "address",
          "name": "user",
          "type": "address"
        },
        {
          "internalType": "uint64",
          "name": "expires",
          "type": "uint64"
        }
      ],
      "name": "setUser",
      "outputs": [],
      "stateMutability": "nonpayable",
      "type": "function"
    },
    {
      "inputs": [
        {
          "internalType": "uint256",
          "name": "tokenId",
          "type": "uint256"
        }
      ],
      "name": "stake",
      "outputs": [
        {
          "internalType": "uint256",
          "name": "",
          "type": "uint256"
        }
      ],
      "stateMutability": "nonpayable",
      "type": "function"
    },
    {
      "inputs": [
        {
          "internalType": "bytes4",
          "name": "interfaceId",
          "type": "bytes4"
        }
      ],
      "name": "supportsInterface",
      "outputs": [
        {
          "internalType": "bool",
          "name": "",
          "type": "bool"
        }
      ],
      "stateMutability": "view",
      "type": "function"
    },
    {
      "inputs": [],
      "name": "symbol",
      "outputs": [
        {
          "internalType": "string",
          "name": "",
          "type": "string"
        }
      ],
      "stateMutability": "view",
      "type": "function"
    },
    {
      "inputs": [
        {
          "internalType": "uint256",
          "name": "tokenId",
          "type": "uint256"
        }
      ],
      "name": "tokenURI",
      "outputs": [
        {
          "internalType": "string",
          "name": "",
          "type": "string"
        }
      ],
      "stateMutability": "view",
      "type": "function"
    },
    {
      "inputs": [
        {
          "internalType": "address",
          "name": "from",
          "type": "address"
        },
        {
          "internalType": "address",
          "name": "to",
          "type": "address"
        },
        {
          "internalType": "uint256",
          "name": "tokenId",
          "type": "uint256"
        }
      ],
      "name": "transferFrom",
      "outputs": [],
      "stateMutability": "nonpayable",
      "type": "function"
    },
    {
      "inputs": [
        {
          "internalType": "uint256",
          "name": "tokenId",
          "type": "uint256"
        }
      ],
      "name": "userExpires",
      "outputs": [
        {
          "internalType": "uint256",
          "name": "",
          "type": "uint256"
        }
      ],
      "stateMutability": "view",
      "type": "function"
    },
    {
      "inputs": [
        {
          "internalType": "uint256",
          "name": "tokenId",
          "type": "uint256"
        }
      ],
      "name": "userOf",
      "outputs": [
        {
          "internalType": "address",
          "name": "",
          "type": "address"
        }
      ],
      "stateMutability": "view",
      "type": "function"
    }
  ],
  "bytecode": "0x60806040523480156200001157600080fd5b5060405162003cf238038062003cf28339818101604052810190620000379190620003bc565b8282818181600090805190602001906200005392919062000240565b5080600190805190602001906200006c92919062000240565b5050505050600073ffffffffffffffffffffffffffffffffffffffff16600760009054906101000a900473ffffffffffffffffffffffffffffffffffffffff1673ffffffffffffffffffffffffffffffffffffffff161462000105576040517f08c379a0000000000000000000000000000000000000000000000000000000008152600401620000fc90620004c0565b60405180910390fd5b8073ffffffffffffffffffffffffffffffffffffffff166301ffc9a77f80ac58cd000000000000000000000000000000000000000000000000000000006040518263ffffffff1660e01b8152600401620001609190620004a3565b60206040518083038186803b1580156200017957600080fd5b505afa1580156200018e573d6000803e3d6000fd5b505050506040513d601f19601f82011682018060405250810190620001b4919062000390565b620001f6576040517f08c379a0000000000000000000000000000000000000000000000000000000008152600401620001ed90620004e2565b60405180910390fd5b80600760006101000a81548173ffffffffffffffffffffffffffffffffffffffff021916908373ffffffffffffffffffffffffffffffffffffffff16021790555050505062000777565b8280546200024e9062000616565b90600052602060002090601f016020900481019282620002725760008555620002be565b82601f106200028d57805160ff1916838001178555620002be565b82800160010185558215620002be579182015b82811115620002bd578251825591602001919060010190620002a0565b5b509050620002cd9190620002d1565b5090565b5b80821115620002ec576000816000905550600101620002d2565b5090565b60006200030762000301846200052d565b62000504565b9050828152602081018484840111156200032057600080fd5b6200032d848285620005e0565b509392505050565b600081519050620003468162000743565b92915050565b6000815190506200035d816200075d565b92915050565b600082601f8301126200037557600080fd5b815162000387848260208601620002f0565b91505092915050565b600060208284031215620003a357600080fd5b6000620003b3848285016200034c565b91505092915050565b600080600060608486031215620003d257600080fd5b600084015167ffffffffffffffff811115620003ed57600080fd5b620003fb8682870162000363565b935050602084015167ffffffffffffffff8111156200041957600080fd5b620004278682870162000363565b92505060406200043a8682870162000335565b9150509250925092565b6200044f8162000594565b82525050565b600062000464600e8362000563565b91506200047182620006f1565b602082019050919050565b60006200048b600a8362000563565b915062000498826200071a565b602082019050919050565b6000602082019050620004ba600083018462000444565b92915050565b60006020820190508181036000830152620004db8162000455565b9050919050565b60006020820190508181036000830152620004fd816200047c565b9050919050565b60006200051062000523565b90506200051e82826200064c565b919050565b6000604051905090565b600067ffffffffffffffff8211156200054b576200054a620006b1565b5b6200055682620006e0565b9050602081019050919050565b600082825260208201905092915050565b60006200058182620005c0565b9050919050565b60008115159050919050565b60007fffffffff0000000000000000000000000000000000000000000000000000000082169050919050565b600073ffffffffffffffffffffffffffffffffffffffff82169050919050565b60005b8381101562000600578082015181840152602081019050620005e3565b8381111562000610576000848401525b50505050565b600060028204905060018216806200062f57607f821691505b6020821081141562000646576200064562000682565b5b50919050565b6200065782620006e0565b810181811067ffffffffffffffff82111715620006795762000678620006b1565b5b80604052505050565b7f4e487b7100000000000000000000000000000000000000000000000000000000600052602260045260246000fd5b7f4e487b7100000000000000000000000000000000000000000000000000000000600052604160045260246000fd5b6000601f19601f8301169050919050565b7f696e6974656420616c7265616479000000000000000000000000000000000000600082015250565b7f6e6f742045524337323100000000000000000000000000000000000000000000600082015250565b6200074e8162000574565b81146200075a57600080fd5b50565b620007688162000588565b81146200077457600080fd5b50565b61356b80620007876000396000f3fe608060405234801561001057600080fd5b50600436106101375760003560e01c80638fc88c48116100b8578063c2f1f14a1161007c578063c2f1f14a14610384578063c87b56dd146103b4578063cab416b4146103e4578063db006a7514610402578063e030565e1461041e578063e985e9c51461043a57610137565b80638fc88c48146102ce57806395d89b41146102fe578063a22cb4651461031c578063a694fc3a14610338578063b88d4fde1461036857610137565b806323b872dd116100ff57806323b872dd1461020657806342842e0e146102225780636352211e1461023e57806370a082311461026e57806373b64ac51461029e57610137565b806301ffc9a71461013c57806306fdde031461016c578063081812fc1461018a578063095ea7b3146101ba578063150b7a02146101d6575b600080fd5b610156600480360381019061015191906126f1565b61046a565b6040516101639190612b79565b60405180910390f35b61017461054c565b6040516101819190612bca565b60405180910390f35b6101a4600480360381019061019f9190612784565b6105de565b6040516101b19190612ab2565b60405180910390f35b6101d460048036038101906101cf919061268c565b610663565b005b6101f060048036038101906101eb9190612555565b61077b565b6040516101fd9190612b94565b60405180910390f35b610220600480360381019061021b9190612506565b610795565b005b61023c60048036038101906102379190612506565b6107f5565b005b61025860048036038101906102539190612784565b610815565b6040516102659190612ab2565b60405180910390f35b61028860048036038101906102839190612478565b6108c7565b6040516102959190612dac565b60405180910390f35b6102b860048036038101906102b39190612784565b61097f565b6040516102c59190612ab2565b60405180910390f35b6102e860048036038101906102e39190612784565b610a73565b6040516102f59190612dac565b60405180910390f35b610306610ab1565b6040516103139190612bca565b60405180910390f35b61033660048036038101906103319190612650565b610b43565b005b610352600480360381019061034d9190612784565b610b59565b60405161035f9190612dac565b60405180910390f35b610382600480360381019061037d91906125d5565b610d77565b005b61039e60048036038101906103999190612784565b610dd9565b6040516103ab9190612ab2565b60405180910390f35b6103ce60048036038101906103c99190612784565b610e5e565b6040516103db9190612bca565b60405180910390f35b6103ec610f17565b6040516103f99190612ab2565b60405180910390f35b61041c60048036038101906104179190612784565b610f41565b005b610438600480360381019061043391906127ad565b611093565b005b610454600480360381019061044f91906124ca565b6111b6565b6040516104619190612b79565b60405180910390f35b60007fb72080fb000000000000000000000000000000000000000000000000000000007bffffffffffffffffffffffffffffffffffffffffffffffffffffffff1916827bffffffffffffffffffffffffffffffffffffffffffffffffffffffff1916148061053557507fad092b5c000000000000000000000000000000000000000000000000000000007bffffffffffffffffffffffffffffffffffffffffffffffffffffffff1916827bffffffffffffffffffffffffffffffffffffffffffffffffffffffff1916145b8061054557506105448261124a565b5b9050919050565b60606000805461055b90613007565b80601f016020809104026020016040519081016040528092919081815260200182805461058790613007565b80156105d45780601f106105a9576101008083540402835291602001916105d4565b820191906000526020600020905b8154815290600101906020018083116105b757829003601f168201915b5050505050905090565b60006105e9826112c4565b610628576040517f08c379a000000000000000000000000000000000000000000000000000000000815260040161061f90612d2c565b60405180910390fd5b6004600083815260200190815260200160002060009054906101000a900473ffffffffffffffffffffffffffffffffffffffff169050919050565b600061066e82610815565b90508073ffffffffffffffffffffffffffffffffffffffff168373ffffffffffffffffffffffffffffffffffffffff1614156106df576040517f08c379a00000000000000000000000000000000000000000000000000000000081526004016106d690612d6c565b60405180910390fd5b8073ffffffffffffffffffffffffffffffffffffffff166106fe611330565b73ffffffffffffffffffffffffffffffffffffffff16148061072d575061072c81610727611330565b6111b6565b5b61076c576040517f08c379a000000000000000000000000000000000000000000000000000000000815260040161076390612cac565b60405180910390fd5b6107768383611338565b505050565b60008063150b7a0260e01b90508091505095945050505050565b6107a66107a0611330565b826113f1565b6107e5576040517f08c379a00000000000000000000000000000000000000000000000000000000081526004016107dc90612d8c565b60405180910390fd5b6107f08383836114cf565b505050565b61081083838360405180602001604052806000815250610d77565b505050565b6000806002600084815260200190815260200160002060009054906101000a900473ffffffffffffffffffffffffffffffffffffffff169050600073ffffffffffffffffffffffffffffffffffffffff168173ffffffffffffffffffffffffffffffffffffffff1614156108be576040517f08c379a00000000000000000000000000000000000000000000000000000000081526004016108b590612cec565b60405180910390fd5b80915050919050565b60008073ffffffffffffffffffffffffffffffffffffffff168273ffffffffffffffffffffffffffffffffffffffff161415610938576040517f08c379a000000000000000000000000000000000000000000000000000000000815260040161092f90612ccc565b60405180910390fd5b600360008373ffffffffffffffffffffffffffffffffffffffff1673ffffffffffffffffffffffffffffffffffffffff168152602001908152602001600020549050919050565b6000600760009054906101000a900473ffffffffffffffffffffffffffffffffffffffff1673ffffffffffffffffffffffffffffffffffffffff16636352211e836040518263ffffffff1660e01b81526004016109dc9190612dac565b60206040518083038186803b1580156109f457600080fd5b505afa158015610a08573d6000803e3d6000fd5b505050506040513d601f19601f82011682018060405250810190610a2c91906124a1565b90503073ffffffffffffffffffffffffffffffffffffffff168173ffffffffffffffffffffffffffffffffffffffff161415610a6e57610a6b82610815565b90505b919050565b60006006600083815260200190815260200160002060000160149054906101000a900467ffffffffffffffff1667ffffffffffffffff169050919050565b606060018054610ac090613007565b80601f0160208091040260200160405190810160405280929190818152602001828054610aec90613007565b8015610b395780601f10610b0e57610100808354040283529160200191610b39565b820191906000526020600020905b815481529060010190602001808311610b1c57829003601f168201915b5050505050905090565b610b55610b4e611330565b8383611736565b5050565b6000610b8833600760009054906101000a900473ffffffffffffffffffffffffffffffffffffffff16846118a3565b610bc7576040517f08c379a0000000000000000000000000000000000000000000000000000000008152600401610bbe90612d4c565b60405180910390fd5b6000600760009054906101000a900473ffffffffffffffffffffffffffffffffffffffff1673ffffffffffffffffffffffffffffffffffffffff16636352211e846040518263ffffffff1660e01b8152600401610c249190612dac565b60206040518083038186803b158015610c3c57600080fd5b505afa158015610c50573d6000803e3d6000fd5b505050506040513d601f19601f82011682018060405250810190610c7491906124a1565b9050600760009054906101000a900473ffffffffffffffffffffffffffffffffffffffff1673ffffffffffffffffffffffffffffffffffffffff166342842e0e8230866040518463ffffffff1660e01b8152600401610cd593929190612af6565b600060405180830381600087803b158015610cef57600080fd5b505af1158015610d03573d6000803e3d6000fd5b50505050610d118184611b2a565b7f99039fcf0a98f484616c5196ee8b2ecfa971babf0b519848289ea4db381f85f733600760009054906101000a900473ffffffffffffffffffffffffffffffffffffffff1685604051610d6693929190612af6565b60405180910390a182915050919050565b610d88610d82611330565b836113f1565b610dc7576040517f08c379a0000000000000000000000000000000000000000000000000000000008152600401610dbe90612d8c565b60405180910390fd5b610dd384848484611d04565b50505050565b6000426006600084815260200190815260200160002060000160149054906101000a900467ffffffffffffffff1667ffffffffffffffff1610610e54576006600083815260200190815260200160002060000160009054906101000a900473ffffffffffffffffffffffffffffffffffffffff169050610e59565b600090505b919050565b6060600760009054906101000a900473ffffffffffffffffffffffffffffffffffffffff1673ffffffffffffffffffffffffffffffffffffffff1663c87b56dd836040518263ffffffff1660e01b8152600401610ebb9190612dac565b60006040518083038186803b158015610ed357600080fd5b505afa158015610ee7573d6000803e3d6000fd5b505050506040513d6000823e3d601f19601f82011682018060405250810190610f109190612743565b9050919050565b6000600760009054906101000a900473ffffffffffffffffffffffffffffffffffffffff16905090565b610f52610f4c611330565b826113f1565b610f91576040517f08c379a0000000000000000000000000000000000000000000000000000000008152600401610f8890612d8c565b60405180910390fd5b600760009054906101000a900473ffffffffffffffffffffffffffffffffffffffff1673ffffffffffffffffffffffffffffffffffffffff166342842e0e30610fd984610815565b846040518463ffffffff1660e01b8152600401610ff893929190612af6565b600060405180830381600087803b15801561101257600080fd5b505af1158015611026573d6000803e3d6000fd5b5050505061103381611d60565b7fd12200efa34901b99367694174c3b0d32c99585fdf37c7c26892136ddd0836d933600760009054906101000a900473ffffffffffffffffffffffffffffffffffffffff168360405161108893929190612af6565b60405180910390a150565b61109d33846113f1565b6110dc576040517f08c379a00000000000000000000000000000000000000000000000000000000081526004016110d390612d8c565b60405180910390fd5b6000600660008581526020019081526020016000209050828160000160006101000a81548173ffffffffffffffffffffffffffffffffffffffff021916908373ffffffffffffffffffffffffffffffffffffffff160217905550818160000160146101000a81548167ffffffffffffffff021916908367ffffffffffffffff1602179055508273ffffffffffffffffffffffffffffffffffffffff16847f4e06b4e7000e659094299b3533b47b6aa8ad048e95e872d23d1f4ee55af89cfe846040516111a89190612dc7565b60405180910390a350505050565b6000600560008473ffffffffffffffffffffffffffffffffffffffff1673ffffffffffffffffffffffffffffffffffffffff16815260200190815260200160002060008373ffffffffffffffffffffffffffffffffffffffff1673ffffffffffffffffffffffffffffffffffffffff16815260200190815260200160002060009054906101000a900460ff16905092915050565b60007fad092b5c000000000000000000000000000000000000000000000000000000007bffffffffffffffffffffffffffffffffffffffffffffffffffffffff1916827bffffffffffffffffffffffffffffffffffffffffffffffffffffffff191614806112bd57506112bc82611e7d565b5b9050919050565b60008073ffffffffffffffffffffffffffffffffffffffff166002600084815260200190815260200160002060009054906101000a900473ffffffffffffffffffffffffffffffffffffffff1673ffffffffffffffffffffffffffffffffffffffff1614159050919050565b600033905090565b816004600083815260200190815260200160002060006101000a81548173ffffffffffffffffffffffffffffffffffffffff021916908373ffffffffffffffffffffffffffffffffffffffff160217905550808273ffffffffffffffffffffffffffffffffffffffff166113ab83610815565b73ffffffffffffffffffffffffffffffffffffffff167f8c5be1e5ebec7d5bd14f71427d1e84f3dd0314c0f7b2291e5b200ac8c7c3b92560405160405180910390a45050565b60006113fc826112c4565b61143b576040517f08c379a000000000000000000000000000000000000000000000000000000000815260040161143290612c8c565b60405180910390fd5b600061144683610815565b90508073ffffffffffffffffffffffffffffffffffffffff168473ffffffffffffffffffffffffffffffffffffffff161480611488575061148781856111b6565b5b806114c657508373ffffffffffffffffffffffffffffffffffffffff166114ae846105de565b73ffffffffffffffffffffffffffffffffffffffff16145b91505092915050565b8273ffffffffffffffffffffffffffffffffffffffff166114ef82610815565b73ffffffffffffffffffffffffffffffffffffffff1614611545576040517f08c379a000000000000000000000000000000000000000000000000000000000815260040161153c90612c0c565b60405180910390fd5b600073ffffffffffffffffffffffffffffffffffffffff168273ffffffffffffffffffffffffffffffffffffffff1614156115b5576040517f08c379a00000000000000000000000000000000000000000000000000000000081526004016115ac90612c4c565b60405180910390fd5b6115c0838383611f5f565b6115cb600082611338565b6001600360008573ffffffffffffffffffffffffffffffffffffffff1673ffffffffffffffffffffffffffffffffffffffff168152602001908152602001600020600082825461161b9190612ef7565b925050819055506001600360008473ffffffffffffffffffffffffffffffffffffffff1673ffffffffffffffffffffffffffffffffffffffff16815260200190815260200160002060008282546116729190612ea1565b92505081905550816002600083815260200190815260200160002060006101000a81548173ffffffffffffffffffffffffffffffffffffffff021916908373ffffffffffffffffffffffffffffffffffffffff160217905550808273ffffffffffffffffffffffffffffffffffffffff168473ffffffffffffffffffffffffffffffffffffffff167fddf252ad1be2c89b69c2b068fc378daa952ba7f163c4a11628f55a4df523b3ef60405160405180910390a4611731838383612088565b505050565b8173ffffffffffffffffffffffffffffffffffffffff168373ffffffffffffffffffffffffffffffffffffffff1614156117a5576040517f08c379a000000000000000000000000000000000000000000000000000000000815260040161179c90612c6c565b60405180910390fd5b80600560008573ffffffffffffffffffffffffffffffffffffffff1673ffffffffffffffffffffffffffffffffffffffff16815260200190815260200160002060008473ffffffffffffffffffffffffffffffffffffffff1673ffffffffffffffffffffffffffffffffffffffff16815260200190815260200160002060006101000a81548160ff0219169083151502179055508173ffffffffffffffffffffffffffffffffffffffff168373ffffffffffffffffffffffffffffffffffffffff167f17307eab39ab6107e8899845ad3d59bd9653f200f220920489ca2b5937696c31836040516118969190612b79565b60405180910390a3505050565b6000808373ffffffffffffffffffffffffffffffffffffffff16636352211e846040518263ffffffff1660e01b81526004016118df9190612dac565b60206040518083038186803b1580156118f757600080fd5b505afa15801561190b573d6000803e3d6000fd5b505050506040513d601f19601f8201168201806040525081019061192f91906124a1565b9050600073ffffffffffffffffffffffffffffffffffffffff168173ffffffffffffffffffffffffffffffffffffffff1614156119a1576040517f08c379a000000000000000000000000000000000000000000000000000000000815260040161199890612c8c565b60405180910390fd5b8073ffffffffffffffffffffffffffffffffffffffff168573ffffffffffffffffffffffffffffffffffffffff161480611a8e57508473ffffffffffffffffffffffffffffffffffffffff168473ffffffffffffffffffffffffffffffffffffffff1663081812fc856040518263ffffffff1660e01b8152600401611a269190612dac565b60206040518083038186803b158015611a3e57600080fd5b505afa158015611a52573d6000803e3d6000fd5b505050506040513d601f19601f82011682018060405250810190611a7691906124a1565b73ffffffffffffffffffffffffffffffffffffffff16145b80611b2057508373ffffffffffffffffffffffffffffffffffffffff1663e985e9c582876040518363ffffffff1660e01b8152600401611acf929190612acd565b60206040518083038186803b158015611ae757600080fd5b505afa158015611afb573d6000803e3d6000fd5b505050506040513d601f19601f82011682018060405250810190611b1f91906126c8565b5b9150509392505050565b600073ffffffffffffffffffffffffffffffffffffffff168273ffffffffffffffffffffffffffffffffffffffff161415611b9a576040517f08c379a0000000000000000000000000000000000000000000000000000000008152600401611b9190612d0c565b60405180910390fd5b611ba3816112c4565b15611be3576040517f08c379a0000000000000000000000000000000000000000000000000000000008152600401611bda90612c2c565b60405180910390fd5b611bef60008383611f5f565b6001600360008473ffffffffffffffffffffffffffffffffffffffff1673ffffffffffffffffffffffffffffffffffffffff1681526020019081526020016000206000828254611c3f9190612ea1565b92505081905550816002600083815260200190815260200160002060006101000a81548173ffffffffffffffffffffffffffffffffffffffff021916908373ffffffffffffffffffffffffffffffffffffffff160217905550808273ffffffffffffffffffffffffffffffffffffffff16600073ffffffffffffffffffffffffffffffffffffffff167fddf252ad1be2c89b69c2b068fc378daa952ba7f163c4a11628f55a4df523b3ef60405160405180910390a4611d0060008383612088565b5050565b611d0f8484846114cf565b611d1b8484848461208d565b611d5a576040517f08c379a0000000000000000000000000000000000000000000000000000000008152600401611d5190612bec565b60405180910390fd5b50505050565b6000611d6b82610815565b9050611d7981600084611f5f565b611d84600083611338565b6001600360008373ffffffffffffffffffffffffffffffffffffffff1673ffffffffffffffffffffffffffffffffffffffff1681526020019081526020016000206000828254611dd49190612ef7565b925050819055506002600083815260200190815260200160002060006101000a81549073ffffffffffffffffffffffffffffffffffffffff021916905581600073ffffffffffffffffffffffffffffffffffffffff168273ffffffffffffffffffffffffffffffffffffffff167fddf252ad1be2c89b69c2b068fc378daa952ba7f163c4a11628f55a4df523b3ef60405160405180910390a4611e7981600084612088565b5050565b60007f80ac58cd000000000000000000000000000000000000000000000000000000007bffffffffffffffffffffffffffffffffffffffffffffffffffffffff1916827bffffffffffffffffffffffffffffffffffffffffffffffffffffffff19161480611f4857507f5b5e139f000000000000000000000000000000000000000000000000000000007bffffffffffffffffffffffffffffffffffffffffffffffffffffffff1916827bffffffffffffffffffffffffffffffffffffffffffffffffffffffff1916145b80611f585750611f5782612224565b5b9050919050565b611f6a83838361228e565b8173ffffffffffffffffffffffffffffffffffffffff168373ffffffffffffffffffffffffffffffffffffffff16146120835760006006600083815260200190815260200160002060000160006101000a81548173ffffffffffffffffffffffffffffffffffffffff021916908373ffffffffffffffffffffffffffffffffffffffff16021790555060006006600083815260200190815260200160002060000160146101000a81548167ffffffffffffffff021916908367ffffffffffffffff160217905550600073ffffffffffffffffffffffffffffffffffffffff16817f4e06b4e7000e659094299b3533b47b6aa8ad048e95e872d23d1f4ee55af89cfe600060405161207a9190612baf565b60405180910390a35b505050565b505050565b60006120ae8473ffffffffffffffffffffffffffffffffffffffff16612293565b15612217578373ffffffffffffffffffffffffffffffffffffffff1663150b7a026120d7611330565b8786866040518563ffffffff1660e01b81526004016120f99493929190612b2d565b602060405180830381600087803b15801561211357600080fd5b505af192505050801561214457506040513d601f19601f82011682018060405250810190612141919061271a565b60015b6121c7573d8060008114612174576040519150601f19603f3d011682016040523d82523d6000602084013e612179565b606091505b506000815114156121bf576040517f08c379a00000000000000000000000000000000000000000000000000000000081526004016121b690612bec565b60405180910390fd5b805181602001fd5b63150b7a0260e01b7bffffffffffffffffffffffffffffffffffffffffffffffffffffffff1916817bffffffffffffffffffffffffffffffffffffffffffffffffffffffff19161491505061221c565b600190505b949350505050565b60007f01ffc9a7000000000000000000000000000000000000000000000000000000007bffffffffffffffffffffffffffffffffffffffffffffffffffffffff1916827bffffffffffffffffffffffffffffffffffffffffffffffffffffffff1916149050919050565b505050565b6000808273ffffffffffffffffffffffffffffffffffffffff163b119050919050565b60006122c96122c484612e07565b612de2565b9050828152602081018484840111156122e157600080fd5b6122ec848285612fc5565b509392505050565b600061230761230284612e38565b612de2565b90508281526020810184848401111561231f57600080fd5b61232a848285612fd4565b509392505050565b600081359050612341816134c2565b92915050565b600081519050612356816134c2565b92915050565b60008135905061236b816134d9565b92915050565b600081519050612380816134d9565b92915050565b600081359050612395816134f0565b92915050565b6000815190506123aa816134f0565b92915050565b60008083601f8401126123c257600080fd5b8235905067ffffffffffffffff8111156123db57600080fd5b6020830191508360018202830111156123f357600080fd5b9250929050565b600082601f83011261240b57600080fd5b813561241b8482602086016122b6565b91505092915050565b600082601f83011261243557600080fd5b81516124458482602086016122f4565b91505092915050565b60008135905061245d81613507565b92915050565b6000813590506124728161351e565b92915050565b60006020828403121561248a57600080fd5b600061249884828501612332565b91505092915050565b6000602082840312156124b357600080fd5b60006124c184828501612347565b91505092915050565b600080604083850312156124dd57600080fd5b60006124eb85828601612332565b92505060206124fc85828601612332565b9150509250929050565b60008060006060848603121561251b57600080fd5b600061252986828701612332565b935050602061253a86828701612332565b925050604061254b8682870161244e565b9150509250925092565b60008060008060006080868803121561256d57600080fd5b600061257b88828901612332565b955050602061258c88828901612332565b945050604061259d8882890161244e565b935050606086013567ffffffffffffffff8111156125ba57600080fd5b6125c6888289016123b0565b92509250509295509295909350565b600080600080608085870312156125eb57600080fd5b60006125f987828801612332565b945050602061260a87828801612332565b935050604061261b8782880161244e565b925050606085013567ffffffffffffffff81111561263857600080fd5b612644878288016123fa565b91505092959194509250565b6000806040838503121561266357600080fd5b600061267185828601612332565b92505060206126828582860161235c565b9150509250929050565b6000806040838503121561269f57600080fd5b60006126ad85828601612332565b92505060206126be8582860161244e565b9150509250929050565b6000602082840312156126da57600080fd5b60006126e884828501612371565b91505092915050565b60006020828403121561270357600080fd5b600061271184828501612386565b91505092915050565b60006020828403121561272c57600080fd5b600061273a8482850161239b565b91505092915050565b60006020828403121561275557600080fd5b600082015167ffffffffffffffff81111561276f57600080fd5b61277b84828501612424565b91505092915050565b60006020828403121561279657600080fd5b60006127a48482850161244e565b91505092915050565b6000806000606084860312156127c257600080fd5b60006127d08682870161244e565b93505060206127e186828701612332565b92505060406127f286828701612463565b9150509250925092565b61280581612f2b565b82525050565b61281481612f3d565b82525050565b61282381612f49565b82525050565b600061283482612e69565b61283e8185612e7f565b935061284e818560208601612fd4565b612857816130f7565b840191505092915050565b61286b81612fb3565b82525050565b600061287c82612e74565b6128868185612e90565b9350612896818560208601612fd4565b61289f816130f7565b840191505092915050565b60006128b7603283612e90565b91506128c282613108565b604082019050919050565b60006128da602583612e90565b91506128e582613157565b604082019050919050565b60006128fd601c83612e90565b9150612908826131a6565b602082019050919050565b6000612920602483612e90565b915061292b826131cf565b604082019050919050565b6000612943601983612e90565b915061294e8261321e565b602082019050919050565b6000612966602c83612e90565b915061297182613247565b604082019050919050565b6000612989603883612e90565b915061299482613296565b604082019050919050565b60006129ac602a83612e90565b91506129b7826132e5565b604082019050919050565b60006129cf602983612e90565b91506129da82613334565b604082019050919050565b60006129f2602083612e90565b91506129fd82613383565b602082019050919050565b6000612a15602c83612e90565b9150612a20826133ac565b604082019050919050565b6000612a38601683612e90565b9150612a43826133fb565b602082019050919050565b6000612a5b602183612e90565b9150612a6682613424565b604082019050919050565b6000612a7e603183612e90565b9150612a8982613473565b604082019050919050565b612a9d81612f95565b82525050565b612aac81612f9f565b82525050565b6000602082019050612ac760008301846127fc565b92915050565b6000604082019050612ae260008301856127fc565b612aef60208301846127fc565b9392505050565b6000606082019050612b0b60008301866127fc565b612b1860208301856127fc565b612b256040830184612a94565b949350505050565b6000608082019050612b4260008301876127fc565b612b4f60208301866127fc565b612b5c6040830185612a94565b8181036060830152612b6e8184612829565b905095945050505050565b6000602082019050612b8e600083018461280b565b92915050565b6000602082019050612ba9600083018461281a565b92915050565b6000602082019050612bc46000830184612862565b92915050565b60006020820190508181036000830152612be48184612871565b905092915050565b60006020820190508181036000830152612c05816128aa565b9050919050565b60006020820190508181036000830152612c25816128cd565b9050919050565b60006020820190508181036000830152612c45816128f0565b9050919050565b60006020820190508181036000830152612c6581612913565b9050919050565b60006020820190508181036000830152612c8581612936565b9050919050565b60006020820190508181036000830152612ca581612959565b9050919050565b60006020820190508181036000830152612cc58161297c565b9050919050565b60006020820190508181036000830152612ce58161299f565b9050919050565b60006020820190508181036000830152612d05816129c2565b9050919050565b60006020820190508181036000830152612d25816129e5565b9050919050565b60006020820190508181036000830152612d4581612a08565b9050919050565b60006020820190508181036000830152612d6581612a2b565b9050919050565b60006020820190508181036000830152612d8581612a4e565b9050919050565b60006020820190508181036000830152612da581612a71565b9050919050565b6000602082019050612dc16000830184612a94565b92915050565b6000602082019050612ddc6000830184612aa3565b92915050565b6000612dec612dfd565b9050612df88282613039565b919050565b6000604051905090565b600067ffffffffffffffff821115612e2257612e216130c8565b5b612e2b826130f7565b9050602081019050919050565b600067ffffffffffffffff821115612e5357612e526130c8565b5b612e5c826130f7565b9050602081019050919050565b600081519050919050565b600081519050919050565b600082825260208201905092915050565b600082825260208201905092915050565b6000612eac82612f95565b9150612eb783612f95565b9250827fffffffffffffffffffffffffffffffffffffffffffffffffffffffffffffffff03821115612eec57612eeb61306a565b5b828201905092915050565b6000612f0282612f95565b9150612f0d83612f95565b925082821015612f2057612f1f61306a565b5b828203905092915050565b6000612f3682612f75565b9050919050565b60008115159050919050565b60007fffffffff0000000000000000000000000000000000000000000000000000000082169050919050565b600073ffffffffffffffffffffffffffffffffffffffff82169050919050565b6000819050919050565b600067ffffffffffffffff82169050919050565b6000612fbe82612f9f565b9050919050565b82818337600083830152505050565b60005b83811015612ff2578082015181840152602081019050612fd7565b83811115613001576000848401525b50505050565b6000600282049050600182168061301f57607f821691505b6020821081141561303357613032613099565b5b50919050565b613042826130f7565b810181811067ffffffffffffffff82111715613061576130606130c8565b5b80604052505050565b7f4e487b7100000000000000000000000000000000000000000000000000000000600052601160045260246000fd5b7f4e487b7100000000000000000000000000000000000000000000000000000000600052602260045260246000fd5b7f4e487b7100000000000000000000000000000000000000000000000000000000600052604160045260246000fd5b6000601f19601f8301169050919050565b7f4552433732313a207472616e7366657220746f206e6f6e20455243373231526560008201527f63656976657220696d706c656d656e7465720000000000000000000000000000602082015250565b7f4552433732313a207472616e736665722066726f6d20696e636f72726563742060008201527f6f776e6572000000000000000000000000000000000000000000000000000000602082015250565b7f4552433732313a20746f6b656e20616c7265616479206d696e74656400000000600082015250565b7f4552433732313a207472616e7366657220746f20746865207a65726f2061646460008201527f7265737300000000000000000000000000000000000000000000000000000000602082015250565b7f4552433732313a20617070726f766520746f2063616c6c657200000000000000600082015250565b7f4552433732313a206f70657261746f7220717565727920666f72206e6f6e657860008201527f697374656e7420746f6b656e0000000000000000000000000000000000000000602082015250565b7f4552433732313a20617070726f76652063616c6c6572206973206e6f74206f7760008201527f6e6572206e6f7220617070726f76656420666f7220616c6c0000000000000000602082015250565b7f4552433732313a2062616c616e636520717565727920666f7220746865207a6560008201527f726f206164647265737300000000000000000000000000000000000000000000602082015250565b7f4552433732313a206f776e657220717565727920666f72206e6f6e657869737460008201527f656e7420746f6b656e0000000000000000000000000000000000000000000000602082015250565b7f4552433732313a206d696e7420746f20746865207a65726f2061646472657373600082015250565b7f4552433732313a20617070726f76656420717565727920666f72206e6f6e657860008201527f697374656e7420746f6b656e0000000000000000000000000000000000000000602082015250565b7f6f6e6c7920617070726f766564206f72206f776e657200000000000000000000600082015250565b7f4552433732313a20617070726f76616c20746f2063757272656e74206f776e6560008201527f7200000000000000000000000000000000000000000000000000000000000000602082015250565b7f4552433732313a207472616e736665722063616c6c6572206973206e6f74206f60008201527f776e6572206e6f7220617070726f766564000000000000000000000000000000602082015250565b6134cb81612f2b565b81146134d657600080fd5b50565b6134e281612f3d565b81146134ed57600080fd5b50565b6134f981612f49565b811461350457600080fd5b50565b61351081612f95565b811461351b57600080fd5b50565b61352781612f9f565b811461353257600080fd5b5056fea2646970667358221220ce73776a910e883d0cf6b3fbdf7862f24803dfcc0fe0ce6299b5a7aaa532dd7164736f6c63430008040033",
  "linkReferences": {},
  "deployedLinkReferences": {}
}