{
  "_format": "hh-sol-artifact-1",
  "contractName": "DoubleSVG",
  "sourceName": "contracts/DoubleSVG.sol",
  "abi": [
    {
      "inputs": [
        {
          "internalType": "uint256",
          "name": "tokenId",
          "type": "uint256"
        },
        {
          "internalType": "string",
          "name": "name",
          "type": "string"
        },
        {
          "internalType": "string",
          "name": "type_value",
          "type": "string"
        },
        {
          "internalType": "uint64",
          "name": "start_time",
          "type": "uint64"
        },
        {
          "internalType": "uint64",
          "name": "end_time",
          "type": "uint64"
        }
      ],
      "name": "genTokenURI",
      "outputs": [
        {
          "internalType": "string",
          "name": "",
          "type": "string"
        }
      ],
      "stateMutability": "view",
      "type": "function"
    }
  ],
  "bytecode": "0x612e2b610053600b82828239805160001a607314610046577f4e487b7100000000000000000000000000000000000000000000000000000000600052600060045260246000fd5b30600052607381538281f3fe73000000000000000000000000000000000000000030146080604052600436106100355760003560e01c80630557ba511461003a575b600080fd5b610054600480360381019061004f9190610ad6565b61006a565b6040516100619190611126565b60405180910390f35b6060600061008161007c858589610124565b6102d4565b90508561008d88610473565b60405160200161009e929190610ec8565b60405160208183030381529060405295506100f98682876100c88867ffffffffffffffff16610473565b6100d188610620565b6040516020016100e5959493929190610fa8565b6040516020818303038152906040526102d4565b6040516020016101099190611062565b60405160208183030381529060405291505095945050505050565b606060006040518060400160405280600781526020017f2330303030303000000000000000000000000000000000000000000000000000815250905060006040518060400160405280600781526020017f236630626230300000000000000000000000000000000000000000000000000081525090508467ffffffffffffffff164211156101e9576040518060400160405280600781526020017f23623262326232000000000000000000000000000000000000000000000000008152509050610222565b6040518060400160405280600781526020017f236232353630300000000000000000000000000000000000000000000000000081525091505b60006040518060400160405280600881526020017f496e66696e697479000000000000000000000000000000000000000000000000815250905067ffffffffffffffff80168667ffffffffffffffff16101561028e5761028b8667ffffffffffffffff1661069d565b90505b8183866102a48a67ffffffffffffffff1661069d565b846040516020016102b9959493929190611099565b60405160208183030381529060405293505050509392505050565b60606000825114156102f75760405180602001604052806000815250905061046e565b6000604051806080016040528060448152602001612db260449139905060006003600285516103269190611259565b6103309190611319565b600461033c9190611461565b9050600060208261034d9190611259565b67ffffffffffffffff81111561038c577f4e487b7100000000000000000000000000000000000000000000000000000000600052604160045260246000fd5b6040519080825280601f01601f1916602001820160405280156103be5781602001600182028036833780820191505090505b509050818152600183018586518101602084015b8183101561042d576003830192508251603f8160121c168501518253600182019150603f81600c1c168501518253600182019150603f8160061c168501518253600182019150603f81168501518253600182019150506103d2565b600389510660018114610447576002811461045757610462565b613d3d60f01b6002830352610462565b603d60f81b60018303525b50505050508093505050505b919050565b606060008214156104bb576040518060400160405280600181526020017f3000000000000000000000000000000000000000000000000000000000000000815250905061061b565b600082905060005b600082146104ed5780806104d69061161e565b915050600a826104e69190611319565b91506104c3565b60008167ffffffffffffffff81111561052f577f4e487b7100000000000000000000000000000000000000000000000000000000600052604160045260246000fd5b6040519080825280601f01601f1916602001820160405280156105615781602001600182028036833780820191505090505b5090505b600085146106145760018261057a919061154f565b9150600a856105899190611667565b60306105959190611259565b60f81b8183815181106105d1577f4e487b7100000000000000000000000000000000000000000000000000000000600052603260045260246000fd5b60200101907effffffffffffffffffffffffffffffffffffffffffffffffffffffffffffff1916908160001a905350600a8561060d9190611319565b9450610565565b8093505050505b919050565b606067ffffffffffffffff80168267ffffffffffffffff1614156106635760405160200161064d90611084565b6040516020818303038152906040529050610698565b6106768267ffffffffffffffff16610473565b6040516020016106869190611035565b60405160208183030381529060405290505b919050565b60606000806000806000806106b18861081e565b95509550955095509550955060006106c886610473565b9050600a8610156106f657806040516020016106e49190610f86565b60405160208183030381529060405290505b600061070186610473565b9050600a86101561072f578060405160200161071d9190610f86565b60405160208183030381529060405290505b600061073a86610473565b9050600a86101561076857806040516020016107569190610f86565b60405160208183030381529060405290505b600061077386610473565b9050600a8610156107a1578060405160200161078f9190610f86565b60405160208183030381529060405290505b60006107ac86610473565b9050600a8610156107da57806040516020016107c89190610f86565b60405160208183030381529060405290505b6107e38b610473565b85858585856040516020016107fd96959493929190610ef7565b6040516020818303038152906040529b505050505050505050505050919050565b60008060008060008061083e62015180886108399190611319565b6108a5565b8096508197508298505050506000620151808861085b9190611667565b9050610e108161086b9190611319565b9350610e108161087b9190611667565b9050603c8161088a9190611319565b9250603c816108999190611667565b91505091939550919395565b600080600080849050600062253d8c62010bd9836108c391906111c5565b6108cd91906111c5565b9050600062023ab18260046108e2919061134a565b6108ec91906112af565b9050600460038262023ab1610901919061134a565b61090b91906111c5565b61091591906112af565b8261092091906114bb565b9150600062164b0960018461093591906111c5565b610fa0610942919061134a565b61094c91906112af565b9050601f6004826105b5610960919061134a565b61096a91906112af565b8461097591906114bb565b61097f91906111c5565b9250600061098f846050610993919061134a565b61099d91906112af565b9050600060508261098f6109b1919061134a565b6109bb91906112af565b856109c691906114bb565b9050600b826109d591906112af565b945084600c6109e4919061134a565b6002836109f191906111c5565b6109fb91906114bb565b91508483603186610a0c91906114bb565b6064610a18919061134a565b610a2291906111c5565b610a2c91906111c5565b92508298508197508096505050505050509193909250565b6000610a57610a528461116d565b611148565b905082815260208101848484011115610a6f57600080fd5b610a7a8482856115ab565b509392505050565b600082601f830112610a9357600080fd5b8135610aa3848260208601610a44565b91505092915050565b600081359050610abb81612d83565b92915050565b600081359050610ad081612d9a565b92915050565b600080600080600060a08688031215610aee57600080fd5b6000610afc88828901610aac565b955050602086013567ffffffffffffffff811115610b1957600080fd5b610b2588828901610a82565b945050604086013567ffffffffffffffff811115610b4257600080fd5b610b4e88828901610a82565b9350506060610b5f88828901610ac1565b9250506080610b7088828901610ac1565b9150509295509295909350565b6000610b888261119e565b610b9281856111a9565b9350610ba28185602086016115ba565b610bab81611725565b840191505092915050565b6000610bc18261119e565b610bcb81856111ba565b9350610bdb8185602086016115ba565b80840191505092915050565b6000610bf46001836111ba565b9150610bff82611736565b600182019050919050565b6000610c176009836111ba565b9150610c228261175f565b600982019050919050565b6000610c3a608c836111ba565b9150610c4582611788565b608c82019050919050565b6000610c5d6002836111ba565b9150610c6882611849565b600282019050919050565b6000610c80603d836111ba565b9150610c8b82611872565b603d82019050919050565b6000610ca3602f836111ba565b9150610cae826118c1565b602f82019050919050565b6000610cc66001836111ba565b9150610cd182611910565b600182019050919050565b6000610ce9603b836111ba565b9150610cf482611939565b603b82019050919050565b6000610d0c6001836111ba565b9150610d1782611988565b600182019050919050565b6000610d2f6003836111ba565b9150610d3a826119b1565b600382019050919050565b6000610d52600d836111ba565b9150610d5d826119da565b600d82019050919050565b6000610d76610d2a836111ba565b9150610d8182611a03565b610d2a82019050919050565b6000610d9a6001836111ba565b9150610da582612a24565b600182019050919050565b6000610dbd608d836111ba565b9150610dc882612a4d565b608d82019050919050565b6000610de06003836111ba565b9150610deb82612b0e565b600382019050919050565b6000610e03601d836111ba565b9150610e0e82612b37565b601d82019050919050565b6000610e26602e836111ba565b9150610e3182612b60565b602e82019050919050565b6000610e4960a5836111ba565b9150610e5482612baf565b60a582019050919050565b6000610e6c6001836111ba565b9150610e7782612c96565b600182019050919050565b6000610e8f6079836111ba565b9150610e9a82612cbf565b607982019050919050565b6000610eb2601a836111ba565b9150610ebd82612d5a565b601a82019050919050565b6000610ed48285610bb6565b9150610edf82610c50565b9150610eeb8284610bb6565b91508190509392505050565b6000610f038289610bb6565b9150610f0e82610e5f565b9150610f1a8288610bb6565b9150610f2582610e5f565b9150610f318287610bb6565b9150610f3c82610cb9565b9150610f488286610bb6565b9150610f5382610d8d565b9150610f5f8285610bb6565b9150610f6a82610d8d565b9150610f768284610bb6565b9150819050979650505050505050565b6000610f9182610be7565b9150610f9d8284610bb6565b915081905092915050565b6000610fb382610c0a565b9150610fbf8288610bb6565b9150610fca82610d45565b9150610fd582610ea5565b9150610fe18287610bb6565b9150610fec82610c96565b9150610ff88286610bb6565b915061100382610c73565b915061100f8285610bb6565b915061101b8284610bb6565b915061102682610d22565b91508190509695505050505050565b600061104082610cdc565b915061104c8284610bb6565b915061105782610cff565b915081905092915050565b600061106d82610df6565b91506110798284610bb6565b915081905092915050565b600061108f82610e19565b9150819050919050565b60006110a482610e82565b91506110b08288610bb6565b91506110bb82610e3c565b91506110c78287610bb6565b91506110d282610dd3565b91506110de8286610bb6565b91506110e982610db0565b91506110f58285610bb6565b915061110082610c2d565b915061110c8284610bb6565b915061111782610d68565b91508190509695505050505050565b600060208201905081810360008301526111408184610b7d565b905092915050565b6000611152611163565b905061115e82826115ed565b919050565b6000604051905090565b600067ffffffffffffffff821115611188576111876116f6565b5b61119182611725565b9050602081019050919050565b600081519050919050565b600082825260208201905092915050565b600081905092915050565b60006111d082611583565b91506111db83611583565b9250817f7fffffffffffffffffffffffffffffffffffffffffffffffffffffffffffffff0383136000831215161561121657611215611698565b5b817f800000000000000000000000000000000000000000000000000000000000000003831260008312161561124e5761124d611698565b5b828201905092915050565b60006112648261158d565b915061126f8361158d565b9250827fffffffffffffffffffffffffffffffffffffffffffffffffffffffffffffffff038211156112a4576112a3611698565b5b828201905092915050565b60006112ba82611583565b91506112c583611583565b9250826112d5576112d46116c7565b5b600160000383147f80000000000000000000000000000000000000000000000000000000000000008314161561130e5761130d611698565b5b828205905092915050565b60006113248261158d565b915061132f8361158d565b92508261133f5761133e6116c7565b5b828204905092915050565b600061135582611583565b915061136083611583565b9250827f7fffffffffffffffffffffffffffffffffffffffffffffffffffffffffffffff048211600084136000841316161561139f5761139e611698565b5b817f800000000000000000000000000000000000000000000000000000000000000005831260008412600084131616156113dc576113db611698565b5b827f8000000000000000000000000000000000000000000000000000000000000000058212600084136000841216161561141957611418611698565b5b827f7fffffffffffffffffffffffffffffffffffffffffffffffffffffffffffffff058212600084126000841216161561145657611455611698565b5b828202905092915050565b600061146c8261158d565b91506114778361158d565b9250817fffffffffffffffffffffffffffffffffffffffffffffffffffffffffffffffff04831182151516156114b0576114af611698565b5b828202905092915050565b60006114c682611583565b91506114d183611583565b9250827f80000000000000000000000000000000000000000000000000000000000000000182126000841215161561150c5761150b611698565b5b827f7fffffffffffffffffffffffffffffffffffffffffffffffffffffffffffffff01821360008412161561154457611543611698565b5b828203905092915050565b600061155a8261158d565b91506115658361158d565b92508282101561157857611577611698565b5b828203905092915050565b6000819050919050565b6000819050919050565b600067ffffffffffffffff82169050919050565b82818337600083830152505050565b60005b838110156115d85780820151818401526020810190506115bd565b838111156115e7576000848401525b50505050565b6115f682611725565b810181811067ffffffffffffffff82111715611615576116146116f6565b5b80604052505050565b60006116298261158d565b91507fffffffffffffffffffffffffffffffffffffffffffffffffffffffffffffffff82141561165c5761165b611698565b5b600182019050919050565b60006116728261158d565b915061167d8361158d565b92508261168d5761168c6116c7565b5b828206905092915050565b7f4e487b7100000000000000000000000000000000000000000000000000000000600052601160045260246000fd5b7f4e487b7100000000000000000000000000000000000000000000000000000000600052601260045260246000fd5b7f4e487b7100000000000000000000000000000000000000000000000000000000600052604160045260246000fd5b6000601f19601f8301169050919050565b7f3000000000000000000000000000000000000000000000000000000000000000600082015250565b7f7b226e616d65223a220000000000000000000000000000000000000000000000600082015250565b7f3c2f746578743e3c7465787420666f6e742d7765696768743d226e6f726d616c60008201527f2220786d6c3a73706163653d2270726573657276652220666f6e742d66616d6960208201527f6c793d2248656c7665746963612c20417269616c2c2073616e732d736572696660408201527f2220666f6e742d73697a653d2232302220793d223338302220783d223630223e60608201527f456e642054696d6520203a200000000000000000000000000000000000000000608082015250565b7f2023000000000000000000000000000000000000000000000000000000000000600082015250565b7f227d2c7b22646973706c61795f74797065223a2264617465222c22747261697460008201527f5f74797065223a2273746172745f74696d65222c2276616c7565223a22000000602082015250565b7f222c202261747472696275746573223a5b7b2274726169745f74797065223a2260008201527f74797065222c2276616c7565223a220000000000000000000000000000000000602082015250565b7f2000000000000000000000000000000000000000000000000000000000000000600082015250565b7f227d2c7b22646973706c61795f74797065223a2264617465222c22747261697460008201527f5f74797065223a22656e645f74696d65222c2276616c7565223a220000000000602082015250565b7f2200000000000000000000000000000000000000000000000000000000000000600082015250565b7f7d5d7d0000000000000000000000000000000000000000000000000000000000600082015250565b7f222c2022696d616765223a202200000000000000000000000000000000000000600082015250565b7f3c2f746578743e3c7465787420666f6e742d7765696768743d22626f6c64222060008201527f786d6c3a73706163653d2270726573657276652220666f6e742d66616d696c7960208201527f3d2248656c7665746963612c20417269616c2c2073616e732d7365726966222060408201527f666f6e742d73697a653d2232302220793d223436312220783d22313633223e4060608201527f446f75626c652050726f746f636f6c3c2f746578743e3c67207374726f6b653d60808201527f226e756c6c22207472616e73666f726d3d226d617472697828302e352c302c3060a08201527f2c302e352c2d35352c383029223e3c696d616765207374726f6b653d226e756c60c08201527f6c2220783d223339352220793d222d323936222069643d227376675f3139222060e08201527f786c696e6b3a687265663d22646174613a696d6167652f706e673b62617365366101008201527f342c6956424f5277304b47676f414141414e53556845556741414151494141416101208201527f4571434159414141442b7346344c414141414358424957584d4141424d5241416101408201527f41544551453559482f774141414952306c4551565234587533647361736356526101608201527f544134586d535169524e6d714259764243736a515262617947466859554579796101808201527f442b55524a536951514c433475415667476246434c474b6c58515170524153426101a08201527f504579725549764866325a652f757a4d37636d58767666462b3150676179532b6101c08201527f4c682f4f6275376a765a6244596446666e373032462f5957392f64334c6f456e6101e08201527f6a6a304156412b7777436f447552426f55616d674244535159434777466745416102008201527f44536f437935637942464a7179656a514177434142707349796c456d416f79626102208201527f41614e674c414941436b77587871795945556d644130477746674541445359486102408201527f71314a3842516b71454a4e674c414941436b775454576c674d704d7146614e676102608201527f4c414941436b77544153344469536f58673241734167414b544259584a67576a6102808201527f4b685344594377434141704d4535436241737962416f477746674541427254776102a08201527f4d355543615a4d447362415741514147744a41776e5142736d516a5930414d416102c08201527f69416c744e414472524e4a6b7a4b52674159424942424148517433434e774c346102e08201527f444976594f6a324167416777436f4e51336b41483349684e357342494242414a6103008201527f536542684b414843544461327745674545416c4a6747636f41357959537536326103208201527f774551476351414e3253615442564174792f6565694b6262642f4f58514672436103408201527f345a624153415151444d6e515a4c3555424b435a6d516569306c5044646557556103608201527f456d32416741677744496c51616c4a634251756466796f613872392f50684f416103808201527f306c673430414d4169414b644f673968784947624f57353334745935346230366103a08201527f6f384532774567454541484a4d4772536241554b6d31664b6e584a52504b56456103c08201527f6b79324167416777446f6d775a796f4636536f5277465a344b4e4144414967496103e08201527f7470494148614a68504b56454179324167416777446f7570504e3478766e4f586104008201527f44312b70354c44354144395a494d693372782f594f7a7831652b2f486552544c6104208201527f41524141594230485758747637723264507a78774d7a346558546e38386558376104408201527f372b345a34724b63456639373439653378362b37303956354a447a49455332416104608201527f6741677743346d415a527a49536f527a4c4554496a576c6778782f59354f37336104808201527f7932382b6335704a34443878696141432b2b6576507346472f4f4577516241576104a08201527f415141507653494d584a776c346c724f496c5049633147356f444a62415241416104c08201527f5942634577615246736e43396453562b31552b386e436d5056377174632b356a6104e08201527f6b77587534456d504d457755594147415441324454496f4f535468647972654a6105008201527f2f586e76733573462f754846694b6a51417743494143307943613675373655436105208201527f577333366e587a6a784b533444634a77673241734167414170506735512b64396105408201527f654857696f485573382f647871632f756862695334714c51666d5a434d4144416105608201527f4b67306a5349687034734c4a5541555a2b636964654d7951514a384c726145796105808201527f444843594b4e414441496741625349435775303838664a7236494e624f7076716105a08201527f51305a6b4a386e50787956446e776d74707a49446362415741514141326e77566105c08201527f4b6d796f452b7476347376394734363772314a6342554a77673241734167414b6105e08201527f544230655a4d6746377533397a393878556b773970794941636241574151414e6106008201527f4a676b4f4a794943472b30656a30646a74764c7049412b3430355162415241416106208201527f59424d474561585037693935302f66336e333273366631326a6f5235357a4b2b6106408201527f456a31626e4a67586e594341434441444149674737436577517038643542532f6106608201527f634c6f687a6671707a53366e304239774b6d4e66516f305559414741544144476106808201527f6b514f574c7372395545694f52414f577745674545417a4a77474b553457586d6106a08201527f6b314279544173767163494e674941494d414b43514e6f6a57664c4c524544746106c08201527f54465267415942454342615a417935386e4336646537352b504c757a742f584a6106e08201527f7735662f6568424b684c3667544252674159424542466152446c4f466c4935556107008201527f43553438386459383445694f52416577372f367765615a78414133636e6d38596107208201527f314e31364334726a392f2b505473635a384547474e4d4a73546e6d544a6e446b6107408201527f694139636a376677565142594d416144634e53744d6e476259535a735945694f6107608201527f54414f746b4941494d417150514e5254587138316d4a334363616b5151676d756107808201527f3966486c41736777444963327277305a312f7a68372f644f2b745056665379396107a08201527f58726836376f5251365159694d4144414a67686c4f446d416d525a426a6757656107c08201527f497a43496c6b6b4144303452754b67433047415a412f4463676f4a4d4f4c52306107e08201527f2f3258416a37325167416777435142737a6779696533446c327978616e482f476108008201527f7745674545415a4571442b4761683142754b4945564b354250665242545a43416108208201527f4344414d695542704850464a43626c426a5052674159424d414d6151436c57566108408201527f744b7045344b49687342594241413067414f69696c526579616b3241674167776108608201527f4351426e4251717a6b5132516741677743514274436b506d3869696d774567456108808201527f4541534150596151306e425a474e4144414941476b415a3272506761456e425a6108a08201527f474e4144414941476c7774506a37476e78424b37577a455141474156427247766108c08201527f7a77312b3666662f7a4f3770396e6c76713162704b68664c576646457a4652676108e08201527f41594245424e615a444b676451314332554335577370423861386953697945516109008201527f4147415642364776544a675a5443546861675a4459437743414144414b674b2f6109208201527f4565775a6a37416e314d644d5159337a5759656d63683558426b754a2b4e41446109408201527f414967464c53594b49636550443876304f5862446e2f5a64666a2b4842526d566109608201527f724b67647873424942424143795a426a3179594f697144787a4852674159424d6109808201527f4353615244657a5050676d7a2f3358416a39745870536b4f4e4e524a474e41446109a08201527f414967435854494c6a312b62746e6a3255435137576141334f794551414741566109c08201527f4249476b5178452f71514572517139306c425a434d4144414b6777445159536b6109e08201527f71736b354f4361646b4941494d416143414e68687161457052444475526a4977610a008201527f414d416d43466151416c6d2f4e4e524a474e4144414941476c41345a77557a4d610a208201527f4e4741426745514e64643674372f396677753557386662505a6343374e595777610a408201527f347364564951325167416777433465476f67453241574a6552415a434d414441610a608201527f4a673378754b59695a456b6f454d576a30704b433042556d7745674545414850610a808201527f4e5a4179634c5445514f6c4d4e47414267457744467045446c5a594d56715449610aa08201527f4155477746674541426a307944467951494a745a3855744a51446b5930414d41610ac08201527f6941726a765a624262613343584470463438656e4c6f45675a6f4e5146536241610ae08201527f53415151446b4f6a586f77386b4368566c62446b513241734167414a5a4d6738610b008201527f686e46706a526d684d6778555941474152414b576d51346d5342696369422f57610b208201527f7745674545416c4a34476b5a4d4665704141783745524141594255464d617044610b408201527f685a574430354d4a364e414441496742625349484b793044514a6b492b4e4144610b608201527f4149674e6253494d584a5172586b774478734249424241426745514c65576577610b808201527f535249385969755265774c42734259424141613079444645654d73354d443562610ba08201527f41524141594249413132633749774b516c515068734259424141306d41594a77610bc08201527f75397959473632416741677743514273647a737442316e51526f685930414d41610be08201527f674161544339465a7773794948323241674167774351426e6c56667249674164610c008201527f62445267415942494130574562424a777479594a317342494242414569443553610c208201527f313073694142694777456745454153494e795a54685a6b414f6b324167416777610c408201527f4351426e5559654c496741526a4b52674159424544582f512b4570374677796c610c608201527f5655657741414141424a52553545726b4a6767673d3d22207472616e73666f72610c808201527f6d3d227472616e736c617465282d322e32373337333637353434333233323036610ca08201527f652d31332c3338342e37373531343634383433373529207363616c6528302e35610cc08201527f3739393939393833333130363939352c302e3538393939393937333737333935610ce08201527f3633292022206865696768743d22323934222077696474683d22323538222f3e610d008201527f3c2f673e3c2f7376673e00000000000000000000000000000000000000000000610d2082015250565b7f3a00000000000000000000000000000000000000000000000000000000000000600082015250565b7f3c2f746578743e3c7465787420666f6e742d7765696768743d226e6f726d616c60008201527f2220786d6c3a73706163653d2270726573657276652220666f6e742d66616d6960208201527f6c793d2248656c7665746963612c20417269616c2c2073616e732d736572696660408201527f2220666f6e742d73697a653d2232302220793d223335302220783d223630223e60608201527f53746172742054696d65203a2000000000000000000000000000000000000000608082015250565b7f22203e0000000000000000000000000000000000000000000000000000000000600082015250565b7f646174613a6170706c69636174696f6e2f6a736f6e3b6261736536342c000000600082015250565b7f227d2c7b2274726169745f74797065223a22656e645f74696d65222c2276616c60008201527f7565223a22496e66696e69747922000000000000000000000000000000000000602082015250565b7f22206865696768743d22353030222077696474683d223530302220793d22302260008201527f20783d2230222f3e3c7465787420666f6e742d7765696768743d22626f6c642260208201527f20786d6c3a73706163653d2270726573657276652220666f6e742d66616d696c60408201527f793d2248656c7665746963612c20417269616c2c2073616e732d73657269662260608201527f20666f6e742d73697a653d2232342220793d223331302220783d22363022206660808201527f696c6c3d2200000000000000000000000000000000000000000000000000000060a082015250565b7f2d00000000000000000000000000000000000000000000000000000000000000600082015250565b7f3c7376672077696474683d2235303022206865696768743d223530302220786d60008201527f6c6e733d22687474703a2f2f7777772e77332e6f72672f323030302f7376672260208201527f20786d6c6e733a786c696e6b3d22687474703a2f2f7777772e77332e6f72672f60408201527f313939392f786c696e6b223e203c726563742066696c6c3d2200000000000000606082015250565b7f646174613a696d6167652f7376672b786d6c3b6261736536342c000000000000600082015250565b612d8c8161158d565b8114612d9757600080fd5b50565b612da381611597565b8114612dae57600080fd5b5056fe4142434445464748494a4b4c4d4e4f505152535455565758595a6162636465666768696a6b6c6d6e6f707172737475767778797a303132333435363738392b2f2d3a2320a2646970667358221220e03b3fc93a67c42914cc85eadd3e6f5322776984ad4fb09007524e4e1e6bd91564736f6c63430008040033",
  "linkReferences": {},
  "deployedLinkReferences": {}
}