{
  "_format": "hh-sol-artifact-1",
  "contractName": "WrapERC721DualRole",
  "sourceName": "contracts/ERC/wrap/WrapERC721DualRole.sol",
  "abi": [
    {
      "inputs": [
        {
          "internalType": "string",
          "name": "name_",
          "type": "string"
        },
        {
          "internalType": "string",
          "name": "symbol_",
          "type": "string"
        },
        {
          "internalType": "address",
          "name": "originalAddress_",
          "type": "address"
        }
      ],
      "stateMutability": "nonpayable",
      "type": "constructor"
    },
    {
      "anonymous": false,
      "inputs": [
        {
          "indexed": true,
          "internalType": "address",
          "name": "owner",
          "type": "address"
        },
        {
          "indexed": true,
          "internalType": "address",
          "name": "approved",
          "type": "address"
        },
        {
          "indexed": true,
          "internalType": "uint256",
          "name": "tokenId",
          "type": "uint256"
        }
      ],
      "name": "Approval",
      "type": "event"
    },
    {
      "anonymous": false,
      "inputs": [
        {
          "indexed": true,
          "internalType": "address",
          "name": "owner",
          "type": "address"
        },
        {
          "indexed": true,
          "internalType": "address",
          "name": "operator",
          "type": "address"
        },
        {
          "indexed": false,
          "internalType": "bool",
          "name": "approved",
          "type": "bool"
        }
      ],
      "name": "ApprovalForAll",
      "type": "event"
    },
    {
      "anonymous": false,
      "inputs": [
        {
          "indexed": false,
          "internalType": "address",
          "name": "msgSender",
          "type": "address"
        },
        {
          "indexed": false,
          "internalType": "address",
          "name": "nftAddress",
          "type": "address"
        },
        {
          "indexed": false,
          "internalType": "uint256",
          "name": "tokenId",
          "type": "uint256"
        }
      ],
      "name": "Redeem",
      "type": "event"
    },
    {
      "anonymous": false,
      "inputs": [
        {
          "indexed": false,
          "internalType": "address",
          "name": "msgSender",
          "type": "address"
        },
        {
          "indexed": false,
          "internalType": "address",
          "name": "nftAddress",
          "type": "address"
        },
        {
          "indexed": false,
          "internalType": "uint256",
          "name": "tokenId",
          "type": "uint256"
        }
      ],
      "name": "Stake",
      "type": "event"
    },
    {
      "anonymous": false,
      "inputs": [
        {
          "indexed": true,
          "internalType": "address",
          "name": "from",
          "type": "address"
        },
        {
          "indexed": true,
          "internalType": "address",
          "name": "to",
          "type": "address"
        },
        {
          "indexed": true,
          "internalType": "uint256",
          "name": "tokenId",
          "type": "uint256"
        }
      ],
      "name": "Transfer",
      "type": "event"
    },
    {
      "anonymous": false,
      "inputs": [
        {
          "indexed": true,
          "internalType": "uint256",
          "name": "tokenId",
          "type": "uint256"
        },
        {
          "indexed": true,
          "internalType": "address",
          "name": "user",
          "type": "address"
        },
        {
          "indexed": false,
          "internalType": "uint64",
          "name": "expires",
          "type": "uint64"
        }
      ],
      "name": "UpdateUser",
      "type": "event"
    },
    {
      "inputs": [
        {
          "internalType": "address",
          "name": "to",
          "type": "address"
        },
        {
          "internalType": "uint256",
          "name": "tokenId",
          "type": "uint256"
        }
      ],
      "name": "approve",
      "outputs": [],
      "stateMutability": "nonpayable",
      "type": "function"
    },
    {
      "inputs": [
        {
          "internalType": "address",
          "name": "owner",
          "type": "address"
        }
      ],
      "name": "balanceOf",
      "outputs": [
        {
          "internalType": "uint256",
          "name": "",
          "type": "uint256"
        }
      ],
      "stateMutability": "view",
      "type": "function"
    },
    {
      "inputs": [
        {
          "internalType": "uint256",
          "name": "tokenId",
          "type": "uint256"
        }
      ],
      "name": "getApproved",
      "outputs": [
        {
          "internalType": "address",
          "name": "",
          "type": "address"
        }
      ],
      "stateMutability": "view",
      "type": "function"
    },
    {
      "inputs": [
        {
          "internalType": "address",
          "name": "owner",
          "type": "address"
        },
        {
          "internalType": "address",
          "name": "operator",
          "type": "address"
        }
      ],
      "name": "isApprovedForAll",
      "outputs": [
        {
          "internalType": "bool",
          "name": "",
          "type": "bool"
        }
      ],
      "stateMutability": "view",
      "type": "function"
    },
    {
      "inputs": [],
      "name": "name",
      "outputs": [
        {
          "internalType": "string",
          "name": "",
          "type": "string"
        }
      ],
      "stateMutability": "view",
      "type": "function"
    },
    {
      "inputs": [
        {
          "internalType": "address",
          "name": "operator",
          "type": "address"
        },
        {
          "internalType": "address",
          "name": "from",
          "type": "address"
        },
        {
          "internalType": "uint256",
          "name": "tokenId",
          "type": "uint256"
        },
        {
          "internalType": "bytes",
          "name": "data",
          "type": "bytes"
        }
      ],
      "name": "onERC721Received",
      "outputs": [
        {
          "internalType": "bytes4",
          "name": "",
          "type": "bytes4"
        }
      ],
      "stateMutability": "pure",
      "type": "function"
    },
    {
      "inputs": [],
      "name": "originalAddress",
      "outputs": [
        {
          "internalType": "address",
          "name": "",
          "type": "address"
        }
      ],
      "stateMutability": "view",
      "type": "function"
    },
    {
      "inputs": [
        {
          "internalType": "uint256",
          "name": "tokenId",
          "type": "uint256"
        }
      ],
      "name": "originalOwnerOf",
      "outputs": [
        {
          "internalType": "address",
          "name": "owner",
          "type": "address"
        }
      ],
      "stateMutability": "view",
      "type": "function"
    },
    {
      "inputs": [
        {
          "internalType": "uint256",
          "name": "tokenId",
          "type": "uint256"
        }
      ],
      "name": "ownerOf",
      "outputs": [
        {
          "internalType": "address",
          "name": "",
          "type": "address"
        }
      ],
      "stateMutability": "view",
      "type": "function"
    },
    {
      "inputs": [
        {
          "internalType": "uint256",
          "name": "tokenId",
          "type": "uint256"
        }
      ],
      "name": "redeem",
      "outputs": [],
      "stateMutability": "nonpayable",
      "type": "function"
    },
    {
      "inputs": [
        {
          "internalType": "address",
          "name": "from",
          "type": "address"
        },
        {
          "internalType": "address",
          "name": "to",
          "type": "address"
        },
        {
          "internalType": "uint256",
          "name": "tokenId",
          "type": "uint256"
        }
      ],
      "name": "safeTransferFrom",
      "outputs": [],
      "stateMutability": "nonpayable",
      "type": "function"
    },
    {
      "inputs": [
        {
          "internalType": "address",
          "name": "from",
          "type": "address"
        },
        {
          "internalType": "address",
          "name": "to",
          "type": "address"
        },
        {
          "internalType": "uint256",
          "name": "tokenId",
          "type": "uint256"
        },
        {
          "internalType": "bytes",
          "name": "_data",
          "type": "bytes"
        }
      ],
      "name": "safeTransferFrom",
      "outputs": [],
      "stateMutability": "nonpayable",
      "type": "function"
    },
    {
      "inputs": [
        {
          "internalType": "address",
          "name": "operator",
          "type": "address"
        },
        {
          "internalType": "bool",
          "name": "approved",
          "type": "bool"
        }
      ],
      "name": "setApprovalForAll",
      "outputs": [],
      "stateMutability": "nonpayable",
      "type": "function"
    },
    {
      "inputs": [
        {
          "internalType": "uint256",
          "name": "tokenId",
          "type": "uint256"
        },
        {
          "internalType": "address",
          "name": "user",
          "type": "address"
        },
        {
          "internalType": "uint64",
          "name": "expires",
          "type": "uint64"
        }
      ],
      "name": "setUser",
      "outputs": [],
      "stateMutability": "nonpayable",
      "type": "function"
    },
    {
      "inputs": [
        {
          "internalType": "uint256",
          "name": "tokenId",
          "type": "uint256"
        }
      ],
      "name": "stake",
      "outputs": [
        {
          "internalType": "uint256",
          "name": "",
          "type": "uint256"
        }
      ],
      "stateMutability": "nonpayable",
      "type": "function"
    },
    {
      "inputs": [
        {
          "internalType": "bytes4",
          "name": "interfaceId",
          "type": "bytes4"
        }
      ],
      "name": "supportsInterface",
      "outputs": [
        {
          "internalType": "bool",
          "name": "",
          "type": "bool"
        }
      ],
      "stateMutability": "view",
      "type": "function"
    },
    {
      "inputs": [],
      "name": "symbol",
      "outputs": [
        {
          "internalType": "string",
          "name": "",
          "type": "string"
        }
      ],
      "stateMutability": "view",
      "type": "function"
    },
    {
      "inputs": [
        {
          "internalType": "uint256",
          "name": "tokenId",
          "type": "uint256"
        }
      ],
      "name": "tokenURI",
      "outputs": [
        {
          "internalType": "string",
          "name": "",
          "type": "string"
        }
      ],
      "stateMutability": "view",
      "type": "function"
    },
    {
      "inputs": [
        {
          "internalType": "address",
          "name": "from",
          "type": "address"
        },
        {
          "internalType": "address",
          "name": "to",
          "type": "address"
        },
        {
          "internalType": "uint256",
          "name": "tokenId",
          "type": "uint256"
        }
      ],
      "name": "transferFrom",
      "outputs": [],
      "stateMutability": "nonpayable",
      "type": "function"
    },
    {
      "inputs": [
        {
          "internalType": "uint256",
          "name": "tokenId",
          "type": "uint256"
        }
      ],
      "name": "userExpires",
      "outputs": [
        {
          "internalType": "uint256",
          "name": "",
          "type": "uint256"
        }
      ],
      "stateMutability": "view",
      "type": "function"
    },
    {
      "inputs": [
        {
          "internalType": "uint256",
          "name": "tokenId",
          "type": "uint256"
        }
      ],
      "name": "userOf",
      "outputs": [
        {
          "internalType": "address",
          "name": "",
          "type": "address"
        }
      ],
      "stateMutability": "view",
      "type": "function"
    }
  ],
  "bytecode": "0x60806040523480156200001157600080fd5b5060405162003c8a38038062003c8a8339818101604052810190620000379190620003bc565b8282818181600090805190602001906200005392919062000240565b5080600190805190602001906200006c92919062000240565b5050505050600073ffffffffffffffffffffffffffffffffffffffff16600760009054906101000a900473ffffffffffffffffffffffffffffffffffffffff1673ffffffffffffffffffffffffffffffffffffffff161462000105576040517f08c379a0000000000000000000000000000000000000000000000000000000008152600401620000fc90620004c0565b60405180910390fd5b8073ffffffffffffffffffffffffffffffffffffffff166301ffc9a77f80ac58cd000000000000000000000000000000000000000000000000000000006040518263ffffffff1660e01b8152600401620001609190620004a3565b60206040518083038186803b1580156200017957600080fd5b505afa1580156200018e573d6000803e3d6000fd5b505050506040513d601f19601f82011682018060405250810190620001b4919062000390565b620001f6576040517f08c379a0000000000000000000000000000000000000000000000000000000008152600401620001ed90620004e2565b60405180910390fd5b80600760006101000a81548173ffffffffffffffffffffffffffffffffffffffff021916908373ffffffffffffffffffffffffffffffffffffffff16021790555050505062000777565b8280546200024e9062000616565b90600052602060002090601f016020900481019282620002725760008555620002be565b82601f106200028d57805160ff1916838001178555620002be565b82800160010185558215620002be579182015b82811115620002bd578251825591602001919060010190620002a0565b5b509050620002cd9190620002d1565b5090565b5b80821115620002ec576000816000905550600101620002d2565b5090565b60006200030762000301846200052d565b62000504565b9050828152602081018484840111156200032057600080fd5b6200032d848285620005e0565b509392505050565b600081519050620003468162000743565b92915050565b6000815190506200035d816200075d565b92915050565b600082601f8301126200037557600080fd5b815162000387848260208601620002f0565b91505092915050565b600060208284031215620003a357600080fd5b6000620003b3848285016200034c565b91505092915050565b600080600060608486031215620003d257600080fd5b600084015167ffffffffffffffff811115620003ed57600080fd5b620003fb8682870162000363565b935050602084015167ffffffffffffffff8111156200041957600080fd5b620004278682870162000363565b92505060406200043a8682870162000335565b9150509250925092565b6200044f8162000594565b82525050565b600062000464600e8362000563565b91506200047182620006f1565b602082019050919050565b60006200048b600a8362000563565b915062000498826200071a565b602082019050919050565b6000602082019050620004ba600083018462000444565b92915050565b60006020820190508181036000830152620004db8162000455565b9050919050565b60006020820190508181036000830152620004fd816200047c565b9050919050565b60006200051062000523565b90506200051e82826200064c565b919050565b6000604051905090565b600067ffffffffffffffff8211156200054b576200054a620006b1565b5b6200055682620006e0565b9050602081019050919050565b600082825260208201905092915050565b60006200058182620005c0565b9050919050565b60008115159050919050565b60007fffffffff0000000000000000000000000000000000000000000000000000000082169050919050565b600073ffffffffffffffffffffffffffffffffffffffff82169050919050565b60005b8381101562000600578082015181840152602081019050620005e3565b8381111562000610576000848401525b50505050565b600060028204905060018216806200062f57607f821691505b6020821081141562000646576200064562000682565b5b50919050565b6200065782620006e0565b810181811067ffffffffffffffff82111715620006795762000678620006b1565b5b80604052505050565b7f4e487b7100000000000000000000000000000000000000000000000000000000600052602260045260246000fd5b7f4e487b7100000000000000000000000000000000000000000000000000000000600052604160045260246000fd5b6000601f19601f8301169050919050565b7f696e6974656420616c7265616479000000000000000000000000000000000000600082015250565b7f6e6f742045524337323100000000000000000000000000000000000000000000600082015250565b6200074e8162000574565b81146200075a57600080fd5b50565b620007688162000588565b81146200077457600080fd5b50565b61350380620007876000396000f3fe608060405234801561001057600080fd5b50600436106101375760003560e01c80638fc88c48116100b8578063c2f1f14a1161007c578063c2f1f14a14610384578063c87b56dd146103b4578063cab416b4146103e4578063db006a7514610402578063e030565e1461041e578063e985e9c51461043a57610137565b80638fc88c48146102ce57806395d89b41146102fe578063a22cb4651461031c578063a694fc3a14610338578063b88d4fde1461036857610137565b806323b872dd116100ff57806323b872dd1461020657806342842e0e146102225780636352211e1461023e57806370a082311461026e57806373b64ac51461029e57610137565b806301ffc9a71461013c57806306fdde031461016c578063081812fc1461018a578063095ea7b3146101ba578063150b7a02146101d6575b600080fd5b61015660048036038101906101519190612689565b61046a565b6040516101639190612b11565b60405180910390f35b6101746104e4565b6040516101819190612b62565b60405180910390f35b6101a4600480360381019061019f919061271c565b610576565b6040516101b19190612a4a565b60405180910390f35b6101d460048036038101906101cf9190612624565b6105fb565b005b6101f060048036038101906101eb91906124ed565b610713565b6040516101fd9190612b2c565b60405180910390f35b610220600480360381019061021b919061249e565b61072d565b005b61023c6004803603810190610237919061249e565b61078d565b005b6102586004803603810190610253919061271c565b6107ad565b6040516102659190612a4a565b60405180910390f35b61028860048036038101906102839190612410565b61085f565b6040516102959190612d44565b60405180910390f35b6102b860048036038101906102b3919061271c565b610917565b6040516102c59190612a4a565b60405180910390f35b6102e860048036038101906102e3919061271c565b610a0b565b6040516102f59190612d44565b60405180910390f35b610306610a49565b6040516103139190612b62565b60405180910390f35b610336600480360381019061033191906125e8565b610adb565b005b610352600480360381019061034d919061271c565b610af1565b60405161035f9190612d44565b60405180910390f35b610382600480360381019061037d919061256d565b610d0f565b005b61039e6004803603810190610399919061271c565b610d71565b6040516103ab9190612a4a565b60405180910390f35b6103ce60048036038101906103c9919061271c565b610df6565b6040516103db9190612b62565b60405180910390f35b6103ec610eaf565b6040516103f99190612a4a565b60405180910390f35b61041c6004803603810190610417919061271c565b610ed9565b005b61043860048036038101906104339190612745565b61102b565b005b610454600480360381019061044f9190612462565b61114e565b6040516104619190612b11565b60405180910390f35b60007fad092b5c000000000000000000000000000000000000000000000000000000007bffffffffffffffffffffffffffffffffffffffffffffffffffffffff1916827bffffffffffffffffffffffffffffffffffffffffffffffffffffffff191614806104dd57506104dc826111e2565b5b9050919050565b6060600080546104f390612f9f565b80601f016020809104026020016040519081016040528092919081815260200182805461051f90612f9f565b801561056c5780601f106105415761010080835404028352916020019161056c565b820191906000526020600020905b81548152906001019060200180831161054f57829003601f168201915b5050505050905090565b60006105818261125c565b6105c0576040517f08c379a00000000000000000000000000000000000000000000000000000000081526004016105b790612cc4565b60405180910390fd5b6004600083815260200190815260200160002060009054906101000a900473ffffffffffffffffffffffffffffffffffffffff169050919050565b6000610606826107ad565b90508073ffffffffffffffffffffffffffffffffffffffff168373ffffffffffffffffffffffffffffffffffffffff161415610677576040517f08c379a000000000000000000000000000000000000000000000000000000000815260040161066e90612d04565b60405180910390fd5b8073ffffffffffffffffffffffffffffffffffffffff166106966112c8565b73ffffffffffffffffffffffffffffffffffffffff1614806106c557506106c4816106bf6112c8565b61114e565b5b610704576040517f08c379a00000000000000000000000000000000000000000000000000000000081526004016106fb90612c44565b60405180910390fd5b61070e83836112d0565b505050565b60008063150b7a0260e01b90508091505095945050505050565b61073e6107386112c8565b82611389565b61077d576040517f08c379a000000000000000000000000000000000000000000000000000000000815260040161077490612d24565b60405180910390fd5b610788838383611467565b505050565b6107a883838360405180602001604052806000815250610d0f565b505050565b6000806002600084815260200190815260200160002060009054906101000a900473ffffffffffffffffffffffffffffffffffffffff169050600073ffffffffffffffffffffffffffffffffffffffff168173ffffffffffffffffffffffffffffffffffffffff161415610856576040517f08c379a000000000000000000000000000000000000000000000000000000000815260040161084d90612c84565b60405180910390fd5b80915050919050565b60008073ffffffffffffffffffffffffffffffffffffffff168273ffffffffffffffffffffffffffffffffffffffff1614156108d0576040517f08c379a00000000000000000000000000000000000000000000000000000000081526004016108c790612c64565b60405180910390fd5b600360008373ffffffffffffffffffffffffffffffffffffffff1673ffffffffffffffffffffffffffffffffffffffff168152602001908152602001600020549050919050565b6000600760009054906101000a900473ffffffffffffffffffffffffffffffffffffffff1673ffffffffffffffffffffffffffffffffffffffff16636352211e836040518263ffffffff1660e01b81526004016109749190612d44565b60206040518083038186803b15801561098c57600080fd5b505afa1580156109a0573d6000803e3d6000fd5b505050506040513d601f19601f820116820180604052508101906109c49190612439565b90503073ffffffffffffffffffffffffffffffffffffffff168173ffffffffffffffffffffffffffffffffffffffff161415610a0657610a03826107ad565b90505b919050565b60006006600083815260200190815260200160002060000160149054906101000a900467ffffffffffffffff1667ffffffffffffffff169050919050565b606060018054610a5890612f9f565b80601f0160208091040260200160405190810160405280929190818152602001828054610a8490612f9f565b8015610ad15780601f10610aa657610100808354040283529160200191610ad1565b820191906000526020600020905b815481529060010190602001808311610ab457829003601f168201915b5050505050905090565b610aed610ae66112c8565b83836116ce565b5050565b6000610b2033600760009054906101000a900473ffffffffffffffffffffffffffffffffffffffff168461183b565b610b5f576040517f08c379a0000000000000000000000000000000000000000000000000000000008152600401610b5690612ce4565b60405180910390fd5b6000600760009054906101000a900473ffffffffffffffffffffffffffffffffffffffff1673ffffffffffffffffffffffffffffffffffffffff16636352211e846040518263ffffffff1660e01b8152600401610bbc9190612d44565b60206040518083038186803b158015610bd457600080fd5b505afa158015610be8573d6000803e3d6000fd5b505050506040513d601f19601f82011682018060405250810190610c0c9190612439565b9050600760009054906101000a900473ffffffffffffffffffffffffffffffffffffffff1673ffffffffffffffffffffffffffffffffffffffff166342842e0e8230866040518463ffffffff1660e01b8152600401610c6d93929190612a8e565b600060405180830381600087803b158015610c8757600080fd5b505af1158015610c9b573d6000803e3d6000fd5b50505050610ca98184611ac2565b7f99039fcf0a98f484616c5196ee8b2ecfa971babf0b519848289ea4db381f85f733600760009054906101000a900473ffffffffffffffffffffffffffffffffffffffff1685604051610cfe93929190612a8e565b60405180910390a182915050919050565b610d20610d1a6112c8565b83611389565b610d5f576040517f08c379a0000000000000000000000000000000000000000000000000000000008152600401610d5690612d24565b60405180910390fd5b610d6b84848484611c9c565b50505050565b6000426006600084815260200190815260200160002060000160149054906101000a900467ffffffffffffffff1667ffffffffffffffff1610610dec576006600083815260200190815260200160002060000160009054906101000a900473ffffffffffffffffffffffffffffffffffffffff169050610df1565b600090505b919050565b6060600760009054906101000a900473ffffffffffffffffffffffffffffffffffffffff1673ffffffffffffffffffffffffffffffffffffffff1663c87b56dd836040518263ffffffff1660e01b8152600401610e539190612d44565b60006040518083038186803b158015610e6b57600080fd5b505afa158015610e7f573d6000803e3d6000fd5b505050506040513d6000823e3d601f19601f82011682018060405250810190610ea891906126db565b9050919050565b6000600760009054906101000a900473ffffffffffffffffffffffffffffffffffffffff16905090565b610eea610ee46112c8565b82611389565b610f29576040517f08c379a0000000000000000000000000000000000000000000000000000000008152600401610f2090612d24565b60405180910390fd5b600760009054906101000a900473ffffffffffffffffffffffffffffffffffffffff1673ffffffffffffffffffffffffffffffffffffffff166342842e0e30610f71846107ad565b846040518463ffffffff1660e01b8152600401610f9093929190612a8e565b600060405180830381600087803b158015610faa57600080fd5b505af1158015610fbe573d6000803e3d6000fd5b50505050610fcb81611cf8565b7fd12200efa34901b99367694174c3b0d32c99585fdf37c7c26892136ddd0836d933600760009054906101000a900473ffffffffffffffffffffffffffffffffffffffff168360405161102093929190612a8e565b60405180910390a150565b6110353384611389565b611074576040517f08c379a000000000000000000000000000000000000000000000000000000000815260040161106b90612d24565b60405180910390fd5b6000600660008581526020019081526020016000209050828160000160006101000a81548173ffffffffffffffffffffffffffffffffffffffff021916908373ffffffffffffffffffffffffffffffffffffffff160217905550818160000160146101000a81548167ffffffffffffffff021916908367ffffffffffffffff1602179055508273ffffffffffffffffffffffffffffffffffffffff16847f4e06b4e7000e659094299b3533b47b6aa8ad048e95e872d23d1f4ee55af89cfe846040516111409190612d5f565b60405180910390a350505050565b6000600560008473ffffffffffffffffffffffffffffffffffffffff1673ffffffffffffffffffffffffffffffffffffffff16815260200190815260200160002060008373ffffffffffffffffffffffffffffffffffffffff1673ffffffffffffffffffffffffffffffffffffffff16815260200190815260200160002060009054906101000a900460ff16905092915050565b60007fad092b5c000000000000000000000000000000000000000000000000000000007bffffffffffffffffffffffffffffffffffffffffffffffffffffffff1916827bffffffffffffffffffffffffffffffffffffffffffffffffffffffff19161480611255575061125482611e15565b5b9050919050565b60008073ffffffffffffffffffffffffffffffffffffffff166002600084815260200190815260200160002060009054906101000a900473ffffffffffffffffffffffffffffffffffffffff1673ffffffffffffffffffffffffffffffffffffffff1614159050919050565b600033905090565b816004600083815260200190815260200160002060006101000a81548173ffffffffffffffffffffffffffffffffffffffff021916908373ffffffffffffffffffffffffffffffffffffffff160217905550808273ffffffffffffffffffffffffffffffffffffffff16611343836107ad565b73ffffffffffffffffffffffffffffffffffffffff167f8c5be1e5ebec7d5bd14f71427d1e84f3dd0314c0f7b2291e5b200ac8c7c3b92560405160405180910390a45050565b60006113948261125c565b6113d3576040517f08c379a00000000000000000000000000000000000000000000000000000000081526004016113ca90612c24565b60405180910390fd5b60006113de836107ad565b90508073ffffffffffffffffffffffffffffffffffffffff168473ffffffffffffffffffffffffffffffffffffffff161480611420575061141f818561114e565b5b8061145e57508373ffffffffffffffffffffffffffffffffffffffff1661144684610576565b73ffffffffffffffffffffffffffffffffffffffff16145b91505092915050565b8273ffffffffffffffffffffffffffffffffffffffff16611487826107ad565b73ffffffffffffffffffffffffffffffffffffffff16146114dd576040517f08c379a00000000000000000000000000000000000000000000000000000000081526004016114d490612ba4565b60405180910390fd5b600073ffffffffffffffffffffffffffffffffffffffff168273ffffffffffffffffffffffffffffffffffffffff16141561154d576040517f08c379a000000000000000000000000000000000000000000000000000000000815260040161154490612be4565b60405180910390fd5b611558838383611ef7565b6115636000826112d0565b6001600360008573ffffffffffffffffffffffffffffffffffffffff1673ffffffffffffffffffffffffffffffffffffffff16815260200190815260200160002060008282546115b39190612e8f565b925050819055506001600360008473ffffffffffffffffffffffffffffffffffffffff1673ffffffffffffffffffffffffffffffffffffffff168152602001908152602001600020600082825461160a9190612e39565b92505081905550816002600083815260200190815260200160002060006101000a81548173ffffffffffffffffffffffffffffffffffffffff021916908373ffffffffffffffffffffffffffffffffffffffff160217905550808273ffffffffffffffffffffffffffffffffffffffff168473ffffffffffffffffffffffffffffffffffffffff167fddf252ad1be2c89b69c2b068fc378daa952ba7f163c4a11628f55a4df523b3ef60405160405180910390a46116c9838383612020565b505050565b8173ffffffffffffffffffffffffffffffffffffffff168373ffffffffffffffffffffffffffffffffffffffff16141561173d576040517f08c379a000000000000000000000000000000000000000000000000000000000815260040161173490612c04565b60405180910390fd5b80600560008573ffffffffffffffffffffffffffffffffffffffff1673ffffffffffffffffffffffffffffffffffffffff16815260200190815260200160002060008473ffffffffffffffffffffffffffffffffffffffff1673ffffffffffffffffffffffffffffffffffffffff16815260200190815260200160002060006101000a81548160ff0219169083151502179055508173ffffffffffffffffffffffffffffffffffffffff168373ffffffffffffffffffffffffffffffffffffffff167f17307eab39ab6107e8899845ad3d59bd9653f200f220920489ca2b5937696c318360405161182e9190612b11565b60405180910390a3505050565b6000808373ffffffffffffffffffffffffffffffffffffffff16636352211e846040518263ffffffff1660e01b81526004016118779190612d44565b60206040518083038186803b15801561188f57600080fd5b505afa1580156118a3573d6000803e3d6000fd5b505050506040513d601f19601f820116820180604052508101906118c79190612439565b9050600073ffffffffffffffffffffffffffffffffffffffff168173ffffffffffffffffffffffffffffffffffffffff161415611939576040517f08c379a000000000000000000000000000000000000000000000000000000000815260040161193090612c24565b60405180910390fd5b8073ffffffffffffffffffffffffffffffffffffffff168573ffffffffffffffffffffffffffffffffffffffff161480611a2657508473ffffffffffffffffffffffffffffffffffffffff168473ffffffffffffffffffffffffffffffffffffffff1663081812fc856040518263ffffffff1660e01b81526004016119be9190612d44565b60206040518083038186803b1580156119d657600080fd5b505afa1580156119ea573d6000803e3d6000fd5b505050506040513d601f19601f82011682018060405250810190611a0e9190612439565b73ffffffffffffffffffffffffffffffffffffffff16145b80611ab857508373ffffffffffffffffffffffffffffffffffffffff1663e985e9c582876040518363ffffffff1660e01b8152600401611a67929190612a65565b60206040518083038186803b158015611a7f57600080fd5b505afa158015611a93573d6000803e3d6000fd5b505050506040513d601f19601f82011682018060405250810190611ab79190612660565b5b9150509392505050565b600073ffffffffffffffffffffffffffffffffffffffff168273ffffffffffffffffffffffffffffffffffffffff161415611b32576040517f08c379a0000000000000000000000000000000000000000000000000000000008152600401611b2990612ca4565b60405180910390fd5b611b3b8161125c565b15611b7b576040517f08c379a0000000000000000000000000000000000000000000000000000000008152600401611b7290612bc4565b60405180910390fd5b611b8760008383611ef7565b6001600360008473ffffffffffffffffffffffffffffffffffffffff1673ffffffffffffffffffffffffffffffffffffffff1681526020019081526020016000206000828254611bd79190612e39565b92505081905550816002600083815260200190815260200160002060006101000a81548173ffffffffffffffffffffffffffffffffffffffff021916908373ffffffffffffffffffffffffffffffffffffffff160217905550808273ffffffffffffffffffffffffffffffffffffffff16600073ffffffffffffffffffffffffffffffffffffffff167fddf252ad1be2c89b69c2b068fc378daa952ba7f163c4a11628f55a4df523b3ef60405160405180910390a4611c9860008383612020565b5050565b611ca7848484611467565b611cb384848484612025565b611cf2576040517f08c379a0000000000000000000000000000000000000000000000000000000008152600401611ce990612b84565b60405180910390fd5b50505050565b6000611d03826107ad565b9050611d1181600084611ef7565b611d1c6000836112d0565b6001600360008373ffffffffffffffffffffffffffffffffffffffff1673ffffffffffffffffffffffffffffffffffffffff1681526020019081526020016000206000828254611d6c9190612e8f565b925050819055506002600083815260200190815260200160002060006101000a81549073ffffffffffffffffffffffffffffffffffffffff021916905581600073ffffffffffffffffffffffffffffffffffffffff168273ffffffffffffffffffffffffffffffffffffffff167fddf252ad1be2c89b69c2b068fc378daa952ba7f163c4a11628f55a4df523b3ef60405160405180910390a4611e1181600084612020565b5050565b60007f80ac58cd000000000000000000000000000000000000000000000000000000007bffffffffffffffffffffffffffffffffffffffffffffffffffffffff1916827bffffffffffffffffffffffffffffffffffffffffffffffffffffffff19161480611ee057507f5b5e139f000000000000000000000000000000000000000000000000000000007bffffffffffffffffffffffffffffffffffffffffffffffffffffffff1916827bffffffffffffffffffffffffffffffffffffffffffffffffffffffff1916145b80611ef05750611eef826121bc565b5b9050919050565b611f02838383612226565b8173ffffffffffffffffffffffffffffffffffffffff168373ffffffffffffffffffffffffffffffffffffffff161461201b5760006006600083815260200190815260200160002060000160006101000a81548173ffffffffffffffffffffffffffffffffffffffff021916908373ffffffffffffffffffffffffffffffffffffffff16021790555060006006600083815260200190815260200160002060000160146101000a81548167ffffffffffffffff021916908367ffffffffffffffff160217905550600073ffffffffffffffffffffffffffffffffffffffff16817f4e06b4e7000e659094299b3533b47b6aa8ad048e95e872d23d1f4ee55af89cfe60006040516120129190612b47565b60405180910390a35b505050565b505050565b60006120468473ffffffffffffffffffffffffffffffffffffffff1661222b565b156121af578373ffffffffffffffffffffffffffffffffffffffff1663150b7a0261206f6112c8565b8786866040518563ffffffff1660e01b81526004016120919493929190612ac5565b602060405180830381600087803b1580156120ab57600080fd5b505af19250505080156120dc57506040513d601f19601f820116820180604052508101906120d991906126b2565b60015b61215f573d806000811461210c576040519150601f19603f3d011682016040523d82523d6000602084013e612111565b606091505b50600081511415612157576040517f08c379a000000000000000000000000000000000000000000000000000000000815260040161214e90612b84565b60405180910390fd5b805181602001fd5b63150b7a0260e01b7bffffffffffffffffffffffffffffffffffffffffffffffffffffffff1916817bffffffffffffffffffffffffffffffffffffffffffffffffffffffff1916149150506121b4565b600190505b949350505050565b60007f01ffc9a7000000000000000000000000000000000000000000000000000000007bffffffffffffffffffffffffffffffffffffffffffffffffffffffff1916827bffffffffffffffffffffffffffffffffffffffffffffffffffffffff1916149050919050565b505050565b6000808273ffffffffffffffffffffffffffffffffffffffff163b119050919050565b600061226161225c84612d9f565b612d7a565b90508281526020810184848401111561227957600080fd5b612284848285612f5d565b509392505050565b600061229f61229a84612dd0565b612d7a565b9050828152602081018484840111156122b757600080fd5b6122c2848285612f6c565b509392505050565b6000813590506122d98161345a565b92915050565b6000815190506122ee8161345a565b92915050565b60008135905061230381613471565b92915050565b60008151905061231881613471565b92915050565b60008135905061232d81613488565b92915050565b60008151905061234281613488565b92915050565b60008083601f84011261235a57600080fd5b8235905067ffffffffffffffff81111561237357600080fd5b60208301915083600182028301111561238b57600080fd5b9250929050565b600082601f8301126123a357600080fd5b81356123b384826020860161224e565b91505092915050565b600082601f8301126123cd57600080fd5b81516123dd84826020860161228c565b91505092915050565b6000813590506123f58161349f565b92915050565b60008135905061240a816134b6565b92915050565b60006020828403121561242257600080fd5b6000612430848285016122ca565b91505092915050565b60006020828403121561244b57600080fd5b6000612459848285016122df565b91505092915050565b6000806040838503121561247557600080fd5b6000612483858286016122ca565b9250506020612494858286016122ca565b9150509250929050565b6000806000606084860312156124b357600080fd5b60006124c1868287016122ca565b93505060206124d2868287016122ca565b92505060406124e3868287016123e6565b9150509250925092565b60008060008060006080868803121561250557600080fd5b6000612513888289016122ca565b9550506020612524888289016122ca565b9450506040612535888289016123e6565b935050606086013567ffffffffffffffff81111561255257600080fd5b61255e88828901612348565b92509250509295509295909350565b6000806000806080858703121561258357600080fd5b6000612591878288016122ca565b94505060206125a2878288016122ca565b93505060406125b3878288016123e6565b925050606085013567ffffffffffffffff8111156125d057600080fd5b6125dc87828801612392565b91505092959194509250565b600080604083850312156125fb57600080fd5b6000612609858286016122ca565b925050602061261a858286016122f4565b9150509250929050565b6000806040838503121561263757600080fd5b6000612645858286016122ca565b9250506020612656858286016123e6565b9150509250929050565b60006020828403121561267257600080fd5b600061268084828501612309565b91505092915050565b60006020828403121561269b57600080fd5b60006126a98482850161231e565b91505092915050565b6000602082840312156126c457600080fd5b60006126d284828501612333565b91505092915050565b6000602082840312156126ed57600080fd5b600082015167ffffffffffffffff81111561270757600080fd5b612713848285016123bc565b91505092915050565b60006020828403121561272e57600080fd5b600061273c848285016123e6565b91505092915050565b60008060006060848603121561275a57600080fd5b6000612768868287016123e6565b9350506020612779868287016122ca565b925050604061278a868287016123fb565b9150509250925092565b61279d81612ec3565b82525050565b6127ac81612ed5565b82525050565b6127bb81612ee1565b82525050565b60006127cc82612e01565b6127d68185612e17565b93506127e6818560208601612f6c565b6127ef8161308f565b840191505092915050565b61280381612f4b565b82525050565b600061281482612e0c565b61281e8185612e28565b935061282e818560208601612f6c565b6128378161308f565b840191505092915050565b600061284f603283612e28565b915061285a826130a0565b604082019050919050565b6000612872602583612e28565b915061287d826130ef565b604082019050919050565b6000612895601c83612e28565b91506128a08261313e565b602082019050919050565b60006128b8602483612e28565b91506128c382613167565b604082019050919050565b60006128db601983612e28565b91506128e6826131b6565b602082019050919050565b60006128fe602c83612e28565b9150612909826131df565b604082019050919050565b6000612921603883612e28565b915061292c8261322e565b604082019050919050565b6000612944602a83612e28565b915061294f8261327d565b604082019050919050565b6000612967602983612e28565b9150612972826132cc565b604082019050919050565b600061298a602083612e28565b91506129958261331b565b602082019050919050565b60006129ad602c83612e28565b91506129b882613344565b604082019050919050565b60006129d0601683612e28565b91506129db82613393565b602082019050919050565b60006129f3602183612e28565b91506129fe826133bc565b604082019050919050565b6000612a16603183612e28565b9150612a218261340b565b604082019050919050565b612a3581612f2d565b82525050565b612a4481612f37565b82525050565b6000602082019050612a5f6000830184612794565b92915050565b6000604082019050612a7a6000830185612794565b612a876020830184612794565b9392505050565b6000606082019050612aa36000830186612794565b612ab06020830185612794565b612abd6040830184612a2c565b949350505050565b6000608082019050612ada6000830187612794565b612ae76020830186612794565b612af46040830185612a2c565b8181036060830152612b0681846127c1565b905095945050505050565b6000602082019050612b2660008301846127a3565b92915050565b6000602082019050612b4160008301846127b2565b92915050565b6000602082019050612b5c60008301846127fa565b92915050565b60006020820190508181036000830152612b7c8184612809565b905092915050565b60006020820190508181036000830152612b9d81612842565b9050919050565b60006020820190508181036000830152612bbd81612865565b9050919050565b60006020820190508181036000830152612bdd81612888565b9050919050565b60006020820190508181036000830152612bfd816128ab565b9050919050565b60006020820190508181036000830152612c1d816128ce565b9050919050565b60006020820190508181036000830152612c3d816128f1565b9050919050565b60006020820190508181036000830152612c5d81612914565b9050919050565b60006020820190508181036000830152612c7d81612937565b9050919050565b60006020820190508181036000830152612c9d8161295a565b9050919050565b60006020820190508181036000830152612cbd8161297d565b9050919050565b60006020820190508181036000830152612cdd816129a0565b9050919050565b60006020820190508181036000830152612cfd816129c3565b9050919050565b60006020820190508181036000830152612d1d816129e6565b9050919050565b60006020820190508181036000830152612d3d81612a09565b9050919050565b6000602082019050612d596000830184612a2c565b92915050565b6000602082019050612d746000830184612a3b565b92915050565b6000612d84612d95565b9050612d908282612fd1565b919050565b6000604051905090565b600067ffffffffffffffff821115612dba57612db9613060565b5b612dc38261308f565b9050602081019050919050565b600067ffffffffffffffff821115612deb57612dea613060565b5b612df48261308f565b9050602081019050919050565b600081519050919050565b600081519050919050565b600082825260208201905092915050565b600082825260208201905092915050565b6000612e4482612f2d565b9150612e4f83612f2d565b9250827fffffffffffffffffffffffffffffffffffffffffffffffffffffffffffffffff03821115612e8457612e83613002565b5b828201905092915050565b6000612e9a82612f2d565b9150612ea583612f2d565b925082821015612eb857612eb7613002565b5b828203905092915050565b6000612ece82612f0d565b9050919050565b60008115159050919050565b60007fffffffff0000000000000000000000000000000000000000000000000000000082169050919050565b600073ffffffffffffffffffffffffffffffffffffffff82169050919050565b6000819050919050565b600067ffffffffffffffff82169050919050565b6000612f5682612f37565b9050919050565b82818337600083830152505050565b60005b83811015612f8a578082015181840152602081019050612f6f565b83811115612f99576000848401525b50505050565b60006002820490506001821680612fb757607f821691505b60208210811415612fcb57612fca613031565b5b50919050565b612fda8261308f565b810181811067ffffffffffffffff82111715612ff957612ff8613060565b5b80604052505050565b7f4e487b7100000000000000000000000000000000000000000000000000000000600052601160045260246000fd5b7f4e487b7100000000000000000000000000000000000000000000000000000000600052602260045260246000fd5b7f4e487b7100000000000000000000000000000000000000000000000000000000600052604160045260246000fd5b6000601f19601f8301169050919050565b7f4552433732313a207472616e7366657220746f206e6f6e20455243373231526560008201527f63656976657220696d706c656d656e7465720000000000000000000000000000602082015250565b7f4552433732313a207472616e736665722066726f6d20696e636f72726563742060008201527f6f776e6572000000000000000000000000000000000000000000000000000000602082015250565b7f4552433732313a20746f6b656e20616c7265616479206d696e74656400000000600082015250565b7f4552433732313a207472616e7366657220746f20746865207a65726f2061646460008201527f7265737300000000000000000000000000000000000000000000000000000000602082015250565b7f4552433732313a20617070726f766520746f2063616c6c657200000000000000600082015250565b7f4552433732313a206f70657261746f7220717565727920666f72206e6f6e657860008201527f697374656e7420746f6b656e0000000000000000000000000000000000000000602082015250565b7f4552433732313a20617070726f76652063616c6c6572206973206e6f74206f7760008201527f6e6572206e6f7220617070726f76656420666f7220616c6c0000000000000000602082015250565b7f4552433732313a2062616c616e636520717565727920666f7220746865207a6560008201527f726f206164647265737300000000000000000000000000000000000000000000602082015250565b7f4552433732313a206f776e657220717565727920666f72206e6f6e657869737460008201527f656e7420746f6b656e0000000000000000000000000000000000000000000000602082015250565b7f4552433732313a206d696e7420746f20746865207a65726f2061646472657373600082015250565b7f4552433732313a20617070726f76656420717565727920666f72206e6f6e657860008201527f697374656e7420746f6b656e0000000000000000000000000000000000000000602082015250565b7f6f6e6c7920617070726f766564206f72206f776e657200000000000000000000600082015250565b7f4552433732313a20617070726f76616c20746f2063757272656e74206f776e6560008201527f7200000000000000000000000000000000000000000000000000000000000000602082015250565b7f4552433732313a207472616e736665722063616c6c6572206973206e6f74206f60008201527f776e6572206e6f7220617070726f766564000000000000000000000000000000602082015250565b61346381612ec3565b811461346e57600080fd5b50565b61347a81612ed5565b811461348557600080fd5b50565b61349181612ee1565b811461349c57600080fd5b50565b6134a881612f2d565b81146134b357600080fd5b50565b6134bf81612f37565b81146134ca57600080fd5b5056fea26469706673582212203c4c0119f8986d10772e8eb3ff8f0fa0ffd1a63246cac3cee22bcfc64b6ac0eb64736f6c63430008040033",
  "linkReferences": {},
  "deployedLinkReferences": {}
}