{
  "_format": "hh-sol-artifact-1",
  "contractName": "Market",
  "sourceName": "contracts/Double/market/Market.sol",
  "abi": [
    {
      "anonymous": false,
      "inputs": [
        {
          "indexed": false,
          "internalType": "address",
          "name": "lender",
          "type": "address"
        },
        {
          "indexed": false,
          "internalType": "address",
          "name": "nftAddress",
          "type": "address"
        },
        {
          "indexed": false,
          "internalType": "uint256",
          "name": "nftId",
          "type": "uint256"
        }
      ],
      "name": "CancelLendOrder",
      "type": "event"
    },
    {
      "anonymous": false,
      "inputs": [
        {
          "indexed": false,
          "internalType": "address",
          "name": "lender",
          "type": "address"
        },
        {
          "indexed": false,
          "internalType": "address",
          "name": "nftAddress",
          "type": "address"
        },
        {
          "indexed": false,
          "internalType": "uint256",
          "name": "nftId",
          "type": "uint256"
        },
        {
          "indexed": false,
          "internalType": "uint64",
          "name": "maxEndTime",
          "type": "uint64"
        },
        {
          "indexed": false,
          "internalType": "uint64",
          "name": "minDuration",
          "type": "uint64"
        },
        {
          "indexed": false,
          "internalType": "uint256",
          "name": "pricePerDay",
          "type": "uint256"
        },
        {
          "indexed": false,
          "internalType": "address",
          "name": "paymentToken",
          "type": "address"
        },
        {
          "indexed": false,
          "internalType": "address",
          "name": "renter",
          "type": "address"
        },
        {
          "indexed": false,
          "internalType": "enum IMarket.OrderType",
          "name": "orderType",
          "type": "uint8"
        }
      ],
      "name": "CreateLendOrder",
      "type": "event"
    },
    {
      "anonymous": false,
      "inputs": [
        {
          "indexed": false,
          "internalType": "address",
          "name": "renter",
          "type": "address"
        },
        {
          "indexed": false,
          "internalType": "address",
          "name": "lender",
          "type": "address"
        },
        {
          "indexed": false,
          "internalType": "address",
          "name": "nftAddress",
          "type": "address"
        },
        {
          "indexed": false,
          "internalType": "uint256",
          "name": "nftId",
          "type": "uint256"
        },
        {
          "indexed": false,
          "internalType": "uint64",
          "name": "startTime",
          "type": "uint64"
        },
        {
          "indexed": false,
          "internalType": "uint64",
          "name": "endTime",
          "type": "uint64"
        },
        {
          "indexed": false,
          "internalType": "uint256",
          "name": "pricePerDay",
          "type": "uint256"
        },
        {
          "indexed": false,
          "internalType": "uint256",
          "name": "newId",
          "type": "uint256"
        },
        {
          "indexed": false,
          "internalType": "address",
          "name": "paymentToken",
          "type": "address"
        }
      ],
      "name": "FulfillOrder",
      "type": "event"
    },
    {
      "anonymous": false,
      "inputs": [
        {
          "indexed": false,
          "internalType": "uint8",
          "name": "version",
          "type": "uint8"
        }
      ],
      "name": "Initialized",
      "type": "event"
    },
    {
      "anonymous": false,
      "inputs": [
        {
          "indexed": false,
          "internalType": "address",
          "name": "oldAdmin",
          "type": "address"
        },
        {
          "indexed": false,
          "internalType": "address",
          "name": "newAdmin",
          "type": "address"
        }
      ],
      "name": "NewAdmin",
      "type": "event"
    },
    {
      "anonymous": false,
      "inputs": [
        {
          "indexed": false,
          "internalType": "address",
          "name": "oldOwner",
          "type": "address"
        },
        {
          "indexed": false,
          "internalType": "address",
          "name": "newOwner",
          "type": "address"
        }
      ],
      "name": "NewOwner",
      "type": "event"
    },
    {
      "anonymous": false,
      "inputs": [
        {
          "indexed": false,
          "internalType": "address",
          "name": "oldPendingOwner",
          "type": "address"
        },
        {
          "indexed": false,
          "internalType": "address",
          "name": "newPendingOwner",
          "type": "address"
        }
      ],
      "name": "NewPendingOwner",
      "type": "event"
    },
    {
      "anonymous": false,
      "inputs": [
        {
          "indexed": false,
          "internalType": "address",
          "name": "account",
          "type": "address"
        }
      ],
      "name": "Paused",
      "type": "event"
    },
    {
      "anonymous": false,
      "inputs": [
        {
          "indexed": false,
          "internalType": "address",
          "name": "account",
          "type": "address"
        }
      ],
      "name": "Unpaused",
      "type": "event"
    },
    {
      "inputs": [],
      "name": "acceptOwner",
      "outputs": [],
      "stateMutability": "nonpayable",
      "type": "function"
    },
    {
      "inputs": [],
      "name": "admin",
      "outputs": [
        {
          "internalType": "address",
          "name": "",
          "type": "address"
        }
      ],
      "stateMutability": "view",
      "type": "function"
    },
    {
      "inputs": [
        {
          "internalType": "address",
          "name": "",
          "type": "address"
        }
      ],
      "name": "balanceOfFee",
      "outputs": [
        {
          "internalType": "uint256",
          "name": "",
          "type": "uint256"
        }
      ],
      "stateMutability": "view",
      "type": "function"
    },
    {
      "inputs": [
        {
          "internalType": "address",
          "name": "nftAddress",
          "type": "address"
        },
        {
          "internalType": "address",
          "name": "paymentToken",
          "type": "address"
        }
      ],
      "name": "balanceOfRoyalty",
      "outputs": [
        {
          "internalType": "uint256",
          "name": "",
          "type": "uint256"
        }
      ],
      "stateMutability": "view",
      "type": "function"
    },
    {
      "inputs": [],
      "name": "beneficiary",
      "outputs": [
        {
          "internalType": "address payable",
          "name": "",
          "type": "address"
        }
      ],
      "stateMutability": "view",
      "type": "function"
    },
    {
      "inputs": [
        {
          "internalType": "address",
          "name": "nftAddress",
          "type": "address"
        },
        {
          "internalType": "uint256",
          "name": "nftId",
          "type": "uint256"
        }
      ],
      "name": "cancelLendOrder",
      "outputs": [],
      "stateMutability": "nonpayable",
      "type": "function"
    },
    {
      "inputs": [
        {
          "internalType": "address[]",
          "name": "paymentTokens",
          "type": "address[]"
        }
      ],
      "name": "claimFee",
      "outputs": [],
      "stateMutability": "nonpayable",
      "type": "function"
    },
    {
      "inputs": [
        {
          "internalType": "address",
          "name": "nftAddress",
          "type": "address"
        },
        {
          "internalType": "address[]",
          "name": "paymentTokens",
          "type": "address[]"
        }
      ],
      "name": "claimRoyalty",
      "outputs": [],
      "stateMutability": "nonpayable",
      "type": "function"
    },
    {
      "inputs": [
        {
          "internalType": "address",
          "name": "nftAddress",
          "type": "address"
        },
        {
          "internalType": "uint256",
          "name": "nftId",
          "type": "uint256"
        },
        {
          "internalType": "uint64",
          "name": "maxEndTime",
          "type": "uint64"
        },
        {
          "internalType": "uint64",
          "name": "minDuration",
          "type": "uint64"
        },
        {
          "internalType": "uint256",
          "name": "pricePerDay",
          "type": "uint256"
        },
        {
          "internalType": "address",
          "name": "paymentToken",
          "type": "address"
        }
      ],
      "name": "createLendOrder",
      "outputs": [],
      "stateMutability": "nonpayable",
      "type": "function"
    },
    {
      "inputs": [
        {
          "internalType": "address",
          "name": "nftAddress",
          "type": "address"
        },
        {
          "internalType": "uint256",
          "name": "nftId",
          "type": "uint256"
        },
        {
          "internalType": "uint64",
          "name": "maxEndTime",
          "type": "uint64"
        },
        {
          "internalType": "uint64",
          "name": "minDuration",
          "type": "uint64"
        },
        {
          "internalType": "uint256",
          "name": "pricePerDay",
          "type": "uint256"
        },
        {
          "internalType": "address",
          "name": "paymentToken",
          "type": "address"
        },
        {
          "internalType": "address",
          "name": "renter",
          "type": "address"
        },
        {
          "internalType": "enum IMarket.OrderType",
          "name": "orderType",
          "type": "uint8"
        }
      ],
      "name": "createPrivateLendOrder",
      "outputs": [],
      "stateMutability": "nonpayable",
      "type": "function"
    },
    {
      "inputs": [
        {
          "internalType": "address",
          "name": "nftAddress",
          "type": "address"
        },
        {
          "internalType": "uint256",
          "name": "nftId",
          "type": "uint256"
        },
        {
          "internalType": "uint256",
          "name": "durationId",
          "type": "uint256"
        },
        {
          "internalType": "uint64",
          "name": "duration",
          "type": "uint64"
        },
        {
          "internalType": "address",
          "name": "user",
          "type": "address"
        }
      ],
      "name": "fulfillOrderNow",
      "outputs": [
        {
          "internalType": "uint256",
          "name": "tid",
          "type": "uint256"
        }
      ],
      "stateMutability": "payable",
      "type": "function"
    },
    {
      "inputs": [],
      "name": "getFee",
      "outputs": [
        {
          "internalType": "uint256",
          "name": "",
          "type": "uint256"
        }
      ],
      "stateMutability": "view",
      "type": "function"
    },
    {
      "inputs": [
        {
          "internalType": "address",
          "name": "nftAddress",
          "type": "address"
        },
        {
          "internalType": "uint256",
          "name": "nftId",
          "type": "uint256"
        }
      ],
      "name": "getLendOrder",
      "outputs": [
        {
          "components": [
            {
              "internalType": "address",
              "name": "lender",
              "type": "address"
            },
            {
              "internalType": "address",
              "name": "nftAddress",
              "type": "address"
            },
            {
              "internalType": "uint256",
              "name": "nftId",
              "type": "uint256"
            },
            {
              "internalType": "uint64",
              "name": "maxEndTime",
              "type": "uint64"
            },
            {
              "internalType": "uint64",
              "name": "minDuration",
              "type": "uint64"
            },
            {
              "internalType": "uint64",
              "name": "createTime",
              "type": "uint64"
            },
            {
              "internalType": "uint64",
              "name": "nonce",
              "type": "uint64"
            },
            {
              "internalType": "enum IMarket.OrderType",
              "name": "orderType",
              "type": "uint8"
            },
            {
              "internalType": "enum IMarket.PaymentType",
              "name": "paymentType",
              "type": "uint8"
            }
          ],
          "internalType": "struct IMarket.Lending",
          "name": "",
          "type": "tuple"
        }
      ],
      "stateMutability": "view",
      "type": "function"
    },
    {
      "inputs": [
        {
          "internalType": "address",
          "name": "nftAddress",
          "type": "address"
        },
        {
          "internalType": "uint256",
          "name": "nftId",
          "type": "uint256"
        }
      ],
      "name": "getPaymentNormal",
      "outputs": [
        {
          "components": [
            {
              "internalType": "address",
              "name": "token",
              "type": "address"
            },
            {
              "internalType": "uint256",
              "name": "pricePerDay",
              "type": "uint256"
            }
          ],
          "internalType": "struct IMarket.PaymentNormal",
          "name": "",
          "type": "tuple"
        }
      ],
      "stateMutability": "view",
      "type": "function"
    },
    {
      "inputs": [
        {
          "internalType": "address",
          "name": "nftAddress",
          "type": "address"
        },
        {
          "internalType": "uint256",
          "name": "nftId",
          "type": "uint256"
        }
      ],
      "name": "getRenterOfPrivateLendOrder",
      "outputs": [
        {
          "internalType": "address",
          "name": "",
          "type": "address"
        }
      ],
      "stateMutability": "view",
      "type": "function"
    },
    {
      "inputs": [
        {
          "internalType": "address",
          "name": "owner_",
          "type": "address"
        },
        {
          "internalType": "address",
          "name": "admin_",
          "type": "address"
        }
      ],
      "name": "initialize",
      "outputs": [],
      "stateMutability": "nonpayable",
      "type": "function"
    },
    {
      "inputs": [
        {
          "internalType": "address",
          "name": "nftAddress",
          "type": "address"
        },
        {
          "internalType": "uint256",
          "name": "nftId",
          "type": "uint256"
        }
      ],
      "name": "isLendOrderValid",
      "outputs": [
        {
          "internalType": "bool",
          "name": "",
          "type": "bool"
        }
      ],
      "stateMutability": "view",
      "type": "function"
    },
    {
      "inputs": [],
      "name": "isPausing",
      "outputs": [
        {
          "internalType": "bool",
          "name": "",
          "type": "bool"
        }
      ],
      "stateMutability": "view",
      "type": "function"
    },
    {
      "inputs": [],
      "name": "maxIndate",
      "outputs": [
        {
          "internalType": "uint64",
          "name": "",
          "type": "uint64"
        }
      ],
      "stateMutability": "view",
      "type": "function"
    },
    {
      "inputs": [
        {
          "internalType": "address",
          "name": "doNftAddress",
          "type": "address"
        },
        {
          "internalType": "uint256",
          "name": "oNftId",
          "type": "uint256"
        },
        {
          "internalType": "uint64",
          "name": "maxEndTime",
          "type": "uint64"
        },
        {
          "internalType": "uint64",
          "name": "minDuration",
          "type": "uint64"
        },
        {
          "internalType": "uint256",
          "name": "pricePerDay",
          "type": "uint256"
        },
        {
          "internalType": "address",
          "name": "paymentToken",
          "type": "address"
        }
      ],
      "name": "mintAndCreateLendOrder",
      "outputs": [],
      "stateMutability": "nonpayable",
      "type": "function"
    },
    {
      "inputs": [
        {
          "internalType": "address",
          "name": "doNftAddress",
          "type": "address"
        },
        {
          "internalType": "uint256",
          "name": "oNftId",
          "type": "uint256"
        },
        {
          "internalType": "uint64",
          "name": "maxEndTime",
          "type": "uint64"
        },
        {
          "internalType": "uint64",
          "name": "minDuration",
          "type": "uint64"
        },
        {
          "internalType": "uint256",
          "name": "pricePerDay",
          "type": "uint256"
        },
        {
          "internalType": "address",
          "name": "paymentToken",
          "type": "address"
        },
        {
          "internalType": "address",
          "name": "renter",
          "type": "address"
        },
        {
          "internalType": "enum IMarket.OrderType",
          "name": "orderType",
          "type": "uint8"
        }
      ],
      "name": "mintAndCreatePrivateLendOrder",
      "outputs": [],
      "stateMutability": "nonpayable",
      "type": "function"
    },
    {
      "inputs": [
        {
          "internalType": "bytes[]",
          "name": "data",
          "type": "bytes[]"
        }
      ],
      "name": "multicall",
      "outputs": [
        {
          "internalType": "bytes[]",
          "name": "results",
          "type": "bytes[]"
        }
      ],
      "stateMutability": "nonpayable",
      "type": "function"
    },
    {
      "inputs": [],
      "name": "owner",
      "outputs": [
        {
          "internalType": "address",
          "name": "",
          "type": "address"
        }
      ],
      "stateMutability": "view",
      "type": "function"
    },
    {
      "inputs": [],
      "name": "pendingOwner",
      "outputs": [
        {
          "internalType": "address",
          "name": "",
          "type": "address"
        }
      ],
      "stateMutability": "view",
      "type": "function"
    },
    {
      "inputs": [],
      "name": "renounceOwnership",
      "outputs": [],
      "stateMutability": "nonpayable",
      "type": "function"
    },
    {
      "inputs": [
        {
          "internalType": "address",
          "name": "newAdmin",
          "type": "address"
        }
      ],
      "name": "setAdmin",
      "outputs": [],
      "stateMutability": "nonpayable",
      "type": "function"
    },
    {
      "inputs": [
        {
          "internalType": "uint256",
          "name": "fee_",
          "type": "uint256"
        }
      ],
      "name": "setFee",
      "outputs": [],
      "stateMutability": "nonpayable",
      "type": "function"
    },
    {
      "inputs": [
        {
          "internalType": "address payable",
          "name": "beneficiary_",
          "type": "address"
        }
      ],
      "name": "setMarketBeneficiary",
      "outputs": [],
      "stateMutability": "nonpayable",
      "type": "function"
    },
    {
      "inputs": [
        {
          "internalType": "uint64",
          "name": "max_",
          "type": "uint64"
        }
      ],
      "name": "setMaxIndate",
      "outputs": [],
      "stateMutability": "nonpayable",
      "type": "function"
    },
    {
      "inputs": [
        {
          "internalType": "bool",
          "name": "pause_",
          "type": "bool"
        }
      ],
      "name": "setPause",
      "outputs": [],
      "stateMutability": "nonpayable",
      "type": "function"
    },
    {
      "inputs": [],
      "name": "supportERC20",
      "outputs": [
        {
          "internalType": "bool",
          "name": "",
          "type": "bool"
        }
      ],
      "stateMutability": "view",
      "type": "function"
    },
    {
      "inputs": [
        {
          "internalType": "address",
          "name": "_pendingOwner",
          "type": "address"
        }
      ],
      "name": "transferOwnership",
      "outputs": [],
      "stateMutability": "nonpayable",
      "type": "function"
    }
  ],
  "bytecode": "0x608060405234801561001057600080fd5b50616ae080620000216000396000f3fe6080604052600436106101e35760003560e01c8063a18087fd11610102578063e30c397811610095578063ef4389e811610064578063ef4389e8146106cd578063f2fde38b1461070a578063f5e241bb14610733578063f851a4401461075c576101e3565b8063e30c397814610637578063e389bc1014610662578063ebbc49651461068d578063ec005b67146106a4576101e3565b8063bedb86fb116100d1578063bedb86fb1461058f578063bf59a457146105b8578063c8e2c9ee146105e3578063ced72f871461060c576101e3565b8063a18087fd146104c3578063ac9650d814610500578063b23bc40e1461053d578063b774b60114610566576101e3565b8063434aee631161017a578063715018a611610149578063715018a6146104075780638da5cb5b1461041e57806394bdb442146104495780639815becf14610486576101e3565b8063434aee6314610363578063485cc9551461038c57806369fe0e2d146103b5578063704b6c02146103de576101e3565b806316e5e29b116101b657806316e5e29b1461029557806325725475146102be57806338af3eed146102fb578063430e705014610326576101e3565b806302bb4bbe146101e857806307762033146102185780630d34b79c1461024157806312aa48e21461026c575b600080fd5b61020260048036038101906101fd919061505f565b610787565b60405161020f9190616037565b60405180910390f35b34801561022457600080fd5b5061023f600480360381019061023a919061515f565b610dba565b005b34801561024d57600080fd5b50610256610f84565b6040516102639190615cad565b60405180910390f35b34801561027857600080fd5b50610293600480360381019061028e91906150d6565b610f97565b005b3480156102a157600080fd5b506102bc60048036038101906102b791906150d6565b611144565b005b3480156102ca57600080fd5b506102e560048036038101906102e09190615023565b6111c0565b6040516102f2919061601c565b60405180910390f35b34801561030757600080fd5b5061031061128b565b60405161031d9190615acd565b60405180910390f35b34801561033257600080fd5b5061034d60048036038101906103489190615023565b6112b1565b60405161035a9190616000565b60405180910390f35b34801561036f57600080fd5b5061038a60048036038101906103859190615023565b6115a9565b005b34801561039857600080fd5b506103b360048036038101906103ae9190614f8f565b611875565b005b3480156103c157600080fd5b506103dc60048036038101906103d791906152ed565b61194c565b005b3480156103ea57600080fd5b5061040560048036038101906104009190614eeb565b611a81565b005b34801561041357600080fd5b5061041c611bae565b005b34801561042a57600080fd5b50610433611e15565b6040516104409190615ab2565b60405180910390f35b34801561045557600080fd5b50610470600480360381019061046b9190615023565b611e39565b60405161047d9190615ab2565b60405180910390f35b34801561049257600080fd5b506104ad60048036038101906104a89190614eeb565b611eb4565b6040516104ba9190616037565b60405180910390f35b3480156104cf57600080fd5b506104ea60048036038101906104e59190615023565b611ecc565b6040516104f79190615cad565b60405180910390f35b34801561050c57600080fd5b5061052760048036038101906105229190615256565b61203e565b6040516105349190615c8b565b60405180910390f35b34801561054957600080fd5b50610564600480360381019061055f919061538e565b6121e7565b005b34801561057257600080fd5b5061058d60048036038101906105889190615211565b6122f9565b005b34801561059b57600080fd5b506105b660048036038101906105b1919061529b565b6126b1565b005b3480156105c457600080fd5b506105cd61283d565b6040516105da9190615cad565b60405180910390f35b3480156105ef57600080fd5b5061060a60048036038101906106059190614fcb565b612850565b005b34801561061857600080fd5b50610621612ca0565b60405161062e9190616037565b60405180910390f35b34801561064357600080fd5b5061064c612caa565b6040516106599190615ab2565b60405180910390f35b34801561066e57600080fd5b50610677612cd0565b60405161068491906160dc565b60405180910390f35b34801561069957600080fd5b506106a2612cea565b005b3480156106b057600080fd5b506106cb60048036038101906106c69190614f3d565b612ef8565b005b3480156106d957600080fd5b506106f460048036038101906106ef9190614f8f565b612fca565b6040516107019190616037565b60405180910390f35b34801561071657600080fd5b50610731600480360381019061072c9190614eeb565b613051565b005b34801561073f57600080fd5b5061075a6004803603810190610755919061515f565b61317e565b005b34801561076857600080fd5b506107716131fe565b60405161077e9190615ab2565b60405180910390f35b6000603c60089054906101000a900460ff16156107d9576040517f08c379a00000000000000000000000000000000000000000000000000000000081526004016107d090615ec0565b60405180910390fd5b6002600354141561081f576040517f08c379a000000000000000000000000000000000000000000000000000000000815260040161081690615f80565b60405180910390fd5b60026003819055506108318686611ecc565b610870576040517f08c379a000000000000000000000000000000000000000000000000000000000815260040161086790615e80565b60405180910390fd5b6000603560008873ffffffffffffffffffffffffffffffffffffffff1673ffffffffffffffffffffffffffffffffffffffff16815260200190815260200160002060008781526020019081526020016000209050600160028111156108fe577f4e487b7100000000000000000000000000000000000000000000000000000000600052602160045260246000fd5b8160040160009054906101000a900460ff166002811115610948577f4e487b7100000000000000000000000000000000000000000000000000000000600052602160045260246000fd5b1415610a2d57603660008873ffffffffffffffffffffffffffffffffffffffff1673ffffffffffffffffffffffffffffffffffffffff168152602001908152602001600020600087815260200190815260200160002060009054906101000a900473ffffffffffffffffffffffffffffffffffffffff1673ffffffffffffffffffffffffffffffffffffffff163373ffffffffffffffffffffffffffffffffffffffff1614610a2c576040517f08c379a0000000000000000000000000000000000000000000000000000000008152600401610a2390615fe0565b60405180910390fd5b5b600060018567ffffffffffffffff1642610a4791906161ca565b610a5191906162e9565b90508160030160009054906101000a900467ffffffffffffffff1667ffffffffffffffff168167ffffffffffffffff161115610aa3578160030160009054906101000a900467ffffffffffffffff1690505b60008873ffffffffffffffffffffffffffffffffffffffff16638bb126a7886040518263ffffffff1660e01b8152600401610ade9190616037565b604080518083038186803b158015610af557600080fd5b505afa158015610b09573d6000803e3d6000fd5b505050506040513d601f19601f82011682018060405250810190610b2d91906153e0565b9150508067ffffffffffffffff168267ffffffffffffffff161115610b50578091505b60004290508167ffffffffffffffff168367ffffffffffffffff161480610ba257508360030160009054906101000a900467ffffffffffffffff1667ffffffffffffffff168367ffffffffffffffff16145b610c16578360030160089054906101000a900467ffffffffffffffff1667ffffffffffffffff168767ffffffffffffffff161015610c15576040517f08c379a0000000000000000000000000000000000000000000000000000000008152600401610c0c90615f60565b60405180910390fd5b5b610c228a8a8386613224565b505050508973ffffffffffffffffffffffffffffffffffffffff166310c118548a8a8487338c6040518763ffffffff1660e01b8152600401610c699695949392919061607b565b602060405180830381600087803b158015610c8357600080fd5b505af1158015610c97573d6000803e3d6000fd5b505050506040513d601f19601f82011682018060405250810190610cbb9190615316565b94506000603760008c73ffffffffffffffffffffffffffffffffffffffff1673ffffffffffffffffffffffffffffffffffffffff16815260200190815260200160002060008b815260200190815260200160002090507ff8ce95efc95f64de1eca0db3354afad7c88704a1f7e64ba969056d449a1c0b10878660000160009054906101000a900473ffffffffffffffffffffffffffffffffffffffff168d8d868987600101548d8960000160009054906101000a900473ffffffffffffffffffffffffffffffffffffffff16604051610d9c99989796959493929190615b11565b60405180910390a15050505050600160038190555095945050505050565b603c60089054906101000a900460ff1615610e0a576040517f08c379a0000000000000000000000000000000000000000000000000000000008152600401610e0190615ec0565b60405180910390fd5b81603660008a73ffffffffffffffffffffffffffffffffffffffff1673ffffffffffffffffffffffffffffffffffffffff168152602001908152602001600020600089815260200190815260200160002060006101000a81548173ffffffffffffffffffffffffffffffffffffffff021916908373ffffffffffffffffffffffffffffffffffffffff16021790555060405180604001604052808473ffffffffffffffffffffffffffffffffffffffff16815260200185815250603760008a73ffffffffffffffffffffffffffffffffffffffff1673ffffffffffffffffffffffffffffffffffffffff168152602001908152602001600020600089815260200190815260200160002060008201518160000160006101000a81548173ffffffffffffffffffffffffffffffffffffffff021916908373ffffffffffffffffffffffffffffffffffffffff16021790555060208201518160010155905050610f7a8888888888888760008a6138ca565b5050505050505050565b603c60089054906101000a900460ff1681565b603c60089054906101000a900460ff1615610fe7576040517f08c379a0000000000000000000000000000000000000000000000000000000008152600401610fde90615ec0565b60405180910390fd5b603660008773ffffffffffffffffffffffffffffffffffffffff1673ffffffffffffffffffffffffffffffffffffffff168152602001908152602001600020600086815260200190815260200160002060006101000a81549073ffffffffffffffffffffffffffffffffffffffff021916905560405180604001604052808273ffffffffffffffffffffffffffffffffffffffff16815260200183815250603760008873ffffffffffffffffffffffffffffffffffffffff1673ffffffffffffffffffffffffffffffffffffffff168152602001908152602001600020600087815260200190815260200160002060008201518160000160006101000a81548173ffffffffffffffffffffffffffffffffffffffff021916908373ffffffffffffffffffffffffffffffffffffffff1602179055506020820151816001015590505061113c86868686868660008060006138ca565b505050505050565b6002600354141561118a576040517f08c379a000000000000000000000000000000000000000000000000000000000815260040161118190615f80565b60405180910390fd5b6002600381905550600061119f878787613f8e565b90506111af878287878787610f97565b506001600381905550505050505050565b6111c8614c31565b603760008473ffffffffffffffffffffffffffffffffffffffff1673ffffffffffffffffffffffffffffffffffffffff16815260200190815260200160002060008381526020019081526020016000206040518060400160405290816000820160009054906101000a900473ffffffffffffffffffffffffffffffffffffffff1673ffffffffffffffffffffffffffffffffffffffff1673ffffffffffffffffffffffffffffffffffffffff168152602001600182015481525050905092915050565b603a60009054906101000a900473ffffffffffffffffffffffffffffffffffffffff1681565b6112b9614c61565b603560008473ffffffffffffffffffffffffffffffffffffffff1673ffffffffffffffffffffffffffffffffffffffff1681526020019081526020016000206000838152602001908152602001600020604051806101200160405290816000820160009054906101000a900473ffffffffffffffffffffffffffffffffffffffff1673ffffffffffffffffffffffffffffffffffffffff1673ffffffffffffffffffffffffffffffffffffffff1681526020016001820160009054906101000a900473ffffffffffffffffffffffffffffffffffffffff1673ffffffffffffffffffffffffffffffffffffffff1673ffffffffffffffffffffffffffffffffffffffff168152602001600282015481526020016003820160009054906101000a900467ffffffffffffffff1667ffffffffffffffff1667ffffffffffffffff1681526020016003820160089054906101000a900467ffffffffffffffff1667ffffffffffffffff1667ffffffffffffffff1681526020016003820160109054906101000a900467ffffffffffffffff1667ffffffffffffffff1667ffffffffffffffff1681526020016003820160189054906101000a900467ffffffffffffffff1667ffffffffffffffff1667ffffffffffffffff1681526020016004820160009054906101000a900460ff1660028111156114de577f4e487b7100000000000000000000000000000000000000000000000000000000600052602160045260246000fd5b6002811115611516577f4e487b7100000000000000000000000000000000000000000000000000000000600052602160045260246000fd5b81526020016004820160019054906101000a900460ff166000811115611565577f4e487b7100000000000000000000000000000000000000000000000000000000600052602160045260246000fd5b600081111561159d577f4e487b7100000000000000000000000000000000000000000000000000000000600052602160045260246000fd5b81525050905092915050565b603c60089054906101000a900460ff16156115f9576040517f08c379a00000000000000000000000000000000000000000000000000000000081526004016115f090615ec0565b60405180910390fd5b611604338383614312565b603560008373ffffffffffffffffffffffffffffffffffffffff1673ffffffffffffffffffffffffffffffffffffffff1681526020019081526020016000206000828152602001908152602001600020600080820160006101000a81549073ffffffffffffffffffffffffffffffffffffffff02191690556001820160006101000a81549073ffffffffffffffffffffffffffffffffffffffff021916905560028201600090556003820160006101000a81549067ffffffffffffffff02191690556003820160086101000a81549067ffffffffffffffff02191690556003820160106101000a81549067ffffffffffffffff02191690556003820160186101000a81549067ffffffffffffffff02191690556004820160006101000a81549060ff02191690556004820160016101000a81549060ff02191690555050603760008373ffffffffffffffffffffffffffffffffffffffff1673ffffffffffffffffffffffffffffffffffffffff1681526020019081526020016000206000828152602001908152602001600020600080820160006101000a81549073ffffffffffffffffffffffffffffffffffffffff021916905560018201600090555050603660008373ffffffffffffffffffffffffffffffffffffffff1673ffffffffffffffffffffffffffffffffffffffff168152602001908152602001600020600082815260200190815260200160002060006101000a81549073ffffffffffffffffffffffffffffffffffffffff02191690557fd683d5e080429307176d202675b21464dc43b9ab5339355dabb01bebee4008be33838360405161186993929190615b9e565b60405180910390a15050565b60006118816001614563565b905080156118a5576001600260156101000a81548160ff0219169083151502179055505b6118ad614657565b6118b783836146b0565b6301e13380603c60006101000a81548167ffffffffffffffff021916908367ffffffffffffffff1602179055506109c4603b819055508015611947576000600260156101000a81548160ff0219169083151502179055507f7f26b83ff96e1f2b6a682f133852f6798a09c465da95921460cefb3847402498600160405161193e9190615ce3565b60405180910390a15b505050565b600260009054906101000a900473ffffffffffffffffffffffffffffffffffffffff1673ffffffffffffffffffffffffffffffffffffffff163373ffffffffffffffffffffffffffffffffffffffff1614806119f3575060008054906101000a900473ffffffffffffffffffffffffffffffffffffffff1673ffffffffffffffffffffffffffffffffffffffff163373ffffffffffffffffffffffffffffffffffffffff16145b611a32576040517f08c379a0000000000000000000000000000000000000000000000000000000008152600401611a2990615d20565b60405180910390fd5b612710811115611a77576040517f08c379a0000000000000000000000000000000000000000000000000000000008152600401611a6e90615dc0565b60405180910390fd5b80603b8190555050565b60008054906101000a900473ffffffffffffffffffffffffffffffffffffffff1673ffffffffffffffffffffffffffffffffffffffff163373ffffffffffffffffffffffffffffffffffffffff1614611b0f576040517f08c379a0000000000000000000000000000000000000000000000000000000008152600401611b0690615fc0565b60405180910390fd5b7ff9ffabca9c8276e99321725bcb43fb076a6c66a54b7f21c4e8146d8519b417dc600260009054906101000a900473ffffffffffffffffffffffffffffffffffffffff1682604051611b62929190615ae8565b60405180910390a180600260006101000a81548173ffffffffffffffffffffffffffffffffffffffff021916908373ffffffffffffffffffffffffffffffffffffffff16021790555050565b60008054906101000a900473ffffffffffffffffffffffffffffffffffffffff1673ffffffffffffffffffffffffffffffffffffffff163373ffffffffffffffffffffffffffffffffffffffff1614611c3c576040517f08c379a0000000000000000000000000000000000000000000000000000000008152600401611c3390615fc0565b60405180910390fd5b7f70aea8d848e8a90fb7661b227dc522eb6395c3dac71b63cb59edd5c9899b236460008054906101000a900473ffffffffffffffffffffffffffffffffffffffff166000604051611c8e929190615ae8565b60405180910390a17ff9ffabca9c8276e99321725bcb43fb076a6c66a54b7f21c4e8146d8519b417dc600260009054906101000a900473ffffffffffffffffffffffffffffffffffffffff166000604051611cea929190615ae8565b60405180910390a17fb3d55174552271a4f1aaf36b72f50381e892171636b3fb5447fe00e995e7a37b600160009054906101000a900473ffffffffffffffffffffffffffffffffffffffff166000604051611d46929190615ae8565b60405180910390a160008060006101000a81548173ffffffffffffffffffffffffffffffffffffffff021916908373ffffffffffffffffffffffffffffffffffffffff1602179055506000600160006101000a81548173ffffffffffffffffffffffffffffffffffffffff021916908373ffffffffffffffffffffffffffffffffffffffff1602179055506000600260006101000a81548173ffffffffffffffffffffffffffffffffffffffff021916908373ffffffffffffffffffffffffffffffffffffffff160217905550565b60008054906101000a900473ffffffffffffffffffffffffffffffffffffffff1681565b6000603660008473ffffffffffffffffffffffffffffffffffffffff1673ffffffffffffffffffffffffffffffffffffffff168152602001908152602001600020600083815260200190815260200160002060009054906101000a900473ffffffffffffffffffffffffffffffffffffffff16905092915050565b60396020528060005260406000206000915090505481565b600080603560008573ffffffffffffffffffffffffffffffffffffffff1673ffffffffffffffffffffffffffffffffffffffff16815260200190815260200160002060008481526020019081526020016000209050603c60089054906101000a900460ff1615611f40576000915050612038565b60008160020154118015611f755750428160030160009054906101000a900467ffffffffffffffff1667ffffffffffffffff16115b801561203457508373ffffffffffffffffffffffffffffffffffffffff16633d46b819846040518263ffffffff1660e01b8152600401611fb59190616037565b60206040518083038186803b158015611fcd57600080fd5b505afa158015611fe1573d6000803e3d6000fd5b505050506040513d601f19601f8201168201806040525081019061200591906153b7565b67ffffffffffffffff168160030160189054906101000a900467ffffffffffffffff1667ffffffffffffffff16145b9150505b92915050565b60608282905067ffffffffffffffff811115612083577f4e487b7100000000000000000000000000000000000000000000000000000000600052604160045260246000fd5b6040519080825280602002602001820160405280156120b657816020015b60608152602001906001900390816120a15790505b50905060005b838390508110156121e0576000803073ffffffffffffffffffffffffffffffffffffffff1686868581811061211a577f4e487b7100000000000000000000000000000000000000000000000000000000600052603260045260246000fd5b905060200281019061212c91906160f7565b60405161213a929190615a6d565b600060405180830381855af49150503d8060008114612175576040519150601f19603f3d011682016040523d82523d6000602084013e61217a565b606091505b509150915081156121cb57808484815181106121bf577f4e487b7100000000000000000000000000000000000000000000000000000000600052603260045260246000fd5b60200260200101819052505b505080806121d8906164a8565b9150506120bc565b5092915050565b600260009054906101000a900473ffffffffffffffffffffffffffffffffffffffff1673ffffffffffffffffffffffffffffffffffffffff163373ffffffffffffffffffffffffffffffffffffffff16148061228e575060008054906101000a900473ffffffffffffffffffffffffffffffffffffffff1673ffffffffffffffffffffffffffffffffffffffff163373ffffffffffffffffffffffffffffffffffffffff16145b6122cd576040517f08c379a00000000000000000000000000000000000000000000000000000000081526004016122c490615d20565b60405180910390fd5b80603c60006101000a81548167ffffffffffffffff021916908367ffffffffffffffff16021790555050565b603c60089054906101000a900460ff1615612349576040517f08c379a000000000000000000000000000000000000000000000000000000000815260040161234090615ec0565b60405180910390fd5b6002600354141561238f576040517f08c379a000000000000000000000000000000000000000000000000000000000815260040161238690615f80565b60405180910390fd5b6002600381905550603a60009054906101000a900473ffffffffffffffffffffffffffffffffffffffff1673ffffffffffffffffffffffffffffffffffffffff163373ffffffffffffffffffffffffffffffffffffffff1614612427576040517f08c379a000000000000000000000000000000000000000000000000000000000815260040161241e90615d40565b60405180910390fd5b60005b828290508110156126a457600060396000858585818110612474577f4e487b7100000000000000000000000000000000000000000000000000000000600052603260045260246000fd5b90506020020160208101906124899190614eeb565b73ffffffffffffffffffffffffffffffffffffffff1673ffffffffffffffffffffffffffffffffffffffff168152602001908152602001600020549050600081111561269057600073ffffffffffffffffffffffffffffffffffffffff16848484818110612520577f4e487b7100000000000000000000000000000000000000000000000000000000600052603260045260246000fd5b90506020020160208101906125359190614eeb565b73ffffffffffffffffffffffffffffffffffffffff1614156125825761257d603a60009054906101000a900473ffffffffffffffffffffffffffffffffffffffff1682614735565b6125fd565b6125fc8484848181106125be577f4e487b7100000000000000000000000000000000000000000000000000000000600052603260045260246000fd5b90506020020160208101906125d39190614eeb565b603a60009054906101000a900473ffffffffffffffffffffffffffffffffffffffff1683614829565b5b60006039600086868681811061263c577f4e487b7100000000000000000000000000000000000000000000000000000000600052603260045260246000fd5b90506020020160208101906126519190614eeb565b73ffffffffffffffffffffffffffffffffffffffff1673ffffffffffffffffffffffffffffffffffffffff168152602001908152602001600020819055505b50808061269c906164a8565b91505061242a565b5060016003819055505050565b600260009054906101000a900473ffffffffffffffffffffffffffffffffffffffff1673ffffffffffffffffffffffffffffffffffffffff163373ffffffffffffffffffffffffffffffffffffffff161480612758575060008054906101000a900473ffffffffffffffffffffffffffffffffffffffff1673ffffffffffffffffffffffffffffffffffffffff163373ffffffffffffffffffffffffffffffffffffffff16145b612797576040517f08c379a000000000000000000000000000000000000000000000000000000000815260040161278e90615d20565b60405180910390fd5b80603c60086101000a81548160ff021916908315150217905550603c60089054906101000a900460ff1615612802577f62e78cea01bee320cd4e420270b5ea74000d11b0c9f74754ebdbfc544b05a258306040516127f59190615ab2565b60405180910390a161283a565b7f5db9ee0a495bf2e6ff9c91a7834c1ba4fdd244a5e8aa4e537bd38aeae4b073aa306040516128319190615ab2565b60405180910390a15b50565b603c60099054906101000a900460ff1681565b603c60089054906101000a900460ff16156128a0576040517f08c379a000000000000000000000000000000000000000000000000000000000815260040161289790615ec0565b60405180910390fd5b600260035414156128e6576040517f08c379a00000000000000000000000000000000000000000000000000000000081526004016128dd90615f80565b60405180910390fd5b600260038190555060008373ffffffffffffffffffffffffffffffffffffffff1663565a2e2c6040518163ffffffff1660e01b815260040160206040518083038186803b15801561293657600080fd5b505afa15801561294a573d6000803e3d6000fd5b505050506040513d601f19601f8201168201806040525081019061296e9190614f66565b90508073ffffffffffffffffffffffffffffffffffffffff163373ffffffffffffffffffffffffffffffffffffffff16146129de576040517f08c379a00000000000000000000000000000000000000000000000000000000081526004016129d590615d40565b60405180910390fd5b60005b83839050811015612c91576000603860008773ffffffffffffffffffffffffffffffffffffffff1673ffffffffffffffffffffffffffffffffffffffff1681526020019081526020016000206000868685818110612a68577f4e487b7100000000000000000000000000000000000000000000000000000000600052603260045260246000fd5b9050602002016020810190612a7d9190614eeb565b73ffffffffffffffffffffffffffffffffffffffff1673ffffffffffffffffffffffffffffffffffffffff1681526020019081526020016000205490506000811115612c7d57600073ffffffffffffffffffffffffffffffffffffffff16858584818110612b14577f4e487b7100000000000000000000000000000000000000000000000000000000600052603260045260246000fd5b9050602002016020810190612b299190614eeb565b73ffffffffffffffffffffffffffffffffffffffff161415612b5457612b4f8382614735565b612bad565b612bac858584818110612b90577f4e487b7100000000000000000000000000000000000000000000000000000000600052603260045260246000fd5b9050602002016020810190612ba59190614eeb565b8483614829565b5b6000603860008873ffffffffffffffffffffffffffffffffffffffff1673ffffffffffffffffffffffffffffffffffffffff1681526020019081526020016000206000878786818110612c29577f4e487b7100000000000000000000000000000000000000000000000000000000600052603260045260246000fd5b9050602002016020810190612c3e9190614eeb565b73ffffffffffffffffffffffffffffffffffffffff1673ffffffffffffffffffffffffffffffffffffffff168152602001908152602001600020819055505b508080612c89906164a8565b9150506129e1565b50506001600381905550505050565b6000603b54905090565b600160009054906101000a900473ffffffffffffffffffffffffffffffffffffffff1681565b603c60009054906101000a900467ffffffffffffffff1681565b600160009054906101000a900473ffffffffffffffffffffffffffffffffffffffff1673ffffffffffffffffffffffffffffffffffffffff163373ffffffffffffffffffffffffffffffffffffffff1614612d7a576040517f08c379a0000000000000000000000000000000000000000000000000000000008152600401612d7190615e60565b60405180910390fd5b7f70aea8d848e8a90fb7661b227dc522eb6395c3dac71b63cb59edd5c9899b236460008054906101000a900473ffffffffffffffffffffffffffffffffffffffff16600160009054906101000a900473ffffffffffffffffffffffffffffffffffffffff16604051612ded929190615ae8565b60405180910390a1600160009054906101000a900473ffffffffffffffffffffffffffffffffffffffff166000806101000a81548173ffffffffffffffffffffffffffffffffffffffff021916908373ffffffffffffffffffffffffffffffffffffffff16021790555060007fb3d55174552271a4f1aaf36b72f50381e892171636b3fb5447fe00e995e7a37b600160009054906101000a900473ffffffffffffffffffffffffffffffffffffffff1682604051612eac929190615ae8565b60405180910390a180600160006101000a81548173ffffffffffffffffffffffffffffffffffffffff021916908373ffffffffffffffffffffffffffffffffffffffff16021790555050565b60008054906101000a900473ffffffffffffffffffffffffffffffffffffffff1673ffffffffffffffffffffffffffffffffffffffff163373ffffffffffffffffffffffffffffffffffffffff1614612f86576040517f08c379a0000000000000000000000000000000000000000000000000000000008152600401612f7d90615fc0565b60405180910390fd5b80603a60006101000a81548173ffffffffffffffffffffffffffffffffffffffff021916908373ffffffffffffffffffffffffffffffffffffffff16021790555050565b6000603860008473ffffffffffffffffffffffffffffffffffffffff1673ffffffffffffffffffffffffffffffffffffffff16815260200190815260200160002060008373ffffffffffffffffffffffffffffffffffffffff1673ffffffffffffffffffffffffffffffffffffffff16815260200190815260200160002054905092915050565b60008054906101000a900473ffffffffffffffffffffffffffffffffffffffff1673ffffffffffffffffffffffffffffffffffffffff163373ffffffffffffffffffffffffffffffffffffffff16146130df576040517f08c379a00000000000000000000000000000000000000000000000000000000081526004016130d690615fc0565b60405180910390fd5b7fb3d55174552271a4f1aaf36b72f50381e892171636b3fb5447fe00e995e7a37b600160009054906101000a900473ffffffffffffffffffffffffffffffffffffffff1682604051613132929190615ae8565b60405180910390a180600160006101000a81548173ffffffffffffffffffffffffffffffffffffffff021916908373ffffffffffffffffffffffffffffffffffffffff16021790555050565b600260035414156131c4576040517f08c379a00000000000000000000000000000000000000000000000000000000081526004016131bb90615f80565b60405180910390fd5b600260038190555060006131d9898989613f8e565b90506131eb8982898989898989610dba565b5060016003819055505050505050505050565b600260009054906101000a900473ffffffffffffffffffffffffffffffffffffffff1681565b6000806000806000603760008a73ffffffffffffffffffffffffffffffffffffffff1673ffffffffffffffffffffffffffffffffffffffff168152602001908152602001600020600089815260200190815260200160002090506201518060018888613290919061631d565b61329a9190616220565b67ffffffffffffffff1682600101546132b3919061628f565b6132bd919061625e565b9450620186a067ffffffffffffffff16603b54866132db919061628f565b6132e5919061625e565b9250620186a067ffffffffffffffff168973ffffffffffffffffffffffffffffffffffffffff1663820bdcdc6040518163ffffffff1660e01b815260040160206040518083038186803b15801561333b57600080fd5b505afa15801561334f573d6000803e3d6000fd5b505050506040513d601f19601f820116820180604052508101906133739190615316565b8661337e919061628f565b613388919061625e565b915081838661339791906162e9565b6133a191906162e9565b935081603860008b73ffffffffffffffffffffffffffffffffffffffff1673ffffffffffffffffffffffffffffffffffffffff16815260200190815260200160002060008360000160009054906101000a900473ffffffffffffffffffffffffffffffffffffffff1673ffffffffffffffffffffffffffffffffffffffff1673ffffffffffffffffffffffffffffffffffffffff168152602001908152602001600020600082825461345391906161ca565b9250508190555082603960008360000160009054906101000a900473ffffffffffffffffffffffffffffffffffffffff1673ffffffffffffffffffffffffffffffffffffffff1673ffffffffffffffffffffffffffffffffffffffff16815260200190815260200160002060008282546134cd91906161ca565b92505081905550600073ffffffffffffffffffffffffffffffffffffffff168160000160009054906101000a900473ffffffffffffffffffffffffffffffffffffffff1673ffffffffffffffffffffffffffffffffffffffff1614156136255784341015613570576040517f08c379a000000000000000000000000000000000000000000000000000000000815260040161356790615e00565b60405180910390fd5b6136028973ffffffffffffffffffffffffffffffffffffffff16636352211e8a6040518263ffffffff1660e01b81526004016135ac9190616037565b60206040518083038186803b1580156135c457600080fd5b505afa1580156135d8573d6000803e3d6000fd5b505050506040513d601f19601f820116820180604052508101906135fc9190614f14565b85614735565b843411156136205761361f33863461361a91906162e9565b614735565b5b6138be565b60008160000160009054906101000a900473ffffffffffffffffffffffffffffffffffffffff1673ffffffffffffffffffffffffffffffffffffffff166370a08231306040518263ffffffff1660e01b81526004016136849190615ab2565b60206040518083038186803b15801561369c57600080fd5b505afa1580156136b0573d6000803e3d6000fd5b505050506040513d601f19601f820116820180604052508101906136d49190615316565b90506137068260000160009054906101000a900473ffffffffffffffffffffffffffffffffffffffff163330896148af565b60008260000160009054906101000a900473ffffffffffffffffffffffffffffffffffffffff1673ffffffffffffffffffffffffffffffffffffffff166370a08231306040518263ffffffff1660e01b81526004016137659190615ab2565b60206040518083038186803b15801561377d57600080fd5b505afa158015613791573d6000803e3d6000fd5b505050506040513d601f19601f820116820180604052508101906137b59190615316565b90508087836137c491906161ca565b14613804576040517f08c379a00000000000000000000000000000000000000000000000000000000081526004016137fb90615e40565b60405180910390fd5b6138bb8360000160009054906101000a900473ffffffffffffffffffffffffffffffffffffffff168c73ffffffffffffffffffffffffffffffffffffffff16636352211e8d6040518263ffffffff1660e01b81526004016138659190616037565b60206040518083038186803b15801561387d57600080fd5b505afa158015613891573d6000803e3d6000fd5b505050506040513d601f19601f820116820180604052508101906138b59190614f14565b88614829565b50505b50945094509450949050565b6138d5338a8a614312565b428767ffffffffffffffff1611613921576040517f08c379a000000000000000000000000000000000000000000000000000000000815260040161391890615f00565b60405180910390fd5b8873ffffffffffffffffffffffffffffffffffffffff1663b49a2db96040518163ffffffff1660e01b815260040160206040518083038186803b15801561396757600080fd5b505afa15801561397b573d6000803e3d6000fd5b505050506040513d601f19601f8201168201806040525081019061399f91906153b7565b67ffffffffffffffff168667ffffffffffffffff1611156139f5576040517f08c379a00000000000000000000000000000000000000000000000000000000081526004016139ec90615fa0565b60405180910390fd5b8873ffffffffffffffffffffffffffffffffffffffff166301ffc9a77fc91f0c53000000000000000000000000000000000000000000000000000000006040518263ffffffff1660e01b8152600401613a4e9190615cc8565b60206040518083038186803b158015613a6657600080fd5b505afa158015613a7a573d6000803e3d6000fd5b505050506040513d601f19601f82011682018060405250810190613a9e91906152c4565b613add576040517f08c379a0000000000000000000000000000000000000000000000000000000008152600401613ad490615f40565b60405180910390fd5b60008973ffffffffffffffffffffffffffffffffffffffff1663e42e66a98a60006040518363ffffffff1660e01b8152600401613b1b929190616052565b60606040518083038186803b158015613b3357600080fd5b505afa158015613b47573d6000803e3d6000fd5b505050506040513d601f19601f82011682018060405250810190613b6b919061533f565b925050508067ffffffffffffffff168867ffffffffffffffff161115613b8f578097505b603c60009054906101000a900467ffffffffffffffff1667ffffffffffffffff1642613bbb91906161ca565b8867ffffffffffffffff161115613bf157603c60009054906101000a900467ffffffffffffffff1642613bee9190616220565b97505b60008a73ffffffffffffffffffffffffffffffffffffffff16636352211e8b6040518263ffffffff1660e01b8152600401613c2c9190616037565b60206040518083038186803b158015613c4457600080fd5b505afa158015613c58573d6000803e3d6000fd5b505050506040513d601f19601f82011682018060405250810190613c7c9190614f14565b90506000603560008d73ffffffffffffffffffffffffffffffffffffffff1673ffffffffffffffffffffffffffffffffffffffff16815260200190815260200160002060008c81526020019081526020016000209050818160000160006101000a81548173ffffffffffffffffffffffffffffffffffffffff021916908373ffffffffffffffffffffffffffffffffffffffff1602179055508b8160010160006101000a81548173ffffffffffffffffffffffffffffffffffffffff021916908373ffffffffffffffffffffffffffffffffffffffff1602179055508a8160020181905550898160030160006101000a81548167ffffffffffffffff021916908367ffffffffffffffff160217905550888160030160086101000a81548167ffffffffffffffff021916908367ffffffffffffffff1602179055508b73ffffffffffffffffffffffffffffffffffffffff16633d46b8198c6040518263ffffffff1660e01b8152600401613df09190616037565b60206040518083038186803b158015613e0857600080fd5b505afa158015613e1c573d6000803e3d6000fd5b505050506040513d601f19601f82011682018060405250810190613e4091906153b7565b8160030160186101000a81548167ffffffffffffffff021916908367ffffffffffffffff160217905550428160030160106101000a81548167ffffffffffffffff021916908367ffffffffffffffff160217905550858160040160006101000a81548160ff02191690836002811115613ee2577f4e487b7100000000000000000000000000000000000000000000000000000000600052602160045260246000fd5b0217905550848160040160016101000a81548160ff02191690836000811115613f34577f4e487b7100000000000000000000000000000000000000000000000000000000600052602160045260246000fd5b02179055507faeb169383f2ae7c2482351835d026f1a393e148c3a1b5398c1655bc120cfc16f828d8d8d8d8d8d8b8e604051613f7899989796959493929190615bd5565b60405180910390a1505050505050505050505050565b6000808473ffffffffffffffffffffffffffffffffffffffff166325cb25b06040518163ffffffff1660e01b815260040160206040518083038186803b158015613fd757600080fd5b505afa158015613feb573d6000803e3d6000fd5b505050506040513d601f19601f8201168201806040525081019061400f9190614f14565b90508073ffffffffffffffffffffffffffffffffffffffff166301ffc9a77fb72080fb000000000000000000000000000000000000000000000000000000006040518263ffffffff1660e01b815260040161406a9190615cc8565b60206040518083038186803b15801561408257600080fd5b505afa158015614096573d6000803e3d6000fd5b505050506040513d601f19601f820116820180604052508101906140ba91906152c4565b156142255760008173ffffffffffffffffffffffffffffffffffffffff1663cab416b46040518163ffffffff1660e01b815260040160206040518083038186803b15801561410757600080fd5b505afa15801561411b573d6000803e3d6000fd5b505050506040513d601f19601f8201168201806040525081019061413f9190614f14565b905060008273ffffffffffffffffffffffffffffffffffffffff168273ffffffffffffffffffffffffffffffffffffffff16636352211e886040518263ffffffff1660e01b81526004016141939190616037565b60206040518083038186803b1580156141ab57600080fd5b505afa1580156141bf573d6000803e3d6000fd5b505050506040513d601f19601f820116820180604052508101906141e39190614f14565b73ffffffffffffffffffffffffffffffffffffffff1614905080156142125761420d338488614312565b61421e565b61421d338388614312565b5b5050614231565b614230338286614312565b5b428367ffffffffffffffff161161427d576040517f08c379a000000000000000000000000000000000000000000000000000000000815260040161427490615f00565b60405180910390fd5b8473ffffffffffffffffffffffffffffffffffffffff1663a6cc2650856040518263ffffffff1660e01b81526004016142b69190616037565b602060405180830381600087803b1580156142d057600080fd5b505af11580156142e4573d6000803e3d6000fd5b505050506040513d601f19601f820116820180604052508101906143089190615316565b9150509392505050565b60008273ffffffffffffffffffffffffffffffffffffffff16636352211e836040518263ffffffff1660e01b815260040161434d9190616037565b60206040518083038186803b15801561436557600080fd5b505afa158015614379573d6000803e3d6000fd5b505050506040513d601f19601f8201168201806040525081019061439d9190614f14565b90508073ffffffffffffffffffffffffffffffffffffffff168473ffffffffffffffffffffffffffffffffffffffff16148061448c57508373ffffffffffffffffffffffffffffffffffffffff168373ffffffffffffffffffffffffffffffffffffffff1663081812fc846040518263ffffffff1660e01b81526004016144249190616037565b60206040518083038186803b15801561443c57600080fd5b505afa158015614450573d6000803e3d6000fd5b505050506040513d601f19601f820116820180604052508101906144749190614f14565b73ffffffffffffffffffffffffffffffffffffffff16145b8061451e57508273ffffffffffffffffffffffffffffffffffffffff1663e985e9c582866040518363ffffffff1660e01b81526004016144cd929190615ae8565b60206040518083038186803b1580156144e557600080fd5b505afa1580156144f9573d6000803e3d6000fd5b505050506040513d601f19601f8201168201806040525081019061451d91906152c4565b5b61455d576040517f08c379a000000000000000000000000000000000000000000000000000000000815260040161455490615e20565b60405180910390fd5b50505050565b6000600260159054906101000a900460ff16156145db5760018260ff16148015614593575061459130614938565b155b6145d2576040517f08c379a00000000000000000000000000000000000000000000000000000000081526004016145c990615de0565b60405180910390fd5b60009050614652565b8160ff16600260149054906101000a900460ff1660ff1610614632576040517f08c379a000000000000000000000000000000000000000000000000000000000815260040161462990615de0565b60405180910390fd5b81600260146101000a81548160ff021916908360ff160217905550600190505b919050565b600260159054906101000a900460ff166146a6576040517f08c379a000000000000000000000000000000000000000000000000000000000815260040161469d90615ee0565b60405180910390fd5b6146ae61495b565b565b816000806101000a81548173ffffffffffffffffffffffffffffffffffffffff021916908373ffffffffffffffffffffffffffffffffffffffff16021790555080600260006101000a81548173ffffffffffffffffffffffffffffffffffffffff021916908373ffffffffffffffffffffffffffffffffffffffff1602179055505050565b80471015614778576040517f08c379a000000000000000000000000000000000000000000000000000000000815260040161476f90615d80565b60405180910390fd5b60008273ffffffffffffffffffffffffffffffffffffffff168260405161479e90615a9d565b60006040518083038185875af1925050503d80600081146147db576040519150601f19603f3d011682016040523d82523d6000602084013e6147e0565b606091505b5050905080614824576040517f08c379a000000000000000000000000000000000000000000000000000000000815260040161481b90615d60565b60405180910390fd5b505050565b6148aa8363a9059cbb60e01b8484604051602401614848929190615c62565b604051602081830303815290604052907bffffffffffffffffffffffffffffffffffffffffffffffffffffffff19166020820180517bffffffffffffffffffffffffffffffffffffffffffffffffffffffff83818316178352505050506149b4565b505050565b614932846323b872dd60e01b8585856040516024016148d093929190615b9e565b604051602081830303815290604052907bffffffffffffffffffffffffffffffffffffffffffffffffffffffff19166020820180517bffffffffffffffffffffffffffffffffffffffffffffffffffffffff83818316178352505050506149b4565b50505050565b6000808273ffffffffffffffffffffffffffffffffffffffff163b119050919050565b600260159054906101000a900460ff166149aa576040517f08c379a00000000000000000000000000000000000000000000000000000000081526004016149a190615ee0565b60405180910390fd5b6001600381905550565b6000614a16826040518060400160405280602081526020017f5361666545524332303a206c6f772d6c6576656c2063616c6c206661696c65648152508573ffffffffffffffffffffffffffffffffffffffff16614a7b9092919063ffffffff16565b9050600081511115614a765780806020019051810190614a3691906152c4565b614a75576040517f08c379a0000000000000000000000000000000000000000000000000000000008152600401614a6c90615f20565b60405180910390fd5b5b505050565b6060614a8a8484600085614a93565b90509392505050565b606082471015614ad8576040517f08c379a0000000000000000000000000000000000000000000000000000000008152600401614acf90615da0565b60405180910390fd5b614ae185614ba7565b614b20576040517f08c379a0000000000000000000000000000000000000000000000000000000008152600401614b1790615ea0565b60405180910390fd5b6000808673ffffffffffffffffffffffffffffffffffffffff168587604051614b499190615a86565b60006040518083038185875af1925050503d8060008114614b86576040519150601f19603f3d011682016040523d82523d6000602084013e614b8b565b606091505b5091509150614b9b828286614bca565b92505050949350505050565b6000808273ffffffffffffffffffffffffffffffffffffffff163b119050919050565b60608315614bda57829050614c2a565b600083511115614bed5782518084602001fd5b816040517f08c379a0000000000000000000000000000000000000000000000000000000008152600401614c219190615cfe565b60405180910390fd5b9392505050565b6040518060400160405280600073ffffffffffffffffffffffffffffffffffffffff168152602001600081525090565b604051806101200160405280600073ffffffffffffffffffffffffffffffffffffffff168152602001600073ffffffffffffffffffffffffffffffffffffffff16815260200160008152602001600067ffffffffffffffff168152602001600067ffffffffffffffff168152602001600067ffffffffffffffff168152602001600067ffffffffffffffff16815260200160006002811115614d2c577f4e487b7100000000000000000000000000000000000000000000000000000000600052602160045260246000fd5b8152602001600080811115614d6a577f4e487b7100000000000000000000000000000000000000000000000000000000600052602160045260246000fd5b81525090565b600081359050614d7f81616a27565b92915050565b600081519050614d9481616a27565b92915050565b600081359050614da981616a3e565b92915050565b600081519050614dbe81616a3e565b92915050565b60008083601f840112614dd657600080fd5b8235905067ffffffffffffffff811115614def57600080fd5b602083019150836020820283011115614e0757600080fd5b9250929050565b60008083601f840112614e2057600080fd5b8235905067ffffffffffffffff811115614e3957600080fd5b602083019150836020820283011115614e5157600080fd5b9250929050565b600081359050614e6781616a55565b92915050565b600081519050614e7c81616a55565b92915050565b600081359050614e9181616a6c565b92915050565b600081359050614ea681616a7c565b92915050565b600081519050614ebb81616a7c565b92915050565b600081359050614ed081616a93565b92915050565b600081519050614ee581616a93565b92915050565b600060208284031215614efd57600080fd5b6000614f0b84828501614d70565b91505092915050565b600060208284031215614f2657600080fd5b6000614f3484828501614d85565b91505092915050565b600060208284031215614f4f57600080fd5b6000614f5d84828501614d9a565b91505092915050565b600060208284031215614f7857600080fd5b6000614f8684828501614daf565b91505092915050565b60008060408385031215614fa257600080fd5b6000614fb085828601614d70565b9250506020614fc185828601614d70565b9150509250929050565b600080600060408486031215614fe057600080fd5b6000614fee86828701614d70565b935050602084013567ffffffffffffffff81111561500b57600080fd5b61501786828701614dc4565b92509250509250925092565b6000806040838503121561503657600080fd5b600061504485828601614d70565b925050602061505585828601614e97565b9150509250929050565b600080600080600060a0868803121561507757600080fd5b600061508588828901614d70565b955050602061509688828901614e97565b94505060406150a788828901614e97565b93505060606150b888828901614ec1565b92505060806150c988828901614d70565b9150509295509295909350565b60008060008060008060c087890312156150ef57600080fd5b60006150fd89828a01614d70565b965050602061510e89828a01614e97565b955050604061511f89828a01614ec1565b945050606061513089828a01614ec1565b935050608061514189828a01614e97565b92505060a061515289828a01614d70565b9150509295509295509295565b600080600080600080600080610100898b03121561517c57600080fd5b600061518a8b828c01614d70565b985050602061519b8b828c01614e97565b97505060406151ac8b828c01614ec1565b96505060606151bd8b828c01614ec1565b95505060806151ce8b828c01614e97565b94505060a06151df8b828c01614d70565b93505060c06151f08b828c01614d70565b92505060e06152018b828c01614e82565b9150509295985092959890939650565b6000806020838503121561522457600080fd5b600083013567ffffffffffffffff81111561523e57600080fd5b61524a85828601614dc4565b92509250509250929050565b6000806020838503121561526957600080fd5b600083013567ffffffffffffffff81111561528357600080fd5b61528f85828601614e0e565b92509250509250929050565b6000602082840312156152ad57600080fd5b60006152bb84828501614e58565b91505092915050565b6000602082840312156152d657600080fd5b60006152e484828501614e6d565b91505092915050565b6000602082840312156152ff57600080fd5b600061530d84828501614e97565b91505092915050565b60006020828403121561532857600080fd5b600061533684828501614eac565b91505092915050565b60008060006060848603121561535457600080fd5b600061536286828701614eac565b935050602061537386828701614ed6565b925050604061538486828701614ed6565b9150509250925092565b6000602082840312156153a057600080fd5b60006153ae84828501614ec1565b91505092915050565b6000602082840312156153c957600080fd5b60006153d784828501614ed6565b91505092915050565b600080604083850312156153f357600080fd5b600061540185828601614ed6565b925050602061541285828601614ed6565b9150509250929050565b60006154288383615515565b905092915050565b61543981616363565b82525050565b61544881616351565b82525050565b61545781616351565b82525050565b60006154688261615e565b615472818561618c565b9350836020820285016154848561614e565b8060005b858110156154c057848403895281516154a1858261541c565b94506154ac8361617f565b925060208a01995050600181019050615488565b50829750879550505050505092915050565b6154db81616375565b82525050565b6154ea81616381565b82525050565b60006154fc83856161ae565b9350615509838584616466565b82840190509392505050565b600061552082616169565b61552a818561619d565b935061553a818560208601616475565b6155438161657e565b840191505092915050565b600061555982616169565b61556381856161ae565b9350615573818560208601616475565b80840191505092915050565b6155888161641e565b82525050565b6155978161641e565b82525050565b6155a681616430565b82525050565b6155b581616442565b82525050565b6155c481616454565b82525050565b60006155d582616174565b6155df81856161b9565b93506155ef818560208601616475565b6155f88161657e565b840191505092915050565b60006156106009836161b9565b915061561b8261658f565b602082019050919050565b6000615633600f836161b9565b915061563e826165b8565b602082019050919050565b6000615656603a836161b9565b9150615661826165e1565b604082019050919050565b6000615679601d836161b9565b915061568482616630565b602082019050919050565b600061569c6026836161b9565b91506156a782616659565b604082019050919050565b60006156bf600b836161b9565b91506156ca826166a8565b602082019050919050565b60006156e2602e836161b9565b91506156ed826166d1565b604082019050919050565b60006157056015836161b9565b915061571082616720565b602082019050919050565b60006157286016836161b9565b915061573382616749565b602082019050919050565b600061574b6016836161b9565b915061575682616772565b602082019050919050565b600061576e6010836161b9565b91506157798261679b565b602082019050919050565b6000615791600d836161b9565b915061579c826167c4565b602082019050919050565b60006157b46000836161ae565b91506157bf826167ed565b600082019050919050565b60006157d7601d836161b9565b91506157e2826167f0565b602082019050919050565b60006157fa600a836161b9565b915061580582616819565b602082019050919050565b600061581d602b836161b9565b915061582882616842565b604082019050919050565b60006158406012836161b9565b915061584b82616891565b602082019050919050565b6000615863602a836161b9565b915061586e826168ba565b604082019050919050565b60006158866009836161b9565b915061589182616909565b602082019050919050565b60006158a96016836161b9565b91506158b482616932565b602082019050919050565b60006158cc601f836161b9565b91506158d78261695b565b602082019050919050565b60006158ef6017836161b9565b91506158fa82616984565b602082019050919050565b60006159126009836161b9565b915061591d826169ad565b602082019050919050565b6000615935600e836161b9565b9150615940826169d6565b602082019050919050565b61012082016000820151615962600085018261543f565b506020820151615975602085018261543f565b5060408201516159886040850182615a31565b50606082015161599b6060850182615a4f565b5060808201516159ae6080850182615a4f565b5060a08201516159c160a0850182615a4f565b5060c08201516159d460c0850182615a4f565b5060e08201516159e760e085018261557f565b506101008201516159fc61010085018261559d565b50505050565b604082016000820151615a18600085018261543f565b506020820151615a2b6020850182615a31565b50505050565b615a3a816163f3565b82525050565b615a49816163f3565b82525050565b615a58816163fd565b82525050565b615a67816163fd565b82525050565b6000615a7a8284866154f0565b91508190509392505050565b6000615a92828461554e565b915081905092915050565b6000615aa8826157a7565b9150819050919050565b6000602082019050615ac7600083018461544e565b92915050565b6000602082019050615ae26000830184615430565b92915050565b6000604082019050615afd600083018561544e565b615b0a602083018461544e565b9392505050565b600061012082019050615b27600083018c61544e565b615b34602083018b61544e565b615b41604083018a61544e565b615b4e6060830189615a40565b615b5b6080830188615a5e565b615b6860a0830187615a5e565b615b7560c0830186615a40565b615b8260e0830185615a40565b615b9061010083018461544e565b9a9950505050505050505050565b6000606082019050615bb3600083018661544e565b615bc0602083018561544e565b615bcd6040830184615a40565b949350505050565b600061012082019050615beb600083018c61544e565b615bf8602083018b61544e565b615c05604083018a615a40565b615c126060830189615a5e565b615c1f6080830188615a5e565b615c2c60a0830187615a40565b615c3960c083018661544e565b615c4660e083018561544e565b615c5461010083018461558e565b9a9950505050505050505050565b6000604082019050615c77600083018561544e565b615c846020830184615a40565b9392505050565b60006020820190508181036000830152615ca5818461545d565b905092915050565b6000602082019050615cc260008301846154d2565b92915050565b6000602082019050615cdd60008301846154e1565b92915050565b6000602082019050615cf860008301846155bb565b92915050565b60006020820190508181036000830152615d1881846155ca565b905092915050565b60006020820190508181036000830152615d3981615603565b9050919050565b60006020820190508181036000830152615d5981615626565b9050919050565b60006020820190508181036000830152615d7981615649565b9050919050565b60006020820190508181036000830152615d998161566c565b9050919050565b60006020820190508181036000830152615db98161568f565b9050919050565b60006020820190508181036000830152615dd9816156b2565b9050919050565b60006020820190508181036000830152615df9816156d5565b9050919050565b60006020820190508181036000830152615e19816156f8565b9050919050565b60006020820190508181036000830152615e398161571b565b9050919050565b60006020820190508181036000830152615e598161573e565b9050919050565b60006020820190508181036000830152615e7981615761565b9050919050565b60006020820190508181036000830152615e9981615784565b9050919050565b60006020820190508181036000830152615eb9816157ca565b9050919050565b60006020820190508181036000830152615ed9816157ed565b9050919050565b60006020820190508181036000830152615ef981615810565b9050919050565b60006020820190508181036000830152615f1981615833565b9050919050565b60006020820190508181036000830152615f3981615856565b9050919050565b60006020820190508181036000830152615f5981615879565b9050919050565b60006020820190508181036000830152615f798161589c565b9050919050565b60006020820190508181036000830152615f99816158bf565b9050919050565b60006020820190508181036000830152615fb9816158e2565b9050919050565b60006020820190508181036000830152615fd981615905565b9050919050565b60006020820190508181036000830152615ff981615928565b9050919050565b600061012082019050616016600083018461594b565b92915050565b60006040820190506160316000830184615a02565b92915050565b600060208201905061604c6000830184615a40565b92915050565b60006040820190506160676000830185615a40565b61607460208301846155ac565b9392505050565b600060c0820190506160906000830189615a40565b61609d6020830188615a40565b6160aa6040830187615a5e565b6160b76060830186615a5e565b6160c4608083018561544e565b6160d160a083018461544e565b979650505050505050565b60006020820190506160f16000830184615a5e565b92915050565b6000808335600160200384360303811261611057600080fd5b80840192508235915067ffffffffffffffff82111561612e57600080fd5b60208301925060018202360383131561614657600080fd5b509250929050565b6000819050602082019050919050565b600081519050919050565b600081519050919050565b600081519050919050565b6000602082019050919050565b600082825260208201905092915050565b600082825260208201905092915050565b600081905092915050565b600082825260208201905092915050565b60006161d5826163f3565b91506161e0836163f3565b9250827fffffffffffffffffffffffffffffffffffffffffffffffffffffffffffffffff03821115616215576162146164f1565b5b828201905092915050565b600061622b826163fd565b9150616236836163fd565b92508267ffffffffffffffff03821115616253576162526164f1565b5b828201905092915050565b6000616269826163f3565b9150616274836163f3565b92508261628457616283616520565b5b828204905092915050565b600061629a826163f3565b91506162a5836163f3565b9250817fffffffffffffffffffffffffffffffffffffffffffffffffffffffffffffffff04831182151516156162de576162dd6164f1565b5b828202905092915050565b60006162f4826163f3565b91506162ff836163f3565b925082821015616312576163116164f1565b5b828203905092915050565b6000616328826163fd565b9150616333836163fd565b925082821015616346576163456164f1565b5b828203905092915050565b600061635c826163d3565b9050919050565b600061636e826163d3565b9050919050565b60008115159050919050565b60007fffffffff0000000000000000000000000000000000000000000000000000000082169050919050565b60008190506163bb826169ff565b919050565b60008190506163ce82616a13565b919050565b600073ffffffffffffffffffffffffffffffffffffffff82169050919050565b6000819050919050565b600067ffffffffffffffff82169050919050565b600060ff82169050919050565b6000616429826163ad565b9050919050565b600061643b826163c0565b9050919050565b600061644d826163f3565b9050919050565b600061645f82616411565b9050919050565b82818337600083830152505050565b60005b83811015616493578082015181840152602081019050616478565b838111156164a2576000848401525b50505050565b60006164b3826163f3565b91507fffffffffffffffffffffffffffffffffffffffffffffffffffffffffffffffff8214156164e6576164e56164f1565b5b600182019050919050565b7f4e487b7100000000000000000000000000000000000000000000000000000000600052601160045260246000fd5b7f4e487b7100000000000000000000000000000000000000000000000000000000600052601260045260246000fd5b7f4e487b7100000000000000000000000000000000000000000000000000000000600052602160045260246000fd5b6000601f19601f8301169050919050565b7f6f6e6c7941646d696e0000000000000000000000000000000000000000000000600082015250565b7f6e6f742062656e65666963696172790000000000000000000000000000000000600082015250565b7f416464726573733a20756e61626c6520746f2073656e642076616c75652c207260008201527f6563697069656e74206d61792068617665207265766572746564000000000000602082015250565b7f416464726573733a20696e73756666696369656e742062616c616e6365000000600082015250565b7f416464726573733a20696e73756666696369656e742062616c616e636520666f60008201527f722063616c6c0000000000000000000000000000000000000000000000000000602082015250565b7f696e76616c696420666565000000000000000000000000000000000000000000600082015250565b7f496e697469616c697a61626c653a20636f6e747261637420697320616c72656160008201527f647920696e697469616c697a6564000000000000000000000000000000000000602082015250565b7f7061796d656e74206973206e6f7420656e6f7567680000000000000000000000600082015250565b7f6f6e6c7920617070726f766564206f72206f776e657200000000000000000000600082015250565b7f6e6f7420737570706f7274206275726e20455243323000000000000000000000600082015250565b7f6f6e6c7950656e64696e674f776e657200000000000000000000000000000000600082015250565b7f696e76616c6964206f7264657200000000000000000000000000000000000000600082015250565b50565b7f416464726573733a2063616c6c20746f206e6f6e2d636f6e7472616374000000600082015250565b7f69732070617573696e6700000000000000000000000000000000000000000000600082015250565b7f496e697469616c697a61626c653a20636f6e7472616374206973206e6f74206960008201527f6e697469616c697a696e67000000000000000000000000000000000000000000602082015250565b7f696e76616c6964206d6178456e6454696d650000000000000000000000000000600082015250565b7f5361666545524332303a204552433230206f7065726174696f6e20646964206e60008201527f6f74207375636365656400000000000000000000000000000000000000000000602082015250565b7f6e6f7420646f4e46540000000000000000000000000000000000000000000000600082015250565b7f6475726174696f6e203c206d696e4475726174696f6e00000000000000000000600082015250565b7f5265656e7472616e637947756172643a207265656e7472616e742063616c6c00600082015250565b7f4572726f723a6d696e4475726174696f6e203e206d6178000000000000000000600082015250565b7f6f6e6c794f776e65720000000000000000000000000000000000000000000000600082015250565b7f696e76616c69642072656e746572000000000000000000000000000000000000600082015250565b60038110616a1057616a0f61654f565b5b50565b60018110616a2457616a2361654f565b5b50565b616a3081616351565b8114616a3b57600080fd5b50565b616a4781616363565b8114616a5257600080fd5b50565b616a5e81616375565b8114616a6957600080fd5b50565b60038110616a7957600080fd5b50565b616a85816163f3565b8114616a9057600080fd5b50565b616a9c816163fd565b8114616aa757600080fd5b5056fea2646970667358221220718ce202b38924ac7b56c823383bea2aeca07905267d36bac63d5d3c41d27ea664736f6c63430008040033",
  "linkReferences": {},
  "deployedLinkReferences": {}
}